:100000000C941C010C9444010C9444010C94480F72
:100010000C94480F0C94480F0C9444010C94440128
:100020000C9444010C9444010C9444010C9444013C
:100030000C9444010C9444010C9444010C9444012C
:100040000C94FE0E0C9444010C94CC0E0C94A60E51
:100050000C9444010C9444010C9444010C9444010C
:100060000C9444010C9444010000000800020100BB
:1000700000030407000000000000000041542B436F
:100080004D4744413D2244454C20414C4C220041C7
:10009000540052656D6F7465204F46460052656D81
:1000A0006F7465204F4E004252532D436C6F736541
:1000B000642023004252532D416C61726D20230055
:1000C00073746172745F616300686F726E006C6953
:1000D000676874006770730073746172740073747E
:1000E0006F7000626F783300626F783200626F78F1
:1000F00031006368697564690061707269006777CF
:100100007300726573657400757064617465004195
:10011000542B434D47443D0041542B434D47523DE2
:10012000004E756D65726F205B325D2053616C7699
:1001300061746F21005B325D004E756D65726F20DA
:100140005B315D2053616C7661746F21005B315DC2
:1001500000537461727420414300526573657400EA
:10016000557064617465004750530053746F70009C
:10017000537461727400475753004C696768740088
:10018000486F726E004368697564690041707269F6
:1001900000426F7800536F7263696E656C6C690022
:1001A000536574204F574E45522032303132373626
:1001B000004252532D456D657267656E6379202349
:1001C000004252532D54696D656F757420230042AF
:1001D0004F58203100424F58203200424F582033B0
:1001E00000220041542B434D47533D2200000000A4
:1001F0000023002600290000000000250028002B15
:100200000000000000240027002A0001020408105A
:10021000204080010204081020010204081020047C
:10022000040404040404040202020202020303039D
:1002300003030300C00F8A2211241FBECFEFD8E0B2
:10024000DEBFCDBF24E0A2EDB1E001C01D92AC390C
:10025000B207E1F711E0A0E0B1E0E0E2FCE402C0A7
:1002600005900D92A23DB107D9F711E0CBE1D1E0A5
:1002700004C02197FE010E94CE23CA31D107C9F7DD
:100280000E94CC100C9403260C9400000895AF92A9
:10029000BF92CF92DF92EF92FF920F931F93CF9373
:1002A000DF936C017B018B01040F151FEB015E01D5
:1002B000AE18BF08C017D10759F06991D601ED916A
:1002C000FC910190F081E02DC6010995892B79F709
:1002D000C501DF91CF911F910F91FF90EF90DF90BB
:1002E000CF90BF90AF900895FC01538D448D252F82
:1002F00030E0842F90E0821B930B541710F0CF96C0
:10030000089501970895FC01918D828D981761F0F1
:10031000A28DAE0FBF2FB11D5D968C91928D9F5F08
:100320009F73928F90E008958FEF9FEF0895FC01E7
:10033000918D828D981731F0828DE80FF11D858D9A
:1003400090E008958FEF9FEF0895FC01918D228D2D
:10035000892F90E0805C9F4F821B91098F739927B2
:1003600008958FEE92E00E94A50121E0892B09F407
:1003700020E0822F089580E090E0892B29F00E94F0
:10038000B10181110C9400000895FC01A48DA80F07
:10039000B92FB11DA35ABF4F2C91848D90E00196C7
:1003A0008F739927848FA689B7892C93A089B189E7
:1003B0008C91837080648C93938D848D981306C088
:1003C0000288F389E02D80818F7D80830895EF92EC
:1003D000FF920F931F93CF93DF93EC0181E0888FFF
:1003E0009B8D8C8D98131AC0E889F989808185FFCF
:1003F00015C09FB7F894EE89FF896083E889F98971
:1004000080818370806480839FBF81E090E0DF9172
:10041000CF911F910F91FF90EF900895F62E0B8DC5
:1004200010E00F5F1F4F0F731127E02E8C8D8E1180
:100430000CC00FB607FCFACFE889F989808185FFE7
:10044000F5CFCE010E94C501F1CFEB8DEC0FFD2F52
:10045000F11DE35AFF4FF0829FB7F8940B8FEA89A2
:10046000FB8980818062CFCF682F8FEE92E00C9461
:10047000E701CF93DF93EC01888D8823B9F0AA8937
:10048000BB89E889F9898C9185FD03C0808186FD4F
:100490000DC00FB607FCF7CF8C9185FFF2CF80819E
:1004A00085FFEDCFCE010E94C501E9CFDF91CF914D
:1004B000089590E0FC01E859FF4F2491FC01E55FAD
:1004C000FD4F3491FC01E15EFD4FE491EE23C9F054
:1004D000222339F0233001F1A8F4213019F1223020
:1004E00029F1F0E0EE0FFF1FE950FE4FA591B49106
:1004F0008FB7F894EC91611126C030953E233C9360
:100500008FBF08952730A9F02830C9F0243049F76B
:10051000809180008F7D03C0809180008F778093D1
:100520008000DFCF84B58F7784BDDBCF84B58F7D2E
:10053000FBCF8091B0008F778093B000D2CF8091B5
:10054000B0008F7DF9CF3E2BDACF61E080913D0482
:100550000C945902CF93DF9390E0FC01E55FFD4FCF
:100560002491815E9D4FFC0184918823D1F090E01D
:10057000880F991FFC01EF5FFD4FA591B491FC011D
:10058000E950FE4FC591D49161110EC09FB7F89408
:100590008C91E22FE0958E238C932881E223E883CF
:1005A0009FBFDF91CF9108958FB7F894EC91E22B24
:1005B000EC938FBFF6CF3FB7F89480911E029091D5
:1005C0001F02A0912002B091210226B5A89B05C070
:1005D0002F3F19F00196A11DB11D3FBFBA2FA92FC2
:1005E000982F8827BC01CD01620F711D811D911DBF
:1005F00042E0660F771F881F991F4A95D1F708952B
:100600002FB7F89460911A0270911B0280911C021E
:1006100090911D022FBF0895209124023091250250
:100620002817390771F490912202809123029817BC
:1006300041F0E0912202F0E0E752FE4F808190E02D
:1006400008958FEF9FEF08950895EF92FF920F9313
:100650001F93CF93DF93DC015C96ED90FC905D9748
:10066000E114F10479F481E090E013969C938E9369
:10067000129790E080E0DF91CF911F910F91FF9052
:10068000EF9008955196ED91FC91529750968C9170
:100690005097982F90950FB75E962C915E97122FDA
:1006A000127021FD6095F8942081112319F1282BF7
:1006B0002083E7012197F1F728E0462F50E03081B1
:1006C00060FF1AC0382B3083E7012197F1F7BA0198
:1006D00075956795215089F7112381F080818923D1
:1006E00080830FBF5C968D919C910197F1F781E01B
:1006F00090E0C1CF2923DCCF3923E5CF9081892B2E
:10070000EFCF0F931F93CF93DF938C01D0E0C0E026
:10071000F801EC0FFD1F6491662341F08CE893E033
:100720000E942503892B11F02196F2CFCE01DF9193
:10073000CF911F910F9108952091240230912502AD
:100740002817390761F4809123022091220290E05A
:10075000805C9F4F821B91098F739927089590E0C9
:1007600080E008952091240230912502281739074E
:10077000B9F49091220280912302981789F0E091B8
:100780002202F0E0E752FE4F80812091220230E009
:100790002F5F3F4F2F7333272093220290E008955D
:1007A0008FEF9FEF08954F925F926F927F928F929B
:1007B0009F92AF92BF92CF92DF92EF92FF924C0145
:1007C0006B010E9400032B013C01B12CA12C8CE891
:1007D00093E00E949C03892B69F40E940003641932
:1007E000750986099709681579058A059B0510F42E
:1007F000A895EDCF8CE893E00E949C03892B01F132
:100800000E9400034B015C01F12CE12CA8958CE8BF
:1008100093E00E949C03892B41F08CE893E00E94B6
:10082000B2030E9400034B015C010E94000368199F
:1008300079098A099B096C157D058E059F0530F3A2
:10084000FF90EF90DF90CF90BF90AF909F908F90F0
:100850007F906F905F904F9008954F925F926F924C
:100860007F929F92AF92BF92CF92DF92EF92FF92D0
:100870000F931F93CF93DF938C016B01E42E922E85
:10088000009721F0672B11F0FC0110820E940003F9
:100890002B013C01D0E0C0E0F12C5601F1E0AF1A91
:1008A000B108A8958CE893E00E949C03892B71F015
:1008B0008CE893E00E94B203F11015C0FF24F3947A
:1008C0008E11F12C0E9400032B013C010E940003B9
:1008D00064197509860997096233710581059105C7
:1008E00000F3F12C0AC0891119C00115110529F076
:1008F000CD2819F0C00FD11F18828F2DDF91CF9115
:100900001F910F91FF90EF90DF90CF90BF90AF902D
:100910009F907F906F905F904F9008950115110503
:1009200089F2CA15DB0574F6F801EC0FFD1F808310
:100930002196C8CF90E080E008958EBD00000DB4F0
:1009400007FEFDCF8EB50895CF93C82F682F86E0A0
:100950000E9459026C2F87E0CF910C9459024F925C
:100960005F926F927F928F929F92AF92BF92EF921F
:10097000FF920F931F93CF93DF934C018B017A016A
:100980000E9400032B013C01B12CA12C8CE893E0C8
:100990000E949C03892B69F40E9400036419750965
:1009A00086099709681579058A059B0510F4A895AD
:1009B000EDCF8CE893E00E949C03892BA1F1E70125
:1009C00009900020E9F72197CE190E9400034B01FE
:1009D0005C01D0E02801712C612CA8958CE893E093
:1009E0000E949C03892BA1F08CE893E00E94B20343
:1009F000F701ED0FF11D9081981305C0DF5FCD1356
:100A000003C081E011C0D0E00E9400034B015C01F3
:100A10000E940003681979098A099B096415750504
:100A200086059705D0F280E0DF91CF911F910F915D
:100A3000FF90EF90BF90AF909F908F907F906F90BE
:100A40005F904F900895FB0101900020E9F73197E6
:100A5000AF01461B570BDC01ED91FC910280F38145
:100A6000E02D0994CF93DF930E948103EC016AE6A5
:100A700071E08CE893E00E9423058C0F9D1FDF91AD
:100A8000CF9108958F929F92AF92BF92EF92FF9273
:100A90000F931F93CF93DF93CDB7DEB7A1970FB618
:100AA000F894DEBF0FBECDBF7C01FA01CB0119A2C5
:100AB000223008F42AE08E010F5D1F4F822E912C08
:100AC000B12CA12CBF01A50194010E948D23F90135
:100AD000CA016A300CF5605DD8016E938D01232B3D
:100AE000242B252B79F790E080E0109721F0BD01B1
:100AF000C7010E942305A1960FB6F894DEBF0FBE72
:100B0000CDBFDF91CF911F910F91FF90EF90BF90DC
:100B1000AF909F908F900895695CDECFCF93DF9365
:100B200083E20E94340240914D0250E070E060E0A8
:100B30002AE08FEE92E00E9442058EE20E9434028B
:100B400040914C0250E070E060E02AE08FEE92E0CD
:100B50000E94420583E20E94340240914B0250E021
:100B600070E060E02AE08FEE92E00E9442058EE2A3
:100B70000E94340240914A0250E070E060E02AE0B6
:100B80008FEE92E00E94420583E20E943402CCE1A3
:100B9000D0E08091530290915402A0915502B091FF
:100BA00056020C2E04C0B695A795979587950A9482
:100BB000D2F78F708A3080F4805D0E9434022497CF
:100BC000CC3F8FEFD80729F76AE671E08FEE92E00D
:100BD000DF91CF910C942305895CEFCFCF93DF9306
:100BE000D0E0C0E0009731F0BC018CE893E00E94B7
:100BF0002305EC016AE671E08CE893E00E9423058E
:100C00008C0F9D1FDF91CF9108950F931F93CF936A
:100C1000DF9320914404211107C0C0E08C2FDF91A5
:100C2000CF911F910F9108958B01EC0183EE91E01C
:100C30000E94810360ED72E08CE893E00E9423053E
:100C400081EE91E00E9432054DE651E064EF71E0E3
:100C500088EE93E00E94AF048823F9F262E370E02B
:100C600088EE93E00E94D3032097D1F0CE010E943A
:100C700032056AE18CE893E00E9425034FE651E0DB
:100C800068E873E188E59BE10E94AF04C82F8823E0
:100C900021F262E370E088EE93E00E94D303BECFBE
:100CA000C8010E94EE05E5CF2091D002222329F051
:100CB000BC0190E080E00C9405060895CF93DF938B
:100CC000CDB7DEB72B970FB6F894DEBF0FBECDBF02
:100CD00083E28983409153025091540260915502FE
:100CE00070915602FE0132962CE130E0DB01CA0120
:100CF000022E04C0B695A795979587950A94D2F7CA
:100D00008F708A30B0F4805D8193245031092C3F7C
:100D10008FEF380759F71A86CE0101960E945406C4
:100D20002B960FB6F894DEBF0FBECDBFDF91CF91EB
:100D30000895895CE9CF8F929F92AF92BF92EF9214
:100D4000FF920F931F93CF93DF93F82EE62EC82FB9
:100D5000D0E025E0829F800111240C591D4FF8013D
:100D600081809280A380B48081149104A104B10495
:100D700091F40E940003F80161837283838394835A
:100D8000DF91CF911F910F91FF90EF90BF90AF90A7
:100D90009F908F9008950E940003DC01CB01881979
:100DA0009909AA09BB0961E08C32F1E09F07A1050E
:100DB000B105F0F0803921E09207A105B10570F48A
:100DC00061E08E2DDF91CF911F910F91FF90EF90F9
:100DD000BF90AF909F908F900C94590260E08C3B35
:100DE0009240A105B10530F48E2D0E94590260E0B9
:100DF00085E0E8CF8E2D0E94590260E085E00E94D8
:100E00005902F80130818091530290915402A091CF
:100E10005502B0915602323039F4209151022170BE
:100E2000F6E0FF1203C021F0BF7703C02223E1F3F5
:100E3000B0688093530290935402A0935502B093EC
:100E4000560285E08C9FF0018D9FF00D1124EC5926
:100E5000FD4F10821182128213821482323009F007
:100E60008FCFDF91CF911F910F91FF90EF90BF90A7
:100E7000AF909F908F900C945E06CF92DF92EF928E
:100E8000FF920F931F93CF93C82F0E9400036B0113
:100E90007C010C2F10E025E0C29FF0011124EC59D9
:100EA000FD4F81819281A381B481892B8A2B8B2B69
:100EB00059F4C182D282E382F4828091D8018330D6
:100EC000E0F48F5F8093D80185E0809FF001819FDF
:100ED000F00D1124EC59FD4F81819281A381B481E1
:100EE000A7019601281B390B4A0B5B0BDA01C901DC
:100EF000883C9105A105B10558F461E085E0CF91EA
:100F00001F910F91FF90EF90DF90CF900C945902BA
:100F1000883532E09307A105B10528F483E1C111BA
:100F200082E161E0ECCF8C3B42E09407A105B10582
:100F300028F483E1C11182E160E0E1CF20914E020B
:100F4000322F387023FD12C0CC23D1F0883E53E0FD
:100F50009507A105B10560F481E0CF911F910F9134
:100F6000FF90EF90DF90CF900C94A404CC2341F03D
:100F70008C3444E09407A105B10510F480E0EDCF76
:100F8000287259F4C11189C0803243E09407A10549
:100F9000B10580F461E088E0B2CF203249F4C1119C
:100FA000D4C0883E43E09407A105B10518F4D4CF1E
:100FB000C1117AC0843145E09407A105B105F0F272
:100FC00048EB5BE060E070E07AC0332321F160E041
:100FD00088E00E94590260E085E00E9459028091F9
:100FE0004E028D7F80934E0280916E02853019F4FF
:100FF00086E080936E021092D80185E0809FF00118
:10100000819FF00D1124EC59FD4F10821182128244
:101010001382148292C08091D8018330D0F485E08D
:10102000809FF001819FF00D1124EC59FD4F11823A
:1010300012821382148282E0C11101C081E095E026
:10104000909FF001919FF00D1124EC59FD4F80838A
:1010500074C060E088E00E94590260E085E00E9470
:1010600059028091530290915402A0915502B0917F
:101070005602B0688093530290935402A093550295
:10108000B0935602C1110E945E061092D801809161
:101090004E028D7F80934E02B0CF803B54E0950787
:1010A000A105B10508F476CF843A56E09507A1056D
:1010B000B10508F463CF48E45DE060E070E08417B8
:1010C0009507A607B70708F080CF2832B1F560E092
:1010D00088E00E94590260E085E00E945902CC231A
:1010E00089F082E080937302C0927402D0927502FC
:1010F000E0927602F092770280916E02811102C036
:101100000E945E061092D80180914E028D7F8093DE
:101110004E0285E0809FF001819FF00D1124EC5973
:10112000FD4F1082118212821382148280916E020E
:10113000853019F486E080936E02CF911F910F9154
:10114000FF90EF90DF90CF900895883755E0950796
:10115000A105B10508F400CFA7CF2091D00222232A
:1011600021F070E060E00C94050608958F929F9244
:10117000AF92BF92DF92EF92FF920F931F93CF93A4
:10118000DF93D62E7A01082F10E025E0829FE00140
:101190001124CC59DD4F89819A81AB81BC81892B87
:1011A0008A2B8B2B49F40E94000369837A838B83FB
:1011B0009C8381E08093A0020E94000325E0209F91
:1011C000F001219FF00D1124EC59FD4F8180928098
:1011D000A380B480DC01CB0188199909AA09BB0955
:1011E00061E0843F21E09207A105B10530F0803233
:1011F0009340A105B10578F460E08D2DDF91CF918A
:101200001F910F91FF90EF90DF90BF90AF909F9054
:101210008F900C9459028081823019F4C7010E948A
:10122000AD0860E08D2D0E94590285E0809FF0019D
:10123000819FF00D1124EC59FD4F10821182128212
:1012400013821482DF91CF911F910F91FF90EF9045
:10125000DF90BF90AF909F908F9008950F931F9352
:1012600000913E0410913F042091400430914104CC
:1012700040E052E16AE770E080E0041715072607B6
:10128000370740F476956795579547958F5F863079
:10129000A1F787E0982F906A9695809581709CBD04
:1012A0008DBD60E080913D041F910F910C94590217
:1012B000CF93C82F0E942E0983E00E949D048C2F9B
:1012C0000E949D0480E00E949D04C82F0E94A502F8
:1012D0008C2FCF910895FF920F931F93CF93DF939D
:1012E000C82FF62E172F042F0E942E0982E00E948D
:1012F0009D048C2F0E949D04CF2DD12F0C0F1D2FEC
:10130000111DC017D10721F089910E949D04F9CFCA
:10131000DF91CF911F910F91FF900C94A5021F9325
:10132000CF93DF93182FD62FC42F0E942E0985E06C
:101330000E949D04812F0E949D048D2F0E949D0478
:101340008C2F0E949D04DF91CF911F910C94A502D8
:10135000CF92DF92EF92FF92CF93C82F482F60EE8B
:101360008FE00E948F090E9400036B017C012AE03C
:10137000C20ED11CE11CF11C0E9400036C157D05FE
:101380008E059F0580F48EE00E945809807EC81368
:10139000F3CF81E091E0892790E0CF91FF90EF902B
:1013A000DF90CF90089580E0F5CFCF93DF93D82FD3
:1013B000C62F0E942E0982E00E949D048D2F0E945C
:1013C0009D048C2F0E949D04DF91CF910C94A50267
:1013D000FF920F931F93CF93DF93C82FF62E172FF3
:1013E000042F0E942E0983E00E949D048C2F0E94EE
:1013F0009D04CF2DD12F0C0F1D2F111DC017D1070C
:1014000029F080E00E949D048993F8CFDF91CF916D
:101410001F910F91FF900C94A502BF92CF92DF9283
:10142000EF92FF920F931F93CF93DF9300D000D0E2
:101430001F92CDB7DEB78C01000F111F000F111FD7
:10144000F801EB5CFE4F45E0BE016F5F7F4F81818D
:101450000E94E8098A81C98098E0C99E6001112430
:10146000282F30E055E0359527955A95E1F7C20EC3
:10147000D31E0D2C000CEE08FF0883FF20C092E065
:10148000CC0CDD1CEE1CFF1C9A95D1F78370C80EA6
:10149000D11CE11CF11CFE2CED2CDC2CCC248B810E
:1014A000C80ED11CE11CF11CFE2CED2CDC2CCC2434
:1014B0008C81C80ED11CE11CF11C6894F7F88D8159
:1014C0008F70B82EE8E081E090E0EB1528F1F8018C
:1014D000EB5CFE4F80810E94580983FF02C0689434
:1014E000F6F8C092C002D092C102E092C202F0921D
:1014F000C302B092C4020B5C1E4F4B2D68EC72E02D
:10150000F80182810E94E80940E0F80163818CE2E1
:101510000E948F0990E080E00F900F900F900F9045
:101520000F90DF91CF911F910F91FF90EF90DF907F
:10153000CF90BF9008954F925F926F927F928F925B
:101540009F92AF92BF92CF92DF92EF92FF920F9352
:101550001F93CF93DF93CDB7DEB763970FB6F894A1
:10156000DEBF0FBECDBFFC012481293008F08DC045
:101570005C0186E0EAE0F1E0DE011E9601900D924A
:101580008A95E1F73E01FEE06F0E711C8E010C5E44
:101590001F4FF301C190D1903F017601EE0CFF1C6B
:1015A000F701EC0DFD1DE35CFE4F8080882D0E944D
:1015B000580983FD96C0F5019480F8E0F91508F408
:1015C00064C0F5010081118122813381B901A80134
:1015D000442777FD4395552766277727D901C8010A
:1015E00088279927AA27B07444244A94542C642C41
:1015F0007FE1772E411106C044244A9467E0562EBD
:10160000612C712C0421152126213721442309F452
:101610003FC00C831B83890122273327402F440FAF
:10162000440F440F407E502F53705860452B4A831F
:1016300055E0169507955A95E1F70983892B8A2B72
:101640008B2BA1F1892D80648D83492D50E0B5014C
:10165000685F7F4FCE0106960E94B62545E0490D92
:10166000F701EC0DFD1DE35CFE4FBE016F5F7F4F88
:1016700081810E946B0948E068E0882D0E948F09F3
:10168000882D0E945809807799F084E090E012C07C
:10169000A80123E0569547952A95E1F749830295DD
:1016A000000F007E0A831C821B82C8CF892DCCCFFD
:1016B00090E080E063960FB6F894DEBF0FBECDBF1A
:1016C000DF91CF911F910F91FF90EF90DF90CF901E
:1016D000BF90AF909F908F907F906F905F904F9052
:1016E00008956016710609F054CF82E090E0E2CFD1
:1016F0000F931F93CF93DF93CDB7DEB767970FB6E6
:10170000F894DEBF0FBECDBF8E01085F1F4F087F6C
:101710008BEE92E0A0E0B0E0F80180839183A28399
:10172000B38388E08483108611861286138614861C
:101730001686178680E88587C8010E949B0AC80123
:101740000E949B0AC8010E949B0A67960FB6F894F4
:10175000DEBF0FBECDBFDF91CF911F910F910895D6
:10176000E0ECF2E046EB52E060E070E04083518351
:101770006283738392E0948380871186CF010C94F7
:101780009B0A46EC51E060E070E04093C002509349
:10179000C1026093C2027093C30294E09093C402AA
:1017A000813089F080E01092C9021092C8028093C3
:1017B000CB028093CA0280EC92E00E949B0A80ECEC
:1017C00092E00C949B0A82E5EECFE0ECF2E04AE373
:1017D00052E060E070E0408351836283738394E061
:1017E000948391E1908793EF918782878FE383873A
:1017F000CF010E949B0A80EC92E00E949B0A80EC41
:1018000092E00C949B0A7F928F929F92AF92BF922C
:10181000CF92DF92EF92FF920F931F93CF93DF93BC
:10182000CDB7DEB7C054D1090FB6F894DEBF0FBEF6
:10183000CDBF4B015C010E9400036B017C018E0156
:101840000F5F1F4F80E4F80111928A95E9F7712C20
:101850000E9400036C197D098E099F09681579059E
:101860008A059B0508F041C0A8958CE893E00E948A
:101870009C03892B69F3A8958CE893E00E94B2033E
:10188000FEE3E72DF71548F490E2FE01B196D8018A
:1018900001900D929A95E1F7EFE1772473947E0E13
:1018A000E00FF12FF11D8083F801E70DF11D10828B
:1018B0006FE671E0C8010E94E925892BB1F281E051
:1018C000C05CDF4F0FB6F894DEBF0FBECDBFDF9117
:1018D000CF911F910F91FF90EF90DF90CF90BF902D
:1018E000AF909F908F907F90089580E0E9CFCF9345
:1018F000DF93EC0188819981009711F00E94702498
:10190000198218821D821C821B821A82DF91CF915C
:101910000895FC0180819181009711F00C9470244E
:1019200008958CE392E00C94890C0F931F93CF934E
:10193000DF93EC0188819981009759F02A813B81DE
:101940002617370730F081E0DF91CF911F910F917B
:1019500008958B016F5F7F4F0E94F924009759F023
:10196000998388831B830A832C813D81232B59F71C
:10197000FC011082E8CF80E0E7CFEF92FF920F9357
:101980001F93CF93DF938C017B01EB010990002023
:10199000E9F72197C61BD70BBE010E94950C811158
:1019A00009C0C801DF91CF911F910F91FF90EF9077
:1019B0000C94770CF801D583C483B70180819181A1
:1019C000DF91CF911F910F91FF90EF900C94D32551
:1019D0009F92AF92BF92CF92DF92EF92FF920F93BE
:1019E0001F93CF93DF93EC016B015A017901241708
:1019F000350720F48B2D5901E42EF82E1982188218
:101A00001B821A821D821C826CE671E0CE010E944C
:101A1000BD0CD60114960D911C91A016B10658F577
:101A2000E016F10608F48701D601ED91FC911197BB
:101A3000E00FF11F90801082ED90FC90EA0CFB1CEF
:101A4000E114F10471F0F70101900020E9F73197FA
:101A50005F01AE18BF08B501CE010E94950C81113F
:101A600017C0CE010E94770CF60180819181080F8A
:101A7000191FD8019C92CE01DF91CF911F910F9138
:101A8000FF90EF90DF90CF90BF90AF909F90089520
:101A9000BD82AC82B701888199810E94D325E4CFB1
:101AA0008F929F92AF92BF92CF92DF92EF92FF926E
:101AB0000F931F93CF93DF93CDB7DEB7A2970FB6E7
:101AC000F894DEBF0FBECDBF0E942E0980EC0E94AD
:101AD0009D040E94A5020E94DB024B015C012AE0EA
:101AE000C22ED12CE12CF12C0E94DB02681979095D
:101AF0008A099B09683E734081059105A8F321E09E
:101B0000C21AD108E108F10888EE880E83E0981E19
:101B1000A11CB11CC114D104E104F10429F78E0108
:101B20000F5F1F4F8EE0F80111928A95E9F74EE0A2
:101B3000B80180E30E946B094EE0B80180E40E9486
:101B40006B094EE0B80180E50E946B0960E080E619
:101B50000E94D50960E080E70E94D50963EA8BE224
:101B60000E94D50944E067E680E60E948F0941E0C3
:101B700067E680E70E948F098CE0E0E1F1E0DE019A
:101B80001F9601900D928A95E1F76E01FFE0CF0E4E
:101B9000D11CF12CE12C98E0B92EF60101911191A4
:101BA0006F0180E80E94A809892B61F402301105B9
:101BB00009F482C070F50115110509F483C00130E4
:101BC000110591F180E80E94A809892B61F460E079
:101BD0008AE20E94D50960EF89E20E94D50966E891
:101BE00088E20E94D50980E00E94A809A2960FB65B
:101BF000F894DEBF0FBECDBFDF91CF911F910F9143
:101C0000FF90EF90DF90CF90BF90AF909F908F901C
:101C100008950430110509F453C008F44FC005308D
:101C2000110581F688E101C084E0F1E0EF16F104CE
:101C300009F04AC01E8E1D8EBC8E1B8E44E0BE0174
:101C4000655E7F4F0E946B092FEFE21AF20A86E071
:101C5000E816F10409F0A1CF18A21F8E81E090E0F0
:101C60009AA389A38E01015E1F4F6E0193E2C90EF4
:101C7000D11C88E0B82EF801E190F1908F0180E846
:101C80000E94A809892B09F09DCF1E8E1D8EBC8E47
:101C90001B8EE114F104E9F0EA94EF2809F092CFE9
:101CA00084E244E0BE01655E7F4F0E946B090C1523
:101CB0001D0509F487CFDFCF88E0B7CF80E1B5CF2E
:101CC00084E1B3CF80E0B1CF1B8E1C8E1E8E1D8EA3
:101CD000B5CF80E2E6CFFF920F931F93CF93DF93B0
:101CE000EC01F62E08811981C8010E940C23F81618
:101CF00021F06F2DC8010E941423CE01DF91CF91F6
:101D00001F910F91FF900895FF920F931F93CF9310
:101D1000DF9381E08093A00200ED12E0D0E0C0E00C
:101D2000F801F1908F01CE010E940C23F81621F0EA
:101D30006F2DCE010E9414232196CF31D10581F75A
:101D4000DF91CF911F910F91FF9008951F920F92F5
:101D50000FB60F9211242F933F934F935F936F937E
:101D60007F938F939F93AF93BF93EF93FF938FEEE8
:101D700092E00E94C501FF91EF91BF91AF919F91B9
:101D80008F917F916F915F914F913F912F910F9024
:101D90000FBE0F901F9018951F920F920FB60F92C3
:101DA00011242F938F939F93EF93FF93E091FF0262
:101DB000F09100038081E0910503F091060382FD1C
:101DC0001BC09081809108038F5F8F73209109035E
:101DD000821741F0E0910803F0E0E151FD4F958F4B
:101DE00080930803FF91EF919F918F912F910F9016
:101DF0000FBE0F901F9018958081F4CF1F920F9205
:101E00000FB60F9211242F933F938F939F93AF930D
:101E1000BF9380911A0290911B02A0911C02B09175
:101E20001D023091190223E0230F2D3758F501963A
:101E3000A11DB11D2093190280931A0290931B02D9
:101E4000A0931C02B0931D0280911E0290911F026C
:101E5000A0912002B09121020196A11DB11D809395
:101E60001E0290931F02A0932002B0932102BF9103
:101E7000AF919F918F913F912F910F900FBE0F9037
:101E80001F90189526E8230F0296A11DB11DD2CFF1
:101E90001F920F920FB60F9211242F933F934F93DF
:101EA0005F936F937F938F939F93AF93BF93EF93C2
:101EB000FF93E0912402F0912502309749F0A68526
:101EC000B7858585968D91FF14C09C918923A1F4D7
:101ED000FF91EF91BF91AF919F918F917F916F9102
:101EE0005F914F913F912F910F900FBE0F901F90D8
:101EF00018959C91892361F7A389B4899C91858960
:101F0000809589238C93868997890197F1F7608D55
:101F1000718DA685B785558538E020E0CB01019706
:101F2000F1F7822F90E095958795282F4C914523C6
:101F300009F02068315091F7868D81FD20958091C0
:101F4000230290E001968F7399273091220238176F
:101F500099F0A0912302B0E0A752BE4F2C9380933A
:101F60002302828D938D0197F1F7A389B4898C9117
:101F70009589892B8C93ACCF868D8160868FF1CF2C
:101F8000CF931092F2021092F10288EE93E0A0E05B
:101F9000B0E08093F3029093F402A093F502B09323
:101FA000F6022AE431E03093F0022093EF0225ECB0
:101FB00030E03093FC022093FB0224EC30E03093BD
:101FC000FE022093FD0220EC30E0309300032093CA
:101FD000FF0221EC30E0309302032093010322EC56
:101FE00030E0309304032093030326EC30E0309379
:101FF0000603209305031092080310920903109220
:102000000A0310920B0310928F0310928E03809399
:10201000900390939103A0939203B09393038CE564
:1020200091E090938D0380938C031092A303109200
:10203000A2031092A5031092A4031092A70310927A
:10204000A6031092A9031092A8036091AA036E7FC1
:102050006D7F6093AA036695617081E0682783E0D5
:102060000E94590261E083E00E94AA02EEE0F2E0E1
:10207000E491E0939C03E2E2F2E0E491F0E0EE0F01
:10208000FF1FE950FE4F8591949190939E0380939A
:102090009D0360E082E00E94AA028091AA0381FD74
:1020A00004C061E082E00E94590282E080939803BC
:1020B000EDE0F2E0E491E0939903E1E2F2E0E491F3
:1020C000F0E0EE0FFF1FE351FE4F85919491909346
:1020D0009B0380939A03109244048CEA93E09093BC
:1020E000430480934204CFB7F8948091AB038111ED
:1020F00027C0E9E2F2E08491E5E1F2E09491E82F73
:10210000F0E0EE0FFF1FEF5FFD4FA591B491EC9152
:10211000E92321F461E08AE00E94590261E08AE04B
:102120000E94AA028CB580618CBD8CB580648CBD88
:1021300061E08DE00E94AA0261E08BE00E94AA02A9
:102140008091AB038F5F8093AB03CFBF8AE0809316
:102150003D0480E896E9A8E9B0E080933E049093BE
:102160003F04A0934004B093410461E08AE00E94E0
:10217000AA0261E080913D040E945902EDEAF3E079
:102180008DE394E010861186128613863C968E1796
:102190009F07C1F7CF910895CF93DF93CDB7DEB7F7
:1021A000E2970FB6F894DEBF0FBECDBF789484B52A
:1021B000826084BD84B5816084BD85B5826085BD43
:1021C00085B5816085BD80916E00816080936E00D1
:1021D00010928100809181008260809381008091C3
:1021E0008100816080938100809180008160809374
:1021F00080008091B10084608093B1008091B00034
:1022000081608093B00080917A00846080937A002E
:1022100080917A00826080937A0080917A00816058
:1022200080937A0080917A00806880937A0010927F
:10223000C100E091FF02F091000382E08083E09111
:10224000FB02F091FC021082E091FD02F091FE028F
:1022500080E1808310920703E0910303F09104036F
:1022600086E08083E0910103F09102038081806128
:102270008083E0910103F091020380818860808374
:10228000E0910103F0910203808180688083E091F6
:102290000103F091020380818F7D80838BE0ECE16C
:1022A000F1E0DE01119601900D928A95E1F78E0121
:1022B0000F5F1F4F1E012CE0220E311CD801FD9034
:1022C0008D0161E08F2D0E94AA0260E08F2D0E9497
:1022D00059022016310691F70E94500DF0EDEF2EB5
:1022E000F2E0FF2E10E000E0C8010E940C23F7018D
:1022F00081937F010F5F1F4F0F311105A9F783E213
:1023000090E00E940C238093390287E390E00E94C2
:102310000C2380933702F12CE12C04E813E0412CCC
:10232000512C3201812C912C5401C8010E940C23A4
:1023300090E0B0E0A0E00E2C04C0880F991FAA1F07
:10234000BB1F0A94D2F7882A992AAA2ABB2AC80155
:1023500004960E940C2390E0B0E0A0E00E2C04C094
:10236000880F991FAA1FBB1F0A94D2F7482A592A1F
:102370006A2A7B2A0F5F1F4FF8E0EF0EF11C083826
:1023800023E0120791F680925B0290925C02A09289
:102390005D02B0925E0240925702509258026092E3
:1023A000590270925A0281E08093A00288E199E27A
:1023B0000FB6F894A895809360000FBE90936000CC
:1023C000AE01415F5F4F5CA74BA78091B8028111BE
:1023D000F9C00E94000369397A438105910508F428
:1023E000F1C0109244041092A7031092A603109219
:1023F000A5031092A4031092A3031092A20382E4F7
:1024000090E09093A9038093A8039091980396314C
:1024100008F047C02FE030E03093A3032093A203DD
:1024200020E430E03093A5032093A40327E230E0BA
:102430003093A7032093A6032091680084E098308E
:1024400048F031E09E3008F430E081E001C0880FB0
:102450003A95EAF7822B809368002DE630E09830B9
:1024600050F02BE630E09E3030F02CE630E0963134
:1024700010F030E020E03093A00320939F03292F39
:1024800030E0983008F08EC081E001C0880F9A9546
:10249000EAF78093A1038091A8039091A903019783
:1024A000F1F78091A6039091A703892B49F1E09160
:1024B0002402F091250283E0EC38F80709F1309707
:1024C00039F0A389B4899C918589809589238C935F
:1024D0008091AA038E7F8093AA0310922302109208
:1024E00022028CE893E09093250280932402E091ED
:1024F0009F03F091A00380819091A103892B808399
:102500008CE893E00E949C03892B31F06AE070E034
:1025100084E690E00E94D30304E010E0DD24D3942D
:102520000150110909F44BC080914404811147C046
:10253000A8958FE890E00E94320568EE73E080E095
:1025400090E00E94030C882359F38EE0E7E2F1E06B
:10255000DE01119601900D928A95E1F7DE01119648
:102560007D01A895F701819191917F010E94EE056F
:1025700060ED77E080E090E00E94030C882381F218
:102580008BA49CA48E149F0461F7D09244048CE722
:1025900090E00E94320568E873E180E090E00E94DC
:1025A000030CBECF9E3040F42850310981E001C0B9
:1025B000880F2A95EAF76DCF2E503109F7CF81E0C9
:1025C0008093B8020E942E0980EA0E949D0480E058
:1025D0000E949D04182F0E94A50290E080E010FD4B
:1025E00004C011FFB7C381E090E00E940D0A892B5F
:1025F00009F0B0C30E940003609326027093270283
:10260000809328029093290220914E022E7F2093DE
:102610004E028091C0029091C102A091C202B0917D
:10262000C302803333E09307A105B10509F491C2D9
:1026300008F063C08A3C52E09507A105B10509F492
:10264000FAC108F03DC08337F1E09F07A105B1054D
:1026500009F412C38A3332E09307A105B10509F4E6
:1026600085C2823A9105A105B10509F07EC090911D
:10267000C802983009F471C108F062C1923009F4BF
:1026800068C18091C902883009F47CC108F06DC12D
:10269000823009F473C1911168C0811166C0109233
:1026A000DD031092E9031092F503109201041092D9
:1026B0000D0410921904109225041092310455C093
:1026C0008C3F42E09407A105B10509F4F4C18E32B4
:1026D00053E09507A105B10509F4C4C1803F9240BC
:1026E000A105B10509F041C08091C8028C70883005
:1026F000E1F582E08093690238C0873BF3E09F07F1
:10270000A105B10509F400C3D0F4833A33E093077F
:10271000A105B10509F471C1863B43E09407A10509
:10272000B10509F4DBC281359340A105B105E9F497
:102730006091CB026093390283E290E010C2893B42
:10274000E3E09E07A105B10509F4E9C208F4D1C28E
:10275000893F23E09207A105B10509F492C28231B5
:102760009440A105B10509F415C18091E0038130C1
:1027700021F41092E003809391028091EC03813068
:1027800021F41092EC03809396028091F80381303B
:1027900009F0D0C21092F80381E080939B028091EF
:1027A0000404813021F4109204048093AF028091DC
:1027B0001004813021F410921004809387028091DC
:1027C0001C04813089F510921C0480EA92E0A0E09C
:1027D000B0E08093C0029093C102A093C202B09374
:1027E000C30288E08093C40288E88093C802809383
:1027F000C90280EF8093CA028DE48093CB028FEFF1
:102800008093CC028093CD028093CE028093CF023E
:1028100080EC92E00E949B0A80EC92E00E949B0A6E
:1028200080EC92E00E949B0A8091B003833029F4EF
:102830001092B00381E080938C022091BC03213080
:1028400039F51092BC0330914E0237FB882780F98E
:1028500090914F02492F4170842B91FB442740F9FE
:10286000842B92FB442740F9842B91F032FD10C059
:1028700093FD0EC088EC90E0A0E0B0E080930001F2
:1028800090930101A0930201B09303012093A5024C
:102890008091D4038130D1F41092D40380916402EA
:1028A000811114C080917802811110C0909173023F
:1028B000911148C280914E0283FD45C291E081E0B2
:1028C0009093640291E0892780937802809132048A
:1028D000882309F43AC280913304811136C20E94E0
:1028E00000030091390410913A0420913B04309187
:1028F0003C04601B710B820B930B693B7B40810591
:10290000910508F422C291E09093330480914E0225
:10291000846080934E0210923404109232048091AD
:10292000EE0289278093EE020E94840E8091EE02CF
:10293000882309F447C38DE990E00E94AD080AC2DC
:10294000903279F0903809F09CCE81E080930104B8
:1029500098CE81E08093DD0394CE81E08093E903FB
:1029600090CE81E08093F5038CCE803279F0803870
:1029700009F091CE81E080933104F7CE81E080931D
:102980000D04F3CE81E080931904EFCE81E08093B3
:102990002504EBCEC090C802D090C902E090CA02D4
:1029A000F090CB0240E8F41A6091CC027091CD0215
:1029B0008091CE029091CF029058E4E28E2E912C1D
:1029C000A12CB12CA50194010E94AF2320935B029E
:1029D00030935C0240935D0250935E02C701B601E2
:1029E000A50194010E94AF2320935702309358020F
:1029F0004093590250935A02B8CE8091C802803D4C
:102A000049F48091C9028F3F09F0AFCE84E00E9463
:102A1000E50BABCE883C09F0A8CE8091C9028F3F70
:102A200009F0A3CE81E00E94E50B80914E02806404
:102A300080934E029ACE8091C80255E0859FC001D6
:102A40001124805991406AE070E00E9479236093DC
:102A50004D029C0197FF03C03195219531092093C8
:102A60004C0283CE2091CB0291E02F3E09F090E002
:102A70008091510290FB87F9809351022C3319F019
:102A80008064809351028AE0289F90011124C9013B
:102A90006CE370E00E94792360934B02C90166E009
:102AA00070E00E947923CB016AE070E00E947923F4
:102AB00080934A025ACE809151029091C80290FBB5
:102AC00080F9809351028091C902982F937051E050
:102AD000913009F050E09091500250FB90F99093A2
:102AE000500241E0982F9C70943009F040E09091A2
:102AF000500240FB92F99093500231E0982F90736E
:102B0000903109F030E09091500230FB94F99093AD
:102B10005002807C21E0803409F020E08091500256
:102B200020FB86F9809350029091520290FD1DCEB9
:102B300080914F0250FB84F940FB85F930FB86F908
:102B400020FB87F980934F02892F81608093520286
:102B50000CCE6091CB026093370287E390E09A83BA
:102B60008983CE0101960E946B0EFFCD8091CA022F
:102B7000843061F48091CB028F3309F0F6CD81E08F
:102B80008093B9032F7B20934E02EFCD813041F526
:102B90008091CB028F3309F0E8CD81E08093AD03C3
:102BA00080914E02806480934E0210927302809155
:102BB0004F02877F80934F0280915302909154027D
:102BC000A0915502B0915602B7FFCFCDBF77809349
:102BD000530290935402A0935502B0935602C5CD70
:102BE000803171F48091CB028F3309F0BECD80919A
:102BF000CD02833F09F4B9CD81E08093C503B5CD03
:102C000081112AC08091CB028F3309F0AECD809123
:102C1000CC028F3F09F0A9CD8091CD02813F61F4B4
:102C200080914E0281FD05C091E09093D1038260B6
:102C3000FFCE1092D10399CD803F09F096CD10922E
:102C4000B9031092AD031092C50380914F028F78A3
:102C50008F7780934F0289CD803409F086CD8091A3
:102C6000CB028F3309F081CD1092D10380914E02B7
:102C70008D7F80934E02E9CF8091CF0280FB25F9B2
:102C800082CF8091CB02837091E0823009F090E096
:102C900080914E0290FB83F980934E0283FD19C010
:102CA000809173028823A9F00E94000300917402AE
:102CB000109175022091760230917702601B710BA2
:102CC000820B930B693E73408105910510F01092C1
:102CD00073028091CC028093350247CD91E08091C0
:102CE000C9028C3F09F490E080914E0290FB87F975
:102CF0009FCE91E08091C9028C3F09F490E08091D1
:102D00004F0290FB80F9A5CF91E08091C80281111C
:102D100001C090E080914F0290FB81F99ACF91E041
:102D20008091C802811101C090E080914F0290FB18
:102D300082F98FCF8091C803813009F030CD109295
:102D4000C8032ACD90E080E0BBCD80914E028B7FFE
:102D500080934E020E9400030091260210912702E8
:102D60002091280230912902601B710B820B930B7A
:102D7000613E73498440910508F456C080914E022B
:102D800080FD52C00E94500D0E94000360932602F5
:102D900070932702809328029093290280914E021B
:102DA000816080934E021092350240905B025090F9
:102DB0005C0260905D0270905E028090570290907D
:102DC0005802A0905902B0905A0204E813E0F12C86
:102DD000E12C1A830983C301B2010E2C04C095951E
:102DE0008795779567950A94D2F7CE0101960E9450
:102DF0006B0EC80104969A838983C501B4010E2C19
:102E000004C095958795779567950A94D2F7CE017A
:102E100001960E946B0EF8E0EF0EF11C0F5F1F4F42
:102E2000083823E01207A9F680916402811178C066
:102E300080916902811174C080914E0286FD70C03C
:102E400090915002792F717092FB662760F994FB84
:102E5000552750F996FB442740F980914F0284FB97
:102E6000332730F9232F272770FB84F985FB33277D
:102E700030F93627322B60FB85F986FB222720F9B3
:102E80002527322B50FB86F987FB222720F92427A0
:102E9000232B40FB87F980934F02222309F440C083
:102EA0004091530250915402609155027091560224
:102EB000957509F48CC07068409353025093540286
:102EC000609355027093560264EB70E0CE01019658
:102ED0000E94D622409153025091540260915502B3
:102EE00070915602F1012CE130E0DB01CA01022EA3
:102EF00004C0B695A795979587950A94D2F78F70D9
:102F00008A3008F062C0805D8193245031092C3FE3
:102F10008FEF380751F71C8ACE0101960E945406A4
:102F20000E940003EDEAF3E02DE334E051E0C480B9
:102F3000D580E680F7804B015C018C189D08AE08B7
:102F4000BF087501640149EBC4164BE0D406E104E7
:102F5000F10408F01382A1814081A1116CC04423C7
:102F600029F0608771878287938751833C962E175B
:102F70003F07E9F60091730210914E02002311F40D
:102F80000C944B210E940003C0907402D0907502F3
:102F9000E0907602F09077026C197D098E099F0906
:102FA00010914E02613A7B4B8D40910510F40C94C8
:102FB000272184E0023011F40C944721809178029B
:102FC0000C94472182E990E0B8CC895C9DCF7F7753
:102FD00040935302509354026093550270935602EB
:102FE00067EA70E0CE0101960E94D622409153021A
:102FF000509154026091550270915602FE013D9627
:103000002CE130E0DB01CA01022E04C0B695A79581
:10301000979587950A94D2F78F708A3050F4805D27
:103020008193245031092C3F9FEF390759F71D8AAE
:1030300073CF895CF5CF411199CF12821182C08480
:10304000D184E284F3844B015C018C189D08AE08A6
:10305000BF087501640148EEC41643E0D406E104DC
:10306000F10408F083CF43814F5F4383648375830A
:10307000868397837BCF62E071E08AE292E00E94D0
:10308000CD22892B29F4F8940C94003F0C947322E0
:103090006EEF70E08AE292E00E94CD22892B21F44B
:1030A00010938C020C94732269EF70E08AE292E034
:1030B0000E94CD22892B21F4109382020C9473225A
:1030C00062EF70E08AE292E00E94CD22892B21F427
:1030D00010937D020C9473226DEE70E08AE292E010
:1030E0000E94CD22892B21F4109391020C9473221B
:1030F00068EE70E08AE292E00E94CD22892B21F4F2
:10310000109396020C94732263EE70E08AE292E0D0
:103110000E94CD22892B21F410939B020C947322E0
:103120006EED70E08AE292E00E94CD22892B41F49C
:1031300080914E0283FF04C0109378020C94732296
:1031400068ED70E08AE292E00E94CD22892B21F4A2
:1031500080914E0283FF0CC064ED70E08AE292E041
:103160000E94CD22892B41F41093AF020C9473225C
:10317000109364020C9473226EEC70E08AE292E089
:103180000E94CD22892B21F40E94780B0C9473228B
:1031900069EC70E08AE292E00E94CD22892B81F4F2
:1031A00088E592E0A0E0B0E08093000190930101F7
:1031B000A0930201B0930301F092A5020C94732234
:1031C00060EC70E08AE292E00E94CD22892B11F03F
:1031D0000C9473221093640200936E020C94732279
:1031E0009F5F9093340280830C944A220E940003D4
:1031F0000091B4021091B5022091B6023091B7024D
:10320000601B710B820B930B613D7740810591052B
:1032100008F473C10E9400036093B4027093B50276
:103220008093B6029093B70280914202811115C03B
:1032300010923D0210923C0210923F0210923E0208
:1032400010924102109240026CE671E08CE392E031
:103250000E94BD0C81E08093420280913B0281116B
:1032600009C06EE670E08CE392E00E94950C81E06C
:1032700080933B028CE893E00E949C03892B09F425
:103280003CC1A8958CE893E00E94B20389831A821E
:1032900000914002109141020F5F1F4FB8018CE373
:1032A00092E00E94950C882399F020913C02309185
:1032B0003D028091400290914102BE016F5F7F4FBD
:1032C000820F931F0E94D325109341020093400266
:1032D0001A8219821C821B821E821D8262E771E0A3
:1032E000CE0101960E94BD0C809140029091410256
:1032F000892B71F000913C0210913D0269817A8125
:10330000C8010E94E9257C01E01AF10A892B19F411
:10331000EE24EA94FE2CCE0101960E94890CF7FC63
:103320008AC48091400290914102E816F90608F0A3
:1033300082C4C0903C02D0903D026AE070E0C601B9
:103340008E0D9F1D0E94BF25009709F474C48C0147
:103350000C191D09E016F1060CF06DC40F5F1F4F2C
:103360009801A7016CE372E0CE0185960E94E80CFB
:10337000409140025091410241155105F1F0401732
:10338000510708F48A0180913C0290913D02401B54
:10339000510B5093410240934002BC01600F711FDA
:1033A0000E94DA25E0913C02F0913D0280914002BA
:1033B00090914102E80FF91F108209A51AA5011585
:1033C000110509F434C4EDA0FEA06CE270E0C70161
:1033D0000E94BF25009709F42AC4AC014E195F0969
:1033E000141615060CF023C44F5F5F4F9801BE0101
:1033F0006B5D7F4FCE0101960E94E80C89819A8116
:10340000C12CD12C7601009721F00E94A6226B01DD
:103410007C01CE0101960E94890C1C141D040CF045
:1034200006C480914404882309F401C488E191E032
:103430000E948103DD24EE24FF242AE0B701A601C7
:103440008CE893E00E9442056AE671E08CE893E024
:103450000E94230549E751E062E370E080E197E2D2
:103460000E94AF04882309F4E2C322E242E270E042
:1034700060E090E080E00E942D04882309F4D7C327
:1034800022E242E26FE070E085E894E00E942D04C1
:10349000882309F4CCC322E242E270E060E090E0CD
:1034A00080E00E942D04882309F4C1C322E242E295
:1034B00070E060E090E080E00E942D04882309F431
:1034C000B6C32DE04AE060E470E085E494E00E9439
:1034D0002D04882309F4ABC362E370E088EE93E027
:1034E0000E94D3038091440481117DC310E0CE017A
:1034F00085960E94890C1111EAC380916402882389
:1035000019F080E00E943D0780916902882319F03C
:1035100081E00E943D0780916E028630C1F5809166
:103520006F0290917002A0917102B0917202892B8A
:103530008A2B8B2B51F40E94000360936F027093CF
:10354000700280937102909372020E9400030091B6
:103550006F02109170022091710230917202DC01B1
:10356000CB01801B910BA20BB30B61E08C32E1E02D
:103570009E07A105B10540F060E08032F3E09F07AF
:10358000A105B10508F0A0C489E00E94590210917C
:1035900078021123A9F18091790290917A02A09189
:1035A0007B02B0917C02892B8A2B8B2B51F40E94D9
:1035B00000036093790270937A0280937B02909368
:1035C0007C020E940003C0907902D0907A02E090C1
:1035D0007B02F0907C02DC01CB018C199D09AE09C5
:1035E000BF0920914E02322F387023FF32C5843636
:1035F0009105A105B10508F02CC581E00E94A40445
:1036000080918202882321F063E186E00E949B067C
:1036100080917D02882321F062E185E00E949B0673
:1036200080918702882309F441C08091880290919B
:103630008902A0918A02B0918B02892B8A2B8B2B55
:1036400069F40E940003609388027093890280935A
:103650008A0290938B0281E08093A0020E94000373
:10366000009188021091890220918A0230918B0288
:10367000601B710B820B930B60367A4E81059105AE
:1036800058F480914E0283FD11C0809150028575DF
:1036900069F481E080937D02109287021092880283
:1036A0001092890210928A0210928B0210918C0261
:1036B0001123C9F1123019F480E00E94C10B8091EE
:1036C0008D0290918E02A0918F02B0919002892B71
:1036D0008A2B8B2B51F40E94000360938D02709310
:1036E0008E0280938F02909390020E940003C090FC
:1036F0008D02D0908E02E0908F02F0909002DC015B
:10370000CB018C199D09AE09BF09123009F03AC5E9
:1037100004E813E020E030E0843FE1E09E07A105EB
:10372000B10508F033C580919102882331F04FEC48
:1037300051E061E189E00E94B608809196028823F9
:1037400031F045ED51E06EE08AE00E94B6088091CC
:103750009B02882331F04BED51E060E18BE00E9449
:10376000B6088091A0028823C9F18091A1029091AE
:10377000A202A091A302B091A402892B8A2B8B2BC9
:1037800069F40E9400036093A1027093A2028093E7
:10379000A3029093A40281E00E94C10B0E94000347
:1037A0000091A1021091A2022091A3023091A402E3
:1037B000601B710B820B930B6536710581059105BA
:1037C00068F080E00E94C10B1092A0021092A1024A
:1037D0001092A2021092A3021092A4028091AF0252
:1037E000882309F43FC160915B0270915C02809173
:1037F0005D0290915E0250EA852E56E8952EAA242D
:10380000A394B12CA50194010E94AF232DA73EA73C
:103810004FA758ABF62E79AB8AABE92ECDA4DEA428
:1038200040905702509058026090590270905A028E
:10383000C301B201A50194010E94AF23490189018E
:103840008F2D99A9AAA9BE2DB7FF07C0B095A09545
:10385000909581959F4FAF4FBF4F7C01C301B2013F
:1038600020EA36E841E050E00E94AF2397FF07C00E
:1038700090958095709561957F4F8F4F9F4F9B01DD
:1038800087E4898380E58A8383E58B83FE01349610
:10389000D7FE09C08DE28C83CDA4DEA4D194C1945F
:1038A000D108FE01359644E6C416D1044CF0C60199
:1038B00064E670E00E947923605D60836C0131965C
:1038C0005AE0C516D1044CF0C6016AE070E00E94CF
:1038D0007923605D6083C82E319680E38C0D8083F0
:1038E0008EE28183C70160E177E20E946523605D1B
:1038F0006283C70168EE73E00E946523CB014AE052
:10390000C42ED12CB6010E946523805D8383C7013C
:1039100064E670E00E946523CB01B6010E94652336
:10392000805D8483C701B6010E946523482FCB01C7
:10393000B6010E946523805D8583405D46838CE2ED
:1039400087837F0117FD3BC488E0E80EF11C043635
:10395000110564F0C80164E670E00E947923605D9F
:10396000D7016C938C01F70131967F010A30110564
:1039700064F0C8016AE070E00E947923605DD701BD
:103980006C93082FF70131967F01005DD7010C93EE
:103990008EE211968C93C90160E177E20E94652363
:1039A000605DF7016283C90168EE73E00E946523E0
:1039B000CB01EAE0F0E0BF010E946523805DD70102
:1039C00013968C93C90164E670E00E946523CB01D5
:1039D000BF010E946523805DD70114968C93C901B5
:1039E000BF010E946523282FCB01BF010E946523E0
:1039F000805DF7018583205D268380E2878383E2F3
:103A00008087009153021091540220915502309109
:103A1000560239968CE190E0B901A801082E04C045
:103A200076956795579547950A94D2F74F704A3027
:103A300008F0CFC3405D419304978C3F4FEF94074C
:103A400059F7D70151961C921092AF021092B00212
:103A50001092B1021092B2021092B302CE010196FE
:103A60000E9454061091A5021123E9F18091A6024B
:103A70009091A702A091A802B091A902892B8A2B4C
:103A80008B2B81F40E9400036093A6027093A7021F
:103A90008093A8029093A902123009F027C581E013
:103AA0008093A0020E940003C090A602D090A702BB
:103AB000E090A802F090A9026C197D098E099F0977
:103AC00040915F02123009F021C5643FB1E07B07ED
:103AD0008105910508F07FC3442329F080E00E940E
:103AE000B00B10925F028091AA02882309F46AC089
:103AF0000E9400034B015C018091AB029091AC02EB
:103B0000A091AD02B091AE02892B8A2B8B2B81F450
:103B10008092AB029092AC02A092AD02B092AE0243
:103B2000109260021092610210926202109263027F
:103B30008091AB029091AC02A091AD02B091AE0227
:103B400075016401C81AD90AEA0AFB0A8091600269
:103B500090916102A0916202B09163020097A10569
:103B6000B10569F0A5019401281B390B4A0B5B0BC9
:103B7000DA01C901843F9140A105B10550F00E94CE
:103B8000780B8092600290926102A0926202B092E1
:103B9000630240E1C41647E2D406E104F10490F068
:103BA0001092AA021092AB021092AC021092AD02D7
:103BB0001092AE02109260021092610210926202A4
:103BC00010926302A89580E090E0892B11F40C9488
:103BD000E5110E94B101882311F40C94E0110E94B8
:103BE00000000C94E0118FE091E00E9481032AE034
:103BF000B701A6018CE893E00E9442056AE671E0F5
:103C00008CE893E00E9423054FE651E062E370E008
:103C100088EA91E60E94AF04182F882309F466CC45
:103C200062E370E088EE93E00E94D30360CCCE01A3
:103C300085960E94890C20914002309141022536E0
:103C4000310508F417CB42E350E06CE372E0CE019B
:103C500001960E94E80C80913C0290913D020097F1
:103C6000F9F069817A8161157105C1F040913E02D8
:103C700050913F022D813E814217530778F00E94F8
:103C8000D3258D819E8190934102809340021E82B4
:103C90001D82CE0101960E94890CECCA0E947024FC
:103CA00089819A8190933D0280933C028B819C8113
:103CB00090933F0280933E028D819E8190934102BA
:103CC000809340021A8219821C821B82E0CF80916D
:103CD000EE02882381F060ED72E085E894E00E94B6
:103CE000CA25892BE9F06FED72E085E894E00E9427
:103CF000CA25892BA9F060EA71E085E494E00E946E
:103D0000DD22892B09F0B7C08091D002882309F405
:103D1000F4CB65E474E090E080E00E940506EDCB12
:103D200065E971E085E494E00E94CD22892B21F4BD
:103D300082E080939102E1CB61E971E085E494E057
:103D40000E94CD22892B21F482E080939B02D5CB67
:103D50006CE871E085E494E00E94CD22892B21F487
:103D600082E080938202C9CB65E871E085E494E04B
:103D70000E94CD22892B21F482E080937D02BDCB6D
:103D800060E871E085E494E00E94CD22892B21F463
:103D900082E08093A502B1CB6AE771E085E494E00C
:103DA0000E94CD22892B21F481E08093AA02A5CB29
:103DB00066E771E085E494E00E94CD22892B21F42E
:103DC00082E080938C0299CB60E771E085E494E017
:103DD0000E94CD22892B21F480914E0283FF14C0D2
:103DE0006BE671E085E494E00E94CD22892B81F09E
:103DF00067E671E085E494E00E94CD22892B81F48E
:103E000081E08093AF0279CB82E08093690275CB29
:103E100080914E0283FFECCF82E0809378026DCBDD
:103E200060E671E085E494E00E94CD22892B19F4CC
:103E30000E945E0662CB6AE571E085E494E00E9430
:103E4000CD22892B21F4F8940C94003F56CB61E5E8
:103E500071E085E494E00E94CD22892B09F04DCBDE
:103E600080914E0283FD49CB82E08093690285E018
:103E700080936E0242CB6DE471E085E494E00E9491
:103E8000DD22892B69F065E874E080ED92E00E9404
:103E9000D3250E94840E89E391E00E94AD082DCBCA
:103EA00065E371E085E494E00E94DD22892B09F44A
:103EB00024CB65E874E08FED92E00E94D3250E9448
:103EC000840E81E291E0E9CF88389341A105B105E4
:103ED00008F0AEC089E00E9459028091520281FD33
:103EE00056CB3091510236FF52CB80917302823013
:103EF00009F04DCB80914D0250914C0220914B0224
:103F000040914A029CE79983FE013296843640F044
:103F100064E60E945923805D8A83892FFE013396CF
:103F20008A3038F06AE00E945923805D8083892FAF
:103F30003196805D80838EE28183852F6AE00E94C6
:103F40005923905D92838CE7838337FF47C08FE6C8
:103F500084838CE6858384E7868382E7878385E68E
:103F6000808780E2818784E382879F01245F3F4FBF
:103F700080E38387F90183E28193C0905302D0905C
:103F80005402E0905502F09056028CE190E0B701A7
:103F9000A601082E04C076956795579547950A9413
:103FA000D2F74F704A3008F041C0405D419304970A
:103FB0008C3F4FEF940759F7D90119961C92CE0107
:103FC00001960E94540680915202826080935202B0
:103FD000809151028F7B80935102D9CADF01243630
:103FE000E0F414962A3040F0822F6AE00E945923B0
:103FF000805D8C93292F1196205D2C938EE2119673
:104000008C9311979D012D5F3F4F842F6AE00E9492
:104010005923905D12969C93ADCF1596822F64E63E
:104020000E945923805D8483292FDCCF495CBECF59
:1040300089E00E94590210926E0210926F02109253
:1040400070021092710210927202809152028D7F62
:10405000BDCF8C32E1E09E07A105B10510F480E0F0
:10406000CDCA803DF7E09F07A105B10508F4C8CA95
:10407000287239F48C3F28E09207A105B10508F4B5
:10408000BCCA311179C080369940A105B10508F04C
:1040900073C080E00E94A404133009F442C01430BD
:1040A00089F0123011F40E945E061092780210928C
:1040B000790210927A0210927B0210927C02109286
:1040C00073029ECA61EC71E0CE0101960E94D62275
:1040D00040915302509154026091550270915602E2
:1040E000FE013E962CE130E0DB01CA01022E04C045
:1040F000B695A795979587950A94D2F78F708A30D1
:1041000070F4805D8193245031092C3F8FEF380784
:1041100059F71E8ACE0101960E945406C6CF895CCB
:10412000F1CF61EB71E0CE0101960E94D622409161
:104130005302509154026091550270915602FE0153
:1041400070962CE130E0DB01CA01022E04C0B69566
:10415000A795979587950A94D2F78F708A3050F477
:10416000805D8193245031092C3F9FEF390759F727
:10417000188ED0CF895CF5CF80E00E94A404109205
:1041800078029DCF00E911E020E030E08017910730
:10419000A207B30728F461E084E00E945902C3CA71
:1041A00060E084E00E94590210928C0210928D020D
:1041B00010928E0210928F0210929002B4CA99E06F
:1041C000E90EF11C8DE280870027112708191909D3
:1041D000BECB495C30CC04EF11E020E030E0C09071
:1041E0000001D0900101E0900201F09003010C0D5C
:1041F0001D1D2E1D3F1D601771078207930748F490
:10420000411171CC81E00E94B00B81E080935F028C
:104210006ACC442329F080E00E94B00B10925F0228
:104220001092A5021092A6021092A7021092A80264
:104230001092A90280ED97E0A0E0B0E08093000129
:1042400090930101A0930201B09303014CCC009123
:1042500073020E940003C0907402D0907502E09037
:104260007602F09077026C197D098E099F096134FE
:104270007F418105910578F015FD04C080915002C1
:10428000857549F083E0023011F00C94DE178093BD
:1042900078021092730217FD05C080914F0287705B
:1042A00021E009F020E0A091510220FBA4F9A093A5
:1042B0005102A2FB882780F91A2F117090915002A9
:1042C000F92FF17092FBEE27E0F994FB772770F954
:1042D00096FB662760F9B0914E02B3FB552750F963
:1042E000409139023091370200913502A3FBFF243F
:1042F000F0F8F8122EC0A5FBFF24F0F82F1129C00A
:10430000A695A170A11325C091FBAA27A0F9AF1310
:1043100020C093FBAA27A0F9AE131BC095FBAA27C8
:10432000A0F9A71316C097FB992790F9961311C00F
:10433000B295B170B5130DC090913A02941309C0B3
:1043400090913802931305C090913602901709F4AA
:104350009DC09091510280FB93F920FB95F910FBD1
:1043600091F99093510290915002F0FB91F9E0FB8A
:1043700093F970FB95F960FB97F990935002909137
:104380004E0250FB94F990934E0240933A023093C0
:1043900038020093360290E0B0E0A0E0BB2786959B
:1043A000B795AA2799278827C12ED12CF12CE12C6B
:1043B0001DE1CC0CDD1CEE1CFF1C1A95D1F78C29DD
:1043C0009D29AE29BF29802BCF2ED12CF12CE12C99
:1043D0000CE1CC0CDD1CEE1CFF1C0A95D1F78C29DE
:1043E0009D29AE29BF29CE2ED12CF12CE12CEBE159
:1043F000CC0CDD1CEE1CFF1CEA95D1F78C299D2905
:10440000AE29BF29C72ED12CF12CE12CFAE1CC0C1E
:10441000DD1CEE1CFF1CFA95D1F78C299D29AE29D5
:10442000BF29C62ED12CF12CE12C19E1CC0CDD1CBE
:10443000EE1CFF1C1A95D1F78C299D29AE29BF29A6
:10444000C52ED12CF12CE12CFC2CEE24DD24CC2427
:104450008C299D29AE29BF29A42B932B30E050E055
:1044600040E06EE1220F331F441F551F6A95D1F7BC
:10447000822B932BA42BB52B809353029093540241
:10448000A0935502B09356020E948E0511E005E0FC
:1044900072E0F72E8FEE92E00E94A501892B11F4B5
:1044A0000C94F6188FEE92E00E94830190913402F2
:1044B000E92FF0E0E65DFD4F8A3041F08D3031F0BC
:1044C000882321F0993010F40C94F018108268E0E1
:1044D00071E08AE292E00E94CD22892B11F00C94C7
:1044E0003B180E948E0510923402D4CF0E94000324
:1044F0000091A6021091A7022091A8023091A90272
:10450000601B710B820B930B40915F0200E010E087
:10451000980165CE8CE591E090938D0380938C0398
:1045200080912402909125028C58934071F4E0917F
:104530009F03F091A00390818091A103809589232E
:104540008083109225021092240208951F93FC018B
:1045500099278827BC01E89411911032E9F31930AA
:1045600010F01E30C8F31B3251F01D3249F468942C
:1045700006C00E94F722610F711D811D911D1191CE
:1045800010531A30B0F33EF4909580957095619574
:104590007F4F8F4F9F4F1F910895FB01DC018D913D
:1045A000059080190110D9F3990B0895FB01DC01E6
:1045B00005900D920020E1F70895FB0155915523D8
:1045C000A9F0BF01DC014D9145174111E1F759F404
:1045D000CD010590002049F04D9140154111C9F3DE
:1045E000FB014111EFCF81E090E001970895592F31
:1045F000482F372F262F660F771F881F991F660FAA
:10460000771F881F991F620F731F841F951F660FE6
:10461000771F881F991F0895F999FECF92BD81BD1C
:10462000F89A992780B50895262FF999FECF1FBAD9
:1046300092BD81BD20BD0FB6F894FA9AF99A0FBECB
:10464000019608952F923F924F925F926F927F92C0
:104650008F929F92AF92BF92CF92DF92EF92FF9292
:104660000F931F93CF93DF93CDB7DEB7CA1BDB0B3E
:104670000FB6F894DEBF0FBECDBF09942A883988E3
:1046800048885F846E847D848C849B84AA84B984EA
:10469000C884DF80EE80FD800C811B81AA81B981F6
:1046A000CE0FD11D0FB6F894DEBF0FBECDBFED010A
:1046B0000895991B79E004C0991F961708F0961B7E
:1046C000881F7A95C9F780950895AA1BBB1B51E1F5
:1046D00007C0AA1FBB1FA617B70710F0A61BB70B72
:1046E000881F991F5A95A9F780959095BC01CD0117
:1046F000089597FB072E16F4009407D077FD09D094
:104700000E94652307FC05D03EF4909581959F4F4C
:104710000895709561957F4F0895A1E21A2EAA1B06
:10472000BB1BFD010DC0AA1FBB1FEE1FFF1FA21761
:10473000B307E407F50720F0A21BB30BE40BF50B5E
:10474000661F771F881F991F1A9469F760957095E7
:10475000809590959B01AC01BD01CF010895052E78
:1047600097FB1EF400940E94C62357FD07D00E94B9
:104770008D2307FC03D04EF40C94C623509540952E
:10478000309521953F4F4F4F5F4F089590958095FD
:10479000709561957F4F8F4F9F4F0895EE0FFF1FCC
:1047A0000590F491E02D09940F931F93CF93DF931D
:1047B0008230910510F482E090E0E0919A04F0914B
:1047C0009B0430E020E0B0E0A0E0309799F42115A0
:1047D000310509F44AC0281B390B24303105D8F5BE
:1047E0008A819B816115710589F1FB019383828325
:1047F000FE0111C040815181028113814817590780
:10480000E0F04817590799F4109761F012960C934D
:10481000129713961C933296CF01DF91CF911F917F
:104820000F91089500939A0410939B04F4CF2115DF
:10483000310551F04217530738F0A901DB019A0105
:10484000BD01DF01F801C1CFEF01F9CF90939B04C7
:1048500080939A04CDCFFE01E20FF31F81939193D1
:104860002250310939832883D7CF20919804309181
:104870009904232B41F420910601309107013093D4
:104880009904209398042091040130910501211589
:10489000310541F42DB73EB740910801509109010F
:1048A000241B350BE0919804F0919904E217F3076B
:1048B000A0F42E1B3F0B2817390778F0AC014E5F90
:1048C0005F4F2417350748F04E0F5F1F5093990430
:1048D00040939804819391939FCFF0E0E0E09CCFC8
:1048E000CF93DF930097E9F0FC0132971382128295
:1048F000A0919A04B0919B04ED0130E020E0109764
:10490000A1F420813181820F931F2091980430916E
:1049100099042817390709F061C0F0939904E093CE
:104920009804DF91CF910895EA01CE17DF07E8F5EB
:104930004A815B819E0141155105B1F7E901FB8375
:10494000EA8349915991C40FD51FEC17FD0761F413
:10495000808191810296840F951FE9019983888354
:10496000828193819B838A83F0E0E0E012968D91AF
:104970009C9113970097B9F52D913C911197CD011A
:104980000296820F931F2091980430919904281762
:10499000390739F6309751F510929B0410929A041A
:1049A000B0939904A0939804BCCFD383C283408171
:1049B0005181840F951FC817D90761F44E5F5F4F6F
:1049C00088819981480F591F518340838A819B8137
:1049D000938382832115310509F0B0CFF0939B04B6
:1049E000E0939A049ECFFD01DC01C0CF13821282B6
:1049F000D7CFB0E0A0E0EFEFF4E20C9424238C01D9
:104A0000009751F4CB010E94D4238C01C801CDB78B
:104A1000DEB7E0E10C944023FC01E60FF71F9C0198
:104A200022503109E217F30708F49DC0D901CD9156
:104A3000DC911197C617D70798F0C530D10530F330
:104A4000CE0104978617970708F3C61BD70B22974A
:104A5000C193D1936D937C93CF010E947024D6CFE4
:104A60005B01AC1ABD0A4C018C0E9D1EA0919A04EC
:104A7000B0919B04512C412CF12CE12C109731F575
:104A800080919804909199048815990509F05CC06B
:104A90004616570608F058C0809104019091050110
:104AA000009741F48DB79EB74091080150910901DC
:104AB000841B950BE817F90708F055C0F09399048B
:104AC000E0939804F90171836083A0CF8D919C914C
:104AD000119712966C90129713967C901397A815C5
:104AE000B90559F56C0142E0C40ED11CCA14DB04AF
:104AF00020F1AC014A195B09DA011296159780F092
:104B00006282738251834083D9016D937C93E11457
:104B1000F10471F0D7011396FC93EE93129776CFC0
:104B200022968C0F9D1FF90191838083F301EFCFB3
:104B3000F0939B04E0939A0469CF4816590608F451
:104B40002C017D01D3019ACFCB010E94D4237C019B
:104B5000009749F0AE01B8010E94B625C8010E9435
:104B60007024870153CF10E000E050CFFB01DC013F
:104B700002C001900D9241505040D8F70895FC01B9
:104B80008191861721F08823D9F7992708953197C5
:104B9000CF010895FB01DC018D9101908019011076
:104BA000D9F3990B0895FB01DC0101900D920020CF
:104BB000E1F70895FB01DC014150504048F00190BD
:104BC0000D920020C9F701C01D9241505040E0F7FE
:104BD0000895FB0151915523A9F0BF01DC014D91CE
:104BE00045174111E1F759F4CD010190002049F03A
:104BF0004D9140154111C9F3FB014111EFCF81E007
:104C000090E00197089511E0CBE1D1E004C0FE01EE
:104C10000E94CE232196CC31D107C9F7F894FFCF5B
:104C2000D007000000009C0480000000010002008A
:104C30000000010002000300040005000905041241
:104C4000110E100813060780018501930198019F3A
:104C500001A901BB016061660170717602303136D5
:104C600040414650515600000000E70147017401E1
:104C70003902A501830197010000000025034701C7
:104C80009A0424039C03B2030C030D0A003E004F58
:104C90004B002B434D54493A002B434D47523A00A9
:104CA000415426460041542B435343533D2247531E
:104CB0004D2200415445300041542B4342430041B2
:104CC000542B434D47463D310041542B434E4D49F3
:104CD0003D322C312C302C302C300041542B4350A1
:104CE0004D533D22534D222C22534D222C22534D05
:024CF0002200A0
:00000001FF
