:100000000C9459010C9481010C9481010C94D80F2B
:100010000C94D80F0C94D80F0C9481010C9481018E
:100020000C9481010C9481010C9481010C94810148
:100030000C9481010C9481010C9481010C94810138
:100040000C948E0F0C9481010C945C0F0C94360F61
:100050000C9481010C9481010C9481010C94810118
:100060000C9481010C948101000000080002010041
:1000700000030407000000000000000047534D206B
:100080004B4F0047534D204F4B0041542B434D479E
:1000900044413D2244454C20414C4C2200496E696C
:1000A00074204F4B00436F6D616E646F2066616C0E
:1000B0006C69746F3A200045736563757A696F6E79
:1000C000653A200053494D3830304C204F4B0041A9
:1000D0005400576169742047534D0052656D6F7429
:1000E00065204F46460052656D6F7465204F4E0087
:1000F0004252532D436C6F73656420230042525368
:100100002D416C61726D20230073746172745F61A4
:100110006300686F726E006C696768740067707363
:100120000073746172740073746F7000626F78335F
:1001300000626F783200626F7831006368697564BD
:100140006900617072690067777300726573657426
:10015000007570646174650041542B434D47443D04
:100160000041542B434D47523D004E756D65726FF3
:10017000205B325D2053616C7661746F21005B32CD
:100180005D004E756D65726F205B315D2053616C53
:100190007661746F21005B315D005374617274206D
:1001A0004143005265736574005570646174650065
:1001B0004750530053746F7000537461727400475A
:1001C0005753004C6967687400486F726E0043684B
:1001D00069756469004170726900426F7800536FFD
:1001E0007263696E656C6C6900536574204F574E7D
:1001F000455220323031323736004252532D456D50
:10020000657267656E63792023004252532D5469ED
:100210006D656F7574202300424F58203100424FA6
:1002200058203200424F58203300206D730054692B
:100230006D656F757420646F706F2000206D7300A2
:100240005B53494D5D20526973706F737461207206
:100250006963657675746120696E200022004154DF
:100260002B434D47533D2200000000002300260091
:10027000290000000000250028002B0000000000DD
:10028000240027002A0001020408102040800102F7
:1002900004081020010204081020040404040404CB
:1002A00004040202020202020303030303035010C8
:1002B000592311241FBECFEFD8E0DEBFCDBF24E00D
:1002C000A2EDB1E001C01D92AC39B207E1F711E037
:1002D000A0E0B1E0EEEBFDE402C005900D92A23D7E
:1002E000B107D9F711E0C8E5D1E004C02197FE01BC
:1002F0000E949D24C735D107C9F70E945C110C9458
:10030000D2260C9400000895EF92FF920F931F9352
:10031000CF93DF938C017B01D0E0C0E0F701EC0FBD
:10032000FD1F6491662361F0D801ED91FC9101906D
:10033000F081E02DC8010995892B11F02196EECFAF
:10034000CE01DF91CF911F910F91FF90EF90089513
:10035000AF92BF92CF92DF92EF92FF920F931F93D3
:10036000CF93DF936C017B018B01040F151FEB0111
:100370005E01AE18BF08C017D10759F06991D601C8
:10038000ED91FC910190F081E02DC6010995892B3A
:1003900079F7C501DF91CF911F910F91FF90EF90F9
:1003A000DF90CF90BF90AF900895FC01538D448DA6
:1003B000252F30E0842F90E0821B930B541710F010
:1003C000CF96089501970895FC01918D828D98171D
:1003D00061F0A28DAE0FBF2FB11D5D968C91928DF5
:1003E0009F5F9F73928F90E008958FEF9FEF089526
:1003F000FC01918D828D981731F0828DE80FF11DEF
:10040000858D90E008958FEF9FEF0895FC01918D09
:10041000228D892F90E0805C9F4F821B91098F7302
:10042000992708958FEE92E00E94060221E0892B21
:1004300009F420E0822F089580E090E0892B29F0D4
:100440000E94120281110C9400000895FC01A48DF9
:10045000A80FB92FB11DA35ABF4F2C91848D90E0E6
:1004600001968F739927848FA689B7892C93A089C9
:10047000B1898C91837080648C93938D848D981353
:1004800006C00288F389E02D80818F7D80830895E6
:10049000EF92FF920F931F93CF93DF93EC0181E0D4
:1004A000888F9B8D8C8D98131AC0E889F98980817B
:1004B00085FF15C09FB7F894EE89FF896083E889AE
:1004C000F98980818370806480839FBF81E090E0A0
:1004D000DF91CF911F910F91FF90EF900895F62E2D
:1004E0000B8D10E00F5F1F4F0F731127E02E8C8DC7
:1004F0008E110CC00FB607FCFACFE889F98980810C
:1005000085FFF5CFCE010E942602F1CFEB8DEC0FD7
:10051000FD2FF11DE35AFF4FF0829FB7F8940B8F28
:10052000EA89FB8980818062CFCF682F8FEE92E0CD
:100530000C944802CF93DF93EC01888D8823B9F0A7
:10054000AA89BB89E889F9898C9185FD03C08081DE
:1005500086FD0DC00FB607FCF7CF8C9185FFF2CF5B
:10056000808185FFEDCFCE010E942602E9CFDF9189
:10057000CF91089590E0FC01E859FF4F2491FC01D0
:10058000EA57FD4F3491FC01E656FD4FE491EE230E
:10059000C9F0222339F0233001F1A8F4213019F1F8
:1005A000223029F1F0E0EE0FFF1FEE58FD4FA5912C
:1005B000B4918FB7F894EC91611126C030953E2329
:1005C0003C938FBF08952730A9F02830C9F024301C
:1005D00049F7809180008F7D03C0809180008F77E4
:1005E00080938000DFCF84B58F7784BDDBCF84B567
:1005F0008F7DFBCF8091B0008F778093B000D2CFFA
:100600008091B0008F7DF9CF3E2BDACF61E08091F1
:100610003D040C94BA02CF93DF9390E0FC01EA57BB
:10062000FD4F249186569D4FFC0184918823D1F083
:1006300090E0880F991FFC01E458FD4FA591B491FB
:10064000FC01EE58FD4FC591D49161110EC09FB7CA
:10065000F8948C91E22FE0958E238C932881E223ED
:10066000E8839FBFDF91CF9108958FB7F894EC9105
:10067000E22BEC938FBFF6CF3FB7F89480911E0228
:1006800090911F02A0912002B091210226B5A89B53
:1006900005C02F3F19F00196A11DB11D3FBFBA2F14
:1006A000A92F982F8827BC01CD01620F711D811DD4
:1006B000911D42E0660F771F881F991F4A95D1F759
:1006C00008952FB7F89460911A0270911B028091DF
:1006D0001C0290911D022FBF089520912402309199
:1006E00025022817390771F4909122028091230284
:1006F000981741F0E0912202F0E0E752FE4F80812E
:1007000090E008958FEF9FEF08950895EF92FF9284
:100710000F931F93CF93DF93DC015C96ED90FC90D9
:100720005D97E114F10479F481E090E013969C93D5
:100730008E93129790E080E0DF91CF911F910F91FF
:10074000FF90EF9008955196ED91FC91529750963D
:100750008C915097982F90950FB75E962C915E973D
:10076000122F127021FD6095F8942081112319F148
:10077000282B2083E7012197F1F728E0462F50E04E
:10078000308160FF1AC0382B3083E7012197F1F7E1
:10079000BA0175956795215089F7112381F0808101
:1007A000892380830FBF5C968D919C910197F1F70F
:1007B00081E090E0C1CF2923DCCF3923E5CF9081C0
:1007C000892BEFCF20912402309125022817390779
:1007D00061F4809123022091220290E0805C9F4F7F
:1007E000821B91098F739927089590E080E0089506
:1007F000209124023091250228173907B9F49091ED
:10080000220280912302981789F0E0912202F0E001
:10081000E752FE4F80812091220230E02F5F3F4F50
:100820002F7333272093220290E008958FEF9FEFDC
:1008300008954F925F926F927F928F929F92AF92A4
:10084000BF92CF92DF92EF92FF924C016B010E9418
:1008500061032B013C01B12CA12C8CE893E00E9498
:10086000E203892B69F40E94610364197509860902
:100870009709681579058A059B0510F4A895EDCFB1
:100880008CE893E00E94E203892B11F10E9461033E
:100890004B015C01F12CE12CA8958CE893E00E94BF
:1008A000E203892B51F08CE893E00E94F8030E9448
:1008B00095020E9461034B015C010E94610368196B
:1008C00079098A099B096C157D058E059F0520F322
:1008D000FF90EF90DF90CF90BF90AF909F908F9060
:1008E0007F906F905F904F9008954F925F926F92BC
:1008F0007F928F929F92AF92BF92CF92DF92EF92B0
:10090000FF920F931F93CF93DF938C016B01942E73
:10091000822E009721F0672B11F0FC0110820E94BB
:1009200061032B013C01D0E0C0E0F12C5601F1E065
:10093000AF1AB108A8958CE893E00E94E203892BD6
:1009400089F08CE893E00E94F803E82E0E9495025B
:10095000F11015C0FF24F394E910F12C0E946103FB
:100960002B013C010E9461036419750986099709EE
:100970006233710581059105E8F2F12C0AC0E81097
:100980001AC00115110529F0CD2819F0C00FD11F8B
:1009900018828F2DDF91CF911F910F91FF90EF90D3
:1009A000DF90CF90BF90AF909F908F907F906F908F
:1009B0005F904F9008950115110581F2CA15DB056E
:1009C0006CF6F801EC0FFD1FE0822196C7CF90E096
:1009D00080E008958EBD00000DB407FEFDCF8EB5FA
:1009E0000895CF93C82F682F86E00E94BA026C2F1B
:1009F00087E0CF910C94BA024F925F926F927F92F0
:100A00008F929F92AF92BF92EF92FF920F931F939C
:100A1000CF93DF934C018B017A010E9461032B017C
:100A20003C01B12CA12C8CE893E00E94E203892BBD
:100A300069F40E94610364197509860997096815AC
:100A400079058A059B0510F4A895EDCF8CE893E015
:100A50000E94E203892BB9F1E70109900020E9F730
:100A60002197CE190E9461034B015C01D0E028015F
:100A7000712C612CA8958CE893E00E94E203892BED
:100A8000B9F08CE893E00E94F803182F0E949502B9
:100A9000F701ED0FF11D8081181305C0DF5FCD1345
:100AA00003C081E011C0D0E00E9461034B015C01F2
:100AB0000E946103681979098A099B096415750503
:100AC00086059705B8F280E0DF91CF911F910F91D5
:100AD000FF90EF90BF90AF909F908F907F906F901E
:100AE0005F904F900895FB0101900020E9F7319746
:100AF000AF01461B570BDC01ED91FC910280F381A5
:100B0000E02D09948F929F92AF92BF92EF92FF9245
:100B10000F931F93CF93DF93CDB7DEB7A1970FB697
:100B2000F894DEBF0FBECDBF7C01FA01CB0119A244
:100B3000223008F42AE08E010F5D1F4F822E912C87
:100B4000B12CA12CBF01A50194010E945C24F901E4
:100B5000CA016A300CF5605DD8016E938D01232BBC
:100B6000242B252B79F790E080E0109721F0BD0130
:100B7000C7010E947305A1960FB6F894DEBF0FBEA1
:100B8000CDBFDF91CF911F910F91FF90EF90BF905C
:100B9000AF909F908F900895695CDECFCF93DF93E5
:100BA00083E20E9495024091510250E070E060E0C3
:100BB0002AE08FEE92E00E9482058EE20E9495026A
:100BC0004091500250E070E060E02AE08FEE92E049
:100BD0000E94820583E20E94950240914F0250E0FC
:100BE00070E060E02AE08FEE92E00E9482058EE2E3
:100BF0000E94950240914E0250E070E060E02AE0D1
:100C00008FEE92E00E94820583E20E949502CCE181
:100C1000D0E08091570290915802A0915902B09172
:100C20005A020C2E04C0B695A795979587950A94FD
:100C3000D2F78F708A3080F4805D0E9495022497ED
:100C4000CC3F8FEFD80729F76AE671E08FEE92E08C
:100C5000DF91CF910C947305895CEFCF0F931F93B5
:100C6000CF93DF938C01D0E0C0E06115710519F0DE
:100C70000E947305EC016AE671E0C8010E947305E9
:100C80008C0F9D1FDF91CF911F910F9108950F93AE
:100C90001F93CF93DF93EC010E9484018C016AE6DD
:100CA00071E0CE010E947305800F911FDF91CF91FB
:100CB0001F910F9108950F931F93CF93DF9320916E
:100CC0004404211107C0C0E08C2FDF91CF911F9108
:100CD0000F9108958B01EC016EE572E08CE893E0D2
:100CE0000E94840160ED72E08CE893E00E9473053D
:100CF0006CE572E08CE893E00E9447064DE651E017
:100D000064EF71E088EE93E00E94FC048823D9F23E
:100D100062E370E088EE93E00E9419042097E9F006
:100D2000BE018CE893E00E9447066AE18CE893E0FC
:100D30000E9486034FE651E068E873E188E59BE195
:100D40000E94FC04C82F882309F4BDCF62E370E041
:100D500088EE93E00E941904B7CFB8018CE893E0C5
:100D60000E942E06E2CF2091D002222329F0BC015E
:100D700090E080E00C945B060895CF93DF93CDB7AD
:100D8000DEB72B970FB6F894DEBF0FBECDBF83E260
:100D90008983409157025091580260915902709195
:100DA0005A02FE0132962CE130E0DB01CA01022E2C
:100DB00004C0B695A795979587950A94D2F78F703A
:100DC0008A30B0F4805D8193245031092C3F8FEF3D
:100DD000380759F71A86CE0101960E94B3062B9662
:100DE0000FB6F894DEBF0FBECDBFDF91CF9108954F
:100DF000895CE9CF8F929F92AF92BF92EF92FF9260
:100E00000F931F93CF93DF93F82EE62EC82FD0E0D9
:100E100025E0829F8001112408591D4FF80181802F
:100E20009280A380B48081149104A104B10491F450
:100E30000E946103F8016183728383839483DF914D
:100E4000CF911F910F91FF90EF90BF90AF909F9027
:100E50008F9008950E946103DC01CB0188199909E4
:100E6000AA09BB0961E08C32F1E09F07A105B10539
:100E7000F0F0803921E09207A105B10570F461E03E
:100E80008E2DDF91CF911F910F91FF90EF90BF902A
:100E9000AF909F908F900C94BA0260E08C3B924090
:100EA000A105B10530F48E2D0E94BA0260E085E004
:100EB000E8CF8E2D0E94BA0260E085E00E94BA025F
:100EC000F80130818091570290915802A091590207
:100ED000B0915A02323039F4209155022170F6E077
:100EE000FF1203C021F0BF7703C02223E1F3B068F3
:100EF0008093570290935802A0935902B0935A02DC
:100F000085E08C9FF0018D9FF00D1124E859FD4F75
:100F100010821182128213821482323009F08FCF34
:100F2000DF91CF911F910F91FF90EF90BF90AF9005
:100F30009F908F900C94BD06CF92DF92EF92FF921C
:100F40000F931F93CF93C82F0E9461036B017C0105
:100F50000C2F10E025E0C29FF0011124E859FD4F4D
:100F600081819281A381B481892B8A2B8B2B59F4A7
:100F7000C182D282E382F4828091D8018330E0F48E
:100F80008F5F8093D80185E0809FF001819FF00DF5
:100F90001124E859FD4F81819281A381B481A70179
:100FA0009601281B390B4A0B5B0BDA01C901883CFF
:100FB0009105A105B10558F461E085E0CF911F913D
:100FC0000F91FF90EF90DF90CF900C94BA0288358C
:100FD00032E09307A105B10528F483E1C11182E154
:100FE00061E0ECCF8C3B42E09407A105B10528F409
:100FF00083E1C11182E160E0E1CF20915202322F02
:10100000387023FD12C0CC23D1F0883E53E0950701
:10101000A105B10560F481E0CF911F910F91FF9080
:10102000EF90DF90CF900C94F104CC2341F08C34FE
:1010300044E09407A105B10510F480E0EDCF2872DB
:1010400059F4C11189C0803243E09407A105B1056C
:1010500080F461E088E0B2CF203249F4C111D4C0FD
:10106000883E43E09407A105B10518F4D4CFC1111F
:101070007AC0843145E09407A105B105F0F248EB50
:101080005BE060E070E07AC0332321F160E088E04B
:101090000E94BA0260E085E00E94BA02809152028A
:1010A0008D7F8093520280917202853019F486E020
:1010B000809372021092D80185E0809FF001819F99
:1010C000F00D1124E859FD4F108211821282138213
:1010D000148292C08091D8018330D0F485E0809F43
:1010E000F001819FF00D1124E859FD4F1182128209
:1010F0001382148282E0C11101C081E095E0909FCB
:10110000F001919FF00D1124E859FD4F808374C0C8
:1011100060E088E00E94BA0260E085E00E94BA02C6
:101120008091570290915802A0915902B0915A02B1
:10113000B0688093570290935802A0935902B093DD
:101140005A02C1110E94BD061092D801809152022C
:101150008D7F80935202B0CF803B54E09507A1056C
:10116000B10508F476CF843A56E09507A105B1059C
:1011700008F463CF48E45DE060E070E08417950711
:10118000A607B70708F080CF2832B1F560E088E005
:101190000E94BA0260E085E00E94BA02CC2389F086
:1011A00082E080937702C0927802D0927902E09236
:1011B0007A02F0927B0280917202811102C00E9439
:1011C000BD061092D801809152028D7F8093520209
:1011D00085E0809FF001819FF00D1124E859FD4FBB
:1011E00010821182128213821482809172028530E1
:1011F00019F486E080937202CF911F910F91FF90B6
:10120000EF90DF90CF900895883755E09507A105BE
:10121000B10508F400CFA7CF2091D002222321F0FE
:1012200070E060E00C945B0608958F929F92AF92FD
:10123000BF92DF92EF92FF920F931F93CF93DF93B2
:10124000D62E7A01082F10E025E0829FE0011124BC
:10125000C859DD4F89819A81AB81BC81892B8A2B4A
:101260008B2B49F40E94610369837A838B839C836F
:1012700081E08093A4020E94610325E0209FF00199
:10128000219FF00D1124E859FD4F81809280A380A9
:10129000B480DC01CB0188199909AA09BB0961E076
:1012A000843F21E09207A105B10530F080329340E0
:1012B000A105B10578F460E08D2DDF91CF911F91EC
:1012C0000F91FF90EF90DF90BF90AF909F908F9025
:1012D0000C94BA028081823019F4C7010E940C0973
:1012E00060E08D2D0E94BA0285E0809FF001819F11
:1012F000F00D1124E859FD4F1082118212821382E1
:101300001482DF91CF911F910F91FF90EF90DF90AA
:10131000BF90AF909F908F9008950F931F9300916F
:101320003E0410913F04209140043091410440E07C
:1013300052E16AE770E080E00417150726073707D7
:1013400040F476956795579547958F5F8630A1F75E
:1013500087E0982F906A9695809581709CBD8DBD91
:1013600060E080913D041F910F910C94BA02CF93DD
:10137000C82F0E948D0983E00E94EA048C2F0E94EE
:10138000EA0480E00E94EA04C82F0E9406038C2F22
:10139000CF910895FF920F931F93CF93DF93C82FA0
:1013A000F62E172F042F0E948D0982E00E94EA0476
:1013B0008C2F0E94EA04CF2DD12F0C0F1D2F111D51
:1013C000C017D10721F089910E94EA04F9CFDF917B
:1013D000CF911F910F91FF900C9406031F93CF9311
:1013E000DF93182FD62FC42F0E948D0985E00E940D
:1013F000EA04812F0E94EA048D2F0E94EA048C2FB8
:101400000E94EA04DF91CF911F910C940603CF92C2
:10141000DF92EF92FF92CF93C82F482F60EE8FE0BC
:101420000E94EE090E9461036B017C012AE0C20E5A
:10143000D11CE11CF11C0E9461036C157D058E0519
:101440009F0580F48EE00E94B709807EC813F3CF19
:1014500081E091E0892790E0CF91FF90EF90DF90BD
:10146000CF90089580E0F5CFCF93DF93D82FC62F8C
:101470000E948D0982E00E94EA048D2F0E94EA04F6
:101480008C2F0E94EA04DF91CF910C940603FF9207
:101490000F931F93CF93DF93C82FF62E172F042F90
:1014A0000E948D0983E00E94EA048C2F0E94EA04C6
:1014B000CF2DD12F0C0F1D2F111DC017D10729F0D3
:1014C00080E00E94EA048993F8CFDF91CF911F91C9
:1014D0000F91FF900C940603BF92CF92DF92EF9290
:1014E000FF920F931F93CF93DF9300D000D01F92F2
:1014F000CDB7DEB78C01000F111F000F111FF801CF
:10150000EB5CFE4F45E0BE016F5F7F4F81810E9423
:10151000470A8A81C98098E0C99E60011124282F5A
:1015200030E055E0359527955A95E1F7C20ED31E68
:101530000D2C000CEE08FF0883FF20C092E0CC0CBD
:10154000DD1CEE1CFF1C9A95D1F78370C80ED11CD0
:10155000E11CF11CFE2CED2CDC2CCC248B81C80E64
:10156000D11CE11CF11CFE2CED2CDC2CCC248C813C
:10157000C80ED11CE11CF11C6894F7F88D818F70A6
:10158000B82EE8E081E090E0EB1528F1F801EB5C83
:10159000FE4F80810E94B70983FF02C06894F6F86D
:1015A000C092C002D092C102E092C202F092C30285
:1015B000B092C4020B5C1E4F4B2D68EC72E0F80138
:1015C00082810E94470A40E0F80163818CE20E9418
:1015D000EE0990E080E00F900F900F900F900F9029
:1015E000DF91CF911F910F91FF90EF90DF90CF90FF
:1015F000BF9008954F925F926F927F928F929F92C9
:10160000AF92BF92CF92DF92EF92FF920F931F9310
:10161000CF93DF93CDB7DEB763970FB6F894DEBFF5
:101620000FBECDBFFC012481293008F08DC05C01C4
:1016300086E0EAE0F1E0DE011E9601900D928A95C7
:10164000E1F73E01FEE06F0E711C8E010C5E1F4F34
:10165000F301C190D1903F017601EE0CFF1CF70120
:10166000EC0DFD1DE35CFE4F8080882D0E94B709C4
:1016700083FD96C0F5019480F8E0F91508F464C084
:10168000F5010081118122813381B901A80144272C
:1016900077FD4395552766277727D901C801882705
:1016A0009927AA27B07444244A94542C642C7FE1CF
:1016B000772E411106C044244A9467E0562E612CCF
:1016C000712C0421152126213721442309F43FC020
:1016D0000C831B83890122273327402F440F440F9B
:1016E000440F407E502F53705860452B4A8355E07D
:1016F000169507955A95E1F70983892B8A2B8B2B31
:10170000A1F1892D80648D83492D50E0B501685F7A
:101710007F4FCE0106960E94852645E0490DF701D0
:10172000EC0DFD1DE35CFE4FBE016F5F7F4F8181BD
:101730000E94CA0948E068E0882D0E94EE09882DC1
:101740000E94B709807799F084E090E012C0A80168
:1017500023E0569547952A95E1F749830295000FB6
:10176000007E0A831C821B82C8CF892DCCCF90E0DB
:1017700080E063960FB6F894DEBF0FBECDBFDF9159
:10178000CF911F910F91FF90EF90DF90CF90BF907E
:10179000AF909F908F907F906F905F904F90089543
:1017A0006016710609F054CF82E090E0E2CF0F930B
:1017B0001F93CF93DF93CDB7DEB767970FB6F8943B
:1017C000DEBF0FBECDBF8E01085F1F4F087F8BEEBF
:1017D00092E0A0E0B0E0F80180839183A283B3831C
:1017E00088E08483108611861286138614861686F6
:1017F000178680E88587C8010E94FA0AC8010E94FE
:10180000FA0AC8010E94FA0A67960FB6F894DEBF7A
:101810000FBECDBFDF91CF911F910F910895E0ECE6
:10182000F2E046EB52E060E070E040835183628377
:10183000738392E0948380871186CF010C94FA0A17
:1018400046EC51E060E070E04093C0025093C1026A
:101850006093C2027093C30294E09093C4028130FB
:1018600089F080E01092C9021092C8028093CB02E6
:101870008093CA0280EC92E00E94FA0A80EC92E027
:101880000C94FA0A82E5EECFE0ECF2E04AE352E093
:1018900060E070E0408351836283738394E09483BB
:1018A00091E1908793EF918782878FE38387CF01C0
:1018B0000E94FA0A80EC92E00E94FA0A80EC92E020
:1018C0000C94FA0A4F925F926F927F928F929F923E
:1018D000AF92BF92EF92FF920F931F93CF93DF933C
:1018E000CDB7DEB7C054D1090FB6F894DEBF0FBE36
:1018F000CDBF2B013C010E9461034B015C018E01B5
:101900000F5F1F4F80E4F80111928A95E9F7F12CDF
:101910000E946103681979098A099B096415750594
:101920008605970508F05EC0A8958CE893E00E94B4
:10193000E203892B69F3A8958CE893E00E94F803F1
:10194000E82E0E949502FEE3EF2DFF1548F480E299
:10195000FE01B196D80101900D928A95E1F7EFE171
:10196000FF24F394FE0EE00FF12FF11DE082F80149
:10197000EF0DF11D10826FE671E0C8010E94B826DC
:10198000892B99F260E472E08FEE92E00E9484016C
:101990000E946103AB01BC01481959096A097B091E
:1019A0002AE08FEE92E00E9482056CE372E08FEEF7
:1019B00092E00E94470681E0C05CDF4F0FB6F894CA
:1019C000DEBF0FBECDBFDF91CF911F910F91FF9072
:1019D000EF90BF90AF909F908F907F906F905F90AF
:1019E0004F9008956EE272E08FEE92E00E948401C3
:1019F0002AE0B301A2018FEE92E00E9482056AE222
:101A000072E08FEE92E00E94470680E0D5CFCF9340
:101A1000DF93EC0188819981009711F00E943F25A6
:101A2000198218821D821C821B821A82DF91CF913B
:101A30000895FC0180819181009711F00C943F255D
:101A400008958CE392E00C94190D0F931F93CF939C
:101A5000DF93EC0188819981009759F02A813B81BD
:101A60002617370730F081E0DF91CF911F910F915A
:101A700008958B016F5F7F4F0E94C825009759F032
:101A8000998388831B830A832C813D81232B59F7FB
:101A9000FC011082E8CF80E0E7CFEF92FF920F9336
:101AA0001F93CF93DF938C017B01EB010990002002
:101AB000E9F72197C61BD70BBE010E94250D8111A6
:101AC00009C0C801DF91CF911F910F91FF90EF9056
:101AD0000C94070DF801D583C483B70180819181EF
:101AE000DF91CF911F910F91FF90EF900C94A22660
:101AF0009F92AF92BF92CF92DF92EF92FF920F939D
:101B00001F93CF93DF93EC016B015A0179012417E6
:101B1000350720F48B2D5901E42EF82E19821882F6
:101B20001B821A821D821C826CE671E0CE010E942B
:101B30004D0DD60114960D911C91A016B10658F5C5
:101B4000E016F10608F48701D601ED91FC9111979A
:101B5000E00FF11F90801082ED90FC90EA0CFB1CCE
:101B6000E114F10471F0F70101900020E9F73197D9
:101B70005F01AE18BF08B501CE010E94250D81118D
:101B800017C0CE010E94070DF60180819181080FD8
:101B9000191FD8019C92CE01DF91CF911F910F9117
:101BA000FF90EF90DF90CF90BF90AF909F900895FF
:101BB000BD82AC82B701888199810E94A226E4CFC0
:101BC0008F929F92AF92BF92CF92DF92EF92FF924D
:101BD0000F931F93CF93DF93CDB7DEB7A2970FB6C6
:101BE000F894DEBF0FBECDBF0E948D0980EC0E942D
:101BF000EA040E9406030E943C034B015C012AE0B8
:101C0000C22ED12CE12CF12C0E943C0368197909D9
:101C10008A099B09683E734081059105A8F321E07C
:101C2000C21AD108E108F10888EE880E83E0981EF8
:101C3000A11CB11CC114D104E104F10429F78E01E7
:101C40000F5F1F4F8EE0F80111928A95E9F74EE081
:101C5000B80180E30E94CA094EE0B80180E40E9406
:101C6000CA094EE0B80180E50E94CA0960E080E63A
:101C70000E94340A60E080E70E94340A63EA8BE243
:101C80000E94340A44E067E680E60E94EE0941E0E3
:101C900067E680E70E94EE098CE0E0E1F1E0DE011A
:101CA0001F9601900D928A95E1F76E01FFE0CF0E2D
:101CB000D11CF12CE12C98E0B92EF6010191119183
:101CC0006F0180E80E94070A892B61F40230110538
:101CD00009F482C070F50115110509F483C00130C3
:101CE000110591F180E80E94070A892B61F460E0F8
:101CF0008AE20E94340A60EF89E20E94340A66E8B0
:101D000088E20E94340A80E00E94070AA2960FB679
:101D1000F894DEBF0FBECDBFDF91CF911F910F9121
:101D2000FF90EF90DF90CF90BF90AF909F908F90FB
:101D300008950430110509F453C008F44FC005306C
:101D4000110581F688E101C084E0F1E0EF16F104AD
:101D500009F04AC01E8E1D8EBC8E1B8E44E0BE0153
:101D6000655E7F4F0E94CA092FEFE21AF20A86E0F1
:101D7000E816F10409F0A1CF18A21F8E81E090E0CF
:101D80009AA389A38E01015E1F4F6E0193E2C90ED3
:101D9000D11C88E0B82EF801E190F1908F0180E825
:101DA0000E94070A892B09F09DCF1E8E1D8EBC8EC6
:101DB0001B8EE114F104E9F0EA94EF2809F092CFC8
:101DC00084E244E0BE01655E7F4F0E94CA090C15A3
:101DD0001D0509F487CFDFCF88E0B7CF80E1B5CF0D
:101DE00084E1B3CF80E0B1CF1B8E1C8E1E8E1D8E82
:101DF000B5CF80E2E6CFFF920F931F93CF93DF938F
:101E0000EC01F62E08811981C8010E94DB23F81627
:101E100021F06F2DC8010E94E323CE01DF91CF9105
:101E20001F910F91FF900895FF920F931F93CF93EF
:101E3000DF9381E08093A40200ED12E0D0E0C0E0E7
:101E4000F801F1908F01CE010E94DB23F81621F0FA
:101E50006F2DCE010E94E3232196CF31D10581F76A
:101E6000DF91CF911F910F91FF9008951F920F92D4
:101E70000FB60F9211242F933F934F935F936F935D
:101E80007F938F939F93AF93BF93EF93FF938FEEC7
:101E900092E00E942602FF91EF91BF91AF919F9136
:101EA0008F917F916F915F914F913F912F910F9003
:101EB0000FBE0F901F9018951F920F920FB60F92A2
:101EC00011242F938F939F93EF93FF93E091FF0241
:101ED000F09100038081E0910503F091060382FDFB
:101EE0001BC09081809108038F5F8F73209109033D
:101EF000821741F0E0910803F0E0E151FD4F958F2A
:101F000080930803FF91EF919F918F912F910F90F4
:101F10000FBE0F901F9018958081F4CF1F920F92E3
:101F20000FB60F9211242F933F938F939F93AF93EC
:101F3000BF9380911A0290911B02A0911C02B09154
:101F40001D023091190223E0230F2D3758F5019619
:101F5000A11DB11D2093190280931A0290931B02B8
:101F6000A0931C02B0931D0280911E0290911F024B
:101F7000A0912002B09121020196A11DB11D809374
:101F80001E0290931F02A0932002B0932102BF91E2
:101F9000AF919F918F913F912F910F900FBE0F9016
:101FA0001F90189526E8230F0296A11DB11DD2CFD0
:101FB0001F920F920FB60F9211242F933F934F93BE
:101FC0005F936F937F938F939F93AF93BF93EF93A1
:101FD000FF93E0912402F0912502309749F0A68505
:101FE000B7858585968D91FF14C09C918923A1F4B6
:101FF000FF91EF91BF91AF919F918F917F916F91E1
:102000005F914F913F912F910F900FBE0F901F90B6
:1020100018959C91892361F7A389B4899C9185893E
:10202000809589238C93868997890197F1F7608D34
:10203000718DA685B785558538E020E0CB010197E5
:10204000F1F7822F90E095958795282F4C914523A5
:1020500009F02068315091F7868D81FD209580919F
:10206000230290E001968F7399273091220238174E
:1020700099F0A0912302B0E0A752BE4F2C93809319
:102080002302828D938D0197F1F7A389B4898C91F6
:102090009589892B8C93ACCF868D8160868FF1CF0B
:1020A000CF931092F2021092F10288EE93E0A0E03A
:1020B000B0E08093F3029093F402A093F502B09302
:1020C000F6022AE431E03093F0022093EF0225EC8F
:1020D00030E03093FC022093FB0224EC30E030939C
:1020E000FE022093FD0220EC30E0309300032093A9
:1020F000FF0221EC30E0309302032093010322EC35
:1021000030E0309304032093030326EC30E0309357
:1021100006032093050310920803109209031092FE
:102120000A0310920B0310928F0310928E03809378
:10213000900390939103A0939203B09393038CE543
:1021400091E090938D0380938C031092A3031092DF
:10215000A2031092A5031092A4031092A703109259
:10216000A6031092A9031092A8036091AA036E7FA0
:102170006D7F6093AA036695617081E0682783E0B4
:102180000E94BA0261E083E00E940B03E9E8F2E0FA
:10219000E491E0939C03EDE9F2E0E491F0E0EE0FCE
:1021A000FF1FEE58FD4F8591949190939E0380936D
:1021B0009D0360E082E00E940B038091AA0381FDF1
:1021C00004C061E082E00E94BA0282E0809398033A
:1021D000E8E8F2E0E491E0939903ECE9F2E0E491BD
:1021E000F0E0EE0FFF1FE859FD4F85919491909319
:1021F0009B0380939A03109244048CEA93E090939B
:10220000430480934204CFB7F8948091AB038111CB
:1022100027C0E4EAF2E08491E0E9F2E09491E82F4B
:10222000F0E0EE0FFF1FE458FD4FA591B491EC9143
:10223000E92321F461E08AE00E94BA0261E08AE0C9
:102240000E940B038CB580618CBD8CB580648CBD05
:1022500061E08DE00E940B0361E08BE00E940B03C4
:102260008091AB038F5F8093AB03CFBF8AE08093F5
:102270003D0480E896E9A8E9B0E080933E0490939D
:102280003F04A0934004B093410461E08AE00E94BF
:102290000B0361E080913D040E94BA02EDEAF3E095
:1022A0008DE394E010861186128613863C968E1775
:1022B0009F07C1F7CF910895CF93DF93CDB7DEB7D6
:1022C000E2970FB6F894DEBF0FBECDBF789484B509
:1022D000826084BD84B5816084BD85B5826085BD22
:1022E00085B5816085BD80916E00816080936E00B0
:1022F00010928100809181008260809381008091A2
:102300008100816080938100809180008160809352
:1023100080008091B10084608093B1008091B00012
:1023200081608093B00080917A00846080937A000D
:1023300080917A00826080937A0080917A00816037
:1023400080937A0080917A00806880937A0010925E
:10235000C100E091FF02F091000382E08083E091F0
:10236000FB02F091FC021082E091FD02F091FE026E
:1023700080E1808310920703E0910303F09104034E
:1023800086E08083E0910103F09102038081806107
:102390008083E0910103F091020380818860808353
:1023A000E0910103F0910203808180688083E091D5
:1023B0000103F091020380818F7D80838BE0ECE14B
:1023C000F1E0DE01119601900D928A95E1F78E0100
:1023D0000F5F1F4F1E012CE0220E311CD801FD9013
:1023E0008D0161E08F2D0E940B0360E08F2D0E9414
:1023F000BA022016310691F70E94E00DF0EDEF2EA3
:10240000F2E0FF2E10E000E0C8010E94DB23F7019C
:1024100081937F010F5F1F4F0F311105A9F783E2F1
:1024200090E00E94DB238093390287E390E00E94D2
:10243000DB2380933702F12CE12C04E813E0412CDC
:10244000512C3201812C912C5401C8010E94DB23B4
:1024500090E0B0E0A0E00E2C04C0880F991FAA1FE6
:10246000BB1F0A94D2F7882A992AAA2ABB2AC80134
:1024700004960E94DB2390E0B0E0A0E00E2C04C0A4
:10248000880F991FAA1FBB1F0A94D2F7482A592AFE
:102490006A2A7B2A0F5F1F4FF8E0EF0EF11C083805
:1024A00023E0120791F680925F0290926002A09260
:1024B0006102B092620240925B0250925C026092B2
:1024C0005D0270925E0281E08093A40288E199E24D
:1024D0000FB6F894A895809360000FBE90936000AB
:1024E000AE01415F5F4F5CA74BA78091B80281119D
:1024F00019C10E946103613177428105910508F499
:1025000011C1109244041092A7031092A6031092D6
:10251000A5031092A4031092A3031092A20382E4D5
:1025200090E09093A9038093A8039091980396312B
:1025300008F047C02FE030E03093A3032093A203BC
:1025400020E430E03093A5032093A40327E230E099
:102550003093A7032093A6032091680084E098306D
:1025600048F031E09E3008F430E081E001C0880F8F
:102570003A95EAF7822B809368002DE630E0983098
:1025800050F02BE630E09E3030F02CE630E0963113
:1025900010F030E020E03093A00320939F03292F18
:1025A00030E0983008F0A4C081E001C0880F9A950F
:1025B000EAF78093A1038091A8039091A903019762
:1025C000F1F78091A6039091A703892B49F1E0913F
:1025D0002402F091250283E0EC38F80709F13097E6
:1025E00039F0A389B4899C918589809589238C933E
:1025F0008091AA038E7F8093AA03109223021092E7
:1026000022028CE893E09093250280932402E091CB
:102610009F03F091A00380819091A103892B808377
:102620008CE893E00E94E203892B31F06AE070E0CD
:1026300084E690E00E94190404E010E0BB24B39407
:10264000809144040150110909F45FC0811161C0F7
:10265000A89562ED70E08FEE92E00E9447066FEC65
:1026600070E08CE893E00E94470668EE73E080E03B
:1026700090E00E94620C882319F364EC70E08FEE06
:1026800092E00E9447068EE0E7E2F1E0DE0111965B
:1026900001900D928A95E1F7DE0111967D01A895D2
:1026A00067EB70E08FEE92E00E948401F701C19029
:1026B000D1907F01B6018FEE92E00E942E06B60106
:1026C0008CE893E00E942E0660ED77E080E090E0D9
:1026D0000E94620C8111A4C065EA70E08FEE92E066
:1026E0000E948401B6018FEE92E00E942E06A8CFD0
:1026F0009E3040F42850310981E001C0880F2A95AE
:10270000EAF757CF2E503109F7CF6CE770E08823F6
:1027100011F063E870E08FEE92E00E94470681E0DE
:102720008093B8020E948D0980EA0E94EA0480E04A
:102730000E94EA04182F0E94060390E080E010FD3A
:1027400004C011FFD2C381E090E00E946C0A892B83
:1027500009F0CBC30E9461036093260270932702A5
:102760008093280290932902209152022E7F209379
:1027700052028091C0029091C102A091C202B09118
:10278000C302803333E09307A105B10509F4ACC25D
:1027900008F07EC08A3C52E09507A105B10509F416
:1027A00015C208F058C08337F1E09F07A105B105B5
:1027B00009F42DC38A3332E09307A105B10509F46A
:1027C000A0C2823A9105A105B10509F099C0909186
:1027D000C802983009F48CC108F07DC1923009F428
:1027E00083C18091C902883009F497C108F088C17B
:1027F000823009F48EC1911183C0811181C0109281
:10280000DD031092E9031092F50310920104109277
:102810000D0410921904109225041092310470C016
:102820008BA49CA48E149F0409F039CFB092440469
:102830006DE970E08FEE92E00E9447066AE870E072
:102840008CE893E00E94470668E873E180E090E03E
:102850000E94620CF5CE8C3F42E09407A105B105C1
:1028600009F4F4C18E3253E09507A105B10509F4CE
:10287000C4C1803F9240A105B10509F041C08091DB
:10288000C8028C708830E1F582E080936D0238C018
:10289000873BF3E09F07A105B10509F400C3D0F41D
:1028A000833A33E09307A105B10509F471C1863B72
:1028B00043E09407A105B10509F4DBC281359340DB
:1028C000A105B105E9F46091CB026093390283E27E
:1028D00090E010C2893BE3E09E07A105B10509F431
:1028E000E9C208F4D1C2893F23E09207A105B105EE
:1028F00009F492C282319440A105B10509F415C1D1
:102900008091E003813021F41092E00380939502DE
:102910008091EC03813021F41092EC0380939A02B1
:102920008091F803813009F0D0C21092F80381E061
:1029300080939F0280910404813021F4109204045A
:102940008093B30280911004813021F4109210041E
:1029500080938B0280911C04813089F510921C04B5
:1029600080EA92E0A0E0B0E08093C0029093C102C0
:10297000A093C202B093C30288E08093C40288E8A7
:102980008093C8028093C90280EF8093CA028DE4CD
:102990008093CB028FEF8093CC028093CD02809303
:1029A000CE028093CF0280EC92E00E94FA0A80EC83
:1029B00092E00E94FA0A80EC92E00E94FA0A80916A
:1029C000B003833029F41092B00381E08093900229
:1029D0002091BC03213039F51092BC033091520292
:1029E00037FB882780F990915302492F4170842B3F
:1029F00091FB442740F9842B92FB442740F9842B18
:102A000091F032FD10C093FD0EC088EC90E0A0E084
:102A1000B0E08093000190930101A0930201B09374
:102A200003012093A9028091D4038130D1F4109244
:102A3000D40380916802811114C080917C028111BD
:102A400010C090917702911148C28091520283FD8B
:102A500045C291E081E09093680291E089278093DC
:102A60007C0280913204882309F43AC280913304B5
:102A7000811136C20E9461030091390410913A0419
:102A800020913B0430913C04601B710B820B930B33
:102A9000693B7B408105910508F422C291E0909347
:102AA0003304809152028460809352021092340465
:102AB000109232048091EE0289278093EE020E94E8
:102AC000140F8091EE02882309F447C386EE90E04C
:102AD0000E940C090AC2903279F0903809F081CE38
:102AE00081E0809301047DCE81E08093DD0379CE87
:102AF00081E08093E90375CE81E08093F50371CE88
:102B0000803279F0803809F076CE81E0809331040C
:102B1000F7CE81E080930D04F3CE81E08093190419
:102B2000EFCE81E080932504EBCEC090C802D09018
:102B3000C902E090CA02F090CB0240E8F41A60911A
:102B4000CC027091CD028091CE029091CF0290582C
:102B5000E4E28E2E912CA12CB12CA50194010E94AF
:102B60007E2420935F023093600240936102509371
:102B70006202C701B601A50194010E947E24209340
:102B80005B0230935C0240935D0250935E02B8CECC
:102B90008091C802803D49F48091C9028F3F09F0BD
:102BA000AFCE84E00E94440CABCE883C09F0A8CEA6
:102BB0008091C9028F3F09F0A3CE81E00E94440CAE
:102BC000809152028064809352029ACE8091C80212
:102BD00055E0859FC0011124805991406AE070E062
:102BE0000E944824609351029C0197FF03C03195D5
:102BF000219531092093500283CE2091CB0291E0A0
:102C00002F3E09F090E08091550290FB87F9809368
:102C100055022C3319F08064809355028AE0289F76
:102C200090011124C9016CE370E00E944824609374
:102C30004F02C90166E070E00E944824CB016AE0BF
:102C400070E00E94482480934E025ACE8091550233
:102C50009091C80290FB80F9809355028091C9023F
:102C6000982F937051E0913009F050E09091540208
:102C700050FB90F99093540241E0982F9C7094304F
:102C800009F040E09091540240FB92F99093540275
:102C900031E0982F9073903109F030E09091540218
:102CA00030FB94F990935402807C21E0803409F049
:102CB00020E08091540220FB86F980935402909189
:102CC000560290FD1DCE8091530250FB84F940FBCB
:102CD00085F930FB86F920FB87F980935302892F11
:102CE0008160809356020CCE6091CB0260933702D4
:102CF00087E390E09A838983CE0101960E94FB0EC0
:102D0000FFCD8091CA02843061F48091CB028F3371
:102D100009F0F6CD81E08093B9032F7B2093520216
:102D2000EFCD813041F58091CB028F3309F0E8CDB2
:102D300081E08093AD0380915202806480935202BF
:102D40001092770280915302877F80935302809183
:102D5000570290915802A0915902B0915A02B7FFC0
:102D6000CFCDBF778093570290935802A09359021A
:102D7000B0935A02C5CD803171F48091CB028F336C
:102D800009F0BECD8091CD02833F09F4B9CD81E039
:102D90008093C503B5CD81112AC08091CB028F33BA
:102DA00009F0AECD8091CC028F3F09F0A9CD809182
:102DB000CD02813F61F48091520281FD05C091E016
:102DC0009093D1038260FFCE1092D10399CD803FC2
:102DD00009F096CD1092B9031092AD031092C5037D
:102DE000809153028F788F778093530289CD8034FE
:102DF00009F086CD8091CB028F3309F081CD1092FE
:102E0000D103809152028D7F80935202E9CF80914D
:102E1000CF0280FB25F982CF8091CB02837091E0B5
:102E2000823009F090E08091520290FB83F9809308
:102E3000520283FD19C0809177028823A9F00E9475
:102E40006103009178021091790220917A02309109
:102E50007B02601B710B820B930B693E73408105F3
:102E6000910510F0109277028091CC028093350288
:102E700047CD91E08091C9028C3F09F490E08091A8
:102E8000520290FB87F99FCE91E08091C9028C3F5E
:102E900009F490E08091530290FB80F9A5CF91E076
:102EA0008091C802811101C090E08091530290FB93
:102EB00081F99ACF91E08091C802811101C090E020
:102EC0008091530290FB82F98FCF8091C8038130AB
:102ED00009F030CD1092C8032ACD90E080E0BBCD40
:102EE000809152028B7F809352020E946103009175
:102EF0002602109127022091280230912902601B9E
:102F0000710B820B930B613E73498440910508F469
:102F100056C08091520280FD52C00E94E00D0E9476
:102F20006103609326027093270280932802909396
:102F300029028091520281608093520210923502E0
:102F400040905F0250906002609061027090620257
:102F500080905B0290905C02A0905D02B0905E0257
:102F600004E813E0F12CE12C1A830983C301B201B8
:102F70000E2C04C095958795779567950A94D2F79E
:102F8000CE0101960E94FB0EC80104969A838983A4
:102F9000C501B4010E2C04C095958795779567956A
:102FA0000A94D2F7CE0101960E94FB0EF8E0EF0ED4
:102FB000F11C0F5F1F4F083823E01207A9F680911C
:102FC0006802811178C080916D02811174C0809176
:102FD000520286FD70C090915402792F717092FB5D
:102FE000662760F994FB552750F996FB442740F972
:102FF0008091530284FB332730F9232F272770FB5E
:1030000084F985FB332730F93627322B60FB85F9AD
:1030100086FB222720F92527322B50FB86F987FBD8
:10302000222720F92427232B40FB87F98093530282
:10303000222309F440C040915702509158026091F8
:10304000590270915A02957509F48CC070684093CA
:103050005702509358026093590270935A026DEFD1
:1030600070E0CE0101960E94A52340915702509135
:1030700058026091590270915A02F1012CE130E03E
:10308000DB01CA01022E04C0B695A79597958795D6
:103090000A94D2F78F708A3008F062C0805D819305
:1030A000245031092C3F8FEF380751F71C8ACE018D
:1030B00001960E94B3060E946103EDEAF3E02DE35E
:1030C00034E051E0C480D580E680F7804B015C019C
:1030D0008C189D08AE08BF087501640149EBC41641
:1030E0004BE0D406E104F10408F01382A181408191
:1030F000A1116CC0442329F0608771878287938770
:1031000051833C962E173F07E9F600917702109104
:103110005202002311F40C941A220E946103C09001
:103120007802D0907902E0907A02F0907B026C19DC
:103130007D098E099F0910915202613A7B4B8D40A7
:10314000910510F40C94F62184E0023011F40C94F3
:10315000162280917C020C9416228BED90E0B8CC64
:10316000895C9DCF7F7740935702509358026093BC
:10317000590270935A0260EF70E0CE0101960E94EE
:10318000A5234091570250915802609159027091C5
:103190005A02FE013D962CE130E0DB01CA01022E0D
:1031A00004C0B695A795979587950A94D2F78F7026
:1031B0008A3050F4805D8193245031092C3F9FEF79
:1031C000390759F71D8A73CF895CF5CF411199CF23
:1031D00012821182C084D184E284F3844B015C01A9
:1031E0008C189D08AE08BF087501640148EEC4162E
:1031F00043E0D406E104F10408F083CF43814F5F3C
:10320000438364837583868397837BCF6BE471E00C
:103210008AE292E00E949C23892B29F4F8940C9472
:10322000003F0C94422367E471E08AE292E00E943E
:103230009C23892B21F4109390020C94422362E486
:1032400071E08AE292E00E949C23892B21F4109382
:1032500086020C9442236BE371E08AE292E00E94C2
:103260009C23892B21F4109381020C94422366E362
:1032700071E08AE292E00E949C23892B21F4109352
:1032800095020C94422361E371E08AE292E00E948D
:103290009C23892B21F410939A020C9442236CE214
:1032A00071E08AE292E00E949C23892B21F4109322
:1032B0009F020C94422367E271E08AE292E00E944E
:1032C0009C23892B41F48091520283FF04C0109308
:1032D0007C020C94422361E271E08AE292E00E9457
:1032E0009C23892B21F48091520283FF0CC06DE155
:1032F00071E08AE292E00E949C23892B41F41093B2
:10330000B3020C944223109368020C94422367E1A9
:1033100071E08AE292E00E949C23892B21F40E94B2
:10332000D70B0C94422362E171E08AE292E00E94A2
:103330009C23892B81F488E592E0A0E0B0E08093A3
:10334000000190930101A0930201B0930301F09258
:10335000A9020C94422369E071E08AE292E00E94A3
:103360009C23892B11F00C94422310936802009344
:1033700072020C9442239F5F9093340280830C94DA
:1033800019230E94610300914A0210914B0220917F
:103390004C0230914D02601B710B820B930B603D10
:1033A00077408105910508F475C10E94610360931F
:1033B0004A0270934B0280934C0290934D0280918D
:1033C0004202811115C010923D0210923C021092EF
:1033D0003F0210923E0210924102109240026CE6AF
:1033E00071E08CE392E00E944D0D81E080934202F7
:1033F00080913B02811109C06EE670E08CE392E09F
:103400000E94250D81E080933B028CE893E00E94AE
:10341000E203892B09F43EC1A8958CE893E00E9451
:10342000F80389831A8200914002109141020F5FD4
:103430001F4FB8018CE392E00E94250D882399F07C
:1034400020913C0230913D028091400290914102D6
:10345000BE016F5F7F4F820F931F0E94A2261093C1
:103460004102009340021A8219821C821B821E8232
:103470001D8262E771E0CE0101960E944D0D8091A0
:10348000400290914102892B71F000913C02109111
:103490003D0269817A81C8010E94B8267C01E01A48
:1034A000F10A892B19F4EE24EA94FE2CCE01019640
:1034B0000E94190DF7FC8EC4809140029091410248
:1034C000E816F90608F086C4C0903C02D0903D0290
:1034D0006AE070E0C6018E0D9F1D0E948E26009747
:1034E00009F478C48C010C191D09E016F1060CF0E2
:1034F00071C40F5F1F4F9801A7016CE372E0CE010A
:1035000085960E94780D40914002509141024115EC
:103510005105F1F04017510708F48A0180913C02EF
:1035200090913D02401B510B509341024093400249
:10353000BC01600F711F0E94A926E0913C02F0912E
:103540003D028091400290914102E80FF91F1082E4
:1035500009A51AA50115110509F438C4EDA0FEA0AE
:103560006CE270E0C7010E948E26009709F42EC419
:10357000AC014E195F09141615060CF027C44F5FF5
:103580005F4F9801BE016B5D7F4FCE0101960E9497
:10359000780D89819A81C12CD12C7601009721F078
:1035A0000E9475236B017C01CE0101960E94190DCA
:1035B0001C141D040CF00AC480914404882309F4EF
:1035C00005C461E671E08CE893E00E948401DD248B
:1035D000EE24FF242AE0B701A6018CE893E00E94C4
:1035E00082056AE671E08CE893E00E94730549E782
:1035F00051E062E370E080E197E20E94FC048823DE
:1036000009F4E4C322E242E270E060E090E080E08E
:103610000E947504882309F4D9C322E242E26FE0D4
:1036200070E085E894E00E947504882309F4CEC315
:1036300022E242E270E060E090E080E00E947504E7
:10364000882309F4C3C322E242E270E060E090E024
:1036500080E00E947504882309F4B8C32DE04AE095
:1036600060E470E085E494E00E947504882309F426
:10367000ADC362E370E088EE93E00E94190480918C
:10368000440481117DC310E0CE0185960E94190D7E
:103690001111ECC3A89580916802882319F080E08D
:1036A0000E949C0780916D02882319F081E00E949E
:1036B0009C07809172028630C1F5809173029091CF
:1036C0007402A0917502B0917602892B8A2B8B2B04
:1036D00051F40E94610360937302709374028093AB
:1036E0007502909376020E9461030091730210911B
:1036F00074022091750230917602DC01CB01801BAF
:10370000910BA20BB30B61E08C32E1E09E07A105A7
:10371000B10540F060E08032F3E09F07A105B105FC
:1037200008F0A1C489E00E94BA0210917C02112322
:10373000A9F180917D0290917E02A0917F02B091CB
:103740008002892B8A2B8B2B51F40E94610360939A
:103750007D0270937E0280937F02909380020E948C
:103760006103C0907D02D0907E02E0907F02F090D5
:103770008002DC01CB018C199D09AE09BF092091A3
:103780005202322F387023FF33C584369105A105CC
:10379000B10508F02DC581E00E94F10480918602F8
:1037A000882321F063E186E00E94FA06809181027D
:1037B000882321F062E185E00E94FA0680918B0265
:1037C000882309F441C080918C0290918D02A091D0
:1037D0008E02B0918F02892B8A2B8B2B69F40E9469
:1037E000610360938C0270938D0280938E0290939C
:1037F0008F0281E08093A4020E94610300918C02F9
:1038000010918D0220918E0230918F02601B710BFE
:10381000820B930B60367A4E8105910558F48091A6
:10382000520283FD11C080915402857569F481E0D4
:103830008093810210928B0210928C0210928D0262
:1038400010928E0210928F02109190021123C9F1F2
:10385000123019F480E00E94200C80919102909126
:103860009202A0919302B0919402892B8A2B8B2B08
:1038700051F40E94610360939102709392028093CD
:103880009302909394020E946103C0909102D090A1
:103890009202E0909302F0909402DC01CB018C192B
:1038A0009D09AE09BF09123009F03BC504E813E0D9
:1038B00020E030E0843FE1E09E07A105B10508F07B
:1038C00034C580919502882331F048E152E061E1EE
:1038D00089E00E94150980919A02882331F04EE117
:1038E00052E06EE08AE00E94150980919F028823D1
:1038F00031F044E252E060E18BE00E9415098091D2
:10390000A4028823C9F18091A5029091A602A091FA
:10391000A702B091A802892B8A2B8B2B69F40E94F5
:1039200061036093A5027093A6028093A70290930F
:10393000A80281E00E94200C0E9461030091A50270
:103940001091A6022091A7023091A802601B710B72
:10395000820B930B653671058105910568F080E057
:103960000E94200C1092A4021092A5021092A602AE
:103970001092A7021092A8028091B302882309F442
:103980003FC160915F0270916002809161029091ED
:10399000620250EA852E56E8952EAA24A394B12CF3
:1039A000A50194010E947E242DA73EA74FA758ABE6
:1039B000F62E79AB8AABE92ECDA4DEA440905B0253
:1039C00050905C0260905D0270905E02C301B20193
:1039D000A50194010E947E24490189018F2D99A996
:1039E000AAA9BE2DB7FF07C0B095A0959095819567
:1039F0009F4FAF4FBF4F7C01C301B20120EA36E8B1
:103A000041E050E00E947E2497FF07C0909580958A
:103A1000709561957F4F8F4F9F4F9B0187E48983FE
:103A200080E58A8383E58B83FE013496D7FE09C047
:103A30008DE28C83CDA4DEA4D194C194D108FE0183
:103A4000359644E6C416D1044CF0C60164E670E035
:103A50000E944824605D60836C0131965AE0C5166F
:103A6000D1044CF0C6016AE070E00E944824605D19
:103A70006083C82E319680E38C0D80838EE2818333
:103A8000C70160E177E20E943424605D6283C70170
:103A900068EE73E00E943424CB014AE0C42ED12C9E
:103AA000B6010E943424805D8383C70164E670E020
:103AB0000E943424CB01B6010E943424805D8483AB
:103AC000C701B6010E943424482FCB01B6010E94E1
:103AD0003424805D8583405D46838CE287837F014B
:103AE00017FD3CC488E0E80EF11C0436110564F0B3
:103AF000C80164E670E00E944824605DD7016C93C1
:103B00008C01F70131967F010A30110564F0C8017C
:103B10006AE070E00E944824605DD7016C93082F32
:103B2000F70131967F01005DD7010C938EE211966B
:103B30008C93C90160E177E20E943424605DF70153
:103B40006283C90168EE73E00E943424CB01EAE08D
:103B5000F0E0BF010E943424805DD70113968C935E
:103B6000C90164E670E00E943424CB01BF010E94C9
:103B70003424805DD70114968C93C901BF010E9443
:103B80003424282FCB01BF010E943424805DF7012B
:103B90008583205D268380E2878383E2808700918E
:103BA0005702109158022091590230915A023996C9
:103BB0008CE190E0B901A801082E04C076956795C4
:103BC000579547950A94D2F74F704A3008F0D0C302
:103BD000405D419304978C3F4FEF940759F7D7010D
:103BE00051961C921092B3021092B4021092B50238
:103BF0001092B6021092B702CE0101960E94B3064F
:103C00001091A9021123E9F18091AA029091AB02CF
:103C1000A091AC02B091AD02892B8A2B8B2B81F441
:103C20000E9461036093AA027093AB028093AC027E
:103C30009093AD02123009F028C581E08093A40270
:103C40000E946103C090AA02D090AB02E090AC0247
:103C5000F090AD026C197D098E099F0940916302B5
:103C6000123009F022C5643FB1E07B078105910560
:103C700008F080C3442329F080E00E940F0C1092CA
:103C800063028091AE02882309F46AC00E94610336
:103C90004B015C018091AF029091B002A091B10202
:103CA000B091B202892B8A2B8B2B81F48092AF02C8
:103CB0009092B002A092B102B092B202109264024D
:103CC0001092650210926602109267028091AF0214
:103CD0009091B002A091B102B091B202750164015D
:103CE000C81AD90AEA0AFB0A809164029091650217
:103CF000A0916602B09167020097A105B10569F035
:103D0000A5019401281B390B4A0B5B0BDA01C90191
:103D1000843F9140A105B10550F00E94D70B8092DD
:103D2000640290926502A0926602B092670240E13E
:103D3000C41647E2D406E104F10490F01092AE02FA
:103D40001092AF021092B0021092B1021092B20221
:103D5000109264021092650210926602109267023D
:103D600080E090E0892B11F40C9475120E941202ED
:103D7000882311F40C9470120E9400000C947012AD
:103D800068E571E08CE893E00E9484012AE0B701C5
:103D9000A6018CE893E00E9482056AE671E08CE857
:103DA00093E00E9473054FE651E062E370E088EA19
:103DB00091E60E94FC04182F882309F464CC62E386
:103DC00070E088EE93E00E9419045ECCCE018596E7
:103DD0000E94190D20914002309141022536310593
:103DE00008F413CB42E350E06CE372E0CE0101969D
:103DF0000E94780D80913C0290913D020097F9F06D
:103E000069817A8161157105C1F040913E0250913E
:103E10003F022D813E814217530778F00E94A2266F
:103E20008D819E8190934102809340021E821D826B
:103E3000CE0101960E94190DE8CA0E943F25898192
:103E40009A8190933D0280933C028B819C81909358
:103E50003F0280933E028D819E8190934102809328
:103E600040021A8219821C821B82E0CF8091EE02EE
:103E7000882381F060ED72E085E894E00E94992645
:103E8000892BE9F06FED72E085E894E00E949926B5
:103E9000892BA9F069EE71E085E494E00E94AC23DF
:103EA000892B09F0B7C08091D002882309F4F2CBA6
:103EB00065E474E090E080E00E945B06EBCB6EED81
:103EC00071E085E494E00E949C23892B21F482E038
:103ED00080939502DFCB6AED71E085E494E00E9467
:103EE0009C23892B21F482E080939F02D3CB65ED44
:103EF00071E085E494E00E949C23892B21F482E008
:103F000080938602C7CB6EEC71E085E494E00E945A
:103F10009C23892B21F482E080938102BBCB69EC46
:103F200071E085E494E00E949C23892B21F482E0D7
:103F30008093A902AFCB63EC71E085E494E00E942A
:103F40009C23892B21F481E08093AE02A3CB6FEBFD
:103F500071E085E494E00E949C23892B21F482E0A7
:103F60008093900297CB69EB71E085E494E00E9426
:103F70009C23892B21F48091520283FF14C064EBAF
:103F800071E085E494E00E949C23892B81F060EB32
:103F900071E085E494E00E949C23892B81F481E008
:103FA0008093B30277CB82E080936D0273CB8091D4
:103FB000520283FFECCF82E080937C026BCB69EAF4
:103FC00071E085E494E00E949C23892B19F40E94FF
:103FD000BD0660CB63EA71E085E494E00E949C2317
:103FE000892B21F4F8940C94003F54CB6AE971E0DA
:103FF00085E494E00E949C23892B09F04BCB8091AF
:10400000520283FD47CB82E080936D0285E080936E
:10401000720240CB66E971E085E494E00E94AC2333
:10402000892B69F065E874E080ED92E00E94A22699
:104030000E94140F82E891E00E940C092BCB6EE7DE
:1040400071E085E494E00E94AC23892B09F422CB33
:1040500065E874E08FED92E00E94A2260E94140FA2
:104060008AE691E0E9CF88389341A105B10508F0CF
:10407000AEC089E00E94BA028091560281FD55CB04
:104080003091550236FF51CB80917702823009F092
:104090004CCB809151025091500220914F0240919F
:1040A0004E029CE79983FE013296843640F064E626
:1040B0000E942824805D8A83892FFE0133968A30EE
:1040C00038F06AE00E942824805D8083892F319631
:1040D000805D80838EE28183852F6AE00E942824A0
:1040E000905D92838CE7838337FF47C08FE684839C
:1040F0008CE6858384E7868382E7878385E68087ED
:1041000080E2818784E382879F01245F3F4F80E3C1
:104110008387F90183E28193C0905702D0905802BF
:10412000E0905902F0905A028CE190E0B701A601AC
:10413000082E04C076956795579547950A94D2F74F
:104140004F704A3008F041C0405D419304978C3F66
:104150004FEF940759F7D90119961C92CE01019699
:104160000E94B3068091560282608093560280912D
:1041700055028F7B80935502D8CADF012436E0F4C4
:1041800014962A3040F0822F6AE00E942824805D35
:104190008C93292F1196205D2C938EE211968C938F
:1041A00011979D012D5F3F4F842F6AE00E942824C4
:1041B000905D12969C93ADCF1596822F64E60E9477
:1041C0002824805D8483292FDCCF495CBECF89E021
:1041D0000E94BA021092720210927302109274023C
:1041E0001092750210927602809156028D7FBDCF9B
:1041F0008C32E1E09E07A105B10510F480E0CCCA45
:10420000803DF7E09F07A105B10508F4C7CA2872F1
:1042100039F48C3F28E09207A105B10508F4BBCA28
:10422000311179C080369940A105B10508F073C0FD
:1042300080E00E94F104133009F442C0143089F088
:10424000123011F40E94BD0610927C0210927D0281
:1042500010927E0210927F021092800210927702DA
:104260009DCA6AE072E0CE0101960E94A5234091AA
:104270005702509158026091590270915A02FE0102
:104280003E962CE130E0DB01CA01022E04C0B69557
:10429000A795979587950A94D2F78F708A3070F416
:1042A000805D8193245031092C3F8FEF380759F7F7
:1042B0001E8ACE0101960E94B306C6CF895CF1CF5B
:1042C0006AEF71E0CE0101960E94A523409157024A
:1042D000509158026091590270915A02FE017096F5
:1042E0002CE130E0DB01CA01022E04C0B695A7958F
:1042F000979587950A94D2F78F708A3050F4805D35
:104300008193245031092C3F9FEF390759F7188EBC
:10431000D0CF895CF5CF80E00E94F10410927C023E
:104320009DCF00E911E020E030E080179107A2075F
:10433000B30728F461E084E00E94BA02C2CA60E0D8
:1043400084E00E94BA0210929002109291021092A0
:1043500092021092930210929402B3CA99E0E90E6D
:10436000F11C8DE280870027112708191909BDCBA0
:10437000495C2FCC04EF11E020E030E0C090000158
:10438000D0900101E0900201F09003010C0D1D1D81
:104390002E1D3F1D601771078207930748F44111D6
:1043A00070CC81E00E940F0C81E08093630269CCA5
:1043B000442329F080E00E940F0C109263021092B7
:1043C000A9021092AA021092AB021092AC021092B3
:1043D000AD0280ED97E0A0E0B0E080930001909303
:1043E0000101A0930201B09303014BCC009177022D
:1043F0000E946103C0907802D0907902E0907A0226
:10440000F0907B026C197D098E099F0961347F4110
:104410008105910578F015FD04C0809154028575E1
:1044200049F083E0023011F00C94A91880937C02CB
:104430001092770217FD05C080915302877021E02A
:1044400009F020E0A091550220FBA4F9A0935502A9
:10445000A2FB882780F91A2F117090915402F92F2E
:10446000F17092FBEE27E0F994FB772770F996FB49
:10447000662760F9B0915202B3FB552750F940917D
:1044800039023091370200913502A3FBFF24F0F886
:10449000F8122EC0A5FBFF24F0F82F1129C0A69515
:1044A000A170A11325C091FBAA27A0F9AF1320C0CA
:1044B00093FBAA27A0F9AE131BC095FBAA27A0F96E
:1044C000A71316C097FB992790F9961311C0B295C0
:1044D000B170B5130DC090913A02941309C0909138
:1044E0003802931305C090913602901709F49DC0CD
:1044F0009091550280FB93F920FB95F910FB91F9FF
:104500009093550290915402F0FB91F9E0FB93F9DE
:1045100070FB95F960FB97F99093540290915202C9
:1045200050FB94F99093520240933A023093380230
:104530000093360290E0B0E0A0E0BB278695B795E7
:10454000AA2799278827C12ED12CF12CE12C1DE117
:10455000CC0CDD1CEE1CFF1C1A95D1F78C299D2973
:10456000AE29BF29802BCF2ED12CF12CE12C0CE1D0
:10457000CC0CDD1CEE1CFF1C0A95D1F78C299D2963
:10458000AE29BF29CE2ED12CF12CE12CEBE1CC0CA5
:10459000DD1CEE1CFF1CEA95D1F78C299D29AE2964
:1045A000BF29C72ED12CF12CE12CFAE1CC0CDD1C5B
:1045B000EE1CFF1CFA95D1F78C299D29AE29BF2945
:1045C000C62ED12CF12CE12C19E1CC0CDD1CEE1CFB
:1045D000FF1C1A95D1F78C299D29AE29BF29C52E1C
:1045E000D12CF12CE12CFC2CEE24DD24CC248C29C4
:1045F0009D29AE29BF29A42B932B30E050E040E049
:104600006EE1220F331F441F551F6A95D1F7822B8D
:10461000932BA42BB52B8093570290935802A09311
:104620005902B0935A020E94CE0511E005E072E0F3
:10463000F72E8FEE92E00E940602892B11F40C9463
:10464000C1198FEE92E00E94E40190913402E92FAB
:10465000F0E0E65DFD4F8A3041F08D3031F0882387
:1046600021F0993010F40C94BB19108261E571E0CF
:104670008AE292E00E949C23892B11F00C94061987
:104680000E94CE0510923402D4CF0E9461030091A3
:10469000AA021091AB022091AC023091AD02601BD6
:1046A000710B820B930B4091630200E010E09801C4
:1046B00065CE8CE591E090938D0380938C0380917F
:1046C0002402909125028C58934071F4E0919F034D
:1046D000F091A00390818091A1038095892380832C
:1046E000109225021092240208951F93FC0199272D
:1046F0008827BC01E89411911032E9F3193010F0C9
:104700001E30C8F31B3251F01D3249F4689406C0C4
:104710000E94C623610F711D811D911D11911053BF
:104720001A30B0F33EF490958095709561957F4F67
:104730008F4F9F4F1F910895FB01DC018D910590D4
:1047400080190110D9F3990B0895FB01DC01059044
:104750000D920020E1F70895FB0155915523A9F032
:10476000BF01DC014D9145174111E1F759F4CD012D
:104770000590002049F04D9140154111C9F3FB010E
:104780004111EFCF81E090E001970895592F482F14
:10479000372F262F660F771F881F991F660F771FE9
:1047A000881F991F620F731F841F951F660F771F45
:1047B000881F991F0895F999FECF92BD81BDF89A7F
:1047C000992780B50895262FF999FECF1FBA92BD7B
:1047D00081BD20BD0FB6F894FA9AF99A0FBE0196E2
:1047E00008952F923F924F925F926F927F928F9295
:1047F0009F92AF92BF92CF92DF92EF92FF920F9370
:104800001F93CF93DF93CDB7DEB7CA1BDB0B0FB679
:10481000F894DEBF0FBECDBF09942A883988488836
:104820005F846E847D848C849B84AA84B984C884CC
:10483000DF80EE80FD800C811B81AA81B981CE0FC3
:10484000D11D0FB6F894DEBF0FBECDBFED010895A8
:10485000991B79E004C0991F961708F0961B881FD2
:104860007A95C9F780950895AA1BBB1B51E107C033
:10487000AA1FBB1FA617B70710F0A61BB70B881FF0
:10488000991F5A95A9F780959095BC01CD0108957F
:1048900097FB072E16F4009407D077FD09D00E94ED
:1048A000342407FC05D03EF4909581959F4F0895E0
:1048B000709561957F4F0895A1E21A2EAA1BBB1B2C
:1048C000FD010DC0AA1FBB1FEE1FFF1FA217B307DC
:1048D000E407F50720F0A21BB30BE40BF50B661FF2
:1048E000771F881F991F1A9469F7609570958095B6
:1048F00090959B01AC01BD01CF010895052E97FB5A
:104900001EF400940E94952457FD07D00E945C2459
:1049100007FC03D04EF40C949524509540953095A7
:1049200021953F4F4F4F5F4F08959095809570951B
:1049300061957F4F8F4F9F4F0895EE0FFF1F05909A
:10494000F491E02D09940F931F93CF93DF9382305E
:10495000910510F482E090E0E0919A04F0919B04BC
:1049600030E020E0B0E0A0E0309799F42115310567
:1049700009F44AC0281B390B24303105D8F58A8147
:104980009B816115710589F1FB0193838283FE018F
:1049900011C0408151810281138148175907E0F00D
:1049A0004817590799F4109761F012960C931297D3
:1049B00013961C933296CF01DF91CF911F910F91E7
:1049C000089500939A0410939B04F4CF21153105A8
:1049D00051F04217530738F0A901DB019A01BD01DC
:1049E000DF01F801C1CFEF01F9CF90939B048093D1
:1049F0009A04CDCFFE01E20FF31F819391932250D1
:104A0000310939832883D7CF2091980430919904B4
:104A1000232B41F420910601309107013093990432
:104A2000209398042091040130910501211531054E
:104A300041F42DB73EB74091080150910901241B64
:104A4000350BE0919804F0919904E217F307A0F474
:104A50002E1B3F0B2817390778F0AC014E5F5F4FD4
:104A60002417350748F04E0F5F1F50939904409369
:104A70009804819391939FCFF0E0E0E09CCFCF9397
:104A8000DF930097E9F0FC01329713821282A09124
:104A90009A04B0919B04ED0130E020E01097A1F45E
:104AA00020813181820F931F2091980430919904C5
:104AB0002817390709F061C0F0939904E09398042E
:104AC000DF91CF910895EA01CE17DF07E8F54A811B
:104AD0005B819E0141155105B1F7E901FB83EA8332
:104AE00049915991C40FD51FEC17FD0761F48081DE
:104AF00091810296840F951FE901998388838281B1
:104B000093819B838A83F0E0E0E012968D919C91E3
:104B100013970097B9F52D913C911197CD0102960D
:104B2000820F931F20919804309199042817390718
:104B300039F6309751F510929B0410929A04B09375
:104B40009904A0939804BCCFD383C2834081518140
:104B5000840F951FC817D90761F44E5F5F4F888196
:104B60009981480F591F518340838A819B81938388
:104B700082832115310509F0B0CFF0939B04E093B7
:104B80009A049ECFFD01DC01C0CF13821282D7CFE1
:104B9000B0E0A0E0EEECF5E20C94F3238C0100977A
:104BA00051F4CB010E94A3248C01C801CDB7DEB71C
:104BB000E0E10C940F24FC01E60FF71F9C0122504A
:104BC0003109E217F30708F49DC0D901CD91DC91BA
:104BD0001197C617D70798F0C530D10530F3CE012D
:104BE00004978617970708F3C61BD70B2297C19324
:104BF000D1936D937C93CF010E943F25D6CF5B016B
:104C0000AC1ABD0A4C018C0E9D1EA0919A04B09165
:104C10009B04512C412CF12CE12C109731F5809103
:104C20009804909199048815990509F05CC046167E
:104C3000570608F058C08091040190910501009733
:104C400041F48DB79EB74091080150910901841B32
:104C5000950BE817F90708F055C0F0939904E09315
:104C60009804F90171836083A0CF8D919C91119775
:104C700012966C90129713967C901397A815B9050D
:104C800059F56C0142E0C40ED11CCA14DB0420F1BA
:104C9000AC014A195B09DA011296159780F062821D
:104CA000738251834083D9016D937C93E114F104A5
:104CB00071F0D7011396FC93EE93129776CF22965C
:104CC0008C0F9D1FF90191838083F301EFCFF09347
:104CD0009B04E0939A0469CF4816590608F42C0106
:104CE0007D01D3019ACFCB010E94A3247C010097C0
:104CF00049F0AE01B8010E948526C8010E943F25F7
:104D0000870153CF10E000E050CFFB01DC0102C06F
:104D100001900D9241505040D8F70895FC018191C7
:104D2000861721F08823D9F7992708953197CF0165
:104D30000895FB01DC018D91019080190110D9F3D8
:104D4000990B0895FB01DC0101900D920020E1F721
:104D50000895FB01DC014150504048F001900D9254
:104D60000020C9F701C01D9241505040E0F708955E
:104D7000FB0151915523A9F0BF01DC014D9145176D
:104D80004111E1F759F4CD010190002049F04D9116
:104D900040154111C9F3FB014111EFCF81E090E0D3
:104DA0000197089511E0C8E5D1E004C0FE010E941A
:0E4DB0009D242196C935D107C9F7F894FFCF8D
:104DBE00D007000000009C048000000001000200EB
:104DCE0000000100020003000400050009050412A2
:104DDE00110E100813060780018501930198019F9B
:104DEE0001A901BB01606166017071760230313636
:104DFE00404146505156000000004802A801D5011E
:104E0E009A020602E401F801000000008603A801E0
:104E1E00E7048503E203F8036D030D0A003E004F1D
:104E2E004B002B434D54493A002B434D47523A0009
:104E3E00415426460041542B435343533D2247537E
:104E4E004D2200415445300041542B434243004112
:104E5E00542B434D47463D310041542B434E4D4953
:104E6E003D322C312C302C302C300041542B435001
:104E7E004D533D22534D222C22534D222C22534D65
:024E8E00220000
:00000001FF
