:100000000C941C010C9444010C9444010C94800E3B
:100010000C94800E0C94800E0C9444010C944401BA
:100020000C9444010C9444010C9444010C9444013C
:100030000C9444010C9444010C9444010C9444012C
:100040000C94360E0C9444010C94040E0C94DE0DAA
:100050000C9444010C9444010C9444010C9444010C
:100060000C9444010C9444010000000800020100BB
:1000700000030407000000000000000041542B436F
:100080004D4744413D2244454C20414C4C220041C7
:10009000540052656D6F7465204F46460052656D81
:1000A0006F7465204F4E004252532D436C6F736541
:1000B000642023004252532D416C61726D20230055
:1000C00073746172745F616300686F726E006C6953
:1000D000676874006770730073746172740073747E
:1000E0006F7000626F783300626F783200626F78F1
:1000F00031006368697564690061707269006777CF
:100100007300726573657400757064617465004195
:10011000542B434D47443D0041542B434D47523DE2
:10012000004E756D65726F205B325D2053616C7699
:1001300061746F21005B325D004E756D65726F20DA
:100140005B315D2053616C7661746F21005B315DC2
:1001500000537461727420414300526573657400EA
:10016000557064617465004750530053746F70009C
:10017000537461727400475753004C696768740088
:10018000486F726E004368697564690041707269F6
:1001900000426F7800536F7263696E656C6C690022
:1001A000536574204F574E45522032303132373626
:1001B000004252532D456D657267656E6379202349
:1001C000004252532D54696D656F757420230042AF
:1001D0004F58203100424F58203200424F582033B0
:1001E00000220041542B434D47533D2200000000A4
:1001F0000023002600290000000000250028002B15
:100200000000000000240027002A0001020408105A
:10021000204080010204081020010204081020047C
:10022000040404040404040202020202020303039D
:1002300003030300F80EE72011241FBECFEFD8E020
:10024000DEBFCDBF11E0A0E0B1E0E2E8F4E402C01F
:1002500005900D92AC3CB107D9F724E0ACECB1E0CD
:1002600001C01D92A03AB207E1F711E0CBE1D1E065
:1002700004C02197FE010E94DE21CA31D107C9F7CF
:100280000E9404100C9434220C940000AF92BF9290
:10029000CF92DF92EF92FF920F931F93CF93DF9352
:1002A0006C017B018B01040F151FEB015E01AE1881
:1002B000BF08C017D10759F06991D601ED91FC91A3
:1002C0000190F081E02DC6010995892B79F7C501D0
:1002D000DF91CF911F910F91FF90EF90DF90CF9022
:1002E000BF90AF900895FC01538D448D252F30E0D1
:1002F000842F90E0821B930B541710F0CF96089533
:1003000001970895FC01918D828D981761F0A28D5F
:10031000AE0FBF2FB11D5D968C91928D9F5F9F7325
:10032000928F90E008958FEF9FEF0895FC01918DDB
:10033000828D981731F0828DE80FF11D858D90E048
:1003400008958FEF9FEF0895FC01918D228D892FE5
:1003500090E0805C9F4F821B91098F7399270895CD
:1003600087EF92E00E94A40121E0892B09F420E0AC
:10037000822F089580E090E0892B29F00E94B0013F
:1003800081110C9400000895FC01A48DA80FB92FD1
:10039000B11DA35ABF4F2C91848D90E001968F73AD
:1003A0009927848FA689B7892C93A089B1898C91CC
:1003B000837080648C93938D848D981306C002881B
:1003C000F389E02D80818F7D80830895EF92FF92E5
:1003D0000F931F93CF93DF93EC0181E0888F9B8D68
:1003E0008C8D98131AC0E889F989808185FF15C022
:1003F0009FB7F894EE89FF896083E889F989808145
:100400008370806480839FBF81E090E0DF91CF9113
:100410001F910F91FF90EF900895F62E0B8D10E035
:100420000F5F1F4F0F731127E02E8C8D8E110CC0A4
:100430000FB607FCFACFE889F989808185FFF5CFEF
:10044000CE010E94C401F1CFEB8DEC0FFD2FF11D09
:10045000E35AFF4FF0829FB7F8940B8FEA89FB892C
:1004600080818062CFCF682F87EF92E00C94E60105
:10047000CF93DF93EC01888D8823B9F0AA89BB89DB
:10048000E889F9898C9185FD03C0808186FD0DC0C6
:100490000FB607FCF7CF8C9185FFF2CF808185FFE7
:1004A000EDCFCE010E94C401E9CFDF91CF91089535
:1004B00090E0FC01E859FF4F2491FC01E55FFD4FFE
:1004C0003491FC01E15EFD4FE491EE23C9F022235B
:1004D00039F0233001F1A8F4213019F1223029F14B
:1004E000F0E0EE0FFF1FE950FE4FA591B4918FB7DA
:1004F000F894EC91611126C030953E233C938FBF58
:1005000008952730A9F02830C9F0243049F78091A8
:1005100080008F7D03C0809180008F778093800062
:10052000DFCF84B58F7784BDDBCF84B58F7DFBCFE4
:100530008091B0008F778093B000D2CF8091B000CF
:100540008F7DF9CF3E2BDACF61E0809145040C948A
:100550005802CF93DF9390E0FC01E55FFD4F2491BB
:10056000815E9D4FFC0184918823D1F090E0880F3B
:10057000991FFC01EF5FFD4FA591B491FC01E9507B
:10058000FE4FC591D49161110EC09FB7F8948C9124
:10059000E22FE0958E238C932881E223E8839FBF8E
:1005A000DF91CF9108958FB7F894EC91E22BEC9303
:1005B0008FBFF6CF3FB7F894809116029091170243
:1005C000A0911802B091190226B5A89B05C02F3F33
:1005D00019F00196A11DB11D3FBFBA2FA92F982F69
:1005E0008827BC01CD01620F711D811D911D42E064
:1005F000660F771F881F991F4A95D1F708958F922C
:100600009F92AF92BF92CF92DF92EF92FF924B01F7
:100610005C010E94DA026B017C010E94DA026C1913
:100620007D098E099F09683E734081059105A8F3F5
:1006300021E0821A9108A108B10888EEC80E83E073
:10064000D81EE11CF11C81149104A104B10429F706
:10065000FF90EF90DF90CF90BF90AF909F908F90E2
:1006600008952FB7F894609112027091130280914F
:100670001402909115022FBF089520911C02309111
:100680001D022817390771F490911A0280911B02FC
:10069000981741F0E0911A02F0E0EF52FE4F80818E
:1006A00090E008958FEF9FEF08950895EF92FF92E5
:1006B0000F931F93CF93DF93DC015C96ED90FC903A
:1006C0005D97E114F10479F481E090E013969C9336
:1006D0008E93129790E080E0DF91CF911F910F9160
:1006E000FF90EF9008955196ED91FC91529750969E
:1006F0008C915097982F90950FB75E962C915E979E
:10070000122F127021FD6095F8942081112319F1A8
:10071000282B2083E7012197F1F728E0462F50E0AE
:10072000308160FF1AC0382B3083E7012197F1F741
:10073000BA0175956795215089F7112381F0808161
:10074000892380830FBF5C968D919C910197F1F76F
:1007500081E090E0C1CF2923DCCF3923E5CF908120
:10076000892BEFCF0F931F93CF93DF938C01D0E0B2
:10077000C0E0F801EC0FFD1F6491662341F084E9AD
:1007800093E00E945603892B11F02196F2CFCE01FF
:10079000DF91CF911F910F91089520911C0230910C
:1007A0001D022817390761F480911B0220911A025B
:1007B00090E0805C9F4F821B91098F739927089569
:1007C00090E080E0089520911C0230911D022817CE
:1007D0003907B9F490911A0280911B02981789F099
:1007E000E0911A02F0E0EF52FE4F808120911A0250
:1007F00030E02F5F3F4F2F73332720931A0290E092
:1008000008958FEF9FEF08954F925F926F927F92BE
:100810008F929F92AF92BF92CF92DF92EF92FF9210
:100820004C016B010E9431032B013C01B12CA12C26
:1008300084E993E00E94CD03892B69F40E9431037F
:100840006419750986099709681579058A059B0554
:1008500010F4A895EDCF84E993E00E94CD03892B95
:1008600001F10E9431034B015C01F12CE12CA895B0
:1008700084E993E00E94CD03892B41F084E993E061
:100880000E94E3030E9431034B015C010E9431038B
:10089000681979098A099B096C157D058E059F05E4
:1008A00030F3FF90EF90DF90CF90BF90AF909F908C
:1008B0008F907F906F905F904F9008954F925F92CE
:1008C0006F927F929F92AF92BF92CF92DF92EF9200
:1008D000FF920F931F93CF93DF938C016B01E42E54
:1008E000922E009721F0672B11F0FC0110820E94DC
:1008F00031032B013C01D0E0C0E0F12C5601F1E0C6
:10090000AF1AB108A89584E993E00E94CD03892B22
:1009100071F084E993E00E94E303F11015C0FF2415
:10092000F3948E11F12C0E9431032B013C010E94A3
:1009300031036419750986099709623371058105C8
:10094000910500F3F12C0AC0891119C00115110598
:1009500029F0CD2819F0C00FD11F18828F2DDF91FB
:10096000CF911F910F91FF90EF90DF90CF90BF90AC
:10097000AF909F907F906F905F904F90089501157A
:10098000110589F2CA15DB0574F6F801EC0FFD1F9D
:1009900080832196C8CF90E080E008958EBD00004E
:1009A0000DB407FEFDCF8EB50895CF93C82F682FE5
:1009B00086E00E9458026C2F87E0CF910C94580279
:1009C0004F925F926F927F928F929F92AF92BF925F
:1009D000CF92DF92EF92FF920F931F93CF93DF930B
:1009E0004C017B016A010E9431032B013C01B12CB7
:1009F000A12C84E993E00E94CD03892B69F40E9425
:100A000031036419750986099709681579058A05FE
:100A10009B0510F4A895EDCF84E993E00E94CD03E7
:100A2000892BD1F1F60101900020E9F731978F0170
:100A30000C191D090E9431034B015C01D0E0C0E09C
:100A400011272701712C612CA89584E993E00E945D
:100A5000CD03892BB1F084E993E00E94E303F60112
:100A6000EC0FFD1F9081981306C02196C017D10787
:100A700021F481E012C0D0E0C0E00E9431034B01BC
:100A80005C010E943103681979098A099B09641580
:100A9000750586059705C0F280E0DF91CF911F9123
:100AA0000F91FF90EF90DF90CF90BF90AF909F900D
:100AB0008F907F906F905F904F900895FB01019011
:100AC0000020E9F73197AF01461B570BDC01ED9190
:100AD000FC910280F381E02D0994CF93DF930E9473
:100AE000B203EC0164E671E084E993E00E945E05E4
:100AF0008C0F9D1FDF91CF9108958F929F92AF929F
:100B0000BF92EF92FF920F931F93CF93DF93CDB7D6
:100B1000DEB7A1970FB6F894DEBF0FBECDBF7C0144
:100B2000FA01CB0119A2223008F42AE08E010F5DF0
:100B30001F4F822E912CB12CA12CBF01A501940135
:100B40000E949D21F901CA016A300CF5605DD8014F
:100B50006E938D01232B242B252B79F790E080E0D9
:100B6000109721F0BD01C7010E945E05A1960FB646
:100B7000F894DEBF0FBECDBFDF91CF911F910F91D3
:100B8000FF90EF90BF90AF909F908F900895695C19
:100B9000DECFCF93DF9383E20E943302409157026E
:100BA00050E070E060E02AE087EF92E00E947D056F
:100BB0008EE20E9433024091560250E070E060E005
:100BC0002AE087EF92E00E947D0583E20E943302D3
:100BD0004091550250E070E060E02AE087EF92E03B
:100BE0000E947D058EE20E9433024091540250E043
:100BF00070E060E02AE087EF92E00E947D0583E2EA
:100C00000E943302CCE1D0E080915D0290915E02BF
:100C1000A0915F02B09160020C2E04C0B695A7951A
:100C2000979587950A94D2F78F708A3080F4805D0B
:100C30000E9433022497CC3F8FEFD80729F764E650
:100C400071E087EF92E0DF91CF910C945E05895CB3
:100C5000EFCFCF93DF93D0E0C0E0009731F0BC013D
:100C600084E993E00E945E05EC0164E671E084E9AA
:100C700093E00E945E058C0F9D1FDF91CF91089538
:100C80000F931F93CF93DF9320914C04211107C042
:100C9000C0E08C2FDF91CF911F910F9108958B01B0
:100CA000EC0183EE91E00E94B20368ED72E084E90A
:100CB00093E00E945E0581EE91E00E946D0547E69B
:100CC00051E064EF71E088EE93E00E94E004882335
:100CD000F9F262E370E088EE93E00E94040420974A
:100CE000D1F0CE010E946D056AE184E993E00E9493
:100CF000560349E651E068E873E188E59BE10E940C
:100D0000E004C82F882321F262E370E088EE93E0CC
:100D10000E940404BECFC8010E942906E5CF20919D
:100D2000D802222329F0BC0190E080E00C94400618
:100D30000895CF93DF93CDB7DEB72B970FB6F89416
:100D4000DEBF0FBECDBF83E2898340915D0250912B
:100D50005E0260915F0270916002FE0132962CE1AA
:100D600030E0DB01CA01022E04C0B695A795979525
:100D700087950A94D2F78F708A30B0F4805D8193A2
:100D8000245031092C3F8FEF380759F71A86CE01CE
:100D900001960E948F062B960FB6F894DEBF0FBE09
:100DA000CDBFDF91CF910895895CE9CF8F929F925B
:100DB000AF92BF92EF92FF920F931F93CF93DF9367
:100DC000F82EE62EC82FD0E025E0829F8001112466
:100DD00002591D4FF80181809280A380B480811454
:100DE0009104A104B10491F40E943103F8016183DC
:100DF000728383839483DF91CF911F910F91FF9032
:100E0000EF90BF90AF909F908F9008950E94310314
:100E1000DC01CB0188199909AA09BB0961E08C3270
:100E2000F1E09F07A105B105F0F0803921E09207BC
:100E3000A105B10570F461E08E2DDF91CF911F9176
:100E40000F91FF90EF90BF90AF909F908F900C9478
:100E5000580260E08C3B9240A105B10530F48E2D24
:100E60000E94580260E085E0E8CF8E2D0E94580273
:100E700060E085E00E945802F801308180915D02B7
:100E800090915E02A0915F02B0916002323039F41D
:100E900020915B022170F6E0FF1203C021F0BF77C2
:100EA00003C02223E1F3B06880935D0290935E0259
:100EB000A0935F02B093600285E08C9FF0018D9F4C
:100EC000F00D1124E259FD4F10821182128213821B
:100ED0001482323009F08FCFDF91CF911F910F91A3
:100EE000FF90EF90BF90AF909F908F900C949906D9
:100EF000CF92DF92EF92FF920F931F93CF93C82F61
:100F00000E9431036B017C010C2F10E025E0C29F91
:100F1000F0011124E259FD4F81819281A381B481B6
:100F2000892B8A2B8B2B59F4C182D282E382F482E3
:100F30008091D0018330E0F48F5F8093D00185E011
:100F4000809FF001819FF00D1124E259FD4F8181B6
:100F50009281A381B481A7019601281B390B4A0B0A
:100F60005B0BDA01C901883C9105A105B10558F474
:100F700061E085E0CF911F910F91FF90EF90DF909E
:100F8000CF900C945802883532E09307A105B10543
:100F900028F483E1C11182E161E0ECCF8C3B42E0B7
:100FA0009407A105B10528F483E1C11182E160E055
:100FB000E1CF20915802322F387023FD12C0CC238C
:100FC000D1F0883E53E09507A105B10560F481E0BA
:100FD000CF911F910F91FF90EF90DF90CF900C94E5
:100FE000D504CC2341F08C3444E09407A105B1052D
:100FF00010F480E0EDCF287259F4C11189C080321D
:1010000043E09407A105B10580F461E088E0B2CF28
:10101000203249F4C111D4C0883E43E09407A105B1
:10102000B10518F4D4CFC1117AC0843145E09407DA
:10103000A105B105F0F248EB5BE060E070E07AC03A
:10104000332321F160E088E00E94580260E085E0EF
:101050000E945802809158028D7F8093580280919F
:101060007802853019F486E0809378021092D001DE
:1010700085E0809FF001819FF00D1124E259FD4F22
:101080001082118212821382148292C08091D00148
:101090008330D0F485E0809FF001819FF00D112412
:1010A000E259FD4F118212821382148282E0C11133
:1010B00001C081E095E0909FF001919FF00D112417
:1010C000E259FD4F808374C060E088E00E945802BE
:1010D00060E085E00E94580280915D0290915E027E
:1010E000A0915F02B0916002B06880935D0290931E
:1010F0005E02A0935F02B0936002C1110E94990644
:101100001092D001809158028D7F80935802B0CF09
:10111000803B54E09507A105B10508F476CF843AE9
:1011200056E09507A105B10508F463CF48E45DE0FA
:1011300060E070E084179507A607B70708F080CF36
:101140002832B1F560E088E00E94580260E085E056
:101150000E945802CC2389F082E080937D02C092E5
:101160007E02D0927F02E0928002F0928102809112
:101170007802811102C00E9499061092D0018091DC
:1011800058028D7F8093580285E0809FF001819FF7
:10119000F00D1124E259FD4F108211821282138248
:1011A000148280917802853019F486E08093780269
:1011B000CF911F910F91FF90EF90DF90CF90089506
:1011C000883755E09507A105B10508F400CFA7CFF2
:1011D0002091D802222321F070E060E00C944006B8
:1011E00008958F929F92AF92BF92DF92EF92FF92FB
:1011F0000F931F93CF93DF93D62E7A01082F10E021
:1012000025E0829FE0011124C259DD4F89819A8136
:10121000AB81BC81892B8A2B8B2B49F40E94310333
:1012200069837A838B839C8381E08093AA020E94E6
:10123000310325E0209FF001219FF00D1124E25998
:10124000FD4F81809280A380B480DC01CB0188199E
:101250009909AA09BB0961E0843F21E09207A10531
:10126000B10530F080329340A105B10578F460E01B
:101270008D2DDF91CF911F910F91FF90EF90DF9017
:10128000BF90AF909F908F900C94580280818230D5
:1012900019F4C7010E94E80860E08D2D0E945802F1
:1012A00085E0809FF001819FF00D1124E259FD4FF0
:1012B00010821182128213821482DF91CF911F91CA
:1012C0000F91FF90EF90DF90BF90AF909F908F9025
:1012D00008950F931F9300914604109147042091A5
:1012E00048043091490440E052E16AE770E080E050
:1012F000041715072607370740F476956795579525
:1013000047958F5F8630A1F787E0982F906A969572
:10131000809581709CBD8DBD60E0809145041F91DA
:101320000F910C945802CF93C82F0E94690983E053
:101330000E94CE048C2F0E94CE0480E00E94CE0436
:10134000C82F0E94A4028C2FCF910895FF920F9373
:101350001F93CF93DF93C82FF62E172F042F0E94D1
:10136000690982E00E94CE048C2F0E94CE04CF2D0A
:10137000D12F0C0F1D2F111DC017D10721F08991FE
:101380000E94CE04F9CFDF91CF911F910F91FF9072
:101390000C94A4021F93CF93DF93182FD62FC42F42
:1013A0000E94690985E00E94CE04812F0E94CE042C
:1013B0008D2F0E94CE048C2F0E94CE04DF91CF91FE
:1013C0001F910C94A402CF92DF92EF92FF92CF93E1
:1013D000C82F482F60EE8FE00E94CA090E94310397
:1013E0006B017C012AE0C20ED11CE11CF11C0E94A1
:1013F00031036C157D058E059F0580F48EE00E94FB
:101400009309807EC813F3CF81E091E0892790E0B3
:10141000CF91FF90EF90DF90CF90089580E0F5CFCF
:10142000CF93DF93D82FC62F0E94690982E00E94D4
:10143000CE048D2F0E94CE048C2F0E94CE04DF910B
:10144000CF910C94A402FF920F931F93CF93DF933D
:10145000C82FF62E172F042F0E94690983E00E94DF
:10146000CE048C2F0E94CE04CF2DD12F0C0F1D2F18
:10147000111DC017D10729F080E00E94CE04899386
:10148000F8CFDF91CF911F910F91FF900C94A402A0
:10149000BF92CF92DF92EF92FF920F931F93CF9361
:1014A000DF9300D000D01F92CDB7DEB78C01000FC4
:1014B000111F000F111FF801E15DFE4F45E0BE0155
:1014C0006F5F7F4F81810E94230A8A81C98098E0E3
:1014D000C99E60011124282F30E055E035952795ED
:1014E0005A95E1F7C20ED31E0D2C000CEE08FF0832
:1014F00083FF20C092E0CC0CDD1CEE1CFF1C9A95F3
:10150000D1F78370C80ED11CE11CF11CFE2CED2C10
:10151000DC2CCC248B81C80ED11CE11CF11CFE2CD0
:10152000ED2CDC2CCC248C81C80ED11CE11CF11CD0
:101530006894F7F88D818F70B82EE8E081E090E034
:10154000EB1528F1F801E15DFE4F80810E949309BF
:1015500083FF02C06894F6F8C092C802D092C90214
:10156000E092CA02F092CB02B092CC02015D1E4F13
:101570004B2D60ED72E0F80182810E94230A40E069
:10158000F80163818CE20E94CA0990E080E00F902C
:101590000F900F900F900F90DF91CF911F910F91AF
:1015A000FF90EF90DF90CF90BF9008954F925F92A1
:1015B0006F927F928F929F92AF92BF92CF92DF9263
:1015C000EF92FF920F931F93CF93DF93CDB7DEB7C8
:1015D00063970FB6F894DEBF0FBECDBFFC01248128
:1015E000293008F08DC05C0186E0E4E0F1E0DE0126
:1015F0001E9601900D928A95E1F73E01FEE06F0E76
:10160000711C8E010C5E1F4FF301C190D1903F0100
:101610007601EE0CFF1CF701EC0DFD1DE95CFE4FA1
:101620008080882D0E94930983FD96C0F5019480E7
:10163000F8E0F91508F464C0F501008111812281F8
:101640003381B901A801442777FD439555276627C3
:101650007727D901C80188279927AA27B07444247D
:101660004A94542C642C7FE1772E411106C0442407
:101670004A9467E0562E612C712C042115212621F5
:101680003721442309F43FC00C831B83890122279F
:101690003327402F440F440F440F407E502F537088
:1016A0005860452B4A8355E0169507955A95E1F702
:1016B0000983892B8A2B8B2BA1F1892D80648D8343
:1016C000492D50E0B501685F7F4FCE0106960E941C
:1016D000E42145E0490DF701EC0DFD1DE95CFE4FED
:1016E000BE016F5F7F4F81810E94A60948E068E0DC
:1016F000882D0E94CA09882D0E949309807799F04D
:1017000084E090E012C0A80123E0569547952A9501
:10171000E1F749830295000F007E0A831C821B8239
:10172000C8CF892DCCCF90E080E063960FB6F894B7
:10173000DEBF0FBECDBFDF91CF911F910F91FF9004
:10174000EF90DF90CF90BF90AF909F908F907F9061
:101750006F905F904F9008956016710609F054CF16
:1017600082E090E0E2CF0F931F93CF93DF93CDB74A
:10177000DEB767970FB6F894DEBF0FBECDBF8E0100
:10178000085F1F4F087F8BEE92E0A0E0B0E0F80109
:1017900080839183A283B38388E08483108611863B
:1017A0001286138614861686178680E88587C801F8
:1017B0000E94D60AC8010E94D60AC8010E94D60A11
:1017C00067960FB6F894DEBF0FBECDBFDF91CF9105
:1017D0001F910F910895E8ECF2E046EB52E060E0D3
:1017E00070E0408351836283738392E094838087A7
:1017F0001186CF010C94D60A46EC51E060E070E00F
:101800004093C8025093C9026093CA027093CB02FE
:1018100094E09093CC02813089F080E01092D10264
:101820001092D0028093D3028093D20288EC92E08F
:101830000E94D60A88EC92E00C94D60A82E5EECF9C
:10184000E8ECF2E04AE352E060E070E0408351836C
:101850006283738394E0948391E1908793EF9187FF
:1018600082878FE38387CF010E94D60A88EC92E0BB
:101870000E94D60A88EC92E00C94D60A8F929F922E
:10188000AF92BF92CF92DF92EF92FF921F93CF93CE
:10189000DF93CDB7DEB7A0970FB6F894DEBF0FBECB
:1018A000CDBF4B015C010E9431036B017C011982A9
:1018B00010E00E9431036C197D098E099F0968159B
:1018C00079058A059B0508F045C0A89584E993E051
:1018D0000E94CD03892B69F3A89584E993E00E94C7
:1018E000E303E12F1F3150F090E1FE017196DE011C
:1018F000119601900D929A95E1F7EFE011E01E0F1D
:1019000021E030E02C0F3D1F2E0F311DF9018083A7
:10191000E1E0F0E0EC0FFD1FE10FF11D108269E640
:1019200071E0CE0101960E941A22892B79F281E0A2
:10193000A0960FB6F894DEBF0FBECDBFDF91CF915A
:101940001F91FF90EF90DF90CF90BF90AF909F904E
:101950008F90089580E0ECCFBF92CF92DF92EF920C
:10196000FF920F931F93CF93DF93CDB7DEB7A2976C
:101970000FB6F894DEBF0FBECDBF0E94690980ECA0
:101980000E94CE040E94A4026AE070E080E090E031
:101990000E94FF028E010F5F1F4F8EE0F80111922F
:1019A0008A95E9F74EE0B80180E30E94A6094EE06F
:1019B000B80180E40E94A6094EE0B80180E50E94CB
:1019C000A60960E080E60E94100A60E080E70E94BD
:1019D000100A63EA8BE20E94100A44E067E680E6A0
:1019E0000E94CA0941E067E680E70E94CA098CE0CC
:1019F000EAE0F1E0DE011F9601900D928A95E1F791
:101A00006E01FFE0CF0ED11CF12CE12C98E0B92E35
:101A1000F601019111916F0180E80E94E309892B81
:101A200061F40230110509F47FC058F50115110564
:101A300009F480C00130110579F180E80E94E309C2
:101A4000892B61F460E08AE20E94100A60EF89E26B
:101A50000E94100A66E888E20E94100A80E00E9454
:101A6000E309A2960FB6F894DEBF0FBECDBFDF919B
:101A7000CF911F910F91FF90EF90DF90CF90BF908B
:101A800008950430110509F453C008F44FC005301F
:101A9000110599F688E101C084E0F1E0EF16F10448
:101AA00009F04AC01E8E1D8EBC8E1B8E44E0BE0106
:101AB000655E7F4F0E94A6098FEFE81AF80A96E04C
:101AC000E916F10409F0A4CF18A21F8E81E090E07E
:101AD0009AA389A38E01015E1F4F6E01E3E2CE0E31
:101AE000D11C88E0B82EF801E190F1908F0180E8D8
:101AF0000E94E309892B09F0A0CF1E8E1D8EBC8E9B
:101B00001B8EE114F104E9F0EA94EF2809F095CF77
:101B100084E244E0BE01655E7F4F0E94A6090C1579
:101B20001D0509F48ACFDFCF88E0B7CF80E1B5CFBC
:101B300084E1B3CF80E0B1CF1B8E1C8E1E8E1D8E34
:101B4000B5CF80E2E6CFFF920F931F93CF93DF9341
:101B5000EC01F62E08811981C8010E945321F81664
:101B600021F06F2DC8010E945B21CE01DF91CF9142
:101B70001F910F91FF900895FF920F931F93CF93A2
:101B8000DF9381E08093AA0208ED12E0D0E0C0E08C
:101B9000F801F1908F01CE010E945321F81621F037
:101BA0006F2DCE010E945B212196CF31D10581F7A7
:101BB000DF91CF911F910F91FF9008951F920F9287
:101BC0000FB60F9211242F933F934F935F936F9310
:101BD0007F938F939F93AF93BF93EF93FF9387EF81
:101BE00092E00E94C401FF91EF91BF91AF919F914C
:101BF0008F917F916F915F914F913F912F910F90B6
:101C00000FBE0F901F9018951F920F920FB60F9254
:101C100011242F938F939F93EF93FF93E0910703EA
:101C2000F09108038081E0910D03F0910E0382FD95
:101C30001BC09081809110038F5F8F7320911103DF
:101C4000821741F0E0911003F0E0E950FD4F958FCD
:101C500080931003FF91EF919F918F912F910F909F
:101C60000FBE0F901F9018958081F4CF1F920F9296
:101C70000FB60F9211242F933F938F939F93AF939F
:101C8000BF938091120290911302A0911402B0911F
:101C900015023091110223E0230F2D3758F50196DC
:101CA000A11DB11D20931102809312029093130283
:101CB000A0931402B093150280911602909117021E
:101CC000A0911802B09119020196A11DB11D809337
:101CD000160290931702A0931802B0931902BF91B5
:101CE000AF919F918F913F912F910F900FBE0F90C9
:101CF0001F90189526E8230F0296A11DB11DD2CF83
:101D00001F920F920FB60F9211242F933F934F9370
:101D10005F936F937F938F939F93AF93BF93EF9353
:101D2000FF93E0911C02F0911D02309749F0A685C7
:101D3000B7858585968D91FF14C09C918923A1F468
:101D4000FF91EF91BF91AF919F918F917F916F9193
:101D50005F914F913F912F910F900FBE0F901F9069
:101D600018959C91892361F7A389B4899C918589F1
:101D7000809589238C93868997890197F1F7608DE7
:101D8000718DA685B785558538E020E0CB01019798
:101D9000F1F7822F90E095958795282F4C91452358
:101DA00009F02068315091F7868D81FD2095809152
:101DB0001B0290E001968F73992730911A02381711
:101DC00099F0A0911B02B0E0AF52BE4F2C938093CC
:101DD0001B02828D938D0197F1F7A389B4898C91B1
:101DE0009589892B8C93ACCF868D8160868FF1CFBE
:101DF000CF931092FA021092F90288EE93E0A0E0DD
:101E0000B0E08093FB029093FC02A093FD02B0939C
:101E1000FE0224E431E03093F8022093F70225EC2F
:101E200030E0309304032093030324EC30E030933C
:101E300006032093050320EC30E030930803209341
:101E4000070321EC30E030930A032093090322ECCE
:101E500030E030930C0320930B0326EC30E03093FA
:101E60000E0320930D031092100310921103109291
:101E7000120310921303109297031092960380930B
:101E8000980390939903A0939A03B0939B0386E5DC
:101E900091E090939503809394031092AB0310927A
:101EA000AA031092AD031092AC031092AF031092EC
:101EB000AE031092B1031092B0036091B2036E7F33
:101EC0006D7F6093B2036695617081E0682783E05F
:101ED0000E94580261E083E00E94A902EEE0F2E075
:101EE000E491E093A403E2E2F2E0E491F0E0EE0F8B
:101EF000FF1FE950FE4F859194919093A603809324
:101F0000A50360E082E00E94A9028091B20381FDF6
:101F100004C061E082E00E94580282E08093A00346
:101F2000EDE0F2E0E491E093A103E1E2F2E0E4917C
:101F3000F0E0EE0FFF1FE351FE4F859194919093D7
:101F4000A3038093A20310924C0484EB93E090933C
:101F50004B0480934A04CFB7F8948091B303811166
:101F600027C0E9E2F2E08491E5E1F2E09491E82F04
:101F7000F0E0EE0FFF1FEF5FFD4FA591B491EC91E4
:101F8000E92321F461E08AE00E94580261E08AE0DE
:101F90000E94A9028CB580618CBD8CB580648CBD1B
:101FA00061E08DE00E94A90261E08BE00E94A9023D
:101FB0008091B3038F5F8093B303CFBF8AE0809398
:101FC000450480E896E9A8E9B0E080934604909340
:101FD0004704A0934804B093490461E08AE00E945A
:101FE000A90261E0809145040E945802E5EBF3E00C
:101FF00085E494E010861186128613863C968E172F
:102000009F07C1F7CF910895CF93DF93CDB7DEB788
:10201000AC970FB6F894DEBF0FBECDBF789484B5F1
:10202000826084BD84B5816084BD85B5826085BDD4
:1020300085B5816085BD80916E00816080936E0062
:102040001092810080918100826080938100809154
:102050008100816080938100809180008160809305
:1020600080008091B10084608093B1008091B000C5
:1020700081608093B00080917A00846080937A00C0
:1020800080917A00826080937A0080917A008160EA
:1020900080937A0080917A00806880937A00109211
:1020A000C100E0910703F091080382E08083E09192
:1020B0000303F09104031082E0910503F0910603FD
:1020C00080E1808310920F03E0910B03F0910C03E9
:1020D00086E08083E0910903F0910A0380818061AA
:1020E0008083E0910903F0910A03808188608083F6
:1020F000E0910903F0910A03808180688083E09178
:102100000903F0910A0380818F7D80838BE0E6E1F3
:10211000F1E0DE01119601900D928A95E1F78E01B2
:102120000F5F1F4F9E01245F3F4F3EA32DA3D80199
:10213000FD908D0161E08F2D0E94A90260E08F2D3E
:102140000E9458028DA09EA00815190581F70E94D3
:10215000AC0C18EDE12E12E0F12E10E000E0C80109
:102160000E945321D7018D937D010F5F1F4F0F31C7
:102170001105A9F783E290E00E9453218093310278
:1021800087E390E00E94532180932F02F12CE12CF1
:1021900004E813E0412C512C3201812C912C540184
:1021A000C8010E94532190E0B0E0A0E00E2C04C0D2
:1021B000880F991FAA1FBB1F0A94D2F7882A992A51
:1021C000AA2ABB2AC80104960E94532190E0B0E0DD
:1021D000A0E00E2C04C0880F991FAA1FBB1F0A94F1
:1021E000D2F7482A592A6A2A7B2A0F5F1F4FB8E084
:1021F000EB0EF11C0838E3E01E0791F680926502B1
:1022000090926602A0926702B092680240926102C8
:1022100050926202609263027092640281E0809345
:10222000AA0288E199E20FB6F894A895809360001D
:102230000FBE909360009E01215F3F4F38A72FA3F0
:102240008091C2028111FFC00E94310369397A4333
:102250008105910508F4F7C010924C041092AF0369
:102260001092AE031092AD031092AC031092AB0328
:102270001092AA0382E490E09093B1038093B0039C
:102280009091A003963108F047C02FE030E03093E2
:10229000AB032093AA0320E430E03093AD032093F6
:1022A000AC0327E230E03093AF032093AE032091DC
:1022B000680084E0983048F031E09E3008F430E067
:1022C00081E001C0880F3A95EAF7822B809368007D
:1022D0002DE630E0983050F02BE630E09E3030F0C4
:1022E0002CE630E0963110F030E020E03093A80387
:1022F0002093A703292F30E0983008F094C081E0A4
:1023000001C0880F9A95EAF78093A9038091B003E2
:102310009091B1030197F1F78091AE039091AF03D3
:10232000892B49F1E0911C02F0911D0243E0E43950
:10233000F40709F1309739F0A389B4899C91858914
:10234000809589238C938091B2038E7F8093B20312
:1023500010921B0210921A0284E993E090931D02DE
:1023600080931C02E091A703F091A80380819091D3
:10237000A903892B808364EF71E080E090E00E94E4
:10238000FF0284E993E00E94CD03892B31F064E1E0
:1023900070E088EC90E00E94040404E010E0DD248A
:1023A000D3940150110909F44BC080914C04811160
:1023B00047C0A8958FE890E00E946D0568EE73E035
:1023C00080E090E00E943E0C882359F38EE0E1E229
:1023D000F1E0DE01119601900D928A95E1F7CE01B0
:1023E00001967C01A895D7018D919D917D010E9458
:1023F000290660ED77E080E090E00E943E0C8823A3
:1024000081F28FA098A48E149F0461F7D0924C049F
:102410008CE790E00E946D0568E873E180E090E051
:102420000E943E0CBECF9E3040F42850310981E01E
:1024300001C0880F2A95EAF767CF2E503109F7CFF0
:1024400081E08093C2020E94690980EA0E94CE0462
:1024500080E00E94CE04182F0E94A40290E080E049
:1024600010FD04C011FFB8C381E090E00E94480A4B
:10247000892B09F0B1C30E94310360931E0270934F
:102480001F028093200290932102209158022E7FF8
:10249000209358028091C8029091C902A091CA026B
:1024A000B091CB02803333E09307A105B10509F465
:1024B00092C208F063C08A3C52E09507A105B105BD
:1024C00009F4FBC108F03DC08337F1E09F07A10587
:1024D000B10509F413C38A3332E09307A105B105AE
:1024E00009F486C2823A9105A105B10509F07EC0C2
:1024F0009091D002983009F473C108F064C1923011
:1025000009F46AC18091D102883009F47EC108F0D3
:102510006FC1823009F475C1911168C0811166C024
:102520001092E5031092F1031092FD03109209043A
:10253000109215041092210410922D041092390467
:1025400055C08C3F42E09407A105B10509F4F5C1DF
:102550008E3253E09507A105B10509F4C5C1803F4E
:102560009240A105B10509F041C08091D0028C7064
:102570008830E1F582E08093730238C0873BF3E056
:102580009F07A105B10509F401C3D0F4833A33E0F4
:102590009307A105B10509F472C1863B43E0940796
:1025A000A105B10509F4DCC281359340A105B1054F
:1025B000E9F46091D3026093310283E290E011C2AA
:1025C000893BE3E09E07A105B10509F4EAC208F4DE
:1025D000D2C2893F23E09207A105B10509F493C255
:1025E00082319440A105B10509F417C18091E80337
:1025F000813021F41092E80380939B028091F403D0
:10260000813021F41092F4038093A00280910004A1
:10261000813009F0D1C21092000481E08093A502BC
:1026200080910C04813021F410920C048093B90243
:1026300080911804813021F4109218048093910243
:1026400080912404813099F510922404B0EA8B2EF5
:10265000B2E09B2EA12CB12C8092C8029092C902AC
:10266000A092CA02B092CB0288E08093CC0288E8A4
:102670008093D0028093D10280EF8093D2028DE4C8
:102680008093D3028FEF8093D4028093D5028093FE
:10269000D6028093D70288EC92E00E94D60A88EC9A
:1026A00092E00E94D60A88EC92E00E94D60A8091BD
:1026B000B803833029F41092B80381E08093960226
:1026C0002091C403213039F51092C403309158028F
:1026D00037FB882780F990915902492F4170842B4C
:1026E00091FB442740F9842B92FB442740F9842B2B
:1026F00091F032FD10C093FD0EC088EC90E0A0E098
:10270000B0E08093000190930101A0930201B09387
:1027100003012093AF028091DC038130D1F4109249
:10272000DC0380916E02811114C0809182028111BC
:1027300010C090917D02911147C28091580283FD93
:1027400044C291E081E090936E0291E089278093EA
:10275000820280913A04882309F439C280913B04B3
:10276000811135C20E94310300914104109142044D
:102770002091430430914404601B710B820B930B36
:10278000693B7B408105910508F421C291E090935B
:102790003B048091580284608093580210923C045C
:1027A00010923A048091F60289278093F6020E94E3
:1027B000BC0D8091F602882309F447C38DE990E0AF
:1027C0000E94E80809C2903279F0903809F09ACE58
:1027D00081E08093090496CE81E08093E50392CE58
:1027E00081E08093F1038ECE81E08093FD038ACE59
:1027F000803279F0803809F08FCE81E080933904FF
:10280000F5CE81E080931504F1CE81E08093210420
:10281000EDCE81E080932D04E9CEC090D002D0901F
:10282000D102E090D202F090D30240E8F41A609115
:10283000D4027091D5028091D6029091D70290581F
:1028400024E230E040E050E00E94BF212093650286
:10285000309366024093670250936802C701B60145
:1028600024E230E040E050E00E94BF21209361026A
:10287000309362024093630250936402B7CE80911A
:10288000D002803D49F48091D1028F3F09F0AECE55
:1028900084E00E94200CAACE883C09F0A7CE80914B
:1028A000D1028F3F09F0A2CE81E00E94200C8091DE
:1028B000580280648093580299CE8091D00255E0EE
:1028C000859FC0011124805991406AE070E00E9408
:1028D0008921609357029C0197FF03C03195219590
:1028E00031092093560282CE2091D30291E02F3EEF
:1028F00009F090E080915B0290FB87F980935B0286
:102900002C3319F0806480935B028AE0289F900149
:102910001124C9016CE370E00E9489216093550283
:10292000C90166E070E00E948921CB016AE070E095
:102930000E9489218093540259CE80915B0290912C
:10294000D00290FB80F980935B028091D102982F96
:10295000937051E0913009F050E090915A0250FB91
:1029600090F990935A0241E0982F9C70943009F0AE
:1029700040E090915A0240FB92F990935A0231E064
:10298000982F9073903109F030E090915A0230FB0B
:1029900094F990935A02807C21E0803409F020E081
:1029A00080915A0220FB86F980935A0290915C0232
:1029B00090FD1CCE8091590250FB84F940FB85F9B3
:1029C00030FB86F920FB87F980935902892F8160BB
:1029D00080935C020BCE6091D30260932F0287E359
:1029E00090E09A838983CE0101960E94A30DFECDCB
:1029F0008091D202843061F48091D3028F3309F048
:102A0000F5CD81E08093C1032F7B20935802EECD5A
:102A1000813041F58091D3028F3309F0E7CD81E019
:102A20008093B5038091580280648093580210927D
:102A30007D0280915902877F8093590280915D02C7
:102A400090915E02A0915F02B0916002B7FFCECD7F
:102A5000BF7780935D0290935E02A0935F02B09374
:102A60006002C4CD803171F48091D3028F3309F0BC
:102A7000BDCD8091D502833F09F4B8CD81E080932C
:102A8000CD03B4CD81112AC08091D3028F3309F0D8
:102A9000ADCD8091D4028F3F09F0A8CD8091D502B1
:102AA000813F61F48091580281FD05C091E09093CF
:102AB000D9038260FFCE1092D90398CD803F09F0F0
:102AC00095CD1092C1031092B5031092CD03809161
:102AD00059028F788F778093590288CD803409F01E
:102AE00085CD8091D3028F3309F080CD1092D90328
:102AF000809158028D7F80935802E9CF8091D70250
:102B000080FB25F982CF8091D302837091E08230DF
:102B100009F090E08091580290FB83F9809358026D
:102B200083FD19C080917D028823A9F00E943103A2
:102B300000917E0210917F022091800230918102EB
:102B4000601B710B820B930B693E734081059105ED
:102B500010F010927D028091D40280932D0246CD18
:102B600091E08091D1028C3F09F490E0809158026D
:102B700090FB87F99FCE91E08091D1028C3F09F4C0
:102B800090E08091590290FB80F9A5CF91E080916F
:102B9000D002811101C090E08091590290FB81F92F
:102BA0009ACF91E08091D002811101C090E0809194
:102BB000590290FB82F98FCF8091D003813009F0C8
:102BC0002FCD1092D00329CD90E080E0BCCD809134
:102BD00058028B7F809358020E94310300911E029D
:102BE00010911F022091200230912102601B710B75
:102BF000820B930B613E73498440910508F456C0E3
:102C00008091580280FD52C00E94AC0C0E9431039A
:102C100060931E0270931F02809320029093210202
:102C20008091580281608093580210922D0240904A
:102C30006502509066026090670270906802809012
:102C4000610290906202A0906302B090640204E876
:102C500013E0F12CE12C1A830983C301B2010E2C7D
:102C600004C095958795779567950A94D2F7CE011C
:102C700001960E94A30DC80104969A838983C50119
:102C8000B4010E2C04C095958795779567950A94A5
:102C9000D2F7CE0101960E94A30DE8E0EE0EF11CE2
:102CA0000F5F1F4F0838F3E01F07A9F680916E02EF
:102CB000811179C080917302811175C08091580291
:102CC00086FD71C090915A02792F717092FB662730
:102CD00060F994FB552750F996FB442740F9809101
:102CE000590284FB332730F9232F272770FB84F9FF
:102CF00085FB332730F93627322B60FB85F986FBBD
:102D0000222720F92527322B50FB86F987FB222723
:102D100020F92427232B40FB87F980935902222393
:102D200009F441C040915D0250915E0260915F02E2
:102D300070916002957509F48DC0706840935D02D2
:102D400050935E0260935F027093600264EB70E0E8
:102D5000CE0101960E942A2140915D0250915E02AF
:102D600060915F0270916002FE013C962CE130E0C0
:102D7000DB01CA01022E04C0B695A79597958795E9
:102D80000A94D2F78F708A3008F062C0805D819318
:102D9000245031092C3F8FEF380751F71C8ACE01A0
:102DA00001960E948F060E943103E5EBF3E025E4D3
:102DB00034E041E0C480D580E680F7804B015C01BF
:102DC0008C189D08AE08BF087501640159EBC51643
:102DD0005BE0D506E104F10408F01382A181508183
:102DE000A1116CC0552329F0608771878287938772
:102DF00041833C962E173F07E9F600917D02109122
:102E00005802002311F40C94A21F0E943103C090B9
:102E10007E02D0907F02E0908002F09081026C19D7
:102E20007D098E099F0910915802613A7B4B8D40B4
:102E3000910510F40C947E1F84E0023011F40C9480
:102E40009E1F809182020C949E1F82E990E0B8CC74
:102E5000895C9DCF7F7740935D0250935E026093C3
:102E60005F027093600267EA70E0CE0101960E94F3
:102E70002A2140915D0250915E0260915F02709143
:102E80006002FE013D962CE130E0DB01CA01022E1A
:102E900004C0B695A795979587950A94D2F78F7039
:102EA0008A3050F4805D8193245031092C3F9FEF8C
:102EB000390759F71D8A73CF895CF5CF511199CF26
:102EC00012821182C084D184E284F3844B015C01BC
:102ED0008C189D08AE08BF087501640158EEC51630
:102EE00053E0D506E104F10408F083CF53815F5F1E
:102EF000538364837583868397837BCF62E071E01D
:102F000082E292E00E942121892B29F4F8940C940A
:102F1000003F0C94CE206EEF70E082E292E00E94BF
:102F20002121892B21F4109396020C94CE2069EF75
:102F300070E082E292E00E942121892B21F410931B
:102F40008C020C94CE2062EF70E082E292E00E944C
:102F50002121892B21F4109387020C94CE206DEE51
:102F600070E082E292E00E942121892B21F41093EB
:102F70009B020C94CE2068EE70E082E292E00E9408
:102F80002121892B21F41093A0020C94CE2063EE12
:102F900070E082E292E00E942121892B21F41093BB
:102FA000A5020C94CE206EED70E082E292E00E94C9
:102FB0002121892B41F48091580283FF04C0109392
:102FC00082020C94CE2068ED70E082E292E00E94D2
:102FD0002121892B21F48091580283FF0CC064EDDC
:102FE00070E082E292E00E942121892B41F410934B
:102FF000B9020C94CE2010936E020C94CE206EEC8D
:1030000070E082E292E00E942121892B21F40E944B
:10301000B30B0C94CE2069EC70E082E292E00E9447
:103020002121892B91F488E5882E82E0982EA12C0D
:10303000B12C8092000190920101A0920201B09205
:103040000301F092AF020C94CE2060EC70E082E2BB
:1030500092E00E942121892B11F00C94CE20109334
:103060006E02009378020C94CE209F5F90932C0206
:1030700080830C94A5200E9431030091BE02109120
:10308000BF022091C0023091C102601B710B820B04
:10309000930B613D77408105910508F438C10E948A
:1030A00031036093BE027093BF028093C00290937D
:1030B000C10284E993E00E94CD03892B09F427C162
:1030C000A89584E993E00E94E303082F109153022E
:1030D0001F3168F0812F8051990BAC0163E472E0DD
:1030E00083E392E00E94ED21105110935302E0918E
:1030F0005302BB24B394BE0EB0925302F0E0ED5CD9
:10310000FD4F0083CB2CD12CF601ED5CFD4F1082DE
:103110006CE671E083E392E00E941A227C01009742
:1031200041F26AE070E00E94FF218C01892B09F4D2
:10313000C0CF6CE270E0C7010E94FF21009719F038
:103140008017910718F010925302B3CF01960E9496
:1031500003217C01025312400B1508F4BDC01092EC
:103160005302E0915302F0E0ED5CFD4F10821E141B
:103170001F040CF09ECF80914C04882309F499CF52
:1031800088E191E00E94B203CE2CD12CF12CE12CED
:103190002AE0B701A60184E993E00E947D0564E678
:1031A00071E084E993E00E945E0543E751E062E349
:1031B00070E080E197E20E94E004882309F479CF6F
:1031C00022E242E270E060E090E080E00E945E0473
:1031D000882309F46ECF22E242E26FE070E08DE8CE
:1031E00094E00E945E04882309F463CF22E242E265
:1031F00070E060E090E080E00E945E04882309F4C3
:1032000058CF22E242E270E060E090E080E00E946D
:103210005E04882309F44DCF2DE04AE060E470E0BD
:103220008DE494E00E945E04882309F442CF62E3B7
:1032300070E088EE93E00E94040480914C0488239F
:1032400009F465C08FE091E00E94B2032AE0B70163
:10325000A60184E993E00E947D0564E671E084E9BB
:1032600093E00E945E0549E651E062E370E088EA7F
:1032700091E60E94E004882309F449C062E370E00B
:1032800088EE93E00E9404048091F602882381F086
:1032900068ED72E08DE894E00E940A22892B59F1D2
:1032A00067EE72E08DE894E00E940A22892B19F102
:1032B00060EA71E08DE494E00E943121892B09F0ED
:1032C00032C48091D802882311F16DE474E090E05B
:1032D00080E00E9440061BC0B8017727A601461B6C
:1032E000570B6D5C7D4F83E392E00E94ED21B01A95
:1032F000B092530236CF65E971E08DE494E00E940C
:103300002121892B09F070C382E080939B02809178
:103310006E02882319F080E00E9478078091730282
:10332000882319F081E00E94780780917802863026
:10333000C1F58091790290917A02A0917B02B091BF
:103340007C02892B8A2B8B2B51F40E9431036093D2
:10335000790270937A0280937B0290937C020E94A0
:1033600031030091790210917A0220917B02309111
:103370007C02DC01CB01801B910BA20BB30B61E043
:103380008C32E1E09E07A105B10540F060E080329B
:10339000F3E09F07A105B10508F0EEC389E00E94A4
:1033A0005802109182021123A9F180918302909119
:1033B0008402A0918502B0918602892B8A2B8B2BE7
:1033C00051F40E94310360938302709384028093CE
:1033D0008502909386020E943103C0908302D090B0
:1033E0008402E0908502F0908602DC01CB018C190A
:1033F0009D09AE09BF0920915802322F387023FF72
:103400007FC484369105A105B10508F079C481E037
:103410000E94D50480918C02882321F063E186E02C
:103420000E94D60680918702882321F062E185E020
:103430000E94D60680919102882309F441C08091B0
:10344000920290919302A0919402B0919502892BDF
:103450008A2B8B2B69F40E94310360939202709344
:103460009302809394029093950281E08093AA0244
:103470000E943103009192021091930220919402D4
:1034800030919502601B710B820B930B60367A4E64
:103490008105910558F48091580283FD11C08091F7
:1034A0005A02857569F481E0809387021092910237
:1034B000109292021092930210929402109295022E
:1034C000109196021123C9F1123019F480E00E9484
:1034D000FC0B8091970290919802A0919902B09173
:1034E0009A02892B8A2B8B2B51F40E943103609313
:1034F0009702709398028093990290939A020E9487
:103500003103C0909702D0909802E0909902F09019
:103510009A02DC01CB018C199D09AE09BF0912305A
:1035200009F087C404E813E020E030E0843FE1E0E4
:103530009E07A105B10508F080C480919B028823F5
:1035400031F04FEC51E061E189E00E94F108809197
:10355000A002882331F045ED51E06EE08AE00E9440
:10356000F1088091A502882331F04BED51E060E134
:103570008BE00E94F1088091AA028823C9F1809112
:10358000AB029091AC02A091AD02B091AE02892B3A
:103590008A2B8B2B69F40E9431036093AB027093EA
:1035A000AC028093AD029093AE0281E00E94FC0BCE
:1035B0000E9431030091AB021091AC022091AD0248
:1035C0003091AE02601B710B820B930B6536710557
:1035D0008105910568F080E00E94FC0B1092AA0220
:1035E0001092AB021092AC021092AD021092AE0299
:1035F0008091B902882309F433C16091650270910A
:103600006602809167029091680220EA36E841E004
:1036100050E00E94BF2169012B013C01890180908B
:10362000610290906202A0906302B0906402C501B2
:10363000B40120EA36E841E050E00E94BF2129A70A
:103640003AA74BA75CA729A43AA4C201D301B7FFAC
:1036500007C0B095A095909581959F4FAF4FBF4FF4
:103660003C01C501B40120EA36E841E050E00E9487
:10367000BF2197FF07C090958095709561957F4F0A
:103680008F4F9F4F5B0187E4898380E58A8383E5C1
:103690008B83FE01349617FF08C08DE28C830027D0
:1036A00011270C191D09FE013596043611054CF041
:1036B000C80164E670E00E948921605D60838C012E
:1036C00031960A3011054CF0C8016AE070E00E94A2
:1036D0008921605D6083082F3196005D00838EE252
:1036E0008183C30160E177E20E947521605D62839E
:1036F000C30168EE73E00E947521CB012AE030E03F
:10370000B9010E947521805D8383C30164E670E086
:103710000E947521CB01B9010E947521805D8483CF
:10372000C301B9010E947521482FCB01B9010E9444
:103730007521805D8583405D46838CE287839F0190
:1037400037FC94C3285F3F4FF4E62F1631045CF03A
:10375000C10164E670E00E948921605DD9016C932B
:103760001C012F5F3F4FBAE02B1631045CF0C10102
:103770006AE070E00E948921605DF9016083282E73
:103780002F5F3F4F80E3820DD9018C938EE211961B
:103790008C93C50160E177E20E947521605DF901BB
:1037A0006283C50168EE73E00E947521CB01EAE0F7
:1037B000F0E0BF010E947521805DD90113968C93C2
:1037C000C50164E670E00E947521CB01BF010E9433
:1037D0007521805DD90114968C93C501BF010E94AB
:1037E0007521482FCB01BF010E947521805DF90131
:1037F0008583405D468380E2878383E28087C09033
:103800005D02D0905E02E0905F02F0906002399617
:103810008CE190E0B701A601082E04C0769567956B
:10382000579547950A94D2F74F704A3008F028C34D
:10383000405D419304978C3F4FEF940759F7D901AE
:1038400051961C921092B9021092BA021092BB02C9
:103850001092BC021092BD02CE0101960E948F060A
:103860001091AF02112309F43FC08091B0029091F2
:10387000B102A091B202B091B302892B8A2B8B2B9B
:1038800081F40E9431036093B0027093B10280937F
:10389000B2029093B302123009F083C481E08093A6
:1038A000AA020E943103C090B002D090B102E09011
:1038B000B202F090B302DC01CB018C199D09AE0974
:1038C000BF0940916902123009F07DC4843FE1E0F4
:1038D0009E07A105B10508F0D5C2442329F080E078
:1038E0000E94EB0B109269028091B402882309F4C4
:1038F0006AC00E9431036B017C018091B5029091F6
:10390000B602A091B702B091B802892B8A2B8B2BFB
:1039100081F4C092B502D092B602E092B702F09262
:10392000B80210926A0210926B0210926C0210920E
:103930006D028091B5029091B602A091B702B0914C
:10394000B80246015701881A990AAA0ABB0A80914F
:103950006A0290916B02A0916C02B0916D02009787
:10396000A105B10569F0A7019601281B390B4A0B87
:103970005B0BDA01C901843F9140A105B10550F00C
:103980000E94B30BC0926A02D0926B02E0926C026A
:10399000F0926D0240E1841647E29406A104B1045E
:1039A00090F01092B4021092B5021092B6021092EA
:1039B000B7021092B80210926A0210926B02109233
:1039C0006C0210926D02A89580E090E0892B11F4B2
:1039D0000C9420110E94B001882311F40C941B1147
:1039E0000E9400000C941B1161E971E08DE494E0E9
:1039F0000E942121892B21F482E08093A50287CCAB
:103A00006CE871E08DE494E00E942121892B21F47F
:103A100082E080938C027BCC65E871E08DE494E0D9
:103A20000E942121892B21F482E0809387026FCCB0
:103A300060E871E08DE494E00E942121892B21F45B
:103A400082E08093AF0263CC6AE771E08DE494E09A
:103A50000E942121892B21F481E08093B40257CC6C
:103A600066E771E08DE494E00E942121892B21F426
:103A700082E0809396024BCC60E771E08DE494E0A5
:103A80000E942121892B21F48091580283FF14C0C8
:103A90006BE671E08DE494E00E942121892B81F096
:103AA00067E671E08DE494E00E942121892B81F486
:103AB00081E08093B9022BCC82E08093730227CC03
:103AC0008091580283FFECCF82E0809382021FCC6A
:103AD00060E671E08DE494E00E942121892B19F4C5
:103AE0000E94990614CC6AE571E08DE494E00E948E
:103AF0002121892B21F4F8940C94003F08CC61E536
:103B000071E08DE494E00E942121892B09F0FFCB24
:103B10008091580283FDFBCB82E08093730285E0A5
:103B200080937802F4CB6DE471E08DE494E00E9420
:103B30003121892B69F06DE874E088ED92E00E94F4
:103B400013220E94BC0D89E391E00E94E808DFCBBC
:103B500065E371E08DE494E00E943121892B09F442
:103B6000D6CB6DE874E087EE92E00E9413220E94AB
:103B7000BC0D81E291E0E9CF88389341A105B10500
:103B800008F0ADC089E00E94580280915C0281FD7E
:103B900008CC20915B0226FF04CC80917D0282300C
:103BA00009F0FFCB809157023091560240915502A7
:103BB000509154029CE79983FE013296843640F07E
:103BC00064E60E946921805D8A83892FFE01339615
:103BD0008A3038F06AE00E946921805D8083892FF5
:103BE0003196805D80838EE28183832F6AE00E941C
:103BF0006921905D92838CE7838327FF45C08FE620
:103C000084838CE6858384E7868382E7878385E6E1
:103C1000808780E2818784E38287DF011C9680E3CE
:103C20008387FD0183E2819300915D0210915E0222
:103C300020915F02309160028CE190E0B901A8010F
:103C4000082E04C076956795579547950A94D2F744
:103C50004F704A3008F041C0405D419304978C3F5B
:103C60004FEF940759F719961C92CE0101960E94C6
:103C70008F0680915C02826080935C0280915B027F
:103C80008F7B80935B028DCB9F014436E0F42C5FE9
:103C90003F4F4A3050F0842F6AE00E946921805DD6
:103CA000D9018C93492F2F5F3F4F405DF90140832D
:103CB0008EE28183D9011396852F6AE00E946921E3
:103CC000905D9283AECF2B5F3F4F842F64E60E94BE
:103CD0006921805D8483492FDCCF495CBECF89E0B8
:103CE0000E945802109278021092790210927A0281
:103CF00010927B0210927C0280915C028D7FBCCF7F
:103D00008C3251E09507A105B10510F480E080CB1D
:103D1000803DE7E09E07A105B10508F47BCB287242
:103D200039F48C3FF8E09F07A105B10508F46FCB8B
:103D3000311179C080369940A105B10508F073C0F2
:103D400080E00E94D504133009F442C0143089F099
:103D5000123011F40E94990610928202109283028E
:103D600010928402109285021092860210927D02B7
:103D700051CB61EC71E0CE0101960E942A21409165
:103D80005D0250915E0260915F0270916002FE01DF
:103D90003E962CE130E0DB01CA01022E04C0B6954C
:103DA000A795979587950A94D2F78F708A3070F40B
:103DB000805D8193245031092C3F8FEF380759F7EC
:103DC0001E8ACE0101960E948F06C6CF895CF1CF74
:103DD00061EB71E0CE0101960E942A2140915D02C3
:103DE00050915E0260915F0270916002FE017096D8
:103DF0002CE130E0DB01CA01022E04C0B695A79584
:103E0000979587950A94D2F78F708A3050F4805D29
:103E10008193245031092C3F9FEF390759F7188EB1
:103E2000D0CF895CF5CF80E00E94D5041092820249
:103E30009DCF00E911E020E030E080179107A20754
:103E4000B30728F461E084E00E94580276CB60E07A
:103E500084E00E94580210929602109297021092EB
:103E600098021092990210929A0267CB275F3F4FF7
:103E70008DE2808729A43AA431942194310864CC3E
:103E8000495CD7CC04EF11E020E030E0C0900001A5
:103E9000D0900101E0900201F09003010C0D1D1D76
:103EA0002E1D3F1D80179107A207B30748F441114B
:103EB0001BCD81E00E94EB0B81E08093690214CD61
:103EC000442329F080E00E94EB0B109269021092CB
:103ED000AF021092B0021092B1021092B202109290
:103EE000B30280ED97E0A0E0B0E0809300019093F2
:103EF0000101A0930201B0930301F6CC00917D0271
:103F00000E943103C0907E02D0907F02E090800238
:103F1000F09081026C197D098E099F0961347F41FF
:103F20008105910578F015FD04C080915A028575D0
:103F300049F083E0023011F00C9421178093820243
:103F400010927D0217FD05C0809159028770E1E053
:103F500009F0E0E030915B02E0FB34F930935B0262
:103F600032FB002700F9532F517020915A02922FF3
:103F7000917022FBBB27B0F924FBAA27A0F926FBEE
:103F8000882780F94091580243FBFF27F0F9E09021
:103F90003102F0902F02D0902D0233FB662760F99A
:103FA00060132EC035FB662760F9E61329C03695ED
:103FB0003170531325C021FB332730F9931320C0F0
:103FC00023FB332730F93B131BC025FB332730F984
:103FD000A31316C027FB222720F9281311C04295EE
:103FE00041704F130DC0209132022E1109C0209153
:103FF00030022F1105C020912E022D1509F4A1C009
:1040000020915B0200FB23F9E0FB25F950FB21F92D
:1040100020935B0220915A0290FB21F9B0FB23F917
:10402000A0FB25F980FB27F920935A022091580222
:10403000F0FB24F920935802E0923202F092300211
:10404000D0922E0210E030E020E03327069537951D
:10405000222711270027452F50E070E060E0032E53
:104060003DE1440F551F661F771F3A95D1F7302D5C
:10407000042B152B262B372B0D29492F50E070E0F0
:1040800060E09CE1440F551F661F771F9A95D1F79A
:10409000402B512B622B732B0B2F10E030E020E0D4
:1040A000BBE1000F111F221F331FBA95D1F7042B5C
:1040B000152B262B372B4A2F50E070E060E09AE159
:1040C000440F551F661F771F9A95D1F7042B152BA8
:1040D000262B372B90E0B0E0A0E049E1880F991F34
:1040E000AA1FBB1F4A95D1F7802B912BA22BB32B74
:1040F0004F2F50E070E060E0742F6627552744276B
:10410000842B952BA62BB72BAC01BD016E295F2903
:10411000CE2ED12CF12CE12CAEE1CC0CDD1CEE1C12
:10412000FF1CAA95D1F7C42AD52AE62AF72AC092FD
:104130005D02D0925E02E0925F02F09260020E9405
:10414000C90511E005E092E0F92E87EF92E00E94A8
:10415000A401892B11F40C943B1887EF92E00E9484
:10416000820190912C02E92FF0E0EE5DFD4F8A3044
:1041700041F08D3031F0882321F0993010F40C9407
:104180003518108268E071E082E292E00E942121FD
:10419000892B11F00C947E170E94C90510922C02F5
:1041A000D4CF0E9431030091B0021091B10220914E
:1041B000B2023091B302DC01CB01801B910BA20B48
:1041C000B30B4091690200E010E098015FCE86E5F4
:1041D00091E0909395038093940380911C029091B9
:1041E0001D028459934071F4E091A703F091A80354
:1041F00090818091A90380958923808310921D026C
:1042000010921C020895FC0188279927E8942191B7
:104210002032E9F3293010F02E30C8F32B3241F070
:104220002D3239F4689404C00E944B21820F911DF5
:10423000219120532A30C0F31EF4909581959F4F11
:104240000895FB01DC018D91059080190110D9F3CF
:10425000990B0895FB01DC0105900D920020E1F718
:104260000895FB0155915523A9F0BF01DC014D9143
:1042700045174111E1F759F4CD010590002049F0AF
:104280004D9140154111C9F3FB014111EFCF81E080
:1042900090E0019708957AE0979F902D879F802D59
:1042A000910D11240895F999FECF92BD81BDF89A20
:1042B000992780B50895262FF999FECF1FBA92BD90
:1042C00081BD20BD0FB6F894FA9AF99A0FBE0196F7
:1042D0000895991B79E004C0991F961708F0961B62
:1042E000881F7A95C9F780950895AA1BBB1B51E1D9
:1042F00007C0AA1FBB1FA617B70710F0A61BB70B56
:10430000881F991F5A95A9F780959095BC01CD01FA
:10431000089597FB072E16F4009407D077FD09D077
:104320000E94752107FC05D03EF4909581959F4F22
:104330000895709561957F4F0895A1E21A2EAA1BEA
:10434000BB1BFD010DC0AA1FBB1FEE1FFF1FA21745
:10435000B307E407F50720F0A21BB30BE40BF50B42
:10436000661F771F881F991F1A9469F760957095CB
:10437000809590959B01AC01BD01CF010895052E5C
:1043800097FB1EF400940E94D62157FD07D00E948F
:104390009D2107FC03D04EF40C94D62150954095F6
:1043A000309521953F4F4F4F5F4F089590958095E1
:1043B000709561957F4F8F4F9F4F0895EE0FFF1FB0
:1043C0000590F491E02D0994FB01DC0102C00190FD
:1043D0000D9241505040D8F708956817790768F456
:1043E000FB01DC01E40FF51FA40FB51F02C0029012
:1043F0000E9241505040D8F708950C94E421FC01EE
:104400008191861721F08823D9F79927089531974C
:10441000CF010895FB01DC018D91019080190110FD
:10442000D9F3990B0895FB01DC0101900D92002056
:10443000E1F70895FB0151915523A9F0BF01DC017B
:104440004D9145174111E1F759F4CD01019000203C
:1044500049F04D9140154111C9F3FB014111EFCFD6
:1044600081E090E00197089511E0CBE1D1E004C034
:10447000FE010E94DE212196CC31D107C9F7F894C4
:02448000FFCF6C
:10448200D00700000000010002000000010002004D
:1044920003000400050009050412110E100813069A
:1044A200077A017F018D0192019901A301B5016093
:1044B2006166017071760230313640414650515684
:1044C20000000000E601460173013802A4018201E6
:1044D20096010000000056034601CB045503CD03AC
:1044E200E3033D030D0A003E004F4B002B434D54A6
:1044F200493A002B434D47523A0041542646004167
:10450200542B435343533D2247534D2200415445BC
:10451200300041542B4342430041542B434D474604
:104522003D310041542B434E4D493D322C312C300C
:104532002C302C300041542B43504D533D22534DCF
:0C454200222C22534D222C22534D22002B
:00000001FF
