:100000000C941F010C9447010C9447010C94830E2F
:100010000C94830E0C94830E0C9447010C944701AE
:100020000C9447010C9447010C9447010C94470130
:100030000C9447010C9447010C9447010C94470120
:100040000C94390E0C9447010C94070E0C94E10D9E
:100050000C9447010C9447010C9447010C94470100
:100060000C9447010C9447010000000800020100B5
:1000700000030407000000000000000041542B436F
:100080004D4744413D2244454C20414C4C220041C7
:10009000540052656D6F7465204F46460052656D81
:1000A0006F7465204F4E004252532D436C6F736541
:1000B000642023004252532D416C61726D20230055
:1000C00073746172745F616300686F726E00616364
:1000D00074696F6E006C6967687400677073007391
:1000E000746172740073746F7000626F78330062B1
:1000F0006F783200626F78310063686975646900F7
:10010000617072690067777300726573657400755A
:1001100070646174650041542B434D47443D004178
:10012000542B434D47523D004E756D65726F205BF9
:10013000325D2053616C7661746F21005B325D002B
:100140004E756D65726F205B315D2053616C766119
:10015000746F21005B315D00537461727420414300
:100160000052657365740055706461746500475092
:10017000530053746F700053746172740047575387
:10018000004C6967687400486F726E004368697557
:100190006469004170726900426F7800536F726346
:1001A000696E656C6C6900536574204F574E4552FB
:1001B00020323031323736004252532D456D657250
:1001C00067656E63792023004252532D54696D6533
:1001D0006F7574202300424F58203100424F582041
:1001E0003200424F58203300220041542B434D47E8
:1001F000533D2200000000002300260029000000DB
:100200000000250028002B0000000000240027002B
:100210002A00010204081020408001020408102076
:10022000010204081020040404040404040402026B
:1002300002020202030303030303FB0EF620112450
:100240001FBECFEFD8E0DEBFCDBF11E0A0E0B1E030
:10025000E0EAF4E402C005900D92AC3CB107D9F796
:1002600024E0ACECB1E001C01D92A03AB207E1F786
:1002700011E0CEE1D1E004C02197FE010E94ED2102
:10028000CD31D107C9F70E9407100C9443220C947A
:100290000000AF92BF92CF92DF92EF92FF920F9346
:1002A0001F93CF93DF936C017B018B01040F151F0C
:1002B000EB015E01AE18BF08C017D10759F0699174
:1002C000D601ED91FC910190F081E02DC6010995D8
:1002D000892B79F7C501DF91CF911F910F91FF9085
:1002E000EF90DF90CF90BF90AF900895FC01538DB9
:1002F000448D252F30E0842F90E0821B930B541700
:1003000010F0CF96089501970895FC01918D828D8C
:10031000981761F0A28DAE0FBF2FB11D5D968C9125
:10032000928D9F5F9F73928F90E008958FEF9FEF64
:100330000895FC01918D828D981731F0828DE80F20
:10034000F11D858D90E008958FEF9FEF0895FC01DA
:10035000918D228D892F90E0805C9F4F821B9109A7
:100360008F739927089587EF92E00E94A70121E0FB
:10037000892B09F420E0822F089580E090E0892BFA
:1003800029F00E94B30181110C9400000895FC0132
:10039000A48DA80FB92FB11DA35ABF4F2C91848DE6
:1003A00090E001968F739927848FA689B7892C9343
:1003B000A089B1898C91837080648C93938D848D96
:1003C000981306C00288F389E02D80818F7D808399
:1003D0000895EF92FF920F931F93CF93DF93EC0159
:1003E00081E0888F9B8D8C8D98131AC0E889F989DC
:1003F000808185FF15C09FB7F894EE89FF896083DF
:10040000E889F98980818370806480839FBF81E05F
:1004100090E0DF91CF911F910F91FF90EF900895A1
:10042000F62E0B8D10E00F5F1F4F0F731127E02E7C
:100430008C8D8E110CC00FB607FCFACFE889F989B4
:10044000808185FFF5CFCE010E94C701F1CFEB8DF2
:10045000EC0FFD2FF11DE35AFF4FF0829FB7F89488
:100460000B8FEA89FB8980818062CFCF682F87EF6D
:1004700092E00C94E901CF93DF93EC01888D8823FF
:10048000B9F0AA89BB89E889F9898C9185FD03C0F7
:10049000808186FD0DC00FB607FCF7CF8C9185FFDC
:1004A000F2CF808185FFEDCFCE010E94C701E9CF59
:1004B000DF91CF91089590E0FC01E859FF4F24911E
:1004C000FC01EE5EFD4F3491FC01EA5DFD4FE491CD
:1004D000EE23C9F0222339F0233001F1A8F42130B2
:1004E00019F1223029F1F0E0EE0FFF1FE250FE4F2C
:1004F000A591B4918FB7F894EC91611126C0309515
:100500003E233C938FBF08952730A9F02830C9F0CF
:10051000243049F7809180008F7D03C08091800056
:100520008F7780938000DFCF84B58F7784BDDBCF5A
:1005300084B58F7DFBCF8091B0008F778093B00022
:10054000D2CF8091B0008F7DF9CF3E2BDACF61E022
:10055000809145040C945B02CF93DF9390E0FC0103
:10056000EE5EFD4F24918A5D9D4FFC0184918823AE
:10057000D1F090E0880F991FFC01E85FFD4FA59135
:10058000B491FC01E250FE4FC591D49161110EC0AF
:100590009FB7F8948C91E22FE0958E238C9328815D
:1005A000E223E8839FBFDF91CF9108958FB7F8943E
:1005B000EC91E22BEC938FBFF6CF3FB7F89480918C
:1005C000160290911702A0911802B091190226B557
:1005D000A89B05C02F3F19F00196A11DB11D3FBF7B
:1005E000BA2FA92F982F8827BC01CD01620F711D4A
:1005F000811D911D42E0660F771F881F991F4A9544
:10060000D1F708958F929F92AF92BF92CF92DF92CF
:10061000EF92FF924B015C010E94DD026B017C01B5
:100620000E94DD026C197D098E099F09683E7340A6
:1006300081059105A8F321E0821A9108A108B1086B
:1006400088EEC80E83E0D81EE11CF11C81149104D1
:10065000A104B10429F7FF90EF90DF90CF90BF90F5
:10066000AF909F908F9008952FB7F89460911202E9
:100670007091130280911402909115022FBF08957A
:1006800020911C0230911D022817390771F49091B6
:100690001A0280911B02981741F0E0911A02F0E0D3
:1006A000EF52FE4F808190E008958FEF9FEF089505
:1006B0000895EF92FF920F931F93CF93DF93DC0186
:1006C0005C96ED90FC905D97E114F10479F481E083
:1006D00090E013969C938E93129790E080E0DF91C8
:1006E000CF911F910F91FF90EF9008955196ED914A
:1006F000FC91529750968C915097982F90950FB7E8
:100700005E962C915E97122F127021FD6095F894E1
:100710002081112319F1282B2083E7012197F1F77C
:1007200028E0462F50E0308160FF1AC0382B30831C
:10073000E7012197F1F7BA0175956795215089F77F
:10074000112381F08081892380830FBF5C968D9176
:100750009C910197F1F781E090E0C1CF2923DCCF94
:100760003923E5CF9081892BEFCF0F931F93CF9340
:10077000DF938C01D0E0C0E0F801EC0FFD1F649125
:10078000662341F084E993E00E945903892B11F01C
:100790002196F2CFCE01DF91CF911F910F91089555
:1007A00020911C0230911D022817390761F48091B5
:1007B0001B0220911A0290E0805C9F4F821B9109DE
:1007C0008F739927089590E080E0089520911C028E
:1007D00030911D0228173907B9F490911A028091BF
:1007E0001B02981789F0E0911A02F0E0EF52FE4FD9
:1007F000808120911A0230E02F5F3F4F2F73332703
:1008000020931A0290E008958FEF9FEF08954F9282
:100810005F926F927F928F929F92AF92BF92CF9290
:10082000DF92EF92FF924C016B010E9434032B0187
:100830003C01B12CA12C84E993E00E94D003892BC8
:1008400069F40E94340364197509860997096815CB
:1008500079058A059B0510F4A895EDCF84E993E00E
:100860000E94D003892B01F10E9434034B015C01EB
:10087000F12CE12CA89584E993E00E94D003892B08
:1008800041F084E993E00E94E6030E9434034B01A7
:100890005C010E943403681979098A099B096C1567
:1008A0007D058E059F0530F3FF90EF90DF90CF9090
:1008B000BF90AF909F908F907F906F905F904F9080
:1008C00008954F925F926F927F929F92AF92BF92E4
:1008D000CF92DF92EF92FF920F931F93CF93DF930C
:1008E0008C016B01E42E922E009721F0672B11F002
:1008F000FC0110820E9434032B013C01D0E0C0E0D7
:10090000F12C5601F1E0AF1AB108A89584E993E003
:100910000E94D003892B71F084E993E00E94E603E2
:10092000F11015C0FF24F3948E11F12C0E943403B2
:100930002B013C010E94340364197509860997094B
:10094000623371058105910500F3F12C0AC089110C
:1009500019C00115110529F0CD2819F0C00FD11FBC
:1009600018828F2DDF91CF911F910F91FF90EF9003
:10097000DF90CF90BF90AF909F907F906F905F90EF
:100980004F9008950115110589F2CA15DB0574F61B
:10099000F801EC0FFD1F80832196C8CF90E080E026
:1009A00008958EBD00000DB407FEFDCF8EB50895ED
:1009B000CF93C82F682F86E00E945B026C2F87E0E0
:1009C000CF910C945B024F925F926F927F928F92C5
:1009D0009F92AF92BF92CF92DF92EF92FF920F93CE
:1009E0001F93CF93DF934C017B016A010E94340374
:1009F0002B013C01B12CA12C84E993E00E94D0038F
:100A0000892B69F40E9434036419750986099709D2
:100A1000681579058A059B0510F4A895EDCF84E942
:100A200093E00E94D003892BD1F1F60101900020C0
:100A3000E9F731978F010C191D090E9434034B010E
:100A40005C01D0E0C0E011272701712C612CA89532
:100A500084E993E00E94D003892BB1F084E993E00C
:100A60000E94E603F601EC0FFD1F9081981306C06B
:100A70002196C017D10721F481E012C0D0E0C0E078
:100A80000E9434034B015C010E9434036819790908
:100A90008A099B096415750586059705C0F280E0F3
:100AA000DF91CF911F910F91FF90EF90DF90CF904A
:100AB000BF90AF909F908F907F906F905F904F907E
:100AC0000895FB0101900020E9F73197AF01461B23
:100AD000570BDC01ED91FC910280F381E02D09942C
:100AE000CF93DF930E94B503EC0164E671E084E9E3
:100AF00093E00E9461058C0F9D1FDF91CF910895B7
:100B00008F929F92AF92BF92EF92FF920F931F939B
:100B1000CF93DF93CDB7DEB7A1970FB6F894DEBFC2
:100B20000FBECDBF7C01FA01CB0119A2223008F41F
:100B30002AE08E010F5D1F4F822E912CB12CA12C2B
:100B4000BF01A50194010E94AC21F901CA016A30DC
:100B50000CF5605DD8016E938D01232B242B252B82
:100B600079F790E080E0109721F0BD01C7010E9465
:100B70006105A1960FB6F894DEBF0FBECDBFDF9121
:100B8000CF911F910F91FF90EF90BF90AF909F90EA
:100B90008F900895695CDECFCF93DF9383E20E944C
:100BA000360240915B0250E070E060E02AE087EF9F
:100BB00092E00E9480058EE20E94360240915A0225
:100BC00050E070E060E02AE087EF92E00E9480054C
:100BD00083E20E9436024091590250E070E060E0EA
:100BE0002AE087EF92E00E9480058EE20E943602A2
:100BF0004091580250E070E060E02AE087EF92E018
:100C00000E94800583E20E943602CCE1D0E0809110
:100C1000610290916202A0916302B09164020C2E75
:100C200004C0B695A795979587950A94D2F78F70CB
:100C30008A3080F4805D0E9436022497CC3F8FEF8B
:100C4000D80729F764E671E087EF92E0DF91CF9152
:100C50000C946105895CEFCFCF93DF93D0E0C0E0C7
:100C6000009731F0BC0184E993E00E946105EC013A
:100C700064E671E084E993E00E9461058C0F9D1F9A
:100C8000DF91CF9108950F931F93CF93DF9320911E
:100C90004C04211107C0C0E08C2FDF91CF911F9130
:100CA0000F9108958B01EC018AEE91E00E94B5034B
:100CB00068ED72E084E993E00E94610588EE91E0BE
:100CC0000E94700547E651E064EF71E088EE93E022
:100CD0000E94E3048823F9F262E370E088EE93E077
:100CE0000E9407042097D1F0CE010E9470056AE1AE
:100CF00084E993E00E94590349E651E068E873E112
:100D000088E59BE10E94E304C82F882321F262E377
:100D100070E088EE93E00E940704BECFC8010E94F5
:100D20002C06E5CF2091D802222329F0BC0190E0C7
:100D300080E00C9443060895CF93DF93CDB7DEB7E0
:100D40002B970FB6F894DEBF0FBECDBF83E2898329
:100D5000409161025091620260916302709164025D
:100D6000FE0132962CE130E0DB01CA01022E04C004
:100D7000B695A795979587950A94D2F78F708A3084
:100D8000B0F4805D8193245031092C3F8FEF3807F8
:100D900059F71A86CE0101960E9492062B960FB63D
:100DA000F894DEBF0FBECDBFDF91CF910895895C6F
:100DB000E9CF8F929F92AF92BF92EF92FF920F93E3
:100DC0001F93CF93DF93F82EE62EC82FD0E025E0B7
:100DD000829F800111240E581D4FF801818092805E
:100DE000A380B48081149104A104B10491F40E9401
:100DF0003403F8016183728383839483DF91CF91FD
:100E00001F910F91FF90EF90BF90AF909F908F90A8
:100E100008950E943403DC01CB0188199909AA09BD
:100E2000BB0961E08C32F1E09F07A105B105F0F04C
:100E3000803921E09207A105B10570F461E08E2DA3
:100E4000DF91CF911F910F91FF90EF90BF90AF90E6
:100E50009F908F900C945B0260E08C3B9240A105C8
:100E6000B10530F48E2D0E945B0260E085E0E8CF92
:100E70008E2D0E945B0260E085E00E945B02F8011B
:100E800030818091610290916202A0916302B091E1
:100E90006402323039F420915F022170F6E0FF12D3
:100EA00003C021F0BF7703C02223E1F3B068809331
:100EB000610290936202A0936302B093640285E0A2
:100EC0008C9FF0018D9FF00D1124EE58FD4F108284
:100ED0001182128213821482323009F08FCFDF9197
:100EE000CF911F910F91FF90EF90BF90AF909F9087
:100EF0008F900C949C06CF92DF92EF92FF920F930B
:100F00001F93CF93C82F0E9434036B017C010C2FD9
:100F100010E025E0C29FF0011124EE58FD4F8181C1
:100F20009281A381B481892B8A2B8B2B59F4C182A6
:100F3000D282E382F4828091D0018330E0F48F5F2B
:100F40008093D00185E0809FF001819FF00D1124F6
:100F5000EE58FD4F81819281A381B481A701960152
:100F6000281B390B4A0B5B0BDA01C901883C910540
:100F7000A105B10558F461E085E0CF911F910F9173
:100F8000FF90EF90DF90CF900C945B02883532E0B9
:100F90009307A105B10528F483E1C11182E161E065
:100FA000ECCF8C3B42E09407A105B10528F483E126
:100FB000C11182E160E0E1CF20915C02322F3870F4
:100FC00023FD12C0CC23D1F0883E53E09507A10544
:100FD000B10560F481E0CF911F910F91FF90EF90E8
:100FE000DF90CF900C94D804CC2341F08C3444E0B3
:100FF0009407A105B10510F480E0EDCF287259F4F3
:10100000C11189C0803243E09407A105B10580F485
:1010100061E088E0B2CF203249F4C111D4C0883EEB
:1010200043E09407A105B10518F4D4CFC1117AC0EB
:10103000843145E09407A105B105F0F248EB5BE08F
:1010400060E070E07AC0332321F160E088E00E9424
:101050005B0260E085E00E945B0280915C028D7F14
:1010600080935C0280917C02853019F486E0809345
:101070007C021092D00185E0809FF001819FF00DED
:101080001124EE58FD4F10821182128213821482B5
:1010900092C08091D0018330D0F485E0809FF00130
:1010A000819FF00D1124EE58FD4F118212821382A0
:1010B000148282E0C11101C081E095E0909FF001AF
:1010C000919FF00D1124EE58FD4F808374C060E0B5
:1010D00088E00E945B0260E085E00E945B028091F4
:1010E000610290916202A0916302B0916402B068C3
:1010F0008093610290936202A0936302B0936402B2
:10110000C1110E949C061092D00180915C028D7FDB
:1011100080935C02B0CF803B54E09507A105B105F8
:1011200008F476CF843A56E09507A105B10508F496
:1011300063CF48E45DE060E070E084179507A607A0
:10114000B70708F080CF2832B1F560E088E00E9450
:101150005B0260E085E00E945B02CC2389F082E0C4
:1011600080938102C0928202D0928302E092840234
:10117000F092850280917C02811102C00E949C063F
:101180001092D00180915C028D7F80935C0285E09B
:10119000809FF001819FF00D1124EE58FD4F1082C9
:1011A000118212821382148280917C02853019F49C
:1011B00086E080937C02CF911F910F91FF90EF907A
:1011C000DF90CF900895883755E09507A105B105C8
:1011D00008F400CFA7CF2091D802222321F070E09D
:1011E00060E00C94430608958F929F92AF92BF9255
:1011F000DF92EF92FF920F931F93CF93DF93D62E40
:101200007A01082F10E025E0829FE0011124CE58DA
:10121000DD4F89819A81AB81BC81892B8A2B8B2BF5
:1012200049F40E94340369837A838B839C8381E031
:101230008093AE020E94340325E0209FF001219F9D
:10124000F00D1124EE58FD4F81809280A380B48070
:10125000DC01CB0188199909AA09BB0961E0843F27
:1012600021E09207A105B10530F080329340A1053D
:10127000B10578F460E08D2DDF91CF911F910F9132
:10128000FF90EF90DF90BF90AF909F908F900C9465
:101290005B028081823019F4C7010E94EB0860E094
:1012A0008D2D0E945B0285E0809FF001819FF00DF3
:1012B0001124EE58FD4F1082118212821382148283
:1012C000DF91CF911F910F91FF90EF90DF90BF9032
:1012D000AF909F908F9008950F931F9300914604B5
:1012E00010914704209148043091490440E052E1B4
:1012F0006AE770E080E0041715072607370740F417
:1013000076956795579547958F5F8630A1F787E06B
:10131000982F906A9695809581709CBD8DBD60E0F8
:10132000809145041F910F910C945B02CF93C82FBD
:101330000E946C0983E00E94D1048C2F0E94D1048A
:1013400080E00E94D104C82F0E94A7028C2FCF9169
:101350000895FF920F931F93CF93DF93C82FF62E1C
:10136000172F042F0E946C0982E00E94D1048C2F59
:101370000E94D104CF2DD12F0C0F1D2F111DC0178E
:10138000D10721F089910E94D104F9CFDF91CF914B
:101390001F910F91FF900C94A7021F93CF93DF939F
:1013A000182FD62FC42F0E946C0985E00E94D1040B
:1013B000812F0E94D1048D2F0E94D1048C2F0E9476
:1013C000D104DF91CF911F910C94A702CF92DF92AD
:1013D000EF92FF92CF93C82F482F60EE8FE00E94CC
:1013E000CD090E9434036B017C012AE0C20ED11C9E
:1013F000E11CF11C0E9434036C157D058E059F05D0
:1014000080F48EE00E949609807EC813F3CF81E0BD
:1014100091E0892790E0CF91FF90EF90DF90CF90FF
:10142000089580E0F5CFCF93DF93D82FC62F0E9489
:101430006C0982E00E94D1048D2F0E94D1048C2F70
:101440000E94D104DF91CF910C94A702FF920F93D9
:101450001F93CF93DF93C82FF62E172F042F0E94D0
:101460006C0983E00E94D1048C2F0E94D104CF2DFF
:10147000D12F0C0F1D2F111DC017D10729F080E0AF
:101480000E94D1048993F8CFDF91CF911F910F91E2
:10149000FF900C94A702BF92CF92DF92EF92FF923F
:1014A0000F931F93CF93DF9300D000D01F92CDB73F
:1014B000DEB78C01000F111F000F111FF801E15D55
:1014C000FE4F45E0BE016F5F7F4F81810E94260A7B
:1014D0008A81C98098E0C99E60011124282F30E0DC
:1014E00055E0359527955A95E1F7C20ED31E0D2C80
:1014F000000CEE08FF0883FF20C092E0CC0CDD1C3E
:10150000EE1CFF1C9A95D1F78370C80ED11CE11C0C
:10151000F11CFE2CED2CDC2CCC248B81C80ED11CB4
:10152000E11CF11CFE2CED2CDC2CCC248C81C80E93
:10153000D11CE11CF11C6894F7F88D818F70B82ED6
:10154000E8E081E090E0EB1528F1F801E15DFE4F65
:1015500080810E94960983FF02C06894F6F8C092C9
:10156000C802D092C902E092CA02F092CB02B092B5
:10157000CC02015D1E4F4B2D60ED72E0F8018281BF
:101580000E94260A40E0F80163818CE20E94CD09A6
:1015900090E080E00F900F900F900F900F90DF91F0
:1015A000CF911F910F91FF90EF90DF90CF90BF9060
:1015B00008954F925F926F927F928F929F92AF9217
:1015C000BF92CF92DF92EF92FF920F931F93CF9330
:1015D000DF93CDB7DEB763970FB6F894DEBF0FBECB
:1015E000CDBFFC012481293008F08DC05C0186E06C
:1015F000E4E0F1E0DE011E9601900D928A95E1F79C
:101600003E01FEE06F0E711C8E010C5E1F4FF30158
:10161000C190D1903F017601EE0CFF1CF701EC0D5B
:10162000FD1DE95CFE4F8080882D0E94960983FD98
:1016300096C0F5019480F8E0F91508F464C0F5014E
:101640000081118122813381B901A801442777FDEE
:101650004395552766277727D901C80188279927F9
:10166000AA27B07444244A94542C642C7FE1772E2A
:10167000411106C044244A9467E0562E612C712C17
:101680000421152126213721442309F43FC00C836E
:101690001B83890122273327402F440F440F440F17
:1016A000407E502F53705860452B4A8355E0169565
:1016B00007955A95E1F70983892B8A2B8B2BA1F18A
:1016C000892D80648D83492D50E0B501685F7F4F7F
:1016D000CE0106960E94F32145E0490DF701EC0D7D
:1016E000FD1DE95CFE4FBE016F5F7F4F81810E944F
:1016F000A90948E068E0882D0E94CD09882D0E9444
:101700009609807799F084E090E012C0A80123E068
:10171000569547952A95E1F749830295000F007E7B
:101720000A831C821B82C8CF892DCCCF90E080E039
:1017300063960FB6F894DEBF0FBECDBFDF91CF9199
:101740001F910F91FF90EF90DF90CF90BF90AF90DF
:101750009F908F907F906F905F904F90089560164C
:10176000710609F054CF82E090E0E2CF0F931F930F
:10177000CF93DF93CDB7DEB767970FB6F894DEBF90
:101780000FBECDBF8E01085F1F4F087F8BEE92E02A
:10179000A0E0B0E0F80180839183A283B38388E066
:1017A0008483108611861286138614861686178601
:1017B00080E88587C8010E94D90AC8010E94D90A19
:1017C000C8010E94D90A67960FB6F894DEBF0FBE13
:1017D000CDBFDF91CF911F910F910895E8ECF2E01A
:1017E00046EB52E060E070E0408351836283738394
:1017F00092E0948380871186CF010C94D90A46EC3D
:1018000051E060E070E04093C8025093C9026093D9
:10181000CA027093CB0294E09093CC02813089F09D
:1018200080E01092D1021092D0028093D302809374
:10183000D20288EC92E00E94D90A88EC92E00C94E3
:10184000D90A82E5EECFE8ECF2E04AE352E060E04C
:1018500070E0408351836283738394E0948391E1C9
:10186000908793EF918782878FE38387CF010E94D0
:10187000D90A88EC92E00E94D90A88EC92E00C9494
:10188000D90A8F929F92AF92BF92CF92DF92EF923E
:10189000FF921F93CF93DF93CDB7DEB7A0970FB61C
:1018A000F894DEBF0FBECDBF4B015C010E94340334
:1018B0006B017C01198210E00E9434036C197D09D0
:1018C0008E099F09681579058A059B0508F045C0B2
:1018D000A89584E993E00E94D003892B69F3A89529
:1018E00084E993E00E94E603E12F1F3150F090E17C
:1018F000FE017196DE01119601900D929A95E1F725
:10190000EFE011E01E0F21E030E02C0F3D1F2E0F05
:10191000311DF9018083E1E0F0E0EC0FFD1FE10FE4
:10192000F11D108269E671E0CE0101960E94292224
:10193000892B79F281E0A0960FB6F894DEBF0FBE36
:10194000CDBFDF91CF911F91FF90EF90DF90CF90AF
:10195000BF90AF909F908F90089580E0ECCFBF92A2
:10196000CF92DF92EF92FF920F931F93CF93DF936B
:10197000CDB7DEB7A2970FB6F894DEBF0FBECDBFCE
:101980000E946C0980EC0E94D1040E94A7026AE0C8
:1019900070E080E090E00E9402038E010F5F1F4F15
:1019A0008EE0F80111928A95E9F74EE0B80180E3E4
:1019B0000E94A9094EE0B80180E40E94A9094EE006
:1019C000B80180E50E94A90960E080E60E94130A40
:1019D00060E080E70E94130A63EA8BE20E94130A28
:1019E00044E067E680E60E94CD0941E067E680E7D3
:1019F0000E94CD098CE0EAE0F1E0DE011F96019043
:101A00000D928A95E1F76E01FFE0CF0ED11CF12C0B
:101A1000E12C98E0B92EF601019111916F0180E857
:101A20000E94E609892B61F40230110509F47FC098
:101A300058F50115110509F480C00130110579F13F
:101A400080E80E94E609892B61F460E08AE20E9446
:101A5000130A60EF89E20E94130A66E888E20E9496
:101A6000130A80E00E94E609A2960FB6F894DEBF42
:101A70000FBECDBFDF91CF911F910F91FF90EF90DF
:101A8000DF90CF90BF9008950430110509F453C042
:101A900008F44FC00530110599F688E101C084E0D3
:101AA000F1E0EF16F10409F04AC01E8E1D8EBC8EC7
:101AB0001B8E44E0BE01655E7F4F0E94A9098FEF37
:101AC000E81AF80A96E0E916F10409F0A4CF18A282
:101AD0001F8E81E090E09AA389A38E01015E1F4FC3
:101AE0006E01E3E2CE0ED11C88E0B82EF801E19041
:101AF000F1908F0180E80E94E609892B09F0A0CFC0
:101B00001E8E1D8EBC8E1B8EE114F104E9F0EA944A
:101B1000EF2809F095CF84E244E0BE01655E7F4F77
:101B20000E94A9090C151D0509F48ACFDFCF88E0B2
:101B3000B7CF80E1B5CF84E1B3CF80E0B1CF1B8ECA
:101B40001C8E1E8E1D8EB5CF80E2E6CFFF920F93C6
:101B50001F93CF93DF93EC01F62E08811981C80102
:101B60000E946221F81621F06F2DC8010E946A219F
:101B7000CE01DF91CF911F910F91FF900895FF92B9
:101B80000F931F93CF93DF9381E08093AE0208ED14
:101B900012E0D0E0C0E0F801F1908F01CE010E9488
:101BA0006221F81621F06F2DCE010E946A21219644
:101BB000CF31D10581F7DF91CF911F910F91FF9028
:101BC00008951F920F920FB60F9211242F933F93F7
:101BD0004F935F936F937F938F939F93AF93BF9335
:101BE000EF93FF9387EF92E00E94C701FF91EF917F
:101BF000BF91AF919F918F917F916F915F914F9125
:101C00003F912F910F900FBE0F901F9018951F922C
:101C10000F920FB60F9211242F938F939F93EF93F0
:101C2000FF93E0910703F09108038081E0910D0399
:101C3000F0910E0382FD1BC09081809110038F5F95
:101C40008F7320911103821741F0E0911003F0E0AF
:101C5000E950FD4F958F80931003FF91EF919F9175
:101C60008F912F910F900FBE0F901F90189580812C
:101C7000F4CF1F920F920FB60F9211242F933F9320
:101C80008F939F93AF93BF93809112029091130211
:101C9000A0911402B09115023091110223E0230F9C
:101CA0002D3758F50196A11DB11D20931102809387
:101CB000120290931302A0931402B0931502809124
:101CC000160290911702A0911802B0911902019684
:101CD000A11DB11D8093160290931702A0931802C4
:101CE000B0931902BF91AF919F918F913F912F9126
:101CF0000F900FBE0F901F90189526E8230F0296A5
:101D0000A11DB11DD2CF1F920F920FB60F921124B9
:101D10002F933F934F935F936F937F938F939F93F3
:101D2000AF93BF93EF93FF93E0911C02F0911D02DC
:101D3000309749F0A685B7858585968D91FF14C0AB
:101D40009C918923A1F4FF91EF91BF91AF919F9155
:101D50008F917F916F915F914F913F912F910F9054
:101D60000FBE0F901F9018959C91892361F7A3894E
:101D7000B4899C918589809589238C9386899789DC
:101D80000197F1F7608D718DA685B785558538E08F
:101D900020E0CB010197F1F7822F90E09595879590
:101DA000282F4C91452309F02068315091F7868DFA
:101DB00081FD209580911B0290E001968F739927F9
:101DC00030911A02381799F0A0911B02B0E0AF527F
:101DD000BE4F2C9380931B02828D938D0197F1F758
:101DE000A389B4898C919589892B8C93ACCF868DEE
:101DF0008160868FF1CFCF931092FA021092F90290
:101E000088EE93E0A0E0B0E08093FB029093FC02A8
:101E1000A093FD02B093FE0224E431E03093F80277
:101E20002093F70225EC30E0309304032093030362
:101E300024EC30E0309306032093050320EC30E0DF
:101E4000309308032093070321EC30E030930A031A
:101E50002093090322EC30E030930C0320930B0312
:101E600026EC30E030930E0320930D031092100304
:101E70001092110310921203109213031092970301
:101E8000109296038093980390939903A0939A03DA
:101E9000B0939B0386E591E0909395038093940320
:101EA0001092AB031092AA031092AD031092AC03F0
:101EB0001092AF031092AE031092B1031092B003D0
:101EC0006091B2036E7F6D7F6093B203669561701F
:101ED00081E0682783E00E945B0261E083E00E946A
:101EE000AC02E5E1F2E0E491E093A403E9E2F2E080
:101EF000E491F0E0EE0FFF1FE250FE4F85919491C8
:101F00009093A6038093A50360E082E00E94AC0258
:101F10008091B20381FD04C061E082E00E945B0217
:101F200082E08093A003E4E1F2E0E491E093A10376
:101F3000E8E2F2E0E491F0E0EE0FFF1FEC50FE4F1C
:101F4000859194919093A3038093A20310924C04E3
:101F500084EB93E090934B0480934A04CFB7F894BA
:101F60008091B303811127C0E0E3F2E08491ECE1BA
:101F7000F2E09491E82FF0E0EE0FFF1FE85FFD4FD5
:101F8000A591B491EC91E92321F461E08AE00E94EB
:101F90005B0261E08AE00E94AC028CB580618CBD7E
:101FA0008CB580648CBD61E08DE00E94AC0261E084
:101FB0008BE00E94AC028091B3038F5F8093B303E8
:101FC000CFBF8AE08093450480E896E9A8E9B0E0B5
:101FD0008093460490934704A0934804B093490427
:101FE00061E08AE00E94AC0261E0809145040E94B9
:101FF0005B02E5EBF3E085E494E01086118612863F
:1020000013863C968E179F07C1F7CF910895CF9303
:10201000DF93CDB7DEB7AC970FB6F894DEBF0FBE37
:10202000CDBF789484B5826084BD84B5816084BD61
:1020300085B5826085BD85B5816085BD80916E0066
:10204000816080936E001092810080918100826097
:1020500080938100809181008160809381008091D4
:1020600080008160809380008091B10084608093C3
:10207000B1008091B00081608093B00080917A00BF
:10208000846080937A0080917A00826080937A00E5
:1020900080917A00816080937A0080917A008068D4
:1020A00080937A001092C100E0910703F091080339
:1020B00082E08083E0910303F09104031082E091B9
:1020C0000503F091060380E1808310920F03E091F5
:1020D0000B03F0910C0386E08083E0910903F091FB
:1020E0000A03808180618083E0910903F0910A03F3
:1020F000808188608083E0910903F0910A038081E8
:1021000080688083E0910903F0910A0380818F7DCC
:1021100080838BE0E6E1F1E0DE01119601900D9203
:102120008A95E1F78E010F5F1F4F9E01245F3F4F9D
:102130003EA32DA3D801FD908D0161E08F2D0E945B
:10214000AC0260E08F2D0E945B028DA09EA008155E
:10215000190581F70E94AF0C18EDE12E12E0F12E67
:1021600010E000E0C8010E946221D7018D937D013B
:102170000F5F1F4F0F311105A9F783E290E00E9416
:1021800062218093310287E390E00E946221809374
:102190002F02F12CE12C04E813E0412C512C3201E8
:1021A000812C912C5401C8010E94622190E0B0E082
:1021B000A0E00E2C04C0880F991FAA1FBB1F0A9411
:1021C000D2F7882A992AAA2ABB2AC80104960E9413
:1021D000622190E0B0E0A0E00E2C04C0880F991FAF
:1021E000AA1FBB1F0A94D2F7482A592A6A2A7B2AB7
:1021F0000F5F1F4FB8E0EB0EF11C0838E3E01E073D
:1022000091F68092690290926A02A0926B02B0925B
:102210006C02409265025092660260926702709270
:10222000680281E08093AE0288E199E20FB6F894EB
:10223000A895809360000FBE909360009E01215F7F
:102240003F4F38A72FA38091C2028111FFC00E9487
:102250003403613177428105910508F4F7C010928B
:102260004C041092AF031092AE031092AD03109283
:10227000AC031092AB031092AA0382E490E0909317
:10228000B1038093B0039091A003963108F047C04A
:102290002FE030E03093AB032093AA0320E430E03A
:1022A0003093AD032093AC0327E230E03093AF03CB
:1022B0002093AE032091680084E0983048F031E02C
:1022C0009E3008F430E081E001C0880F3A95EAF7CB
:1022D000822B809368002DE630E0983050F02BE69A
:1022E00030E09E3030F02CE630E0963110F030E0F7
:1022F00020E03093A8032093A703292F30E09830E3
:1023000008F094C081E001C0880F9A95EAF78093A5
:10231000A9038091B0039091B1030197F1F78091E7
:10232000AE039091AF03892B49F1E0911C02F0912B
:102330001D0243E0E439F40709F1309739F0A3892D
:10234000B4899C918589809589238C938091B2036F
:102350008E7F8093B20310921B0210921A0284E9BE
:1023600093E090931D0280931C02E091A703F091EB
:10237000A80380819091A903892B808364EF71E089
:1023800080E090E00E94020384E993E00E94D00381
:10239000892B31F064E170E088EC90E00E94070442
:1023A00004E010E0DD24D3940150110909F44BC07E
:1023B00080914C04811147C0A8958FE890E00E945D
:1023C000700568EE73E080E090E00E94410C882385
:1023D00059F38EE0E1E2F1E0DE01119601900D92F9
:1023E0008A95E1F7CE0101967C01A895D7018D91E0
:1023F0009D917D010E942C0660ED77E080E090E0E9
:102400000E94410C882381F28FA098A48E149F040F
:1024100061F7D0924C048CE790E00E94700568E868
:1024200073E180E090E00E94410CBECF9E3040F40A
:102430002850310981E001C0880F2A95EAF767CF5B
:102440002E503109F7CF81E08093C2020E946C09BF
:1024500080EA0E94D10480E00E94D104182F0E94DB
:10246000A70290E080E010FD04C011FFB8C381E036
:1024700090E00E944B0A892B09F0B1C30E943403FB
:1024800060931E0270931F0280932002909321029A
:1024900020915C022E7F20935C028091C802909173
:1024A000C902A091CA02B091CB02803333E09307F6
:1024B000A105B10509F492C208F063C08A3C52E05C
:1024C0009507A105B10509F4FBC108F03DC08337AC
:1024D000F1E09F07A105B10509F413C38A3332E087
:1024E0009307A105B10509F486C2823A9105A105B9
:1024F000B10509F07EC09091D002983009F473C103
:1025000008F064C1923009F46AC18091D102883028
:1025100009F47EC108F06FC1823009F475C19111D0
:1025200068C0811166C01092E5031092F103109209
:10253000FD031092090410921504109221041092C8
:102540002D041092390455C08C3F42E09407A10538
:10255000B10509F4F5C18E3253E09507A105B10527
:1025600009F4C5C1803F9240A105B10509F041C001
:102570008091D0028C708830E1F582E08093770200
:1025800038C0873BF3E09F07A105B10509F401C3FB
:10259000D0F4833A33E09307A105B10509F472C181
:1025A000863B43E09407A105B10509F4DCC28135FF
:1025B0009340A105B105E9F46091D3026093310223
:1025C00083E290E011C2893BE3E09E07A105B105DB
:1025D00009F4EAC208F4D2C2893F23E09207A105B8
:1025E000B10509F493C282319440A105B10509F403
:1025F00017C18091E803813021F41092E8038093A1
:102600009F028091F403813021F41092F4038093AF
:10261000A40280910004813009F0D1C2109200041C
:1026200081E08093A90280910C04813021F4109202
:102630000C048093BD0280911804813021F4109223
:1026400018048093950280912404813099F51092AA
:102650002404B0EA8B2EB2E09B2EA12CB12C8092E8
:10266000C8029092C902A092CA02B092CB0288E03E
:102670008093CC0288E88093D0028093D10280EFCF
:102680008093D2028DE48093D3028FEF8093D402A3
:102690008093D5028093D6028093D70288EC92E093
:1026A0000E94D90A88EC92E00E94D90A88EC92E054
:1026B0000E94D90A8091B803833029F41092B8039C
:1026C00081E080939A022091C403213039F5109261
:1026D000C40330915C0237FB882780F990915D023A
:1026E000492F4170842B91FB442740F9842B92FBA6
:1026F000442740F9842B91F032FD10C093FD0EC0A9
:1027000088EC90E0A0E0B0E080930001909301019C
:10271000A0930201B09303012093B3028091DC03E4
:102720008130D1F41092DC0380917202811114C0C7
:1027300080918602811110C090918102911147C24F
:1027400080915C0283FD44C291E081E0909372022B
:1027500091E089278093860280913A04882309F4C6
:1027600039C280913B04811135C20E94340300912B
:102770004104109142042091430430914404601BB1
:10278000710B820B930B693B7B408105910508F42B
:1027900021C291E090933B0480915C02846080931D
:1027A0005C0210923C0410923A048091F602892750
:1027B0008093F6020E94BF0D8091F602882309F4EF
:1027C00047C38DE990E00E94EB0809C2903279F08E
:1027D000903809F09ACE81E08093090496CE81E08A
:1027E0008093E50392CE81E08093F1038ECE81E069
:1027F0008093FD038ACE803279F0803809F08FCE45
:1028000081E080933904F5CE81E080931504F1CE08
:1028100081E080932104EDCE81E080932D04E9CE08
:10282000C090D002D090D102E090D202F090D302BA
:1028300040E8F41A6091D4027091D5028091D602DA
:102840009091D702905824E230E040E050E00E949E
:10285000CE212093690230936A0240936B02509319
:102860006C02C701B60124E230E040E050E00E9473
:10287000CE21209365023093660240936702509305
:102880006802B7CE8091D002803D49F48091D10298
:102890008F3F09F0AECE84E00E94230CAACE883C84
:1028A00009F0A7CE8091D1028F3F09F0A2CE81E03E
:1028B0000E94230C80915C02806480935C0299CE1C
:1028C0008091D00255E0859FC0011124805991402C
:1028D0006AE070E00E94982160935B029C0197FF80
:1028E00003C031952195310920935A0282CE20915F
:1028F000D30291E02F3E09F090E080915F0290FBBF
:1029000087F980935F022C3319F0806480935F0213
:102910008AE0289F90011124C9016CE370E00E94B5
:10292000982160935902C90166E070E00E949821E5
:10293000CB016AE070E00E9498218093580259CE42
:1029400080915F029091D00290FB80F980935F02AA
:102950008091D102982F937051E0913009F050E0AE
:1029600090915E0250FB90F990935E0241E0982FA7
:102970009C70943009F040E090915E0240FB92F927
:1029800090935E0231E0982F9073903109F030E01F
:1029900090915E0230FB94F990935E02807C21E07E
:1029A000803409F020E080915E0220FB86F980935C
:1029B0005E029091600290FD1CCE80915D0250FB02
:1029C00084F940FB85F930FB86F920FB87F9809379
:1029D0005D02892F8160809360020BCE6091D302EB
:1029E00060932F0287E390E09A838983CE0101965A
:1029F0000E94A60DFECD8091D202843061F48091B8
:102A0000D3028F3309F0F5CD81E08093C1032F7B92
:102A100020935C02EECD813041F58091D3028F335B
:102A200009F0E7CD81E08093B50380915C0280647A
:102A300080935C021092810280915D02877F809377
:102A40005D028091610290916202A0916302B09157
:102A50006402B7FFCECDBF7780936102909362028C
:102A6000A0936302B0936402C4CD803171F480916D
:102A7000D3028F3309F0BDCD8091D502833F09F495
:102A8000B8CD81E08093CD03B4CD81112AC080916F
:102A9000D3028F3309F0ADCD8091D4028F3F09F07E
:102AA000A8CD8091D502813F61F480915C0281FDC7
:102AB00005C091E09093D9038260FFCE1092D903B4
:102AC00098CD803F09F095CD1092C1031092B503C7
:102AD0001092CD0380915D028F788F7780935D0295
:102AE00088CD803409F085CD8091D3028F3309F0F1
:102AF00080CD1092D90380915C028D7F80935C021F
:102B0000E9CF8091D70280FB25F982CF8091D30253
:102B1000837091E0823009F090E080915C0290FB3C
:102B200083F980935C0283FD19C080918102882320
:102B3000A9F00E9434030091820210918302209137
:102B4000840230918502601B710B820B930B693EEE
:102B500073408105910510F0109281028091D4029A
:102B600080932D0246CD91E08091D1028C3F09F4F3
:102B700090E080915C0290FB87F99FCE91E080917C
:102B8000D1028C3F09F490E080915D0290FB80F9C6
:102B9000A5CF91E08091D002811101C090E0809199
:102BA0005D0290FB81F99ACF91E08091D002811172
:102BB00001C090E080915D0290FB82F98FCF8091FF
:102BC000D003813009F02FCD1092D00329CD90E0B1
:102BD00080E0BCCD80915C028B7F80935C020E9480
:102BE000340300911E0210911F02209120023091A7
:102BF0002102601B710B820B930B613E7349844071
:102C0000910508F456C080915C0280FD52C00E947C
:102C1000AF0C0E94340360931E0270931F028093D6
:102C200020029093210280915C02816080935C027B
:102C300010922D024090690250906A0260906B02DF
:102C400070906C028090650290906602A09067027E
:102C5000B090680204E813E0F12CE12C1A83098398
:102C6000C301B2010E2C04C09595879577956795A1
:102C70000A94D2F7CE0101960E94A60DC8010496CF
:102C80009A838983C501B4010E2C04C0959587955C
:102C9000779567950A94D2F7CE0101960E94A60D0A
:102CA000E8E0EE0EF11C0F5F1F4F0838F3E01F073E
:102CB000A9F680917202811179C080917702811109
:102CC00075C080915C0286FD71C090915E02792F83
:102CD000717092FB662760F994FB552750F996FBBB
:102CE000442740F980915D0284FB332730F9232F7C
:102CF000272770FB84F985FB332730F93627322BE1
:102D000060FB85F986FB222720F92527322B50FB13
:102D100086F987FB222720F92427232B40FB87F9FC
:102D200080935D02222309F441C0409161025091D9
:102D300062026091630270916402957509F48DC01E
:102D400070684093610250936202609363027093D3
:102D5000640264EB70E0CE0101960E94392140913B
:102D60006102509162026091630270916402FE01FF
:102D70003C962CE130E0DB01CA01022E04C0B6957E
:102D8000A795979587950A94D2F78F708A3008F0A7
:102D900062C0805D8193245031092C3F8FEF38074A
:102DA00051F71C8ACE0101960E9492060E943403BC
:102DB000E5EBF3E025E434E041E0C480D580E68033
:102DC000F7804B015C018C189D08AE08BF087501A7
:102DD000640159EBC5165BE0D506E104F10408F087
:102DE0001382A1815081A1116CC0552329F0608705
:102DF00071878287938741833C962E173F07E9F6B8
:102E00000091810210915C02002311F40C94B11F17
:102E10000E943403C0908202D0908302E09084022A
:102E2000F09085026C197D098E099F0910915C0252
:102E3000613A7B4B8D40910510F40C948D1F84E01A
:102E4000023011F40C94AD1F809186020C94AD1FDA
:102E500082E990E0B8CC895C9DCF7F774093610296
:102E600050936202609363027093640267EA70E0B9
:102E7000CE0101960E943921409161025091620277
:102E80006091630270916402FE013D962CE130E096
:102E9000DB01CA01022E04C0B695A79597958795C8
:102EA0000A94D2F78F708A3050F4805D8193245059
:102EB00031092C3F9FEF390759F71D8A73CF895C81
:102EC000F5CF511199CF12821182C084D184E2844E
:102ED000F3844B015C018C189D08AE08BF08750196
:102EE000640158EEC51653E0D506E104F10408F07C
:102EF00083CF53815F5F5383648375838683978316
:102F00007BCF69E071E082E292E00E943021892B60
:102F100029F4F8940C94003F0C94DD2065E071E0F6
:102F200082E292E00E943021892B21F410939A02D0
:102F30000C94DD2060E071E082E292E00E9430219A
:102F4000892B21F4109390020C94DD2069EF70E03E
:102F500082E292E00E943021892B21F410938B02AF
:102F60000C94DD2064EF70E082E292E00E94302158
:102F7000892B21F410939F020C94DD206FEE70E0FA
:102F800082E292E00E943021892B21F41093A40266
:102F90000C94DD206AEE70E082E292E00E94302123
:102FA000892B21F41093A9020C94DD2065EE70E0CA
:102FB00082E292E00E943021892B41F480915C02F0
:102FC00083FF04C0109386020C94DD206FED70E047
:102FD00082E292E00E943021892B21F480915C02F0
:102FE00083FF0CC06BED70E082E292E00E94302122
:102FF000892B41F41093BD020C94DD2010937202D2
:103000000C94DD2065ED70E082E292E00E943021B8
:10301000892B21F40E94B60B0C94DD206EEC70E03D
:1030200082E292E00E943021892B21F40E94BF0DA0
:103030000C94DD2069EC70E082E292E00E94302185
:10304000892B91F488E5882E82E0982EA12CB12C52
:103050008092000190920101A0920201B0920301BE
:10306000F092B3020C94DD2060EC70E082E292E01A
:103070000E943021892B11F00C94DD2010937202F4
:1030800000937C020C94DD209F5F90932C02808340
:103090000C94B4200E943403009154021091550204
:1030A0002091560230915702601B710B820B930BDB
:1030B000683E73408105910508F438C10E943403CD
:1030C0006093540270935502809356029093570276
:1030D00084E993E00E94D003892B09F427C1A895C5
:1030E00084E993E00E94E603082F109153021F31F8
:1030F00068F0812F8051990BAC0163E472E083E3A7
:1031000092E00E94FC21105110935302E09153026F
:10311000BB24B394BE0EB0925302F0E0ED5CFD4FC1
:103120000083CB2CD12CF601ED5CFD4F10826CE6B8
:1031300071E083E392E00E9429227C01009741F232
:103140006AE070E00E940E228C01892B09F4C0CF46
:103150006CE270E0C7010E940E22009719F0801700
:10316000910718F010925302B3CF01960E941221DA
:103170007C01025312400B1508F4BDC0109253029B
:10318000E0915302F0E0ED5CFD4F10821E141F042D
:103190000CF09ECF80914C04882309F499CF8FE1E5
:1031A00091E00E94B503CE2CD12CF12CE12C2AE029
:1031B000B701A60184E993E00E94800564E671E00E
:1031C00084E993E00E94610543E751E062E370E027
:1031D00080E197E20E94E304882309F479CF22E298
:1031E00042E270E060E090E080E00E9461048823A9
:1031F00009F46ECF22E242E26FE070E08DE894E0E5
:103200000E946104882309F463CF22E242E270E065
:1032100060E090E080E00E946104882309F458CFC8
:1032200022E242E270E060E090E080E00E9461040F
:10323000882309F44DCF2DE04AE060E470E08DE48E
:1032400094E00E946104882309F442CF62E370E0B5
:1032500088EE93E00E94070480914C04882309F4CF
:1032600065C086E191E00E94B5032AE0B701A6019E
:1032700084E993E00E94800564E671E084E993E0CC
:103280000E94610549E651E062E370E088EA91E658
:103290000E94E304882309F449C062E370E088EEE9
:1032A00093E00E9407048091F602882381F068ED84
:1032B00072E08DE894E00E941922892B59F167EEA3
:1032C00072E08DE894E00E941922892B19F167EAD7
:1032D00071E08DE494E00E944021892B09F032C412
:1032E0008091D802882311F16DE474E090E080E0D1
:1032F0000E9443061BC0B8017727A601461B570B47
:103300006D5C7D4F83E392E00E94FC21B01AB09285
:10331000530236CF6CE971E08DE494E00E943021D5
:10332000892B09F070C382E080939F02A895809159
:103330007202882319F080E00E947B078091770257
:10334000882319F081E00E947B0780917C028630FF
:10335000C1F580917D0290917E02A0917F02B09193
:103360008002892B8A2B8B2B51F40E9434036093AB
:103370007D0270937E0280937F02909380020E9470
:10338000340300917D0210917E0220917F023091E2
:103390008002DC01CB01801B910BA20BB30B61E01F
:1033A0008C32E1E09E07A105B10540F060E080327B
:1033B000F3E09F07A105B10508F0EDC389E00E9485
:1033C0005B02109186021123A9F1809187029091EE
:1033D0008802A0918902B0918A02892B8A2B8B2BBB
:1033E00051F40E94340360938702709388028093A3
:1033F000890290938A020E943403C0908702D09081
:103400008802E0908902F0908A02DC01CB018C19DD
:103410009D09AE09BF0920915C02322F387023FF4D
:103420007EC484369105A105B10508F078C481E019
:103430000E94D80480919002882321F063E186E005
:103440000E94D90680918B02882321F062E185E0F9
:103450000E94D90680919502882309F441C0809189
:10346000960290919702A0919802B0919902892BAF
:103470008A2B8B2B69F40E9434036093960270931D
:103480009702809398029093990281E08093AE0214
:103490000E943403009196021091970220919802A5
:1034A00030919902601B710B820B930B60367A4E40
:1034B0008105910558F480915C0283FD11C08091D3
:1034C0005E02857569F481E080938B02109295020B
:1034D00010929602109297021092980210929902FE
:1034E00010919A021123C9F1123019F480E00E9460
:1034F000FF0B80919B0290919C02A0919D02B09144
:103500009E02892B8A2B8B2B51F40E9434036093EB
:103510009B0270939C0280939D0290939E020E9456
:103520003403C0909B02D0909C02E0909D02F090EA
:103530009E02DC01CB018C199D09AE09BF09123036
:1035400009F086C404E813E020E030E0843FE1E0C5
:103550009E07A105B10508F07FC480919F028823D2
:1035600031F046ED51E061E189E00E94F40880917C
:10357000A402882331F04CED51E06EE08AE00E9415
:10358000F4088091A902882331F042EE51E060E115
:103590008BE00E94F4088091AE028823C9F18091EB
:1035A000AF029091B002A091B102B091B202892B0A
:1035B0008A2B8B2B69F40E9434036093AF027093C3
:1035C000B0028093B1029093B20281E00E94FF0B9F
:1035D0000E9434030091AF021091B0022091B10219
:1035E0003091B202601B710B820B930B6536710533
:1035F0008105910568F080E00E94FF0B1092AE02F9
:103600001092AF021092B0021092B1021092B20268
:103610008091BD02882309F433C1609169027091E1
:103620006A0280916B0290916C0220EA36E841E0D8
:1036300050E00E94CE2169012B013C01890180905C
:10364000650290906602A0906702B0906802C50182
:10365000B40120EA36E841E050E00E94CE2129A7DB
:103660003AA74BA75CA729A43AA4C201D301B7FF8C
:1036700007C0B095A095909581959F4FAF4FBF4FD4
:103680003C01C501B40120EA36E841E050E00E9467
:10369000CE2197FF07C090958095709561957F4FDB
:1036A0008F4F9F4F5B0187E4898380E58A8383E5A1
:1036B0008B83FE01349617FF08C08DE28C830027B0
:1036C00011270C191D09FE013596043611054CF021
:1036D000C80164E670E00E949821605D60838C01FF
:1036E00031960A3011054CF0C8016AE070E00E9482
:1036F0009821605D6083082F3196005D00838EE223
:103700008183C30160E177E20E948421605D62836E
:10371000C30168EE73E00E948421CB012AE030E00F
:10372000B9010E948421805D8383C30164E670E057
:103730000E948421CB01B9010E948421805D848391
:10374000C301B9010E948421482FCB01B9010E9415
:103750008421805D8583405D46838CE287839F0161
:1037600037FC93C3285F3F4FF4E62F1631045CF01B
:10377000C10164E670E00E949821605DD9016C93FC
:103780001C012F5F3F4FBAE02B1631045CF0C101E2
:103790006AE070E00E949821605DF9016083282E44
:1037A0002F5F3F4F80E3820DD9018C938EE21196FB
:1037B0008C93C50160E177E20E948421605DF9018C
:1037C0006283C50168EE73E00E948421CB01EAE0C8
:1037D000F0E0BF010E948421805DD90113968C9393
:1037E000C50164E670E00E948421CB01BF010E9404
:1037F0008421805DD90114968C93C501BF010E947C
:103800008421482FCB01BF010E948421805DF901F2
:103810008583405D468380E2878383E28087C09012
:103820006102D0906202E0906302F09064023996E7
:103830008CE190E0B701A601082E04C0769567954B
:10384000579547950A94D2F74F704A3008F027C32E
:10385000405D419304978C3F4FEF940759F7D9018E
:1038600051961C921092BD021092BE021092BF029D
:103870001092C0021092C102CE0101960E949206DF
:103880001091B302112309F43FC08091B4029091CA
:10389000B502A091B602B091B702892B8A2B8B2B6F
:1038A00081F40E9434036093B4027093B502809354
:1038B000B6029093B702123009F082C481E080937F
:1038C000AE020E943403C090B402D090B502E090E2
:1038D000B602F090B702DC01CB018C199D09AE094C
:1038E000BF0940916D02123009F07CC4843FE1E0D1
:1038F0009E07A105B10508F0D4C2442329F080E059
:103900000E94EE0B10926D028091B802882309F498
:103910006AC00E9434036B017C018091B9029091CE
:10392000BA02A091BB02B091BC02892B8A2B8B2BCF
:1039300081F4C092B902D092BA02E092BB02F09236
:10394000BC0210926E0210926F02109270021092DE
:1039500071028091B9029091BA02A091BB02B0911C
:10396000BC0246015701881A990AAA0ABB0A80912B
:103970006E0290916F02A0917002B0917102009757
:10398000A105B10569F0A7019601281B390B4A0B67
:103990005B0BDA01C901843F9140A105B10550F0EC
:1039A0000E94B60BC0926E02D0926F02E09270023B
:1039B000F092710240E1841647E29406A104B1043A
:1039C00090F01092B8021092B9021092BA021092BE
:1039D000BB021092BC0210926E0210926F02109203
:1039E00070021092710280E090E0892B11F40C9427
:1039F00023110E94B301882311F40C941E110E941C
:103A000000000C941E1168E971E08DE494E00E94BE
:103A10003021892B21F482E08093A90287CC63E9CD
:103A200071E08DE494E00E943021892B21F482E042
:103A3000809390027BCC6CE871E08DE494E00E946E
:103A40003021892B21F482E080938B026FCC67E8D0
:103A500071E08DE494E00E943021892B21F482E012
:103A60008093B30263CC61E871E08DE494E00E943E
:103A70003021892B21F481E08093B80257CC6DE787
:103A800071E08DE494E00E943021892B21F482E0E2
:103A900080939A024BCC67E771E08DE494E00E943A
:103AA0003021892B21F480915C0283FF14C062E7EE
:103AB00071E08DE494E00E943021892B81F06EE664
:103AC00071E08DE494E00E943021892B81F481E043
:103AD0008093BD022BCC82E08093770227CC80912B
:103AE0005C0283FFECCF82E0809386021FCC67E606
:103AF00071E08DE494E00E943021892B19F40E943A
:103B00009C0614CC61E671E08DE494E00E943021C3
:103B1000892B21F4F8940C94003F08CC68E571E0FF
:103B20008DE494E00E943021892B09F0FFCB809135
:103B30005C0283FDFBCB82E08093770285E080937B
:103B40007C02F4CB64E571E08DE494E00E944021B6
:103B5000892B69F06DE874E088ED92E00E942222E2
:103B60000E94BF0D80E491E00E94EB08DFCB6CE384
:103B700071E08DE494E00E944021892B09F4D6CBBA
:103B80006DE874E087EE92E00E9422220E94BF0D51
:103B900088E291E0E9CF88389341A105B10508F0AA
:103BA000ADC089E00E945B028091600281FD09CC7A
:103BB00020915F0226FF05CC80918102823009F0BE
:103BC00000CC80915B0230915A0240915902509191
:103BD00058029CE79983FE013296843640F064E6F1
:103BE0000E947821805D8A83892FFE0133968A3076
:103BF00038F06AE00E947821805D8083892F3196B9
:103C0000805D80838EE28183832F6AE00E94782129
:103C1000905D92838CE7838327FF45C08FE6848382
:103C20008CE6858384E7868382E7878385E68087C1
:103C300080E2818784E38287DF011C9680E38387AB
:103C4000FD0183E281930091610210916202209153
:103C50006302309164028CE190E0B901A801082E62
:103C600004C076956795579547950A94D2F74F709B
:103C70004A3008F041C0405D419304978C3F4FEFBC
:103C8000940759F719961C92CE0101960E9492064C
:103C90008091600282608093600280915F028F7BDE
:103CA00080935F028ECB9F014436E0F42C5F3F4F40
:103CB0004A3050F0842F6AE00E947821805DD9015B
:103CC0008C93492F2F5F3F4F405DF90140838EE277
:103CD0008183D9011396852F6AE00E947821905D37
:103CE0009283AECF2B5F3F4F842F64E60E947821F2
:103CF000805D8483492FDCCF495CBECF89E00E9480
:103D00005B0210927C0210927D0210927E02109251
:103D10007F0210928002809160028D7FBCCF8C3236
:103D200051E09507A105B10510F480E081CB803DFD
:103D3000E7E09E07A105B10508F47CCB287239F4B1
:103D40008C3FF8E09F07A105B10508F470CB311155
:103D500079C080369940A105B10508F073C080E0B4
:103D60000E94D804133009F442C0143089F0123094
:103D700011F40E949C061092860210928702109203
:103D800088021092890210928A021092810252CB0C
:103D900068EC71E0CE0101960E94392140916102E8
:103DA000509162026091630270916402FE013E963E
:103DB0002CE130E0DB01CA01022E04C0B695A795C4
:103DC000979587950A94D2F78F708A3070F4805D4A
:103DD0008193245031092C3F8FEF380759F71E8A01
:103DE000CE0101960E949206C6CF895CF1CF68EBA6
:103DF00071E0CE0101960E943921409161025091FB
:103E000062026091630270916402FE0170962CE17F
:103E100030E0DB01CA01022E04C0B695A795979544
:103E200087950A94D2F78F708A3050F4805D819321
:103E3000245031092C3F9FEF390759F7188ED0CF06
:103E4000895CF5CF80E00E94D804109286029DCF55
:103E500000E911E020E030E080179107A207B307E6
:103E600028F461E084E00E945B0277CB60E084E0AC
:103E70000E945B0210929A0210929B0210929C0286
:103E800010929D0210929E0268CB275F3F4F8DE2F9
:103E9000808729A43AA431942194310865CC495CE7
:103EA000D8CC04EF11E020E030E0C0900001D090C9
:103EB0000101E0900201F09003010C0D1D1D2E1D6B
:103EC0003F1D80179107A207B30748F441111CCD8D
:103ED00081E00E94EE0B81E080936D0215CD4423BA
:103EE00029F080E00E94EE0B10926D021092B30256
:103EF0001092B4021092B5021092B6021092B7025C
:103F000080ED97E0A0E0B0E0809300019093010184
:103F1000A0930201B0930301F7CC009181020E94AB
:103F20003403C0908202D0908302E0908402F0902B
:103F300085026C197D098E099F0961347F418105D5
:103F4000910578F015FD04C080915E02857549F0F9
:103F500083E0023011F00C942417809386021092B3
:103F6000810217FD05C080915D028770E1E009F0D4
:103F7000E0E030915F02E0FB34F930935F0232FB06
:103F8000002700F9532F517020915E02922F9170FB
:103F900022FBBB27B0F924FBAA27A0F926FB882720
:103FA00080F940915C0243FBFF27F0F9E090310279
:103FB000F0902F02D0902D0233FB662760F960133A
:103FC0002EC035FB662760F9E61329C0369531709F
:103FD000531325C021FB332730F9931320C023FB53
:103FE000332730F93B131BC025FB332730F9A313CC
:103FF00016C027FB222720F9281311C042954170D3
:104000004F130DC0209132022E1109C020913002B1
:104010002F1105C020912E022D1509F4A1C0209169
:104020005F0200FB23F9E0FB25F950FB21F9209307
:104030005F0220915E0290FB21F9B0FB23F9A0FB07
:1040400025F980FB27F920935E0220915C02F0FBAA
:1040500024F920935C02E0923202F0923002D09276
:104060002E0210E030E020E0332706953795222716
:1040700011270027452F50E070E060E0032E3DE15E
:10408000440F551F661F771F3A95D1F7302D042B2B
:10409000152B262B372B0D29492F50E070E060E0BF
:1040A0009CE1440F551F661F771F9A95D1F7402B4F
:1040B000512B622B732B0B2F10E030E020E0BBE183
:1040C000000F111F221F331FBA95D1F7042B152B98
:1040D000262B372B4A2F50E070E060E09AE1440F26
:1040E000551F661F771F9A95D1F7042B152B262B8A
:1040F000372B90E0B0E0A0E049E1880F991FAA1F9C
:10410000BB1F4A95D1F7802B912BA22BB32B4F2F9E
:1041100050E070E060E0742F662755274427842B19
:10412000952BA62BB72BAC01BD016E295F29CE2E96
:10413000D12CF12CE12CAEE1CC0CDD1CEE1CFF1CD3
:10414000AA95D1F7C42AD52AE62AF72AC092610295
:10415000D0926202E0926302F09264020E94CC0567
:1041600011E005E092E0F92E87EF92E00E94A701AE
:10417000892B11F40C944A1887EF92E00E94850174
:1041800090912C02E92FF0E0EE5DFD4F8A3041F076
:104190008D3031F0882321F0993010F40C944418BC
:1041A00010826FE071E082E292E00E943021892B60
:1041B00011F00C9481170E94CC0510922C02D4CFE0
:1041C0000E9434030091B4021091B5022091B6020E
:1041D0003091B702DC01CB01801B910BA20BB30B1A
:1041E00040916D0200E010E098015FCE86E591E01D
:1041F000909395038093940380911C0290911D02EB
:104200008459934071F4E091A703F091A803908141
:104210008091A90380958923808310921D021092BA
:104220001C020895FC0188279927E89421912032E7
:10423000E9F3293010F02E30C8F32B3241F02D3243
:1042400039F4689404C00E945A21820F911D219173
:1042500020532A30C0F31EF4909581959F4F089506
:10426000FB01DC018D91059080190110D9F3990BA8
:104270000895FB01DC0105900D920020E1F70895FF
:10428000FB0155915523A9F0BF01DC014D91451764
:104290004111E1F759F4CD010590002049F04D910D
:1042A00040154111C9F3FB014111EFCF81E090E0CE
:1042B000019708957AE0979F902D879F802D910D0B
:1042C00011240895F999FECF92BD81BDF89A9927DE
:1042D00080B50895262FF999FECF1FBA92BD81BDF2
:1042E00020BD0FB6F894FA9AF99A0FBE0196089578
:1042F000991B79E004C0991F961708F0961B881F38
:104300007A95C9F780950895AA1BBB1B51E107C098
:10431000AA1FBB1FA617B70710F0A61BB70B881F55
:10432000991F5A95A9F780959095BC01CD010895E4
:1043300097FB072E16F4009407D077FD09D00E9452
:10434000842107FC05D03EF4909581959F4F0895F8
:10435000709561957F4F0895A1E21A2EAA1BBB1B91
:10436000FD010DC0AA1FBB1FEE1FFF1FA217B30741
:10437000E407F50720F0A21BB30BE40BF50B661F57
:10438000771F881F991F1A9469F76095709580951B
:1043900090959B01AC01BD01CF010895052E97FBBF
:1043A0001EF400940E94E52157FD07D00E94AC2125
:1043B00007FC03D04EF40C94E521509540953095C0
:1043C00021953F4F4F4F5F4F089590958095709581
:1043D00061957F4F8F4F9F4F0895EE0FFF1F059000
:1043E000F491E02D0994FB01DC0102C001900D92D3
:1043F00041505040D8F708956817790768F4FB01D9
:10440000DC01E40FF51FA40FB51F02C002900E924D
:1044100041505040D8F708950C94F321FC0181914C
:10442000861721F08823D9F7992708953197CF016E
:104430000895FB01DC018D91019080190110D9F3E1
:10444000990B0895FB01DC0101900D920020E1F72A
:104450000895FB0151915523A9F0BF01DC014D9155
:1044600045174111E1F759F4CD010190002049F0C1
:104470004D9140154111C9F3FB014111EFCF81E08E
:1044800090E00197089511E0CEE1D1E004C0FE0173
:104490000E94ED212196CF31D107C9F7F894FFCFC3
:1044A000D00700000000010002000000010002002F
:1044B00003000400050009050412110E100813067C
:1044C000077A017F018D0192019901A301B5016075
:1044D0006166017071760230313640414650515666
:1044E00000000000E901490176013B02A7018501B6
:1044F00099010000000059034901CE045803D0037C
:10450000E60340030D0A003E004F4B002B434D5481
:10451000493A002B434D47523A0041542646004148
:10452000542B435343533D2247534D22004154459E
:10453000300041542B4342430041542B434D4746E6
:104540003D310041542B434E4D493D322C312C30EE
:104550002C302C300041542B43504D533D22534DB1
:0C456000222C22534D222C22534D22000D
:00000001FF
