:100000000C9444010C946C010C946C010C94D60E6D
:100010000C94D60E0C94D60E0C946C010C946C01BE
:100020000C946C010C946C010C946C010C946C019C
:100030000C946C010C946C010C946C010C946C018C
:100040000C948C0E0C946C010C945A0E0C94340E7F
:100050000C946C010C946C010C946C010C946C016C
:100060000C946C010C946C014E4100545952453A69
:100070000000000008000201000003040700000067
:10008000000000000041542B434D4744413D2244B1
:10009000454C20414C4C220041542B43504D533D84
:1000A00022534D222C22534D222C22534D2200410B
:1000B000542B434E4D493D322C312C302C302C30BA
:1000C0000041542B434D47463D31004154453000DB
:1000D00041542B435343533D2247534D2200415437
:1000E0002646004154004252532D436C6F736564A1
:1000F0002023004252532D416C61726D2023007306
:10010000746172745F616300686F726E006C69671E
:100110006874006770730073746172740073746F35
:100120007000706F727400626F783300626F7832A3
:1001300000626F783100636869756469006170728C
:10014000690067777300726573657400747972650E
:10015000007570646174650041542B434D47443D04
:100160000041542B434D47523D004E756D65726FF3
:10017000205B325D2053616C7661746F21005B32CD
:100180005D004E756D65726F205B315D2053616C53
:100190007661746F21005B315D005374617274206D
:1001A0004143005265736574005570646174650065
:1001B0004C69676874004750530053746F70005364
:1001C000746172740047575300486F726E00436841
:1001D00069756469004170726900426F7800536FFD
:1001E0007263696E656C6C6900536574204F574E7D
:1001F000455220323031323736004252532D456D50
:10020000657267656E63792023004252532D5469ED
:100210006D656F7574202300424F58203100424FA6
:1002200058203200424F58203300504F52544F4E06
:100230004500220041542B434D47533D220000000E
:1002400000002300260029000000000025002800EF
:100250002B0000000000240027002A0001020408EF
:100260001020408001020408102001020408102020
:10027000040404040404040402020202020203034C
:10028000030303034E0FB01F11241FBECFEFD8E0AE
:10029000DEBFCDBF11E0A0E0B1E0E0E3F2E402C0D8
:1002A00005900D92AA36B107D9F724E0AAE6B1E08D
:1002B00001C01D92A034B207E1F711E0C3E4D1E020
:1002C00004C02197FE010E94B520C234D107C9F7AE
:1002D0000E945A100C940B210C940000EF92FF9294
:1002E0000F931F93CF93DF938C017B01D0E0C0E08D
:1002F000F701EC0FFD1F6491662361F0D801ED91C9
:10030000FC910190F081E02DC8010995892B11F035
:100310002196EECFCE01DF91CF911F910F91FF90EB
:10032000EF900895AF92BF92CF92DF92EF92FF923B
:100330000F931F93CF93DF936C017B018B01040F0D
:10034000151FEB015E01AE18BF08C017D10759F0A9
:100350006991D601ED91FC910190F081E02DC601EB
:100360000995892B79F7C501DF91CF911F910F91E5
:10037000FF90EF90DF90CF90BF90AF900895FC0179
:10038000538D448D252F30E0842F90E0821B930BFA
:10039000541710F0CF96089501970895FC01918DA0
:1003A000828D981761F0A28DAE0FBF2FB11D5D96A3
:1003B0008C91928D9F5F9F73928F90E008958FEF45
:1003C0009FEF0895FC01918D828D981731F0828DF9
:1003D000E80FF11D858D90E008958FEF9FEF089550
:1003E000FC01918D228D892F90E0805C9F4F821BB4
:1003F00091098F739927089586E992E00E94F00190
:1004000021E0892B09F420E0822F089580E090E01C
:10041000892B29F00E94FC0181110C9400000895A1
:10042000FC01A48DA80FB92FB11DA35ABF4F2C9169
:10043000848D90E001968F739927848FA689B78960
:100440002C93A089B1898C91837080648C93938D57
:10045000848D981306C00288F389E02D80818F7DFA
:1004600080830895EF92FF920F931F93CF93DF93B2
:10047000EC0181E0888F9B8D8C8D98131AC0E889E0
:10048000F989808185FF15C09FB7F894EE89FF89AF
:100490006083E889F98980818370806480839FBF4D
:1004A00081E090E0DF91CF911F910F91FF90EF904D
:1004B0000895F62E0B8D10E00F5F1F4F0F7311275D
:1004C000E02E8C8D8E110CC00FB607FCFACFE88998
:1004D000F989808185FFF5CFCE010E941002F1CF0E
:1004E000EB8DEC0FFD2FF11DE35AFF4FF0829FB70C
:1004F000F8940B8FEA89FB8980818062CFCF682FC7
:1005000086E992E00C943202CF93DF93EC01888D60
:100510008823B9F0AA89BB89E889F9898C9185FD7E
:1005200003C0808186FD0DC00FB607FCF7CF8C910C
:1005300085FFF2CF808185FFEDCFCE010E941002B2
:10054000E9CFDF91CF91089590E0FC01EF58FF4F84
:100550002491FC01E45AFD4F3491FC01E059FD4F18
:10056000E491EE23C9F0222339F0233001F1A8F4FD
:10057000213019F1223029F1F0E0EE0FFF1FE85B86
:10058000FD4FA591B4918FB7F894EC91611126C0FD
:1005900030953E233C938FBF08952730A9F0283033
:1005A000C9F0243049F7809180008F7D03C080918D
:1005B00080008F7780938000DFCF84B58F7784BDF4
:1005C000DBCF84B58F7DFBCF8091B0008F77809398
:1005D000B000D2CF8091B0008F7DF9CF3E2BDACF23
:1005E00061E08091E4030C94A402CF93DF9390E048
:1005F000FC01E45AFD4F249180599D4FFC018491E8
:100600008823D1F090E0880F991FFC01EE5AFD4F2E
:10061000A591B491FC01E85BFD4FC591D4916111A6
:100620000EC09FB7F8948C91E22FE0958E238C93A7
:100630002881E223E8839FBFDF91CF9108958FB790
:10064000F894EC91E22BEC938FBFF6CF3FB7F89480
:100650008091BA019091BB01A091BC01B091BD0104
:1006600026B5A89B05C02F3F19F00196A11DB11D0D
:100670003FBFBA2FA92F982F8827BC01CD01620F49
:10068000711D811D911D42E0660F771F881F991F04
:100690004A95D1F708958F929F92AF92BF92CF92D1
:1006A000DF92EF92FF924B015C010E9426036B01E7
:1006B0007C010E9426036C197D098E099F09683E02
:1006C000734081059105A8F321E0821A9108A108E1
:1006D000B10888EEC80E83E0D81EE11CF11C81141D
:1006E0009104A104B10429F7FF90EF90DF90CF901F
:1006F000BF90AF909F908F9008952FB7F89460911E
:10070000B6017091B7018091B8019091B9012FBFE6
:1007100008952091C0013091C1012817390771F463
:100720009091BE018091BF01981741F0E091BE0108
:10073000F0E0EB58FE4F808190E008958FEF9FEF3F
:1007400008950895EF92FF920F931F93CF93DF9335
:10075000DC015C96ED90FC905D97E114F10479F476
:1007600081E090E013969C938E93129790E080E046
:10077000DF91CF911F910F91FF90EF9008955196C7
:10078000ED91FC91529750968C915097982F90959F
:100790000FB75E962C915E97122F127021FD609517
:1007A000F8942081112319F1282B2083E701219748
:1007B000F1F728E0462F50E0308160FF1AC0382B57
:1007C0003083E7012197F1F7BA01759567952150BC
:1007D00089F7112381F08081892380830FBF5C9684
:1007E0008D919C910197F1F781E090E0C1CF292391
:1007F000DCCF3923E5CF9081892BEFCF2091C00149
:100800003091C1012817390761F48091BF0120910F
:10081000BE0190E0805C9F4F821B91098F739927E6
:10082000089590E080E008952091C0013091C101C9
:1008300028173907B9F49091BE018091BF0198172C
:1008400089F0E091BE01F0E0EB58FE4F80812091ED
:10085000BE0130E02F5F3F4F2F7333272093BE013F
:1008600090E008958FEF9FEF08954F925F926F92FF
:100870007F928F929F92AF92BF92CF92DF92EF9230
:10088000FF924C016B010E947D032B013C01B12CB6
:10089000A12C83E393E00E94FE03892B69F40E945C
:1008A0007D036419750986099709681579058A0514
:1008B0009B0510F4A895EDCF83E393E00E94FE031F
:1008C000892B01F10E947D034B015C01F12CE12C8D
:1008D000A89583E393E00E94FE03892B41F083E314
:1008E00093E00E9414040E947D034B015C010E946E
:1008F0007D03681979098A099B096C157D058E05A8
:100900009F0530F3FF90EF90DF90CF90BF90AF90B6
:100910009F908F907F906F905F904F9008954F922F
:100920005F926F927F929F92AF92BF92CF92DF922F
:10093000EF92FF920F931F93CF93DF938C016B0184
:10094000E42E922E009721F0672B11F0FC0110820B
:100950000E947D032B013C01D0E0C0E0F12C560148
:10096000F1E0AF1AB108A89583E393E00E94FE037B
:10097000892B71F083E393E00E941404F11015C0F9
:10098000FF24F3948E11F12C0E947D032B013C0176
:100990000E947D0364197509860997096233710500
:1009A0008105910500F3F12C0AC0891119C00115C8
:1009B000110529F0CD2819F0C00FD11F18828F2DF5
:1009C000DF91CF911F910F91FF90EF90DF90CF902B
:1009D000BF90AF909F907F906F905F904F900895E1
:1009E0000115110589F2CA15DB0574F6F801EC0F43
:1009F000FD1F80832196C8CF8F929F92AF92BF92A6
:100A0000CF92DF92EF92FF92CF934B015C010E9455
:100A10007D036B017C01C0E00E947D036C197D09A0
:100A20008E099F09681579058A059B05E0F4A8954C
:100A300083E393E00E94FE03892B71F383E393E049
:100A40000E941404EC2FF0E0ED5AFE4F90818913C0
:100A500005C0CF5FC23061F781E006C0C1E08F34CE
:100A600039F3C0E0E5CF80E0CF91FF90EF90DF90C9
:100A7000CF90BF90AF909F908F90089590E080E0CE
:100A800008958EBD00000DB407FEFDCF8EB508950C
:100A9000CF93C82F682F86E00E94A4026C2F87E0B6
:100AA000CF910C94A402CF92DF92EF92FF923091FB
:100AB000000237FD05C080910102877021E009F036
:100AC00020E04091030220FB44F94093030242FBE3
:100AD000992790F9892F90E0B0E0A0E0BB27869598
:100AE000B795AA2799278827417050E070E060E009
:100AF000EDE1440F551F661F771FEA95D1F7842B50
:100B0000952BA62BB72B4091D101842B409102024B
:100B100040FBCC24C0F8D12CF12CE12CFCE1CC0C16
:100B2000DD1CEE1CFF1CFA95D1F78C299D29AE29FE
:100B3000BF2942FBCC24C0F8D12CF12CE12C5BE185
:100B4000CC0CDD1CEE1CFF1C5A95D1F78C299D297D
:100B5000AE29BF2944FBCC24C0F8D12CF12CE12CC8
:100B60006AE1CC0CDD1CEE1CFF1C6A95D1F78C29C8
:100B70009D29AE29BF2946FB442740F950E070E08B
:100B800060E0E9E1440F551F661F771FEA95D1F732
:100B9000842B952BA62BB72B33FB442740F950E031
:100BA00070E060E0742F662755274427842B952B2F
:100BB000A62BB72B3091D501A32B3091D301932BCA
:100BC00030E050E040E06EE1220F331F441F551F1C
:100BD0006A95D1F7822B932BA42BB52B80937001B0
:100BE00090937101A0937201B0937301FF90EF9005
:100BF000DF90CF900895CF93DF93D82FC92F0E9415
:100C00005305409170015091710160917201709192
:100C10007301ED2FFC2F2CE130E0DB01CA01022E25
:100C200004C0B695A795979587950A94D2F78F70CB
:100C30008A3058F4805D8193245031092C3F8FEF26
:100C4000380759F7DF91CF910895895CF4CF4F921F
:100C50005F926F927F928F929F92AF92BF92CF924C
:100C6000DF92EF92FF920F931F93CF93DF934C018C
:100C70007B016A010E947D032B013C01B12CA12C58
:100C800083E393E00E94FE03892B69F40E947D03B5
:100C90006419750986099709681579058A059B0500
:100CA00010F4A895EDCF83E393E00E94FE03892B17
:100CB000D1F1F60101900020E9F731978F010C196D
:100CC0001D090E947D034B015C01D0E0C0E01127AB
:100CD0002701712C612CA89583E393E00E94FE0309
:100CE000892BB1F083E393E00E941404F601EC0F2A
:100CF000FD1F9081981306C02196C017D10721F4DB
:100D000081E012C0D0E0C0E00E947D034B015C0195
:100D10000E947D03681979098A099B096415750584
:100D200086059705C0F280E0DF91CF911F910F916A
:100D3000FF90EF90DF90CF90BF90AF909F908F90FB
:100D40007F906F905F904F900895FB01019000207D
:100D5000E9F73197AF01461B570BDC01ED91FC9190
:100D60000280F381E02D0994CF93DF93BC0183E3EC
:100D700093E00E946E01EC0166E571E083E393E08D
:100D80000E94A5068C0F9D1FDF91CF9108958F9231
:100D90009F92AF92BF92EF92FF920F931F93CF93C8
:100DA000DF93CDB7DEB7A1970FB6F894DEBF0FBEC5
:100DB000CDBF7C01FA01CB0119A2223008F42AE050
:100DC0008E010F5D1F4F822E912CB12CA12CBF01E3
:100DD000A50194010E947420F901CA016A300CF542
:100DE000605DD8016E938D01232B242B252B79F781
:100DF00090E080E0109721F0BD01C7010E94A50698
:100E0000A1960FB6F894DEBF0FBECDBFDF91CF9194
:100E10001F910F91FF90EF90BF90AF909F908F9098
:100E20000895695CDECFCF92DF92EF92FF92CF936D
:100E3000DF930E94530583E20E947F02C090FF016E
:100E40000C2C000CDD08EE08FF082AE0B701A60113
:100E5000F7FE0BC08DE20E947F0244275527BA019E
:100E60004C195D096E097F092AE086E992E00E942B
:100E7000C7068EE20E947F024091FE0150E070E0C2
:100E800060E02AE086E992E00E94C70683E20E94C1
:100E90007F024091FD0150E070E060E02AE086E9C9
:100EA00092E00E94C7068EE20E947F024091FC0100
:100EB00050E070E060E02AE086E992E00E94C70618
:100EC00083E20E947F02CCE1D0E08091700190919A
:100ED0007101A0917201B09173010C2E04C0B695FE
:100EE000A795979587950A94D2F78F708A30A0F4CA
:100EF000805D0E947F022497CC3F8FEFD80729F7AF
:100F000066E571E086E992E0DF91CF91FF90EF9086
:100F1000DF90CF900C94A506895CEBCFCF93DF9345
:100F20008E3F2FEF920740F068E670E086E992E08E
:100F3000DF91CF910C946E016AE070E00E944C202A
:100F4000EC01AB0170E060E02AE086E992E00E94EB
:100F5000C7068EE20E947F02AE0170E060E02AE0E8
:100F600086E992E0DF91CF910C94C7060F931F930F
:100F7000CF93DF932091EB03211107C0C0E08C2FAA
:100F8000DF91CF911F910F910895EB018C0164E3E4
:100F900072E083E393E00E946E0168E772E083E30E
:100FA00093E00E94A50682E392E00E94B40649E520
:100FB00051E064EF71E088EE93E00E9427068823F9
:100FC000E9F262E370E088EE93E00E9435040115D7
:100FD0001105D1F0C8010E94B4066AE183E393E0F1
:100FE0000E94A20343E551E068E873E188E59BE1D4
:100FF0000E942706C82F882309F262E370E088EE7A
:1010000093E00E943504BBCF209729F0BE0183E313
:1010100093E00E94A50666E571E083E393E00E94F9
:10102000A506DBCF20917802222329F0BC0190E0B5
:1010300080E00C94B6070895CF93DF93CDB7DEB769
:101040002A970FB6F894DEBF0FBECDBF83E2898327
:10105000CE0102960E94FB051A86CE0101960E94DF
:1010600012082A960FB6F894DEBF0FBECDBFDF91EF
:10107000CF9108958F929F92AF92BF92EF92FF927D
:101080000F931F93CF93DF93F82EE62E082F10E0D7
:1010900025E0829FE0011124CE5EDD4F89809A8099
:1010A000AB80BC8081149104A104B10489F40E9436
:1010B0007D0369837A838B839C83DF91CF911F911A
:1010C0000F91FF90EF90BF90AF909F908F900895F9
:1010D0000E947D03DC01CB0188199909AA09BB098B
:1010E00061E08C3221E09207A105B105F0F0803972
:1010F00021E09207A105B10570F461E08E2DDF912A
:10110000CF911F910F91FF90EF90BF90AF909F9064
:101110008F900C94A40260E08C3B9240A105B10535
:1011200030F48E2D0E94A40260E085E0E8CF8E2D81
:101130000E94A40260E085E00E94A402988192309F
:1011400039F480910302817026E0F2121DC0F1F0A3
:1011500085E0809FF001819FF00D1124EE5EFD4F30
:1011600010821182128213821482923009F0A5CF6C
:10117000DF91CF911F910F91FF90EF90BF90AF90B3
:101180009F908F900C941C08882311F38091030288
:10119000846080930302DCCFCF92DF92EF92FF92C4
:1011A0000F931F93CF93C82F0E947D036B017C0187
:1011B0000C2F10E025E0C29FF0011124EE5EFD4FE0
:1011C00081819281A381B481892B8A2B8B2B59F445
:1011D000C182D282E382F482809174018330E0F490
:1011E0008F5F8093740185E0809FF001819FF00DF7
:1011F0001124EE5EFD4F81819281A381B481A7010C
:101200009601281B390B4A0B5B0BDA01C901883C9C
:101210009105A105B10558F461E085E0CF911F91DA
:101220000F91FF90EF90DF90CF900C94A40288353F
:1012300032E09307A105B10528F483E1C11182E1F1
:1012400061E0ECCF8C3B42E09407A105B10528F4A6
:1012500083E1C11182E160E0E1CF20910002322FF1
:10126000387023FD12C0CC23D1F0883E53E095079F
:10127000A105B10560F481E0CF911F910F91FF901E
:10128000EF90DF90CF900C944805CC2341F08C3444
:1012900044E09407A105B10510F480E0EDCF287279
:1012A00059F4C1117DC0803243E09407A105B10516
:1012B00080F461E088E0B2CF203249F4C111C8C0A7
:1012C000883E43E09407A105B10518F4D4CFC111BD
:1012D0006EC0843145E09407A105B105F0F248EBFA
:1012E0005BE060E070E06EC0332321F160E088E0F5
:1012F0000E94A40260E085E00E94A40280910002A6
:101300008D7F8093000280911C02853019F486E065
:1013100080931C021092740185E0809FF001819FF0
:10132000F00D1124EE5EFD4F1082118212821382A5
:10133000148286C0809174018330D0F485E0809F50
:10134000F001819FF00D1124EE5EFD4F118212829B
:101350001382148282E0C11101C081E095E0909F68
:10136000F001919FF00D1124EE5EFD4F808368C067
:1013700060E088E00E94A40260E085E00E94A40290
:1013800080910302846080930302C1110E941C08B3
:1013900010927401809100028D7F80930002BCCF77
:1013A000803B54E09507A105B10508F482CF843A4B
:1013B00056E09507A105B10508F46FCF48E45DE05C
:1013C00060E070E084179507A607B70708F08CCF98
:1013D0002832B1F560E088E00E94A40260E085E078
:1013E0000E94A402CC2389F082E080932102C09263
:1013F0002202D0922302E0922402F09225028091F0
:101400001C02811102C00E941C081092740180917C
:1014100000028D7F8093000285E0809FF001819F14
:10142000F00D1124EE5EFD4F1082118212821382A4
:10143000148280911C02853019F486E080931C028E
:10144000CF911F910F91FF90EF90DF90CF90089573
:10145000883755E09507A105B10508F40CCFA7CF53
:1014600020917802222321F070E060E00C94B6070E
:1014700008958F929F92AF92BF92DF92EF92FF9268
:101480000F931F93CF93DF93D62E7A01082F10E08E
:1014900025E0829FE0011124CE5EDD4F89819A8193
:1014A000AB81BC81892B8A2B8B2B49F40E947D0355
:1014B00069837A838B839C8381E0809353020E94AB
:1014C0007D0325E0209FF001219FF00D1124EE5EA9
:1014D000FD4F81809280A380B480DC01CB0188190C
:1014E0009909AA09BB0961E0843F21E09207A1059F
:1014F000B10530F080329340A105B10578F460E089
:101500008D2DDF91CF911F910F91FF90EF90DF9084
:10151000BF90AF909F908F900C94A40280818230F6
:1015200019F4C7010E94300A60E08D2D0E94A402C8
:1015300085E0809FF001819FF00D1124EE5EFD4F4C
:1015400010821182128213821482DF91CF911F9137
:101550000F91FF90EF90DF90BF90AF909F908F9092
:1015600008956BE670E086E992E00E946E0180913A
:101570000601909107010E948E078CE20E947F0273
:1015800080910401909105010E948E078CE20E94D7
:101590007F0280910201909103010E948E078CE2EC
:1015A0000E947F0280910001909101010E948E07AC
:1015B00066E571E086E992E00C94A5060F931F930F
:1015C0000091E5031091E6032091E7033091E803D1
:1015D00040E052E16AE770E080E004171507260753
:1015E000370740F476956795579547958F5F863016
:1015F000A1F787E0982F906A9695809581709CBDA1
:101600008DBD60E08091E4031F910F910C94A402C2
:10161000CF93C82F0E94DE0A83E00E9441058C2FE1
:101620000E94410580E00E944105C82F0E94F002FF
:101630008C2FCF9108951F93CF93DF93182FD62F20
:10164000C42F0E94DE0A85E00E944105812F0E947E
:1016500041058D2F0E9441058C2F0E944105DF918D
:10166000CF911F910C94F002CF92DF92EF92FF92F4
:10167000CF93C82F482F60EE8FE00E941B0B0E9473
:101680007D036B017C012AE0C20ED11CE11CF11C20
:101690000E947D036C157D058E059F0580F48EE00C
:1016A0000E94080B807EC813F3CF81E091E0892768
:1016B00090E0CF91FF90EF90DF90CF90089580E081
:1016C000F5CFCF93DF93D82FC62F0E94DE0A82E09A
:1016D0000E9441058D2F0E9441058C2F0E944105DB
:1016E000DF91CF910C94F002FF920F931F93CF9351
:1016F000DF93C82FF62E172F042F0E94DE0A83E0F7
:101700000E9441058C2F0E944105CF2DD12F0C0F37
:101710001D2F111DC017D10729F080E00E9441053F
:101720008993F8CFDF91CF911F910F91FF900C9487
:10173000F002BF92CF92DF92EF92FF920F931F932E
:10174000CF93DF9300D000D01F92CDB7DEB78C01CE
:10175000000F111F000F111FF801E25EFE4F45E060
:10176000BE016F5F7F4F81810E94740B8A81C980A7
:1017700098E0C99E60011124282F30E055E035958E
:1017800027955A95E1F7C20ED31E0D2C000CEE08DA
:10179000FF0883FF20C092E0CC0CDD1CEE1CFF1C78
:1017A0009A95D1F78370C80ED11CE11CF11CFE2C58
:1017B000ED2CDC2CCC248B81C80ED11CE11CF11C3F
:1017C000FE2CED2CDC2CCC248C81C80ED11CE11C11
:1017D000F11C6894F7F88D818F70B82EE8E081E0F5
:1017E00090E0EB1528F1F801E25EFE4F80810E9447
:1017F000080B83FF02C06894F6F8C0926802D0928A
:101800006902E0926A02F0926B02B0926C02025E90
:101810001E4F4B2D60E772E0F80182810E94740B2D
:1018200040E0F80163818CE20E941B0B90E080E0B5
:101830000F900F900F900F900F90DF91CF911F910D
:101840000F91FF90EF90DF90CF90BF9008950E948E
:10185000DE0A80EC0E9441050E94F0026AE070E01E
:1018600080E090E00E944B0364E080E60E94610B00
:1018700063EA8BE20E94610B80E80E94340B892BA3
:1018800061F460E08AE20E94610B60EF89E20E94ED
:10189000610B66E888E20E94610B80E00C94340BD7
:1018A0004F925F926F927F928F929F92AF92BF9270
:1018B000CF92DF92EF92FF920F931F93CF93DF931C
:1018C000CDB7DEB763970FB6F894DEBF0FBECDBFBE
:1018D000FC012481293008F0B2C06C0186E0ECE004
:1018E000F1E0DE011E9601900D928A95E1F73E012E
:1018F000FEE06F0E711C4E0184E1880E911CF30115
:10190000E190F1903F018701000F111FF801EE0DEA
:10191000FF1DEA5DFE4FA0808A2D0E94080B83FD0B
:10192000AAC0F601B480F8E0FB1508F488C0F601FF
:101930004081518162817381DB01CA018827B7FD33
:1019400083959927AA27BB27282FDB01CA0188275F
:101950009927AA27B07444244A94542C642CEFE1AC
:101960007E2E211106C044244A9437E0532E612C68
:10197000712C4421552166217721222309F443C08B
:101980004C835B83AB0166277727242F220F220F1E
:10199000220F207E342F33703860232B2A83F5E00A
:1019A00056954795FA95E1F74983892B8A2B8B2B1E
:1019B000C1F18B2D80648D834B2D50E0B601685FA3
:1019C0007F4FCE0106960E94BB20F5E0BF0E0E0DA4
:1019D0001F1DF801EA5DFE4F11810E94DE0A82E0C0
:1019E0000E944105812F0E944105CE0101967C0194
:1019F0008C01802F8E198B15B0F4F80181918F0125
:101A00000E944105F6CF9A0153E0369527955A95E5
:101A1000E1F729834295440F407E4A831C821B8252
:101A2000C4CF8B2DC8CF0E94F00248E068E08A2D19
:101A30000E941B0B8A2D0E94080B807719F084E00E
:101A400090E002C090E080E063960FB6F894DEBFAD
:101A50000FBECDBFDF91CF911F910F91FF90EF90FF
:101A6000DF90CF90BF90AF909F908F907F906F90BE
:101A70005F904F9008956814790409F040CF82E098
:101A800090E0E2CFCF93DF93CDB7DEB767970FB685
:101A9000F894DEBF0FBECDBFFE013896E87F9F01F0
:101AA0002C5F3F4F8AE0D9011D928A95E9F781EEBC
:101AB00095E0A0E0B0E080839183A283B38388E0C7
:101AC000848380E6808781E0818795E092878387A1
:101AD0008FEF858786878787CF010E94500C679696
:101AE0000FB6F894DEBF0FBECDBFDF91CF91089542
:101AF000E8E6F2E046EB52E060E070E040835183BC
:101B00006283738392E0948380871186CF010C9463
:101B1000500C46EC51E060E070E040936802509356
:101B2000690260936A0270936B0294E090936C0276
:101B3000813089F080E010927102109270028093DF
:101B400073028093720288E692E00E94500C88E64D
:101B500092E00C94500C82E5EECFE8E6F2E04AE326
:101B600052E060E070E0408351836283738394E0CD
:101B7000948391E1908793EF918782878FE38387A6
:101B8000CF010E94500C88E692E00E94500C88E63B
:101B900092E00C94500C0F931F93CF93DF93CDB72B
:101BA000DEB768970FB6F894DEBF0FBECDBF062F25
:101BB000BC01CE0101960E94F31F10E081E090E08D
:101BC0008C0F9D1F800F911F0E94FB05FE01E00FEF
:101BD000F11F1186CE0101960E94120868960FB679
:101BE000F894DEBF0FBECDBFDF91CF911F910F9153
:101BF0000895FF920F931F93CF93DF93EC01F62E7E
:101C000008811981C8010E941C20F81621F06F2D4F
:101C1000C8010E942420CE01DF91CF911F910F9126
:101C2000FF900895FF920F931F93CF93DF9381E06E
:101C30008093530208E712E0D0E0C0E0F801F19091
:101C40008F01CE010E941C20F81621F06F2DCE01CD
:101C50000E9424202196CE31D10581F7DF91CF91CA
:101C60001F910F91FF9008951F920F920FB60F9240
:101C700011242F933F934F935F936F937F938F9391
:101C80009F93AF93BF93EF93FF9386E992E00E94F7
:101C90001002FF91EF91BF91AF919F918F917F9132
:101CA0006F915F914F913F912F910F900FBE0F90C9
:101CB0001F9018951F920F920FB60F9211242F9319
:101CC0008F939F93EF93FF93E091A602F091A70269
:101CD0008081E091AC02F091AD0282FD1BC0908149
:101CE0008091AF028F5F8F732091B002821741F015
:101CF000E091AF02F0E0EA56FD4F958F8093AF027E
:101D0000FF91EF919F918F912F910F900FBE0F90A8
:101D10001F9018958081F4CF1F920F920FB60F92EB
:101D200011242F933F938F939F93AF93BF938091F1
:101D3000B6019091B701A091B801B091B90130916D
:101D4000B50123E0230F2D3758F50196A11DB11DD4
:101D50002093B5018093B6019093B701A093B80189
:101D6000B093B9018091BA019091BB01A091BC01DF
:101D7000B091BD010196A11DB11D8093BA01909350
:101D8000BB01A093BC01B093BD01BF91AF919F91E6
:101D90008F913F912F910F900FBE0F901F9018952C
:101DA00026E8230F0296A11DB11DD2CF1F920F92DC
:101DB0000FB60F9211242F933F934F935F936F931E
:101DC0007F938F939F93AF93BF93EF93FF93E09194
:101DD000C001F091C101309749F0A685B78585858E
:101DE000968D91FF14C09C918923A1F4FF91EF91EE
:101DF000BF91AF919F918F917F916F915F914F9123
:101E00003F912F910F900FBE0F901F9018959C91AE
:101E1000892361F7A389B4899C9185898095892359
:101E20008C93868997890197F1F7608D718DA685CE
:101E3000B785558538E020E0CB010197F1F7822F77
:101E400090E095958795282F4C91452309F02068BF
:101E5000315091F7868D81FD20958091BF0190E0F2
:101E600001968F7399273091BE01381799F0A09190
:101E7000BF01B0E0AB58BE4F2C938093BF01828D61
:101E8000938D0197F1F7A389B4898C919589892B5A
:101E90008C93ACCF868D8160868FF1CFCF931092DB
:101EA00099021092980288EE93E0A0E0B0E080934F
:101EB0009A0290939B02A0939C02B0939D0223E30D
:101EC00031E0309397022093960225EC30E0309376
:101ED000A3022093A20224EC30E03093A5022093C9
:101EE000A40220EC30E03093A7022093A60221EC5C
:101EF00030E03093A9022093A80222EC30E0309326
:101F0000AB022093AA0226EC30E03093AD0220937E
:101F1000AC021092AF021092B0021092B102109275
:101F2000B2021092360310923503809337039093D8
:101F30003803A0933903B0933A0385E491E090937A
:101F400034038093330310924A0310924903109292
:101F50004C0310924B0310924E0310924D031092BB
:101F6000500310924F03609151036E7F6D7F609319
:101F700051036695617081E0682783E00E94A402A6
:101F800061E083E00E94F502EFE5F2E0E491E09386
:101F90004303E3E7F2E0E491F0E0EE0FFF1FE85BBC
:101FA000FD4F85919491909345038093440360E0A5
:101FB00082E00E94F5028091510381FD04C061E03E
:101FC00082E00E94A40282E080933F03EEE5F2E00B
:101FD000E491E0934003E2E7F2E0E491F0E0EE0FF9
:101FE000FF1FE25CFD4F8591949190934203809393
:101FF00041031092EB0383E593E09093EA0380930F
:10200000E903CFB7F89480915203811127C0EAE722
:10201000F2E08491E6E6F2E09491E82FF0E0EE0F32
:10202000FF1FEE5AFD4FA591B491EC91E92321F4E5
:1020300061E08AE00E94A40261E08AE00E94F50269
:102040008CB580618CBD8CB580648CBD61E08DE009
:102050000E94F50261E08BE00E94F502809152033C
:102060008F5F80935203CFBF8AE08093E40380E8C0
:1020700096E9A8E9B0E08093E5039093E603A09386
:10208000E703B093E80361E08AE00E94F50261E0B3
:102090008091E4030E94A402E4E5F3E084EE93E07F
:1020A00010861186128613863C968E179F07C1F7FD
:1020B000CF910895CF93DF93CDB7DEB7AA970FB630
:1020C000F894DEBF0FBECDBF789484B5826084BD26
:1020D00084B5816084BD85B5826085BD85B581602C
:1020E00085BD80916E00816080936E0010928100AA
:1020F0008091810082608093810080918100816065
:102100008093810080918000816080938000809125
:10211000B10084608093B1008091B00081608093B1
:10212000B00080917A00846080937A0080917A0078
:10213000826080937A0080917A00816080937A0037
:1021400080917A00806880937A001092C100E091BB
:10215000A602F091A70282E08083E091A202F091B2
:10216000A3021082E091A402F091A50280E1808395
:102170001092AE02E091AA02F091AB0286E0808359
:10218000E091A802F091A902808180618083E091B2
:10219000A802F091A902808188608083E091A80262
:1021A000F091A902808180688083E091A802F0917B
:1021B000A90280818F7D80838CE0E2E1F1E0DE0185
:1021C000119601900D928A95E1F78E010F5F1F4FD6
:1021D0009E01235F3F4F3EA32DA3D801FD908D01AB
:1021E00061E08F2D0E94F50260E08F2D0E94A40215
:1021F0008DA09EA08016910681F70E94270CE8E72B
:10220000EE2EE2E0FE2E10E000E0C8010E941C204D
:10221000D7018D937D010F5F1F4F0E311105A9F777
:1022200083E290E00E941C208093D50187E390E038
:102230000E941C208093D301F12CE12C04E813E0D0
:10224000412C512C3201812C912C5401C8010E9447
:102250001C2090E0B0E0A0E00E2C04C0880F991F75
:10226000AA1FBB1F0A94D2F7882A992AAA2ABB2A36
:10227000C80104960E941C2090E0B0E0A0E00E2C63
:1022800004C0880F991FAA1FBB1F0A94D2F7482ABF
:10229000592A6A2A7B2A0F5F1F4FB8E0EB0EF11C08
:1022A0000838E3E01E0791F68092090290920A0234
:1022B000A0920B02B0920C024092050250920602CC
:1022C000609207027092080281E08093530288E1D5
:1022D00099E20FB6F894A895809360000FBE909392
:1022E000600080916202811114C10E947D036131FE
:1022F00077428105910508F40CC11092EB0310920E
:102300004E0310924D0310924C0310924B03109207
:102310004A031092490382E490E090935003809323
:102320004F0390913F03963108F047C02FE030E013
:1023300030934A032093490320E430E030934C0368
:1023400020934B0327E230E030934E0320934D035C
:102350002091680084E0983048F031E09E3008F425
:1023600030E081E001C0880F3A95EAF7822B809334
:1023700068002DE630E0983050F02BE630E09E30DB
:1023800030F02CE630E0963110F030E020E0309371
:10239000470320934603292F30E0983008F0A9C066
:1023A00081E001C0880F9A95EAF7809348038091F5
:1023B0004F03909150030197F1F780914D03909155
:1023C0004E03892B49F1E091C001F091C10123E056
:1023D000E333F20709F1309739F0A389B4899C916E
:1023E0008589809589238C93809151038E7F80937A
:1023F00051031092BF011092BE0183E393E09093CA
:10240000C1018093C001E0914603F09147038081B0
:1024100090914803892B808364EF71E080E090E025
:102420000E944B0383E393E00E94FE03892B31F06B
:1024300064E170E088EC90E00E94350404E010E074
:1024400078E9E72E70E0F72EBB24B3940150110910
:1024500009F45CC08091EB03811158C0A89583EE0C
:1024600090E00E94B40668EE73E080E090E00E9485
:10247000FC04882359F34EED50E05A83498380EDE4
:1024800090E09C838B83ABECB0E0BE83AD83E1EC4A
:10249000F0E0F887EF836FEA862E60E0962E9A864A
:1024A0008986FC86EB869E012F5F3F4F6901A895C8
:1024B000D6018D919D916D010E94B40660ED77E08B
:1024C00080E090E00E94FC04882309F4BFCF8DA037
:1024D0009EA08C149D0459F7B092EB0385E890E020
:1024E0000E94B40668E873E180E090E00E94FC047A
:1024F000ADCF9E3040F42850310981E001C0880FF3
:102500002A95EAF752CF2E503109F7CF81E0809318
:1025100062020E94DE0A80EA0E94410580E00E9479
:102520004105182F0E94F00290E080E010FD04C0E9
:1025300011FF34C181E090E00E94990B892B09F0D2
:102540002DC10E947D036093C2017093C3018093EB
:10255000C4019093C501209100022E7F20930002B8
:102560008091680290916902A0916A02B0916B0219
:10257000813533E09307A105B10509F467C408F07C
:102580002BC28A3C52E09507A105B10509F424C38A
:10259000E0F58337F1E09F07A105B10509F424C4F4
:1025A0008A3332E09307A105B10509F4A3C3823A47
:1025B0009105A105B105C1F590917002983009F41B
:1025C000C6C208F0B7C2923009F4BDC28091710250
:1025D000883009F4D1C208F0C2C2823009F4C8C2FE
:1025E000911122C0811120C0109284031092900397
:1025F00010929C031092A8031092B4031092C0038F
:102600001092CC031092D8030FC08C3F42E0940785
:10261000A105B10509F420C308F0C4C1803F924070
:10262000A105B10509F4CEC280918703813021F460
:102630001092870380933F0280919303813021F4AD
:10264000109293038093440280919F03813009F09C
:1026500030C410929F0381E0809349028091AB03C4
:10266000813021F41092AB0380934E028091B70326
:10267000813021F41092B703809335028091C30317
:10268000813089F51092C30380EA92E0A0E0B0E0C7
:102690008093680290936902A0936A02B0936B02E0
:1026A00088E080936C0288E88093700280937102C6
:1026B00080EF809372028DE4809373028FEF80939A
:1026C000740280937502809376028093770288E685
:1026D00092E00E94500C88E692E00E94500C88E63E
:1026E00092E00E94500C8091DB03813021F4109223
:1026F000DB0380935D0280915703833029F41092AD
:10270000570381E080933A0220916303213041F521
:10271000109263033091000237FB882780F9909173
:102720000102492F4170842B91FB442740F9842BEF
:1027300092FB442740F9842B99F032FD11C093FDA0
:102740000FC048EC842E912CA12CB12C8092080152
:1027500090920901A0920A01B0920B0120935802B5
:1027600080917B038130D1F410927B03809112021F
:10277000811114C080912602811110C09091210214
:1027800091119FC38091000283FD9CC391E081E081
:102790009093120291E08927809326020E947D0384
:1027A0000091C2011091C3012091C4013091C50173
:1027B000601B710B820B930B613E73498440910542
:1027C00008F456C08091000280FD52C00E94270C80
:1027D0000E947D036093C2017093C3018093C40182
:1027E0009093C50180910002816080930002109255
:1027F000D1014090090250900A0260900B02709043
:102800000C028090050290900602A0900702B09002
:10281000080204E813E0F12CE12C1A830983C301B8
:10282000B2010E2C04C095958795779567950A940B
:10283000D2F7CE0101960E94F90DC80104969A8341
:102840008983C501B4010E2C04C0959587957795B1
:1028500067950A94D2F7CE0101960E94F90D38E0EF
:10286000E30EF11C0F5F1F4F083843E01407A9F671
:1028700080911202811145C080911702811141C0DF
:102880008091000286FD3DC090910202792F717007
:1028900092FB662760F994FB552750F996FB442775
:1028A00040F98091010284FB332730F9232F272739
:1028B00070FB84F985FB332730F93627322B60FB18
:1028C00085F986FB222720F92527322B50FB86F934
:1028D00087FB222720F92427232B40FB87F98093AD
:1028E0000102222371F0957580910302992309F466
:1028F000EBC28460809303026BE083EF90E00E9460
:10290000CB0D0E947D03E4E5F3E021E0C480D58097
:10291000E680F7804B015C018C189D08AE08BF086B
:102920007501640139EBC3163BE0D306E104F10401
:1029300008F01382418130814111CDC2332329F047
:10294000608771878287938721833C9643E0E43ECA
:10295000F407E1F60091210210910002002311F426
:102960000C94011F0E947D03C0902202D09023028C
:10297000E0902402F09025026C197D098E099F09D0
:1029800010910002613A7B4B8D40910510F40C943C
:10299000DD1E84E0023011F40C94FD1E80912602AD
:1029A0000C94FD1E8E32F3E09F07A105B10509F4DA
:1029B0002AC180339340A105B10509F035CE60915D
:1029C00073026093D30187E390E09A838983CE01F9
:1029D00001960E94F90D28CE873B33E09307A105AD
:1029E000B10509F450C208F05AC0833A53E0950784
:1029F000A105B10509F4C8C0863BE3E09E07A10527
:102A0000B10509F42AC28B369340A105B10509F03E
:102A10000BCE6091700270917102409172025091E0
:102A20007302209174023091750280917602909128
:102A30007702E0910601F09107016E177F0709F018
:102A400077C0E0910401F09105014E175F0709F08E
:102A50006FC0E0910201F0910301A1E02E173F0742
:102A600041F4E0910001F0910101E817F90709F440
:102A7000A0E0709307016093060150930501409315
:102A8000040130930301209302019093010180938C
:102A90000001AA2309F4C8CD0E94B10AC5CD893B23
:102AA00023E09207A105B10509F4F8C108F4E0C1DB
:102AB000893F43E09407A105B10509F49AC1823129
:102AC0009440A105B10509F0AFCDC0907002D0903F
:102AD0007102E0907202F090730280E8F81A60913F
:102AE00074027091750280917602909177029058ED
:102AF00054E2852E912CA12CB12CA50194010E94A9
:102B000096202093090230930A0240930B025093BF
:102B10000C02C701B601A50194010E9496202093E2
:102B200005023093060240930702509308027CCDC1
:102B3000A1E09FCF903279F0903809F047CD81E045
:102B40008093A80343CD81E0809384033FCD81E04F
:102B5000809390033BCD81E080939C0337CD8032FE
:102B600079F0803809F03CCD81E08093D8035CCDCA
:102B700081E08093B40358CD81E08093C00354CDAD
:102B800081E08093CC0350CD80917002803D49F468
:102B9000809171028F3F09F047CD84E00E94AD0D16
:102BA00043CD883C09F040CD809171028F3F09F000
:102BB0003BCD81E00E94AD0D809100028064809346
:102BC000000232CD809170028C70883009F02CCDDB
:102BD00082E08093170228CD80917002A5E08A9F41
:102BE000C0011124805991406AE070E00E94602089
:102BF0006093FF019C0197FF03C031952195310936
:102C00002093FE0111CD2091730291E02F3E09F037
:102C100090E08091030290FB87F9809303022C33AC
:102C200019F0806480930302BAE02B9F9001112475
:102C3000C9016CE370E00E9460206093FD01C9014E
:102C400066E070E00E946020CB016AE070E00E94C4
:102C500060208093FC01E8CC809103029091700287
:102C600090FB80F98093030280917102982F9370FA
:102C700051E0913009F050E09091020250FB90F940
:102C80009093020241E0982F9C70943009F040E04C
:102C90009091020240FB92F99093020231E0982F4A
:102CA0009073903109F030E09091020230FB94F97A
:102CB00090930202807C21E0803409F020E0809132
:102CC000020220FB86F9809302029091040290FD9B
:102CD000ABCC8091010250FB84F940FB85F930FBBD
:102CE00086F920FB87F980930102892F8160809308
:102CF00004029ACC80917202843061F48091730254
:102D00008F3309F091CC81E0809360032F7B209377
:102D100000028ACC8130E1F4809173028F3309F094
:102D200083CC81E08093540380910002806480937F
:102D300000021092210280910102877F809301029C
:102D40008091030282FF70CC8B7F809303026CCC56
:102D5000803171F4809173028F3309F065CC8091DA
:102D60007502833F09F460CC81E080936C035CCCF6
:102D700081112AC0809173028F3309F055CC809164
:102D800074028F3F09F050CC80917502813F61F44D
:102D90008091000281FD05C091E0909378038260EC
:102DA0000ECF1092780340CC803F09F03DCC1092BA
:102DB00060031092540310926C03809101028F788B
:102DC0008F778093010230CC803409F02DCC809134
:102DD00073028F3309F028CC10927803809100029F
:102DE0008D7F80930002E9CF8091770280FB25F9E7
:102DF0008ECF80917302837091E0823009F090E071
:102E00008091000290FB83F98093000283FD19C03A
:102E1000809121028823A9F00E947D030091220263
:102E2000109123022091240230912502601B710B26
:102E3000820B930B693E73408105910510F010924F
:102E40002102809174028093D101EECB60917302D4
:102E50006093D50183E290E0B8CD91E0809171025A
:102E60008C3F09F490E08091000290FB87F9A7CE97
:102E700091E0809171028C3F09F490E08091010211
:102E800090FB80F99ECF91E080917002811101C08A
:102E900090E08091010290FB81F993CF91E08091C5
:102EA0007002811101C090E08091010290FB82F9D3
:102EB00088CF80916F03813009F0D0CB10926F03DF
:102EC000CACB90E080E064CC8B7F809303026CE0FF
:102ED00086EE90E014CD311138CD12821182C0847B
:102EE000D184E284F3844B015C018C189D08AE0808
:102EF000BF087501640138EEC31633E0D306E10460
:102F0000F10408F022CD33813F5F338364837583FE
:102F1000868397831ACD6CE471E086EC91E00E9481
:102F2000EA1F892B21F40E94B10A0C94AD1F66E4BC
:102F300071E086EC91E00E94EA1F892B31F4F8944D
:102F400014BE0C94003F0C94AD1F62E471E086EC5B
:102F500091E00E94EA1F892B21F410933A020C940D
:102F6000AD1F6DE371E086EC91E00E94EA1F892BB2
:102F700019F410933002F1C766E371E086EC91E03A
:102F80000E94EA1F892B19F410932B02E6C761E314
:102F900071E086EC91E00E94EA1F892B19F41093EE
:102FA0003F02DBC76CE271E086EC91E00E94EA1F11
:102FB000892B19F410934402D0C767E271E086ECC4
:102FC00091E00E94EA1F892B19F410934902C5C7AA
:102FD00062E271E086EC91E00E94EA1F892B19F40D
:102FE00010934E02BAC76DE171E086EC91E00E9449
:102FF000EA1F892B39F48091000283FF03C01093EC
:103000002602ABC767E171E086EC91E00E94EA1FFF
:10301000892B21F48091000283FF0BC063E171E0F2
:1030200086EC91E00E94EA1F892B31F410935D0237
:1030300094C71093120291C76DE071E086EC91E0A5
:103040000E94EA1F892B19F40E94420D86C768E08E
:1030500071E086EC91E00E94EA1F892B79F488E503
:1030600092E0A0E0B0E08093080190930901A09362
:103070000A01B0930B01F09258026FC76FEF70E036
:1030800086EC91E00E94EA1F892B09F066C7109335
:10309000120200931C0261C79F5F9093D00180834E
:1030A00035C70E947D030091F8011091F90120912C
:1030B000FA013091FB01601B710B820B930B683E90
:1030C00073408105910508F438C10E947D03609327
:1030D000F8017093F9018093FA019093FB0183E367
:1030E00093E00E94FE03892B09F427C1A89583E38E
:1030F00093E00E941404182F0091F7010F3168F03B
:10310000E02FE051FF0BAF0167EE71E087ED91E03A
:103110000E94C42000510093F701E091F701BB2405
:10312000B394BE0EB092F701F0E0E952FE4F108367
:10313000CB2CD12CF601E952FE4F10826BE571E0E9
:1031400087ED91E00E94F1207C01009741F26AE056
:1031500070E00E94D6208C01892B09F4C0CF6CE26C
:1031600070E0C7010E94D620009719F080179107E0
:1031700018F01092F701B3CF01960E94CC1F7C018A
:10318000065D11400B1508F4BDC01092F701E091E7
:10319000F701F0E0E952FE4F10821E141F040CF0FC
:1031A0009ECF8091EB03882309F499CF61E671E00B
:1031B00083E393E00E946E01CE2CD12CF12CE12C04
:1031C0002AE0B701A60183E393E00E94C70666E503
:1031D00071E083E393E00E94A50642E651E062E3DA
:1031E00070E080E197E20E942706882309F477CFF8
:1031F00022E242E270E060E090E080E00E948F0412
:10320000882309F46CCF22E242E26FE070E08CE2A6
:1032100094E00E948F04882309F461CF22E242E205
:1032200070E060E090E080E00E948F04882309F461
:1032300056CF22E242E270E060E090E080E00E943F
:103240008F04882309F44BCF2DE04AE060E470E05E
:103250008CEE93E00E948F04882309F440CF62E350
:1032600070E088EE93E00E9435048091EB038823A0
:1032700009F463C068E571E083E393E00E946E01A6
:103280002AE0B701A60183E393E00E94C70666E542
:1032900071E083E393E00E94A50643E551E062E319
:1032A00070E088EA91E60E942706882309F445C069
:1032B00062E370E088EE93E00E94350468E772E014
:1032C0008CE294E00E94E120892B59F167E872E0DA
:1032D0008CE294E00E94E120892B19F169EE71E003
:1032E0008CEE93E00E94FA1F892B09F0F0C38091C5
:1032F0007802882311F16CEE73E090E080E00E9488
:10330000B6071BC0B8017727A601461B570B6952A9
:103310007E4F87ED91E00E94C420B01AB092F70171
:1033200036CF6EED71E08CEE93E00E94EA1F892BA0
:1033300009F02EC382E080933F02A895809112028B
:10334000882319F080E00E94CC088091170288231E
:1033500019F081E00E94CC0880911C028630C1F5F2
:1033600080911D0290911E02A0911F02B091200237
:10337000892B8A2B8B2B51F40E947D0360931D02B5
:1033800070931E0280931F02909320020E947D037F
:1033900000911D0210911E0220911F023091200207
:1033A000DC01CB01801B910BA20BB30B61E08C32D3
:1033B000F1E09F07A105B10540F060E0803223E015
:1033C0009207A105B10508F0ABC389E00E94A402F1
:1033D000109126021123A9F18091270290912802D1
:1033E000A0912902B0912A02892B8A2B8B2B51F4B0
:1033F0000E947D0360932702709328028093290224
:1034000090932A020E947D03C0902702D090280248
:10341000E0902902F0902A02DC01CB018C199D0971
:10342000AE09BF0920910002022F087023FF24C4B7
:1034300084369105A105B10508F01EC481E00E9403
:10344000480580913002882321F063E186E00E94E4
:103450003A0880912B02882321F062E185E00E94E6
:103460003A0880913502882309F441C080913602E0
:1034700090913702A0913802B0913902892B8A2BA2
:103480008B2B69F40E947D036093360270933702A0
:10349000809338029093390281E0809353020E9416
:1034A0007D0300913602109137022091380230914D
:1034B0003902601B710B820B930B60367A4E8105CB
:1034C000910558F48091000283FD11C080910202A1
:1034D000857569F481E080932B0210923502109279
:1034E000360210923702109238021092390210916F
:1034F0003A021123C9F1123019F480E00E94890DBB
:1035000080913B0290913C02A0913D02B0913E021D
:10351000892B8A2B8B2B51F40E947D0360933B02F5
:1035200070933C0280933D0290933E020E947D0383
:10353000C0903B02D0903C02E0903D02F0903E02F1
:10354000DC01CB018C199D09AE09BF09123009F0CD
:10355000E0C304E813E020E030E0843FE1E09E07B0
:10356000A105B10508F0D9C380913F02882331F04D
:1035700048E152E061E189E00E94390A8091440209
:10358000882331F04EE152E06EE08AE00E94390A71
:1035900080914902882331F044E252E060E18BE0FF
:1035A0000E94390A80914E02882331F04AE252E0AB
:1035B0006FE08CE00E94390A809153028823C9F1A0
:1035C0008091540290915502A0915602B0915702F9
:1035D000892B8A2B8B2B69F40E947D036093540204
:1035E00070935502809356029093570281E00E9497
:1035F000890D0E947D030091540210915502209183
:10360000560230915702601B710B820B930B65368B
:1036100071058105910568F080E00E94890D109286
:1036200053021092540210925502109256021092B8
:10363000570280915D02882309F419C16091090243
:1036400070910A0280910B0290910C0220EA422EA6
:1036500026E8522E66246394712CA30192010E94E5
:1036600096202FA338A749A75AA76B018C01EFA07A
:10367000F8A48090050290900602A0900702B090F6
:103680000802C501B401A30192010E9496202901FC
:103690001901C601D801B7FF07C0B095A095909554
:1036A00081959F4FAF4FBF4F8C01C501B40120EAF8
:1036B00036E841E050E00E94962097FF07C09095C1
:1036C0008095709561957F4F8F4F9F4F5B0187E489
:1036D000898380E58A8383E58B83FE013496F7FE38
:1036E00009C08DE28C83EFA0F8A4F194E194F10875
:1036F000FE01359624E6E216F1044CF0C70164E6BB
:1037000070E00E946020605D60837C0131963AE049
:10371000E316F1044CF0C7016AE070E00E946020FB
:10372000605D6083E82E319680E38E0D80838EE2AB
:103730008183C80160E177E20E944C20605D628372
:10374000C80168EE73E00E944C20CB012AE030E013
:10375000B9010E944C20805D8383C80164E670E05B
:103760000E944C20CB01B9010E944C20805D8483D3
:10377000C801B9010E944C20482FCB01B9010E9419
:103780004C20805D8583405D46838CE287838F017A
:1037900037FCDCC2085F1F4F44E6241631045CF09E
:1037A000C10164E670E00E946020605DD8016C9306
:1037B0001C010F5F1F4FBAE02B1631045CF0C101F2
:1037C0006AE070E00E946020605DF8016083282E4E
:1037D0000F5F1F4F80E3820DD8018C938EE211960C
:1037E0008C93C50160E177E20E944C20605DF80196
:1037F0006283C50168EE73E00E944C20CB012AE091
:1038000030E0B9010E944C20805D8383C50164E6ED
:1038100070E00E944C20CB01B9010E944C20805DD9
:103820008483C501B9010E944C20482FCB01B90106
:103830000E944C20805D8583405D468380E28783C3
:1038400083E28087C80109960E94FB05D801519642
:103850001C9210925D0210925E0210925F02109212
:10386000600210926102CE0101960E94120810912E
:103870005802112309F47CC00E947D036B017C0176
:103880008091590290915A02A0915B02B0915C0222
:103890000097A105B105C1F4C0925902D0925A0215
:1038A000E0925B02F0925C0210920D0210920E0206
:1038B00010920F021092100240E050E0BA01123054
:1038C000F1F481E0809353028091590290915A0261
:1038D000A0915B02B0915C02B701A601481B590B95
:1038E0006A0B7B0B123009F03AC2443FB1E05B0730
:1038F00061057105E8F184EF91E0A0E0B0E000918E
:1039000008011091090120910A0130910B01800FEB
:10391000911FA21FB31F481759076A077B0708F0BA
:1039200022C2809111028823A9F080910D0290910A
:103930000E02A0910F02B091100246015701881AA1
:10394000990AAA0ABB0AD501C401843F9140A10586
:10395000B10570F081E00E94780D81E08093110242
:10396000C0920D02D0920E02E0920F02F09210026D
:1039700080E090E0892B11F40C9471110E94FC01FD
:10398000882311F40C9471110E9400000C947111A1
:103990006AED71E08CEE93E00E94EA1F892B21F41E
:1039A00082E080934902C9CC65ED71E08CEE93E032
:1039B0000E94EA1F892B21F482E080933002BDCC63
:1039C0006EEC71E08CEE93E00E94EA1F892B21F4EB
:1039D00082E080932B02B1CC69EC71E08CEE93E035
:1039E0000E94EA1F892B21F482E080935802A5CC23
:1039F00065EC71E08CEE93E00E94EA1F892B21F4C4
:103A000082E080933A0299CC6FEB71E08CEE93E008
:103A10000E94EA1F892B21F48091000283FF14C0C9
:103A20006AEB71E08CEE93E00E94EA1F892B81F033
:103A300066EB71E08CEE93E00E94EA1F892B81F423
:103A400081E080935D0279CC82E08093170275CC8F
:103A50008091000283FFECCF82E0809326026DCC40
:103A600060EB71E08CEE93E00E94EA1F892B19F461
:103A70000E94420D62CC69EA71E08CEE93E00E94F4
:103A8000EA1F892B19F40E941C0857CC63EA71E0E5
:103A90008CEE93E00E94EA1F892B29F4F89414BE5F
:103AA0000C94003F4ACC6AE971E08CEE93E00E94EE
:103AB000EA1F892B09F041CC8091000283FD3DCCA7
:103AC00082E08093170285E080931C0236CC66E981
:103AD00071E08CEE93E00E94FA1F892B69F06CE292
:103AE00074E088E792E00E94EA200E94120E82E8C9
:103AF00091E00E94300A21CC6EE771E08CEE93E0F9
:103B00000E94FA1F892B09F418CC6CE274E087E854
:103B100092E00E94EA200E94120E8AE691E0E9CF2C
:103B200088389341A105B10508F095C089E00E944D
:103B3000A4028091040281FD4BCC4091030246FF18
:103B400047CC80912102823009F042CC8091FF0164
:103B50005091FE012091FD013091FC019CE7998379
:103B6000FE01329687FF05C09DE29A838195FE0192
:103B7000339684363CF091E3908364E60E943E20C5
:103B8000892F31968A303CF06AE00E943E20805DA9
:103B90008083892F3196805D80838EE28183852F9B
:103BA0006AE00E943220905D92838CE7838347FF16
:103BB0002AC08FE684838CE6858384E7868382E748
:103BC000878385E6808780E2818784E382878F010F
:103BD000045F1F4F80E3838723E2D8012D93CD013B
:103BE0000E94FB05F8011186CE0101960E94120881
:103BF00080910402826080930402809103028F7B93
:103C000080930302E5CBDF012436E0F414962A30DA
:103C100040F0822F6AE00E943220805D8C93292F31
:103C20001196205D2C938EE211968C9311978D0145
:103C30000D5F1F4F832F6AE00E943220905D129625
:103C40009C93CACF1596822F64E60E943220805D35
:103C50008483292FDCCF89E00E94A40210921C02E9
:103C600010921D0210921E0210921F02109220024A
:103C7000809104028D7FBFCF8C32F1E09F07A105B8
:103C8000B10510F480E0DBCB803D37E09307A10560
:103C9000B10508F4D6CB287239F48C3F48E094077C
:103CA000A105B10508F4CACB80369940A105B1053C
:103CB00050F580E00E944805002341F08091030206
:103CC0008460809303020E941C0806C01330B9F080
:103CD000143079F01230B9F31092260210922702B4
:103CE000109228021092290210922A0210922102A8
:103CF000A8CB6DE08AE092E00E94CB0DEDCF6FE0A3
:103D00008AEF91E0F9CF80E00E94480510922602E8
:103D1000EDCF00E911E020E030E080179107A20725
:103D2000B30728F461E084E00E94A4021DCC60E0A7
:103D300084E00E94A40210923A0210923B02109278
:103D40003C0210923D0210923E020ECC075F1F4FC4
:103D50008DE2808722243324241835081DCD80E08D
:103D600090E0DC01CCCD80E00E94780D80E00E94E4
:103D7000780D80E00E94780D1092110210920D02D1
:103D800010920E0210920F021092100280ED97E036
:103D9000A0E0B0E08093080190930901A0930A018C
:103DA000B0930B01109258021092590210925A02CD
:103DB00010925B0210925C02DBCD009121020E9406
:103DC0007D03C0902202D0902302E0902402F09064
:103DD00025026C197D098E099F0961347F41810597
:103DE000910578F015FD04C080910202857549F0B7
:103DF00083E0023011F00C94CE14809326021092CE
:103E0000210217FD05C080910102877021E009F0B1
:103E100020E09091030220FB94F99093030292FB1F
:103E2000002700F9192F117080910202B82FB1708C
:103E300082FBAA27A0F984FBFF27F0F986FBEE2777
:103E4000E0F93091000233FB772770F96091D501DA
:103E50005091D3014091D10193FBFF24F0F8F0126F
:103E60002DC095FBFF24F0F82F1128C09695917076
:103E7000911324C081FB992790F9B9131FC083FBCC
:103E8000992790F99A131AC085FB992790F9F9138D
:103E900015C087FB882780F98E1310C032953170CA
:103EA00073130CC08091D601861308C08091D40191
:103EB000851304C08091D201841721F180910302FF
:103EC00000FB83F920FB85F910FB81F98093030245
:103ED00080910202B0FB81F9A0FB83F9F0FB85F928
:103EE000E0FB87F9809302028091000270FB84F965
:103EF000809300026093D6015093D4014093D20185
:103F00000E94130711E005E032E0F32E86E992E00B
:103F10000E94F001892B09F4C4C886E992E00E944E
:103F2000CE019091D001E92FF0E0EA53FE4F8A30A4
:103F300039F08D3029F0882319F0993008F4ACC895
:103F4000108261E571E086EC91E00E94EA1F892B06
:103F500011F00C948B170E9413071092D001D6CF4A
:103F600085E491E090933403809333038091C00102
:103F70009091C1018353934071F4E0914603F09115
:103F80004703908180914803809589238083109214
:103F9000C1011092C0010895FC0188279927E89477
:103FA00021912032E9F3293010F02E30C8F32B3262
:103FB00041F02D3239F4689404C00E941420820F1D
:103FC000911D219120532A30C0F31EF490958195C4
:103FD0009F4F0895FB01DC018D9105908019011020
:103FE000D9F3990B0895FB01DC0105900D92002097
:103FF000E1F70895FB0155915523A9F0BF01DC01BC
:104000004D9145174111E1F759F4CD01059000207C
:1040100049F04D9140154111C9F3FB014111EFCF1A
:1040200081E090E0019708957AE0979F902D879F17
:10403000802D910D11240895F999FECF92BD81BD77
:10404000F89A992780B50895262FF999FECF1FBABF
:1040500092BD81BD20BD0FB6F894FA9AF99A0FBEB1
:1040600001960895991B79E004C0991F961708F0EE
:10407000961B881F7A95C9F78095089587FB082EAF
:10408000062687FD819567FD61950E9432200EF41A
:10409000919507FC81950895AA1BBB1B51E107C0B0
:1040A000AA1FBB1FA617B70710F0A61BB70B881FC8
:1040B000991F5A95A9F780959095BC01CD01089557
:1040C00097FB072E16F4009407D077FD09D00E94C5
:1040D0004C2007FC05D03EF4909581959F4F0895A4
:1040E000709561957F4F0895A1E21A2EAA1BBB1B04
:1040F000FD010DC0AA1FBB1FEE1FFF1FA217B307B4
:10410000E407F50720F0A21BB30BE40BF50B661FC9
:10411000771F881F991F1A9469F76095709580958D
:1041200090959B01AC01BD01CF010895052E97FB31
:104130001EF400940E94AD2057FD07D00E94742009
:1041400007FC03D04EF40C94AD205095409530956B
:1041500021953F4F4F4F5F4F0895909580957095F3
:1041600061957F4F8F4F9F4F0895EE0FFF1F059072
:10417000F491E02D0994FB01DC0102C001900D9245
:1041800041505040D8F708956817790768F4FB014B
:10419000DC01E40FF51FA40FB51F02C002900E92C0
:1041A00041505040D8F708950C94BB20FC018191F8
:1041B000861721F08823D9F7992708953197CF01E1
:1041C0000895FB01DC018D91019080190110D9F354
:1041D000990B0895FB01DC0101900D920020E1F79D
:1041E0000895FB0151915523A9F0BF01DC014D91C8
:1041F00045174111E1F759F4CD010190002049F034
:104200004D9140154111C9F3FB014111EFCF81E000
:1042100090E00197089511E0C3E4D1E004C0FE01ED
:104220000E94B5202196C434D107C9F7F894FFCF76
:10423000FFFFFFFFFFFFFFFFD007000000000100AE
:10424000020009050412110E100F08130607606121
:104250006601707176023031364041465051560049
:1042600000000032029201BF018402F001CE01E29F
:104270000100000000A20392013E05A103FE031409
:104280000489034F4B000D0A003E002B434D544957
:0A4290003A002B434D47523A00005C
:00000001FF
