:100000000C9444010C946C010C946C010C94DD0F65
:100010000C94DD0F0C94DD0F0C946C010C946C01AE
:100020000C946C010C946C010C946C010C946C019C
:100030000C946C010C946C010C946C010C946C018C
:100040000C94930F0C946C010C94610F0C943B0F67
:100050000C946C010C946C010C946C010C946C016C
:100060000C946C010C946C014E4100545952453A69
:100070000000000008000201000003040700000067
:10008000000000000041542B434D4744413D2244B1
:10009000454C20414C4C220041542B43504D533D84
:1000A00022534D222C22534D222C22534D2200410B
:1000B000542B434E4D493D322C312C302C302C30BA
:1000C0000041542B434D47463D31004154453000DB
:1000D00041542B435343533D2247534D2200415437
:1000E0002646004154004252532D436C6F736564A1
:1000F0002023004252532D416C61726D2023007306
:10010000746172745F616300686F726E006C69671E
:100110006874006770730073746172740073746F35
:100120007000706F727400626F783300626F7832A3
:1001300000626F783100636869756469006170728C
:10014000690067777300726573657400747972650E
:10015000007570646174650041542B434D47523DF6
:10016000004E756D65726F205B325D2053616C7659
:1001700061746F21005B325D004E756D65726F209A
:100180005B315D2053616C7661746F21005B315D82
:1001900000537461727420414300526573657400AA
:1001A000557064617465004C69676874004750530A
:1001B0000053746F7000537461727400475753009A
:1001C000486F726E004368697564690041707269B6
:1001D00000426F7800536F7263696E656C6C6900E2
:1001E000536574204F574E455220323031323736E6
:1001F000004252532D456D657267656E6379202309
:10020000004252532D54696D656F7574202300426E
:100210004F58203100424F58203200424F5820336F
:1002200000504F52544F4E450041542B434D4744CC
:100230003D00220041542B434D47533D2200000016
:1002400000002300260029000000000025002800EF
:100250002B0000000000240027002A0001020408EF
:100260001020408001020408102001020408102020
:10027000040404040404040402020202020203034C
:10028000030303035510AC2011241FBECFEFD8E0A9
:10029000DEBFCDBF11E0A0E0B1E0EEE1F4E402C0CA
:1002A00005900D92AA36B107D9F724E0AAE6B1E08D
:1002B00001C01D92A034B207E1F711E0C3E4D1E020
:1002C00004C02197FE010E949D21C234D107C9F7C5
:1002D0000E9467110C9402220C940000EF92FF928E
:1002E0000F931F93CF93DF938C017B01D0E0C0E08D
:1002F000F701EC0FFD1F6491662361F0D801ED91C9
:10030000FC910190F081E02DC8010995892B11F035
:100310002196EECFCE01DF91CF911F910F91FF90EB
:10032000EF900895AF92BF92CF92DF92EF92FF923B
:100330000F931F93CF93DF936C017B018B01040F0D
:10034000151FEB015E01AE18BF08C017D10759F0A9
:100350006991D601ED91FC910190F081E02DC601EB
:100360000995892B79F7C501DF91CF911F910F91E5
:10037000FF90EF90DF90CF90BF90AF900895FC0179
:10038000538D448D252F30E0842F90E0821B930BFA
:10039000541710F0CF96089501970895FC01918DA0
:1003A000828D981761F0A28DAE0FBF2FB11D5D96A3
:1003B0008C91928D9F5F9F73928F90E008958FEF45
:1003C0009FEF0895FC01918D828D981731F0828DF9
:1003D000E80FF11D858D90E008958FEF9FEF089550
:1003E000FC01918D228D892F90E0805C9F4F821BB4
:1003F00091098F739927089586E992E00E94F00190
:1004000021E0892B09F420E0822F089580E090E01C
:10041000892B29F00E94FC0181110C9400000895A1
:10042000FC01A48DA80FB92FB11DA35ABF4F2C9169
:10043000848D90E001968F739927848FA689B78960
:100440002C93A089B1898C91837080648C93938D57
:10045000848D981306C00288F389E02D80818F7DFA
:1004600080830895EF92FF920F931F93CF93DF93B2
:10047000EC0181E0888F9B8D8C8D98131AC0E889E0
:10048000F989808185FF15C09FB7F894EE89FF89AF
:100490006083E889F98980818370806480839FBF4D
:1004A00081E090E0DF91CF911F910F91FF90EF904D
:1004B0000895F62E0B8D10E00F5F1F4F0F7311275D
:1004C000E02E8C8D8E110CC00FB607FCFACFE88998
:1004D000F989808185FFF5CFCE010E941002F1CF0E
:1004E000EB8DEC0FFD2FF11DE35AFF4FF0829FB70C
:1004F000F8940B8FEA89FB8980818062CFCF682FC7
:1005000086E992E00C943202CF93DF93EC01888D60
:100510008823B9F0AA89BB89E889F9898C9185FD7E
:1005200003C0808186FD0DC00FB607FCF7CF8C910C
:1005300085FFF2CF808185FFEDCFCE010E941002B2
:10054000E9CFDF91CF91089590E0FC01EF58FF4F84
:100550002491FC01E45AFD4F3491FC01E059FD4F18
:10056000E491EE23C9F0222339F0233001F1A8F4FD
:10057000213019F1223029F1F0E0EE0FFF1FE85B86
:10058000FD4FA591B4918FB7F894EC91611126C0FD
:1005900030953E233C938FBF08952730A9F0283033
:1005A000C9F0243049F7809180008F7D03C080918D
:1005B00080008F7780938000DFCF84B58F7784BDF4
:1005C000DBCF84B58F7DFBCF8091B0008F77809398
:1005D000B000D2CF8091B0008F7DF9CF3E2BDACF23
:1005E00061E08091E4030C94A402CF93DF9390E048
:1005F000FC01E45AFD4F249180599D4FFC018491E8
:100600008823D1F090E0880F991FFC01EE5AFD4F2E
:10061000A591B491FC01E85BFD4FC591D4916111A6
:100620000EC09FB7F8948C91E22FE0958E238C93A7
:100630002881E223E8839FBFDF91CF9108958FB790
:10064000F894EC91E22BEC938FBFF6CF3FB7F89480
:100650008091B9019091BA01A091BB01B091BC0108
:1006600026B5A89B05C02F3F19F00196A11DB11D0D
:100670003FBFBA2FA92F982F8827BC01CD01620F49
:10068000711D811D911D42E0660F771F881F991F04
:100690004A95D1F708958F929F92AF92BF92CF92D1
:1006A000DF92EF92FF924B015C010E9426036B01E7
:1006B0007C010E9426036C197D098E099F09683E02
:1006C000734081059105A8F321E0821A9108A108E1
:1006D000B10888EEC80E83E0D81EE11CF11C81141D
:1006E0009104A104B10429F7FF90EF90DF90CF901F
:1006F000BF90AF909F908F9008952FB7F89460911E
:10070000B5017091B6018091B7019091B8012FBFEA
:1007100008952091BF013091C0012817390771F465
:100720009091BD018091BE01981741F0E091BD010B
:10073000F0E0EC58FE4F808190E008958FEF9FEF3E
:1007400008950895EF92FF920F931F93CF93DF9335
:10075000DC015C96ED90FC905D97E114F10479F476
:1007600081E090E013969C938E93129790E080E046
:10077000DF91CF911F910F91FF90EF9008955196C7
:10078000ED91FC91529750968C915097982F90959F
:100790000FB75E962C915E97122F127021FD609517
:1007A000F8942081112319F1282B2083E701219748
:1007B000F1F728E0462F50E0308160FF1AC0382B57
:1007C0003083E7012197F1F7BA01759567952150BC
:1007D00089F7112381F08081892380830FBF5C9684
:1007E0008D919C910197F1F781E090E0C1CF292391
:1007F000DCCF3923E5CF9081892BEFCF2091BF014A
:100800003091C0012817390761F48091BE01209111
:10081000BD0190E0805C9F4F821B91098F739927E7
:10082000089590E080E008952091BF013091C001CB
:1008300028173907B9F49091BD018091BE0198172E
:1008400089F0E091BD01F0E0EC58FE4F80812091ED
:10085000BD0130E02F5F3F4F2F7333272093BD0141
:1008600090E008958FEF9FEF08954F925F926F92FF
:100870007F928F929F92AF92BF92CF92DF92EF9230
:10088000FF924C016B010E947D032B013C01B12CB6
:10089000A12C83E393E00E94FE03892B69F40E945C
:1008A0007D036419750986099709681579058A0514
:1008B0009B0510F4A895EDCF83E393E00E94FE031F
:1008C000892B01F10E947D034B015C01F12CE12C8D
:1008D000A89583E393E00E94FE03892B41F083E314
:1008E00093E00E9414040E947D034B015C010E946E
:1008F0007D03681979098A099B096C157D058E05A8
:100900009F0530F3FF90EF90DF90CF90BF90AF90B6
:100910009F908F907F906F905F904F9008954F922F
:100920005F926F927F929F92AF92BF92CF92DF922F
:10093000EF92FF920F931F93CF93DF938C016B0184
:10094000E42E922E009721F0672B11F0FC0110820B
:100950000E947D032B013C01D0E0C0E0F12C560148
:10096000F1E0AF1AB108A89583E393E00E94FE037B
:10097000892B71F083E393E00E941404F11015C0F9
:10098000FF24F3948E11F12C0E947D032B013C0176
:100990000E947D0364197509860997096233710500
:1009A0008105910500F3F12C0AC0891119C00115C8
:1009B000110529F0CD2819F0C00FD11F18828F2DF5
:1009C000DF91CF911F910F91FF90EF90DF90CF902B
:1009D000BF90AF909F907F906F905F904F900895E1
:1009E0000115110589F2CA15DB0574F6F801EC0F43
:1009F000FD1F80832196C8CF8F929F92AF92BF92A6
:100A0000CF92DF92EF92FF92CF934B015C010E9455
:100A10007D036B017C01C0E00E947D036C197D09A0
:100A20008E099F09681579058A059B05E0F4A8954C
:100A300083E393E00E94FE03892B71F383E393E049
:100A40000E941404EC2FF0E0ED5AFE4F90818913C0
:100A500005C0CF5FC23061F781E006C0C1E08F34CE
:100A600039F3C0E0E5CF80E0CF91FF90EF90DF90C9
:100A7000CF90BF90AF909F908F90089590E080E0CE
:100A800008958EBD00000DB407FEFDCF8EB508950C
:100A90004F925F926F927F928F929F92AF92BF928E
:100AA000CF92DF92EF92FF920F931F93CF93DF933A
:100AB000EC016A017B0177FF0AC08DE28883CC24B8
:100AC000DD247601C41AD50AE60AF70A2196C70181
:100AD000B60120E836E948E950E00E94702124364A
:100AE000310548F0C90164E670E00E944821605D6C
:100AF00068839C0121962A30310548F0C9016AE0DB
:100B000070E00E944821605D68839C012196205D11
:100B100028838E010E5F1F4F8EE28983C701B601C5
:100B200020E836E948E950E00E9470214B015C0161
:100B3000299680E4C82E82E4D82E8FE0E82EF12C8E
:100B40009AE0492E512C612C712CC501B401A701EA
:100B500096010E947021CA01B901A30192010E946D
:100B60007021605DF8016083C701B601A3019201A5
:100B70000E94702169017A010F5F1F4F0C171D073A
:100B800021F7C801DF91CF911F910F91FF90EF9056
:100B9000DF90CF90BF90AF909F908F907F906F909D
:100BA0005F904F900895CF93C82F682F86E00E94E2
:100BB000A4026C2F87E0CF910C94A40280910002D4
:100BC00087FD0EC090910102977081E009F480E0EA
:100BD000909103029F7E80FF90619093030208959D
:100BE00081E0F6CF0F931F93CF93DF93D82FC92FB8
:100BF0000E94DE054091030242FB882780F990E0C5
:100C0000B0E0A0E0BB278695B795AA27992788274B
:100C100044FB002700F910E030E020E05EE1000F27
:100C2000111F221F331F5A95D1F7802B912BA22B16
:100C3000B32B2091D001822B417050E070E060E036
:100C4000EDE1440F551F661F771FEA95D1F7842BFE
:100C5000952BA62BB72B40910202042F017010E0B8
:100C600030E020E0FCE1000F111F221F331FFA9536
:100C7000D1F7802B912BA22BB32B42FB002700F93D
:100C800010E030E020E05BE1000F111F221F331F56
:100C90005A95D1F7802B912BA22BB32B44FB002725
:100CA00000F910E030E020E06AE1000F111F221F80
:100CB000331F6A95D1F7802B912BA22BB32B46FBC8
:100CC000442740F950E070E060E0E9E1440F551F2F
:100CD000661F771FEA95D1F7842B952BA62BB72B90
:100CE0004091000243FB442740F950E070E060E08F
:100CF000742F662755274427842B952BA62BB72BBB
:100D00002091D401A22B2091D201922B80937001CB
:100D100090937101A0937201B0937301ED2FFC2F9A
:100D20002CE130E0AC01BD01022E04C07695679540
:100D3000579547950A94D2F74F704A3068F4405D52
:100D40004193245031092C3F4FEF340759F7DF917D
:100D5000CF911F910F910895495CF2CF95E0899F43
:100D6000F0011124EE5EFD4F108211821282138277
:100D700014820895CF93C82F60E086E00E94A402F9
:100D800060E087E00E94A40260E088E00E94A40284
:100D900060E085E00E94A4028C2FCF910C94AE06F7
:100DA000CF93C82F862F60E00E94A4028C2FCF9192
:100DB0000C94AE064F925F926F927F928F929F92A9
:100DC000AF92BF92CF92DF92EF92FF920F931F9359
:100DD000CF93DF934C017B016A010E947D032B01BD
:100DE0003C01B12CA12C83E393E00E94FE03892BEC
:100DF00069F40E947D0364197509860997096815CD
:100E000079058A059B0510F4A895EDCF83E393E05F
:100E10000E94FE03892BD1F1F60101900020E9F731
:100E200031978F010C191D090E947D034B015C0154
:100E3000D0E0C0E011272701712C612CA89583E335
:100E400093E00E94FE03892BB1F083E393E00E94BC
:100E50001404F601EC0FFD1F9081981306C0219633
:100E6000C017D10721F481E012C0D0E0C0E00E9499
:100E70007D034B015C010E947D03681979098A0991
:100E80009B096415750586059705C0F280E0DF9122
:100E9000CF911F910F91FF90EF90DF90CF90BF9077
:100EA000AF909F908F907F906F905F904F9008953C
:100EB000FB0101900020E9F73197AF01461B570B6A
:100EC000DC01ED91FC910280F381E02D0994CF9338
:100ED000DF93BC0183E393E00E946E01EC0166E5C1
:100EE00071E083E393E00E9458078C0F9D1FDF9110
:100EF000CF9108958F929F92AF92BF92EF92FF92FF
:100F00000F931F93CF93DF93CDB7DEB7A1970FB6A3
:100F1000F894DEBF0FBECDBF7C01FA01CB0119A250
:100F2000223008F42AE08E010F5D1F4F822E912C93
:100F3000B12CA12CBF01A50194010E947021F901DF
:100F4000CA016A300CF5605DD8016E938D01232BC8
:100F5000242B252B79F790E080E0109721F0BD013C
:100F6000C7010E945807A1960FB6F894DEBF0FBEC6
:100F7000CDBFDF91CF911F910F91FF90EF90BF9068
:100F8000AF909F908F900895695CDECFCF93DF93F1
:100F90008E3F2FEF920740F068E670E086E992E01E
:100FA000DF91CF910C946E016AE070E00E944821BD
:100FB000EC01AB0170E060E02AE086E992E00E947B
:100FC0007A078EE20E947F02AE0170E060E02AE0C4
:100FD00086E992E0DF91CF910C947A076BE670E09E
:100FE00086E992E00E946E018091060190910701CE
:100FF0000E94C6078CE20E947F02809104019091BA
:1010000005010E94C6078CE20E947F0280910201C6
:10101000909103010E94C6078CE20E947F0280919A
:101020000001909101010E94C60766E571E086E922
:1010300092E00C9458070F931F93CF93DF93209166
:10104000EB03211107C0C0E08C2FDF91CF911F91DE
:101050000F910895EB018C0164E372E083E393E068
:101060000E946E0168E772E083E393E00E945807F4
:1010700082E392E00E94670749E551E064EF71E086
:1010800088EE93E00E94DA068823E9F262E370E0DA
:1010900088EE93E00E94350401151105D1F0C801D6
:1010A0000E9467076AE183E393E00E94A20343E59D
:1010B00051E068E873E188E59BE10E94DA06C82FF9
:1010C000882309F262E370E088EE93E00E94350421
:1010D000BBCF209729F0BE0183E393E00E9458071D
:1010E00066E571E083E393E00E945807DBCF20912F
:1010F0007802222329F0BC0190E080E00C941B08C8
:101100000895CF93DF93CDB7DEB72A970FB6F89443
:10111000DEBF0FBECDBF83E28983CE0102960E945F
:10112000F2051A86CE0101960E9477082A960FB61C
:10113000F894DEBF0FBECDBFDF91CF910895CF925F
:10114000DF92EF92FF920F931F93CF93DF93182FAD
:10115000062F25E0829FE0011124CE5EDD4FC9807D
:10116000DA80EB80FC80C114D104E104F10479F44D
:101170000E947D0369837A838B839C83DF91CF9167
:101180001F910F91FF90EF90DF90CF9008950E94F4
:101190007D03DC01CB018C199D09AE09BF0961E01B
:1011A0008C3221E09207A105B105E0F0803921E001
:1011B0009207A105B10560F461E0802FDF91CF9126
:1011C0001F910F91FF90EF90DF90CF900C94A402AD
:1011D00060E08C3B9240A105B10530F4802F0E9465
:1011E000A40260E085E0EACF802F0E94A40260E0C4
:1011F00085E00E94A402C881C23039F480910302C4
:101200008170163091F4882391F0812F0E94AE06F0
:10121000C23009F0B3CFDF91CF911F910F91FF90B2
:10122000EF90DF90CF900C948108882371F3809128
:101230000302846080930302E8CFCF92DF92EF92A3
:10124000FF920F931F93CF93C82F0E947D036B01D2
:101250007C010C2F10E025E0C29FF0011124EE5E0E
:10126000FD4F81819281A381B481892B8A2B8B2BA5
:1012700059F4C182D282E382F4828091FB018330EF
:10128000E0F48F5F8093FB0185E0809FF001819FF8
:10129000F00D1124EE5EFD4F81819281A381B48116
:1012A000A7019601281B390B4A0B5B0BDA01C90118
:1012B000883C9105A105B10558F461E085E0CF9126
:1012C0001F910F91FF90EF90DF90CF900C94A402AC
:1012D000883532E09307A105B10528F483E1C111F7
:1012E00082E161E0ECCF8C3B42E09407A105B105BF
:1012F00028F483E1C11182E160E0E1CF2091000296
:10130000322F387023FD12C0CC23D1F0883E53E039
:101310009507A105B10560F481E0CF911F910F9170
:10132000FF90EF90DF90CF900C94D305CC2341F049
:101330008C3444E09407A105B10510F480E0EDCFB2
:10134000287259F4C1117DC0803243E09407A10591
:10135000B10580F461E088E0B2CF203249F4C111D8
:10136000C8C0883E43E09407A105B10518F4D4CF66
:10137000C1116EC0843145E09407A105B105F0F2BA
:1013800048EB5BE060E070E06EC0332321F160E089
:1013900088E00E94A40260E085E00E94A40280919F
:1013A00000028D7F8093000280911C02853019F429
:1013B00086E080931C021092FB0185E0809FF00183
:1013C000819FF00D1124EE5EFD4F1082118212827A
:1013D0001382148286C08091FB018330D0F485E0B3
:1013E000809FF001819FF00D1124EE5EFD4F118270
:1013F00012821382148282E0C11101C081E095E063
:10140000909FF001919FF00D1124EE5EFD4F8083BF
:1014100068C060E088E00E94A40260E085E00E946D
:10142000A40280910302846080930302C1110E9490
:1014300081081092FB01809100028D7F8093000251
:10144000BCCF803B54E09507A105B10508F482CFDD
:10145000843A56E09507A105B10508F46FCF48E43A
:101460005DE060E070E084179507A607B70708F015
:101470008CCF2832B1F560E088E00E94A40260E0E1
:1014800085E00E94A402CC2389F082E080932102AF
:10149000C0922202D0922302E0922402F09225020E
:1014A00080911C02811102C00E9481081092FB01F0
:1014B000809100028D7F8093000285E0809FF00183
:1014C000819FF00D1124EE5EFD4F10821182128279
:1014D0001382148280911C02853019F486E0809377
:1014E0001C02CF911F910F91FF90EF90DF90CF9052
:1014F0000895883755E09507A105B10508F40CCF8C
:10150000A7CF20917802222321F070E060E00C94B4
:101510001B0808958F929F92AF92BF92DF92EF9235
:10152000FF920F931F93CF93DF93D62E7A01082F4C
:1015300010E025E0829FE0011124CE5EDD4F89811D
:101540009A81AB81BC81892B8A2B8B2B49F40E9419
:101550007D0369837A838B839C8381E0809353022C
:101560000E947D0325E0209FF001219FF00D1124B2
:10157000EE5EFD4F81809280A380B480DC01CB01C0
:1015800088199909AA09BB0961E0843F21E0920703
:10159000A105B10530F080329340A105B10578F482
:1015A00060E08D2DDF91CF911F910F91FF90EF9013
:1015B000DF90BF90AF909F908F900C94A402808199
:1015C000823019F4C7010E94810A60E08D2D0E94CB
:1015D000A40285E0809FF001819FF00D1124EE5E52
:1015E000FD4F10821182128213821482DF91CF91FB
:1015F0001F910F91FF90EF90DF90BF90AF909F9061
:101600008F900895CF92DF92EF92FF92CF93DF9366
:10161000CDB7DEB729970FB6F894DEBF0FBECDBFAA
:1016200083E20E947F02C090FF010C2C000CDD08B9
:10163000EE08FF082AE0B701A601F7FE0BC08DE215
:101640000E947F0244275527BA014C195D096E0993
:101650007F092AE086E992E00E947A078EE20E94E2
:101660007F024091FE0150E070E060E02AE086E9F0
:1016700092E00E947A0783E20E947F024091FD017E
:1016800050E070E060E02AE086E992E00E947A078C
:101690008EE20E947F024091FC0150E070E060E029
:1016A0002AE086E992E00E947A0783E20E947F02A4
:1016B000CE0101960E94F2051986BE016F5F7F4F31
:1016C00086E992E00E94580766E571E086E992E0BB
:1016D0000E94580729960FB6F894DEBF0FBECDBF03
:1016E000DF91CF91FF90EF90DF90CF9008950F930F
:1016F0001F930091E5031091E6032091E7033091D9
:10170000E80340E052E16AE770E080E00417150763
:101710002607370740F476956795579547958F5F6D
:101720008630A1F787E0982F906A96958095817012
:101730009CBD8DBD60E08091E4031F910F910C94DE
:10174000A402CF93C82F0E94770B83E00E9441052B
:101750008C2F0E94410580E00E944105C82F0E9405
:10176000F0028C2FCF9108951F93CF93DF93182F02
:10177000D62FC42F0E94770B85E00E944105812F50
:101780000E9441058D2F0E9441058C2F0E9441052A
:10179000DF91CF911F910C94F002CF92DF92EF92E4
:1017A000FF92CF93C82F482F60EE8FE00E94B40BBA
:1017B0000E947D036B017C012AE0C20ED11CE11C5A
:1017C000F11C0E947D036C157D058E059F0580F43C
:1017D0008EE00E94A10B807EC813F3CF81E091E0E0
:1017E000892790E0CF91FF90EF90DF90CF90089500
:1017F00080E0F5CFCF93DF93D82FC62F0E94770BD1
:1018000082E00E9441058D2F0E9441058C2F0E948D
:101810004105DF91CF910C94F002FF920F931F933B
:10182000CF93DF93C82FF62E172F042F0E94770B2C
:1018300083E00E9441058C2F0E944105CF2DD12FBE
:101840000C0F1D2F111DC017D10729F080E00E9439
:1018500041058993F8CFDF91CF911F910F91FF90B0
:101860000C94F002BF92CF92DF92EF92FF920F930F
:101870001F93CF93DF9300D000D01F92CDB7DEB778
:101880008C01000F111F000F111FF801E25EFE4FC7
:1018900045E0BE016F5F7F4F81810E940D0C8A8100
:1018A000C98098E0C99E60011124282F30E055E0DE
:1018B000359527955A95E1F7C20ED31E0D2C000CD5
:1018C000EE08FF0883FF20C092E0CC0CDD1CEE1C6C
:1018D000FF1C9A95D1F78370C80ED11CE11CF11C36
:1018E000FE2CED2CDC2CCC248B81C80ED11CE11CF1
:1018F000F11CFE2CED2CDC2CCC248C81C80ED11CD0
:10190000E11CF11C6894F7F88D818F70B82EE8E027
:1019100081E090E0EB1528F1F801E25EFE4F808156
:101920000E94A10B83FF02C06894F6F8C09268027F
:10193000D0926902E0926A02F0926B02B0926C025D
:10194000025E1E4F4B2D60E772E0F80182810E941B
:101950000D0C40E0F80163818CE20E94B40B90E032
:1019600080E00F900F900F900F900F90DF91CF912C
:101970001F910F91FF90EF90DF90CF90BF9008954F
:101980000E94770B80EC0E9441050E94F0026AE001
:1019900070E080E090E00E944B0364E080E60E94EB
:1019A000FA0B63EA8BE20E94FA0B80E80E94CD0BEF
:1019B000892B61F460E08AE20E94FA0B60EF89E211
:1019C0000E94FA0B66E888E20E94FA0B80E00C9411
:1019D000CD0B4F925F926F927F928F929F92AF92B8
:1019E000BF92CF92DF92EF92FF920F931F93CF930C
:1019F000DF93CDB7DEB763970FB6F894DEBF0FBEA7
:101A0000CDBFFC012481293008F0B2C06C0186E012
:101A1000ECE0F1E0DE011E9601900D928A95E1F76F
:101A20003E01FEE06F0E711C4E0184E1880E911C98
:101A3000F301E190F1903F018701000F111FF801C0
:101A4000EE0DFF1DEA5DFE4FA0808A2D0E94A10BC6
:101A500083FDAAC0F601B480F8E0FB1508F488C045
:101A6000F6014081518162817381DB01CA018827BF
:101A7000B7FD83959927AA27BB27282FDB01CA0129
:101A800088279927AA27B07444244A94542C642C9C
:101A9000EFE17E2E211106C044244A9437E0532EF4
:101AA000612C712C4421552166217721222309F4D0
:101AB00043C04C835B83AB0166277727242F220F1B
:101AC000220F220F207E342F33703860232B2A837D
:101AD000F5E056954795FA95E1F74983892B8A2BCE
:101AE0008B2BC1F18B2D80648D834B2D50E0B60183
:101AF000685F7F4FCE0106960E94B221F5E0BF0ECF
:101B00000E0D1F1DF801EA5DFE4F11810E94770B3B
:101B100082E00E944105812F0E944105CE0101967D
:101B20007C018C01802F8E198B15B0F4F801819106
:101B30008F010E944105F6CF9A0153E03695279513
:101B40005A95E1F729834295440F407E4A831C82CF
:101B50001B82C4CF8B2DC8CF0E94F00248E068E002
:101B60008A2D0E94B40B8A2D0E94A10B807719F058
:101B700084E090E002C090E080E063960FB6F894B5
:101B8000DEBF0FBECDBFDF91CF911F910F91FF90B0
:101B9000EF90DF90CF90BF90AF909F908F907F900D
:101BA0006F905F904F9008956814790409F040CFCA
:101BB00082E090E0E2CFCF93DF93CDB7DEB76797B7
:101BC0000FB6F894DEBF0FBECDBFFE013896E87F9A
:101BD0009F012C5F3F4F8AE0D9011D928A95E9F75A
:101BE00081EE95E0A0E0B0E080839183A283B3838F
:101BF00088E0848380E6808781E0818795E0928712
:101C000083878FEF858786878787CF010E94E90CBE
:101C100067960FB6F894DEBF0FBECDBFDF91CF91B0
:101C20000895E8E6F2E046EB52E060E070E04083C1
:101C300051836283738392E0948380871186CF01FE
:101C40000C94E90C46EC51E060E070E040936802CF
:101C50005093690260936A0270936B0294E09093D0
:101C60006C02813089F080E0109271021092700253
:101C7000809373028093720288E692E00E94E90CDE
:101C800088E692E00C94E90C82E5EECFE8E6F2E01B
:101C90004AE352E060E070E04083518362837383E3
:101CA00094E0948391E1908793EF918782878FE30B
:101CB0008387CF010E94E90C88E692E00E94E90C3C
:101CC00088E692E00C94E90C0C9418210F931F9372
:101CD000CF93DF93CDB7DEB768970FB6F894DEBF2A
:101CE0000FBECDBF062FBC01CE0101960E94EF2092
:101CF00010E081E090E08C0F9D1F800F911F0E94EB
:101D0000F205FE01E00FF11F1186CE0101960E943F
:101D1000770868960FB6F894DEBF0FBECDBFDF918F
:101D2000CF911F910F910895FF920F931F93CF931F
:101D3000DF93EC01F62E08811981C8010E94182159
:101D4000F81621F06F2DC8010E942021CE01DF91ED
:101D5000CF911F910F91FF9008954F925F926F92D4
:101D60007F928F929F92AF92BF92DF92EF92FF92FB
:101D70000F931F93CF93DF9300D0CDB7DEB7409082
:101D8000090250900A0260900B0270900C02809041
:101D9000050290900602A0900702B090080204E8A5
:101DA00013E0F12CE12C1A830983C301B2010E2C3C
:101DB00004C096958795779567950A94D2F7CE01DA
:101DC00001960E94940EC80104969A838983C501E6
:101DD000B4010E2C04C096958795779567950A9463
:101DE000D2F7CE0101960E94940E88E0E80EF11C15
:101DF0000F5F1F4F083883E01807A9F68CE893E0BF
:101E00009A83898367EACE0101960E94940E0F900F
:101E10000F90DF91CF911F910F91FF90EF90DF9086
:101E2000BF90AF909F908F907F906F905F904F90FA
:101E30000895FF920F931F93CF93DF9381E08093D8
:101E4000530208E712E0D0E0C0E0F801F1908F0102
:101E5000CE010E941821F81621F06F2DCE010E94AC
:101E600020212196CE31D10581F7DF91CF911F91AD
:101E70000F91FF9008951F920F920FB60F921124A9
:101E80002F933F934F935F936F937F938F939F9382
:101E9000AF93BF93EF93FF9386E992E00E94100205
:101EA000FF91EF91BF91AF919F918F917F916F9132
:101EB0005F914F913F912F910F900FBE0F901F9008
:101EC00018951F920F920FB60F9211242F938F9394
:101ED0009F93EF93FF93E091A602F091A702808178
:101EE000E091AC02F091AD0282FD1BC09081809127
:101EF000AF028F5F8F732091B002821741F0E091A3
:101F0000AF02F0E0EA56FD4F958F8093AF02FF914C
:101F1000EF919F918F912F910F900FBE0F901F9077
:101F200018958081F4CF1F920F920FB60F92112453
:101F30002F933F938F939F93AF93BF938091B5015E
:101F40009091B601A091B701B091B8013091B40160
:101F500023E0230F2D3758F50196A11DB11D2093C5
:101F6000B4018093B5019093B601A093B701B093EB
:101F7000B8018091B9019091BA01A091BB01B091D3
:101F8000BC010196A11DB11D8093B9019093BA01C6
:101F9000A093BB01B093BC01BF91AF919F918F9172
:101FA0003F912F910F900FBE0F901F90189526E82C
:101FB000230F0296A11DB11DD2CF1F920F920FB613
:101FC0000F9211242F933F934F935F936F937F93BF
:101FD0008F939F93AF93BF93EF93FF93E091BF01D4
:101FE000F091C001309749F0A685B7858585968D1B
:101FF00091FF14C09C918923A1F4FF91EF91BF91AF
:10200000AF919F918F917F916F915F914F913F9190
:102010002F910F900FBE0F901F9018959C918923C0
:1020200061F7A389B4899C918589809589238C93D4
:10203000868997890197F1F7608D718DA685B7859F
:10204000558538E020E0CB010197F1F7822F90E031
:1020500095958795282F4C91452309F0206831509C
:1020600091F7868D81FD20958091BE0190E00196CB
:102070008F7399273091BD01381799F0A091BE0157
:10208000B0E0AC58BE4F2C938093BE01828D938DEF
:102090000197F1F7A389B4898C919589892B8C9349
:1020A000ACCF868D8160868FF1CFCF93109299024D
:1020B0001092980288EE93E0A0E0B0E080939A023C
:1020C00090939B02A0939C02B0939D0223E331E086
:1020D000309397022093960225EC30E03093A302D0
:1020E0002093A20224EC30E03093A5022093A402B6
:1020F00020EC30E03093A7022093A60221EC30E0E0
:102100003093A9022093A80222EC30E03093AB0276
:102110002093AA0226EC30E03093AD022093AC026B
:102120001092AF021092B0021092B1021092B2025D
:10213000109236031092350380933703909338033F
:10214000A0933903B0933A0385E491E0909334036C
:102150008093330310924A031092490310924C0368
:1021600010924B0310924E0310924D0310925003A5
:1021700010924F03609151036E7F6D7F6093510306
:102180006695617081E0682783E00E94A40261E0A7
:1021900083E00E94F502EFE5F2E0E491E09343036F
:1021A000E3E7F2E0E491F0E0EE0FFF1FE85BFD4FA4
:1021B00085919491909345038093440360E082E07D
:1021C0000E94F5028091510381FD04C061E082E02C
:1021D0000E94A40282E080933F03EEE5F2E0E491E6
:1021E000E0934003E2E7F2E0E491F0E0EE0FFF1F3E
:1021F000E25CFD4F8591949190934203809341035B
:102200001092EB038FEF9FEF9093ED038093EC031D
:1022100083E593E09093EA038093E903CFB7F894C2
:1022200080915203811127C0EAE7F2E08491E6E64B
:10223000F2E09491E82FF0E0EE0FFF1FEE5AFD4F11
:10224000A591B491EC91E92321F461E08AE00E9428
:10225000A40261E08AE00E94F5028CB580618CBD29
:102260008CB580648CBD61E08DE00E94F50261E078
:102270008BE00E94F502809152038F5F809352039E
:10228000CFBF8AE08093E40380E896E9A8E9B0E054
:102290008093E5039093E603A093E703B093E803EC
:1022A00061E08AE00E94F50261E08091E4030E940F
:1022B000A402E4E5F3E084EE93E010861186128632
:1022C00013863C968E179F07C1F7CF910895CF9341
:1022D000DF93CDB7DEB7AC970FB6F894DEBF0FBE75
:1022E000CDBF789484B5826084BD84B5816084BD9F
:1022F00085B5826085BD85B5816085BD80916E00A4
:10230000816080936E0010928100809181008260D4
:102310008093810080918100816080938100809111
:1023200080008160809380008091B1008460809300
:10233000B1008091B00081608093B00080917A00FC
:10234000846080937A0080917A00826080937A0022
:1023500080917A00816080937A0080917A00806811
:1023600080937A001092C100E091A602F091A7023A
:1023700082E08083E091A202F091A3021082E091BA
:10238000A402F091A50280E180831092AE02E09158
:10239000AA02F091AB0286E08083E091A802F0915E
:1023A000A902808180618083E091A802F091A90256
:1023B000808188608083E091A802F091A9028081E9
:1023C00080688083E091A802F091A90280818F7DCE
:1023D00080838CE0E2E1F1E0DE01119601900D9244
:1023E0008A95E1F78E010F5F1F4F1E012DE0220E2F
:1023F000311CD801FD908D0161E08F2D0E94F50206
:1024000060E08F2D0E94A4020215130591F70E942F
:10241000C00C78E7E72E72E0F72E10E000E0C8016C
:102420000E941821F70181937F010F5F1F4F0E312A
:102430001105A9F783E290E00E94640E8093D40115
:1024400087E390E00E94640E8093D201F12CE12C8E
:1024500004E813E0412C512C3201812C912C5401C1
:10246000C8010E94640E90E0B0E0A0E00E2C04C011
:10247000880F991FAA1FBB1F0A94D2F7882A992A8E
:10248000AA2ABB2AC80104960E94640E90E0B0E01C
:10249000A0E00E2C04C0880F991FAA1FBB1F0A942E
:1024A000D2F7482A592A6A2A7B2A0F5F1F4FF8E081
:1024B000EF0EF11C083823E0120791F68CE893E048
:1024C0000E94640E873A09F023C18092090290921B
:1024D0000A02A0920B02B0920C02409205025092A6
:1024E0000602609207027092080281E08093530214
:1024F00088E199E20FB6F894A895809360000FBE2A
:10250000909360008091620281112FC10E947D032F
:10251000613177428105910508F427C11092EB03E0
:1025200010924E0310924D0310924C0310924B03E5
:1025300010924A031092490382E490E09093500372
:1025400080934F0390913F03963108F047C02FE0EE
:1025500030E030934A032093490320E430E0309385
:102560004C0320934B0327E230E030934E0320933B
:102570004D032091680084E0983048F031E09E30AF
:1025800008F430E081E001C0880F3A95EAF7822B29
:10259000809368002DE630E0983050F02BE630E074
:1025A0009E3030F02CE630E0963110F030E020E044
:1025B0003093470320934603292F30E0983008F0EA
:1025C000C4C081E001C0880F9A95EAF78093480360
:1025D00080914F03909150030197F1F780914D0343
:1025E00090914E03892B49F1E091BF01F091C00118
:1025F00043E0E333F40709F1309739F0A389B48954
:102600009C918589809589238C93809151038E7F3D
:10261000809351031092BE011092BD0183E393E0B9
:102620009093C0018093BF01E0914603F09147036E
:10263000808190914803892B808364EF71E080E072
:1026400090E00E944B0383E393E00E94FE03892BFA
:1026500031F064E170E088EC90E00E94350404E021
:1026600010E068E9E62E60E0F62EBB24B39401503A
:10267000110909F477C08091EB03811173C0A8950B
:1026800083EE90E00E94670768EE73E080E090E0E0
:102690000E94FC04882359F38EED90E09A8389838D
:1026A000A0EDB0E0BC83AB83EBECF0E0FE83ED8308
:1026B00051EC852E50E0952E98868F822FEA30E0DF
:1026C0003A872987FC86EB86AE014F5F5F4F6A0130
:1026D000A895D6018D919D916D010E94670760EDCF
:1026E00077E080E090E00E94FC04882309F4BFCFEB
:1026F0002C143D0469F7B092EB0385E890E00E944A
:10270000670768E873E180E090E00E94FC04AFCFC7
:10271000A4E2B0E0A50194010E9492216093090215
:1027200070930A0280930B0290930C02A301920112
:102730000E94922160930502709306028093070223
:10274000909308020E94AD0ED0CE9E3040F42850E7
:10275000310981E001C0880F2A95EAF737CF2E5062
:102760003109F7CF81E0809362020E94770B80EA03
:102770000E94410580E00E944105182F0E94F0024E
:1027800090E080E010FD04C011FF2DC181E090E0D9
:102790000E94320C892B09F026C10E947D036093B0
:1027A000C1017093C2018093C3019093C401209131
:1027B00000022E7F209300028091680290916902AE
:1027C000A0916A02B0916B028135E3E09E07A105FA
:1027D000B10509F4C7C408F08DC28A3C32E0930702
:1027E000A105B10509F476C3E0F5833751E09507FB
:1027F000A105B10509F484C48A33E2E09E07A1056E
:10280000B10509F4FAC3823A9105A105B105C1F5F4
:1028100090917002983009F418C308F009C39230FF
:1028200009F40FC380917102883009F423C308F0C2
:1028300014C3823009F41AC3911122C0811120C03F
:10284000109284031092900310929C031092A8039C
:102850001092B4031092C0031092CC031092D803CC
:102860000FC08C3FF2E09F07A105B10509F477C3C3
:1028700008F026C2803F9240A105B10509F420C3AB
:1028800080918703813021F41092870380933F0267
:1028900080919303813021F410929303809344023A
:1028A00080919F03813009F090C410929F0381E0D2
:1028B000809349028091AB03813021F41092AB03E5
:1028C00080934E028091B703813021F41092B703B8
:1028D000809335028091C303813089F51092C30340
:1028E00080EA92E0A0E0B0E08093680290936902F1
:1028F000A0936A02B0936B0288E080936C0288E830
:10290000809370028093710280EF809372028DE455
:10291000809373028FEF809374028093750280938B
:1029200076028093770288E692E00E94E90C88E6BE
:1029300092E00E94E90C88E692E00E94E90C809106
:10294000DB03813021F41092DB0380935D028091E0
:102950005703833029F41092570381E080933A02A1
:1029600020916303213039F5109263033091000206
:1029700037FB882780F990910102492F4170842B01
:1029800091FB442740F9842B92FB442740F9842B88
:1029900091F093FD10C032FD0EC088EC90E0A0E0F5
:1029A000B0E08093080190930901A0930A01B093CD
:1029B0000B012093580280917B038130A1F4109287
:1029C0007B039091120291110EC0909126029111F9
:1029D0000AC090912102911100C49091000293FDD0
:1029E000FCC3809312020E947D030091C1011091EB
:1029F000C2012091C3013091C401601B710B820B95
:102A0000930B613E734984409105C8F080910002A8
:102A100080FD15C00E94C00C0E947D036093C1011F
:102A20007093C2018093C3019093C401809100020E
:102A30008160809300021092D0010E94AD0E8091BF
:102A40001202811145C080911702811141C080910D
:102A5000000286FD3DC090910202492F4170809195
:102A6000010284FB332730F9232F242740FB84F90C
:102A700092FB442740F985FB332730F93427322B6A
:102A800040FB85F994FB442740F986FB222720F977
:102A90002427322B40FB86F996FB442740F987FB1D
:102AA000222720F92427232B40FB87F9809301025A
:102AB000222371F0957580910302992309F491C343
:102AC0008460809303026BE083EF90E00E94660EC7
:102AD0000E947D03E4E5F3E021E0C480D580E68038
:102AE000F7804B015C018C189D08AE08BF0875018A
:102AF000640139EBC3163BE0D306E104F10408F0AE
:102B0000138241813081411173C3332329F06087DF
:102B100071878287938721833C9643E0E43EF407E4
:102B2000E1F610912102112301F10E947D03C09072
:102B30002202D0902302E0902402F09025026C192A
:102B40007D098E099F09613A7B4B8D40910510F4F8
:102B50000C946220123039F480912602811103C056
:102B600084E080932602109221020E94DE0590915B
:102B7000030292FB772770F96091D4015091D20142
:102B80004091D00193FB332730F9209100028091CE
:102B90000202371341C095FB332730F994FBEE272F
:102BA000E0F93E1339C091FB332730F991703913A6
:102BB00033C0982F917081FB332730F993132CC0C9
:102BC00083FB992790F982FB332730F9931324C0B4
:102BD00085FB992790F984FB332730F993131CC0A8
:102BE00087FB992790F986FB332730F9931314C09C
:102BF00024FB992790F923FB332730F993130CC05A
:102C00009091D501691308C09091D301591304C064
:102C10009091D101941739F13091030270FB33F98F
:102C2000932F34FB95F9392F90FB31F93093030240
:102C3000382F80FB31F9932F32FB93F9892F94FBC6
:102C400085F9982F86FB97F990930202822F23FB38
:102C500084F9809300026093D5015093D30140938F
:102C6000D1010E94020B11E005E042E0F42E86E95A
:102C700092E00E94F001892B09F49DC386E992E05D
:102C80000E94CE019091CF01E92FF0E0EB53FE4F6F
:102C90008A3039F08D3029F0882319F0993008F402
:102CA00085C3108261E571E085EC91E00E94E62029
:102CB000892B09F0BDC20E94020B1092CF01D7CF21
:102CC0008E3243E09407A105B10509F41AC180339F
:102CD0009340A105B10509F0D3CD609173026093D3
:102CE000D20187E390E09A838983CE0101960E9406
:102CF000940EC6CD873BE3E09E07A105B10509F41C
:102D00004EC208F05AC0833A23E09207A105B105EC
:102D100009F4B8C0863B33E09307A105B10509F477
:102D200028C28B369340A105B10509F0A9CD609169
:102D30007002709171024091720250917302209161
:102D40007402309175028091760290917702E09141
:102D50000601F09107016E177F0709F067C0E09147
:102D60000401F09105014E175F0709F05FC0E09183
:102D70000201F0910301A1E02E173F0741F4E09119
:102D80000001F0910101E817F90709F4A0E0709340
:102D900007016093060150930501409304013093AD
:102DA0000301209302019093010180930001AA2363
:102DB00009F466CD0E94EE0763CD893B53E0950789
:102DC000A105B10509F4F6C108F4DEC1893FF3E0BD
:102DD0009F07A105B10509F498C182319440A1056E
:102DE000B10509F04DCD8091700290917102A091D2
:102DF0007202B09173024091740250917502609119
:102E000076027091770270584093090250930A023B
:102E100060930B0270930C02B0588093050290935C
:102E20000602A0930702B09308022ACDA1E0AFCF1B
:102E3000903279F0903809F0F5CC81E08093A803C6
:102E4000F1CC81E080938403EDCC81E0809390030A
:102E5000E9CC81E080939C03E5CC803279F0803826
:102E600009F0EACC81E08093D8030ACD81E0809319
:102E7000B40306CD81E08093C00302CD81E080934E
:102E8000CC03FECC80917002803D49F480917102A8
:102E90008F3F09F0F5CC84E00E94460EF1CC883CCF
:102EA00009F0EECC809171028F3F09F0E9CC81E00E
:102EB0000E94460E80910002806480930002E0CC64
:102EC000809170028C70883009F0DACC82E08093B7
:102ED0001702D6CC8091700235E0839FC001112487
:102EE000805991406AE070E00E945C216093FF018C
:102EF0009C0197FF03C03195219531092093FE0174
:102F0000BFCC2091730291E02F3E09F090E08091B8
:102F1000030290FB87F98093030291E02C3309F4BC
:102F200090E08091030290FB86F9809303024AE0CF
:102F3000249F90011124C9016CE370E00E945C2180
:102F40006093FD01C90166E070E00E945C21CB0145
:102F50006AE070E00E945C218093FC0191CC80913A
:102F600003029091700290FB80F98093030280919C
:102F70007102982F937051E0913009F050E09091D8
:102F8000020250FB90F99093020241E0982F9C704E
:102F9000943009F040E09091020240FB92F9909346
:102FA000020231E0982F9073903109F030E0909157
:102FB000020230FB94F990930202807C21E080347D
:102FC00009F020E08091020220FB86F98093020242
:102FD0009091040290FD54CC8091010250FB84F941
:102FE00040FB85F930FB86F920FB87F980930102CD
:102FF000892F81608093040243CC809172028430D7
:1030000061F4809173028F3309F03ACC81E08093B0
:1030100060032F7B2093000233CC8130E1F4809158
:1030200073028F3309F02CCC81E08093540380919C
:1030300000028064809300021092210280910102BC
:10304000877F809301028091030282FF19CC8B7FDE
:103050008093030215CC803171F4809173028F3319
:1030600009F00ECC80917502833F09F409CC81E010
:1030700080936C0305CC811133C0809173028F3330
:1030800009F0FECB809174028F3F09F0F9CB80915B
:103090007502813FA9F48091000291E0282F2270EF
:1030A00081FD90E09093780386958170211101C095
:1030B00081E09091000280FB91F990930002E0CBB7
:1030C000803F09F0DDCB1092600310925403109200
:1030D0006C03809101028F788F7780930102D0CBAF
:1030E000803409F0CDCB809173028F3309F0C8CBC7
:1030F00010927803809100028D7F80930002E9CFC7
:103100008091770280FB25F985CF809173028370CF
:1031100091E0823009F090E08091000290FB83F909
:103120008093000283FD19C0809121028823A9F0B9
:103130000E947D030091220210912302209124021B
:1031400030912502601B710B820B930B693E73401B
:103150008105910510F010922102809174028093F4
:10316000D0018ECB609173026093D40183E290E032
:10317000BACD91E0809171028C3F09F490E080918A
:10318000000290FB87F999CE91E0809171028C3F0B
:1031900009F490E08091010290FB80F99ECF91E0CC
:1031A00080917002811101C090E08091010290FB3A
:1031B00081F993CF91E080917002811101C090E07C
:1031C0008091010290FB82F988CF80916F0381305A
:1031D00009F070CB10926F036ACB81E080932602D6
:1031E00002CC8B7F809303026CE086EE90E06ECC85
:1031F000311192CC12821182C084D184E284F38492
:103200004B015C018C189D08AE08BF087501640174
:1032100038EEC31633E0D306E104F10408F07CCCA9
:1032200033813F5F3383648375838683978374CC54
:103230006CE471E085EC91E00E94E620892B19F4A2
:103240000E94EE073ACD66E471E085EC91E00E94C1
:10325000E620892B29F4F89414BE0C94003F2DCD60
:1032600062E471E085EC91E00E94E620892B19F47C
:1032700010933A0222CD6DE371E085EC91E00E945B
:10328000E620892B19F41093300217CD66E371E024
:1032900085EC91E00E94E620892B19F410932B0213
:1032A0000CCD61E371E085EC91E00E94E620892B72
:1032B00019F410933F0201CD6CE271E085EC91E0CE
:1032C0000E94E620892B19F410934402F6CC67E2A1
:1032D00071E085EC91E00E94E620892B19F41093AF
:1032E0004902EBCC62E271E085EC91E00E94E620BD
:1032F000892B19F410934E02E0CC6DE171E085EC5E
:1033000091E00E94E620892B39F48091000283FF2E
:1033100003C010932602D1CC67E171E085EC91E007
:103320000E94E620892B21F48091000283FF0BC0CC
:1033300063E171E085EC91E00E94E620892B31F495
:1033400010935D02BACC10931202B7CC6DE071E01D
:1033500085EC91E00E94E620892B19F40E94DB0D98
:10336000ACCC68E071E085EC91E00E94E620892B0E
:1033700079F488E592E0A0E0B0E0809308019093B2
:103380000901A0930A01B0930B01F092580295CC69
:103390006FEF70E085EC91E00E94E620892B09F048
:1033A0008CCC1093120200931C0287CC9F5F9093E9
:1033B000CF0180835CCC0E947D030091F7011091C6
:1033C000F8012091F9013091FA01601B710B820B19
:1033D000930B683E73408105910508F411C10E946A
:1033E0007D036093F7017093F8018093F901909346
:1033F000FA0183E393E00E94FE03892B09F400C1E4
:10340000A89583E393E00E941404182F0091F6011D
:103410000F3168F0E02FE051FF0BAF0166EE71E075
:1034200086ED91E00E94BB2100510093F601E091EE
:10343000F601BB24B394BE0EB092F601F0E0EA525E
:10344000FE4F1083EB2CF12CF701EA52FE4F108255
:103450006BE571E086ED91E00E94E8216C01009738
:1034600041F26AE070E00E94CD218C01892B09F4C1
:10347000C0CF6CE270E0C6010E94CD21009719F028
:103480008017910718F01092F601B3CF01960E94B1
:10349000C8206C01055D11400B1508F496C0109210
:1034A000F601E091F601F0E0EA52FE4F10821C14A2
:1034B0001D040CF09ECF8091EB03882309F499CF73
:1034C00068E571E083E393E00E946E014C2D50E0CB
:1034D00070E060E02AE083E393E00E947A0766E50B
:1034E00071E083E393E00E94580742E651E062E313
:1034F00070E080E197E20E94DA06882309F479CF30
:1035000022E242E270E060E090E080E00E948F04FE
:10351000882309F46ECF22E242E26FE070E08EE28F
:1035200094E00E948F04882309F463CF22E242E2F0
:1035300070E060E090E080E00E948F04882309F44E
:1035400058CF22E242E270E060E090E080E00E942A
:103550008F04882309F44DCF2DE04AE060E470E049
:103560008EEE93E00E948F04882309F442CF62E339
:1035700070E088EE93E00E943504D092ED03C09293
:10358000EC0368E772E08EE294E00E94D821892B78
:1035900059F167E872E08EE294E00E94D821892B0D
:1035A00019F160EE71E08EEE93E00E94F620892B17
:1035B00009F0A9C380917802882311F16EEE73E0BF
:1035C00090E080E00E941B081BC0B8017727A7018C
:1035D000461B570B6A527E4F86ED91E00E94BB213D
:1035E000B01AB092F6015DCF65ED71E08EEE93E01A
:1035F0000E94E620892B09F0E7C282E080933F0217
:10360000A8959091260280911202992309F4A4C3EF
:10361000811153C511E080911702811101C010E0A2
:1036200080911702882319F081E00E94BA068091E8
:103630002B02882321F062E185E00E94D006809170
:103640003002882321F063E186E00E94D00660E02A
:1036500085E00E94A402112339F01092FB018091B1
:1036600000028D7F8093000280911202882319F05E
:1036700080E00E941D0980911702882319F081E0E3
:103680000E941D0980911C028630C1F580911D02A7
:1036900090911E02A0911F02B0912002892B8A2BCB
:1036A0008B2B51F40E947D0360931D0270931E02C8
:1036B00080931F02909320020E947D0300911D02BF
:1036C00010911E0220911F0230912002DC01CB01DB
:1036D000801B910BA20BB30B61E08C32F1E09F07D2
:1036E000A105B10540F060E0803223E09207A1051A
:1036F000B10508F091C389E00E94A402109126024E
:103700001123A9F18091270290912802A09129020A
:10371000B0912A02892B8A2B8B2B51F40E947D03B6
:1037200060932702709328028093290290932A02C3
:103730000E947D03C0902702D0902802E0902902C9
:10374000F0902A02DC01CB018C199D09AE09BF095A
:1037500020910002022F087023FF03C484369105D4
:10376000A105B10508F0FDC381E00E94D305809159
:103770003002882321F063E186E00E949F08809157
:103780002B02882321F062E185E00E949F0880914E
:1037900035028823D1F18091360290913702A091B1
:1037A0003802B0913902892B8A2B8B2B69F40E9445
:1037B0007D036093360270933702809338029093B2
:1037C000390281E0809353020E947D03009136020A
:1037D000109137022091380230913902601B710B31
:1037E000820B930B60367A4E8105910558F48091D7
:1037F000000283FD0AC080910202857531F481E0E8
:1038000080932B0287E00E94AE0610913A021123AA
:10381000C1F180913B0290913C02A0913D02B09198
:103820003E02892B8A2B8B2B81F40E947D036093AF
:103830003B0270933C0280933D0290933E02123013
:1038400009F06DC480E00E94220E0E947D03C090AA
:103850003B02D0903C02E0903D02F0903E026C1999
:103860007D098E099F09123009F067C404E813E04E
:1038700020E030E0643FB1E07B078105910508F06E
:1038800060C480913F02882331F04FE052E061E153
:1038900089E00E948A0A80914402882331F045E140
:1038A00052E06EE08AE00E948A0A809149028823F1
:1038B00031F04BE152E060E18BE00E948A0A809196
:1038C0004E02882331F041E252E06FE08CE00E942A
:1038D0008A0A80915302882391F180915402909139
:1038E0005502A0915602B0915702892B8A2B8B2B3F
:1038F00069F40E947D036093540270935502809393
:1039000056029093570281E00E94220E0E947D038E
:1039100000915402109155022091560230915702A5
:10392000601B710B820B930B653671058105910548
:1039300030F080E00E94220E8DE00E94AE06809161
:103940005D02882309F4B0C0C0900902D0900A0239
:10395000E0900B02F0900C02C701B601F7FE07C021
:1039600066277727CB016C197D098E099F0939E0FD
:10397000832E912CA12CB12CA50194010E947021C1
:1039800029013A019B01AC01A9E1B0E00E9492211A
:103990006C5F7F4F8F4F9F4FA50194010E94702154
:1039A00049015A01A9E1B0E0A30192010E949221CC
:1039B000860E971EA81EB91EF7FE08C0B094A094EC
:1039C00090948094811C911CA11CB11C4090050214
:1039D000509006026090070270900802C301B20185
:1039E00077FE07C066277727CB016419750986091A
:1039F000970929E0C22ED12CE12CF12CA7019601C8
:103A00000E94702129A73AA74BA75CA79B01AC0194
:103A1000A9E1B0E00E9492216C5F7F4F8F4F9F4FD2
:103A2000A70196010E94702169017A01A9E1B0E025
:103A300029A53AA54BA55CA50E949221C60ED71ECA
:103A4000E81EF91E77FE08C0F094E094D094C0946C
:103A5000C11CD11CE11CF11C87E4898380E58A83A9
:103A600083E58B83B501A401CE0104960E9448052D
:103A70002CE2FC012083B701A60101960E944805B3
:103A80008C0180E2D8018C9383E211968C93C8015B
:103A900002960E94F205F80112868FE00E94AE069F
:103AA000CE0101960E94770810915802112309F463
:103AB00045C00E947D036B017C0180915902909169
:103AC0005A02A0915B02B0915C020097A105B1057A
:103AD000C9F4C0925902D0925A02E0925B02F0926D
:103AE0005C0210920D0210920E0210920F021092C0
:103AF000100240E050E0BA01123009F081C281E0CA
:103B0000809353028091590290915A02A0915B02D6
:103B1000B0915C02B701A601481B590B6A0B7B0BE5
:103B2000123009F06AC284EF91E0A0E0B0E0443FB7
:103B3000F1E05F076105710508F062C20091EC03D6
:103B40001091ED03101611067CF58FEF9FEF909307
:103B5000ED038093EC038091EB03882329F169E264
:103B600072E083E393E00E946E01402F50E070E02A
:103B700060E02AE083E393E00E947A0766E571E063
:103B800083E393E00E94580743E551E062E370E06D
:103B900088EB9BE00E94DA06882331F062E370E054
:103BA00088EE93E00E94350480E090E0892B11F4C8
:103BB0000C9482120E94FC01882311F40C9482124E
:103BC0000E9400000C94821261ED71E08EEE93E091
:103BD0000E94E620892B21F482E08093490210CDD7
:103BE0006CEC71E08EEE93E00E94E620892B21F4CC
:103BF00082E08093300204CD65EC71E08EEE93E0BC
:103C00000E94E620892B21F482E080932B02F8CCDD
:103C100060EC71E08EEE93E00E94E620892B21F4A7
:103C200082E080935802ECCC6CEB71E08EEE93E076
:103C30000E94E620892B21F482E080933A02E0CCB6
:103C400066EB71E08EEE93E00E94E620892B21F472
:103C50008091000283FF14C061EB71E08EEE93E06F
:103C60000E94E620892B81F06DEA71E08EEE93E0F0
:103C70000E94E620892B81F481E080935D02C0CC14
:103C800082E080931702BCCC8091000283FFECCFCE
:103C900082E080932602B4CC67EA71E08EEE93E076
:103CA0000E94E620892B19F40E94DB0DA9CC60EA62
:103CB00071E08EEE93E00E94E620892B19F40E94B9
:103CC00081089ECC6AE971E08EEE93E00E94E620C6
:103CD000892B29F4F89414BE0C94003F91CC61E92F
:103CE00071E08EEE93E00E94E620892B09F088CCEB
:103CF0008091000283FD84CC82E08093170285E0EE
:103D000080931C027DCC6DE871E08EEE93E00E9402
:103D1000F620892B69F06EE274E088E792E00E9459
:103D2000E1210E94190F89E791E00E94810A68CC85
:103D300065E771E08EEE93E00E94F620892B09F48E
:103D40005FCC6EE274E087E892E00E94E1210E947D
:103D5000190F81E691E0E9CF8823F9F080911702ED
:103D60008823D9F08091130290911402A09115023A
:103D7000B0911602892B8A2B8B2B29F18091180286
:103D800090911902A0911A02B0911B02892B8A2BE3
:103D90008B2BC9F481E00E94AE0680912B0290919A
:103DA0001702992391F0882321F062E185E00E94B7
:103DB000D00680913002882309F456CC63E186E076
:103DC0000E94D00651CC80E0E6CF90911202911172
:103DD000EACF882309F44FCC80913002882309F47C
:103DE0004ACC80912C0290912D02A0912E02B0918C
:103DF0002F02892B8A2B8B2B61F0809131029091BD
:103E00003202A0913302B0913402892B8A2B8B2B82
:103E1000A9F262E185E0D4CF88389341A105B105CC
:103E200008F095C089E00E94A4028091040281FDFF
:103E300065CC4091030246FF61CC80912102823023
:103E400009F05CCC8091FF015091FE012091FD01B1
:103E50003091FC019CE79983FE01329687FF05C0F3
:103E60009DE29A838195FE01339684363CF091E37E
:103E7000908364E60E943A21892F31968A303CF083
:103E80006AE00E943A21805D8083892F3196805DAF
:103E900080838EE28183852F6AE00E942E21905DCF
:103EA00092838CE7838347FF2AC08FE684838CE666
:103EB000858384E7868382E7878385E6808780E23F
:103EC000818784E382878F01045F1F4F80E38387AC
:103ED00023E2D8012D93CD010E94F205F80111864D
:103EE000CE0101960E94770880910402826080933F
:103EF0000402809103028F7B80930302FFCBDF01DA
:103F00002436E0F414962A3040F0822F6AE00E94B2
:103F10002E21805D8C93292F1196205D2C938EE2AB
:103F200011968C9311978D010D5F1F4F832F6AE0BF
:103F30000E942E21905D12969C93CACF1596822FD7
:103F400064E60E942E21805D8483292FDCCF89E0E6
:103F50000E94A40282E00E94AE06809104028D7F3E
:103F6000C6CF8C32F1E09F07A105B10510F480E0C7
:103F7000FCCB803D37E09307A105B10508F4F7CBF2
:103F8000287239F48C3F48E09407A105B10508F484
:103F9000EBCB80369940A105B10518F580E00E9471
:103FA000D305002341F080910302846080930302D3
:103FB0000E94810806C0133081F0143041F01230A5
:103FC000B9F384E00E94AE0610922102D0CB6DE0DE
:103FD00081E092E00E94660EF4CF6FE081EF91E005
:103FE000F9CF80E00E94D305ECCF60E084E00E942E
:103FF000A40288E00E94AE0644CC80E090E0DC01A0
:10400000009108011091090120910A0130910B01E2
:10401000800F911FA21FB31F481759076A077B071C
:1040200048F5809111028823B1F080910D029091A2
:104030000E02A0910F02B091100246015701881A9A
:10404000990AAA0ABB0AD501C401843F9140A1057F
:10405000B10508F473CD81E00E94110E81E08093D8
:104060001102C0920D02D0920E02E0920F02F09265
:10407000100264CD80E00E94110E80E00E94110EBB
:1040800080E00E94110E1092110210920D02109207
:104090000E0210920F021092100280ED97E0A0E045
:1040A000B0E08093080190930901A0930A01B093B6
:1040B0000B018EE00E94AE0641CD80E00E94BA0660
:1040C00011E0AECA109121020E947D03C09022022D
:1040D000D0902302E0902402F09025026C197D0913
:1040E0008E099F0961347F418105910510F40C947C
:1040F000B5158091000285FD06C08091020285758C
:1041000011F40C94B515123011F00C94B315809184
:10411000260281110C94B31583E00C94B1150E9412
:104120007D0300913B0210913C0220913D023091B1
:104130003E02601B710B820B930B00E911E020E043
:1041400030E0601771078207930708F04ECF61E0F7
:1041500084E00E94A40295CB85E491E0909334031F
:10416000809333038091BF019091C00183539340AA
:1041700071F4E0914603F0914703908180914803E8
:104180008095892380831092C0011092BF01089509
:10419000FC0188279927E89421912032E9F32930FE
:1041A00010F02E30C8F32B3241F02D3239F46894E0
:1041B00004C00E941021820F911D219120532A30AA
:1041C000C0F31EF4909581959F4F0895FB01DC018B
:1041D0008D91059080190110D9F3990B0895FB0179
:1041E000DC0105900D920020E1F70895FB01559147
:1041F0005523A9F0BF01DC014D9145174111E1F7AD
:1042000059F4CD010590002049F04D914015411120
:10421000C9F3FB014111EFCF81E090E001970895D0
:104220007AE0979F902D879F802D910D11240895FE
:10423000F999FECF92BD81BDF89A992780B508956E
:10424000262FF999FECF1FBA92BD81BD20BD0FB6B2
:10425000F894FA9AF99A0FBE01960895991B79E09D
:1042600004C0991F961708F0961B881F7A95C9F706
:104270008095089587FB082E062687FD819567FDAA
:1042800061950E942E210EF4919507FC8195089569
:10429000AA1BBB1B51E107C0AA1FBB1FA617B7076C
:1042A00010F0A61BB70B881F991F5A95A9F7809588
:1042B0009095BC01CD01089597FB072E16F400944C
:1042C00007D077FD09D00E94482107FC05D03EF4B5
:1042D000909581959F4F0895709561957F4F0895B2
:1042E000A1E21A2EAA1BBB1BFD010DC0AA1FBB1FFA
:1042F000EE1FFF1FA217B307E407F50720F0A21B6C
:10430000B30BE40BF50B661F771F881F991F1A94D8
:1043100069F760957095809590959B01AC01BD0102
:10432000CF0108950E94A321A59F900DB49F900DE9
:10433000A49F800D911D11240895EE0FFF1F05907D
:10434000F491E02D0994A29FB001B39FC001A39FF7
:10435000700D811D1124911DB29F700D811D1124BE
:10436000911D0895FB01DC0102C001900D924150A6
:104370005040D8F708956817790768F4FB01DC010D
:10438000E40FF51FA40FB51F02C002900E9241501A
:104390005040D8F708950C94B221FC018191861702
:1043A00021F08823D9F7992708953197CF010895EF
:1043B000FB01DC018D91019080190110D9F3990B5B
:1043C0000895FB01DC0101900D920020E1F70895B2
:1043D000FB0151915523A9F0BF01DC014D91451717
:1043E0004111E1F759F4CD010190002049F04D91C0
:1043F00040154111C9F3FB014111EFCF81E090E07D
:104400000197089511E0C3E4D1E004C0FE010E94C9
:0E4410009D212196C434D107C9F7F894FFCF3F
:10441E00FFFFFFFFFFFFFFFFD007000000000100BE
:10442E00020009050412110E100F08130607606131
:10443E006601707176023031364041465051560059
:10444E0000000032029201BF018402F001CE01E2AF
:10445E000100000000A20392013E05A103FE031419
:10446E000489034F4B000D0A003E002B434D544967
:0A447E003A002B434D47523A00006C
:00000001FF
