:100000000C9411010C9439010C9439010C94570F84
:100010000C94570F0C94570F0C9439010C94390120
:100020000C9439010C9439010C9439010C94390168
:100030000C9439010C9439010C9439010C94390158
:100040000C940D0F0C9439010C94DB0E0C94B50E2E
:100050000C9439010C9439010C9439010C94390138
:100060000C9439010C9439010000000800020100D1
:1000700000030407000000000000000041542B436F
:100080004D4744413D2244454C20414C4C220041C7
:1000900054004252532D436C6F7365642023004219
:1000A00052532D416C61726D202300737461727420
:1000B0005F616300686F726E006C696768740067E7
:1000C00070730073746172740073746F7000626F88
:1000D000783300626F783200626F7831006368694C
:1000E0007564690061707269006777730072657387
:1000F0006574007570646174650041542B434D470D
:10010000443D0041542B434D47523D004E756D65B3
:10011000726F205B325D2053616C7661746F2100D9
:100120005B325D004E756D65726F205B315D2053F3
:10013000616C7661746F21005B315D005374617294
:100140007420414300526573657400557064617496
:1001500065004750530053746F700053746172749C
:1001600000475753004C6967687400486F726E000F
:10017000436869756469004170726900426F780074
:10018000536F7263696E656C6C6900536574204FC0
:10019000574E455220323031323736004252532DBD
:1001A000456D657267656E63792023004252532D59
:1001B00054696D656F7574202300424F58203100DB
:1001C000424F58203200424F582033002200415401
:1001D0002B434D47533D2200000000002300260022
:1001E000290000000000250028002B00000000006E
:1001F000240027002A000102040810204080010288
:10020000040810200102040810200404040404045B
:100210000404020202020202030303030303CF0FDA
:10022000F21F11241FBECFEFD8E0DEBFCDBF11E01B
:10023000A0E0B1E0E4EBF2E402C005900D92AC3C2A
:10024000B107D9F724E0ACECB1E001C01D92A03AAF
:10025000B207E1F711E0C0E1D1E004C02197FE014F
:100260000E94F720CF30D107C9F70E94DB100C9411
:100270004D210C940000AF92BF92CF92DF92EF928B
:10028000FF920F931F93CF93DF936C017B018B0140
:10029000040F151FEB015E01AE18BF08C017D10790
:1002A00059F06991D601ED91FC910190F081E02D1A
:1002B000C6010995892B79F7C501DF91CF911F916F
:1002C0000F91FF90EF90DF90CF90BF90AF90089587
:1002D000FC01538D448D252F30E0842F90E0821B4C
:1002E000930B541710F0CF96089501970895FC01D1
:1002F000918D828D981761F0A28DAE0FBF2FB11D29
:100300005D968C91928D9F5F9F73928F90E0089580
:100310008FEF9FEF0895FC01918D828D981731F03A
:10032000828DE80FF11D858D90E008958FEF9FEF8E
:100330000895FC01918D228D892F90E0805C9F4F64
:10034000821B91098F739927089586EF92E00E948E
:10035000990121E0892B09F420E0822F089580E0A3
:1003600090E0892B29F00E94A50181110C940000D6
:100370000895FC01A48DA80FB92FB11DA35ABF4F3A
:100380002C91848D90E001968F739927848FA68994
:10039000B7892C93A089B1898C91837080648C93E8
:1003A000938D848D981306C00288F389E02D808197
:1003B0008F7D80830895EF92FF920F931F93CF93C9
:1003C000DF93EC0181E0888F9B8D8C8D98131AC090
:1003D000E889F989808185FF15C09FB7F894EE8977
:1003E000FF896083E889F9898081837080648083D4
:1003F0009FBF81E090E0DF91CF911F910F91FF901F
:10040000EF900895F62E0B8D10E00F5F1F4F0F73C6
:100410001127E02E8C8D8E110CC00FB607FCFACF81
:10042000E889F989808185FFF5CFCE010E94B90165
:10043000F1CFEB8DEC0FFD2FF11DE35AFF4FF08252
:100440009FB7F8940B8FEA89FB8980818062CFCFB8
:10045000682F86EF92E00C94DB01CF93DF93EC01E1
:10046000888D8823B9F0AA89BB89E889F9898C919C
:1004700085FD03C0808186FD0DC00FB607FCF7CF58
:100480008C9185FFF2CF808185FFEDCFCE010E9458
:10049000B901E9CFDF91CF91089590E0FC01E859CF
:1004A000FF4F2491FC01EA50FE4F3491FC01E65FBE
:1004B000FD4FE491EE23C9F0222339F0233001F1FE
:1004C000A8F4213019F1223029F1F0E0EE0FFF1FDE
:1004D000EE51FE4FA591B4918FB7F894EC91611154
:1004E00026C030953E233C938FBF08952730A9F056
:1004F0002830C9F0243049F7809180008F7D03C0F7
:10050000809180008F7780938000DFCF84B58F77D4
:1005100084BDDBCF84B58F7DFBCF8091B0008F771A
:100520008093B000D2CF8091B0008F7DF9CF3E2B69
:10053000DACF61E0809144040C944D02CF93DF93B5
:1005400090E0FC01EA50FE4F2491865F9D4FFC0134
:1005500084918823D1F090E0880F991FFC01E45129
:10056000FE4FA591B491FC01EE51FE4FC591D4917F
:1005700061110EC09FB7F8948C91E22FE0958E2305
:100580008C932881E223E8839FBFDF91CF91089568
:100590008FB7F894EC91E22BEC938FBFF6CF3FB777
:1005A000F89480911A0290911B02A0911C02B091C4
:1005B0001D0226B5A89B05C02F3F19F00196A11D6D
:1005C000B11D3FBFBA2FA92F982F8827BC01CD019D
:1005D000620F711D811D911D42E0660F771F881FFC
:1005E000991F4A95D1F708958F929F92AF92BF922B
:1005F000CF92DF92EF92FF924B015C010E94CF02FB
:100600006B017C010E94CF026C197D098E099F0944
:10061000683E734081059105A8F321E0821A910894
:10062000A108B10888EEC80E83E0D81EE11CF11CB9
:1006300081149104A104B10429F7FF90EF90DF9099
:10064000CF90BF90AF909F908F9008952FB7F89460
:100650006091160270911702809118029091190210
:100660002FBF0895209120023091210228173907C9
:1006700071F490911E0280911F02981741F0E09151
:100680001E02F0E0EB52FE4F808190E008958FEF64
:100690009FEF08950895EF92FF920F931F93CF93CA
:1006A000DF93DC015C96ED90FC905D97E114F10422
:1006B00079F481E090E013969C938E93129790E0EA
:1006C00080E0DF91CF911F910F91FF90EF900895FF
:1006D0005196ED91FC91529750968C915097982F8E
:1006E00090950FB75E962C915E97122F127021FD98
:1006F0006095F8942081112319F1282B2083E701BC
:100700002197F1F728E0462F50E0308160FF1AC0B2
:10071000382B3083E7012197F1F7BA01759567957A
:10072000215089F7112381F08081892380830FBFB5
:100730005C968D919C910197F1F781E090E0C1CF9B
:100740002923DCCF3923E5CF9081892BEFCF0F937D
:100750001F93CF93DF938C01D0E0C0E0F801EC0F42
:10076000FD1F6491662341F083E993E00E944B03EF
:10077000892B11F02196F2CFCE01DF91CF911F91FD
:100780000F910895209120023091210228173907F6
:1007900061F480911F0220911E0290E0805C9F4FC7
:1007A000821B91098F739927089590E080E0089546
:1007B000209120023091210228173907B9F4909135
:1007C0001E0280911F02981789F0E0911E02F0E04E
:1007D000EB52FE4F808120911E0230E02F5F3F4F91
:1007E0002F73332720931E0290E008958FEF9FEF21
:1007F00008954F925F926F927F928F929F92AF92E5
:10080000BF92CF92DF92EF92FF924C016B010E9458
:1008100026032B013C01B12CA12C83E993E00E941B
:10082000C203892B69F40E9426036419750986099D
:100830009709681579058A059B0510F4A895EDCFF1
:1008400083E993E00E94C203892B01F10E942603F1
:100850004B015C01F12CE12CA89583E993E00E9407
:10086000C203892B41F083E993E00E94D8030E94E0
:1008700026034B015C010E942603681979098A0945
:100880009B096C157D058E059F0530F3FF90EF9059
:10089000DF90CF90BF90AF909F908F907F906F90A0
:1008A0005F904F9008954F925F926F927F929F92C8
:1008B000AF92BF92CF92DF92EF92FF920F931F936E
:1008C000CF93DF938C016B01E42E922E009721F0E1
:1008D000672B11F0FC0110820E9426032B013C01C2
:1008E000D0E0C0E0F12C5601F1E0AF1AB108A895B4
:1008F00083E993E00E94C203892B71F083E993E0BE
:100900000E94D803F11015C0FF24F3948E11F12C2E
:100910000E9426032B013C010E94260364197509DD
:1009200086099709623371058105910500F3F12C61
:100930000AC0891119C00115110529F0CD2819F037
:10094000C00FD11F18828F2DDF91CF911F910F9172
:10095000FF90EF90DF90CF90BF90AF909F907F90EF
:100960006F905F904F9008950115110589F2CA1597
:10097000DB0574F6F801EC0FFD1F80832196C8CFCC
:1009800090E080E008958EBD00000DB407FEFDCF1D
:100990008EB50895CF93C82F682F86E00E944D0230
:1009A0006C2F87E0CF910C944D02CF92DF92EF92A3
:1009B000FF923091600237FD05C08091610287701F
:1009C00021E009F020E04091630220FB44F94093CC
:1009D000630242FB992790F9892F90E0B0E0A0E0F4
:1009E000BB278695B795AA2799278827417050E09D
:1009F00070E060E0EDE1440F551F661F771FEA9538
:100A0000D1F7842B952BA62BB72B40913102842B49
:100A10004091620240FBCC24C0F8D12CF12CE12C97
:100A2000FCE1CC0CDD1CEE1CFF1CFA95D1F78C29E7
:100A30009D29AE29BF2942FBCC24C0F8D12CF12C32
:100A4000E12C5BE1CC0CDD1CEE1CFF1C5A95D1F7B0
:100A50008C299D29AE29BF2944FBCC24C0F8D12C78
:100A6000F12CE12C6AE1CC0CDD1CEE1CFF1C6A951C
:100A7000D1F78C299D29AE29BF2946FB442740F98F
:100A800050E070E060E0E9E1440F551F661F771FFA
:100A9000EA95D1F7842B952BA62BB72B33FB442754
:100AA00040F950E070E060E0742F66275527442736
:100AB000842B952BA62BB72B30913502A32B30918D
:100AC0003302932B30E050E040E06EE1220F331F01
:100AD000441F551F6A95D1F7822B932BA42BB52B5E
:100AE0008093D0019093D101A093D201B093D30110
:100AF000FF90EF90DF90CF900895CF93DF93D82FA2
:100B0000C92F0E94D5044091D0015091D10160912C
:100B1000D2017091D301ED2FFC2F2CE130E0DB01ED
:100B2000CA01022E04C0B695A795979587950A9499
:100B3000D2F78F708A3058F4805D81932450310948
:100B40002C3F8FEF380759F7DF91CF910895895CDB
:100B5000F4CF4F925F926F927F928F929F92AF925B
:100B6000BF92CF92DF92EF92FF920F931F93CF939A
:100B7000DF934C017B016A010E9426032B013C019B
:100B8000B12CA12C83E993E00E94C203892B69F464
:100B90000E94260364197509860997096815790565
:100BA0008A059B0510F4A895EDCF83E993E00E9498
:100BB000C203892BD1F1F60101900020E9F73197AA
:100BC0008F010C191D090E9426034B015C01D0E026
:100BD000C0E011272701712C612CA89583E993E0CF
:100BE0000E94C203892BB1F083E993E00E94D803ED
:100BF000F601EC0FFD1F9081981306C02196C017D7
:100C0000D10721F481E012C0D0E0C0E00E942603A9
:100C10004B015C010E942603681979098A099B0926
:100C20006415750586059705C0F280E0DF91CF91C8
:100C30001F910F91FF90EF90DF90CF90BF90AF90FA
:100C40009F908F907F906F905F904F900895FB01E1
:100C500001900020E9F73197AF01461B570BDC01EB
:100C6000ED91FC910280F381E02D0994CF93DF9305
:100C70000E94A703EC0164E671E083E993E00E941F
:100C800027068C0F9D1FDF91CF9108958F929F9221
:100C9000AF92BF92EF92FF920F931F93CF93DF9388
:100CA000CDB7DEB7A1970FB6F894DEBF0FBECDBFAC
:100CB0007C01FA01CB0119A2223008F42AE08E014E
:100CC0000F5D1F4F822E912CB12CA12CBF01A501CD
:100CD00094010E94B620F901CA016A300CF5605DEA
:100CE000D8016E938D01232B242B252B79F790E0CF
:100CF00080E0109721F0BD01C7010E942706A19650
:100D00000FB6F894DEBF0FBECDBFDF91CF911F911C
:100D10000F91FF90EF90BF90AF909F908F900895AC
:100D2000695CDECFCF92DF92EF92FF92CF93DF9399
:100D30000E94D50483E20E942802C0905F020C2C1E
:100D4000000CDD08EE08FF082AE0B701A601F7FE57
:100D50000BC08DE20E94280244275527BA014C1986
:100D60005D096E097F092AE086EF92E00E9446063F
:100D70008EE20E94280240915E0250E070E060E046
:100D80002AE086EF92E00E94460683E20E94280253
:100D900040915D0250E070E060E02AE086EF92E072
:100DA0000E9446068EE20E94280240915C0250E0BA
:100DB00070E060E02AE086EF92E00E94460683E25F
:100DC0000E942802CCE1D0E08091D0019091D10125
:100DD000A091D201B091D3010C2E04C0B695A79575
:100DE000979587950A94D2F78F708A30A0F4805D2A
:100DF0000E9428022497CC3F8FEFD80729F764E69A
:100E000071E086EF92E0DF91CF91FF90EF90DF905D
:100E1000CF900C942706895CEBCFCF93DF93D0E083
:100E2000C0E0009731F0BC0183E993E00E942706FF
:100E3000EC0164E671E083E993E00E9427068C0FE1
:100E40009D1FDF91CF9108950F931F93CF93DF9351
:100E500020914B04211107C0C0E08C2FDF91CF916E
:100E60001F910F9108958B01EC018EEC91E00E948F
:100E7000A70368ED72E083E993E00E9427068CECFB
:100E800091E00E94360647E651E064EF71E088EE9B
:100E900093E00E94A9058823F9F262E370E088EEEE
:100EA00093E00E94F9032097D1F0CE010E9436060C
:100EB0006AE183E993E00E944B0349E651E068E868
:100EC00073E188E59BE10E94A905C82F882321F2E0
:100ED00062E370E088EE93E00E94F903BECFC801A0
:100EE0000E940D07E5CF2091D802222329F0BC01F2
:100EF00090E080E00C9424070895CF93DF93CDB762
:100F0000DEB72A970FB6F894DEBF0FBECDBF83E2DF
:100F10008983CE0102960E947D051A86CE01019634
:100F20000E9473072A960FB6F894DEBF0FBECDBF9E
:100F3000DF91CF9108958F929F92AF92BF92EF92DF
:100F4000FF920F931F93CF93DF93F82EE62E082F77
:100F500010E025E0829FE0011124CE58DD4F89800A
:100F60009A80AB80BC8081149104A104B10489F4FF
:100F70000E94260369837A838B839C83DF91CF91C0
:100F80001F910F91FF90EF90BF90AF909F908F9027
:100F900008950E942603DC01CB0188199909AA094A
:100FA000BB0961E08C3221E09207A105B105F0F0A8
:100FB000803921E09207A105B10570F461E08E2D22
:100FC000DF91CF911F910F91FF90EF90BF90AF9065
:100FD0009F908F900C944D0260E08C3B9240A10555
:100FE000B10530F48E2D0E944D0260E085E0E8CF1F
:100FF0008E2D0E944D0260E085E00E944D02988196
:10100000923039F480916302817026E0F2121DC0A3
:10101000F1F085E0809FF001819FF00D1124EE58E2
:10102000FD4F10821182128213821482923009F0D5
:10103000A5CFDF91CF911F910F91FF90EF90BF90BF
:10104000AF909F908F900C947D07882311F380912F
:101050006302846080936302DCCFCF92DF92EF92D1
:10106000FF920F931F93CF93C82F0E9426036B010B
:101070007C010C2F10E025E0C29FF0011124EE58F6
:10108000FD4F81819281A381B481892B8A2B8B2B87
:1010900059F4C182D282E382F4828091D4018330F8
:1010A000E0F48F5F8093D40185E0809FF001819F01
:1010B000F00D1124EE58FD4F81819281A381B481FE
:1010C000A7019601281B390B4A0B5B0BDA01C901FA
:1010D000883C9105A105B10558F461E085E0CF9108
:1010E0001F910F91FF90EF90DF90CF900C944D02E5
:1010F000883532E09307A105B10528F483E1C111D9
:1011000082E161E0ECCF8C3B42E09407A105B105A0
:1011100028F483E1C11182E160E0E1CF2091600217
:10112000322F387023FD12C0CC23D1F0883E53E01B
:101130009507A105B10560F481E0CF911F910F9152
:10114000FF90EF90DF90CF900C94CA04CC2341F035
:101150008C3444E09407A105B10510F480E0EDCF94
:10116000287259F4C1117DC0803243E09407A10573
:10117000B10580F461E088E0B2CF203249F4C111BA
:10118000C8C0883E43E09407A105B10518F4D4CF48
:10119000C1116EC0843145E09407A105B105F0F29C
:1011A00048EB5BE060E070E06EC0332321F160E06B
:1011B00088E00E944D0260E085E00E944D0280912F
:1011C00060028D7F8093600280917C02853019F4EB
:1011D00086E080937C021092D40185E0809FF0012C
:1011E000819FF00D1124EE58FD4F10821182128262
:1011F0001382148286C08091D4018330D0F485E0BC
:10120000809FF001819FF00D1124EE58FD4F118257
:1012100012821382148282E0C11101C081E095E044
:10122000909FF001919FF00D1124EE58FD4F8083A7
:1012300068C060E088E00E944D0260E085E00E94A6
:101240004D0280916302846080936302C1110E9409
:101250007D071092D401809160028D7F809360029F
:10126000BCCF803B54E09507A105B10508F482CFBF
:10127000843A56E09507A105B10508F46FCF48E41C
:101280005DE060E070E084179507A607B70708F0F7
:101290008CCF2832B1F560E088E00E944D0260E01A
:1012A00085E00E944D02CC2389F082E08093810288
:1012B000C0928202D0928302E0928402F092850270
:1012C00080917C02811102C00E947D071092D4019E
:1012D000809160028D7F8093600285E0809FF001A5
:1012E000819FF00D1124EE58FD4F10821182128261
:1012F0001382148280917C02853019F486E08093F9
:101300007C02CF911F910F91FF90EF90DF90CF90D3
:101310000895883755E09507A105B10508F40CCF6D
:10132000A7CF2091D802222321F070E060E00C9436
:10133000240708958F929F92AF92BF92DF92EF920F
:10134000FF920F931F93CF93DF93D62E7A01082F2E
:1013500010E025E0829FE0011124CE58DD4F898105
:101360009A81AB81BC81892B8A2B8B2B49F40E94FB
:10137000260369837A838B839C8381E08093AE020A
:101380000E94260325E0209FF001219FF00D1124EB
:10139000EE58FD4F81809280A380B480DC01CB01A8
:1013A00088199909AA09BB0961E0843F21E09207E5
:1013B000A105B10530F080329340A105B10578F464
:1013C00060E08D2DDF91CF911F910F91FF90EF90F5
:1013D000DF90BF90AF909F908F900C944D028081D2
:1013E000823019F4C7010E94910960E08D2D0E949E
:1013F0004D0285E0809FF001819FF00D1124EE5891
:10140000FD4F10821182128213821482DF91CF91DC
:101410001F910F91FF90EF90DF90BF90AF909F9042
:101420008F9008950F931F930091450410914604E7
:10143000209147043091480440E052E16AE770E0AF
:1014400080E0041715072607370740F4769567955F
:10145000579547958F5F8630A1F787E0982F906A60
:101460009695809581709CBD8DBD60E0809144040F
:101470001F910F910C944D02CF93C82F0E94120A16
:1014800083E00E94C3048C2F0E94C30480E00E946A
:10149000C304C82F0E9499028C2FCF910895FF9208
:1014A0000F931F93CF93DF93C82FF62E172F042F80
:1014B0000E94120A82E00E94C3048C2F0E94C3047F
:1014C000CF2DD12F0C0F1D2F111DC017D10721F0CB
:1014D00089910E94C304F9CFDF91CF911F910F91A1
:1014E000FF900C9499021F93CF93DF93182FD62F60
:1014F000C42F0E94120A85E00E94C304812F0E941B
:10150000C3048D2F0E94C3048C2F0E94C304DF915B
:10151000CF911F910C949902CF92DF92EF92FF929C
:10152000CF93C82F482F60EE8FE00E94730A0E946D
:1015300026036B017C012AE0C20ED11CE11CF11CC8
:101540000E9426036C157D058E059F0580F48EE0B4
:101550000E943C0A807EC813F3CF81E091E0892786
:1015600090E0CF91FF90EF90DF90CF90089580E0D2
:10157000F5CFCF93DF93D82FC62F0E94120A82E0B7
:101580000E94C3048D2F0E94C3048C2F0E94C304A9
:10159000DF91CF910C949902FF920F931F93CF93F9
:1015A000DF93C82FF62E172F042F0E94120A83E014
:1015B0000E94C3048C2F0E94C304CF2DD12F0C0F87
:1015C0001D2F111DC017D10729F080E00E94C30410
:1015D0008993F8CFDF91CF911F910F91FF900C94D9
:1015E0009902BF92CF92DF92EF92FF920F931F93D7
:1015F000CF93DF9300D000D01F92CDB7DEB78C0120
:10160000000F111F000F111FF801E15DFE4F45E0B3
:10161000BE016F5F7F4F81810E94CC0A8A81C980A1
:1016200098E0C99E60011124282F30E055E03595DF
:1016300027955A95E1F7C20ED31E0D2C000CEE082B
:10164000FF0883FF20C092E0CC0CDD1CEE1CFF1CC9
:101650009A95D1F78370C80ED11CE11CF11CFE2CA9
:10166000ED2CDC2CCC248B81C80ED11CE11CF11C90
:10167000FE2CED2CDC2CCC248C81C80ED11CE11C62
:10168000F11C6894F7F88D818F70B82EE8E081E046
:1016900090E0EB1528F1F801E15DFE4F80810E949A
:1016A0003C0A83FF02C06894F6F8C092C802D09248
:1016B000C902E092CA02F092CB02B092CC02015D64
:1016C0001E4F4B2D60ED72E0F80182810E94CC0A22
:1016D00040E0F80163818CE20E94730A90E080E0B0
:1016E0000F900F900F900F900F90DF91CF911F915F
:1016F0000F91FF90EF90DF90CF90BF9008954F92A1
:101700005F926F927F928F929F92AF92BF92CF9291
:10171000DF92EF92FF920F931F93CF93DF93CDB79A
:10172000DEB763970FB6F894DEBF0FBECDBFFC01E6
:101730002481293008F08DC05C0186E0E4E0F1E00E
:10174000DE011E9601900D928A95E1F73E01FEE0C2
:101750006F0E711C8E010C5E1F4FF301C190D19072
:101760003F017601EE0CFF1CF701EC0DFD1DE95C5D
:10177000FE4F8080882D0E943C0A83FD96C0F501B3
:101780009480F8E0F91508F464C0F5010081118136
:1017900022813381B901A801442777FD439555275C
:1017A00066277727D901C80188279927AA27B07407
:1017B00044244A94542C642C7FE1772E411106C0B6
:1017C00044244A9467E0562E612C712C0421152183
:1017D00026213721442309F43FC00C831B83890150
:1017E00022273327402F440F440F440F407E502FB1
:1017F00053705860452B4A8355E0169507955A95C6
:10180000E1F70983892B8A2B8B2BA1F1892D806429
:101810008D83492D50E0B501685F7F4FCE0106965C
:101820000E94FD2045E0490DF701EC0DFD1DE95C2E
:10183000FE4FBE016F5F7F4F81810E944F0A48E0DB
:1018400068E0882D0E94730A882D0E943C0A8077E8
:1018500099F084E090E012C0A80123E056954795E6
:101860002A95E1F749830295000F007E0A831C82C6
:101870001B82C8CF892DCCCF90E080E063960FB655
:10188000F894DEBF0FBECDBFDF91CF911F910F91B6
:10189000FF90EF90DF90CF90BF90AF909F908F9090
:1018A0007F906F905F904F9008956016710609F0D9
:1018B00054CF82E090E0E2CF0F931F93CF93DF935A
:1018C000CDB7DEB767970FB6F894DEBF0FBECDBFBA
:1018D0008E01085F1F4F087F8BEE92E0A0E0B0E022
:1018E000F80180839183A283B38388E08483108688
:1018F00011861286138614861686178680E88587D9
:10190000C8010E947F0BC8010E947F0BC8010E9482
:101910007F0B67960FB6F894DEBF0FBECDBFDF9189
:10192000CF911F910F910895E8ECF2E046EB52E061
:1019300060E070E0408351836283738392E094831C
:1019400080871186CF010C947F0B46EC51E060E05C
:1019500070E04093C8025093C9026093CA0270932A
:10196000CB0294E09093CC02813089F080E0109219
:10197000D1021092D0028093D3028093D20288ECDD
:1019800092E00E947F0B88EC92E00C947F0B82E542
:10199000EECFE8ECF2E04AE352E060E070E0408332
:1019A00051836283738394E0948391E1908793EFF2
:1019B000918782878FE38387CF010E947F0B88EC1A
:1019C00092E00E947F0B88EC92E00C947F0B8F9248
:1019D0009F92AF92BF92CF92DF92EF92FF921F93AE
:1019E000CF93DF93CDB7DEB7A0970FB6F894DEBFE5
:1019F0000FBECDBF4B015C010E9426036B017C0131
:101A0000198210E00E9426036C197D098E099F0936
:101A1000681579058A059B0508F045C0A89583E9F6
:101A200093E00E94C203892B69F3A89583E993E0B0
:101A30000E94D803E12F1F3150F090E1FE01719612
:101A4000DE01119601900D929A95E1F7EFE011E019
:101A50001E0F21E030E02C0F3D1F2E0F311DF9012C
:101A60008083E1E0F0E0EC0FFD1FE10FF11D10823B
:101A700069E671E0CE0101960E943321892B79F24B
:101A800081E0A0960FB6F894DEBF0FBECDBFDF9108
:101A9000CF911F91FF90EF90DF90CF90BF90AF90CC
:101AA0009F908F90089580E0ECCFBF92CF92DF920D
:101AB000EF92FF920F931F93CF93DF93CDB7DEB7D3
:101AC000A2970FB6F894DEBF0FBECDBF0E94120AD8
:101AD00080EC0E94C3040E9499026AE070E080E0FA
:101AE00090E00E94F4028E010F5F1F4F8EE0F8011C
:101AF00011928A95E9F74EE0B80180E30E944F0AFF
:101B00004EE0B80180E40E944F0A4EE0B80180E543
:101B10000E944F0A60E080E60E94B90A60E080E718
:101B20000E94B90A63EA8BE20E94B90A44E067E6C0
:101B300080E60E94730A41E067E680E70E94730A2C
:101B40008CE0EAE0F1E0DE011F9601900D928A95AB
:101B5000E1F76E01FFE0CF0ED11CF12CE12C98E0F3
:101B6000B92EF601019111916F0180E80E948C0A53
:101B7000892B61F40230110509F47FC058F5011575
:101B8000110509F480C00130110579F180E80E9447
:101B90008C0A892B61F460E08AE20E94B90A60EF46
:101BA00089E20E94B90A66E888E20E94B90A80E0E8
:101BB0000E948C0AA2960FB6F894DEBF0FBECDBF6E
:101BC000DF91CF911F910F91FF90EF90DF90CF9019
:101BD000BF9008950430110509F453C008F44FC0B4
:101BE0000530110599F688E101C084E0F1E0EF16B7
:101BF000F10409F04AC01E8E1D8EBC8E1B8E44E07F
:101C0000BE01655E7F4F0E944F0A8FEFE81AF80A07
:101C100096E0E916F10409F0A4CF18A21F8E81E026
:101C200090E09AA389A38E01015E1F4F6E01E3E24B
:101C3000CE0ED11C88E0B82EF801E190F1908F0112
:101C400080E80E948C0A892B09F0A0CF1E8E1D8E81
:101C5000BC8E1B8EE114F104E9F0EA94EF2809F040
:101C600095CF84E244E0BE01655E7F4F0E944F0A3B
:101C70000C151D0509F48ACFDFCF88E0B7CF80E1CE
:101C8000B5CF84E1B3CF80E0B1CF1B8E1C8E1E8E0A
:101C90001D8EB5CF80E2E6CF0F931F93CF93DF93D6
:101CA000CDB7DEB768970FB6F894DEBF0FBECDBFD5
:101CB000062FBC01CE0101960E94352010E081E084
:101CC00090E08C0F9D1F800F911F0E947D05FE01EB
:101CD000E00FF11F1186CE0101960E9473076896EE
:101CE0000FB6F894DEBF0FBECDBFDF91CF911F912D
:101CF0000F910895FF920F931F93CF93DF93EC0101
:101D0000F62E08811981C8010E945E20F81621F084
:101D10006F2DC8010E946620CE01DF91CF911F91E7
:101D20000F91FF900895FF920F931F93CF93DF932E
:101D300081E08093AE0208ED12E0D0E0C0E0F8014F
:101D4000F1908F01CE010E945E20F81621F06F2DD8
:101D5000CE010E9466202196CE31D10581F7DF9118
:101D6000CF911F910F91FF9008951F920F920FB680
:101D70000F9211242F933F934F935F936F937F9311
:101D80008F939F93AF93BF93EF93FF9386EF92E070
:101D90000E94B901FF91EF91BF91AF919F918F91F7
:101DA0007F916F915F914F913F912F910F900FBE57
:101DB0000F901F9018951F920F920FB60F9211243B
:101DC0002F938F939F93EF93FF93E0910603F091EE
:101DD00007038081E0910C03F0910D0382FD1BC08D
:101DE000908180910F038F5F8F7320911003821772
:101DF00041F0E0910F03F0E0EA50FD4F958F8093A2
:101E00000F03FF91EF919F918F912F910F900FBE34
:101E10000F901F9018958081F4CF1F920F920FB6EC
:101E20000F9211242F933F938F939F93AF93BF9360
:101E30008091160290911702A0911802B091190298
:101E40003091150223E0230F2D3758F50196A11D7F
:101E5000B11D209315028093160290931702A09350
:101E60001802B093190280911A0290911B02A0915E
:101E70001C02B0911D020196A11DB11D80931A0292
:101E800090931B02A0931C02B0931D02BF91AF91CF
:101E90009F918F913F912F910F900FBE0F901F90A8
:101EA000189526E8230F0296A11DB11DD2CF1F92CF
:101EB0000F920FB60F9211242F933F934F935F937E
:101EC0006F937F938F939F93AF93BF93EF93FF9302
:101ED000E0912002F0912102309749F0A685B78564
:101EE0008585968D91FF14C09C918923A1F4FF9163
:101EF000EF91BF91AF919F918F917F916F915F9182
:101F00004F913F912F910F900FBE0F901F901895FA
:101F10009C91892361F7A389B4899C9185898095D7
:101F200089238C93868997890197F1F7608D718D4C
:101F3000A685B785558538E020E0CB010197F1F7FC
:101F4000822F90E095958795282F4C91452309F095
:101F50002068315091F7868D81FD209580911F0278
:101F600090E001968F73992730911E02381799F0EF
:101F7000A0911F02B0E0AB52BE4F2C9380931F0282
:101F8000828D938D0197F1F7A389B4898C919589FE
:101F9000892B8C93ACCF868D8160868FF1CFCF93C8
:101FA0001092F9021092F80288EE93E0A0E0B0E0FF
:101FB0008093FA029093FB02A093FC02B093FD027F
:101FC00024E431E03093F7022093F60225EC30E070
:101FD000309303032093020324EC30E03093050395
:101FE0002093040320EC30E0309307032093060392
:101FF00021EC30E0309309032093080322EC30E019
:1020000030930B0320930A0326EC30E030930D034A
:1020100020930C0310920F031092100310921103DF
:1020200010921203109296031092950380939703D7
:1020300090939803A0939903B0939A0386E591E057
:1020400090939403809393031092AA031092A90390
:102050001092AC031092AB031092AE031092AD033A
:102060001092B0031092AF036091B1036E7F6D7F49
:102070006093B1036695617081E0682783E00E94F8
:102080004D0261E083E00E949E02E9EFF1E0E491FD
:10209000E093A303EDE0F2E0E491F0E0EE0FFF1F28
:1020A000EE51FE4F859194919093A5038093A403E4
:1020B00060E082E00E949E028091B10381FD04C035
:1020C00061E082E00E944D0282E080939F03E8EF8E
:1020D000F1E0E491E093A003ECE0F2E0E491F0E0C1
:1020E000EE0FFF1FE852FE4F859194919093A2034B
:1020F0008093A10310924B0483EB93E090934A04E6
:1021000080934904CFB7F8948091B203811127C01E
:10211000E4E1F2E08491E0E0F2E09491E82FF0E075
:10212000EE0FFF1FE451FE4FA591B491EC91E9230E
:1021300021F461E08AE00E944D0261E08AE00E94A1
:102140009E028CB580618CBD8CB580648CBD61E0D5
:102150008DE00E949E0261E08BE00E949E028091D1
:10216000B2038F5F8093B203CFBF8AE080934404B1
:1021700080E896E9A8E9B0E080934504909346048E
:10218000A0934704B093480461E08AE00E949E0255
:1021900061E0809144040E944D02E4EBF3E084E4AA
:1021A00094E010861186128613863C968E179F0740
:1021B000C1F7CF910895CF93DF93CDB7DEB7AA973C
:1021C0000FB6F894DEBF0FBECDBF789484B58260A1
:1021D00084BD84B5816084BD85B5826085BD85B5CB
:1021E000816085BD80916E00816080936E00109249
:1021F00081008091810082608093810080918100C4
:102200008160809381008091800081608093800054
:102210008091B10084608093B1008091B0008160B2
:102220008093B00080917A00846080937A008091DE
:102230007A00826080937A0080917A008160809336
:102240007A0080917A00806880937A001092C100B1
:10225000E0910603F091070382E08083E09102039E
:10226000F09103031082E0910403F091050380E1F3
:10227000808310920E03E0910A03F0910B0386E035
:102280008083E0910803F09109038081806180835D
:10229000E0910803F0910903808188608083E091D8
:1022A0000803F0910903808180688083E09108032E
:1022B000F091090380818F7D80838BE0E6E1F1E07E
:1022C000DE01119601900D928A95E1F78E010F5F64
:1022D0001F4F6E012CE0C20ED11CD801FD908D0164
:1022E00061E08F2D0E949E0260E08F2D0E944D02C2
:1022F000C016D10691F70E94550D28EDE22E22E07E
:10230000F22E10E000E0C8010E945E20F7018193E8
:102310007F010F5F1F4F0E311105A9F783E290E097
:102320000E945E208093350287E390E00E945E2049
:1023300080933302B12CA12C04E813E0C12CD12CE2
:102340007601412C512C3201C8010E945E2090E0A0
:10235000B0E0A0E00A2C04C0880F991FAA1FBB1F81
:102360000A94D2F7482A592A6A2A7B2AC801049675
:102370000E945E2090E0B0E0A0E00A2C04C0880F2C
:10238000991FAA1FBB1F0A94D2F7C82AD92AEA2A82
:10239000FB2A0F5F1F4FF8E0AF0EB11C083823E097
:1023A000120791F64092690250926A0260926B02A3
:1023B00070926C02C0926502D0926602E09267024F
:1023C000F092680281E08093AE0288E199E20FB654
:1023D000F894A895809360000FBE90936000AE01C2
:1023E000415F5F4F5EA34DA38091C2028111FFC088
:1023F0000E942603613177428105910508F4F7C0F8
:1024000010924B041092AE031092AD031092AC03E5
:102410001092AB031092AA031092A90382E490E0F9
:102420009093B0038093AF0390919F03963108F08F
:1024300047C02FE030E03093AA032093A90320E4A3
:1024400030E03093AC032093AB0327E230E03093CD
:10245000AE032093AD032091680084E0983048F0EB
:1024600031E09E3008F430E081E001C0880F3A95F9
:10247000EAF7822B809368002DE630E0983050F028
:102480002BE630E09E3030F02CE630E0963110F054
:1024900030E020E03093A7032093A603292F30E0FB
:1024A000983008F094C081E001C0880F9A95EAF74F
:1024B0008093A8038091AF039091B0030197F1F747
:1024C0008091AD039091AE03892B49F1E0912002F8
:1024D000F091210283E0E339F80709F1309739F0F0
:1024E000A389B4899C918589809589238C93809157
:1024F000B1038E7F8093B10310921F0210921E02CF
:1025000083E993E09093210280932002E091A60357
:10251000F091A70380819091A803892B808364EFB9
:1025200071E080E090E00E94F40283E993E00E9471
:10253000C203892B31F064E170E088EC90E00E94E6
:10254000F90304E010E0DD24D3940150110909F4EB
:102550004BC080914B04811147C0A8958FE890E053
:102560000E94360668EE73E080E090E00E94E70C7F
:10257000882359F38EE0E1E2F1E0DE01119601904B
:102580000D928A95E1F7DE0111967D01A895F7017C
:10259000819191917F010E940D0760ED77E080E0CD
:1025A00090E00E94E70C882381F28DA09EA0E814A1
:1025B000F90461F7D0924B048CE790E00E94360654
:1025C00068E873E180E090E00E94E70CBECF9E30A7
:1025D00040F42850310981E001C0880F2A95EAF7BC
:1025E00067CF2E503109F7CF81E08093C2020E945D
:1025F000120A80EA0E94C30480E00E94C304182FDC
:102600000E94990290E080E010FD04C011FF75C1A6
:1026100081E090E00E94F10A892B09F06EC10E94CE
:1026200026036093220270932302809324029093E6
:102630002502209160022E7F209360028091C802C3
:102640009091C902A091CA02B091CB02803333E0CD
:102650009307A105B10509F45CC308F063C08A3C87
:1026600052E09507A105B10509F4C5C208F03DC0C7
:102670008337F1E09F07A105B10509F4D1C38A337F
:1026800032E09307A105B10509F450C3823A9105E0
:10269000A105B10509F07EC09091D002983009F4EF
:1026A0003DC208F02EC2923009F434C28091D102AA
:1026B000883009F448C208F039C2823009F43FC2B8
:1026C000911168C0811166C01092E4031092F0036A
:1026D0001092FC031092080410921404109220042B
:1026E00010922C041092380455C08C3F42E094079D
:1026F000A105B10509F4BFC28E3253E09507A105CB
:10270000B10509F48FC2803F9240A105B10509F0DF
:1027100041C08091D0028C708830E1F582E08093D6
:10272000770238C0873BF3E09F07A105B10509F4A4
:10273000BFC3D0F4833A33E09307A105B10509F490
:102740003CC2863B43E09407A105B10509F49AC356
:1027500081359340A105B105E9F46091D3026093FE
:10276000350283E290E0DBC2893BE3E09E07A105EE
:10277000B10509F4A8C308F490C3893F23E0920788
:10278000A105B10509F451C382319440A105B105F9
:1027900009F4E1C18091E703813021F41092E7034D
:1027A00080939F028091F303813021F41092F30310
:1027B0008093A4028091FF03813009F08FC31092AF
:1027C000FF0381E08093A90280910B04813021F402
:1027D00010920B048093BD0280911704813021F484
:1027E000109217048093950280912304813099F50B
:1027F0001092230490EA892E92E0992EA12CB12CFC
:102800008092C8029092C902A092CA02B092CB02F2
:1028100088E08093CC0288E88093D0028093D10234
:1028200080EF8093D2028DE48093D3028FEF809368
:10283000D4028093D5028093D6028093D70288EC8D
:1028400092E00E947F0B88EC92E00E947F0B88EC64
:1028500092E00E947F0B8091B703833029F410929D
:10286000B70381E080939A022091C303213039F5A8
:102870001092C3033091600237FB882780F9909152
:102880006102492F4170842B91FB442740F9842B2E
:1028900092FB442740F9842B91F032FD10C093FD48
:1028A0000EC088EC90E0A0E0B0E08093000190932F
:1028B0000101A0930201B09303012093B302809120
:1028C000DB038130D1F41092DB038091720281111D
:1028D00014C080918602811110C0909181029111E3
:1028E00005C38091600283FD02C391E081E0909373
:1028F000720291E08927809386020E94260300914C
:102900002202109123022091240230912502601BA3
:10291000710B820B930B613E73498440910508F45F
:1029200056C08091600280FD52C00E94550D0E94E9
:1029300026036093220270932302809324029093D3
:1029400025028091600281608093600210923102C2
:102950004090690250906A0260906B0270906C0225
:102960008090650290906602A0906702B090680225
:1029700004E813E0F12CE12C1A830983C301B201AE
:102980000E2C04C095958795779567950A94D2F794
:10299000CE0101960E947A0EC80104969A8389831B
:1029A000C501B4010E2C04C0959587957795679560
:1029B0000A94D2F7CE0101960E947A0EB8E0EB0E8F
:1029C000F11C0F5F1F4F0838E3E01E07A9F6809146
:1029D0007202811145C080917702811141C08091BE
:1029E000600286FD3DC090916202792F717092FB6A
:1029F000662760F994FB552750F996FB442740F968
:102A00008091610284FB332730F9232F272770FB45
:102A100084F985FB332730F93627322B60FB85F9A3
:102A200086FB222720F92527322B50FB86F987FBCE
:102A3000222720F92427232B40FB87F9809361026A
:102A4000222371F0957580916302992309F451C294
:102A50008460809363026BE08FE990E00E944C0EEB
:102A60000E942603E4EBF3E021E0C480D580E680F9
:102A7000F7804B015C018C189D08AE08BF087501FA
:102A8000640139EBC3163BE0D306E104F10408F01E
:102A9000138241813081411133C2332329F0608791
:102AA00071878287938721833C9644E0E434F4075E
:102AB000E1F60091810210916002002311F40C9460
:102AC0002D1F0E942603C0908202D0908302E090C6
:102AD0008402F09085026C197D098E099F0910917E
:102AE0006002613A7B4B8D40910510F40C94091FF4
:102AF00084E0023011F40C94291F809186020C941A
:102B0000291F903279F0903809F0D0CD81E0809380
:102B10000804CCCD81E08093E403C8CD81E08093AC
:102B2000F003C4CD81E08093FC03C0CD803279F006
:102B3000803809F0C5CD81E0809338042BCE81E048
:102B40008093140427CE81E08093200423CE81E07B
:102B500080932C041FCEC090D002D090D102E09080
:102B6000D202F090D30240E8F41A6091D40270913E
:102B7000D5028091D6029091D702905824E230E09D
:102B800040E050E00E94D8202093690230936A020E
:102B900040936B0250936C02C701B60124E230E00F
:102BA00040E050E00E94D8202093650230936602F6
:102BB0004093670250936802EDCD8091D002803D32
:102BC00049F48091D1028F3F09F0E4CD84E00E9466
:102BD000C90CE0CD883C09F0DDCD8091D1028F3F5A
:102BE00009F0D8CD81E00E94C90C80916002806418
:102BF00080936002CFCD8091D00255E0859FC001C7
:102C00001124805991406AE070E00E94A2206093F4
:102C10005F029C0197FF03C03195219531092093F4
:102C20005E02B8CD2091D30291E02F3E09F090E0F2
:102C30008091630290FB87F9809363022C3319F033
:102C40008064809363028AE0289F90011124C90167
:102C50006CE370E00E94A22060935D02C90166E00F
:102C600070E00E94A220CB016AE070E00E94A220E6
:102C700080935C028FCD809163029091D00290FB93
:102C800080F9809363028091D102982F937051E074
:102C9000913009F050E09091620250FB90F99093CE
:102CA000620241E0982F9C70943009F040E09091CE
:102CB000620240FB92F99093620231E0982F907388
:102CC000903109F030E09091620230FB94F99093DA
:102CD0006202807C21E0803409F020E08091620271
:102CE00020FB86F9809362029091640290FD52CDA0
:102CF0008091610250FB84F940FB85F930FB86F935
:102D000020FB87F980936102892F816080936402A0
:102D100041CD6091D3026093330287E390E09A83C0
:102D20008983CE0101960E947A0E34CD8091D20221
:102D3000843061F48091D3028F3309F02BCD81E090
:102D40008093C0032F7B2093600224CD8130E1F477
:102D50008091D3028F3309F01DCD81E08093B403BD
:102D60008091600280648093600210928102809161
:102D70006102877F809361028091630282FF0ACDA6
:102D80008B7F8093630206CD803171F48091D302F2
:102D90008F3309F0FFCC8091D502833F09F4FACC40
:102DA00081E08093CC03F6CC81112AC08091D302BC
:102DB0008F3309F0EFCC8091D4028F3F09F0EACC39
:102DC0008091D502813F61F48091600281FD05C050
:102DD00091E09093D80382600BCF1092D803DACCA5
:102DE000803F09F0D7CC1092C0031092B403109228
:102DF000CC03809161028F788F7780936102CACC77
:102E0000803409F0C7CC8091D3028F3309F0C2CC53
:102E10001092D803809160028D7F80936002E9CF89
:102E20008091D70280FB25F98ECF8091D3028370E9
:102E300091E0823009F090E08091600290FB83F98C
:102E40008093600283FD19C0809181028823A9F0DC
:102E50000E94260300918202109183022091840235
:102E600030918502601B710B820B930B693E73409E
:102E70008105910510F0109281028091D402809317
:102E8000310288CC91E08091D1028C3F09F490E02E
:102E90008091600290FB87F9ABCE91E08091D102E6
:102EA0008C3F09F490E08091610290FB80F9A5CFFE
:102EB00091E08091D002811101C090E08091610287
:102EC00090FB81F99ACF91E08091D002811101C0ED
:102ED00090E08091610290FB82F98FCF8091CF03C7
:102EE000813009F071CC1092CF036BCC90E080E080
:102EF000FECC8B7F809363026CE082E990E0AECDE4
:102F00003111D2CD12821182C084D184E284F38443
:102F10004B015C018C189D08AE08BF087501640167
:102F200038EEC31633E0D306E104F10408F0BCCD5B
:102F300033813F5F33836483758386839783B4CD06
:102F40006DEE70E086E292E00E942C20892B29F43D
:102F5000F8940C94003F0C94D91F69EE70E086E25F
:102F600092E00E942C20892B21F410939A020C9459
:102F7000D91F64EE70E086E292E00E942C20892B3B
:102F800021F4109390020C94D91F6DED70E086E24D
:102F900092E00E942C20892B21F410938B020C9438
:102FA000D91F68ED70E086E292E00E942C20892B08
:102FB00021F410939F020C94D91F63ED70E086E218
:102FC00092E00E942C20892B19F41093A402F1C7DF
:102FD0006EEC70E086E292E00E942C20892B19F4BE
:102FE0001093A902E6C769EC70E086E292E00E94C5
:102FF0002C20892B39F48091600283FF03C0109349
:103000008602D7C763EC70E086E292E00E942C2033
:10301000892B21F48091600283FF0BC06FEB70E07D
:1030200086E292E00E942C20892B31F41093BD029D
:10303000C0C710937202BDC769EB70E086E292E0F0
:103040000E942C20892B19F40E945C0CB2C764EBFF
:1030500070E086E292E00E942C20892B79F488E5CA
:1030600092E0A0E0B0E08093000190930101A09372
:103070000201B0930301F092B3029BC76BEA70E0C8
:1030800086E292E00E942C20892B09F092C71093CF
:10309000720200937C028DC79F5F90933002808301
:1030A00061C70E9426030091580210915902209195
:1030B0005A0230915B02601B710B820B930B683ECE
:1030C00073408105910508F434C10E942603609382
:1030D00058027093590280935A0290935B0283E9DD
:1030E00093E00E94C203892B09F423C1A89583E9C8
:1030F00093E00E94D803082F109157021F3168F007
:10310000E12FE051FF0BAF0167E472E087E392E04B
:103110000E940621105110935702E0915702BB24E0
:10312000B394BE0EB0925702F0E0E95CFD4F00830D
:10313000CB2CD12CF601E95CFD4F10826CE671E0DE
:1031400087E392E00E9433217C01009741F26AE01C
:1031500070E00E9418218C01892B09F4C0CF6CE229
:1031600070E0C7010E941821009719F0801791079D
:1031700018F010925702B3CF01960E940E207C01E6
:10318000065312400B1508F4B9C010925702E09193
:103190005702F0E0E95CFD4F10821E141F040CF092
:1031A0009ECF80914B04882309F499CF83E091E06E
:1031B0000E94A703CE2CD12CF12CE12C2AE0B701E0
:1031C000A60183E993E00E94460664E671E083E984
:1031D00093E00E94270643E751E062E370E080E15C
:1031E00097E20E94A905882309F479CF22E242E2FE
:1031F00070E060E090E080E00E945304882309F4CE
:103200006ECF22E242E26FE070E08CE894E00E9430
:103210005304882309F463CF22E242E270E060E0C5
:1032200090E080E00E945304882309F458CF22E202
:1032300042E270E060E090E080E00E945304882366
:1032400009F44DCF2DE04AE060E470E08CE494E0B6
:103250000E945304882309F442CF62E370E088EEB1
:1032600093E00E94F90380914B04882309F461C024
:103270008AEF90E00E94A7032AE0B701A60183E944
:1032800093E00E94460664E671E083E993E00E94C1
:10329000270649E651E062E370E088EA91E60E9481
:1032A000A905882309F445C062E370E088EE93E045
:1032B0000E94F90368ED72E08CE894E00E942321FB
:1032C000892B59F167EE72E08CE894E00E9423218B
:1032D000892B19F16BE871E08CE494E00E943C20AA
:1032E000892B09F011C48091D802882311F16CE474
:1032F00074E090E080E00E9424071BC0B8017727AB
:10330000A601461B570B695C7D4F87E392E00E9444
:103310000621B01AB09257023ACF60E871E08CE40F
:1033200094E00E942C20892B09F04FC382E0809307
:103330009F02A89580917202882319F080E00E9474
:103340002D0880917702882319F081E00E942D08D2
:1033500080917C028630C1F580917D0290917E0241
:10336000A0917F02B0918002892B8A2B8B2B51F484
:103370000E94260360937D0270937E0280937F02F9
:10338000909380020E94260300917D0210917E029C
:1033900020917F0230918002DC01CB01801B910BD8
:1033A000A20BB30B61E08C32F1E09F07A105B105E0
:1033B00040F060E0803223E09207A105B10508F0FB
:1033C000CCC389E00E944D02109186021123A9F11D
:1033D0008091870290918802A0918902B0918A021F
:1033E000892B8A2B8B2B51F40E9426036093870232
:1033F000709388028093890290938A020E94260328
:10340000C0908702D0908802E0908902F0908A02F2
:10341000DC01CB018C199D09AE09BF092091600226
:10342000022F087023FF45C484369105A105B1051C
:1034300008F03FC481E00E94CA0480919002882372
:1034400021F063E186E00E949B0780918B02882334
:1034500021F062E185E00E949B078091950288231C
:1034600009F441C08091960290919702A091980230
:10347000B0919902892B8A2B8B2B69F40E94260329
:1034800060939602709397028093980290939902AA
:1034900081E08093AE020E94260300919602109173
:1034A00097022091980230919902601B710B820B58
:1034B000930B60367A4E8105910558F48091600235
:1034C00083FD11C080916202857569F481E080936B
:1034D0008B0210929502109296021092970210920F
:1034E00098021092990210919A021123C9F1123098
:1034F00019F480E00E94A50C80919B0290919C029F
:10350000A0919D02B0919E02892B8A2B8B2B51F4A6
:103510000E94260360939B0270939C0280939D02FD
:1035200090939E020E942603C0909B02D0909C0222
:10353000E0909D02F0909E02DC01CB018C199D0968
:10354000AE09BF09123009F001C404E813E020E01D
:1035500030E0843FE1E09E07A105B10508F0FAC321
:1035600080919F02882331F04AEB51E061E189E0CC
:103570000E949A098091A402882331F040EC51E026
:103580006EE08AE00E949A098091A902882331F0B6
:1035900046EC51E060E18BE00E949A098091AE0216
:1035A0008823C9F18091AF029091B002A091B1023D
:1035B000B091B202892B8A2B8B2B69F40E942603CF
:1035C0006093AF027093B0028093B1029093B20205
:1035D00081E00E94A50C0E9426030091AF02109189
:1035E000B0022091B1023091B202601B710B820BCC
:1035F000930B653671058105910568F080E00E94A6
:10360000A50C1092AE021092AF021092B00210926E
:10361000B1021092B2028091BD02882309F412C156
:103620006091690270916A0280916B0290916C02C4
:1036300020EA36E841E050E00E94D82069012B01E1
:103640003C0189018090650290906602A09067021B
:10365000B0906802C501B40120EA36E841E050E0CC
:103660000E94D8202FA338A749A75AA72FA038A473
:10367000C201D301B7FF07C0B095A0959095819581
:103680009F4FAF4FBF4F3C01C501B40120EA36E860
:1036900041E050E00E94D82097FF07C090958095A8
:1036A000709561957F4F8F4F9F4F5B0187E48983B2
:1036B00080E58A8383E58B83FE01349617FF08C07B
:1036C0008DE28C83002711270C191D09FE01359608
:1036D000043611054CF0C80164E670E00E94A22097
:1036E000605D60838C0131960A3011054CF0C80191
:1036F0006AE070E00E94A220605D6083082F31962E
:10370000005D00838EE28183C30160E177E20E9465
:103710008E20605D6283C30168EE73E00E948E209C
:10372000CB012AE030E0B9010E948E20805D8383C6
:10373000C30164E670E00E948E20CB01B9010E94B3
:103740008E20805D8483C301B9010E948E20482FA2
:10375000CB01B9010E948E20805D8583405D468348
:103760008CE287838F0137FC0EC3085F1F4FF4E69E
:103770002F1631045CF0C10164E670E00E94A220C3
:10378000605DD8016C931C010F5F1F4FBAE02B16D0
:1037900031045CF0C1016AE070E00E94A220605D2B
:1037A000F8016083282E0F5F1F4F80E3820DD80140
:1037B0008C938EE211968C93C50160E177E20E94B2
:1037C0008E20605DF8016283C50168EE73E00E949F
:1037D0008E20CB012AE030E0B9010E948E20805D6E
:1037E0008383C50164E670E00E948E20CB01B9019D
:1037F0000E948E20805D8483C501B9010E948E20C5
:10380000482FCB01B9010E948E20805D8583405DE9
:10381000468380E2878383E28087C80109960E94FD
:103820007D05D80151961C921092BD021092BE02E5
:103830001092BF021092C0021092C102CE010196F6
:103840000E9473071091B302112309F43FC08091C5
:10385000B4029091B502A091B602B091B702892B43
:103860008A2B8B2B81F40E9426036093B402709301
:10387000B5028093B6029093B702123009F09CC350
:1038800081E08093AE020E942603C090B402D090E3
:10389000B502E090B602F090B702DC01CB018C19C2
:1038A0009D09AE09BF0940916D02123009F096C31F
:1038B000843FE1E09E07A105B10508F06EC24423F4
:1038C00029F080E00E94940C10926D028091B80261
:1038D000882309F46AC00E9426036B017C01809151
:1038E000B9029091BA02A091BB02B091BC02892B9F
:1038F0008A2B8B2B81F4C092B902D092BA02E0924B
:10390000BB02F092BC0210926E0210926F021092F3
:103910007002109271028091B9029091BA02A09146
:10392000BB02B091BC0246015701881A990AAA0A43
:10393000BB0A80916E0290916F02A0917002B091CB
:1039400071020097A105B10569F0A7019601281B36
:10395000390B4A0B5B0BDA01C901843F9140A10589
:10396000B10550F00E945C0CC0926E02D0926F02C2
:10397000E0927002F092710240E1841647E29406F0
:10398000A104B10490F01092B8021092B902109202
:10399000BA021092BB021092BC0210926E021092F8
:1039A0006F02109270021092710280E090E0892BF9
:1039B00011F40C94F4110E94A501882311F40C94C5
:1039C000EF110E9400000C94EF116CE771E08CE4A1
:1039D00094E00E942C20892B21F482E08093A9029C
:1039E000A8CC67E771E08CE494E00E942C20892B3E
:1039F00021F482E0809390029CCC60E771E08CE43B
:103A000094E00E942C20892B21F482E080938B0289
:103A100090CC6BE671E08CE494E00E942C20892B22
:103A200021F482E08093B30284CC65E671E08CE4FB
:103A300094E00E942C20892B21F481E08093B8022D
:103A400078CC61E671E08CE494E00E942C20892B14
:103A500021F482E080939A026CCC6BE571E08CE4F7
:103A600094E00E942C20892B21F48091600283FF36
:103A700014C066E571E08CE494E00E942C20892B50
:103A800081F062E571E08CE494E00E942C20892BA7
:103A900081F481E08093BD024CCC82E08093770278
:103AA00048CC8091600283FFECCF82E08093860255
:103AB00040CC6BE471E08CE494E00E942C20892BD4
:103AC00019F40E947D0735CC65E471E08CE494E044
:103AD0000E942C20892B21F4F8940C94003F29CCCF
:103AE0006CE371E08CE494E00E942C20892B09F0B7
:103AF00020CC8091600283FD1CCC82E08093770211
:103B000085E080937C0215CC68E371E08CE494E05E
:103B10000E943C20892B69F06CE874E088ED92E00B
:103B20000E942C210E94930E84E291E00E94910950
:103B300000CC60E271E08CE494E00E943C20892B90
:103B400009F4F7CB6CE874E087EE92E00E942C2138
:103B50000E94930E8CE091E0E9CF88389341A10553
:103B6000B10508F095C089E00E944D028091640281
:103B700081FD2ACC4091630246FF26CC80918102D0
:103B8000823009F021CC80915F0250915E02209139
:103B90005D0230915C029CE79983FE01329687FFBB
:103BA00005C09DE29A838195FE01339684363CF0F0
:103BB00091E3908364E60E948020892F31968A30B9
:103BC0003CF06AE00E948020805D8083892F3196DE
:103BD000805D80838EE28183852F6AE00E9474205D
:103BE000905D92838CE7838347FF2AC08FE68483AE
:103BF0008CE6858384E7868382E7878385E68087F2
:103C000080E2818784E382878F01045F1F4F80E316
:103C1000838723E2D8012D93CD010E947D05F80111
:103C20001186CE0101960E94730780916402826022
:103C300080936402809163028F7B80936302C4CB84
:103C4000DF012436E0F414962A3040F0822F6AE037
:103C50000E947420805D8C93292F1196205D2C93F7
:103C60008EE211968C9311978D010D5F1F4F832F5C
:103C70006AE00E947420905D12969C93CACF1596BC
:103C8000822F64E60E947420805D8483292FDCCF1C
:103C900089E00E944D0210927C0210927D021092E7
:103CA0007E0210927F0210928002809164028D7FCA
:103CB000BFCF8C32F1E09F07A105B10510F480E081
:103CC000BACB803D37E09307A105B10508F4B5CB29
:103CD000287239F48C3F48E09407A105B10508F437
:103CE000A9CB80369940A105B10550F580E00E942E
:103CF000CA04002341F080916302846080936302D0
:103D00000E947D0706C01330B9F0143079F01230EC
:103D1000B9F31092860210928702109288021092D4
:103D2000890210928A021092810287CB6DE08CEAA0
:103D300091E00E944C0EEDCF6FE08CE991E0F9CF5D
:103D400080E00E94CA0410928602EDCF00E911E0E3
:103D500020E030E080179107A207B30728F461E064
:103D600084E00E944D02FCCB60E084E00E944D02A2
:103D700010929A0210929B0210929C0210929D0245
:103D800010929E02EDCB075F1F4F8DE280872FA020
:103D900038A4319421943108EACC04EF11E020E0FA
:103DA00030E0C0900001D0900101E0900201F0905D
:103DB00003010C0D1D1D2E1D3F1D80179107A2072D
:103DC000B30748F4411182CD81E00E94940C81E058
:103DD00080936D027BCD442329F080E00E94940CF7
:103DE00010926D021092B3021092B4021092B502BA
:103DF0001092B6021092B70280ED97E0A0E0B0E01A
:103E00008093000190930101A0930201B0930301FC
:103E10005DCD009181020E942603C0908202D09065
:103E20008302E0908402F09085026C197D098E096E
:103E30009F0961347F418105910578F015FD04C02B
:103E400080916202857549F083E0023011F00C9494
:103E50007D15809386021092810217FD05C0809126
:103E60006102877021E009F020E09091630220FB5D
:103E700094F99093630292FB002700F9192F1170B7
:103E800080916202B82FB17082FBAA27A0F984FB4F
:103E9000FF27F0F986FBEE27E0F93091600233FB53
:103EA000772770F9609135025091330240913102C9
:103EB00093FBFF24F0F8F0122DC095FBFF24F0F8DF
:103EC0002F1128C096959170911324C081FB9927DA
:103ED00090F99B131FC083FB992790F9A9131AC06F
:103EE00085FB992790F9F91315C087FB882780F97E
:103EF0008E1310C03295317073130CC0809136024E
:103F0000681308C080913402851304C08091320286
:103F1000841721F18091630200FB83F920FB85F96E
:103F200010FB81F98093630280916202B0FB81F9FA
:103F3000A0FB83F9F0FB85F9E0FB87F9809362022F
:103F40008091600270FB84F9809360026093360276
:103F500050933402409332020E94920611E005E031
:103F600082E0F82E86EF92E00E949901892B09F4F5
:103F700098C886EF92E00E94770190913002E92F75
:103F8000F0E0EA5DFD4F8A3039F08D3029F088236A
:103F900019F0993008F480C8108263EF70E086E26F
:103FA00092E00E942C20892B11F00C94A0170E9403
:103FB000920610923002D6CF0E9426030091B402DE
:103FC0001091B5022091B6023091B702DC01CB010D
:103FD000801B910BA20BB30B40916D0200E010E02F
:103FE0009801DFCE86E591E090939403809393034C
:103FF00080912002909121028359934071F4E091C5
:10400000A603F091A70390818091A803809589234E
:10401000808310922102109220020895FC018827CB
:104020009927E89421912032E9F3293010F02E30BD
:10403000C8F32B3241F02D3239F4689404C00E9449
:104040005620820F911D219120532A30C0F31EF477
:10405000909581959F4F0895FB01DC018D9105900E
:1040600080190110D9F3990B0895FB01DC0105902B
:104070000D920020E1F70895FB0155915523A9F019
:10408000BF01DC014D9145174111E1F759F4CD0114
:104090000590002049F04D9140154111C9F3FB01F5
:1040A0004111EFCF81E090E0019708957AE0979F6A
:1040B000902D879F802D910D11240895F999FECFA1
:1040C00092BD81BDF89A992780B50895262FF99958
:1040D000FECF1FBA92BD81BD20BD0FB6F894FA9AEB
:1040E000F99A0FBE01960895991B79E004C0991FB3
:1040F000961708F0961B881F7A95C9F78095089542
:1041000087FB082E062687FD819567FD61950E9435
:1041100074200EF4919507FC81950895AA1BBB1B92
:1041200051E107C0AA1FBB1FA617B70710F0A61BB7
:10413000B70B881F991F5A95A9F780959095BC01D8
:10414000CD01089597FB072E16F4009407D077FD54
:1041500009D00E948E2007FC05D03EF490958195F1
:104160009F4F0895709561957F4F0895A1E21A2E93
:10417000AA1BBB1BFD010DC0AA1FBB1FEE1FFF1F0B
:10418000A217B307E407F50720F0A21BB30BE40B5B
:10419000F50B661F771F881F991F1A9469F76095A2
:1041A0007095809590959B01AC01BD01CF0108955C
:1041B000052E97FB1EF400940E94EF2057FD07D0B8
:1041C0000E94B62007FC03D04EF40C94EF205095CB
:1041D0004095309521953F4F4F4F5F4F08959095F3
:1041E0008095709561957F4F8F4F9F4F0895EE0F8B
:1041F000FF1F0590F491E02D0994FB01DC0102C042
:1042000001900D9241505040D8F7089568177907F2
:1042100068F4FB01DC01E40FF51FA40FB51F02C019
:1042200002900E9241505040D8F708950C94FD2012
:10423000FC018191861721F08823D9F799270895E9
:104240003197CF010895FB01DC018D910190801918
:104250000110D9F3990B0895FB01DC0101900D9237
:104260000020E1F70895FB0151915523A9F0BF010A
:10427000DC014D9145174111E1F759F4CD01019051
:10428000002049F04D9140154111C9F3FB01411146
:10429000EFCF81E090E00197089511E0C0E1D1E017
:1042A00004C0FE010E94F7202196C131D107C9F751
:0442B000F894FFCFB0
:1042B400D00700000000010002000000010002001D
:1042C40003000400050009050412110E100813066A
:1042D400077A017F018D0192019901A301B5016063
:1042E4006166017071760230313640414650515654
:1042F40000000000DB013B0168012D0299017701F8
:104304008B01000000004B033B01C0044A03C203BD
:10431400D80332030D0A003E004F4B002B434D548B
:10432400493A002B434D47523A0041542646004136
:10433400542B435343533D2247534D22004154458C
:10434400300041542B4342430041542B434D4746D4
:104354003D310041542B434E4D493D322C312C30DC
:104364002C302C300041542B43504D533D22534D9F
:0C437400222C22534D222C22534D2200FB
:00000001FF
