:100000000C940D010C9435010C9435010C94710E77
:100010000C94710E0C94710E0C9435010C943501F6
:100020000C9435010C9435010C9435010C94350178
:100030000C9435010C9435010C9435010C94350168
:100040000C94270E0C9435010C94F50D0C94CF0DE7
:100050000C9435010C9435010C9435010C94350148
:100060000C9435010C9435010000000800020100D9
:1000700000030407000000000000000041542B436F
:100080004D4744413D2244454C20414C4C220041C7
:10009000540052656D6F7465204F46460052656D81
:1000A0006F7465204F4E004252532D436C6F736541
:1000B000642023004252532D416C61726D20230055
:1000C00073746172745F616300686F726E006C6953
:1000D000676874006770730073746172740073747E
:1000E0006F7000626F783300626F783200626F78F1
:1000F00031006368697564690061707269006777CF
:100100007300726573657400757064617465004195
:10011000542B434D47443D0041542B434D47523DE2
:10012000004E756D65726F205B325D2053616C7699
:1001300061746F21005B325D004E756D65726F20DA
:100140005B315D2053616C7661746F21005B315DC2
:1001500000537461727420414300526573657400EA
:10016000557064617465004750530053746F70009C
:10017000537461727400475753004C696768740088
:10018000486F726E004368697564690041707269F6
:1001900000426F7800536F7263696E656C6C690022
:1001A000536574204F574E45522032303132373626
:1001B00000424F58203100424F58203200424F58E1
:1001C000203300220041542B434D47533D22000071
:1001D0000000002300260029000000000025002860
:1001E000002B0000000000240027002A0001020468
:1001F00008102040800102040810200102040810A9
:10020000200404040404040404020202020202039F
:10021000030303030300E90E042111241FBECFEFE3
:10022000D8E0DEBFCDBF11E0A0E0B1E0ECEBF4E43C
:1002300002C005900D92AC3CB107D9F724E0ACECBC
:10024000B1E001C01D92A03AB207E1F711E0CCE0A5
:10025000D1E004C02197FE010E94FB21CB30D107E1
:10026000C9F70E94F50F0C9451220C940000AF9234
:10027000BF92CF92DF92EF92FF920F931F93CF9393
:10028000DF936C017B018B01040F151FEB015E01F5
:10029000AE18BF08C017D10759F06991D601ED918A
:1002A000FC910190F081E02DC6010995892B79F729
:1002B000C501DF91CF911F910F91FF90EF90DF90DB
:1002C000CF90BF90AF900895FC01538D448D252FA2
:1002D00030E0842F90E0821B930B541710F0CF96E0
:1002E000089501970895FC01918D828D981761F012
:1002F000A28DAE0FBF2FB11D5D968C91928D9F5F29
:100300009F73928F90E008958FEF9FEF0895FC0107
:10031000918D828D981731F0828DE80FF11D858DBA
:1003200090E008958FEF9FEF0895FC01918D228D4D
:10033000892F90E0805C9F4F821B91098F739927D2
:10034000089587EF92E00E94950121E0892B09F43E
:1003500020E0822F089580E090E0892B29F00E9410
:10036000A10181110C9400000895FC01A48DA80F37
:10037000B92FB11DA35ABF4F2C91848D90E00196E7
:100380008F739927848FA689B7892C93A089B18907
:100390008C91837080648C93938D848D981306C0A8
:1003A0000288F389E02D80818F7D80830895EF920C
:1003B000FF920F931F93CF93DF93EC0181E0888F1F
:1003C0009B8D8C8D98131AC0E889F989808185FFEF
:1003D00015C09FB7F894EE89FF896083E889F98991
:1003E00080818370806480839FBF81E090E0DF9193
:1003F000CF911F910F91FF90EF900895F62E0B8DE6
:1004000010E00F5F1F4F0F731127E02E8C8D8E11A0
:100410000CC00FB607FCFACFE889F989808185FF07
:10042000F5CFCE010E94B501F1CFEB8DEC0FFD2F82
:10043000F11DE35AFF4FF0829FB7F8940B8FEA89C2
:10044000FB8980818062CFCF682F87EF92E00C9488
:10045000D701CF93DF93EC01888D8823B9F0AA8967
:10046000BB89E889F9898C9185FD03C0808186FD6F
:100470000DC00FB607FCF7CF8C9185FFF2CF8081BE
:1004800085FFEDCFCE010E94B501E9CFDF91CF917D
:10049000089590E0FC01E859FF4F2491FC01E351DD
:1004A000FE4F3491FC01EF5FFD4FE491EE23C9F064
:1004B000222339F0233001F1A8F4213019F1223040
:1004C00029F1F0E0EE0FFF1FE752FE4FA591B49126
:1004D0008FB7F894EC91611126C030953E233C9380
:1004E0008FBF08952730A9F02830C9F0243049F78C
:1004F000809180008F7D03C0809180008F778093F2
:100500008000DFCF84B58F7784BDDBCF84B58F7D4E
:10051000FBCF8091B0008F778093B000D2CF8091D5
:10052000B0008F7DF9CF3E2BDACF61E0809145049A
:100530000C944902CF93DF9390E0FC01E351FE4F0E
:1005400024918F5F9D4FFC0184918823D1F090E02E
:10055000880F991FFC01ED51FE4FA591B491FC014C
:10056000E752FE4FC591D49161110EC09FB7F89428
:100570008C91E22FE0958E238C932881E223E883EF
:100580009FBFDF91CF9108958FB7F894EC91E22B44
:10059000EC938FBFF6CF3FB7F894809116029091FD
:1005A0001702A0911802B091190226B5A89B05C0A8
:1005B0002F3F19F00196A11DB11D3FBFBA2FA92FE2
:1005C000982F8827BC01CD01620F711D811D911DDF
:1005D00042E0660F771F881F991F4A95D1F708954B
:1005E0008F929F92AF92BF92CF92DF92EF92FF9243
:1005F0004B015C010E94CB026B017C010E94CB028B
:100600006C197D098E099F09683E7340810591052B
:10061000A8F321E0821A9108A108B10888EEC80E5B
:1006200083E0D81EE11CF11C81149104A104B104E3
:1006300029F7FF90EF90DF90CF90BF90AF909F9001
:100640008F9008952FB7F894609112027091130261
:1006500080911402909115022FBF089520911C02E1
:1006600030911D022817390771F490911A02809178
:100670001B02981741F0E0911A02F0E0EF52FE4F92
:10068000808190E008958FEF9FEF08950895EF9295
:10069000FF920F931F93CF93DF93DC015C96ED9055
:1006A000FC905D97E114F10479F481E090E01396F9
:1006B0009C938E93129790E080E0DF91CF911F91F1
:1006C0000F91FF90EF9008955196ED91FC91529704
:1006D00050968C915097982F90950FB75E962C91CD
:1006E0005E97122F127021FD6095F89420811123DE
:1006F00019F1282B2083E7012197F1F728E0462FF5
:1007000050E0308160FF1AC0382B3083E701219719
:10071000F1F7BA0175956795215089F7112381F09A
:100720008081892380830FBF5C968D919C91019776
:10073000F1F781E090E0C1CF2923DCCF3923E5CF69
:100740009081892BEFCF0F931F93CF93DF938C0171
:10075000D0E0C0E0F801EC0FFD1F6491662341F08A
:1007600084E993E00E944703892B11F02196F2CF90
:10077000CE01DF91CF911F910F91089520911C021E
:1007800030911D022817390761F480911B022091D6
:100790001A0290E0805C9F4F821B91098F7399270A
:1007A000089590E080E0089520911C0230911D0290
:1007B00028173907B9F490911A0280911B029817F3
:1007C00089F0E0911A02F0E0EF52FE4F8081209113
:1007D0001A0230E02F5F3F4F2F73332720931A0206
:1007E00090E008958FEF9FEF08954F925F926F9280
:1007F0007F928F929F92AF92BF92CF92DF92EF92B1
:10080000FF924C016B010E9422032B013C01B12C91
:10081000A12C84E993E00E94BE03892B69F40E9415
:1008200022036419750986099709681579058A05EF
:100830009B0510F4A895EDCF84E993E00E94BE03D8
:10084000892B01F10E9422034B015C01F12CE12C68
:10085000A89584E993E00E94BE03892B41F084E9C6
:1008600093E00E94D4030E9422034B015C010E948A
:100870002203681979098A099B096C157D058E0583
:100880009F0530F3FF90EF90DF90CF90BF90AF9037
:100890009F908F907F906F905F904F9008954F92B0
:1008A0005F926F927F929F92AF92BF92CF92DF92B0
:1008B000EF92FF920F931F93CF93DF938C016B0105
:1008C000E42E922E009721F0672B11F0FC0110828C
:1008D0000E9422032B013C01D0E0C0E0F12C560124
:1008E000F1E0AF1AB108A89584E993E00E94BE0335
:1008F000892B71F084E993E00E94D403F11015C0B4
:10090000FF24F3948E11F12C0E9422032B013C0151
:100910000E942203641975098609970962337105DB
:100920008105910500F3F12C0AC0891119C0011548
:10093000110529F0CD2819F0C00FD11F18828F2D75
:10094000DF91CF911F910F91FF90EF90DF90CF90AB
:10095000BF90AF909F907F906F905F904F90089561
:100960000115110589F2CA15DB0574F6F801EC0FC3
:10097000FD1F80832196C8CF90E080E008958EBD52
:1009800000000DB407FEFDCF8EB50895CF93C82F9C
:10099000682F86E00E9449026C2F87E0CF910C946B
:1009A00049024F925F926F927F928F929F92AF9285
:1009B000BF92CF92DF92EF92FF920F931F93CF934C
:1009C000DF934C017B016A010E9422032B013C0151
:1009D000B12CA12C84E993E00E94BE03892B69F419
:1009E0000E9422036419750986099709681579051B
:1009F0008A059B0510F4A895EDCF84E993E00E9449
:100A0000BE03892BD1F1F60101900020E9F731975F
:100A10008F010C191D090E9422034B015C01D0E0DB
:100A2000C0E011272701712C612CA89584E993E07F
:100A30000E94BE03892BB1F084E993E00E94D403A5
:100A4000F601EC0FFD1F9081981306C02196C01788
:100A5000D10721F481E012C0D0E0C0E00E9422035F
:100A60004B015C010E942203681979098A099B09DC
:100A70006415750586059705C0F280E0DF91CF917A
:100A80001F910F91FF90EF90DF90CF90BF90AF90AC
:100A90009F908F907F906F905F904F900895FB0193
:100AA00001900020E9F73197AF01461B570BDC019D
:100AB000ED91FC910280F381E02D0994CF93DF93B7
:100AC0000E94A303EC0164E671E084E993E00E94D4
:100AD0004F058C0F9D1FDF91CF9108958F929F92AC
:100AE000AF92BF92EF92FF920F931F93CF93DF933A
:100AF000CDB7DEB7A1970FB6F894DEBF0FBECDBF5E
:100B00007C01FA01CB0119A2223008F42AE08E01FF
:100B10000F5D1F4F822E912CB12CA12CBF01A5017E
:100B200094010E94BA21F901CA016A300CF5605D96
:100B3000D8016E938D01232B242B252B79F790E080
:100B400080E0109721F0BD01C7010E944F05A196DA
:100B50000FB6F894DEBF0FBECDBFDF91CF911F91CE
:100B60000F91FF90EF90BF90AF909F908F9008955E
:100B7000695CDECFCF93DF9383E20E942402409131
:100B8000570250E070E060E02AE087EF92E00E94B8
:100B90006E058EE20E9424024091560250E070E001
:100BA00060E02AE087EF92E00E946E0583E20E94F7
:100BB00024024091550250E070E060E02AE087EFA7
:100BC00092E00E946E058EE20E942402409154023F
:100BD00050E070E060E02AE087EF92E00E946E054E
:100BE00083E20E942402CCE1D0E080915E029091E9
:100BF0005F02A0916002B09161020C2E04C0B69514
:100C0000A795979587950A94D2F78F708A3080F4CC
:100C1000805D0E9424022497CC3F8FEFD80729F7EC
:100C200064E671E087EF92E0DF91CF910C944F057D
:100C3000895CEFCFCF93DF93D0E0C0E0009731F035
:100C4000BC0184E993E00E944F05EC0164E671E089
:100C500084E993E00E944F058C0F9D1FDF91CF9197
:100C600008950F931F93CF93DF9320914C0421118C
:100C700007C0C0E08C2FDF91CF911F910F91089595
:100C80008B01EC0185EC91E00E94A30368ED72E01A
:100C900084E993E00E944F0583EC91E00E945E0599
:100CA00047E651E064EF71E088EE93E00E94D104E2
:100CB0008823F9F262E370E088EE93E00E94F50386
:100CC0002097D1F0CE010E945E056AE184E993E0AD
:100CD0000E94470349E651E068E873E188E59BE13B
:100CE0000E94D104C82F882321F262E370E088EECD
:100CF00093E00E94F503BECFC8010E941A06E5CF1B
:100D00002091D802222329F0BC0190E080E00C94CD
:100D100031060895CF93DF93CDB7DEB72B970FB68B
:100D2000F894DEBF0FBECDBF83E2898340915E029F
:100D300050915F026091600270916102FE013296F3
:100D40002CE130E0DB01CA01022E04C0B695A79564
:100D5000979587950A94D2F78F708A30B0F4805DAA
:100D60008193245031092C3F8FEF380759F71A86A9
:100D7000CE0101960E9480062B960FB6F894DEBF36
:100D80000FBECDBFDF91CF910895895CE9CF8F92DF
:100D90009F92AF92BF92EF92FF920F931F93CF93C8
:100DA000DF93F82EE62EC82FD0E025E0829F800149
:100DB000112401591D4FF80181809280A380B480D5
:100DC00081149104A104B10491F40E942203F8015A
:100DD0006183728383839483DF91CF911F910F91FD
:100DE000FF90EF90BF90AF909F908F9008950E94DA
:100DF0002203DC01CB0188199909AA09BB0961E02A
:100E00008C32F1E09F07A105B105F0F0803921E0B7
:100E10009207A105B10570F461E08E2DDF91CF91AD
:100E20001F910F91FF90EF90BF90AF909F908F9088
:100E30000C94490260E08C3B9240A105B10530F46E
:100E40008E2D0E94490260E085E0E8CF8E2D0E9441
:100E5000490260E085E00E944902F80130818091FA
:100E60005E0290915F02A0916002B0916102323007
:100E700039F420915C022170F6E0FF1203C021F0EA
:100E8000BF7703C02223E1F3B06880935E029093A2
:100E90005F02A0936002B093610285E08C9FF00135
:100EA0008D9FF00D1124E159FD4F108211821282A5
:100EB00013821482323009F08FCFDF91CF911F91CE
:100EC0000F91FF90EF90BF90AF909F908F900C94F8
:100ED0008A06CF92DF92EF92FF920F931F93CF93E8
:100EE000C82F0E9422036B017C010C2F10E025E02B
:100EF000C29FF0011124E159FD4F81819281A381AC
:100F0000B481892B8A2B8B2B59F4C182D282E38244
:100F1000F4828091D0018330E0F48F5F8093D00120
:100F200085E0809FF001819FF00D1124E159FD4F74
:100F300081819281A381B481A7019601281B390B7D
:100F40004A0B5B0BDA01C901883C9105A105B1058B
:100F500058F461E085E0CF911F910F91FF90EF90E1
:100F6000DF90CF900C944902883532E09307A105B9
:100F7000B10528F483E1C11182E161E0ECCF8C3B43
:100F800042E09407A105B10528F483E1C11182E193
:100F900060E0E1CF20915902322F387023FD12C05A
:100FA000CC23D1F0883E53E09507A105B10560F44C
:100FB00081E0CF911F910F91FF90EF90DF90CF9044
:100FC0000C94C604CC2341F08C3444E09407A10572
:100FD000B10510F480E0EDCF287259F4C11189C039
:100FE000803243E09407A105B10580F461E088E018
:100FF000B2CF203249F4C111D4C0883E43E09407F7
:10100000A105B10518F4D4CFC1117AC0843145E0EF
:101010009407A105B105F0F248EB5BE060E070E0F9
:101020007AC0332321F160E088E00E94490260E049
:1010300085E00E944902809159028D7F8093590278
:1010400080917902853019F486E0809379021092BC
:10105000D00185E0809FF001819FF00D1124E159BE
:10106000FD4F1082118212821382148292C08091ED
:10107000D0018330D0F485E0809FF001819FF00D96
:101080001124E159FD4F118212821382148282E0F1
:10109000C11101C081E095E0909FF001919FF00D9A
:1010A0001124E159FD4F808374C060E088E00E9404
:1010B000490260E085E00E94490280915E029091C1
:1010C0005F02A0916002B0916102B06880935E02FD
:1010D00090935F02A0936002B0936102C1110E94DD
:1010E0008A061092D001809159028D7F8093590217
:1010F000B0CF803B54E09507A105B10508F476CF49
:10110000843A56E09507A105B10508F463CF48E499
:101110005DE060E070E084179507A607B70708F068
:1011200080CF2832B1F560E088E00E94490260E09B
:1011300085E00E944902CC2389F082E080937E0200
:10114000C0927F02D0928002E0928102F0928202ED
:1011500080917902811102C00E948A061092D0010A
:10116000809159028D7F8093590285E0809FF00124
:10117000819FF00D1124E159FD4F108211821282DE
:101180001382148280917902853019F486E080936D
:101190007902CF911F910F91FF90EF90DF90CF9048
:1011A0000895883755E09507A105B10508F400CFEB
:1011B000A7CF2091D802222321F070E060E00C94A8
:1011C000310608958F929F92AF92BF92DF92EF9275
:1011D000FF920F931F93CF93DF93D62E7A01082FA0
:1011E00010E025E0829FE0011124C159DD4F898183
:1011F0009A81AB81BC81892B8A2B8B2B49F40E946D
:10120000220369837A838B839C8381E08093AB0282
:101210000E94220325E0209FF001219FF00D112460
:10122000E159FD4F81809280A380B480DC01CB0125
:1012300088199909AA09BB0961E0843F21E0920756
:10124000A105B10530F080329340A105B10578F4D5
:1012500060E08D2DDF91CF911F910F91FF90EF9066
:10126000DF90BF90AF909F908F900C944902808147
:10127000823019F4C7010E94D90860E08D2D0E94C8
:10128000490285E0809FF001819FF00D1124E15912
:10129000FD4F10821182128213821482DF91CF914E
:1012A0001F910F91FF90EF90DF90BF90AF909F90B4
:1012B0008F9008950F931F93009146041091470457
:1012C000209148043091490440E052E16AE770E01F
:1012D00080E0041715072607370740F476956795D1
:1012E000579547958F5F8630A1F787E0982F906AD2
:1012F0009695809581709CBD8DBD60E08091450480
:101300001F910F910C944902CF93C82F0E945A0944
:1013100083E00E94BF048C2F0E94BF0480E00E94E3
:10132000BF04C82F0E9495028C2FCF910895FF9281
:101330000F931F93CF93DF93C82FF62E172F042FF1
:101340000E945A0982E00E94BF048C2F0E94BF04B1
:10135000CF2DD12F0C0F1D2F111DC017D10721F03C
:1013600089910E94BF04F9CFDF91CF911F910F9116
:10137000FF900C9495021F93CF93DF93182FD62FD5
:10138000C42F0E945A0985E00E94BF04812F0E9449
:10139000BF048D2F0E94BF048C2F0E94BF04DF91D9
:1013A000CF911F910C949502CF92DF92EF92FF9212
:1013B000CF93C82F482F60EE8FE00E94BB090E9498
:1013C00022036B017C012AE0C20ED11CE11CF11C3E
:1013D0000E9422036C157D058E059F0580F48EE02A
:1013E0000E948409807EC813F3CF81E091E08927B1
:1013F00090E0CF91FF90EF90DF90CF90089580E044
:10140000F5CFCF93DF93D82FC62F0E945A0982E0E1
:101410000E94BF048D2F0E94BF048C2F0E94BF0426
:10142000DF91CF910C949502FF920F931F93CF936E
:10143000DF93C82FF62E172F042F0E945A0983E03E
:101440000E94BF048C2F0E94BF04CF2DD12F0C0F00
:101450001D2F111DC017D10729F080E00E94BF0485
:101460008993F8CFDF91CF911F910F91FF900C944A
:101470009502BF92CF92DF92EF92FF920F931F934C
:10148000CF93DF9300D000D01F92CDB7DEB78C0191
:10149000000F111F000F111FF801E15DFE4F45E025
:1014A000BE016F5F7F4F81810E94140A8A81C980CB
:1014B00098E0C99E60011124282F30E055E0359551
:1014C00027955A95E1F7C20ED31E0D2C000CEE089D
:1014D000FF0883FF20C092E0CC0CDD1CEE1CFF1C3B
:1014E0009A95D1F78370C80ED11CE11CF11CFE2C1B
:1014F000ED2CDC2CCC248B81C80ED11CE11CF11C02
:10150000FE2CED2CDC2CCC248C81C80ED11CE11CD3
:10151000F11C6894F7F88D818F70B82EE8E081E0B7
:1015200090E0EB1528F1F801E15DFE4F80810E940B
:10153000840983FF02C06894F6F8C092C802D09272
:10154000C902E092CA02F092CB02B092CC02015DD5
:101550001E4F4B2D60ED72E0F80182810E94140A4B
:1015600040E0F80163818CE20E94BB0990E080E0DA
:101570000F900F900F900F900F90DF91CF911F91D0
:101580000F91FF90EF90DF90CF90BF9008954F9212
:101590005F926F927F928F929F92AF92BF92CF9203
:1015A000DF92EF92FF920F931F93CF93DF93CDB70C
:1015B000DEB763970FB6F894DEBF0FBECDBFFC0158
:1015C0002481293008F08DC05C0186E0E4E0F1E080
:1015D000DE011E9601900D928A95E1F73E01FEE034
:1015E0006F0E711C8E010C5E1F4FF301C190D190E4
:1015F0003F017601EE0CFF1CF701EC0DFD1DE95CCF
:10160000FE4F8080882D0E94840983FD96C0F501DD
:101610009480F8E0F91508F464C0F50100811181A7
:1016200022813381B901A801442777FD43955527CD
:1016300066277727D901C80188279927AA27B07478
:1016400044244A94542C642C7FE1772E411106C027
:1016500044244A9467E0562E612C712C04211521F4
:1016600026213721442309F43FC00C831B838901C1
:1016700022273327402F440F440F440F407E502F22
:1016800053705860452B4A8355E0169507955A9537
:10169000E1F70983892B8A2B8B2BA1F1892D80649B
:1016A0008D83492D50E0B501685F7F4FCE010696CE
:1016B0000E94012245E0490DF701EC0DFD1DE95C9A
:1016C000FE4FBE016F5F7F4F81810E94970948E006
:1016D00068E0882D0E94BB09882D0E9484098077CC
:1016E00099F084E090E012C0A80123E05695479558
:1016F0002A95E1F749830295000F007E0A831C8238
:101700001B82C8CF892DCCCF90E080E063960FB6C6
:10171000F894DEBF0FBECDBFDF91CF911F910F9127
:10172000FF90EF90DF90CF90BF90AF909F908F9001
:101730007F906F905F904F9008956016710609F04A
:1017400054CF82E090E0E2CF0F931F93CF93DF93CB
:10175000CDB7DEB767970FB6F894DEBF0FBECDBF2B
:101760008E01085F1F4F087F8BEE92E0A0E0B0E093
:10177000F80180839183A283B38388E084831086F9
:1017800011861286138614861686178680E885874A
:10179000C8010E94C70AC8010E94C70AC8010E9466
:1017A000C70A67960FB6F894DEBF0FBECDBFDF91B4
:1017B000CF911F910F910895E8ECF2E046EB52E0D3
:1017C00060E070E0408351836283738392E094838E
:1017D00080871186CF010C94C70A46EC51E060E087
:1017E00070E04093C8025093C9026093CA0270939C
:1017F000CB0294E09093CC02813089F080E010928B
:10180000D1021092D0028093D3028093D20288EC4E
:1018100092E00E94C70A88EC92E00C94C70A82E525
:10182000EECFE8ECF2E04AE352E060E070E04083A3
:1018300051836283738394E0948391E1908793EF63
:10184000918782878FE38387CF010E94C70A88EC44
:1018500092E00E94C70A88EC92E00C94C70A8F922B
:101860009F92AF92BF92CF92DF92EF92FF921F931F
:10187000CF93DF93CDB7DEB7A0970FB6F894DEBF56
:101880000FBECDBF4B015C010E9422036B017C01A6
:10189000198210E00E9422036C197D098E099F09AC
:1018A000681579058A059B0508F045C0A89584E967
:1018B00093E00E94BE03892B69F3A89584E993E025
:1018C0000E94D403E12F1F3150F090E1FE01719688
:1018D000DE01119601900D929A95E1F7EFE011E08B
:1018E0001E0F21E030E02C0F3D1F2E0F311DF9019E
:1018F0008083E1E0F0E0EC0FFD1FE10FF11D1082AD
:1019000069E671E0CE0101960E943722892B79F2B7
:1019100081E0A0960FB6F894DEBF0FBECDBFDF9179
:10192000CF911F91FF90EF90DF90CF90BF90AF903D
:101930009F908F90089580E0ECCFBF92CF92DF927E
:10194000EF92FF920F931F93CF93DF93CDB7DEB744
:10195000A2970FB6F894DEBF0FBECDBF0E945A0902
:1019600080EC0E94BF040E9495026AE070E080E073
:1019700090E00E94F0028E010F5F1F4F8EE0F80191
:1019800011928A95E9F74EE0B80180E30E94970929
:101990004EE0B80180E40E9497094EE0B80180E56E
:1019A0000E94970960E080E60E94010A60E080E7FB
:1019B0000E94010A63EA8BE20E94010A44E067E6A2
:1019C00080E60E94BB0941E067E680E70E94BB0910
:1019D0008CE0EAE0F1E0DE011F9601900D928A951D
:1019E000E1F76E01FFE0CF0ED11CF12CE12C98E065
:1019F000B92EF601019111916F0180E80E94D4097E
:101A0000892B61F40230110509F47FC058F50115E6
:101A1000110509F480C00130110579F180E80E94B8
:101A2000D409892B61F460E08AE20E94010A60EF28
:101A300089E20E94010A66E888E20E94010A80E0C9
:101A40000E94D409A2960FB6F894DEBF0FBECDBF98
:101A5000DF91CF911F910F91FF90EF90DF90CF908A
:101A6000BF9008950430110509F453C008F44FC025
:101A70000530110599F688E101C084E0F1E0EF1628
:101A8000F10409F04AC01E8E1D8EBC8E1B8E44E0F0
:101A9000BE01655E7F4F0E9497098FEFE81AF80A32
:101AA00096E0E916F10409F0A4CF18A21F8E81E098
:101AB00090E09AA389A38E01015E1F4F6E01E3E2BD
:101AC000CE0ED11C88E0B82EF801E190F1908F0184
:101AD00080E80E94D409892B09F0A0CF1E8E1D8EAC
:101AE000BC8E1B8EE114F104E9F0EA94EF2809F0B2
:101AF00095CF84E244E0BE01655E7F4F0E94970966
:101B00000C151D0509F48ACFDFCF88E0B7CF80E13F
:101B1000B5CF84E1B3CF80E0B1CF1B8E1C8E1E8E7B
:101B20001D8EB5CF80E2E6CFFF920F931F93CF9328
:101B3000DF93EC01F62E08811981C8010E94702103
:101B4000F81621F06F2DC8010E947821CE01DF9197
:101B5000CF911F910F91FF900895FF920F931F93C4
:101B6000CF93DF9381E08093AB0208ED12E0D0E0E9
:101B7000C0E0F801F1908F01CE010E947021F816AB
:101B800021F06F2DCE010E9478212196CF31D10511
:101B900081F7DF91CF911F910F91FF9008951F92D0
:101BA0000F920FB60F9211242F933F934F935F9391
:101BB0006F937F938F939F93AF93BF93EF93FF9315
:101BC00087EF92E00E94B501FF91EF91BF91AF9135
:101BD0009F918F917F916F915F914F913F912F9145
:101BE0000F900FBE0F901F9018951F920F920FB677
:101BF0000F9211242F938F939F93EF93FF93E09174
:101C00000703F09108038081E0910D03F0910E032A
:101C100082FD1BC09081809110038F5F8F73209194
:101C20001103821741F0E0911003F0E0E950FD4FFD
:101C3000958F80931003FF91EF919F918F912F913A
:101C40000F900FBE0F901F9018958081F4CF1F92B8
:101C50000F920FB60F9211242F933F938F939F9360
:101C6000AF93BF938091120290911302A09114023E
:101C7000B09115023091110223E0230F2D3758F552
:101C80000196A11DB11D2093110280931202909321
:101C90001302A0931402B093150280911602909142
:101CA0001702A0911802B09119020196A11DB11D51
:101CB0008093160290931702A0931802B093190212
:101CC000BF91AF919F918F913F912F910F900FBE38
:101CD0000F901F90189526E8230F0296A11DB11DA5
:101CE000D2CF1F920F920FB60F9211242F933F93D2
:101CF0004F935F936F937F938F939F93AF93BF9314
:101D0000EF93FF93E0911C02F0911D02309749F090
:101D1000A685B7858585968D91FF14C09C918923F2
:101D2000A1F4FF91EF91BF91AF919F918F917F911E
:101D30006F915F914F913F912F910F900FBE0F9038
:101D40001F9018959C91892361F7A389B4899C9170
:101D50008589809589238C93868997890197F1F7E6
:101D6000608D718DA685B785558538E020E0CB0163
:101D70000197F1F7822F90E095958795282F4C9148
:101D8000452309F02068315091F7868D81FD20951B
:101D900080911B0290E001968F73992730911A026F
:101DA000381799F0A0911B02B0E0AF52BE4F2C93B0
:101DB00080931B02828D938D0197F1F7A389B489DB
:101DC0008C919589892B8C93ACCF868D8160868F81
:101DD000F1CFCF931092FA021092F90288EE93E0BD
:101DE000A0E0B0E08093FB029093FC02A093FD0280
:101DF000B093FE0224E431E03093F8022093F7021E
:101E000025EC30E0309304032093030324EC30E00E
:101E1000309306032093050320EC30E03093080351
:101E20002093070321EC30E030930A032093090349
:101E300022EC30E030930C0320930B0326EC30E0CF
:101E400030930E0320930D03109210031092110390
:101E5000109212031092130310929703109296039C
:101E60008093980390939903A0939A03B0939B0354
:101E700086E591E090939503809394031092AB03D1
:101E80001092AA031092AD031092AC031092AF030C
:101E90001092AE031092B1031092B0036091B2039E
:101EA0006E7F6D7F6093B2036695617081E06827F5
:101EB00083E00E94490261E083E00E949A02E0EF21
:101EC000F1E0E491E093A403E4E0F2E0E491F0E0D7
:101ED000EE0FFF1FE752FE4F859194919093A6035A
:101EE0008093A50360E082E00E949A028091B20391
:101EF00081FD04C061E082E00E94490282E080939B
:101F0000A003EFEEF1E0E491E093A103E3E0F2E05F
:101F1000E491F0E0EE0FFF1FE153FE4F85919491A5
:101F20009093A3038093A20310924C0484EB93E05C
:101F300090934B0480934A04CFB7F8948091B303F5
:101F4000811127C0EBE0F2E08491E7EFF1E094919A
:101F5000E82FF0E0EE0FFF1FED51FE4FA591B49179
:101F6000EC91E92321F461E08AE00E94490261E0FA
:101F70008AE00E949A028CB580618CBD8CB5806429
:101F80008CBD61E08DE00E949A0261E08BE00E94CE
:101F90009A028091B3038F5F8093B303CFBF8AE02F
:101FA0008093450480E896E9A8E9B0E08093460470
:101FB00090934704A0934804B093490461E08AE0F9
:101FC0000E949A0261E0809145040E944902E5EB7B
:101FD000F3E085E494E010861186128613863C9621
:101FE0008E179F07C1F7CF910895CF93DF93CDB799
:101FF000DEB7AC970FB6F894DEBF0FBECDBF7894B6
:1020000084B5826084BD84B5816084BD85B58260FD
:1020100085BD85B5816085BD80916E0081608093AE
:102020006E00109281008091810082608093810017
:102030008091810081608093810080918000816027
:10204000809380008091B10084608093B100809182
:10205000B00081608093B00080917A0084608093AA
:102060007A0080917A00826080937A0080917A0071
:10207000816080937A0080917A00806880937A00F2
:102080001092C100E0910703F091080382E0808381
:10209000E0910303F09104031082E0910503F091B5
:1020A000060380E1808310920F03E0910B03F0910F
:1020B0000C0386E08083E0910903F0910A0380819C
:1020C00080618083E0910903F0910A038081886038
:1020D0008083E0910903F0910A0380818068808306
:1020E000E0910903F0910A0380818F7D80838BE06A
:1020F000E6E1F1E0DE01119601900D928A95E1F79B
:102100008E010F5F1F4F9E01245F3F4F3EA32DA303
:1021100088E1E82E99E2D92ED801FD908D0161E089
:102120008F2D0E949A0260E08F2D0E9449020FB607
:10213000F894A895E09260000FBED09260008DA048
:102140009EA00815190541F70E949D0C18EDE12E7F
:1021500012E0F12E10E000E0C8010E947021D701CA
:102160008D937D010F5F1F4F0F311105A9F783E29A
:1021700090E00E9470218093310287E390E00E94FA
:10218000702180932F02F12CE12C04E813E0412C04
:10219000512C3201812C912C5401C8010E947021D4
:1021A00090E0B0E0A0E00E2C04C0880F991FAA1F99
:1021B000BB1F0A94D2F7882A992AAA2ABB2AC801E7
:1021C00004960E94702190E0B0E0A0E00E2C04C0C4
:1021D000880F991FAA1FBB1F0A94D2F7482A592AB1
:1021E0006A2A7B2A0F5F1F4FB8E0EB0EF11C0838FC
:1021F000E3E01E0791F68092660290926702A09239
:102200006802B09269024092620250926302609248
:1022100064027092650281E08093AB029E01215FAF
:102220003F4F38A72FA38091C3028111FFC00E94A6
:10223000220369397A438105910508F4F7C01092A9
:102240004C041092AF031092AE031092AD031092A3
:10225000AC031092AB031092AA0382E490E0909337
:10226000B1038093B0039091A003963108F047C06A
:102270002FE030E03093AB032093AA0320E430E05A
:102280003093AD032093AC0327E230E03093AF03EB
:102290002093AE032091680084E0983048F031E04C
:1022A0009E3008F430E081E001C0880F3A95EAF7EB
:1022B000822B809368002DE630E0983050F02BE6BA
:1022C00030E09E3030F02CE630E0963110F030E017
:1022D00020E03093A8032093A703292F30E0983003
:1022E00008F094C081E001C0880F9A95EAF78093C6
:1022F000A9038091B0039091B1030197F1F7809108
:10230000AE039091AF03892B49F1E0911C02F0914B
:102310001D0243E0E439F40709F1309739F0A3894D
:10232000B4899C918589809589238C938091B2038F
:102330008E7F8093B20310921B0210921A0284E9DE
:1023400093E090931D0280931C02E091A703F0910B
:10235000A80380819091A903892B808364EF71E0A9
:1023600080E090E00E94F00284E993E00E94BE03C6
:10237000892B31F064E170E088EC90E00E94F50375
:1023800004E010E0DD24D3940150110909F44BC09E
:1023900080914C04811147C0A8958FE890E00E947D
:1023A0005E0568EE73E080E090E00E942F0C8823C9
:1023B00059F38EE0E1E2F1E0DE01119601900D9219
:1023C0008A95E1F7CE0101967C01A895D7018D9100
:1023D0009D917D010E941A0660ED77E080E090E01B
:1023E0000E942F0C882381F28FA098A48E149F0442
:1023F00061F7D0924C048CE790E00E945E0568E89B
:1024000073E180E090E00E942F0CBECF9E3040F43C
:102410002850310981E001C0880F2A95EAF767CF7B
:102420002E503109F7CF81E08093C3020E945A09F0
:1024300080EA0E94BF0480E00E94BF04182F0E941F
:10244000950290E080E010FD04C011FFBAC381E066
:1024500090E00E94390A892B09F0B3C30E9422033D
:1024600060931E0270931F028093200290932102BA
:10247000209159022E7F209359028091C802909199
:10248000C902A091CA02B091CB02803333E0930716
:10249000A105B10509F494C208F063C08A3C52E07A
:1024A0009507A105B10509F4FBC108F03DC08337CC
:1024B000F1E09F07A105B10509F415C38A3332E0A5
:1024C0009307A105B10509F488C2823A9105A105D7
:1024D000B10509F07EC09091D002983009F473C123
:1024E00008F064C1923009F46AC18091D102883049
:1024F00009F47EC108F06FC1823009F475C19111F1
:1025000068C0811166C01092E5031092F103109229
:10251000FD031092090410921504109221041092E8
:102520002D041092390455C08C3F42E09407A10558
:10253000B10509F4F7C18E3253E09507A105B10545
:1025400009F4C5C1803F9240A105B10509F041C021
:102550008091D0028C708830E1F582E08093740223
:1025600038C0873BF3E09F07A105B10509F403C319
:10257000D0F4833A33E09307A105B10509F472C1A1
:10258000863B43E09407A105B10509F4DEC281351D
:102590009340A105B105E9F46091D3026093310243
:1025A00083E290E013C2893BE3E09E07A105B105F9
:1025B00009F4ECC208F4D4C2893F23E09207A105D4
:1025C000B10509F495C282319440A105B10509F421
:1025D00017C18091E803813021F41092E8038093C1
:1025E0009C028091F403813021F41092F4038093D3
:1025F000A10280910004813009F0D3C2109200043E
:1026000081E08093A60280910C04813021F4109225
:102610000C048093BA0280911804813021F4109246
:1026200018048093920280912404813099F51092CD
:102630002404B0EA8B2EB2E09B2EA12CB12C809208
:10264000C8029092C902A092CA02B092CB0288E05E
:102650008093CC0288E88093D0028093D10280EFEF
:102660008093D2028DE48093D3028FEF8093D402C3
:102670008093D5028093D6028093D70288EC92E0B3
:102680000E94C70A88EC92E00E94C70A88EC92E098
:102690000E94C70A8091B803833029F41092B803CE
:1026A00081E0809397022091C403213039F5109284
:1026B000C4033091590237FB882780F990915A0260
:1026C000492F4170842B91FB442740F9842B92FBC6
:1026D000442740F9842B91F032FD10C093FD0EC0C9
:1026E00088EC90E0A0E0B0E08093000190930101BD
:1026F000A0930201B09303012093B0028091DC0308
:102700008130D1F41092DC0380916F02811114C0EA
:1027100080918302811110C090917E02911149C273
:102720008091590283FD46C291E081E090936F024F
:1027300091E089278093830280913A04882309F4E9
:102740003BC280913B04811137C20E942203009159
:102750004104109142042091430430914404601BD1
:10276000710B820B930B693B7B408105910508F44B
:1027700023C291E090933B0480915902846080933E
:10278000590210923C0410923A048091F602892773
:102790008093F6020E94AD0D8091F602882309F421
:1027A00049C38DE990E00E94D9080BC2903279F0BC
:1027B000903809F09ACE81E08093090496CE81E0AA
:1027C0008093E50392CE81E08093F1038ECE81E089
:1027D0008093FD038ACE803279F0803809F08FCE65
:1027E00081E080933904F5CE81E080931504F1CE29
:1027F00081E080932104EDCE81E080932D04E9CE29
:10280000C090D002D090D102E090D202F090D302DA
:1028100040E8F41A6091D4027091D5028091D602FA
:102820009091D702905824E230E040E050E00E94BE
:10283000DC21209366023093670240936802509334
:102840006902C701B60124E230E040E050E00E9496
:10285000DC21209362023093630240936402509320
:102860006502B7CE8091D002803D49F48091D102BB
:102870008F3F09F0AECE84E00E94110CAACE883CB6
:1028800009F0A7CE8091D1028F3F09F0A2CE81E05E
:102890000E94110C8091590280648093590299CE54
:1028A0008091D00255E0859FC0011124805991404C
:1028B0006AE070E00E94A621609357029C0197FF96
:1028C00003C03195219531092093560282CE209183
:1028D000D30291E02F3E09F090E080915D0290FBE1
:1028E00080F980935D022C3329F080915C0280682E
:1028F00080935C028AE0289F90011124C9016CE357
:1029000070E00E94A62160935502C90166E070E064
:102910000E94A621CB016AE070E00E94A62180936C
:10292000540257CE80915C029091D00290FB80F9C6
:1029300080935C028091D102982F937051E0913086
:1029400009F050E090915B0250FB90F990935B028C
:1029500041E0982F9C70943009F040E090915B0228
:1029600040FB92F990935B0231E0982F9073903185
:1029700009F030E090915B0230FB94F990935B0298
:10298000807C21E0803409F020E080915B0220FB14
:1029900086F980935B0290915D0291FD1ACE809141
:1029A0005A0250FB84F940FB85F930FB86F920FB85
:1029B00087F980935A02892F826080935D0209CE45
:1029C0006091D30260932F0287E390E09A8389831A
:1029D000CE0101960E94940DFCCD8091D2028430EC
:1029E00061F48091D3028F3309F0F3CD81E08093BD
:1029F000C1032F7B20935902ECCD813041F58091AA
:102A0000D3028F3309F0E5CD81E08093B503809147
:102A1000590280648093590210927E0280915A027A
:102A2000877F80935A0280915E0290915F02A0910D
:102A30006002B0916102B7FFCCCDBF7780935E0298
:102A400090935F02A0936002B0936102C2CD803187
:102A500071F48091D3028F3309F0BBCD8091D50200
:102A6000833F09F4B6CD81E08093CD03B2CD8111CF
:102A70002AC08091D3028F3309F0ABCD8091D4026C
:102A80008F3F09F0A6CD8091D502813F61F48091FE
:102A9000590281FD05C091E09093D9038260FDCE7B
:102AA0001092D90396CD803F09F093CD1092C103C7
:102AB0001092B5031092CD0380915A028F788F77D0
:102AC00080935A0286CD803409F083CD8091D30261
:102AD0008F3309F07ECD1092D903809159028D7FFA
:102AE00080935902E9CF8091D70280FB25F982CFEC
:102AF0008091D302837091E0823009F090E0809160
:102B0000590290FB83F98093590283FD19C080918B
:102B10007E028823A9F00E94220300917F02109177
:102B200080022091810230918202601B710B820B26
:102B3000930B693E73408105910510F010927E025F
:102B40008091D40280932D0244CD91E08091D102F6
:102B50008C3F09F490E08091590290FB87F99DCE5B
:102B600091E08091D1028C3F09F490E080915A026B
:102B700090FB80F9A5CF91E08091D002811101C036
:102B800090E080915A0290FB81F99ACF91E0809178
:102B9000D002811101C090E080915A0290FB82F92D
:102BA0008FCF8091D003813009F02DCD1092D003CA
:102BB00027CD90E080E0BACD809159028B7F809341
:102BC00059020E94220300911E0210911F022091BF
:102BD000200230912102601B710B820B930B613E2E
:102BE00073498440910508F456C08091590280FDD4
:102BF00052C00E949D0C0E94220360931E0270939B
:102C00001F028093200290932102809159028160DB
:102C10008093590210922D024090660250906702F4
:102C200060906802709069028090620290906302E6
:102C3000A0906402B090650204E813E0F12CE12C4E
:102C40001A830983C301B2010E2C04C095958795A0
:102C5000779567950A94D2F7CE0101960E94940D5C
:102C6000C80104969A838983C501B4010E2C04C05F
:102C700095958795779567950A94D2F7CE01019639
:102C80000E94940DE8E0EE0EF11C0F5F1F4F083814
:102C9000F3E01F07A9F680916F02811179C080913E
:102CA0007402811175C08091590286FD71C09091A6
:102CB0005B02792F717092FB662760F994FB5527B0
:102CC00050F996FB442740F980915A0284FB332740
:102CD00030F9232F272770FB84F985FB332730F940
:102CE0003627322B60FB85F986FB222720F9252722
:102CF000322B50FB86F987FB222720F92427232B30
:102D000040FB87F980935A02222309F441C0409185
:102D10005E0250915F026091600270916102957550
:102D200009F48DC0706840935E0250935F02609317
:102D300060027093610264EB70E0CE0101960E9424
:102D4000472140915E0250915F0260916002709154
:102D50006102FE013C962CE130E0DB01CA01022E4B
:102D600004C0B695A795979587950A94D2F78F706A
:102D70008A3008F062C0805D8193245031092C3F75
:102D80008FEF380751F71C8ACE0101960E9480060A
:102D90000E942203E5EBF3E025E434E041E0C48047
:102DA000D580E680F7804B015C018C189D08AE0849
:102DB000BF087501640159EBC5165BE0D506E10457
:102DC000F10408F01382A1815081A1116CC0552338
:102DD00029F0608771878287938741833C962E17FD
:102DE0003F07E9F600917E0210915902002311F489
:102DF0000C94BF1F0E942203C0907F02D0908002DB
:102E0000E0908102F09082026C197D098E099F0981
:102E100010915902613A7B4B8D40910510F40C944E
:102E20009B1F84E0023011F40C94BB1F809183023D
:102E30000C94BB1F82E990E0B6CC895C9DCF7F7774
:102E400040935E0250935F02609360027093610250
:102E500067EA70E0CE0101960E94472140915E0230
:102E600050915F026091600270916102FE013D9697
:102E70002CE130E0DB01CA01022E04C0B695A79513
:102E8000979587950A94D2F78F708A3050F4805DB9
:102E90008193245031092C3F9FEF390759F71D8A40
:102EA00073CF895CF5CF511199CF12821182C08402
:102EB000D184E284F3844B015C018C189D08AE0838
:102EC000BF087501640158EEC51653E0D506E1044C
:102ED000F10408F083CF53815F5F5383648375836C
:102EE000868397837BCF62E071E082E292E00E946A
:102EF0003E21009721F4FC0109950C94EB206EEF24
:102F000070E082E292E00E943E21892B21F410932E
:102F100097020C94EB2069EF70E082E292E00E944D
:102F20003E21892B21F410938D020C94EB2062EF4B
:102F300070E082E292E00E943E21892B21F41093FE
:102F400088020C94EB206DEE70E082E292E00E9429
:102F50003E21892B21F410939C020C94EB2068EE07
:102F600070E082E292E00E943E21892B21F41093CE
:102F7000A1020C94EB2063EE70E082E292E00E94EA
:102F80003E21892B21F41093A6020C94EB206EEDC8
:102F900070E082E292E00E943E21892B41F4809110
:102FA000590283FF04C0109383020C94EB2068ED58
:102FB00070E082E292E00E943E21892B21F4809110
:102FC000590283FF0CC064ED70E082E292E00E943F
:102FD0003E21892B41F41093BA020C94EB201093FC
:102FE0006F020C94EB206EEC70E082E292E00E94A3
:102FF0003E21892B21F40E94A40B0C94EB2069EC58
:1030000070E082E292E00E943E21892B91F488E5F3
:10301000882E82E0982EA12CB12C809200019092F3
:103020000101A0920201B0920301F092B0020C944F
:10303000EB2060EC70E082E292E00E943E21892B5E
:1030400011F00C94EB2010936F02009379020C9412
:10305000EB209F5F90932C0280830C94C2200E94EF
:1030600022030091BF021091C0022091C102309151
:10307000C202601B710B820B930B6938734181058F
:10308000910508F438C10E9422036093BF02709337
:10309000C0028093C1029093C20284E993E00E942F
:1030A000BE03892B09F427C1A89584E993E00E9407
:1030B000D403082F109153021F3168F0812F8051E3
:1030C000990BAC0163E472E083E392E00E940A2270
:1030D000105110935302E0915302BB24B394BE0EDF
:1030E000B0925302F0E0ED5CFD4F0083CB2CD12C6D
:1030F000F601ED5CFD4F10826CE671E083E392E037
:103100000E9437227C01009741F26AE070E00E9441
:103110001C228C01892B09F4C0CF6CE270E0C7013E
:103120000E941C22009719F08017910718F0109246
:103130005302B3CF01960E9420217C01025312401A
:103140000B1508F4BDC010925302E0915302F0E059
:10315000ED5CFD4F10821E141F040CF09ECF809179
:103160004C04882309F499CF88E191E00E94A303DD
:10317000CE2CD12CF12CE12C2AE0B701A60184E958
:1031800093E00E946E0564E671E084E993E00E949A
:103190004F0543E751E062E370E080E197E20E946F
:1031A000D104882309F479CF22E242E270E060E0A2
:1031B00090E080E00E944F04882309F46ECF22E261
:1031C00042E26FE070E08DE894E00E944F048823B3
:1031D00009F463CF22E242E270E060E090E080E038
:1031E0000E944F04882309F458CF22E242E270E0A3
:1031F00060E090E080E00E944F04882309F44DCF06
:103200002DE04AE060E470E08DE494E00E944F0419
:10321000882309F442CF62E370E088EE93E00E94D5
:10322000F50380914C04882309F465C08FE091E098
:103230000E94A3032AE0B701A60184E993E00E945B
:103240006E0564E671E084E993E00E944F0549E66B
:1032500051E062E370E088EA91E60E94D10488239D
:1032600009F449C062E370E088EE93E00E94F50340
:103270008091F602882381F068ED72E08DE894E099
:103280000E942722892B59F167EE72E08DE894E0C5
:103290000E942722892B19F160EA71E08DE494E005
:1032A0000E944E21892B09F031C48091D8028823D5
:1032B00011F16DE474E090E080E00E9431061BC0E3
:1032C000B8017727A601461B570B6D5C7D4F83E342
:1032D00092E00E940A22B01AB092530236CF65E9FA
:1032E00071E08DE494E00E943E21892B09F070C3C7
:1032F00082E080939C0280916F02882319F080E025
:103300000E94690780917402882319F081E00E946D
:103310006907809179028630C1F580917A02909197
:103320007B02A0917C02B0917D02892B8A2B8B2B92
:1033300051F40E94220360937A0270937B0280937F
:103340007C0290937D020E94220300917A021091E8
:103350007B0220917C0230917D02DC01CB01801B3D
:10336000910BA20BB30B61E08C32F1E09F07A1053A
:10337000B10540F060E0803223E09207A105B1057D
:1033800008F0EDC389E00E944902109183021123E5
:10339000A9F18091840290918502A0918602B0915A
:1033A0008702892B8A2B8B2B51F40E942203609376
:1033B00084027093850280938602909387020E9414
:1033C0002203C0908402D0908502E0908602F090A3
:1033D0008702DC01CB018C199D09AE09BF09209140
:1033E0005902322F387023FF7DC484369105A10520
:1033F000B10508F077C481E00E94C60480918D0277
:10340000882321F063E186E00E94C706809188024C
:10341000882321F062E185E00E94C7068091920234
:10342000882309F441C08091930290919402A09165
:103430009502B0919602892B8A2B8B2B69F40E94FE
:103440002203609393027093940280939502909369
:10345000960281E08093AB020E94220300919302C6
:10346000109194022091950230919602601B710B8D
:10347000820B930B60367A4E8105910558F480914A
:10348000590283FD11C080915B02857569F481E06A
:1034900080938802109292021092930210929402EA
:1034A0001092950210929602109197021123C9F181
:1034B000123019F480E00E94ED0B809198029091F7
:1034C0009902A0919A02B0919B02892B8A2B8B2B97
:1034D00051F40E94220360939802709399028093A2
:1034E0009A0290939B020E942203C0909802D0906F
:1034F0009902E0909A02F0909B02DC01CB018C19BA
:103500009D09AE09BF09123009F0B0C404E813E008
:1035100020E030E0843FE1E09E07A105B10508F01E
:10352000A9C480919C02882331F041EB51E061E114
:1035300089E00E94E2088091A102882331F047EBE4
:1035400051E06EE08AE00E94E2088091A6028823A2
:1035500031F04DEB51E060E18BE00E94E208809198
:10356000AB028823C9F18091AC029091AD02A09189
:10357000AE02B091AF02892B8A2B8B2B69F40E948B
:1035800022036093AC027093AD028093AE029093DD
:10359000AF0281E00E94ED0B0E9422030091AC0279
:1035A0001091AD022091AE023091AF02601B710B01
:1035B000820B930B653671058105910568F080E0FB
:1035C0000E94ED0B1092AB021092AC021092AD0271
:1035D0001092AE021092AF028091BA02882309F4D1
:1035E00033C1609166027091670280916802909188
:1035F000690220EA36E841E050E00E94DC216901DE
:103600002B013C0189018090620290906302A0909E
:103610006402B0906502C501B40120EA36E841E0D9
:1036200050E00E94DC2129A73AA74BA75CA729A458
:103630003AA4C201D301B7FF07C0B095A0959095F9
:1036400081959F4FAF4FBF4F3C01C501B40120EAA8
:1036500036E841E050E00E94DC2197FF07C09095DA
:103660008095709561957F4F8F4F9F4F5B0187E4E9
:10367000898380E58A8383E58B83FE01349617FF77
:1036800008C08DE28C83002711270C191D09FE014B
:103690003596043611054CF0C80164E670E00E94CE
:1036A000A621605D60838C0131960A3011054CF0D3
:1036B000C8016AE070E00E94A621605D6083082F67
:1036C0003196005D00838EE28183C30160E177E281
:1036D0000E949221605D6283C30168EE73E00E94E4
:1036E0009221CB012AE030E0B9010E949221805D55
:1036F0008383C30164E670E00E949221CB01B9018B
:103700000E949221805D8483C301B9010E949221AD
:10371000482FCB01B9010E949221805D8583405DD5
:1037200046838CE287839F0137FCBDC3285F3F4FF0
:10373000F4E62F1631045CF0C10164E670E00E94EB
:10374000A621605DD9016C931C012F5F3F4FBAE049
:103750002B1631045CF0C1016AE070E00E94A621E2
:10376000605DF9016083282E2F5F3F4F80E3820D5B
:10377000D9018C938EE211968C93C50160E177E2BA
:103780000E949221605DF9016283C50168EE73E0D9
:103790000E949221CB01EAE0F0E0BF010E94922159
:1037A000805DD90113968C93C50164E670E00E9498
:1037B0009221CB01BF010E949221805DD901149614
:1037C0008C93C501BF010E949221482FCB01BF01FC
:1037D0000E949221805DF9018583405D468380E2ED
:1037E000878383E28087C0905E02D0905F02E09082
:1037F0006002F090610239968CE190E0B701A60179
:10380000082E04C076956795579547950A94D2F788
:103810004F704A3008F051C3405D419304978C3F8C
:103820004FEF940759F7D90151961C921092BA02A2
:103830001092BB021092BC021092BD021092BE0206
:10384000CE0101960E9480061091B002112309F466
:103850003FC08091B1029091B202A091B302B091A9
:10386000B402892B8A2B8B2B81F40E942203609354
:10387000B1027093B2028093B3029093B4021230FB
:1038800009F0ACC481E08093AB020E942203C09097
:10389000B102D090B202E090B302F090B402DC0129
:1038A000CB018C199D09AE09BF0940916A02123003
:1038B00009F0A6C4843FE1E09E07A105B10508F028
:1038C000FEC2442329F080E00E94DC0B10926A02C1
:1038D0008091B502882309F46AC00E9422036B011B
:1038E0007C018091B6029091B702A091B802B0918C
:1038F000B902892B8A2B8B2B81F4C092B602D0920D
:10390000B702E092B802F092B90210926B021092E4
:103910006C0210926D0210926E028091B60290912C
:10392000B702A091B802B091B90246015701881AB6
:10393000990AAA0ABB0A80916B0290916C02A0912D
:103940006D02B0916E020097A105B10569F0A70163
:103950009601281B390B4A0B5B0BDA01C901843F26
:103960009140A105B10550F00E94A40BC0926B02DA
:10397000D0926C02E0926D02F0926E0240E18416E9
:1039800047E29406A104B10490F01092B50210929F
:10399000B6021092B7021092B8021092B9021092B9
:1039A0006B0210926C0210926D0210926E02A8953A
:1039B00080E090E0892B11F40C9413110E94A10176
:1039C000882311F40C940E110E9400000C940E1127
:1039D00061E971E08DE494E00E943E21892B21F49D
:1039E00082E08093A60287CC6CE871E08DE494E0DD
:1039F0000E943E21892B21F482E080938D027BCCB2
:103A000065E871E08DE494E00E943E21892B21F469
:103A100082E0809388026FCC60E871E08DE494E0EE
:103A20000E943E21892B21F482E08093B00263CC76
:103A30006AE771E08DE494E00E943E21892B21F435
:103A400081E08093B50257CC66E771E08DE494E0A5
:103A50000E943E21892B21F482E0809397024BCC77
:103A600060E771E08DE494E00E943E21892B21F40F
:103A70008091590283FF14C06BE671E08DE494E0FD
:103A80000E943E21892B81F067E671E08DE494E08D
:103A90000E943E21892B81F481E08093BA022BCCD5
:103AA00082E08093740227CC8091590283FFECCF8F
:103AB00082E0809383021FCC60E671E08DE494E0A5
:103AC0000E943E21892B19F40E948A0614CC6AE5D3
:103AD00071E08DE494E00E943E21009719F4FC010E
:103AE000099509CC61E571E08DE494E00E943E21E6
:103AF000892B09F000CC8091590283FDFCCB82E038
:103B00008093740285E080937902F5CB6DE471E0D7
:103B10008DE494E00E944E21892B69F06DE874E0F9
:103B200088ED92E00E9430220E94AD0D89E391E081
:103B30000E94D908E0CB65E371E08DE494E00E9437
:103B40004E21892B09F4D7CB6DE874E087EE92E023
:103B50000E9430220E94AD0D81E291E0E9CF8838C9
:103B60009341A105B10508F0ADC089E00E9449026A
:103B700080915802811109CC80915C0287FF05CCAD
:103B800080917E02823009F000CC80915702209112
:103B9000560240915502509154029CE79983FE01D0
:103BA0003296843640F064E60E948621805D8A83E6
:103BB000892FFE0133968A3038F06AE00E94862110
:103BC000805D8083892F3196805D80838EE2818342
:103BD000822F6AE00E948621905D92838CE7838326
:103BE00080915D0280FF43C08FE684838CE68583ED
:103BF00084E7868382E7878385E6808780E2818702
:103C000084E38287DF011C9680E38387FD0183E2E2
:103C1000819300915E0210915F02209160023091C9
:103C200061028CE190E0B901A801082E04C07695EC
:103C30006795579547950A94D2F74F704A3008F028
:103C40003FC0405D419304978C3F4FEF940759F775
:103C500019961C92CE0101960E94800681E0809305
:103C6000580280915C028F7780935C028ECB9F011B
:103C70004436E0F42C5F3F4F4A3050F0842F6AE026
:103C80000E948621805DD9018C93492F2F5F3F4F81
:103C9000405DF90140838EE28183D9011396852F1F
:103CA0006AE00E948621905D9283B0CF2B5F3F4FE8
:103CB000842F64E60E948621805D8483492FDCCFB7
:103CC000495CC0CF89E00E944902109279021092AB
:103CD0007A0210927B0210927C0210927D02109266
:103CE0005802BFCF8C3251E09507A105B10510F401
:103CF00080E082CB803DE7E09E07A105B10508F496
:103D00007DCB287239F48C3FF8E09F07A105B105FF
:103D100008F471CB3111A4C080369940A105B105DA
:103D200008F09EC080E00E94C604133009F456C01B
:103D3000143089F0123011F40E948A061092830226
:103D400010928402109285021092860210928702CD
:103D500010927E0253CB82E4898382E58A8383E5D5
:103D60008B838DE28C8384E58D8389E68E838DE65B
:103D70008F8385E688878FE6898785E78A8784E74A
:103D80008B8780E28C8783E28D8740915E02509121
:103D90005F026091600270916102FE013E962CE12B
:103DA00030E0DB01CA01022E04C0B695A7959795B5
:103DB00087950A94D2F78F708A3070F4805D819372
:103DC000245031092C3F8FEF380759F71E8ACE0156
:103DD00001960E948006B2CF895CF1CF82E489838C
:103DE00082E58A8383E58B838DE28C8385E48D83F2
:103DF0008DE68E8385E68F8392E7988797E699878D
:103E00008A878EE68B8783E68C8789E78D8780E2B9
:103E10008E8783E28F8740915E0250915F026091AE
:103E2000600270916102FE0170962CE130E0DB01CE
:103E3000CA01022E04C0B695A795979587950A9456
:103E4000D2F78F708A3050F4805D8193245031090D
:103E50002C3F9FEF390759F7188EB9CF895CF5CF02
:103E600080E00E94C6041092830272CF00E911E044
:103E700020E030E080179107A207B30728F461E043
:103E800084E00E9449024DCB60E084E00E94490238
:103E900010929702109298021092990210929A0230
:103EA00010929B023ECB275F3F4F8DE2808729A473
:103EB0003AA43194219431083BCC495CAECC04EF58
:103EC00011E020E030E0C0900001D0900101E090CE
:103ED0000201F09003010C0D1D1D2E1D3F1D8017CA
:103EE0009107A207B30748F44111F2CC81E00E9488
:103EF000DC0B81E080936A02EBCC442329F080E064
:103F00000E94DC0B10926A021092B0021092B10271
:103F10001092B2021092B3021092B40280ED97E0B8
:103F2000A0E0B0E08093000190930101A093020112
:103F3000B0930301CDCC00917E020E942203C09079
:103F40007F02D0908002E0908102F09082026C1992
:103F50007D098E099F0961347F418105910578F0C3
:103F600015FD04C080915B02857549F083E0023045
:103F700011F00C9416178093830210927E0217FDA5
:103F800005C080915A028770E1E009F0E0E03091CD
:103F90005C02E0FB34F930935C0232FB002700F94D
:103FA000532F517020915B02922F917022FBBB27FF
:103FB000B0F924FBAA27A0F926FB882780F94091B5
:103FC000590243FBFF27F0F9E0903102F0902F02F5
:103FD000D0902D0233FB662760F960132EC035FBAD
:103FE000662760F9E61329C036953170351325C070
:103FF00021FB332730F9931320C023FB332730F9FB
:104000003B131BC025FB332730F93A1316C027FB9F
:10401000222720F9281311C0429541704F130DC07B
:10402000209132022E1109C0209130022F1105C0BB
:1040300020912E022D1509F4A1C020915C0200FBF5
:1040400023F9E0FB25F950FB21F920935C02209134
:104050005B0290FB21F9B0FB23F9A0FB25F980FB63
:1040600027F920935B0220915902F0FB24F9209359
:104070005902E0923202F0923002D0922E0210E009
:1040800030E020E0332706953795222711270027B7
:10409000452F50E070E060E0032E3DE1440F551FD6
:1040A000661F771F3A95D1F7302D042B152B262B41
:1040B000372B0D29492F50E070E060E09CE1440F60
:1040C000551F661F771F9A95D1F7402B512B622BF6
:1040D000732B0B2F10E030E020E0BBE1000F111F2D
:1040E000221F331FBA95D1F7042B152B262B372B04
:1040F0004A2F50E070E060E09AE1440F551F661FC0
:10410000771F9A95D1F7042B152B262B372B90E090
:10411000B0E0A0E049E1880F991FAA1FBB1F4A9594
:10412000D1F7802B912BA22BB32B4F2F50E070E0B7
:1041300060E0742F662755274427842B952BA62BE8
:10414000B72BAC01BD016E295F29CE2ED12CF12CED
:10415000E12CAEE1CC0CDD1CEE1CFF1CAA95D1F7C6
:10416000C42AD52AE62AF72AC0925E02D0925F02BC
:10417000E0926002F09261020E94BA0511E005E04F
:1041800092E0F92E87EF92E00E949501892B11F4BD
:104190000C942F1887EF92E00E94730190912C02EB
:1041A000E92FF0E0EE5DFD4F8A3041F08D3031F0C7
:1041B000882321F0993010F40C942918108268E0BB
:1041C00071E082E292E00E943E21892B11F00C9472
:1041D00073170E94BA0510922C02D4CF0E942203BA
:1041E0000091B1021091B2022091B3023091B40259
:1041F000DC01CB01801B910BA20BB30B40916A0237
:1042000000E010E098015FCE86E591E09093950381
:104210008093940380911C0290911D0284599340D5
:1042200071F4E091A703F091A80390818091A90314
:1042300080958923808310921D0210921C0208959C
:10424000FC0188279927E89421912032E9F329304D
:1042500010F02E30C8F32B3241F02D3239F468942F
:1042600004C00E946821820F911D219120532A30A1
:10427000C0F31EF4909581959F4F0895FB01DC01DA
:104280008D91059080190110D9F3990B0895FB01C8
:10429000DC0105900D920020E1F70895FB01559196
:1042A0005523A9F0BF01DC014D9145174111E1F7FC
:1042B00059F4CD010590002049F04D914015411170
:1042C000C9F3FB014111EFCF81E090E00197089520
:1042D0007AE0979F902D879F802D910D112408954E
:1042E000F999FECF92BD81BDF89A992780B50895BE
:1042F000262FF999FECF1FBA92BD81BD20BD0FB602
:10430000F894FA9AF99A0FBE01960895991B79E0EC
:1043100004C0991F961708F0961B881F7A95C9F755
:1043200080950895AA1BBB1B51E107C0AA1FBB1FA4
:10433000A617B70710F0A61BB70B881F991F5A9531
:10434000A9F780959095BC01CD01089597FB072EA4
:1043500016F4009407D077FD09D00E94922107FC43
:1043600005D03EF4909581959F4F08957095619585
:104370007F4F0895A1E21A2EAA1BBB1BFD010DC0A1
:10438000AA1FBB1FEE1FFF1FA217B307E407F50705
:1043900020F0A21BB30BE40BF50B661F771F881FE1
:1043A000991F1A9469F760957095809590959B0177
:1043B000AC01BD01CF010895052E97FB1EF40094BA
:1043C0000E94F32157FD07D00E94BA2107FC03D0B9
:1043D0004EF40C94F32150954095309521953F4F24
:1043E0004F4F5F4F089590958095709561957F4FE1
:1043F0008F4F9F4F0895EE0FFF1F0590F491E02D12
:104400000994FB01DC0102C001900D924150504023
:10441000D8F708956817790768F4FB01DC01E40F09
:10442000F51FA40FB51F02C002900E9241505040DC
:10443000D8F708950C940122FC018191861721F090
:104440008823D9F7992708953197CF010895FB0163
:10445000DC018D91019080190110D9F3990B089519
:10446000FB01DC0101900D920020E1F70895FB01B2
:1044700051915523A9F0BF01DC014D914517411120
:10448000E1F759F4CD010190002049F04D9140151C
:104490004111C9F3FB014111EFCF81E090E0019799
:1044A000089511E0CCE0D1E004C0FE010E94FB21A0
:0C44B0002196CD30D107C9F7F894FFCF5A
:1044BC00D007000000000100020000000100020013
:1044CC0003000400050009050412110E1008130660
:1044DC00077A017F018D0192019901A301B5016059
:1044EC00616601707176023031364041465051564A
:1044FC0000000000D7013701640129029501730106
:10450C0087010000000047033701BC044603BE03CB
:10451C00D4032E030D0A003E004F4B002B434D5489
:10452C00493A002B434D47523A004154264600412C
:10453C00542B435343533D2247534D220041544582
:10454C00300041542B4342430041542B434D4746CA
:10455C003D310041542B434E4D493D322C312C30D2
:10456C002C302C300041542B43504D533D22534D95
:0C457C00222C22534D222C22534D2200F1
:00000001FF
