:100000000C9447010C946F010C946F010C94D50E65
:100010000C94D50E0C94D50E0C946F010C946F01BA
:100020000C946F010C946F010C946F010C946F0190
:100030000C946F010C946F010C946F010C946F0180
:100040000C948B0E0C946F010C94590E0C94330E7F
:100050000C946F010C946F010C946F010C946F0160
:100060000C946F010C946F014E4100545952453A63
:100070000000000008000201000003040700000067
:10008000000000000041542B434D4744413D2244B1
:10009000454C20414C4C220041542B43504D533D84
:1000A00022534D222C22534D222C22534D2200410B
:1000B000542B434E4D493D322C312C302C302C30BA
:1000C0000041542B434D47463D31004154453000DB
:1000D00041542B435343533D2247534D2200415437
:1000E0002646004154003245423A004252532D43C5
:1000F0006C6F7365642023004252532D416C617212
:100100006D20230073746172745F616300686F72A5
:100110006E006C6967687400677073007374617255
:10012000740073746F7000706F727400626F783354
:1001300000626F783200626F7831006368697564BD
:100140006900617072690067777300726573657426
:100150000074797265007570646174650041542B98
:10016000434D47443D0041542B434D47523D004EC3
:10017000756D65726F205B325D2053616C766174C2
:100180006F21005B325D004E756D65726F205B31D3
:100190005D2053616C7661746F21005B315D0053AB
:1001A0007461727420414300526573657400557028
:1001B00064617465004C696768740047505300536C
:1001C000746F700053746172740047575300486F26
:1001D000726E00436869756469004170726900421B
:1001E0006F7800536F7263696E656C6C690053655C
:1001F00074204F574E45522032303132373600424C
:1002000052532D456D657267656E637920230042F8
:1002100052532D54696D656F7574202300424F58F9
:10022000203100424F58203200424F5820330050B6
:100230004F52544F4E4500220041542B434D4753DB
:100240003D220000000000230026002900000000DD
:1002500000250028002B0000000000240027002AB1
:10026000000102040810204080010204081020014F
:10027000020408102004040404040404040202021A
:10028000020202030303030303004D0FD81F1124CE
:100290001FBECFEFD8E0DEBFCDBF11E0A0E0B1E0E0
:1002A000E0E8F2E402C005900D92AA36B107D9F752
:1002B00024E0AAE6B1E001C01D92A034B207E1F744
:1002C00011E0C6E4D1E004C02197FE010E94DD20C8
:1002D000C534D107C9F70E9459100C9433210C94EE
:1002E0000000EF92FF920F931F93CF93DF938C0147
:1002F0007B01D0E0C0E0F701EC0FFD1F64916623A5
:1003000061F0D801ED91FC910190F081E02DC801E0
:100310000995892B11F02196EECFCE01DF91CF9177
:100320001F910F91FF90EF900895AF92BF92CF92DF
:10033000DF92EF92FF920F931F93CF93DF936C01A5
:100340007B018B01040F151FEB015E01AE18BF0886
:10035000C017D10759F06991D601ED91FC91019038
:10036000F081E02DC6010995892B79F7C501DF9150
:10037000CF911F910F91FF90EF90DF90CF90BF90A2
:10038000AF900895FC01538D448D252F30E0842FCC
:1003900090E0821B930B541710F0CF9608950197AD
:1003A0000895FC01918D828D981761F0A28DAE0F9A
:1003B000BF2FB11D5D968C91928D9F5F9F73928F21
:1003C00090E008958FEF9FEF0895FC01918D828D4D
:1003D000981731F0828DE80FF11D858D90E008951A
:1003E0008FEF9FEF0895FC01918D228D892F90E072
:1003F000805C9F4F821B91098F739927089586E92E
:1004000092E00E94F30121E0892B09F420E0822F81
:10041000089580E090E0892B29F00E94FF0181116E
:100420000C9400000895FC01A48DA80FB92FB11DF4
:10043000A35ABF4F2C91848D90E001968F7399271A
:10044000848FA689B7892C93A089B1898C918370F8
:1004500080648C93938D848D981306C00288F389F1
:10046000E02D80818F7D80830895EF92FF920F931E
:100470001F93CF93DF93EC0181E0888F9B8D8C8D50
:1004800098131AC0E889F989808185FF15C09FB744
:10049000F894EE89FF896083E889F9898081837007
:1004A000806480839FBF81E090E0DF91CF911F91B6
:1004B0000F91FF90EF900895F62E0B8D10E00F5FD7
:1004C0001F4F0F731127E02E8C8D8E110CC00FB6AD
:1004D00007FCFACFE889F989808185FFF5CFCE0145
:1004E0000E941302F1CFEB8DEC0FFD2FF11DE35AAB
:1004F000FF4FF0829FB7F8940B8FEA89FB898081C8
:100500008062CFCF682F86E992E00C943502CF93BA
:10051000DF93EC01888D8823B9F0AA89BB89E8892B
:10052000F9898C9185FD03C0808186FD0DC00FB6D1
:1005300007FCF7CF8C9185FFF2CF808185FFEDCF4F
:10054000CE010E941302E9CFDF91CF91089590E090
:10055000FC01EF58FF4F2491FC01EF59FD4F3491FE
:10056000FC01EB58FD4FE491EE23C9F0222339F052
:10057000233001F1A8F4213019F1223029F1F0E003
:10058000EE0FFF1FE35BFD4FA591B4918FB7F89479
:10059000EC91611126C030953E233C938FBF0895A6
:1005A0002730A9F02830C9F0243049F78091800025
:1005B0008F7D03C0809180008F7780938000DFCF94
:1005C00084B58F7784BDDBCF84B58F7DFBCF8091E1
:1005D000B0008F778093B000D2CF8091B0008F7D34
:1005E000F9CF3E2BDACF61E08091E4030C94A702AF
:1005F000CF93DF9390E0FC01EF59FD4F24918B588E
:100600009D4FFC0184918823D1F090E0880F991FC1
:10061000FC01E95AFD4FA591B491FC01E35BFD4F4C
:10062000C591D49161110EC09FB7F8948C91E22FBF
:10063000E0958E238C932881E223E8839FBFDF918E
:10064000CF9108958FB7F894EC91E22BEC938FBF84
:10065000F6CF3FB7F8948091BA019091BB01A09179
:10066000BC01B091BD0126B5A89B05C02F3F19F074
:100670000196A11DB11D3FBFBA2FA92F982F882722
:10068000BC01CD01620F711D811D911D42E0660FFD
:10069000771F881F991F4A95D1F708958F929F92CF
:1006A000AF92BF92CF92DF92EF92FF924B015C012B
:1006B0000E9429036B017C010E9429036C197D09AA
:1006C0008E099F09683E734081059105A8F321E0DA
:1006D000821A9108A108B10888EEC80E83E0D81EDE
:1006E000E11CF11C81149104A104B10429F7FF90CD
:1006F000EF90DF90CF90BF90AF909F908F90089534
:100700002FB7F8946091B6017091B7018091B8014C
:100710009091B9012FBF08952091C0013091C1017E
:100720002817390771F49091BE018091BF01981785
:1007300041F0E091BE01F0E0EB58FE4F808190E087
:1007400008958FEF9FEF08950895EF92FF920F9312
:100750001F93CF93DF93DC015C96ED90FC905D9747
:10076000E114F10479F481E090E013969C938E9368
:10077000129790E080E0DF91CF911F910F91FF9051
:10078000EF9008955196ED91FC91529750968C916F
:100790005097982F90950FB75E962C915E97122FD9
:1007A000127021FD6095F8942081112319F1282BF6
:1007B0002083E7012197F1F728E0462F50E03081B0
:1007C00060FF1AC0382B3083E7012197F1F7BA0197
:1007D00075956795215089F7112381F080818923D0
:1007E00080830FBF5C968D919C910197F1F781E01A
:1007F00090E0C1CF2923DCCF3923E5CF9081892B2D
:10080000EFCF2091C0013091C1012817390761F461
:100810008091BF012091BE0190E0805C9F4F821BC0
:1008200091098F739927089590E080E008952091B1
:10083000C0013091C10128173907B9F49091BE0168
:100840008091BF01981789F0E091BE01F0E0EB586C
:10085000FE4F80812091BE0130E02F5F3F4F2F730C
:1008600033272093BE0190E008958FEF9FEF089506
:100870004F925F926F927F928F929F92AF92BF92B0
:10088000CF92DF92EF92FF924C016B010E948003A6
:100890002B013C01B12CA12C83E393E00E940104C5
:1008A000892B69F40E9480036419750986099709E8
:1008B000681579058A059B0510F4A895EDCF83E3AB
:1008C00093E00E940104892B01F10E9480034B01F7
:1008D0005C01F12CE12CA89583E393E00E940104D4
:1008E000892B41F083E393E00E9417040E94800368
:1008F0004B015C010E948003681979098A099B09F0
:100900006C157D058E059F0530F3FF90EF90DF900D
:10091000CF90BF90AF909F908F907F906F905F909F
:100920004F9008954F925F926F927F929F92AF92F5
:10093000BF92CF92DF92EF92FF920F931F93CF93CC
:10094000DF938C016B01E42E922E009721F0672B30
:1009500011F0FC0110820E9480032B013C01D0E0C9
:10096000C0E0F12C5601F1E0AF1AB108A89583E37D
:1009700093E00E940104892B71F083E393E00E94CD
:100980001704F11015C0FF24F3948E11F12C0E946E
:1009900080032B013C010E948003641975098609BC
:1009A0009709623371058105910500F3F12C0AC0A6
:1009B000891119C00115110529F0CD2819F0C00FB2
:1009C000D11F18828F2DDF91CF911F910F91FF9032
:1009D000EF90DF90CF90BF90AF909F907F906F90FF
:1009E0005F904F9008950115110589F2CA15DB0536
:1009F00074F6F801EC0FFD1F80832196C8CF8F920B
:100A00009F92AF92BF92CF92DF92EF92FF92CF93DD
:100A10004B015C010E9480036B017C01C0E00E94DD
:100A200080036C197D098E099F09681579058A056F
:100A30009B05E0F4A89583E393E00E940104892BD1
:100A400071F383E393E00E941704EC2FF0E0ED5A7A
:100A5000FE4F9081891305C0CF5FC23061F781E0FE
:100A600006C0C1E08F3439F3C0E0E5CF80E0CF911C
:100A7000FF90EF90DF90CF90BF90AF909F908F90BE
:100A8000089590E080E008958EBD00000DB407FE4B
:100A9000FDCF8EB50895CF93C82F682F86E00E94B2
:100AA000A7026C2F87E0CF910C94A702CF92DF9220
:100AB000EF92FF923091000237FD05C08091010254
:100AC000877021E009F020E04091030220FB44F907
:100AD0004093030242FB992790F9892F90E0B0E000
:100AE000A0E0BB278695B795AA279927882741704C
:100AF00050E070E060E0EDE1440F551F661F771F86
:100B0000EA95D1F7842B952BA62BB72B4091D101D9
:100B1000842B4091020240FBCC24C0F8D12CF12C54
:100B2000E12CFCE1CC0CDD1CEE1CFF1CFA95D1F78E
:100B30008C299D29AE29BF2942FBCC24C0F8D12C99
:100B4000F12CE12C5BE1CC0CDD1CEE1CFF1C5A955A
:100B5000D1F78C299D29AE29BF2944FBCC24C0F8AC
:100B6000D12CF12CE12C6AE1CC0CDD1CEE1CFF1C1D
:100B70006A95D1F78C299D29AE29BF2946FB4427C8
:100B800040F950E070E060E0E9E1440F551F661F56
:100B9000771FEA95D1F7842B952BA62BB72B33FB28
:100BA000442740F950E070E060E0742F6627552735
:100BB0004427842B952BA62BB72B3091D501A32B43
:100BC0003091D301932B30E050E040E06EE1220FF2
:100BD000331F441F551F6A95D1F7822B932BA42BEB
:100BE000B52B8093700190937101A0937201B09323
:100BF0007301FF90EF90DF90CF900895CF93DF9334
:100C0000D82FC92F0E945605409170015091710153
:100C10006091720170917301ED2FFC2F2CE130E097
:100C2000DB01CA01022E04C0B695A795979587955A
:100C30000A94D2F78F708A3058F4805D81932450E3
:100C400031092C3F8FEF380759F7DF91CF91089585
:100C5000895CF4CF4F925F926F927F928F929F92B6
:100C6000AF92BF92CF92DF92EF92FF920F931F93BA
:100C7000CF93DF934C017B016A010E9480032B011B
:100C80003C01B12CA12C83E393E00E940104892B49
:100C900069F40E948003641975098609970968152B
:100CA00079058A059B0510F4A895EDCF83E393E0C1
:100CB0000E940104892BD1F1F60101900020E9F78F
:100CC00031978F010C191D090E9480034B015C01B3
:100CD000D0E0C0E011272701712C612CA89583E397
:100CE00093E00E940104892BB1F083E393E00E941A
:100CF0001704F601EC0FFD1F9081981306C0219692
:100D0000C017D10721F481E012C0D0E0C0E00E94FA
:100D100080034B015C010E948003681979098A09EC
:100D20009B096415750586059705C0F280E0DF9183
:100D3000CF911F910F91FF90EF90DF90CF90BF90D8
:100D4000AF909F908F907F906F905F904F9008959D
:100D5000FB0101900020E9F73197AF01461B570BCB
:100D6000DC01ED91FC910280F381E02D09948F92DA
:100D70009F92AF92BF92EF92FF920F931F93CF93E8
:100D8000DF93CDB7DEB7A1970FB6F894DEBF0FBEE5
:100D9000CDBF7C01FA01CB0119A2223008F42AE070
:100DA0008E010F5D1F4F822E912CB12CA12CBF0103
:100DB000A50194010E949C20F901CA016A300CF53A
:100DC000605DD8016E938D01232B242B252B79F7A1
:100DD00090E080E0109721F0BD01C7010E94A806B5
:100DE000A1960FB6F894DEBF0FBECDBFDF91CF91B5
:100DF0001F910F91FF90EF90BF90AF909F908F90B9
:100E00000895695CDECFCF93DF938E3F2FEF92077B
:100E100040F068E670E086E992E0DF91CF910C94B3
:100E200071016AE070E00E947420EC01AB0170E097
:100E300060E02AE086E992E00E94B7068EE20E9416
:100E40008202AE0170E060E02AE086E992E0DF9184
:100E5000CF910C94B70666E571E00C94A806CF9389
:100E6000DF93BC0183E393E00E947101EC0183E313
:100E700093E00E942B078C0F9D1FDF91CF91089567
:100E80000F931F93CF93DF932091EB03211107C0A2
:100E9000C0E08C2FDF91CF911F910F910895EB014E
:100EA0008C0169E372E083E393E00E94710168E7DB
:100EB00072E083E393E00E94A80687E392E00E9439
:100EC0002F0749E551E064EF71E088EE93E00E945E
:100ED0002A068823E9F262E370E088EE93E00E943C
:100EE000380401151105D1F0C8010E942F076AE1ED
:100EF00083E393E00E94A50343E551E068E873E1D2
:100F000088E59BE10E942A06C82F882309F262E344
:100F100070E088EE93E00E943804BBCF209729F060
:100F2000BE0183E393E00E94A80683E393E00E945E
:100F30002B07DDCF20917802222329F0BC0190E01D
:100F400080E00C9440070895CF93DF93CDB7DEB7D0
:100F50002A970FB6F894DEBF0FBECDBF83E2898318
:100F6000CE0102960E94FE051A86CE0101960E94CD
:100F70009A072A960FB6F894DEBF0FBECDBFDF9159
:100F8000CF9108958F929F92AF92BF92EF92FF926E
:100F90000F931F93CF93DF93F82EE62E082F10E0C8
:100FA00025E0829FE0011124CE5EDD4F89809A808A
:100FB000AB80BC8081149104A104B10489F40E9427
:100FC000800369837A838B839C83DF91CF911F9108
:100FD0000F91FF90EF90BF90AF909F908F900895EA
:100FE0000E948003DC01CB0188199909AA09BB0979
:100FF00061E08C3221E09207A105B105F0F0803963
:1010000021E09207A105B10570F461E08E2DDF911A
:10101000CF911F910F91FF90EF90BF90AF909F9055
:101020008F900C94A70260E08C3B9240A105B10523
:1010300030F48E2D0E94A70260E085E0E8CF8E2D6F
:101040000E94A70260E085E00E94A702988192308A
:1010500039F480910302817026E0F2121DC0F1F094
:1010600085E0809FF001819FF00D1124EE5EFD4F21
:1010700010821182128213821482923009F0A5CF5D
:10108000DF91CF911F910F91FF90EF90BF90AF90A4
:101090009F908F900C94A407882311F380910302F2
:1010A000846080930302DCCFCF92DF92EF92FF92B5
:1010B0000F931F93CF93C82F0E9480036B017C0175
:1010C0000C2F10E025E0C29FF0011124EE5EFD4FD1
:1010D00081819281A381B481892B8A2B8B2B59F436
:1010E000C182D282E382F482809174018330E0F481
:1010F0008F5F8093740185E0809FF001819FF00DE8
:101100001124EE5EFD4F81819281A381B481A701FC
:101110009601281B390B4A0B5B0BDA01C901883C8D
:101120009105A105B10558F461E085E0CF911F91CB
:101130000F91FF90EF90DF90CF900C94A70288352D
:1011400032E09307A105B10528F483E1C11182E1E2
:1011500061E0ECCF8C3B42E09407A105B10528F497
:1011600083E1C11182E160E0E1CF20910002322FE2
:10117000387023FD12C0CC23D1F0883E53E0950790
:10118000A105B10560F481E0CF911F910F91FF900F
:10119000EF90DF90CF900C944B05CC2341F08C3432
:1011A00044E09407A105B10510F480E0EDCF28726A
:1011B00059F4C1117DC0803243E09407A105B10507
:1011C00080F461E088E0B2CF203249F4C111C8C098
:1011D000883E43E09407A105B10518F4D4CFC111AE
:1011E0006EC0843145E09407A105B105F0F248EBEB
:1011F0005BE060E070E06EC0332321F160E088E0E6
:101200000E94A70260E085E00E94A7028091000290
:101210008D7F8093000280911C02853019F486E056
:1012200080931C021092740185E0809FF001819FE1
:10123000F00D1124EE5EFD4F108211821282138296
:10124000148286C0809174018330D0F485E0809F41
:10125000F001819FF00D1124EE5EFD4F118212828C
:101260001382148282E0C11101C081E095E0909F59
:10127000F001919FF00D1124EE5EFD4F808368C058
:1012800060E088E00E94A70260E085E00E94A7027B
:1012900080910302846080930302C1110E94A4071D
:1012A00010927401809100028D7F80930002BCCF68
:1012B000803B54E09507A105B10508F482CF843A3C
:1012C00056E09507A105B10508F46FCF48E45DE04D
:1012D00060E070E084179507A607B70708F08CCF89
:1012E0002832B1F560E088E00E94A70260E085E066
:1012F0000E94A702CC2389F082E080932102C09251
:101300002202D0922302E0922402F09225028091E0
:101310001C02811102C00E94A407109274018091E6
:1013200000028D7F8093000285E0809FF001819F05
:10133000F00D1124EE5EFD4F108211821282138295
:10134000148280911C02853019F486E080931C027F
:10135000CF911F910F91FF90EF90DF90CF90089564
:10136000883755E09507A105B10508F40CCFA7CF44
:1013700020917802222321F070E060E00C94400775
:1013800008958F929F92AF92BF92DF92EF92FF9259
:101390000F931F93CF93DF93D62E7A01082F10E07F
:1013A00025E0829FE0011124CE5EDD4F89819A8184
:1013B000AB81BC81892B8A2B8B2B49F40E94800343
:1013C00069837A838B839C8381E0809353020E949C
:1013D000800325E0209FF001219FF00D1124EE5E97
:1013E000FD4F81809280A380B480DC01CB018819FD
:1013F0009909AA09BB0961E0843F21E09207A10590
:10140000B10530F080329340A105B10578F460E079
:101410008D2DDF91CF911F910F91FF90EF90DF9075
:10142000BF90AF909F908F900C94A70280818230E4
:1014300019F4C7010E94B80960E08D2D0E94A7022F
:1014400085E0809FF001819FF00D1124EE5EFD4F3D
:1014500010821182128213821482DF91CF911F9128
:101460000F91FF90EF90DF90BF90AF909F908F9083
:101470000895CF92DF92EF92FF92CF93DF930E9475
:10148000560583E20E948202C090FF010C2C000CE2
:10149000DD08EE08FF082AE0B701A601F7FE0BC041
:1014A0008DE20E94820244275527BA014C195D093A
:1014B0006E097F092AE086E992E00E94B7068EE273
:1014C0000E9482024091FE0150E070E060E02AE05C
:1014D00086E992E00E94B70683E20E948202409170
:1014E000FD0150E070E060E02AE086E992E00E94B1
:1014F000B7068EE20E9482024091FC0150E070E04B
:1015000060E02AE086E992E00E94B70683E20E944A
:101510008202CCE1D0E08091700190917101A091A4
:101520007201B09173010C2E04C0B695A7959795E2
:1015300087950A94D2F78F708A3090F4805D0E946C
:1015400082022497CC3F8FEFD80729F786E992E0F3
:10155000DF91CF91FF90EF90DF90CF900C942B070D
:10156000895CEDCF6BE670E086E992E00E94710144
:1015700080910601909107010E9403078CE20E946E
:10158000820280910401909105010E9403078CE280
:101590000E94820280910201909103010E94030740
:1015A0008CE20E94820280910001909101010E94D0
:1015B000030786E992E00C942B070F931F93009189
:1015C000E5031091E6032091E7033091E80340E042
:1015D00052E16AE770E080E0041715072607370735
:1015E00040F476956795579547958F5F8630A1F7BC
:1015F00087E0982F906A9695809581709CBD8DBDEF
:1016000060E08091E4031F910F910C94A702CF93A7
:10161000C82F0E94DD0A83E00E9444058C2F0E949F
:10162000440580E00E944405C82F0E94F3028C2FDD
:10163000CF9108951F93CF93DF93182FD62FC42FE8
:101640000E94DD0A85E00E944405812F0E94440526
:101650008D2F0E9444058C2F0E944405DF91CF916D
:101660001F910C94F302CF92DF92EF92FF92CF93EF
:10167000C82F482F60EE8FE00E941A0B0E94800353
:101680006B017C012AE0C20ED11CE11CF11C0E94FE
:1016900080036C157D058E059F0580F48EE00E9409
:1016A000070B807EC813F3CF81E091E0892790E09B
:1016B000CF91FF90EF90DF90CF90089580E0F5CF2D
:1016C000CF93DF93D82FC62F0E94DD0A82E00E94BD
:1016D00044058D2F0E9444058C2F0E944405DF9104
:1016E000CF910C94F302FF920F931F93CF93DF934C
:1016F000C82FF62E172F042F0E94DD0A83E00E94C8
:1017000044058C2F0E944405CF2DD12F0C0F1D2F87
:10171000111DC017D10729F080E00E94440589936C
:10172000F8CFDF91CF911F910F91FF900C94F302AE
:10173000BF92CF92DF92EF92FF920F931F93CF93BE
:10174000DF9300D000D01F92CDB7DEB78C01000F21
:10175000111F000F111FF801E25EFE4F45E0BE01B0
:101760006F5F7F4F81810E94730B8A81C98098E0EF
:10177000C99E60011124282F30E055E0359527954A
:101780005A95E1F7C20ED31E0D2C000CEE08FF088F
:1017900083FF20C092E0CC0CDD1CEE1CFF1C9A9550
:1017A000D1F78370C80ED11CE11CF11CFE2CED2C6E
:1017B000DC2CCC248B81C80ED11CE11CF11CFE2C2E
:1017C000ED2CDC2CCC248C81C80ED11CE11CF11C2E
:1017D0006894F7F88D818F70B82EE8E081E090E092
:1017E000EB1528F1F801E25EFE4F80810E94070BA5
:1017F00083FF02C06894F6F8C0926802D092690232
:10180000E0926A02F0926B02B0926C02025E1E4F8E
:101810004B2D60E772E0F80182810E94730B40E07B
:10182000F80163818CE20E941A0B90E080E00F9037
:101830000F900F900F900F90DF91CF911F910F910C
:10184000FF90EF90DF90CF90BF9008950E94DD0A47
:1018500080EC0E9444050E94F3026AE070E080E0A0
:1018600090E00E944E0364E080E60E94600B63EA11
:101870008BE20E94600B80E80E94330B892B61F49D
:1018800060E08AE20E94600B60EF89E20E94600BD8
:1018900066E888E20E94600B80E00C94330B4F9264
:1018A0005F926F927F928F929F92AF92BF92CF92F0
:1018B000DF92EF92FF920F931F93CF93DF93CDB7F9
:1018C000DEB763970FB6F894DEBF0FBECDBFFC0145
:1018D0002481293008F0B2C06C0186E0ECE0F1E030
:1018E000DE011E9601900D928A95E1F73E01FEE021
:1018F0006F0E711C4E0184E1880E911CF301E19082
:10190000F1903F018701000F111FF801EE0DFF1D3F
:10191000EA5DFE4FA0808A2D0E94070B83FDAAC0BE
:10192000F601B480F8E0FB1508F488C0F6014081A8
:10193000518162817381DB01CA018827B7FD8395DC
:101940009927AA27BB27282FDB01CA0188279927B7
:10195000AA27B07444244A94542C642CEFE17E2EC0
:10196000211106C044244A9437E0532E612C712C77
:101970004421552166217721222309F443C04C8359
:101980005B83AB0166277727242F220F220F220FBC
:10199000207E342F33703860232B2A83F5E0569550
:1019A0004795FA95E1F74983892B8A2B8B2BC1F157
:1019B0008B2D80648D834B2D50E0B601685F7F4F87
:1019C000CE0106960E94E320F5E0BF0E0E0D1F1D0E
:1019D000F801EA5DFE4F11810E94DD0A82E00E945B
:1019E0004405812F0E944405CE0101967C018C01A3
:1019F000802F8E198B15B0F4F80181918F010E9410
:101A00004405F6CF9A0153E0369527955A95E1F7AC
:101A100029834295440F407E4A831C821B82C4CF97
:101A20008B2DC8CF0E94F30248E068E08A2D0E9407
:101A30001A0B8A2D0E94070B807719F084E090E042
:101A400002C090E080E063960FB6F894DEBF0FBE50
:101A5000CDBFDF91CF911F910F91FF90EF90DF905D
:101A6000CF90BF90AF909F908F907F906F905F903E
:101A70004F9008956814790409F040CF82E090E017
:101A8000E2CFCF93DF93CDB7DEB767970FB6F89469
:101A9000DEBF0FBECDBFFE013896E87F9F012C5FF1
:101AA0003F4F8AE0D9011D928A95E9F781EE95E0D2
:101AB000A0E0B0E080839183A283B38388E0848335
:101AC00080E6808781E0818795E0928783878FEF2A
:101AD000858786878787CF010E944F0C67960FB650
:101AE000F894DEBF0FBECDBFDF91CF910895E8E639
:101AF000F2E046EB52E060E070E0408351836283A5
:101B0000738392E0948380871186CF010C944F0CED
:101B100046EC51E060E070E0409368025093690247
:101B200060936A0270936B0294E090936C02813030
:101B300089F080E01092710210927002809373021B
:101B40008093720288E692E00E944F0C88E692E051
:101B50000C944F0C82E5EECFE8E6F2E04AE352E067
:101B600060E070E0408351836283738394E09483E8
:101B700091E1908793EF918782878FE38387CF01ED
:101B80000E944F0C88E692E00E944F0C88E692E09B
:101B90000C944F0C0F931F93CF93DF93CDB7DEB709
:101BA00068970FB6F894DEBF0FBECDBF062FBC01FD
:101BB000CE0101960E941B2010E081E090E08C0F86
:101BC0009D1F800F911F0E94FE05FE01E00FF11F77
:101BD0001186CE0101960E949A0768960FB6F89476
:101BE000DEBF0FBECDBFDF91CF911F910F91089542
:101BF000FF920F931F93CF93DF93EC01F62E088192
:101C00001981C8010E944420F81621F06F2DC801E7
:101C10000E944C20CE01DF91CF911F910F91FF9038
:101C20000895FF920F931F93CF93DF9381E08093EA
:101C3000530208E712E0D0E0C0E0F801F1908F0114
:101C4000CE010E944420F81621F06F2DCE010E9493
:101C50004C202196CE31D10581F7DF91CF911F9194
:101C60000F91FF9008951F920F920FB60F921124BB
:101C70002F933F934F935F936F937F938F939F9394
:101C8000AF93BF93EF93FF9386E992E00E94130214
:101C9000FF91EF91BF91AF919F918F917F916F9144
:101CA0005F914F913F912F910F900FBE0F901F901A
:101CB00018951F920F920FB60F9211242F938F93A6
:101CC0009F93EF93FF93E091A602F091A70280818A
:101CD000E091AC02F091AD0282FD1BC09081809139
:101CE000AF028F5F8F732091B002821741F0E091B5
:101CF000AF02F0E0EA56FD4F958F8093AF02FF915F
:101D0000EF919F918F912F910F900FBE0F901F9089
:101D100018958081F4CF1F920F920FB60F92112465
:101D20002F933F938F939F93AF93BF938091B6016F
:101D30009091B701A091B801B091B9013091B5016E
:101D400023E0230F2D3758F50196A11DB11D2093D7
:101D5000B5018093B6019093B701A093B801B093F9
:101D6000B9018091BA019091BB01A091BC01B091E1
:101D7000BD010196A11DB11D8093BA019093BB01D5
:101D8000A093BC01B093BD01BF91AF919F918F9182
:101D90003F912F910F900FBE0F901F90189526E83E
:101DA000230F0296A11DB11DD2CF1F920F920FB625
:101DB0000F9211242F933F934F935F936F937F93D1
:101DC0008F939F93AF93BF93EF93FF93E091C001E5
:101DD000F091C101309749F0A685B7858585968D2C
:101DE00091FF14C09C918923A1F4FF91EF91BF91C1
:101DF000AF919F918F917F916F915F914F913F91A3
:101E00002F910F900FBE0F901F9018959C918923D2
:101E100061F7A389B4899C918589809589238C93E6
:101E2000868997890197F1F7608D718DA685B785B1
:101E3000558538E020E0CB010197F1F7822F90E043
:101E400095958795282F4C91452309F020683150AE
:101E500091F7868D81FD20958091BF0190E00196DC
:101E60008F7399273091BE01381799F0A091BF0167
:101E7000B0E0AB58BE4F2C938093BF01828D938D01
:101E80000197F1F7A389B4898C919589892B8C935B
:101E9000ACCF868D8160868FF1CFCF93109299025F
:101EA0001092980288EE93E0A0E0B0E080939A024E
:101EB00090939B02A0939C02B0939D0223E331E098
:101EC000309397022093960225EC30E03093A302E2
:101ED0002093A20224EC30E03093A5022093A402C8
:101EE00020EC30E03093A7022093A60221EC30E0F2
:101EF0003093A9022093A80222EC30E03093AB0289
:101F00002093AA0226EC30E03093AD022093AC027D
:101F10001092AF021092B0021092B1021092B2026F
:101F20001092360310923503809337039093380351
:101F3000A0933903B0933A0385E491E0909334037E
:101F40008093330310924A031092490310924C037A
:101F500010924B0310924E0310924D0310925003B7
:101F600010924F03609151036E7F6D7F6093510318
:101F70006695617081E0682783E00E94A70261E0B6
:101F800083E00E94F802E4E6F2E0E491E093430388
:101F9000E8E7F2E0E491F0E0EE0FFF1FE35BFD4FB6
:101FA00085919491909345038093440360E082E08F
:101FB0000E94F8028091510381FD04C061E082E03B
:101FC0000E94A70282E080933F03E3E6F2E0E491FF
:101FD000E0934003E7E7F2E0E491F0E0EE0FFF1F4B
:101FE000ED5BFD4F85919491909342038093410363
:101FF0001092EB0383E593E09093EA038093E90367
:10200000CFB7F89480915203811127C0EFE7F2E037
:102010008491EBE6F2E09491E82FF0E0EE0FFF1FE1
:10202000E95AFD4FA591B491EC91E92321F461E0C7
:102030008AE00E94A70261E08AE00E94F8028CB563
:1020400080618CBD8CB580648CBD61E08DE00E94A8
:10205000F80261E08BE00E94F802809152038F5FEA
:1020600080935203CFBF8AE08093E40380E896E92F
:10207000A8E9B0E08093E5039093E603A093E7031B
:10208000B093E80361E08AE00E94F80261E0809189
:10209000E4030E94A702E4E5F3E084EE93E01086F7
:1020A0001186128613863C968E179F07C1F7CF9133
:1020B0000895CF93DF93CDB7DEB7AA970FB6F89404
:1020C000DEBF0FBECDBF789484B5826084BD84B579
:1020D000816084BD85B5826085BD85B5816085BD23
:1020E00080916E00816080936E00109281008091DB
:1020F0008100826080938100809181008160809363
:102100008100809180008160809380008091B10087
:1021100084608093B1008091B00081608093B000B2
:1021200080917A00846080937A0080917A00826046
:1021300080937A0080917A00816080937A00809108
:102140007A00806880937A001092C100E091A60224
:10215000F091A70282E08083E091A202F091A302B5
:102160001082E091A402F091A50280E18083109298
:10217000AE02E091AA02F091AB0286E08083E0918A
:10218000A802F091A902808180618083E091A80279
:10219000F091A902808188608083E091A802F0918B
:1021A000A902808180688083E091A802F091A90251
:1021B00080818F7D80838CE0E2E1F1E0DE01119689
:1021C00001900D928A95E1F78E010F5F1F4F9E01DE
:1021D000235F3F4F3EA32DA3D801FD908D0161E009
:1021E0008F2D0E94F80260E08F2D0E94A7028DA023
:1021F0009EA08016910681F70E94260C78E7E72EB4
:1022000072E0F72E10E000E0C8010E944420D701E0
:102210008D937D010F5F1F4F0E311105A9F783E2EA
:1022200090E00E9444208093D50187E390E00E94D3
:1022300044208093D301F12CE12C04E813E0412CDD
:10224000512C3201812C912C5401C8010E94442050
:1022500090E0B0E0A0E00E2C04C0880F991FAA1FE8
:10226000BB1F0A94D2F7882A992AAA2ABB2AC80136
:1022700004960E94442090E0B0E0A0E00E2C04C040
:10228000880F991FAA1FBB1F0A94D2F7482A592A00
:102290006A2A7B2A0F5F1F4FB8E0EB0EF11C08384B
:1022A000E3E01E0791F68092090290920A02A09242
:1022B0000B02B0920C02409205025092060260920C
:1022C00007027092080281E08093530288E199E24C
:1022D0000FB6F894A895809360000FBE90936000AD
:1022E00080916202811114C10E94800361317742A2
:1022F0008105910508F40CC11092EB0310924E0376
:1023000010924D0310924C0310924B0310924A030B
:102310001092490382E490E09093500380934F031E
:1023200090913F03963108F047C02FE030E03093A2
:102330004A032093490320E430E030934C03209378
:102340004B0327E230E030934E0320934D0320915E
:10235000680084E0983048F031E09E3008F430E0C6
:1023600081E001C0880F3A95EAF7822B80936800DC
:102370002DE630E0983050F02BE630E09E3030F023
:102380002CE630E0963110F030E020E03093470347
:1023900020934603292F30E0983008F0A9C081E04F
:1023A00001C0880F9A95EAF78093480380914F0304
:1023B000909150030197F1F780914D0390914E0356
:1023C000892B49F1E091C001F091C10123E0E33391
:1023D000F20709F1309739F0A389B4899C91858976
:1023E000809589238C93809151038E7F8093510334
:1023F0001092BF011092BE0183E393E09093C1015C
:102400008093C001E0914603F09147038081909151
:102410004803892B808364EF71E080E090E00E94A4
:102420004E0383E393E00E940104892B31F064E1C1
:1024300070E088EC90E00E94380404E010E068E965
:10244000E62E60E0F62EBB24B3940150110909F486
:102450005CC08091EB03811158C0A89583EE90E099
:102460000E942F0768EE73E080E090E00E94FF0476
:10247000882359F34EED50E05A83498380ED90E074
:102480009C838B83ABECB0E0BE83AD83E1ECF0E0EA
:10249000F887EF835FEA852E50E0952E9A8689862D
:1024A000FC86EB869E012F5F3F4F6901A895D60100
:1024B0008D919D916D010E942F0760ED77E080E086
:1024C00090E00E94FF04882309F4BFCF8DA09EA056
:1024D0008C149D0459F7B092EB0385E890E00E94BC
:1024E0002F0768E873E180E090E00E94FF04ADCF21
:1024F0009E3040F42850310981E001C0880F2A95B0
:10250000EAF752CF2E503109F7CF81E08093620273
:102510000E94DD0A80EA0E94440580E00E94440592
:10252000182F0E94F30290E080E010FD04C011FF1C
:1025300033C181E090E00E94980B892B09F02CC1F7
:102540000E9480036093C2017093C3018093C40111
:102550009093C501209100022E7F2093000280916C
:10256000680290916902A0916A02B0916B02803377
:1025700033E09307A105B10509F4EEC308F046C2A4
:102580008A3C52E09507A105B10509F480C3E0F546
:102590008337F1E09F07A105B10509F464C48A33CC
:1025A00032E09307A105B10509F4E3C3823A91052E
:1025B000A105B105C1F590917002983009F4F7C2F8
:1025C00008F0E8C2923009F4EEC2809171028830BE
:1025D00009F402C308F0F3C2823009F4F9C2911180
:1025E00022C0811120C01092840310929003109297
:1025F0009C031092A8031092B4031092C00310928F
:10260000CC031092D8030FC0803F42E09407A1058D
:10261000B10509F432C308F0C3C18B3E9240A10555
:10262000B10509F4E1C280918703813021F4109251
:10263000870380933F0280919303813021F41092AD
:1026400093038093440280919F03813009F05EC41C
:1026500010929F0381E0809349028091AB03813007
:1026600021F41092AB0380934E028091B703813026
:1026700021F41092B703809335028091C303813017
:1026800089F51092C30380EA92E0A0E0B0E0809365
:10269000680290936902A0936A02B0936B0288E08B
:1026A00080936C0288E8809370028093710280EFBF
:1026B000809372028DE4809373028FEF8093740293
:1026C00080937502809376028093770288E692E089
:1026D0000E944F0C88E692E00E944F0C88E692E040
:1026E0000E944F0C8091DB03813021F41092DB03B8
:1026F00080935D0280915703833029F41092570331
:1027000081E080933A0220916303213039F51092E1
:1027100063033091000237FB882780F99091010212
:10272000492F4170842B91FB442740F9842B92FB65
:10273000442740F9842B91F032FD10C093FD0EC068
:1027400088EC90E0A0E0B0E080930801909309014C
:10275000A0930A01B0930B012093580280917B0350
:102760008130D1F410927B0380911202811114C048
:1027700080912602811110C0909121029111CEC347
:102780008091000283FDCBC391E081E0909312021F
:1027900091E08927809326020E9480030091C20164
:1027A0001091C3012091C4013091C501601B710BD0
:1027B000820B930B613E73498440910508F456C027
:1027C0008091000280FD52C00E94260C0E9480036E
:1027D0006093C2017093C3018093C4019093C501BB
:1027E000809100028160809300021092D10140909C
:1027F000090250900A0260900B0270900C028090C7
:10280000050290900602A0900702B090080204E82A
:1028100013E0F12CE12C1A830983C301B2010E2CC1
:1028200004C095958795779567950A94D2F7CE0160
:1028300001960E94F80DC80104969A838983C50108
:10284000B4010E2C04C095958795779567950A94E9
:10285000D2F7CE0101960E94F80DB8E0EB0EF11C04
:102860000F5F1F4F0838E3E01E07A9F680911202A0
:10287000811145C080911702811141C080910002F1
:1028800086FD3DC090910202792F717092FB662700
:1028900060F994FB552750F996FB442740F9809145
:1028A000010284FB332730F9232F272770FB84F99B
:1028B00085FB332730F93627322B60FB85F986FB01
:1028C000222720F92527322B50FB86F987FB222768
:1028D00020F92427232B40FB87F980930102222330
:1028E00071F0957580910302992309F41AC38460ED
:1028F000809303026BE088EF90E00E94CA0D0E9473
:102900008003E4E5F3E021E0C480D580E680F78031
:102910004B015C018C189D08AE08BF08750164016D
:1029200039EBC3163BE0D306E104F10408F013824F
:10293000418130814111FCC2332329F060877187C6
:102940008287938721833C9643E0E43EF407E1F6D7
:102950000091210210910002002311F40C94291F10
:102960000E948003C0902202D0902302E0902402B3
:10297000F09025026C197D098E099F0910910002C3
:10298000613A7B4B8D40910510F40C94051F84E057
:10299000023011F40C94251F809126020C94251FFF
:1029A0008C3FF2E09F07A105B10509F487C18E3283
:1029B0009340A105B10509F036CE2091730291E054
:1029C0002F3E09F090E08091030290FB87F98093FD
:1029D00003022C3319F08064809303024AE0249FA1
:1029E00090011124C9016CE370E00E94882060937B
:1029F000FD01C90166E070E00E948820CB016AE019
:102A000070E00E9488208093FC010DCE873B33E06C
:102A10009307A105B10509F463C268F58B3653E04D
:102A20009507A105B10509F46FC068F4813593409D
:102A3000A105B10509F0F7CD609173026093D5014E
:102A400083E290E08FC1833A23E09207A105B105AC
:102A500009F4F5C0863B9340A105B10509F0E3CD2B
:102A600091E0809171028C3F09F490E08091000226
:102A700090FB87F9FFC0893B43E09407A105B105AE
:102A800009F439C208F421C2893FE3E09E07A10599
:102A9000B10509F4EDC182319440A105B10509F0F9
:102AA000C2CDC0907002D0907102E0907202F0909E
:102AB0007302F0E8FF1A60917402709175028091C0
:102AC000760290917702905844E2842E912CA12CAA
:102AD000B12CA50194010E94BE20209309023093DD
:102AE0000A0240930B0250930C02C701B601A501E4
:102AF00094010E94BE202093050230930602409369
:102B00000702509308028FCD60917002709171029C
:102B100040917202509173022091740230917502BB
:102B20008091760290917702E0910601F091070181
:102B30006E177F0769F5E0910401F09105014E17CA
:102B40005F0731F5E0910201F0910301A1E02E173A
:102B50003F0741F4E0910001F0910101E817F90706
:102B600009F4A0E0709307016093060150930501FA
:102B700040930401309303012093020190930101DB
:102B800080930001AA2309F44ECD0E94B20A4BCDD6
:102B9000A1E0E8CF903279F0903809F016CD81E0CD
:102BA0008093A80312CD81E0809384030ECD81E051
:102BB000809390030ACD81E080939C0306CD803200
:102BC00079F0803809F00BCD81E08093D8032BCDCC
:102BD00081E08093B40327CD81E08093C00323CDAF
:102BE00081E08093CC031FCD66EE70E086E992E031
:102BF0000E947101F12C80916C02F816D8F40F2D0F
:102C000010E008591D4FD80118968C91803118F4A6
:102C100080E30E948202F801408550E070E060E0AD
:102C200020E186E992E00E94B70680E20E948202DB
:102C3000F394E1CF86E992E00E942B07F4CC8091D7
:102C40007002803D49F4809171028F3F09F0EBCC16
:102C500084E00E94AC0DE7CC883C09F0E4CC809184
:102C600071028F3F09F0DFCC81E00E94AC0D8091B2
:102C70000002806480930002D6CC809170028C7038
:102C8000883009F0D0CC82E080931702CCCC8091C0
:102C9000700225E0829FC0011124805991406AE0B2
:102CA00070E00E9488206093FF019C0197FF03C0A1
:102CB0003195219531092093FE01B5CC8091030215
:102CC0009091700290FB80F98093030280917102D1
:102CD000982F937051E0913009F050E090910202EA
:102CE00050FB90F99093020241E0982F9C70943031
:102CF00009F040E09091020240FB92F990930202A9
:102D000031E0982F9073903109F030E090910202F9
:102D100030FB94F990930202807C21E0803409F02A
:102D200020E08091020220FB86F9809302029091BC
:102D3000040290FD78CC8091010250FB84F940FBA5
:102D400085F930FB86F920FB87F980930102892FF2
:102D500081608093040267CC609173026093D30119
:102D600087E390E09A838983CE0101960E94F80D53
:102D70005ACC80917202843061F4809173028F3357
:102D800009F051CC81E0809360032F7B20930002F7
:102D90004ACC8130E1F4809173028F3309F043CC47
:102DA00081E080935403809100028064809300024C
:102DB0001092210280910102877F8093010280910D
:102DC000030282FF30CC8B7F809303022CCC8031B6
:102DD00071F4809173028F3309F025CC80917502D4
:102DE000833F09F420CC81E080936C031CCC8111DB
:102DF0002AC0809173028F3309F015CC8091740240
:102E00008F3F09F010CC80917502813F61F4809171
:102E1000000281FD05C091E09093780382602ACF83
:102E20001092780300CC803F09F0FDCB1092600334
:102E30001092540310926C03809101028F788F7767
:102E400080930102F0CB803409F0EDCB80917302C6
:102E50008F3309F0E8CB10927803809100028D7FC8
:102E600080930002E9CF8091770280FB25F98ECF15
:102E700080917302837091E0823009F090E080913C
:102E8000000290FB83F98093000283FD19C08091BA
:102E900021028823A9F00E94800300912202109150
:102EA00023022091240230912502601B710B820BBA
:102EB000930B693E73408105910510F01092210239
:102EC000809174028093D101AECB91E08091710228
:102ED0008C3F09F490E08091010290FB80F9B0CF23
:102EE00091E080917002811101C090E08091010217
:102EF00090FB81F9A5CF91E080917002811101C012
:102F000090E08091010290FB82F99ACF80916F034B
:102F1000813009F0A2CB10926F039CCB90E080E04F
:102F200035CC8B7F809303026CE08BEE90E0E5CC98
:102F3000311109CD12821182C084D184E284F384DC
:102F40004B015C018C189D08AE08BF087501640137
:102F500038EEC31633E0D306E104F10408F0F3CCF5
:102F600033813F5F33836483758386839783EBCCA0
:102F700061E571E086EC91E00E941220892B21F43A
:102F80000E94B20A0C94D51F6BE471E086EC91E0CC
:102F90000E941220892B31F4F89414BE0C94003F47
:102FA0000C94D51F67E471E086EC91E00E9412203A
:102FB000892B19F410933A02F8C762E471E086ECA9
:102FC00091E00E941220892B19F410933002EDC772
:102FD0006BE371E086EC91E00E941220892B19F4DA
:102FE00010932B02E2C766E371E086EC91E00E9449
:102FF0001220892B19F410933F02D7C761E371E0C7
:1030000086EC91E00E941220892B19F4109344025F
:10301000CCC76CE271E086EC91E00E941220892B13
:1030200019F410934902C1C767E271E086EC91E0A0
:103030000E941220892B19F410934E02B6C762E247
:1030400071E086EC91E00E941220892B39F4809186
:10305000000283FF03C010932602A7C76CE171E052
:1030600086EC91E00E941220892B21F480910002CD
:1030700083FF0BC068E171E086EC91E00E941220B2
:10308000892B31F410935D0290C7109312028DC703
:1030900062E171E086EC91E00E941220892B19F424
:1030A0000E94410D82C76DE071E086EC91E00E94C4
:1030B0001220892B79F488E592E0A0E0B0E08093BB
:1030C000080190930901A0930A01B0930B01F092BB
:1030D00058026BC764E071E086EC91E00E94122018
:1030E000892B09F062C71093120200931C025DC77E
:1030F0009F5F9093D001808331C70E94800300912D
:10310000F8011091F9012091FA013091FB01601B47
:10311000710B820B930B683E73408105910508F497
:1031200034C10E9480036093F8017093F901809389
:10313000FA019093FB0183E393E00E940104892B41
:1031400009F423C1A89583E393E00E941704182F84
:103150000091F7010F3168F0E02FE051FF0BAF0154
:1031600067EE71E087ED91E00E94EC200051009342
:10317000F701E091F701BB24B394BE0EB092F701C2
:10318000F0E0E952FE4F1083CB2CD12CF601E9522E
:10319000FE4F10826BE571E087ED91E00E941921EE
:1031A0007C01009741F26AE070E00E94FE208C01F1
:1031B000892B09F4C0CF6CE270E0C7010E94FE20A9
:1031C000009719F08017910718F01092F701B3CF0C
:1031D00001960E94F41F7C01065D11400B1508F456
:1031E000B9C01092F701E091F701F0E0E952FE4F0B
:1031F00010821E141F040CF09ECF8091EB038823D5
:1032000009F499CF66E671E083E393E00E947101CF
:10321000CE2CD12CF12CE12C2AE0B701A60183E3BE
:1032200093E00E94B70683E393E00E942B0742E6F7
:1032300051E062E370E080E197E20E942A06882371
:1032400009F479CF22E242E270E060E090E080E0B1
:103250000E949204882309F46ECF22E242E26FE0DA
:1032600070E08CE294E00E949204882309F463CF1A
:1032700022E242E270E060E090E080E00E9492048E
:10328000882309F458CF22E242E270E060E090E047
:1032900080E00E949204882309F44DCF2DE04AE09B
:1032A00060E470E08CEE93E00E949204882309F4BD
:1032B00042CF62E370E088EE93E00E943804809190
:1032C000EB03882309F461C06DE571E083E393E0CB
:1032D0000E9471012AE0B701A60183E393E00E94F6
:1032E000B70683E393E00E942B0743E551E062E3D6
:1032F00070E088EA91E60E942A06882309F445C016
:1033000062E370E088EE93E00E94380468E772E0C0
:103310008CE294E00E940921892B59F167E872E060
:103320008CE294E00E940921892B19F16EEE71E084
:103330008CEE93E00E942220892B09F0F0C380914B
:103340007802882311F16CEE73E090E080E00E9437
:1033500040071BC0B8017727A601461B570B6952CF
:103360007E4F87ED91E00E94EC20B01AB092F701F9
:103370003ACF63EE71E08CEE93E00E941220892B2D
:1033800009F02EC382E080933F02A895809112023B
:10339000882319F080E00E94540880911702882346
:1033A00019F081E00E94540880911C028630C1F51A
:1033B00080911D0290911E02A0911F02B0912002E7
:1033C000892B8A2B8B2B51F40E94800360931D0262
:1033D00070931E0280931F02909320020E9480032C
:1033E00000911D0210911E0220911F0230912002B7
:1033F000DC01CB01801B910BA20BB30B61E08C3283
:10340000F1E09F07A105B10540F060E0803223E0C4
:103410009207A105B10508F0ABC389E00E94A7029D
:10342000109126021123A9F1809127029091280280
:10343000A0912902B0912A02892B8A2B8B2B51F45F
:103440000E948003609327027093280280932902D0
:1034500090932A020E948003C0902702D0902802F5
:10346000E0902902F0902A02DC01CB018C199D0921
:10347000AE09BF0920910002022F087023FF24C467
:1034800084369105A105B10508F01EC481E00E94B3
:103490004B0580913002882321F063E186E00E9491
:1034A000C20780912B02882321F062E185E00E940F
:1034B000C20780913502882309F441C08091360209
:1034C00090913702A0913802B0913902892B8A2B52
:1034D0008B2B69F40E94800360933602709337024D
:1034E000809338029093390281E0809353020E94C6
:1034F00080030091360210913702209138023091FA
:103500003902601B710B820B930B60367A4E81057A
:10351000910558F48091000283FD11C08091020250
:10352000857569F481E080932B0210923502109228
:10353000360210923702109238021092390210911E
:103540003A021123C9F1123019F480E00E94880D6B
:1035500080913B0290913C02A0913D02B0913E02CD
:10356000892B8A2B8B2B51F40E94800360933B02A2
:1035700070933C0280933D0290933E020E94800330
:10358000C0903B02D0903C02E0903D02F0903E02A1
:10359000DC01CB018C199D09AE09BF09123009F07D
:1035A000E0C304E813E020E030E0843FE1E09E0760
:1035B000A105B10508F0D9C380913F02882331F0FD
:1035C0004DE152E061E189E00E94C109809144022D
:1035D000882331F043E252E06EE08AE00E94C109A4
:1035E00080914902882331F049E252E060E18BE0AA
:1035F0000E94C10980914E02882331F04FE252E0CF
:103600006FE08CE00E94C109809153028823C9F1C8
:103610008091540290915502A0915602B0915702A8
:10362000892B8A2B8B2B69F40E94800360935402B0
:1036300070935502809356029093570281E00E9446
:10364000880D0E9480030091540210915502209130
:10365000560230915702601B710B820B930B65363B
:1036600071058105910568F080E00E94880D109237
:103670005302109254021092550210925602109268
:10368000570280915D02882309F419C160910902F3
:1036900070910A0280910B0290910C0220EA422E56
:1036A00026E8522E66246394712CA30192010E9495
:1036B000BE202FA338A749A75AA76B018C01EFA002
:1036C000F8A48090050290900602A0900702B090A6
:1036D0000802C501B401A30192010E94BE20290184
:1036E0001901C601D801B7FF07C0B095A095909504
:1036F00081959F4FAF4FBF4F8C01C501B40120EAA8
:1037000036E841E050E00E94BE2097FF07C0909548
:103710008095709561957F4F8F4F9F4F5B0187E438
:10372000898380E58A8383E58B83FE013496F7FEE7
:1037300009C08DE28C83EFA0F8A4F194E194F10824
:10374000FE01359624E6E216F1044CF0C70164E66A
:1037500070E00E948820605D60837C0131963AE0D1
:10376000E316F1044CF0C7016AE070E00E94882083
:10377000605D6083E82E319680E38E0D80838EE25B
:103780008183C80160E177E20E947420605D6283FA
:10379000C80168EE73E00E947420CB012AE030E09B
:1037A000B9010E947420805D8383C80164E670E0E3
:1037B0000E947420CB01B9010E947420805D848333
:1037C000C801B9010E947420482FCB01B9010E94A1
:1037D0007420805D8583405D46838CE287838F0102
:1037E00037FCDCC2085F1F4F44E6241631045CF04E
:1037F000C10164E670E00E948820605DD8016C938E
:103800001C010F5F1F4FBAE02B1631045CF0C101A1
:103810006AE070E00E948820605DF8016083282ED5
:103820000F5F1F4F80E3820DD8018C938EE21196BB
:103830008C93C50160E177E20E947420605DF8011D
:103840006283C50168EE73E00E947420CB012AE018
:1038500030E0B9010E947420805D8383C50164E675
:1038600070E00E947420CB01B9010E947420805D39
:103870008483C501B9010E947420482FCB01B9018E
:103880000E947420805D8583405D468380E287834B
:1038900083E28087C80109960E94FE05D8015196EF
:1038A0001C9210925D0210925E0210925F021092C2
:1038B000600210926102CE0101960E949A07109157
:1038C0005802112309F47CC00E9480036B017C0123
:1038D0008091590290915A02A0915B02B0915C02D2
:1038E0000097A105B105C1F4C0925902D0925A02C5
:1038F000E0925B02F0925C0210920D0210920E02B6
:1039000010920F021092100240E050E0BA01123003
:10391000F1F481E0809353028091590290915A0210
:10392000A0915B02B0915C02B701A601481B590B44
:103930006A0B7B0B123009F03AC2443FB1E05B07DF
:1039400061057105E8F184EF91E0A0E0B0E000913D
:1039500008011091090120910A0130910B01800F9B
:10396000911FA21FB31F481759076A077B0708F06A
:1039700022C2809111028823A9F080910D029091BA
:103980000E02A0910F02B091100246015701881A51
:10399000990AAA0ABB0AD501C401843F9140A10536
:1039A000B10570F081E00E94770D81E080931102F3
:1039B000C0920D02D0920E02E0920F02F09210021D
:1039C00080E090E0892B11F40C9470110E94FF01AB
:1039D000882311F40C9470110E9400000C94701153
:1039E0006FED71E08CEE93E00E941220892B21F4A0
:1039F00082E080934902C9CC6AED71E08CEE93E0DD
:103A00000E941220892B21F482E080933002BDCCE9
:103A100063ED71E08CEE93E00E941220892B21F47B
:103A200082E080932B02B1CC6EEC71E08CEE93E0DF
:103A30000E941220892B21F482E080935802A5CCA9
:103A40006AEC71E08CEE93E00E941220892B21F445
:103A500082E080933A0299CC64EC71E08CEE93E0C2
:103A60000E941220892B21F48091000283FF14C050
:103A70006FEB71E08CEE93E00E941220892B81F0B5
:103A80006BEB71E08CEE93E00E941220892B81F4A5
:103A900081E080935D0279CC82E08093170275CC3F
:103AA0008091000283FFECCF82E0809326026DCCF0
:103AB00065EB71E08CEE93E00E941220892B19F4E3
:103AC0000E94410D62CC6EEA71E08CEE93E00E94A0
:103AD0001220892B19F40E94A40757CC68EA71E0E0
:103AE0008CEE93E00E941220892B29F4F89414BEE6
:103AF0000C94003F4ACC6FE971E08CEE93E00E9499
:103B00001220892B09F041CC8091000283FD3DCC2D
:103B100082E08093170285E080931C0236CC6BE92B
:103B200071E08CEE93E00E942220892B69F06CE218
:103B300074E088E792E00E9412210E94110E87E84B
:103B400091E00E94B80921CC63E871E08CEE93E02B
:103B50000E942220892B09F418CC6CE274E087E8DB
:103B600092E00E9412210E94110E8FE691E0E9CFAF
:103B700088389341A105B10508F095C089E00E94FD
:103B8000A7028091040281FD4BCC4091030246FFC5
:103B900047CC80912102823009F042CC8091FF0114
:103BA0005091FE012091FD013091FC019CE7998329
:103BB000FE01329687FF05C09DE29A838195FE0142
:103BC000339684363CF091E3908364E60E9466204D
:103BD000892F31968A303CF06AE00E946620805D31
:103BE0008083892F3196805D80838EE28183852F4B
:103BF0006AE00E945A20905D92838CE7838347FF9E
:103C00002AC08FE684838CE6858384E7868382E7F7
:103C1000878385E6808780E2818784E382878F01BE
:103C2000045F1F4F80E3838723E2D8012D93CD01EA
:103C30000E94FE05F8011186CE0101960E949A07A6
:103C400080910402826080930402809103028F7B42
:103C500080930302E5CBDF012436E0F414962A308A
:103C600040F0822F6AE00E945A20805D8C93292FB9
:103C70001196205D2C938EE211968C9311978D01F5
:103C80000D5F1F4F832F6AE00E945A20905D1296AD
:103C90009C93CACF1596822F64E60E945A20805DBD
:103CA0008483292FDCCF89E00E94A70210921C0296
:103CB00010921D0210921E0210921F0210922002FA
:103CC000809104028D7FBFCF8C32F1E09F07A10568
:103CD000B10510F480E0DBCB803D37E09307A10510
:103CE000B10508F4D6CB287239F48C3F48E094072C
:103CF000A105B10508F4CACB80369940A105B105EC
:103D000050F580E00E944B05002341F080910302B2
:103D10008460809303020E94A40706C01330B9F0A8
:103D2000143079F01230B9F3109226021092270263
:103D3000109228021092290210922A021092210257
:103D4000A8CB6DE08FE092E00E94CA0DEDCF6FE04E
:103D50008FEF91E0F9CF80E00E944B051092260290
:103D6000EDCF00E911E020E030E080179107A207D5
:103D7000B30728F461E084E00E94A7021DCC60E054
:103D800084E00E94A70210923A0210923B02109225
:103D90003C0210923D0210923E020ECC075F1F4F74
:103DA0008DE2808722243324241835081DCD80E03D
:103DB00090E0DC01CCCD80E00E94770D80E00E9495
:103DC000770D80E00E94770D1092110210920D0283
:103DD00010920E0210920F021092100280ED97E0E6
:103DE000A0E0B0E08093080190930901A0930A013C
:103DF000B0930B01109258021092590210925A027D
:103E000010925B0210925C02DBCD009121020E94B5
:103E10008003C0902202D0902302E0902402F09010
:103E200025026C197D098E099F0961347F41810546
:103E3000910578F015FD04C080910202857549F066
:103E400083E0023011F00C94CC148093260210927F
:103E5000210217FD05C080910102877021E009F061
:103E600020E09091030220FB94F99093030292FBCF
:103E7000002700F9192F117080910202B82FB1703C
:103E800082FBAA27A0F984FBFF27F0F986FBEE2727
:103E9000E0F93091000233FB772770F96091D5018A
:103EA0005091D3014091D10193FBFF24F0F8F0121F
:103EB0002DC095FBFF24F0F82F1128C09695917026
:103EC000911324C081FB992790F9B9131FC083FB7C
:103ED000992790F99A131AC085FB992790F9F9133D
:103EE00015C087FB882780F98E1310C0329531707A
:103EF00073130CC08091D601861308C08091D40141
:103F0000851304C08091D201481721F180910302EA
:103F100000FB83F920FB85F910FB81F980930302F4
:103F200080910202B0FB81F9A0FB83F9F0FB85F9D7
:103F3000E0FB87F9809302028091000270FB84F914
:103F4000809300026093D6015093D4014093D20134
:103F50000E94390A11E005E032E0F32E86E992E092
:103F60000E94F301892B09F4C8C886E992E00E94F7
:103F7000D1019091D001E92FF0E0EA53FE4F8A3051
:103F800039F08D3029F0882319F0993008F4B0C841
:103F9000108266E571E086EC91E00E941220892B88
:103FA00011F00C94B8170E94390A1092D001D6CFA4
:103FB00085E491E090933403809333038091C001B2
:103FC0009091C1018353934071F4E0914603F091C5
:103FD00047039081809148038095892380831092C4
:103FE000C1011092C0010895FC0188279927E89427
:103FF00021912032E9F3293010F02E30C8F32B3212
:1040000041F02D3239F4689404C00E943C20820FA4
:10401000911D219120532A30C0F31EF49095819573
:104020009F4F0895FB01DC018D91059080190110CF
:10403000D9F3990B0895FB01DC0105900D92002046
:10404000E1F70895FB0155915523A9F0BF01DC016B
:104050004D9145174111E1F759F4CD01059000202C
:1040600049F04D9140154111C9F3FB014111EFCFCA
:1040700081E090E0019708957AE0979F902D879FC7
:10408000802D910D11240895F999FECF92BD81BD27
:10409000F89A992780B50895262FF999FECF1FBA6F
:1040A00092BD81BD20BD0FB6F894FA9AF99A0FBE61
:1040B00001960895991B79E004C0991F961708F09E
:1040C000961B881F7A95C9F78095089587FB082E5F
:1040D000062687FD819567FD61950E945A200EF4A2
:1040E000919507FC81950895AA1BBB1B51E107C060
:1040F000AA1FBB1FA617B70710F0A61BB70B881F78
:10410000991F5A95A9F780959095BC01CD01089506
:1041100097FB072E16F4009407D077FD09D00E9474
:10412000742007FC05D03EF4909581959F4F08952B
:10413000709561957F4F0895A1E21A2EAA1BBB1BB3
:10414000FD010DC0AA1FBB1FEE1FFF1FA217B30763
:10415000E407F50720F0A21BB30BE40BF50B661F79
:10416000771F881F991F1A9469F76095709580953D
:1041700090959B01AC01BD01CF010895052E97FBE1
:104180001EF400940E94D52057FD07D00E949C2069
:1041900007FC03D04EF40C94D520509540953095F3
:1041A00021953F4F4F4F5F4F0895909580957095A3
:1041B00061957F4F8F4F9F4F0895EE0FFF1F059022
:1041C000F491E02D0994FB01DC0102C001900D92F5
:1041D00041505040D8F708956817790768F4FB01FB
:1041E000DC01E40FF51FA40FB51F02C002900E9270
:1041F00041505040D8F708950C94E320FC01819180
:10420000861721F08823D9F7992708953197CF0190
:104210000895FB01DC018D91019080190110D9F303
:10422000990B0895FB01DC0101900D920020E1F74C
:104230000895FB0151915523A9F0BF01DC014D9177
:1042400045174111E1F759F4CD010190002049F0E3
:104250004D9140154111C9F3FB014111EFCF81E0B0
:1042600090E00197089511E0C6E4D1E004C0FE019A
:104270000E94DD202196C734D107C9F7F894FFCFFB
:10428000FFFFFFFFFFFFFFFFD0070000000001005E
:10429000020009050412110E100F081306076061D1
:1042A00066017071760230313640414650515600F9
:1042B00000000035029501C2018702F301D101E53A
:1042C0000100000000A50395014105A403010417A6
:1042D000048C034F4B000D0A003E002B434D544904
:0A42E0003A002B434D47523A00000C
:00000001FF
