:100000000C9418010C9440010C9440010C945E0F68
:100010000C945E0F0C945E0F0C9440010C94400104
:100020000C9440010C9440010C9440010C9440014C
:100030000C9440010C9440010C9440010C9440013C
:100040000C94140F0C9440010C94E20E0C94BC0E12
:100050000C9440010C9440010C9440010C9440011C
:100060000C9440010C9440010000000800020100C3
:1000700000030407000000000000000041542B436F
:100080004D4744413D2244454C20414C4C220041C7
:1000900054004252532D436C6F7365642023004219
:1000A00052532D416C61726D202300737461727420
:1000B0005F616300686F726E006C696768740067E7
:1000C00070730073746172740073746F7000706F7A
:1000D000727400626F783300626F783200626F78FA
:1000E00031006368697564690061707269006777DF
:1000F00073007265736574007570646174650041A6
:10010000542B434D47443D0041542B434D47523DF2
:10011000004E756D65726F205B325D2053616C76A9
:1001200061746F21005B325D004E756D65726F20EA
:100130005B315D2053616C7661746F21005B315DD2
:1001400000537461727420414300526573657400FA
:10015000557064617465004750530053746F7000AC
:10016000537461727400475753004C696768740098
:10017000486F726E00436869756469004170726906
:1001800000426F7800536F7263696E656C6C690032
:10019000536574204F574E45522032303132373636
:1001A000004252532D456D657267656E6379202359
:1001B000004252532D54696D656F757420230042BF
:1001C0004F58203100424F58203200424F582033C0
:1001D00000504F52544F4E4500220041542B434D86
:1001E00047533D22000000000023002600290000A4
:1001F000000000250028002B00000000002400273C
:10020000002A0001020408102040800102040810A6
:10021000200102040810200404040404040404025D
:10022000020202020203030303030300D60F1A2093
:1002300011241FBECFEFD8E0DEBFCDBF11E0A0E09C
:10024000B1E0E4E0F3E402C005900D92AE3CB107EA
:10025000D9F724E0AEECB1E001C01D92A03AB2079C
:10026000E1F711E0C7E1D1E004C02197FE010E944F
:100270001F21C631D107C9F70E94E2100C947521E5
:100280000C940000AF92BF92CF92DF92EF92FF9258
:100290000F931F93CF93DF936C017B018B01040FAE
:1002A000151FEB015E01AE18BF08C017D10759F04A
:1002B0006991D601ED91FC910190F081E02DC6018C
:1002C0000995892B79F7C501DF91CF911F910F9186
:1002D000FF90EF90DF90CF90BF90AF900895FC011A
:1002E000538D448D252F30E0842F90E0821B930B9B
:1002F000541710F0CF96089501970895FC01918D41
:10030000828D981761F0A28DAE0FBF2FB11D5D9643
:100310008C91928D9F5F9F73928F90E008958FEFE5
:100320009FEF0895FC01918D828D981731F0828D99
:10033000E80FF11D858D90E008958FEF9FEF0895F0
:10034000FC01918D228D892F90E0805C9F4F821B54
:1003500091098F739927089586EF92E00E94A0017A
:1003600021E0892B09F420E0822F089580E090E0BD
:10037000892B29F00E94AC0181110C940000089592
:10038000FC01A48DA80FB92FB11DA35ABF4F2C910A
:10039000848D90E001968F739927848FA689B78901
:1003A0002C93A089B1898C91837080648C93938DF8
:1003B000848D981306C00288F389E02D80818F7D9B
:1003C00080830895EF92FF920F931F93CF93DF9353
:1003D000EC0181E0888F9B8D8C8D98131AC0E88981
:1003E000F989808185FF15C09FB7F894EE89FF8950
:1003F0006083E889F98980818370806480839FBFEE
:1004000081E090E0DF91CF911F910F91FF90EF90ED
:100410000895F62E0B8D10E00F5F1F4F0F731127FD
:10042000E02E8C8D8E110CC00FB607FCFACFE88938
:10043000F989808185FFF5CFCE010E94C001F1CFFF
:10044000EB8DEC0FFD2FF11DE35AFF4FF0829FB7AC
:10045000F8940B8FEA89FB8980818062CFCF682F67
:1004600086EF92E00C94E201CF93DF93EC01888D4C
:100470008823B9F0AA89BB89E889F9898C9185FD1F
:1004800003C0808186FD0DC00FB607FCF7CF8C91AD
:1004900085FFF2CF808185FFEDCFCE010E94C001A4
:1004A000E9CFDF91CF91089590E0FC01E859FF4F2B
:1004B0002491FC01ED5FFD4F3491FC01E95EFD4F9D
:1004C000E491EE23C9F0222339F0233001F1A8F49E
:1004D000213019F1223029F1F0E0EE0FFF1FE15138
:1004E000FE4FA591B4918FB7F894EC91611126C09D
:1004F00030953E233C938FBF08952730A9F02830D4
:10050000C9F0243049F7809180008F7D03C080912D
:1005100080008F7780938000DFCF84B58F7784BD94
:10052000DBCF84B58F7DFBCF8091B0008F77809338
:10053000B000D2CF8091B0008F7DF9CF3E2BDACFC3
:1005400061E0809144040C945402CF93DF9390E0D7
:10055000FC01ED5FFD4F2491895E9D4FFC0184916C
:100560008823D1F090E0880F991FFC01E750FE4FDF
:10057000A591B491FC01E151FE4FC591D491611157
:100580000EC09FB7F8948C91E22FE0958E238C9348
:100590002881E223E8839FBFDF91CF9108958FB731
:1005A000F894EC91E22BEC938FBFF6CF3FB7F89421
:1005B00080911A0290911B02A0911C02B0911D0221
:1005C00026B5A89B05C02F3F19F00196A11DB11DAE
:1005D0003FBFBA2FA92F982F8827BC01CD01620FEA
:1005E000711D811D911D42E0660F771F881F991FA5
:1005F0004A95D1F708958F929F92AF92BF92CF9272
:10060000DF92EF92FF924B015C010E94D6026B01D8
:100610007C010E94D6026C197D098E099F09683EF3
:10062000734081059105A8F321E0821A9108A10881
:10063000B10888EEC80E83E0D81EE11CF11C8114BD
:100640009104A104B10429F7FF90EF90DF90CF90BF
:10065000BF90AF909F908F9008952FB7F8946091BE
:1006600016027091170280911802909119022FBF03
:10067000089520912002309121022817390771F442
:1006800090911E0280911F02981741F0E0911E0286
:10069000F0E0EB52FE4F808190E008958FEF9FEFE6
:1006A00008950895EF92FF920F931F93CF93DF93D6
:1006B000DC015C96ED90FC905D97E114F10479F417
:1006C00081E090E013969C938E93129790E080E0E7
:1006D000DF91CF911F910F91FF90EF900895519668
:1006E000ED91FC91529750968C915097982F909540
:1006F0000FB75E962C915E97122F127021FD6095B8
:10070000F8942081112319F1282B2083E7012197E8
:10071000F1F728E0462F50E0308160FF1AC0382BF7
:100720003083E7012197F1F7BA017595679521505C
:1007300089F7112381F08081892380830FBF5C9624
:100740008D919C910197F1F781E090E0C1CF292331
:10075000DCCF3923E5CF9081892BEFCF0F931F9307
:10076000CF93DF938C01D0E0C0E0F801EC0FFD1FC8
:100770006491662341F083E993E00E945203892B40
:1007800011F02196F2CFCE01DF91CF911F910F9101
:10079000089520912002309121022817390761F431
:1007A00080911F0220911E0290E0805C9F4F821B6F
:1007B00091098F739927089590E080E00895209122
:1007C00020023091210228173907B9F490911E02B6
:1007D00080911F02981789F0E0911E02F0E0EB5221
:1007E000FE4F808120911E0230E02F5F3F4F2F731C
:1007F000332720931E0290E008958FEF9FEF089516
:100800004F925F926F927F928F929F92AF92BF9220
:10081000CF92DF92EF92FF924C016B010E942D0369
:100820002B013C01B12CA12C83E993E00E94C90368
:10083000892B69F40E942D036419750986099709AB
:10084000681579058A059B0510F4A895EDCF83E915
:1008500093E00E94C903892B01F10E942D034B01F3
:100860005C01F12CE12CA89583E993E00E94C90377
:10087000892B41F083E993E00E94DF030E942D035E
:100880004B015C010E942D03681979098A099B09B3
:100890006C157D058E059F0530F3FF90EF90DF907E
:1008A000CF90BF90AF909F908F907F906F905F9010
:1008B0004F9008954F925F926F927F929F92AF9266
:1008C000BF92CF92DF92EF92FF920F931F93CF933D
:1008D000DF938C016B01E42E922E009721F0672BA1
:1008E00011F0FC0110820E942D032B013C01D0E08D
:1008F000C0E0F12C5601F1E0AF1AB108A89583E9E8
:1009000093E00E94C903892B71F083E993E00E9470
:10091000DF03F11015C0FF24F3948E11F12C0E9417
:100920002D032B013C010E942D03641975098609D2
:100930009709623371058105910500F3F12C0AC016
:10094000891119C00115110529F0CD2819F0C00F22
:10095000D11F18828F2DDF91CF911F910F91FF90A2
:10096000EF90DF90CF90BF90AF909F907F906F906F
:100970005F904F9008950115110589F2CA15DB05A6
:1009800074F6F801EC0FFD1F80832196C8CF90E02C
:1009900080E008958EBD00000DB407FEFDCF8EB53A
:1009A0000895CF93C82F682F86E00E9454026C2FC1
:1009B00087E0CF910C945402CF92DF92EF92FF9296
:1009C0003091600237FD05C080916102877021E09F
:1009D00009F020E04091630220FB44F94093630258
:1009E00042FB992790F9892F90E0B0E0A0E0BB2767
:1009F0008695B795AA2799278827417050E070E01F
:100A000060E0EDE1440F551F661F771FEA95D1F7AF
:100A1000842B952BA62BB72B40913102842B409130
:100A2000620240FBCC24C0F8D12CF12CE12CFCE17B
:100A3000CC0CDD1CEE1CFF1CFA95D1F78C299D29EE
:100A4000AE29BF2942FBCC24C0F8D12CF12CE12CDB
:100A50005BE1CC0CDD1CEE1CFF1C5A95D1F78C29F8
:100A60009D29AE29BF2944FBCC24C0F8D12CF12C00
:100A7000E12C6AE1CC0CDD1CEE1CFF1C6A95D1F761
:100A80008C299D29AE29BF2946FB442740F950E017
:100A900070E060E0E9E1440F551F661F771FEA959B
:100AA000D1F7842B952BA62BB72B33FB442740F98A
:100AB00050E070E060E0742F662755274427842BB0
:100AC000952BA62BB72B30913502A32B30913302F7
:100AD000932B30E050E040E06EE1220F331F441FC3
:100AE000551F6A95D1F7822B932BA42BB52B80939E
:100AF000D0019093D101A093D201B093D301FF9084
:100B0000EF90DF90CF900895CF93DF93D82FC92F28
:100B10000E94DC044091D0015091D1016091D2013A
:100B20007091D301ED2FFC2F2CE130E0DB01CA01E5
:100B3000022E04C0B695A795979587950A94D2F78B
:100B40008F708A3058F4805D8193245031092C3F96
:100B50008FEF380759F7DF91CF910895895CF4CF73
:100B60004F925F926F927F928F929F92AF92BF92BD
:100B7000CF92DF92EF92FF920F931F93CF93DF9369
:100B80004C017B016A010E942D032B013C01B12C19
:100B9000A12C83E993E00E94C903892B69F40E9488
:100BA0002D036419750986099709681579058A0561
:100BB0009B0510F4A895EDCF83E993E00E94C9034B
:100BC000892BD1F1F60101900020E9F731978F01CF
:100BD0000C191D090E942D034B015C01D0E0C0E0FF
:100BE00011272701712C612CA89583E993E00E94BD
:100BF000C903892BB1F083E993E00E94DF03F6017A
:100C0000EC0FFD1F9081981306C02196C017D107E5
:100C100021F481E012C0D0E0C0E00E942D034B011E
:100C20005C010E942D03681979098A099B096415E2
:100C3000750586059705C0F280E0DF91CF911F9181
:100C40000F91FF90EF90DF90CF90BF90AF909F906B
:100C50008F907F906F905F904F900895FB0101906F
:100C60000020E9F73197AF01461B570BDC01ED91EE
:100C7000FC910280F381E02D0994CF93DF930E94D1
:100C8000AE03EC0165E671E083E993E00E942E0675
:100C90008C0F9D1FDF91CF9108958F929F92AF92FD
:100CA000BF92EF92FF920F931F93CF93DF93CDB735
:100CB000DEB7A1970FB6F894DEBF0FBECDBF7C01A3
:100CC000FA01CB0119A2223008F42AE08E010F5D4F
:100CD0001F4F822E912CB12CA12CBF01A501940194
:100CE0000E94DE20F901CA016A300CF5605DD8016E
:100CF0006E938D01232B242B252B79F790E080E038
:100D0000109721F0BD01C7010E942E06A1960FB6D3
:100D1000F894DEBF0FBECDBFDF91CF911F910F9131
:100D2000FF90EF90BF90AF909F908F900895695C77
:100D3000DECFCF92DF92EF92FF92CF93DF930E94AC
:100D4000DC0483E20E942F02C0905F020C2C000C96
:100D5000DD08EE08FF082AE0B701A601F7FE0BC088
:100D60008DE20E942F0244275527BA014C195D09D4
:100D70006E097F092AE086EF92E00E944D068EE21E
:100D80000E942F0240915E0250E070E060E02AE095
:100D900086EF92E00E944D0683E20E942F0240916E
:100DA0005D0250E070E060E02AE086EF92E00E9491
:100DB0004D068EE20E942F0240915C0250E070E0EE
:100DC00060E02AE086EF92E00E944D0683E20E94F6
:100DD0002F02CCE1D0E08091D0019091D101A0917F
:100DE000D201B091D3010C2E04C0B695A79597956A
:100DF00087950A94D2F78F708A30A0F4805D0E94A4
:100E00002F022497CC3F8FEFD80729F765E671E0D2
:100E100086EF92E0DF91CF91FF90EF90DF90CF903F
:100E20000C942E06895CEBCFCF93DF93D0E0C0E02B
:100E3000009731F0BC0183E993E00E942E06EC019B
:100E400065E671E083E993E00E942E068C0F9D1FFA
:100E5000DF91CF9108950F931F93CF93DF9320914C
:100E60004B04211107C0C0E08C2FDF91CF911F915F
:100E70000F9108958B01EC018BED91E00E94AE0380
:100E800068ED72E083E993E00E942E0689ED91E01F
:100E90000E943D0648E651E064EF71E088EE93E081
:100EA0000E94B0058823F9F262E370E088EE93E0D7
:100EB0000E9400042097D1F0CE010E943D066AE115
:100EC00083E993E00E9452034AE651E068E873E147
:100ED00088E59BE10E94B005C82F882321F262E3D8
:100EE00070E088EE93E00E940004BECFC8010E942B
:100EF0001407E5CF2091D802222329F0BC0190E00D
:100F000080E00C942B070895CF93DF93CDB7DEB725
:100F10002A970FB6F894DEBF0FBECDBF83E2898358
:100F2000CE0102960E9484051A86CE0101960E9487
:100F30007A072A960FB6F894DEBF0FBECDBFDF91B9
:100F4000CF9108958F929F92AF92BF92EF92FF92AE
:100F50000F931F93CF93DF93F82EE62E082F10E008
:100F600025E0829FE0011124CE58DD4F89809A80D0
:100F7000AB80BC8081149104A104B10489F40E9467
:100F80002D0369837A838B839C83DF91CF911F919B
:100F90000F91FF90EF90BF90AF909F908F9008952A
:100FA0000E942D03DC01CB0188199909AA09BB090C
:100FB00061E08C3221E09207A105B105F0F08039A3
:100FC00021E09207A105B10570F461E08E2DDF915B
:100FD000CF911F910F91FF90EF90BF90AF909F9096
:100FE0008F900C94540260E08C3B9240A105B105B7
:100FF00030F48E2D0E94540260E085E0E8CF8E2D03
:101000000E94540260E085E00E9454029881923070
:1010100039F480916302817026E0F2121DC0F1F074
:1010200085E0809FF001819FF00D1124EE58FD4F67
:1010300010821182128213821482923009F0A5CF9D
:10104000DF91CF911F910F91FF90EF90BF90AF90E4
:101050009F908F900C948407882311F380916302F2
:10106000846080936302DCCFCF92DF92EF92FF9295
:101070000F931F93CF93C82F0E942D036B017C0108
:101080000C2F10E025E0C29FF0011124EE58FD4F17
:1010900081819281A381B481892B8A2B8B2B59F476
:1010A000C182D282E382F4828091D4018330E0F461
:1010B0008F5F8093D40185E0809FF001819FF00DC8
:1010C0001124EE58FD4F81819281A381B481A70143
:1010D0009601281B390B4A0B5B0BDA01C901883CCE
:1010E0009105A105B10558F461E085E0CF911F910C
:1010F0000F91FF90EF90DF90CF900C9454028835C1
:1011000032E09307A105B10528F483E1C11182E122
:1011100061E0ECCF8C3B42E09407A105B10528F4D7
:1011200083E1C11182E160E0E1CF20916002322FC2
:10113000387023FD12C0CC23D1F0883E53E09507D0
:10114000A105B10560F481E0CF911F910F91FF904F
:10115000EF90DF90CF900C94D104CC2341F08C34ED
:1011600044E09407A105B10510F480E0EDCF2872AA
:1011700059F4C1117DC0803243E09407A105B10547
:1011800080F461E088E0B2CF203249F4C111C8C0D8
:10119000883E43E09407A105B10518F4D4CFC111EE
:1011A0006EC0843145E09407A105B105F0F248EB2B
:1011B0005BE060E070E06EC0332321F160E088E026
:1011C0000E94540260E085E00E9454028091600217
:1011D0008D7F8093600280917C02853019F486E0D7
:1011E00080937C021092D40185E0809FF001819F62
:1011F000F00D1124EE58FD4F1082118212821382DD
:10120000148286C08091D4018330D0F485E0809F21
:10121000F001819FF00D1124EE58FD4F11821282D2
:101220001382148282E0C11101C081E095E0909F99
:10123000F001919FF00D1124EE58FD4F808368C09E
:1012400060E088E00E94540260E085E00E94540261
:1012500080916302846080936302C1110E948407BD
:101260001092D401809160028D7F80936002BCCF88
:10127000803B54E09507A105B10508F482CF843A7C
:1012800056E09507A105B10508F46FCF48E45DE08D
:1012900060E070E084179507A607B70708F08CCFC9
:1012A0002832B1F560E088E00E94540260E085E0F9
:1012B0000E945402CC2389F082E080938102C09284
:1012C0008202D0928302E0928402F09285028091A1
:1012D0007C02811102C00E9484071092D401809187
:1012E00060028D7F8093600285E0809FF001819F86
:1012F000F00D1124EE58FD4F1082118212821382DC
:10130000148280917C02853019F486E080937C02FF
:10131000CF911F910F91FF90EF90DF90CF900895A4
:10132000883755E09507A105B10508F40CCFA7CF84
:101330002091D802222321F070E060E00C942B076A
:1013400008958F929F92AF92BF92DF92EF92FF9299
:101350000F931F93CF93DF93D62E7A01082F10E0BF
:1013600025E0829FE0011124CE58DD4F89819A81CA
:10137000AB81BC81892B8A2B8B2B49F40E942D03D6
:1013800069837A838B839C8381E08093B3020E947C
:101390002D0325E0209FF001219FF00D1124EE5830
:1013A000FD4F81809280A380B480DC01CB0188193D
:1013B0009909AA09BB0961E0843F21E09207A105D0
:1013C000B10530F080329340A105B10578F460E0BA
:1013D0008D2DDF91CF911F910F91FF90EF90DF90B6
:1013E000BF90AF909F908F900C9454028081823078
:1013F00019F4C7010E94980960E08D2D0E945402E3
:1014000085E0809FF001819FF00D1124EE58FD4F83
:1014100010821182128213821482DF91CF911F9168
:101420000F91FF90EF90DF90BF90AF909F908F90C3
:1014300008950F931F930091450410914604209145
:1014400047043091480440E052E16AE770E080E0F0
:10145000041715072607370740F4769567955795C3
:1014600047958F5F8630A1F787E0982F906A969511
:10147000809581709CBD8DBD60E0809144041F917A
:101480000F910C945402CF93C82F0E94190A83E045
:101490000E94CA048C2F0E94CA0480E00E94CA04E1
:1014A000C82F0E94A0028C2FCF910895FF920F9316
:1014B0001F93CF93DF93C82FF62E172F042F0E9470
:1014C000190A82E00E94CA048C2F0E94CA04CF2D00
:1014D000D12F0C0F1D2F111DC017D10721F089919D
:1014E0000E94CA04F9CFDF91CF911F910F91FF9015
:1014F0000C94A0021F93CF93DF93182FD62FC42FE5
:101500000E94190A85E00E94CA04812F0E94CA0421
:101510008D2F0E94CA048C2F0E94CA04DF91CF91A4
:101520001F910C94A002CF92DF92EF92FF92CF9383
:10153000C82F482F60EE8FE00E947A0A0E942D0388
:101540006B017C012AE0C20ED11CE11CF11C0E943F
:101550002D036C157D058E059F0580F48EE00E949D
:10156000430A807EC813F3CF81E091E0892790E0A1
:10157000CF91FF90EF90DF90CF90089580E0F5CF6E
:10158000CF93DF93D82FC62F0E94190A82E00E94C2
:10159000CA048D2F0E94CA048C2F0E94CA04DF91B6
:1015A000CF910C94A002FF920F931F93CF93DF93E0
:1015B000C82FF62E172F042F0E94190A83E00E94CD
:1015C000CA048C2F0E94CA04CF2DD12F0C0F1D2FBF
:1015D000111DC017D10729F080E00E94CA04899329
:1015E000F8CFDF91CF911F910F91FF900C94A00243
:1015F000BF92CF92DF92EF92FF920F931F93CF9300
:10160000DF9300D000D01F92CDB7DEB78C01000F62
:10161000111F000F111FF801E05DFE4F45E0BE01F4
:101620006F5F7F4F81810E94D30A8A81C98098E0D1
:10163000C99E60011124282F30E055E0359527958B
:101640005A95E1F7C20ED31E0D2C000CEE08FF08D0
:1016500083FF20C092E0CC0CDD1CEE1CFF1C9A9591
:10166000D1F78370C80ED11CE11CF11CFE2CED2CAF
:10167000DC2CCC248B81C80ED11CE11CF11CFE2C6F
:10168000ED2CDC2CCC248C81C80ED11CE11CF11C6F
:101690006894F7F88D818F70B82EE8E081E090E0D3
:1016A000EB1528F1F801E05DFE4F80810E94430AAE
:1016B00083FF02C06894F6F8C092C802D092C902B3
:1016C000E092CA02F092CB02B092CC02005D1E4FB3
:1016D0004B2D60ED72E0F80182810E94D30A40E058
:1016E000F80163818CE20E947A0A90E080E00F901A
:1016F0000F900F900F900F90DF91CF911F910F914E
:10170000FF90EF90DF90CF90BF9008954F925F923F
:101710006F927F928F929F92AF92BF92CF92DF9201
:10172000EF92FF920F931F93CF93DF93CDB7DEB766
:1017300063970FB6F894DEBF0FBECDBFFC012481C6
:10174000293008F08DC05C0186E0E4E0F1E0DE01C4
:101750001E9601900D928A95E1F73E01FEE06F0E14
:10176000711C8E010C5E1F4FF301C190D1903F019F
:101770007601EE0CFF1CF701EC0DFD1DE85CFE4F41
:101780008080882D0E94430A83FD96C0F5019480D5
:10179000F8E0F91508F464C0F50100811181228197
:1017A0003381B901A801442777FD43955527662762
:1017B0007727D901C80188279927AA27B07444241C
:1017C0004A94542C642C7FE1772E411106C04424A6
:1017D0004A9467E0562E612C712C04211521262194
:1017E0003721442309F43FC00C831B83890122273E
:1017F0003327402F440F440F440F407E502F537027
:101800005860452B4A8355E0169507955A95E1F7A0
:101810000983892B8A2B8B2BA1F1892D80648D83E1
:10182000492D50E0B501685F7F4FCE0106960E94BA
:10183000252145E0490DF701EC0DFD1DE85CFE4F4B
:10184000BE016F5F7F4F81810E94560A48E068E0C9
:10185000882D0E947A0A882D0E94430A807799F089
:1018600084E090E012C0A80123E0569547952A95A0
:10187000E1F749830295000F007E0A831C821B82D8
:10188000C8CF892DCCCF90E080E063960FB6F89456
:10189000DEBF0FBECDBFDF91CF911F910F91FF90A3
:1018A000EF90DF90CF90BF90AF909F908F907F9000
:1018B0006F905F904F9008956016710609F054CFB5
:1018C00082E090E0E2CF0F931F93CF93DF93CDB7E9
:1018D000DEB767970FB6F894DEBF0FBECDBF8E019F
:1018E000085F1F4F087F8BEE92E0A0E0B0E0F801A8
:1018F00080839183A283B38388E0848310861186DA
:101900001286138614861686178680E88587C80196
:101910000E94860BC8010E94860BC8010E94860B9C
:1019200067960FB6F894DEBF0FBECDBFDF91CF91A3
:101930001F910F910895E8ECF2E046EB52E060E071
:1019400070E0408351836283738392E09483808745
:101950001186CF010C94860B46EC51E060E070E0FC
:101960004093C8025093C9026093CA027093CB029D
:1019700094E09093CC02813089F080E01092D10203
:101980001092D0028093D3028093D20288EC92E02E
:101990000E94860B88EC92E00C94860B82E5EECFD9
:1019A000E8ECF2E04AE352E060E070E0408351830B
:1019B0006283738394E0948391E1908793EF91879E
:1019C00082878FE38387CF010E94860B88EC92E0A9
:1019D0000E94860B88EC92E00C94860B8F929F926B
:1019E000AF92BF92CF92DF92EF92FF921F93CF936D
:1019F000DF93CDB7DEB7A0970FB6F894DEBF0FBE6A
:101A0000CDBF4B015C010E942D036B017C0119824B
:101A100010E00E942D036C197D098E099F0968153D
:101A200079058A059B0508F045C0A89583E993E0F0
:101A30000E94C903892B69F3A89583E993E00E946A
:101A4000DF03E12F1F3150F090E1FE017196DE01BE
:101A5000119601900D929A95E1F7EFE011E01E0FBB
:101A600021E030E02C0F3D1F2E0F311DF901808346
:101A7000E1E0F0E0EC0FFD1FE10FF11D10826AE6DE
:101A800071E0CE0101960E945B21892B79F281E001
:101A9000A0960FB6F894DEBF0FBECDBFDF91CF91F9
:101AA0001F91FF90EF90DF90CF90BF90AF909F90ED
:101AB0008F90089580E0ECCFBF92CF92DF92EF92AB
:101AC000FF920F931F93CF93DF93CDB7DEB7A2970B
:101AD0000FB6F894DEBF0FBECDBF0E94190A80EC8E
:101AE0000E94CA040E94A0026AE070E080E090E0D8
:101AF0000E94FB028E010F5F1F4F8EE0F8011192D2
:101B00008A95E9F74EE0B80180E30E94560A4EE05C
:101B1000B80180E40E94560A4EE0B80180E50E94B8
:101B2000560A60E080E60E94C00A60E080E70E94FA
:101B3000C00A63EA8BE20E94C00A44E067E680E6DE
:101B40000E947A0A41E067E680E70E947A0A8CE008
:101B5000EAE0F1E0DE011F9601900D928A95E1F72F
:101B60006E01FFE0CF0ED11CF12CE12C98E0B92ED4
:101B7000F601019111916F0180E80E94930A892B6F
:101B800061F40230110509F47FC058F50115110503
:101B900009F480C00130110579F180E80E94930AB0
:101BA000892B61F460E08AE20E94C00A60EF89E25A
:101BB0000E94C00A66E888E20E94C00A80E00E9493
:101BC000930AA2960FB6F894DEBF0FBECDBFDF9189
:101BD000CF911F910F91FF90EF90DF90CF90BF902A
:101BE00008950430110509F453C008F44FC00530BE
:101BF000110599F688E101C084E0F1E0EF16F104E7
:101C000009F04AC01E8E1D8EBC8E1B8E44E0BE01A4
:101C1000655E7F4F0E94560A8FEFE81AF80A96E039
:101C2000E916F10409F0A4CF18A21F8E81E090E01C
:101C30009AA389A38E01015E1F4F6E01E3E2CE0ECF
:101C4000D11C88E0B82EF801E190F1908F0180E876
:101C50000E94930A892B09F0A0CF1E8E1D8EBC8E88
:101C60001B8EE114F104E9F0EA94EF2809F095CF16
:101C700084E244E0BE01655E7F4F0E94560A0C1567
:101C80001D0509F48ACFDFCF88E0B7CF80E1B5CF5B
:101C900084E1B3CF80E0B1CF1B8E1C8E1E8E1D8ED3
:101CA000B5CF80E2E6CF0F931F93CF93DF93CDB7ED
:101CB000DEB768970FB6F894DEBF0FBECDBF062F14
:101CC000BC01CE0101960E945D2010E081E090E011
:101CD0008C0F9D1F800F911F0E948405FE01E00F55
:101CE000F11F1186CE0101960E947A0768960FB601
:101CF000F894DEBF0FBECDBFDF91CF911F910F9142
:101D00000895FF920F931F93CF93DF93EC01F62E6C
:101D100008811981C8010E948620F81621F06F2DD4
:101D2000C8010E948E20CE01DF91CF911F910F91AB
:101D3000FF900895FF920F931F93CF93DF9381E05D
:101D40008093B30208ED12E0D0E0C0E0F801F1901A
:101D50008F01CE010E948620F81621F06F2DCE0152
:101D60000E948E202196CE31D10581F7DF91CF914F
:101D70001F910F91FF9008951F920F920FB60F922F
:101D800011242F933F934F935F936F937F938F9380
:101D90009F93AF93BF93EF93FF9386EF92E00E94E0
:101DA000C001FF91EF91BF91AF919F918F917F9172
:101DB0006F915F914F913F912F910F900FBE0F90B8
:101DC0001F9018951F920F920FB60F9211242F9308
:101DD0008F939F93EF93FF93E0910603F091070396
:101DE0008081E0910C03F0910D0382FD1BC0908176
:101DF00080910F038F5F8F7320911003821741F042
:101E0000E0910F03F0E0EA50FD4F958F80930F03B0
:101E1000FF91EF919F918F912F910F900FBE0F9097
:101E20001F9018958081F4CF1F920F920FB60F92DA
:101E300011242F933F938F939F93AF93BF938091E0
:101E4000160290911702A0911802B09119023091D8
:101E5000150223E0230F2D3758F50196A11DB11D62
:101E6000209315028093160290931702A0931802F4
:101E7000B093190280911A0290911B02A0911C024A
:101E8000B0911D020196A11DB11D80931A0290937D
:101E90001B02A0931C02B0931D02BF91AF919F91B2
:101EA0008F913F912F910F900FBE0F901F9018951B
:101EB00026E8230F0296A11DB11DD2CF1F920F92CB
:101EC0000FB60F9211242F933F934F935F936F930D
:101ED0007F938F939F93AF93BF93EF93FF93E09183
:101EE0002002F0912102309749F0A685B7858585BB
:101EF000968D91FF14C09C918923A1F4FF91EF91DD
:101F0000BF91AF919F918F917F916F915F914F9111
:101F10003F912F910F900FBE0F901F9018959C919D
:101F2000892361F7A389B4899C9185898095892348
:101F30008C93868997890197F1F7608D718DA685BD
:101F4000B785558538E020E0CB010197F1F7822F66
:101F500090E095958795282F4C91452309F02068AE
:101F6000315091F7868D81FD209580911F0290E080
:101F700001968F73992730911E02381799F0A0911E
:101F80001F02B0E0AB52BE4F2C9380931F02828D94
:101F9000938D0197F1F7A389B4898C919589892B49
:101FA0008C93ACCF868D8160868FF1CFCF931092CA
:101FB000F9021092F80288EE93E0A0E0B0E080937E
:101FC000FA029093FB02A093FC02B093FD0225E479
:101FD00031E03093F7022093F60225EC30E03093A5
:101FE00003032093020324EC30E030930503209395
:101FF000040320EC30E0309307032093060321EC28
:1020000030E0309309032093080322EC30E0309352
:102010000B0320930A0326EC30E030930D0320934A
:102020000C0310920F0310921003109211031092E0
:102030001203109296031092950380939703909346
:102040009803A0939903B0939A0387E591E0909346
:102050009403809393031092AA031092A903109201
:10206000AC031092AB031092AE031092AD0310922A
:10207000B0031092AF036091B1036E7F6D7F6093E8
:10208000B1036695617081E0682783E00E94540285
:1020900061E083E00E94A502E6E0F2E0E491E093D3
:1020A000A303EAE1F2E0E491F0E0EE0FFF1FE1515B
:1020B000FE4F859194919093A5038093A40360E0D3
:1020C00082E00E94A5028091B10381FD04C061E01D
:1020D00082E00E94540282E080939F03E5E0F2E0F8
:1020E000E491E093A003E9E1F2E0E491F0E0EE0F87
:1020F000FF1FEB51FE4F859194919093A203809323
:10210000A10310924B0483EB93E090934A048093D5
:102110004904CFB7F8948091B203811127C0E1E25E
:10212000F2E08491EDE0F2E09491E82FF0E0EE0F20
:10213000FF1FE750FE4FA591B491EC91E92321F4E4
:1021400061E08AE00E94540261E08AE00E94A502F8
:102150008CB580618CBD8CB580648CBD61E08DE0F8
:102160000E94A50261E08BE00E94A5028091B2036B
:102170008F5F8093B203CFBF8AE08093440480E8EE
:1021800096E9A8E9B0E08093450490934604A093B3
:102190004704B093480461E08AE00E94A50261E030
:1021A000809144040E945402E4EBF3E084E494E060
:1021B00010861186128613863C968E179F07C1F7EC
:1021C000CF910895CF93DF93CDB7DEB7AA970FB61F
:1021D000F894DEBF0FBECDBF789484B5826084BD15
:1021E00084B5816084BD85B5826085BD85B581601B
:1021F00085BD80916E00816080936E001092810099
:102200008091810082608093810080918100816053
:102210008093810080918000816080938000809114
:10222000B10084608093B1008091B00081608093A0
:10223000B00080917A00846080937A0080917A0067
:10224000826080937A0080917A00816080937A0026
:1022500080917A00806880937A001092C100E091AA
:102260000603F091070382E08083E0910203F0917E
:1022700003031082E0910403F091050380E1808361
:1022800010920E03E0910A03F0910B0386E0808325
:10229000E0910803F0910903808180618083E091DF
:1022A0000803F0910903808188608083E09108032E
:1022B000F0910903808180688083E0910803F091A8
:1022C000090380818F7D80838CE0E6E1F1E0DE010F
:1022D000119601900D928A95E1F78E010F5F1F4FC5
:1022E0006E012DE0C20ED11CD801FD908D0161E080
:1022F0008F2D0E94A50260E08F2D0E945402C0160F
:10230000D10691F70E945C0D28EDE22E22E0F22E1C
:1023100010E000E0C8010E948620F70181937F0150
:102320000F5F1F4F0E311105A9F783E290E00E9465
:1023300086208093350287E390E00E948620809378
:102340003302B12CA12C04E813E0C12CD12C76016E
:10235000412C512C3201C8010E94862090E0B0E04F
:10236000A0E00A2C04C0880F991FAA1FBB1F0A9463
:10237000D2F7482A592A6A2A7B2AC80104960E9461
:10238000862090E0B0E0A0E00A2C04C0880F991FDE
:10239000AA1FBB1F0A94D2F7C82AD92AEA2AFB2A05
:1023A0000F5F1F4FF8E0AF0EB11C083823E0120793
:1023B00091F64092690250926A0260926B027092AA
:1023C0006C02C0926502D0926602E0926702F092BF
:1023D000680281E08093B30288E199E20FB6F89435
:1023E000A895809360000FBE90936000AE01415F9E
:1023F0005F4F5EA34DA38091C7028111FFC00E9471
:102400002D03613177428105910508F4F7C01092E0
:102410004B041092AE031092AD031092AC031092D5
:10242000AB031092AA031092A90382E490E0909368
:10243000B0038093AF0390919F03963108F047C09B
:102440002FE030E03093AA032093A90320E430E08A
:102450003093AC032093AB0327E230E03093AE031C
:102460002093AD032091680084E0983048F031E07B
:102470009E3008F430E081E001C0880F3A95EAF719
:10248000822B809368002DE630E0983050F02BE6E8
:1024900030E09E3030F02CE630E0963110F030E045
:1024A00020E03093A7032093A603292F30E0983033
:1024B00008F094C081E001C0880F9A95EAF78093F4
:1024C000A8038091AF039091B0030197F1F7809139
:1024D000AD039091AE03892B49F1E0912002F09178
:1024E000210283E0E339F80709F1309739F0A38935
:1024F000B4899C918589809589238C938091B103BF
:102500008E7F8093B10310921F0210921E0283E906
:1025100093E09093210280932002E091A603F09132
:10252000A70380819091A803892B808364EF71E0D9
:1025300080E090E00E94FB0283E993E00E94C903DF
:10254000892B31F064E170E088EC90E00E94000497
:1025500004E010E0DD24D3940150110909F44BC0CC
:1025600080914B04811147C0A8958FE890E00E94AC
:102570003D0668EE73E080E090E00E94EE0C882358
:1025800059F38EE0E2E2F1E0DE01119601900D9246
:102590008A95E1F7DE0111967D01A895F7018191F9
:1025A00091917F010E94140760ED77E080E090E058
:1025B0000E94EE0C882381F28DA09EA0E814F904FD
:1025C00061F7D0924B048CE790E00E943D0668E8EA
:1025D00073E180E090E00E94EE0CBECF9E3040F4AC
:1025E0002850310981E001C0880F2A95EAF767CFAA
:1025F0002E503109F7CF81E08093C7020E94190A5B
:1026000080EA0E94CA0480E00E94CA04182F0E9437
:10261000A00290E080E010FD04C011FF7DC181E0C8
:1026200090E00E94F80A892B09F076C10E942D03E0
:1026300060932202709323028093240290932502D8
:10264000209160022E7F209360028091C8029091B9
:10265000C902A091CA02B091CB02803333E0930744
:10266000A105B10509F464C308F063C08A3C52E0D7
:102670009507A105B10509F4CDC208F03DC0833727
:10268000F1E09F07A105B10509F4D9C38A3332E00F
:102690009307A105B10509F458C3823A9105A10534
:1026A000B10509F07EC09091D002983009F445C27E
:1026B00008F036C2923009F43CC28091D1028830D1
:1026C00009F450C208F041C2823009F447C29111A6
:1026D00068C0811166C01092E4031092F00310925A
:1026E000FC0310920804109214041092200410921B
:1026F0002C041092380455C08C3F42E09407A10589
:10270000B10509F4C7C28E3253E09507A105B105A2
:1027100009F497C2803F9240A105B10509F041C07C
:102720008091D0028C708830E1F582E0809377024E
:1027300038C0873BF3E09F07A105B10509F4C7C383
:10274000D0F4833A33E09307A105B10509F444C2FC
:10275000863B43E09407A105B10509F4A2C3813586
:102760009340A105B105E9F46091D302609335026D
:1027700083E290E0E3C2893BE3E09E07A105B10557
:1027800009F4B0C308F498C3893F23E09207A10578
:10279000B10509F459C382319440A105B10509F48A
:1027A000E9C18091E703813021F41092E70380931F
:1027B0009F028091F303813021F41092F303809300
:1027C000A4028091FF03813009F097C31092FF03A8
:1027D00081E08093A90280910B04813021F4109252
:1027E0000B048093AE0280911704813021F4109283
:1027F00017048093950280912304813099F51092FB
:10280000230490EA892E92E0992EA12CB12C80927B
:10281000C8029092C902A092CA02B092CB0288E08C
:102820008093CC0288E88093D0028093D10280EF1D
:102830008093D2028DE48093D3028FEF8093D402F1
:102840008093D5028093D6028093D70288EC92E0E1
:102850000E94860B88EC92E00E94860B88EC92E046
:102860000E94860B80913B04813021F410923B043E
:102870008093C2028091B703833029F41092B7038A
:1028800081E080939A022091C303213039F51092A0
:10289000C3033091600237FB882780F99091610271
:1028A000492F4170842B91FB442740F9842B92FBE4
:1028B000442740F9842B91F032FD10C093FD0EC0E7
:1028C00088EC90E0A0E0B0E08093000190930101DB
:1028D000A0930201B09303012093B8028091DB031F
:1028E0008130D1F41092DB0380917202811114C007
:1028F00080918602811110C090918102911105C3CF
:102900008091600283FD02C391E081E090937202A6
:1029100091E08927809386020E942D030091220274
:10292000109123022091240230912502601B710B2B
:10293000820B930B613E73498440910508F456C0A5
:102940008091600280FD52C00E945C0D0E942D03A8
:1029500060932202709323028093240290932502B5
:1029600080916002816080936002109231024090F9
:10297000690250906A0260906B0270906C028090C5
:10298000650290906602A0906702B090680204E829
:1029900013E0F12CE12C1A830983C301B2010E2C40
:1029A00004C095958795779567950A94D2F7CE01DF
:1029B00001960E94810EC80104969A838983C501FD
:1029C000B4010E2C04C095958795779567950A9468
:1029D000D2F7CE0101960E94810EB8E0EB0EF11CF9
:1029E0000F5F1F4F0838E3E01E07A9F680917202BF
:1029F000811145C080917702811141C080916002B0
:102A000086FD3DC090916202792F717092FB66271E
:102A100060F994FB552750F996FB442740F98091C3
:102A2000610284FB332730F9232F272770FB84F9B9
:102A300085FB332730F93627322B60FB85F986FB7F
:102A4000222720F92527322B50FB86F987FB2227E6
:102A500020F92427232B40FB87F98093610222234E
:102A600071F0957580916302992309F451C28460D5
:102A7000809363026BE08FE990E00E94530E0E9406
:102A80002D03E4EBF3E021E0C480D580E680F780FD
:102A90004B015C018C189D08AE08BF0875016401EC
:102AA00039EBC3163BE0D306E104F10408F01382CE
:102AB00041813081411133C2332329F0608771870E
:102AC0008287938721833C9644E0E434F407E1F65F
:102AD0000091810210916002002311F40C94551FA3
:102AE0000E942D03C0908202D0908302E090840265
:102AF000F09085026C197D098E099F091091600282
:102B0000613A7B4B8D40910510F40C94311F84E0A9
:102B1000023011F40C94511F809186020C94511FC5
:102B2000903279F0903809F0C8CD81E080930804A4
:102B3000C4CD81E08093E403C0CD81E08093F003B5
:102B4000BCCD81E08093FC03B8CD803279F0803831
:102B500009F0BDCD81E08093380423CE81E08093DD
:102B600014041FCE81E0809320041BCE81E080936B
:102B70002C0417CEC090D002D090D102E090D202A7
:102B8000F090D30240E8F41A6091D4027091D5021B
:102B90008091D6029091D702905824E230E040E034
:102BA00050E00E9400212093690230936A02409312
:102BB0006B0250936C02C701B60124E230E040E0A2
:102BC00050E00E94002120936502309366024093FA
:102BD000670250936802E5CD8091D002803D49F4B0
:102BE0008091D1028F3F09F0DCCD84E00E94D00CAF
:102BF000D8CD883C09F0D5CD8091D1028F3F09F026
:102C0000D0CD81E00E94D00C8091600280648093DE
:102C10006002C7CD8091D00255E0859FC00111248C
:102C2000805991406AE070E00E94CA2060935F0280
:102C30009C0197FF03C031952195310920935E02D5
:102C4000B0CD2091D30291E02F3E09F090E0809129
:102C5000630290FB87F9809363022C3319F0806440
:102C6000809363028AE0289F90011124C9016CE3DC
:102C700070E00E94CA2060935D02C90166E070E0C6
:102C80000E94CA20CB016AE070E00E94CA208093B3
:102C90005C0287CD809163029091D00290FB80F915
:102CA000809363028091D102982F937051E091300C
:102CB00009F050E09091620250FB90F9909362020B
:102CC00041E0982F9C70943009F040E090916202AE
:102CD00040FB92F99093620231E0982F907390310B
:102CE00009F030E09091620230FB94F99093620217
:102CF000807C21E0803409F020E08091620220FB9A
:102D000086F9809362029091640290FD4ACD809191
:102D1000610250FB84F940FB85F930FB86F920FB0A
:102D200087F980936102892F81608093640239CD95
:102D30006091D3026093330287E390E09A838983A2
:102D4000CE0101960E94810E2CCD8091D20284305A
:102D500061F48091D3028F3309F023CD81E0809319
:102D6000C0032F7B209360021CCD8130E1F4809161
:102D7000D3028F3309F015CD81E08093B4038091A5
:102D800060028064809360021092810280916102EF
:102D9000877F809361028091630282FF02CD8B7FE7
:102DA00080936302FECC803171F48091D3028F3323
:102DB00009F0F7CC8091D502833F09F4F2CC81E091
:102DC0008093CC03EECC81112AC08091D3028F3343
:102DD00009F0E7CC8091D4028F3F09F0E2CC8091DA
:102DE000D502813F61F48091600281FD05C091E0D0
:102DF0009093D80382600BCF1092D803D2CC803F3F
:102E000009F0CFCC1092C0031092B4031092CC03FF
:102E1000809161028F788F7780936102C2CC803479
:102E200009F0BFCC8091D3028F3309F0BACC109255
:102E3000D803809160028D7F80936002E9CF8091FA
:102E4000D70280FB25F98ECF8091D302837091E069
:102E5000823009F090E08091600290FB83F98093CA
:102E6000600283FD19C0809181028823A9F00E942D
:102E70002D030091820210918302209184023091EF
:102E80008502601B710B820B930B693E73408105B9
:102E9000910510F0109281028091D402809331024A
:102EA00080CC91E08091D1028C3F09F490E0809138
:102EB000600290FB87F9ABCE91E08091D1028C3F0C
:102EC00009F490E08091610290FB80F9A5CF91E038
:102ED0008091D002811101C090E08091610290FB4D
:102EE00081F99ACF91E08091D002811101C090E0E8
:102EF0008091610290FB82F98FCF8091CF03813066
:102F000009F069CC1092CF0363CC90E080E0FECC56
:102F10008B7F809363026CE082E990E0AECD31114B
:102F2000D2CD12821182C084D184E284F3844B0119
:102F30005C018C189D08AE08BF087501640138EE6D
:102F4000C31633E0D306E104F10408F0BCCD3381AD
:102F50003F5F33836483758386839783B4CD62EF49
:102F600070E086E292E00E945420892B31F4F894BC
:102F700014BE0C94003F0C9401206EEE70E086E2CB
:102F800092E00E945420892B21F410939A020C9411
:102F9000012069EE70E086E292E00E945420892BC5
:102FA00021F4109390020C94012062EE70E086E20E
:102FB00092E00E945420892B21F410938B020C94F0
:102FC00001206DED70E086E292E00E945420892B92
:102FD00021F410939F020C94012068ED70E086E2CA
:102FE00092E00E945420892B21F41093A4020C94A7
:102FF000012063ED70E086E292E00E945420892B6C
:1030000021F41093A9020C9401206EEC70E086E28A
:1030100092E00E945420892B19F41093AE02F1C75C
:1030200069EC70E086E292E00E945420892B39F42A
:103030008091600283FF03C010938602E2C763ECB5
:1030400070E086E292E00E945420892B21F4809166
:10305000600283FF0BC06FEB70E086E292E00E949B
:103060005420892B31F41093C202CBC71093720203
:10307000C8C769EB70E086E292E00E945420892B79
:1030800019F40E94630CBDC764EB70E086E292E025
:103090000E945420892B79F488E592E0A0E0B0E00A
:1030A0008093000190930101A0930201B09303016A
:1030B000F092B802A6C76BEA70E086E292E00E9446
:1030C0005420892B09F09DC71093720200937C0253
:1030D00098C79F5F9093300280836CC70E942D0336
:1030E000009158021091590220915A0230915B02CE
:1030F000601B710B820B930B683E73408105910539
:1031000008F434C10E942D03609358027093590251
:1031100080935A0290935B0283E993E00E94C90373
:10312000892B09F423C1A89583E993E00E94DF036A
:10313000082F109157021F3168F0E12FE051FF0B6B
:10314000AF0167E472E087E392E00E942E21105104
:1031500010935702E0915702BB24B394BE0EB09275
:103160005702F0E0E95CFD4F0083CB2CD12CF60137
:10317000E95CFD4F10826DE671E087E392E00E940A
:103180005B217C01009741F26AE070E00E944021DF
:103190008C01892B09F4C0CF6CE270E0C7010E945A
:1031A0004021009719F08017910718F010925702EC
:1031B000B3CF01960E9436207C01065312400B15B6
:1031C00008F4B9C010925702E0915702F0E0E95CB0
:1031D000FD4F10821E141F040CF09ECF80914B04F3
:1031E000882309F499CF88E091E00E94AE03CE2CA9
:1031F000D12CF12CE12C2AE0B701A60183E993E060
:103200000E944D0665E671E083E993E00E942E0678
:1032100044E751E062E370E080E197E20E94B0058C
:10322000882309F479CF22E242E270E060E090E086
:1032300080E00E945A04882309F46ECF22E242E221
:103240006FE070E08CE894E00E945A04882309F44F
:1032500063CF22E242E270E060E090E080E00E9412
:103260005A04882309F458CF22E242E270E060E079
:1032700090E080E00E945A04882309F44DCF2DE0AD
:103280004AE060E470E08CE494E00E945A048823F1
:1032900009F442CF62E370E088EE93E00E940004FC
:1032A00080914B04882309F461C08FEF90E00E9465
:1032B000AE032AE0B701A60183E993E00E944D0620
:1032C00065E671E083E993E00E942E064AE651E04C
:1032D00062E370E088EA91E60E94B005882309F471
:1032E00045C062E370E088EE93E00E94000468ED60
:1032F00072E08CE894E00E944B21892B59F167EE33
:1033000072E08CE894E00E944B21892B19F160E96E
:1033100071E08CE494E00E946420892B09F01CC4C5
:103320008091D802882311F16CE474E090E080E091
:103330000E942B071BC0B8017727A601461B570B1D
:10334000695C7D4F87E392E00E942E21B01AB09213
:1033500057023ACF65E871E08CE494E00E94542073
:10336000892B09F059C382E080939F02A895809130
:103370007202882319F080E00E943408809177025D
:10338000882319F081E00E94340880917C02863005
:10339000C1F580917D0290917E02A0917F02B09153
:1033A0008002892B8A2B8B2B51F40E942D03609372
:1033B0007D0270937E0280937F02909380020E9430
:1033C0002D0300917D0210917E0220917F023091A9
:1033D0008002DC01CB01801B910BA20BB30B61E0DF
:1033E0008C32F1E09F07A105B10540F060E080322A
:1033F00023E09207A105B10508F0D7C389E00E9438
:103400005402109186021123A9F1809187029091B4
:103410008802A0918902B0918A02892B8A2B8B2B7A
:1034200051F40E942D036093870270938802809369
:10343000890290938A020E942D03C0908702D09047
:103440008802E0908902F0908A02DC01CB018C199D
:103450009D09AE09BF0920916002022F087023FF69
:1034600050C484369105A105B10508F04AC481E035
:103470000E94D10480919002882321F063E186E0CC
:103480000E94A20780918B02882321F062E185E0EF
:103490000E94A20780919502882309F441C080917F
:1034A000960290919702A0919802B0919902892B6F
:1034B0008A2B8B2B69F40E942D03609396027093E4
:1034C0009702809398029093990281E08093B302CF
:1034D0000E942D030091960210919702209198026C
:1034E00030919902601B710B820B930B60367A4E00
:1034F0008105910558F48091600283FD11C080918F
:103500006202857569F481E080938B0210929502C6
:1035100010929602109297021092980210929902BD
:1035200010919A021123C9F1123019F480E00E941F
:10353000AC0C80919B0290919C02A0919D02B09155
:103540009E02892B8A2B8B2B51F40E942D036093B2
:103550009B0270939C0280939D0290939E020E9416
:103560002D03C0909B02D0909C02E0909D02F090B1
:103570009E02DC01CB018C199D09AE09BF091230F6
:1035800009F00CC404E813E020E030E0843FE1E0FF
:103590009E07A105B10508F005C480919F0288230C
:1035A00031F04FEB51E061E189E00E94A109809187
:1035B000A402882331F045EC51E06EE08AE00E94DD
:1035C000A1098091A902882331F04BEC51E060E120
:1035D0008BE00E94A1098091AE02882331F041ED79
:1035E00051E06FE08CE00E94A1098091B302882332
:1035F000C9F18091B4029091B502A091B602B09148
:10360000B702892B8A2B8B2B69F40E942D036093C0
:10361000B4027093B5028093B6029093B70281E032
:103620000E94AC0C0E942D030091B4021091B502CF
:103630002091B6023091B702601B710B820B930B85
:10364000653671058105910568F080E00E94AC0C3B
:103650001092B3021092B4021092B5021092B60208
:103660001092B7028091C202882309F412C16091BE
:10367000690270916A0280916B0290916C0220EA5B
:1036800036E841E050E00E94002169012B013C0135
:1036900089018090650290906602A0906702B090C8
:1036A0006802C501B40120EA36E841E050E00E941A
:1036B00000212FA338A749A75AA72FA038A4C201D9
:1036C000D301B7FF07C0B095A095909581959F4F06
:1036D000AF4FBF4F3C01C501B40120EA36E841E0DD
:1036E00050E00E94002197FF07C09095809570954B
:1036F00061957F4F8F4F9F4F5B0187E4898380E502
:103700008A8383E58B83FE01349617FF08C08DE220
:103710008C83002711270C191D09FE0135960436EC
:1037200011054CF0C80164E670E00E94CA20605D9B
:1037300060838C0131960A3011054CF0C8016AE0B3
:1037400070E00E94CA20605D6083082F3196005DA2
:1037500000838EE28183C30160E177E20E94B6209C
:10376000605D6283C30168EE73E00E94B620CB0106
:103770002AE030E0B9010E94B620805D8383C30156
:1037800064E670E00E94B620CB01B9010E94B62029
:10379000805D8483C301B9010E94B620482FCB010C
:1037A000B9010E94B620805D8583405D46838CE22E
:1037B00087838F0137FC0FC3085F1F4FF4E62F1676
:1037C00031045CF0C10164E670E00E94CA20605DD3
:1037D000D8016C931C010F5F1F4FBAE02B16310408
:1037E0005CF0C1016AE070E00E94CA20605DF801EF
:1037F0006083282E0F5F1F4F80E3820DD8018C93CA
:103800008EE211968C93C50160E177E20E94B620AA
:10381000605DF8016283C50168EE73E00E94B62026
:10382000CB012AE030E0B9010E94B620805D83839D
:10383000C50164E670E00E94B620CB01B9010E9488
:10384000B620805D8483C501B9010E94B620482F4F
:10385000CB01B9010E94B620805D8583405D46831F
:1038600080E2878383E28087C80109960E948405ED
:10387000D80151961C921092C2021092C30210926B
:10388000C4021092C5021092C602CE0101960E9497
:103890007A071091B802112309F43FC08091B90250
:1038A0009091BA02A091BB02B091BC02892B8A2BE5
:1038B0008B2B81F40E942D036093B9027093BA029E
:1038C0008093BB029093BC02123009F09DC381E04B
:1038D0008093B3020E942D03C090B902D090BA0227
:1038E000E090BB02F090BC02DC01CB018C199D0979
:1038F000AE09BF0940916D02123009F097C3843FB1
:10390000E1E09E07A105B10508F06FC2442329F04C
:1039100080E00E949B0C10926D028091BD02882372
:1039200009F46AC00E942D036B017C018091BE02E4
:103930009091BF02A091C002B091C102892B8A2B45
:103940008B2B81F4C092BE02D092BF02E092C002E3
:10395000F092C10210926E0210926F0210927002E9
:10396000109271028091BE029091BF02A091C0029C
:10397000B091C10246015701881A990AAA0ABB0AE6
:1039800080916E0290916F02A0917002B0917102CD
:103990000097A105B10569F0A7019601281B390B15
:1039A0004A0B5B0BDA01C901843F9140A105B105C7
:1039B00050F00E94630CC0926E02D0926F02E092AF
:1039C0007002F092710240E1841647E29406A1046D
:1039D000B10490F01092BD021092BE021092BF028C
:1039E0001092C0021092C10210926E0210926F02E9
:1039F000109270021092710280E090E0892B11F415
:103A00000C94FB110E94AC01882311F40C94F61164
:103A10000E9400000C94F61161E871E08CE494E0DF
:103A20000E945420892B21F482E08093A9029ECC2D
:103A30006CE771E08CE494E00E945420892B21F41F
:103A400082E08093900292CC65E771E08CE494E090
:103A50000E945420892B21F482E080938B0286CC33
:103A600060E771E08CE494E00E945420892B21F4FB
:103A700082E08093B8027ACC6AE671E08CE494E04C
:103A80000E945420892B21F481E08093BD026ECCEA
:103A900066E671E08CE494E00E945420892B21F4C6
:103AA00082E080939A0262CC60E671E08CE494E05C
:103AB0000E945420892B21F48091600283FF14C05E
:103AC0006BE571E08CE494E00E945420892B81F036
:103AD00067E571E08CE494E00E945420892B81F426
:103AE00081E08093C20242CC82E0809377023ECC98
:103AF0008091600283FFECCF82E08093860236CC17
:103B000060E571E08CE494E00E945420892B19F464
:103B10000E9484072BCC6AE471E08CE494E00E945C
:103B20005420892B29F4F89414BE0C94003F1ECC29
:103B300061E471E08CE494E00E945420892B09F048
:103B400015CC8091600283FD11CC82E080937702D6
:103B500085E080937C020ACC6DE371E08CE494E014
:103B60000E946420892B69F06CE874E088ED92E093
:103B70000E9454210E949A0E89E291E00E949809C5
:103B8000F5CB65E271E08CE494E00E946420892B1F
:103B900009F4ECCB6CE874E087EE92E00E945421CB
:103BA0000E949A0E81E191E0E9CF88389341A10506
:103BB000B10508F095C089E00E945402809164022A
:103BC00081FD1FCC4091630246FF1BCC8091810296
:103BD000823009F016CC80915F0250915E022091F4
:103BE0005D0230915C029CE79983FE01329687FF6B
:103BF00005C09DE29A838195FE01339684363CF0A0
:103C000091E3908364E60E94A820892F31968A3040
:103C10003CF06AE00E94A820805D8083892F319665
:103C2000805D80838EE28183852F6AE00E949C20E4
:103C3000905D92838CE7838347FF2AC08FE684835D
:103C40008CE6858384E7868382E7878385E68087A1
:103C500080E2818784E382878F01045F1F4F80E3C6
:103C6000838723E2D8012D93CD010E948405F801BA
:103C70001186CE0101960E947A07809164028260CB
:103C800080936402809163028F7B80936302B9CB3F
:103C9000DF012436E0F414962A3040F0822F6AE0E7
:103CA0000E949C20805D8C93292F1196205D2C937F
:103CB0008EE211968C9311978D010D5F1F4F832F0C
:103CC0006AE00E949C20905D12969C93CACF159644
:103CD000822F64E60E949C20805D8483292FDCCFA4
:103CE00089E00E94540210927C0210927D02109290
:103CF0007E0210927F0210928002809164028D7F7A
:103D0000BFCF8C32F1E09F07A105B10510F480E030
:103D1000AFCB803D37E09307A105B10508F4AACBEE
:103D2000287239F48C3F48E09407A105B10508F4E6
:103D30009ECB80369940A105B10550F580E00E94E8
:103D4000D104002341F08091630284608093630278
:103D50000E94840706C01330B9F0143079F0123095
:103D6000B9F3109286021092870210928802109284
:103D7000890210928A02109281027CCB6DE081EB65
:103D800091E00E94530EEDCF6FE081EA91E0F9CF10
:103D900080E00E94D10410928602EDCF00E911E08C
:103DA00020E030E080179107A207B30728F461E014
:103DB00084E00E945402F1CB60E084E00E9454024F
:103DC00010929A0210929B0210929C0210929D02F5
:103DD00010929E02E2CB075F1F4F8DE280872FA0DB
:103DE00038A4319421943108E9CC04EF11E020E0AB
:103DF00030E0C0900001D0900101E0900201F0900D
:103E000003010C0D1D1D2E1D3F1D80179107A207DC
:103E1000B30748F4411181CD81E00E949B0C81E001
:103E200080936D027ACD442329F080E00E949B0CA0
:103E300010926D021092B8021092B9021092BA025A
:103E40001092BB021092BC0280ED97E0A0E0B0E0BF
:103E50008093000190930101A0930201B0930301AC
:103E60005CCD009181020E942D03C0908202D0900F
:103E70008302E0908402F09085026C197D098E091E
:103E80009F0961347F418105910578F015FD04C0DB
:103E900080916202857549F083E0023011F00C9444
:103EA0008C15809386021092810217FD05C08091C7
:103EB0006102877021E009F020E09091630220FB0D
:103EC00094F99093630292FB002700F9192F117067
:103ED00080916202B82FB17082FBAA27A0F984FBFF
:103EE000FF27F0F986FBEE27E0F93091600233FB03
:103EF000772770F960913502509133024091310279
:103F000093FBFF24F0F8F0122DC095FBFF24F0F88E
:103F10002F1128C096959170911324C081FB992789
:103F200090F99B131FC083FB992790F9A9131AC01E
:103F300085FB992790F9F91315C087FB882780F92D
:103F40008E1310C03295317073130CC080913602FD
:103F5000681308C080913402851304C08091320236
:103F6000841721F18091630200FB83F920FB85F91E
:103F700010FB81F98093630280916202B0FB81F9AA
:103F8000A0FB83F9F0FB85F9E0FB87F980936202DF
:103F90008091600270FB84F9809360026093360226
:103FA00050933402409332020E94990611E005E0DA
:103FB00082E0F82E86EF92E00E94A001892B09F49E
:103FC0008DC886EF92E00E947E0190913002E92F29
:103FD000F0E0EA5DFD4F8A3039F08D3029F088231A
:103FE00019F0993008F475C8108268EF70E086E225
:103FF00092E00E945420892B11F00C94AF170E947C
:10400000990610923002D6CF0E942D030091B9027A
:104010001091BA022091BB023091BC02DC01CB01AD
:10402000801B910BA20BB30B40916D0200E010E0DE
:104030009801DFCE87E591E09093940380939303FA
:1040400080912002909121028359934071F4E09174
:10405000A603F091A70390818091A80380958923FE
:10406000808310922102109220020895FC0188277B
:104070009927E89421912032E9F3293010F02E306D
:10408000C8F32B3241F02D3239F4689404C00E94F9
:104090007E20820F911D219120532A30C0F31EF4FF
:1040A000909581959F4F0895FB01DC018D910590BE
:1040B00080190110D9F3990B0895FB01DC010590DB
:1040C0000D920020E1F70895FB0155915523A9F0C9
:1040D000BF01DC014D9145174111E1F759F4CD01C4
:1040E0000590002049F04D9140154111C9F3FB01A5
:1040F0004111EFCF81E090E0019708957AE0979F1A
:10410000902D879F802D910D11240895F999FECF50
:1041100092BD81BDF89A992780B50895262FF99907
:10412000FECF1FBA92BD81BD20BD0FB6F894FA9A9A
:10413000F99A0FBE01960895991B79E004C0991F62
:10414000961708F0961B881F7A95C9F780950895F1
:1041500087FB082E062687FD819567FD61950E94E5
:104160009C200EF4919507FC81950895AA1BBB1B1A
:1041700051E107C0AA1FBB1FA617B70710F0A61B67
:10418000B70B881F991F5A95A9F780959095BC0188
:10419000CD01089597FB072E16F4009407D077FD04
:1041A00009D00E94B62007FC05D03EF49095819579
:1041B0009F4F0895709561957F4F0895A1E21A2E43
:1041C000AA1BBB1BFD010DC0AA1FBB1FEE1FFF1FBB
:1041D000A217B307E407F50720F0A21BB30BE40B0B
:1041E000F50B661F771F881F991F1A9469F7609552
:1041F0007095809590959B01AC01BD01CF0108950C
:10420000052E97FB1EF400940E94172157FD07D03E
:104210000E94DE2007FC03D04EF40C941721509529
:104220004095309521953F4F4F4F5F4F08959095A2
:104230008095709561957F4F8F4F9F4F0895EE0F3A
:10424000FF1F0590F491E02D0994FB01DC0102C0F1
:1042500001900D9241505040D8F7089568177907A2
:1042600068F4FB01DC01E40FF51FA40FB51F02C0C9
:1042700002900E9241505040D8F708950C94252199
:10428000FC018191861721F08823D9F79927089599
:104290003197CF010895FB01DC018D9101908019C8
:1042A0000110D9F3990B0895FB01DC0101900D92E7
:1042B0000020E1F70895FB0151915523A9F0BF01BA
:1042C000DC014D9145174111E1F759F4CD01019001
:1042D000002049F04D9140154111C9F3FB014111F6
:1042E000EFCF81E090E00197089511E0C7E1D1E0C0
:1042F00004C0FE010E941F212196C831D107C9F7D1
:04430000F894FFCF5F
:10430400D0070000000001000200000001000200CC
:1043140003000400050009050412110E100F081310
:1043240006077B0180018E0193019A01A401B60165
:1043340060616601707176023031364041465051F9
:104344005600000000E20142016F013402A0017E28
:104354000192010000000052034201C7045103C945
:1043640003DF0339030D0A003E004F4B002B434D7E
:1043740054493A002B434D47523A004154264600D3
:1043840041542B435343533D2247534D2200415440
:1043940045300041542B4342430041542B434D4785
:1043A400463D310041542B434E4D493D322C312C76
:1043B400302C302C300041542B43504D533D22536C
:0E43C4004D222C22534D222C22534D2200005C
:00000001FF
