:100000000C941F010C9447010C9447010C94C80FE9
:100010000C94C80F0C94C80F0C9447010C94470122
:100020000C9447010C9447010C9447010C94470130
:100030000C9447010C9447010C9447010C94470120
:100040000C947E0F0C9447010C944C0F0C94260FCB
:100050000C9447010C9447010C9447010C94470100
:100060000C9447010C9447014E4100545952453AB3
:100070000000000008000201000003040700000067
:10008000000000000041542B434D4744413D2244B1
:10009000454C20414C4C22004154004252532D43C8
:1000A0006C6F7365642023004252532D416C617262
:1000B0006D20230073746172745F616300686F72F6
:1000C0006E006C69676874006770730073746172A6
:1000D000740073746F7000706F727400626F7833A5
:1000E00000626F783200626F78310063686975640E
:1000F0006900617072690067777300726573657477
:100100000074797265007570646174650041542BE8
:10011000434D47443D0041542B434D47523D004E13
:10012000756D65726F205B325D2053616C76617412
:100130006F21005B325D004E756D65726F205B3123
:100140005D2053616C7661746F21005B315D0053FB
:100150007461727420414300526573657400557078
:1001600064617465004750530053746F700053749A
:1001700061727400475753004C6967687400486F98
:10018000726E00436869756469004170726900426B
:100190006F7800536F7263696E656C6C69005365AC
:1001A00074204F574E45522032303132373600429C
:1001B00052532D456D657267656E63792023004249
:1001C00052532D54696D656F7574202300424F584A
:1001D000203100424F58203200424F582033005007
:1001E0004F52544F4E4500220041542B434D47532C
:1001F0003D2200000000002300260029000000002E
:1002000000250028002B0000000000240027002A01
:10021000000102040810204080010204081020019F
:10022000020408102004040404040404040202026A
:10023000020202030303030303004010E52011241C
:100240001FBECFEFD8E0DEBFCDBF11E0A0E0B1E030
:10025000EAE9F4E402C005900D92A63DB107D9F792
:1002600024E0A6EDB1E001C01D92A83AB207E1F783
:1002700011E0CEE1D1E004C02197FE010E94EA2105
:10028000CD31D107C9F70E944C110C9440220C9437
:100290000000EF92FF920F931F93CF93DF938C0197
:1002A0007B01D0E0C0E0F701EC0FFD1F64916623F5
:1002B00061F0D801ED91FC910190F081E02DC80131
:1002C0000995892B11F02196EECFCE01DF91CF91C8
:1002D0001F910F91FF90EF900895AF92BF92CF9230
:1002E000DF92EF92FF920F931F93CF93DF936C01F6
:1002F0007B018B01040F151FEB015E01AE18BF08D7
:10030000C017D10759F06991D601ED91FC91019088
:10031000F081E02DC6010995892B79F7C501DF91A0
:10032000CF911F910F91FF90EF90DF90CF90BF90F2
:10033000AF900895FC01538D448D252F30E0842F1C
:1003400090E0821B930B541710F0CF9608950197FD
:100350000895FC01918D828D981761F0A28DAE0FEA
:10036000BF2FB11D5D968C91928D9F5F9F73928F71
:1003700090E008958FEF9FEF0895FC01918D828D9D
:10038000981731F0828DE80FF11D858D90E008956A
:100390008FEF9FEF0895FC01918D228D892F90E0C2
:1003A000805C9F4F821B91098F73992708958EEF70
:1003B00092E00E94CB0121E0892B09F420E0822FFA
:1003C000089580E090E0892B29F00E94D7018111E7
:1003D0000C9400000895FC01A48DA80FB92FB11D45
:1003E000A35ABF4F2C91848D90E001968F7399276B
:1003F000848FA689B7892C93A089B1898C91837049
:1004000080648C93938D848D981306C00288F38941
:10041000E02D80818F7D80830895EF92FF920F936E
:100420001F93CF93DF93EC0181E0888F9B8D8C8DA0
:1004300098131AC0E889F989808185FF15C09FB794
:10044000F894EE89FF896083E889F9898081837057
:10045000806480839FBF81E090E0DF91CF911F9106
:100460000F91FF90EF900895F62E0B8D10E00F5F27
:100470001F4F0F731127E02E8C8D8E110CC00FB6FD
:1004800007FCFACFE889F989808185FFF5CFCE0195
:100490000E94EB01F1CFEB8DEC0FFD2FF11DE35A24
:1004A000FF4FF0829FB7F8940B8FEA89FB89808118
:1004B0008062CFCF682F8EEF92E00C940D02CF9325
:1004C000DF93EC01888D8823B9F0AA89BB89E8897C
:1004D000F9898C9185FD03C0808186FD0DC00FB622
:1004E00007FCF7CF8C9185FFF2CF808185FFEDCFA0
:1004F000CE010E94EB01E9CFDF91CF91089590E00A
:10050000FC01EF58FF4F2491FC01EF5EFD4F349149
:10051000FC01EB5DFD4FE491EE23C9F0222339F09D
:10052000233001F1A8F4213019F1223029F1F0E053
:10053000EE0FFF1FE350FE4FA591B4918FB7F894D3
:10054000EC91611126C030953E233C938FBF0895F6
:100550002730A9F02830C9F0243049F78091800075
:100560008F7D03C0809180008F7780938000DFCFE4
:1005700084B58F7784BDDBCF84B58F7DFBCF809131
:10058000B0008F778093B000D2CF8091B0008F7D84
:10059000F9CF3E2BDACF61E080914C040C947F02BE
:1005A000CF93DF9390E0FC01EF5EFD4F24918B5DD4
:1005B0009D4FFC0184918823D1F090E0880F991F12
:1005C000FC01E95FFD4FA591B491FC01E350FE4FA2
:1005D000C591D49161110EC09FB7F8948C91E22F10
:1005E000E0958E238C932881E223E8839FBFDF91DF
:1005F000CF9108958FB7F894EC91E22BEC938FBFD5
:10060000F6CF3FB7F8948091220290912302A091F7
:100610002402B091250226B5A89B05C02F3F19F0F2
:100620000196A11DB11D3FBFBA2FA92F982F882772
:10063000BC01CD01620F711D811D911D42E0660F4D
:10064000771F881F991F4A95D1F708958F929F921F
:10065000AF92BF92CF92DF92EF92FF924B015C017B
:100660000E9401036B017C010E9401036C197D094A
:100670008E099F09683E734081059105A8F321E02A
:10068000821A9108A108B10888EEC80E83E0D81E2E
:10069000E11CF11C81149104A104B10429F7FF901D
:1006A000EF90DF90CF90BF90AF909F908F90089584
:1006B0002FB7F89460911E0270911F028091200262
:1006C000909121022FBF0895209128023091290294
:1006D0002817390771F49091260280912702981704
:1006E00041F0E0912602F0E0E352FE4F808190E07D
:1006F00008958FEF9FEF08950895EF92FF920F9363
:100700001F93CF93DF93DC015C96ED90FC905D9797
:10071000E114F10479F481E090E013969C938E93B8
:10072000129790E080E0DF91CF911F910F91FF90A1
:10073000EF9008955196ED91FC91529750968C91BF
:100740005097982F90950FB75E962C915E97122F29
:10075000127021FD6095F8942081112319F1282B46
:100760002083E7012197F1F728E0462F50E0308100
:1007700060FF1AC0382B3083E7012197F1F7BA01E7
:1007800075956795215089F7112381F08081892320
:1007900080830FBF5C968D919C910197F1F781E06A
:1007A00090E0C1CF2923DCCF3923E5CF9081892B7D
:1007B000EFCF20912802309129022817390761F4E0
:1007C000809127022091260290E0805C9F4F821B3F
:1007D00091098F739927089590E080E00895209102
:1007E00028023091290228173907B9F4909126027E
:1007F00080912702981789F0E0912602F0E0E352F9
:10080000FE4F80812091260230E02F5F3F4F2F73F3
:1008100033272093260290E008958FEF9FEF0895ED
:100820004F925F926F927F928F929F92AF92BF9200
:10083000CF92DF92EF92FF924C016B010E9458031E
:100840002B013C01B12CA12C8BE993E00E94D90330
:10085000892B69F40E945803641975098609970960
:10086000681579058A059B0510F4A895EDCF8BE9ED
:1008700093E00E94D903892B01F10E9458034B0198
:100880005C01F12CE12CA8958BE993E00E94D9033F
:10089000892B41F08BE993E00E94EF030E945803FB
:1008A0004B015C010E945803681979098A099B0968
:1008B0006C157D058E059F0530F3FF90EF90DF905E
:1008C000CF90BF90AF909F908F907F906F905F90F0
:1008D0004F9008954F925F926F927F929F92AF9246
:1008E000BF92CF92DF92EF92FF920F931F93CF931D
:1008F000DF938C016B01E42E922E009721F0672B81
:1009000011F0FC0110820E9458032B013C01D0E041
:10091000C0E0F12C5601F1E0AF1AB108A8958BE9BF
:1009200093E00E94D903892B71F08BE993E00E9438
:10093000EF03F11015C0FF24F3948E11F12C0E94E7
:1009400058032B013C010E9458036419750986095C
:100950009709623371058105910500F3F12C0AC0F6
:10096000891119C00115110529F0CD2819F0C00F02
:10097000D11F18828F2DDF91CF911F910F91FF9082
:10098000EF90DF90CF90BF90AF909F907F906F904F
:100990005F904F9008950115110589F2CA15DB0586
:1009A00074F6F801EC0FFD1F80832196C8CF90E00C
:1009B00080E008958EBD00000DB407FEFDCF8EB51A
:1009C0000895CF93C82F682F86E00E947F026C2F76
:1009D00087E0CF910C947F02CF92DF92EF92FF924B
:1009E0003091680237FD05C080916902877021E06F
:1009F00009F020E040916B0220FB44F940936B0228
:100A000042FB992790F9892F90E0B0E0A0E0BB2746
:100A10008695B795AA2799278827417050E070E0FE
:100A200060E0EDE1440F551F661F771FEA95D1F78F
:100A3000842B952BA62BB72B40913902842B409108
:100A40006A0240FBCC24C0F8D12CF12CE12CFCE153
:100A5000CC0CDD1CEE1CFF1CFA95D1F78C299D29CE
:100A6000AE29BF2942FBCC24C0F8D12CF12CE12CBB
:100A70005BE1CC0CDD1CEE1CFF1C5A95D1F78C29D8
:100A80009D29AE29BF2944FBCC24C0F8D12CF12CE0
:100A9000E12C6AE1CC0CDD1CEE1CFF1C6A95D1F741
:100AA0008C299D29AE29BF2946FB442740F950E0F7
:100AB00070E060E0E9E1440F551F661F771FEA957B
:100AC000D1F7842B952BA62BB72B33FB442740F96A
:100AD00050E070E060E0742F662755274427842B90
:100AE000952BA62BB72B30913D02A32B30913B02C7
:100AF000932B30E050E040E06EE1220F331F441FA3
:100B0000551F6A95D1F7822B932BA42BB52B80937D
:100B1000D8019093D901A093DA01B093DB01FF9043
:100B2000EF90DF90CF900895CF93DF93D82FC92F08
:100B30000E94EC044091D8015091D9016091DA01F2
:100B40007091DB01ED2FFC2F2CE130E0DB01CA01BD
:100B5000022E04C0B695A795979587950A94D2F76B
:100B60008F708A3058F4805D8193245031092C3F76
:100B70008FEF380759F7DF91CF910895895CF4CF53
:100B80004F925F926F927F928F929F92AF92BF929D
:100B9000CF92DF92EF92FF920F931F93CF93DF9349
:100BA0004C017B016A010E9458032B013C01B12CCE
:100BB000A12C8BE993E00E94D903892B69F40E9450
:100BC00058036419750986099709681579058A0516
:100BD0009B0510F4A895EDCF8BE993E00E94D90313
:100BE000892BD1F1F60101900020E9F731978F01AF
:100BF0000C191D090E9458034B015C01D0E0C0E0B4
:100C000011272701712C612CA8958BE993E00E9494
:100C1000D903892BB1F08BE993E00E94EF03F60131
:100C2000EC0FFD1F9081981306C02196C017D107C5
:100C300021F481E012C0D0E0C0E00E9458034B01D3
:100C40005C010E945803681979098A099B09641597
:100C5000750586059705C0F280E0DF91CF911F9161
:100C60000F91FF90EF90DF90CF90BF90AF909F904B
:100C70008F907F906F905F904F900895FB0101904F
:100C80000020E9F73197AF01461B570BDC01ED91CE
:100C9000FC910280F381E02D0994CF93DF93BC0196
:100CA0008BE993E00E944901EC016DE671E08BE96C
:100CB00093E00E943E068C0F9D1FDF91CF91089517
:100CC0008F929F92AF92BF92EF92FF920F931F93DA
:100CD000CF93DF93CDB7DEB7A1970FB6F894DEBF01
:100CE0000FBECDBF7C01FA01CB0119A2223008F45E
:100CF0002AE08E010F5D1F4F822E912CB12CA12C6A
:100D0000BF01A50194010E94A921F901CA016A301D
:100D10000CF5605DD8016E938D01232B242B252BC0
:100D200079F790E080E0109721F0BD01C7010E94A3
:100D30003E06A1960FB6F894DEBF0FBECDBFDF9181
:100D4000CF911F910F91FF90EF90BF90AF909F9028
:100D50008F900895695CDECFCF92DF92EF92FF9281
:100D6000CF93DF930E94EC0483E20E945A02C0906A
:100D700067020C2C000CDD08EE08FF082AE0B70122
:100D8000A601F7FE0BC08DE20E945A0244275527A8
:100D9000BA014C195D096E097F092AE08EEF92E0D5
:100DA0000E9460068EE20E945A024091660250E064
:100DB00070E060E02AE08EEF92E00E94600683E23D
:100DC0000E945A024091650250E070E060E02AE023
:100DD0008EEF92E00E9460068EE20E945A024091DD
:100DE000640250E070E060E02AE08EEF92E00E9442
:100DF000600683E20E945A02CCE1D0E08091D801E3
:100E00009091D901A091DA01B091DB010C2E04C0C0
:100E1000B695A795979587950A94D2F78F708A30E3
:100E2000A0F4805D0E945A022497CC3F8FEFD80730
:100E300029F76DE671E08EEF92E0DF91CF91FF90A0
:100E4000EF90DF90CF900C943E06895CEBCFCF9370
:100E5000DF938E3F2FEF920740F068E670E08EEF51
:100E600092E0DF91CF910C9449016AE070E00E941A
:100E70008121EC01AB0170E060E02AE08EEF92E0AE
:100E80000E9460068EE20E945A02AE0170E060E0AD
:100E90002AE08EEF92E0DF91CF910C946006CF9321
:100EA000DF93D0E0C0E0009731F0BC018BE993E024
:100EB0000E943E06EC016DE671E08BE993E00E9432
:100EC0003E068C0F9D1FDF91CF9108950F931F93C6
:100ED000CF93DF9320915304211107C0C0E08C2FE2
:100EE000DF91CF911F910F9108958B01EC0169EE75
:100EF00071E08BE993E00E94490160EE72E08BE9BA
:100F000093E00E943E0687EE91E00E944D0640E786
:100F100051E064EF71E088EE93E00E94C005882301
:100F2000E9F262E370E088EE93E00E9410042097FB
:100F3000D1F0CE010E944D066AE18BE993E00E9458
:100F40007D0342E751E068E873E188E59BE10E9498
:100F5000C005C82F882311F262E370E088EE93E0A9
:100F60000E941004BCCFC8010E944F07E5CF20911A
:100F7000E002222329F0BC0190E080E00C94660797
:100F80000895CF93DF93CDB7DEB72A970FB6F894C5
:100F9000DEBF0FBECDBF83E28983CE0102960E94E1
:100FA00094051A86CE0101960E94B7072A960FB6BD
:100FB000F894DEBF0FBECDBFDF91CF9108958F9221
:100FC0009F92AF92BF92EF92FF920F931F93CF9396
:100FD000DF93F82EE62E082F10E025E0829FE00137
:100FE0001124C658DD4F89809A80AB80BC80811463
:100FF0009104A104B10489F40E94580369837A839F
:101000008B839C83DF91CF911F910F91FF90EF9085
:10101000BF90AF909F908F9008950E945803DC017D
:10102000CB0188199909AA09BB0961E08C3221E03A
:101030009207A105B105F0F0803921E09207A105E2
:10104000B10570F461E08E2DDF91CF911F910F916A
:10105000FF90EF90BF90AF909F908F900C947F0285
:1010600060E08C3B9240A105B10530F48E2D0E94CA
:101070007F0260E085E0E8CF8E2D0E947F0260E075
:1010800085E00E947F029881923039F480916B0252
:10109000817026E0F2121DC0F1F085E0809FF00122
:1010A000819FF00D1124E658FD4F108211821282AB
:1010B00013821482923009F0A5CFDF91CF911F9156
:1010C0000F91FF90EF90BF90AF909F908F900C94F6
:1010D000C107882311F380916B02846080936B02B7
:1010E000DCCFCF92DF92EF92FF920F931F93CF93BB
:1010F000C82F0E9458036B017C010C2F10E025E0E3
:10110000C29FF0011124E658FD4F81819281A38195
:10111000B481892B8A2B8B2B59F4C182D282E38232
:10112000F4828091DC018330E0F48F5F8093DC01F6
:1011300085E0809FF001819FF00D1124E658FD4F5E
:1011400081819281A381B481A7019601281B390B6B
:101150004A0B5B0BDA01C901883C9105A105B10579
:1011600058F461E085E0CF911F910F91FF90EF90CF
:10117000DF90CF900C947F02883532E09307A10571
:10118000B10528F483E1C11182E161E0ECCF8C3B31
:1011900042E09407A105B10528F483E1C11182E181
:1011A00060E0E1CF20916802322F387023FD12C039
:1011B000CC23D1F0883E53E09507A105B10560F43A
:1011C00081E0CF911F910F91FF90EF90DF90CF9032
:1011D0000C94E104CC2341F08C3444E09407A10545
:1011E000B10510F480E0EDCF287259F4C1117DC033
:1011F000803243E09407A105B10580F461E088E006
:10120000B2CF203249F4C111C8C0883E43E09407F0
:10121000A105B10518F4D4CFC1116EC0843145E0E9
:101220009407A105B105F0F248EB5BE060E070E0E7
:101230006EC0332321F160E088E00E947F0260E00D
:1012400085E00E947F02809168028D7F8093680212
:1012500080918402853019F486E080938402109294
:10126000DC0185E0809FF001819FF00D1124E6589C
:10127000FD4F1082118212821382148286C08091E7
:10128000DC018330D0F485E0809FF001819FF00D78
:101290001124E658FD4F118212821382148282E0DB
:1012A000C11101C081E095E0909FF001919FF00D88
:1012B0001124E658FD4F808368C060E088E00E94FA
:1012C0007F0260E085E00E947F0280916B02846073
:1012D00080936B02C1110E94C1071092DC018091C2
:1012E00068028D7F80936802BCCF803B54E09507F5
:1012F000A105B10508F482CF843A56E09507A1050F
:10130000B10508F46FCF48E45DE060E070E0841759
:101310009507A607B70708F08CCF2832B1F560E033
:1013200088E00E947F0260E085E00E947F02CC237B
:1013300089F082E080938902C0928A02D0928B0267
:10134000E0928C02F0928D0280918402811102C0A1
:101350000E94C1071092DC01809168028D7F80930A
:10136000680285E0809FF001819FF00D1124E6580E
:10137000FD4F1082118212821382148280918402A6
:10138000853019F486E080938402CF911F910F91EC
:10139000FF90EF90DF90CF900895883755E0950744
:1013A000A105B10508F40CCFA7CF2091E0022223BC
:1013B00021F070E060E00C94660708958F929F9290
:1013C000AF92BF92DF92EF92FF920F931F93CF9352
:1013D000DF93D62E7A01082F10E025E0829FE001EE
:1013E0001124C658DD4F89819A81AB81BC81892B3C
:1013F0008A2B8B2B49F40E94580369837A838B8351
:101400009C8381E08093BB020E94580325E0209FCB
:10141000F001219FF00D1124E658FD4F818092804C
:10142000A380B480DC01CB0188199909AA09BB0902
:1014300061E0843F21E09207A105B10530F08032E0
:101440009340A105B10578F460E08D2DDF91CF9137
:101450001F910F91FF90EF90DF90BF90AF909F9002
:101460008F900C947F028081823019F4C7010E9412
:10147000D50960E08D2D0E947F0285E0809FF001FC
:10148000819FF00D1124E658FD4F108211821282C7
:1014900013821482DF91CF911F910F91FF90EF90F3
:1014A000DF90BF90AF909F908F9008956BE670E0B3
:1014B0008EEF92E00E944901809106019091070110
:1014C0000E9427078CE20E945A02809104019091A9
:1014D00005010E9427078CE20E945A0280910201B6
:1014E000909103010E9427078CE20E945A0280918A
:1014F0000001909101010E9427076DE671E08EEFD7
:1015000092E00C943E060F931F9300914D041091AE
:101510004E0420914F043091500440E052E16AE7BC
:1015200070E080E0041715072607370740F476952A
:101530006795579547958F5F8630A1F787E0982F7D
:10154000906A9695809581709CBD8DBD60E080917C
:101550004C041F910F910C947F02CF93C82F0E94CF
:10156000830A83E00E94DA048C2F0E94DA0480E070
:101570000E94DA04C82F0E94CB028C2FCF910895CD
:10158000FF920F931F93CF93DF93C82FF62E172F41
:10159000042F0E94830A82E00E94DA048C2F0E94AA
:1015A000DA04CF2DD12F0C0F1D2F111DC017D1071D
:1015B00021F089910E94DA04F9CFDF91CF911F9138
:1015C0000F91FF900C94CB021F93CF93DF93182FB2
:1015D000D62FC42F0E94830A85E00E94DA04812F4F
:1015E0000E94DA048D2F0E94DA048C2F0E94DA0404
:1015F000DF91CF911F910C94CB02CF92DF92EF92AB
:10160000FF92CF93C82F482F60EE8FE00E94E40A2C
:101610000E9458036B017C012AE0C20ED11CE11C20
:10162000F11C0E9458036C157D058E059F0580F402
:101630008EE00E94AD0A807EC813F3CF81E091E076
:10164000892790E0CF91FF90EF90DF90CF900895A1
:1016500080E0F5CFCF93DF93D82FC62F0E94830A67
:1016600082E00E94DA048D2F0E94DA048C2F0E94FF
:10167000DA04DF91CF910C94CB02FF920F931F936A
:10168000CF93DF93C82FF62E172F042F0E94830AC3
:1016900083E00E94DA048C2F0E94DA04CF2DD12F30
:1016A0000C0F1D2F111DC017D10729F080E00E94DB
:1016B000DA048993F8CFDF91CF911F910F91FF90BA
:1016C0000C94CB02BF92CF92DF92EF92FF920F93D6
:1016D0001F93CF93DF9300D000D01F92CDB7DEB71A
:1016E0008C01000F111F000F111FF801E85CFE4F65
:1016F00045E0BE016F5F7F4F81810E943D0B8A8173
:10170000C98098E0C99E60011124282F30E055E07F
:10171000359527955A95E1F7C20ED31E0D2C000C76
:10172000EE08FF0883FF20C092E0CC0CDD1CEE1C0D
:10173000FF1C9A95D1F78370C80ED11CE11CF11CD7
:10174000FE2CED2CDC2CCC248B81C80ED11CE11C92
:10175000F11CFE2CED2CDC2CCC248C81C80ED11C71
:10176000E11CF11C6894F7F88D818F70B82EE8E0C9
:1017700081E090E0EB1528F1F801E85CFE4F8081F4
:101780000E94AD0A83FF02C06894F6F8C092D002AE
:10179000D092D102E092D202F092D302B092D4025F
:1017A000085C1E4F4B2D68ED72E0F80182810E94AB
:1017B0003D0B40E0F80163818CE20E94E40A90E076
:1017C00080E00F900F900F900F900F90DF91CF91CE
:1017D0001F910F91FF90EF90DF90CF90BF900895F1
:1017E0004F925F926F927F928F929F92AF92BF9231
:1017F000CF92DF92EF92FF920F931F93CF93DF93DD
:10180000CDB7DEB763970FB6F894DEBF0FBECDBF7E
:10181000FC012481293008F08DC05C0186E0ECE0F9
:10182000F1E0DE011E9601900D928A95E1F73E01EE
:10183000FEE06F0E711C8E010C5E1F4FF301C19014
:10184000D1903F017601EE0CFF1CF701EC0DFD1D60
:10185000E05CFE4F8080882D0E94AD0A83FD96C01B
:10186000F5019480F8E0F91508F464C0F5010081F1
:10187000118122813381B901A801442777FD439565
:10188000552766277727D901C80188279927AA27CE
:10189000B07444244A94542C642C7FE1772E411177
:1018A00006C044244A9467E0562E612C712C042112
:1018B000152126213721442309F43FC00C831B83C3
:1018C000890122273327402F440F440F440F407EC5
:1018D000502F53705860452B4A8355E01695079555
:1018E0005A95E1F70983892B8A2B8B2BA1F1892D3E
:1018F00080648D83492D50E0B501685F7F4FCE0134
:1019000006960E94F02145E0490DF701EC0DFD1D02
:10191000E05CFE4FBE016F5F7F4F81810E94C00A75
:1019200048E068E0882D0E94E40A882D0E94AD0AF4
:10193000807799F084E090E012C0A80123E05695EA
:1019400047952A95E1F749830295000F007E0A83A7
:101950001C821B82C8CF892DCCCF90E080E063969B
:101960000FB6F894DEBF0FBECDBFDF91CF911F91B0
:101970000F91FF90EF90DF90CF90BF90AF909F902E
:101980008F907F906F905F904F90089560167106D2
:1019900009F054CF82E090E0E2CF0F931F93CF93F2
:1019A000DF93CDB7DEB767970FB6F894DEBF0FBEF3
:1019B000CDBF8E01085F1F4F087F8BEE92E0A0E045
:1019C000B0E0F80180839183A283B38388E08483AD
:1019D000108611861286138614861686178680E86E
:1019E0008587C8010E94F00BC8010E94F00BC80156
:1019F0000E94F00B67960FB6F894DEBF0FBECDBF06
:101A0000DF91CF911F910F910895E0EDF2E046EB49
:101A100052E060E070E0408351836283738392E020
:101A2000948380871186CF010C94F00B46EC51E033
:101A300060E070E04093D0025093D1026093D202F4
:101A40007093D30294E09093D402813089F080E0C7
:101A50001092D9021092D8028093DB028093DA02AE
:101A600080ED92E00E94F00B80ED92E00C94F00B80
:101A700082E5EECFE0EDF2E04AE352E060E070E0B4
:101A8000408351836283738394E0948391E19087D0
:101A900093EF918782878FE38387CF010E94F00BBA
:101AA00080ED92E00E94F00B80ED92E00C94F00B40
:101AB0008F929F92AF92BF92CF92DF92EF92FF925E
:101AC0001F93CF93DF93CDB7DEB7A0970FB6F894EF
:101AD000DEBF0FBECDBF4B015C010E9458036B01FE
:101AE0007C01198210E00E9458036C197D098E094F
:101AF0009F09681579058A059B0508F045C0A895DA
:101B00008BE993E00E94D903892B69F3A8958BE9AF
:101B100093E00E94EF03E12F1F3150F090E1FE01AE
:101B20007196DE01119601900D929A95E1F7EFE022
:101B300011E01E0F21E030E02C0F3D1F2E0F311D54
:101B4000F9018083E1E0F0E0EC0FFD1FE10FF11DF2
:101B5000108262E771E0CE0101960E942622892B55
:101B600079F281E0A0960FB6F894DEBF0FBECDBF2C
:101B7000DF91CF911F91FF90EF90DF90CF90BF90BA
:101B8000AF909F908F90089580E0ECCFBF92CF925E
:101B9000DF92EF92FF920F931F93CF93DF93CDB716
:101BA000DEB7A2970FB6F894DEBF0FBECDBF0E947E
:101BB000830A80EC0E94DA040E94CB026AE070E0A3
:101BC00080E090E00E9426038E010F5F1F4F8EE0A1
:101BD000F80111928A95E9F74EE0B80180E30E947E
:101BE000C00A4EE0B80180E40E94C00A4EE0B8018D
:101BF00080E50E94C00A60E080E60E942A0B60E057
:101C000080E70E942A0B63EA8BE20E942A0B44E0E1
:101C100067E680E60E94E40A41E067E680E70E940A
:101C2000E40A8CE0E2E1F1E0DE011F9601900D9202
:101C30008A95E1F76E01FFE0CF0ED11CF12CE12C6B
:101C400098E0B92EF601019111916F0180E80E9490
:101C5000FD0A892B61F40230110509F47FC058F5A3
:101C60000115110509F480C00130110579F180E8F2
:101C70000E94FD0A892B61F460E08AE20E942A0B2F
:101C800060EF89E20E942A0B66E888E20E942A0B34
:101C900080E00E94FD0AA2960FB6F894DEBF0FBE48
:101CA000CDBFDF91CF911F910F91FF90EF90DF900B
:101CB000CF90BF9008950430110509F453C008F483
:101CC0004FC00530110599F688E101C084E0F1E0CC
:101CD000EF16F10409F04AC01E8E1D8EBC8E1B8EBD
:101CE00044E0BE01655E7F4F0E94C00A8FEFE81A94
:101CF000F80A96E0E916F10409F0A4CF18A21F8EA5
:101D000081E090E09AA389A38E01015E1F4F6E01CE
:101D1000E3E2CE0ED11C88E0B82EF801E190F190FC
:101D20008F0180E80E94FD0A892B09F0A0CF1E8E4A
:101D30001D8EBC8E1B8EE114F104E9F0EA94EF28AD
:101D400009F095CF84E244E0BE01655E7F4F0E94BA
:101D5000C00A0C151D0509F48ACFDFCF88E0B7CF84
:101D600080E1B5CF84E1B3CF80E0B1CF1B8E1C8E74
:101D70001E8E1D8EB5CF80E2E6CF0F931F93CF93BB
:101D8000DF93CDB7DEB768970FB6F894DEBF0FBE0E
:101D9000CDBF062FBC01CE0101960E94282110E084
:101DA00081E090E08C0F9D1F800F911F0E94940591
:101DB000FE01E00FF11F1186CE0101960E94B707C8
:101DC00068960FB6F894DEBF0FBECDBFDF91CF91FE
:101DD0001F910F910895FF920F931F93CF93DF935D
:101DE000EC01F62E08811981C8010E945121F816D4
:101DF00021F06F2DC8010E945921CE01DF91CF91B2
:101E00001F910F91FF900895FF920F931F93CF930F
:101E1000DF9381E08093BB0200EE12E0D0E0C0E0EF
:101E2000F801F1908F01CE010E945121F81621F0A6
:101E30006F2DCE010E9459212196CE31D10581F717
:101E4000DF91CF911F910F91FF9008951F920F92F4
:101E50000FB60F9211242F933F934F935F936F937D
:101E60007F938F939F93AF93BF93EF93FF938EEFE7
:101E700092E00E94EB01FF91EF91BF91AF919F9192
:101E80008F917F916F915F914F913F912F910F9023
:101E90000FBE0F901F9018951F920F920FB60F92C2
:101EA00011242F938F939F93EF93FF93E0910E0351
:101EB000F0910F038081E0911403F091150382FDEE
:101EC0001BC09081809117038F5F8F73209118033F
:101ED000821741F0E0911703F0E0E250FD4F958F3B
:101EE00080931703FF91EF919F918F912F910F9006
:101EF0000FBE0F901F9018958081F4CF1F920F9204
:101F00000FB60F9211242F933F938F939F93AF930C
:101F1000BF9380911E0290911F02A0912002B09168
:101F2000210230911D0223E0230F2D3758F5019631
:101F3000A11DB11D20931D0280931E0290931F02CC
:101F4000A0932002B093210280912202909123025B
:101F5000A0912402B09125020196A11DB11D80938C
:101F6000220290932302A0932402B0932502BF91F2
:101F7000AF919F918F913F912F910F900FBE0F9036
:101F80001F90189526E8230F0296A11DB11DD2CFF0
:101F90001F920F920FB60F9211242F933F934F93DE
:101FA0005F936F937F938F939F93AF93BF93EF93C1
:101FB000FF93E0912802F0912902309749F0A6851D
:101FC000B7858585968D91FF14C09C918923A1F4D6
:101FD000FF91EF91BF91AF919F918F917F916F9101
:101FE0005F914F913F912F910F900FBE0F901F90D7
:101FF00018959C91892361F7A389B4899C9185895F
:10200000809589238C93868997890197F1F7608D54
:10201000718DA685B785558538E020E0CB01019705
:10202000F1F7822F90E095958795282F4C914523C5
:1020300009F02068315091F7868D81FD20958091BF
:10204000270290E001968F73992730912602381766
:1020500099F0A0912702B0E0A352BE4F2C93809339
:102060002702828D938D0197F1F7A389B4898C9112
:102070009589892B8C93ACCF868D8160868FF1CF2B
:10208000CF93109201031092000388EE93E0A0E03A
:10209000B0E08093020390930303A0930403B093F2
:1020A00005032DE431E03093FF022093FE0225EC7E
:1020B00030E030930B0320930A0324EC30E030939C
:1020C0000D0320930C0320EC30E030930F0320939A
:1020D0000E0321EC30E0309311032093100322EC27
:1020E00030E0309313032093120326EC30E030935A
:1020F00015032093140310921703109218031092E3
:10210000190310921A0310929E0310929D0380935C
:102110009F039093A003A093A103B093A2038FE524
:1021200091E090939C0380939B031092B2031092D2
:10213000B1031092B4031092B3031092B60310923D
:10214000B5031092B8031092B7036091B9036E7F84
:102150006D7F6093B9036695617081E0682783E0C5
:102160000E947F0261E083E00E94D002E4E1F2E09D
:10217000E491E093AB03E8E2F2E0E491F0E0EE0FEB
:10218000FF1FE350FE4F859194919093AD03809390
:10219000AC0360E082E00E94D0028091B90381FD2F
:1021A00004C061E082E00E947F0282E08093A70386
:1021B000E3E1F2E0E491E093A803E7E2F2E0E491E6
:1021C000F0E0EE0FFF1FED50FE4F8591949190933C
:1021D000AA038093A903109253048BEB93E090938E
:1021E000520480935104CFB7F8948091BA038111BF
:1021F00027C0EFE2F2E08491EBE1F2E09491E82F66
:10220000F0E0EE0FFF1FE95FFD4FA591B491EC9157
:10221000E92321F461E08AE00E947F0261E08AE024
:102220000E94D0028CB580618CBD8CB580648CBD61
:1022300061E08DE00E94D00261E08BE00E94D0025C
:102240008091BA038F5F8093BA03CFBF8AE08093F7
:102250004C0480E896E9A8E9B0E080934D0490939F
:102260004E04A0934F04B093500461E08AE00E94B2
:10227000D00261E080914C040E947F02ECEBF3E01D
:102280008CE494E010861186128613863C968E1795
:102290009F07C1F7CF910895CF93DF93CDB7DEB7F6
:1022A000AA970FB6F894DEBF0FBECDBF789484B561
:1022B000826084BD84B5816084BD85B5826085BD42
:1022C00085B5816085BD80916E00816080936E00D0
:1022D00010928100809181008260809381008091C2
:1022E0008100816080938100809180008160809373
:1022F00080008091B10084608093B1008091B00033
:1023000081608093B00080917A00846080937A002D
:1023100080917A00826080937A0080917A00816057
:1023200080937A0080917A00806880937A0010927E
:10233000C100E0910E03F0910F0382E08083E091F1
:102340000A03F0910B031082E0910C03F0910D034E
:1023500080E1808310921603E0911203F091130341
:1023600086E08083E0911003F09111038081806109
:102370008083E0911003F091110380818860808355
:10238000E0911003F0911103808180688083E091D7
:102390001003F091110380818F7D80838CE0EEE14A
:1023A000F1E0DE01119601900D928A95E1F78E0120
:1023B0000F5F1F4F6E012DE0C20ED11CD801FD90A2
:1023C0008D0161E08F2D0E94D00260E08F2D0E9470
:1023D0007F02C016D10691F70E94C60D20EEE22EB4
:1023E00022E0F22E10E000E0C8010E945121F70126
:1023F00081937F010F5F1F4F0E311105A9F783E213
:1024000090E00E94512180933D0287E390E00E947A
:10241000512180933B02B12CA12C04E813E0C12C84
:10242000D12C7601412C512C3201C8010E9451213E
:1024300090E0B0E0A0E00A2C04C0880F991FAA1F0A
:10244000BB1F0A94D2F7482A592A6A2A7B2AC80154
:1024500004960E94512190E0B0E0A0E00A2C04C054
:10246000880F991FAA1FBB1F0A94D2F7C82AD92A1E
:10247000EA2AFB2A0F5F1F4FF8E0AF0EB11C0838A5
:1024800023E0120791F6409271025092720260921C
:10249000730270927402C0926D02D0926E02E0924A
:1024A0006F02F092700281E08093BB0288E199E2B2
:1024B0000FB6F894A895809360000FBE90936000CB
:1024C000AE01415F5F4F5EA34DA38091CF028111AA
:1024D000FFC00E945803613177428105910508F4DD
:1024E000F7C0109253041092B6031092B5031092E5
:1024F000B4031092B3031092B2031092B10382E4BA
:1025000090E09093B8038093B7039091A70396311E
:1025100008F047C02FE030E03093B2032093B103BE
:1025200020E430E03093B4032093B30327E230E09B
:102530003093B6032093B5032091680084E098306F
:1025400048F031E09E3008F430E081E001C0880FAF
:102550003A95EAF7822B809368002DE630E09830B8
:1025600050F02BE630E09E3030F02CE630E0963133
:1025700010F030E020E03093AF032093AE03292F1A
:1025800030E0983008F094C081E001C0880F9A953F
:10259000EAF78093B0038091B7039091B803019755
:1025A000F1F78091B5039091B603892B49F1E09141
:1025B0002802F091290283E0EB39F80709F13097FE
:1025C00039F0A389B4899C918589809589238C935E
:1025D0008091B9038E7F8093B903109227021092E5
:1025E00026028BE993E09093290280932802E091E0
:1025F000AE03F091AF0380819091B003892B80836B
:1026000064EF71E080E090E00E9426038BE993E0A4
:102610000E94D903892B31F064E170E088EC90E0EE
:102620000E94100404E010E0DD24D394015011094D
:1026300009F44BC080915304811147C0A89588E9E3
:1026400090E00E944D0668EE73E080E090E00E940A
:10265000580D882359F38EE0EAE2F1E0DE0111968D
:1026600001900D928A95E1F7DE0111967D01A89502
:10267000F701819191917F010E944F0760ED77E012
:1026800080E090E00E94580D882381F28DA09EA0EA
:102690008E149F0461F7D092530485E890E00E9465
:1026A0004D0668E873E180E090E00E94580DBECFCF
:1026B0009E3040F42850310981E001C0880F2A95EE
:1026C000EAF767CF2E503109F7CF81E08093CF0230
:1026D0000E94830A80EA0E94DA0480E00E94DA0401
:1026E000182F0E94CB0290E080E010FD04C011FF83
:1026F00035C181E090E00E94620B892B09F02EC168
:102700000E94580360932A0270932B0280932C023C
:1027100090932D02209168022E7F20936802809171
:10272000D0029091D102A091D202B091D302813512
:1027300033E09307A105B10509F467C408F02CC282
:102740008A3C52E09507A105B10509F424C3E0F5E0
:102750008337F1E09F07A105B10509F424C48A334A
:1027600032E09307A105B10509F4A3C3823A9105AC
:10277000A105B105C1F59091D802983009F4C6C2FF
:1027800008F0B7C2923009F4BDC28091D9028830F6
:1027900009F4D1C208F0C2C2823009F4C8C2911152
:1027A00022C0811120C01092EC031092F803109205
:1027B00004041092100410921C0410922804109229
:1027C0003404109240040FC08C3F42E09407A105EE
:1027D000B10509F420C308F0C5C1803F9240A105AE
:1027E000B10509F4CEC28091EF03813021F410923B
:1027F000EF038093A7028091FB03813021F41092B4
:10280000FB038093AC0280910704813009F030C44F
:102810001092070481E08093B1028091130481300B
:1028200021F4109213048093B60280911F0481302A
:1028300021F410921F0480939D0280912B0481301B
:1028400099F510922B0490EA892E92E0992EA12CF2
:10285000B12C8092D0029092D102A092D202B0927A
:10286000D30288E08093D40288E88093D8028093D2
:10287000D90280EF8093DA028DE48093DB028FEF40
:102880008093DC028093DD028093DE028093DF027E
:1028900080ED92E00E94F00B80ED92E00E94F00B40
:1028A00080ED92E00E94F00B80914304813021F48E
:1028B000109243048093CA028091BF03833029F4AD
:1028C0001092BF0381E08093A2022091CB032130BC
:1028D00039F51092CB033091680237FB882780F9D5
:1028E00090916902492F4170842B91FB442740F954
:1028F000842B92FB442740F9842B91F032FD10C0C9
:1029000093FD0EC088EC90E0A0E0B0E08093080159
:1029100090930901A0930A01B0930B012093C00288
:102920008091E3038130D1F41092E30380917A0225
:10293000811114C080918E02811110C09091890282
:1029400091119EC38091680283FD9BC391E081E059
:1029500090937A0291E0892780938E020E94580317
:1029600000912A0210912B0220912C0230912D020D
:10297000601B710B820B930B613E73498440910580
:1029800008F456C08091680280FD52C00E94C60DB6
:102990000E94580360932A0270932B0280932C02AA
:1029A00090932D028091680281608093680210925A
:1029B00039024090710250907202609073027090E0
:1029C000740280906D0290906E02A0906F02B090A1
:1029D000700204E813E0F12CE12C1A830983C3018F
:1029E000B2010E2C04C095958795779567950A944A
:1029F000D2F7CE0101960E94EB0EC80104969A838D
:102A00008983C501B4010E2C04C0959587957795EF
:102A100067950A94D2F7CE0101960E94EB0EB8E0BA
:102A2000EB0EF11C0F5F1F4F0838E3E01E07A9F6FD
:102A300080917A02811145C080917F02811141C04D
:102A40008091680286FD3DC090916A02792F717075
:102A500092FB662760F994FB552750F996FB4427B3
:102A600040F98091690284FB332730F9232F27270F
:102A700070FB84F985FB332730F93627322B60FB56
:102A800085F986FB222720F92527322B50FB86F972
:102A900087FB222720F92427232B40FB87F98093EB
:102AA0006902222371F0957580916B02992309F4D4
:102AB000EAC2846080936B026BE088EA90E00E9437
:102AC000BD0E0E945803ECEBF3E021E0C480D580FA
:102AD000E680F7804B015C018C189D08AE08BF08AA
:102AE0007501640139EBC3163BE0D306E104F10440
:102AF00008F01382418130814111CCC2332329F087
:102B0000608771878287938721833C9644E0EC3409
:102B1000F407E1F60091890210916802002311F494
:102B20000C9420200E945803C0908A02D0908B02FF
:102B3000E0908C02F0908D026C197D098E099F093E
:102B400010916802613A7B4B8D40910510F40C9412
:102B5000FC1F84E0023011F40C941C2080918E0242
:102B60000C941C208E32F3E09F07A105B10509F4F7
:102B700029C180339340A105B10509F034CE60919D
:102B8000DB0260933B0287E390E09A838983CE0166
:102B900001960E94EB0E27CE873B33E09307A105F9
:102BA000B10509F44FC208F05AC0833A53E09507C3
:102BB000A105B10509F4C7C0863BE3E09E07A10566
:102BC000B10509F429C28B369340A105B10509F07E
:102BD0000ACE6091D8027091D9024091DA025091E8
:102BE000DB022091DC023091DD028091DE029091C7
:102BF000DF02E0910601F09107016E177F0709F0EF
:102C000076C0E0910401F09105014E175F0709F0CD
:102C10006EC0E0910201F0910301A1E02E173F0781
:102C200041F4E0910001F0910101E817F90709F47E
:102C3000A0E0709307016093060150930501409353
:102C400004013093030120930201909301018093CA
:102C50000001AA2309F4C7CD0E94560AC4CD893BBE
:102C600023E09207A105B10509F4F7C108F4DFC11B
:102C7000893F43E09407A105B10509F499C1823168
:102C80009440A105B10509F0AECDC090D802D09016
:102C9000D902E090DA02F090DB0280E8F81A609145
:102CA000DC027091DD028091DE029091DF0290588B
:102CB00024E230E040E050E00E94CB2120937102FA
:102CC000309372024093730250937402C701B601AD
:102CD00024E230E040E050E00E94CB2120936D02DE
:102CE00030936E0240936F02509370027CCDA1E04E
:102CF000A0CF903279F0903809F047CD81E08093F1
:102D0000100443CD81E08093EC033FCD81E08093BC
:102D1000F8033BCD81E08093040437CD803279F015
:102D2000803809F03CCD81E0809340045CCD81E0A7
:102D300080931C0458CD81E08093280454CD81E019
:102D40008093340450CD8091D802803D49F4809125
:102D5000D9028F3F09F047CD84E00E943A0D43CD60
:102D6000883C09F040CD8091D9028F3F09F03BCDDE
:102D700081E00E943A0D809168028064809368022D
:102D800032CD8091D8028C70883009F02CCD82E051
:102D900080937F0228CD8091D802A5E08A9FC00150
:102DA0001124805991406AE070E00E94952160935F
:102DB00067029C0197FF03C031952195310920934B
:102DC000660211CD2091DB0291E02F3E09F090E0E8
:102DD00080916B0290FB87F980936B022C3319F082
:102DE000806480936B02BAE02B9F90011124C9018B
:102DF0006CE370E00E94952160936502C90166E072
:102E000070E00E949521CB016AE070E00E9495215C
:102E100080936402E8CC80916B029091D80290FB81
:102E200080F980936B028091D902982F937051E0C2
:102E3000913009F050E090916A0250FB90F9909324
:102E40006A0241E0982F9C70943009F040E0909124
:102E50006A0240FB92F990936A0231E0982F9073D6
:102E6000903109F030E090916A0230FB94F9909330
:102E70006A02807C21E0803409F020E080916A02BF
:102E800020FB86F980936A0290916C0290FDABCC96
:102E90008091690250FB84F940FB85F930FB86F98B
:102EA00020FB87F980936902892F816080936C02EF
:102EB0009ACC8091DA02843061F48091DB028F3306
:102EC00009F091CC81E08093C8032F7B20936802A6
:102ED0008ACC8130E1F48091DB028F3309F083CC1E
:102EE00081E08093BC0380916802806480936802D3
:102EF0001092890280916902877F80936902809194
:102F00006B0282FF70CC8B7F80936B026CCC803124
:102F100071F48091DB028F3309F065CC8091DD0282
:102F2000833F09F460CC81E08093D4035CCC8111B1
:102F30002AC08091DB028F3309F055CC8091DC02EE
:102F40008F3F09F050CC8091DD02813F61F4809188
:102F5000680281FD05C091E09093E00382600ECF8E
:102F60001092E00340CC803F09F03DCC1092C803A2
:102F70001092BC031092D403809169028F788F77EE
:102F80008093690230CC803409F02DCC8091DB0233
:102F90008F3309F028CC1092E003809168028D7F76
:102FA00080936802E9CF8091DF0280FB25F98ECF04
:102FB0008091DB02837091E0823009F090E0809193
:102FC000680290FB83F98093680283FD19C08091A9
:102FD00089028823A9F00E94580300918A02109167
:102FE0008B0220918C0230918D02601B710B820B41
:102FF000930B693E73408105910510F01092890290
:103000008091DC0280933902EECB6091DB02609309
:103010003D0283E290E0B9CD91E08091D9028C3FEE
:1030200009F490E08091680290FB87F9A7CE91E0C7
:103030008091D9028C3F09F490E08091690290FB65
:1030400080F99ECF91E08091D802811101C090E07B
:103050008091690290FB81F993CF91E08091D80231
:10306000811101C090E08091690290FB82F988CFC4
:103070008091D703813009F0D0CB1092D703CACB0F
:1030800090E080E065CC8B7F80936B026CE08BE9F5
:1030900090E015CD311139CD12821182C084D184D6
:1030A000E284F3844B015C018C189D08AE08BF08D4
:1030B0007501640138EEC31633E0D306E104F10470
:1030C00008F023CD33813F5F338364837583868328
:1030D00097831BCD61E071E08EE292E00E941F2198
:1030E000892B21F40E94560A0C94CC206BEF70E0DF
:1030F0008EE292E00E941F21892B31F4F89414BED5
:103100000C94003F0C94CC2067EF70E08EE292E0CC
:103110000E941F21892B21F41093A2020C94CC2031
:1031200062EF70E08EE292E00E941F21892B21F471
:10313000109398020C94CC206BEE70E08EE292E03B
:103140000E941F21892B21F4109393020C94CC2010
:1031500066EE70E08EE292E00E941F21892B21F43E
:103160001093A7020C94CC2061EE70E08EE292E006
:103170000E941F21892B21F41093AC020C94CC20C7
:103180006CED70E08EE292E00E941F21892B21F409
:103190001093B1020C94CC2067ED70E08EE292E0C7
:1031A0000E941F21892B19F41093B602F5C762ED16
:1031B00070E08EE292E00E941F21892B39F4809109
:1031C000680283FF03C010938E02E6C76CEC70E0C8
:1031D0008EE292E00E941F21892B21F480916802E7
:1031E00083FF0BC068EC70E08EE292E00E941F212A
:1031F000892B31F41093CA02CFC710937A02CCC73F
:1032000062EC70E08EE292E00E941F21892B19F49B
:103210000E94CD0CC1C76DEB70E08EE292E00E947F
:103220001F21892B79F488E592E0A0E0B0E080933B
:10323000080190930901A0930A01B0930B01F09249
:10324000C002AAC764EB70E08EE292E00E941F21E8
:10325000892B09F0A1C710937A02009384029CC7BE
:103260009F5F90933802808370C70E94580300913B
:103270006002109161022091620230916302601B32
:10328000710B820B930B683E73408105910508F426
:1032900038C10E945803609360027093610280936A
:1032A0006202909363028BE993E00E94D903892B19
:1032B00009F427C1A8958BE993E00E94EF03082F3A
:1032C00010915F021F3168F0E12FE051FF0BAF0159
:1032D0006FE472E08FE392E00E94F92110511093A5
:1032E0005F02E0915F02BB24B394BE0EB0925F0216
:1032F000F0E0E15CFD4F0083CB2CD12CF601E15CCA
:10330000FD4F108265E771E08FE392E00E94262274
:103310007C01009741F26AE070E00E940B228C0170
:10332000892B09F4C0CF6CE270E0C7010E940B2228
:10333000009719F08017910718F010925F02B3CF31
:1033400001960E9401217C010E5312400B1508F4D6
:10335000BDC010925F02E0915F02F0E0E15CFD4FC2
:1033600010821E141F040CF09ECF809153048823FA
:1033700009F499CF66E171E08BE993E00E9449017D
:10338000CE2CD12CF12CE12C2AE0B701A6018BE93F
:1033900093E00E9460066DE671E08BE993E00E9485
:1033A0003E064CE751E062E370E080E197E20E9464
:1033B000C005882309F477CF22E242E270E060E0A2
:1033C00090E080E00E946A04882309F46CCF22E236
:1033D00042E26FE070E084E994E00E946A0488238E
:1033E00009F461CF22E242E270E060E090E080E028
:1033F0000E946A04882309F456CF22E242E270E078
:1034000060E090E080E00E946A04882309F44BCFDA
:103410002DE04AE060E470E084E594E00E946A04F4
:10342000882309F440CF62E370E088EE93E00E94C5
:10343000100480915304882309F463C06DE071E0A7
:103440008BE993E00E9449012AE0B701A6018BE9CC
:1034500093E00E9460066DE671E08BE993E00E94C4
:103460003E0642E751E062E370E088EA91E60E949E
:10347000C005882309F445C062E370E088EE93E05C
:103480000E94100460EE72E084E994E00E9416222B
:10349000892B59F16FEE72E084E994E00E941622C4
:1034A000892B19F16EE971E084E594E00E942F21E7
:1034B000892B09F01CC48091E002882311F164E596
:1034C00074E090E080E00E9466071BC0B801772797
:1034D000A601461B570B615C7D4F8FE392E00E9473
:1034E000F921B01AB0925F0236CF63E971E084E54A
:1034F00094E00E941F21892B09F059C382E0809338
:10350000A702A89580917A02882319F080E00E9492
:10351000710880917F02882319F081E00E94710870
:10352000809184028630C1F5809185029091860257
:10353000A0918702B0918802892B8A2B8B2B51F4A2
:103540000E945803609385027093860280938702DD
:10355000909388020E945803009185021091860280
:103560002091870230918802DC01CB01801B910BF6
:10357000A20BB30B61E08C32F1E09F07A105B1050E
:1035800040F060E0803223E09207A105B10508F029
:10359000D7C389E00E947F0210918E021123A9F106
:1035A00080918F0290919002A0919102B09192022D
:1035B000892B8A2B8B2B51F40E94580360938F0226
:1035C0007093900280939102909392020E9458030C
:1035D000C0908F02D0909002E0909102F090920201
:1035E000DC01CB018C199D09AE09BF09209168024D
:1035F000022F087023FF50C484369105A105B10540
:1036000008F04AC481E00E94E10480919802882376
:1036100021F063E186E00E94DF0780919302882316
:1036200021F062E185E00E94DF0780919D028823FE
:1036300009F441C080919E0290919F02A091A00246
:10364000B091A102892B8A2B8B2B69F40E9458031D
:1036500060939E0270939F028093A0029093A102B8
:1036600081E08093BB020E94580300919E0210915A
:103670009F022091A0023091A102601B710B820B6E
:10368000930B60367A4E8105910558F4809168025B
:1036900083FD11C080916A02857569F481E0809391
:1036A000930210929D0210929E0210929F0210921D
:1036B000A0021092A1021091A2021123C9F11230AE
:1036C00019F480E00E94160D8091A3029091A4024B
:1036D000A091A502B091A602892B8A2B8B2B51F4C5
:1036E0000E9458036093A3027093A4028093A502E2
:1036F0009093A6020E945803C090A302D090A40207
:10370000E090A502F090A602DC01CB018C199D0986
:10371000AE09BF09123009F00CC404E813E020E040
:1037200030E0843FE1E09E07A105B10508F005C443
:103730008091A702882331F04DEC51E061E189E0EE
:103740000E94DE098091AC02882331F043ED51E004
:103750006EE08AE00E94DE098091B102882331F098
:1037600049ED51E060E18BE00E94DE098091B602F4
:10377000882331F04FED51E06FE08CE00E94DE09CC
:103780008091BB028823C9F18091BC029091BD0257
:10379000A091BE02B091BF02892B8A2B8B2B69F4BA
:1037A0000E9458036093BC027093BD028093BE02D6
:1037B0009093BF0281E00E94160D0E945803009171
:1037C000BC021091BD022091BE023091BF02601B6D
:1037D000710B820B930B653671058105910568F0BD
:1037E00080E00E94160D1092BB021092BC02109253
:1037F000BD021092BE021092BF028091CA028823BD
:1038000009F412C160917102709172028091730289
:103810009091740220EA36E841E050E00E94CB210A
:1038200069012B013C01890180906D0290906E022C
:10383000A0906F02B0907002C501B40120EA36E892
:1038400041E050E00E94CB212FA338A749A75AA7F7
:103850002FA038A4C201D301B7FF07C0B095A0952F
:10386000909581959F4FAF4FBF4F3C01C501B4016B
:1038700020EA36E841E050E00E94CB2197FF07C0E4
:1038800090958095709561957F4F8F4F9F4F5B010D
:1038900087E4898380E58A8383E58B83FE01349600
:1038A00017FF08C08DE28C83002711270C191D0912
:1038B000FE013596043611054CF0C80164E670E04F
:1038C0000E949521605D60838C0131960A3011055C
:1038D0004CF0C8016AE070E00E949521605D608351
:1038E000082F3196005D00838EE28183C30160E181
:1038F00077E20E948121605D6283C30168EE73E01C
:103900000E948121CB012AE030E0B9010E9481218F
:10391000805D8383C30164E670E00E948121CB0156
:10392000B9010E948121805D8483C301B9010E9495
:103930008121482FCB01B9010E948121805D8583BF
:10394000405D46838CE287838F0137FC0FC3085F9D
:103950001F4FF4E62F1631045CF0C10164E670E0FD
:103960000E949521605DD8016C931C010F5F1F4F71
:10397000BAE02B1631045CF0C1016AE070E00E94ED
:103980009521605DF8016083282E0F5F1F4F80E353
:10399000820DD8018C938EE211968C93C50160E163
:1039A00077E20E948121605DF8016283C50168EEC3
:1039B00073E00E948121CB012AE030E0B9010E942E
:1039C0008121805D8383C50164E670E00E948121CE
:1039D000CB01B9010E948121805D8483C501B901B9
:1039E0000E948121482FCB01B9010E948121805D75
:1039F0008583405D468380E2878383E28087C801B8
:103A000009960E949405D80151961C921092CA0200
:103A10001092CB021092CC021092CD021092CE02E4
:103A2000CE0101960E94B7071091C002112309F43C
:103A30003FC08091C1029091C202A091C302B09197
:103A4000C402892B8A2B8B2B81F40E94580360932C
:103A5000C1027093C2028093C3029093C4021230D9
:103A600009F09DC381E08093BB020E945803C0907F
:103A7000C102D090C202E090C302F090C402DC0107
:103A8000CB018C199D09AE09BF0940917502123016
:103A900009F097C3843FE1E09E07A105B10508F056
:103AA0006FC2442329F080E00E94050D1092750238
:103AB0008091C502882309F46AC00E9458036B01F3
:103AC0007C018091C6029091C702A091C802B0917A
:103AD000C902892B8A2B8B2B81F4C092C602D0920B
:103AE000C702E092C802F092C902109276021092C8
:103AF000770210927802109279028091C60290911A
:103B0000C702A091C802B091C90246015701881AA4
:103B1000990AAA0ABB0A8091760290917702A09135
:103B20007802B09179020097A105B10569F0A7016B
:103B30009601281B390B4A0B5B0BDA01C901843F44
:103B40009140A105B10550F00E94CD0CC0927602C3
:103B5000D0927702E0927802F092790240E18416E6
:103B600047E29406A104B10490F01092C5021092AD
:103B7000C6021092C7021092C8021092C902109297
:103B8000760210927702109278021092790280E009
:103B900090E0892B11F40C9465120E94D7018823C0
:103BA00011F40C9460120E9400000C9460126FE8F3
:103BB00071E084E594E00E941F21892B21F482E0CA
:103BC0008093B1029ECC6AE871E084E594E00E94A3
:103BD0001F21892B21F482E08093980292CC63E824
:103BE00071E084E594E00E941F21892B21F482E09A
:103BF0008093930286CC6EE771E084E594E00E94A6
:103C00001F21892B21F482E08093C0027ACC68E7DF
:103C100071E084E594E00E941F21892B21F481E06A
:103C20008093C5026ECC64E771E084E594E00E9465
:103C30001F21892B21F482E08093A20262CC6EE6E0
:103C400071E084E594E00E941F21892B21F480918A
:103C5000680283FF14C069E671E084E594E00E9485
:103C60001F21892B81F065E671E084E594E00E94D4
:103C70001F21892B81F481E08093CA0242CC82E02B
:103C800080937F023ECC8091680283FFECCF82E07C
:103C900080938E0236CC6EE571E084E594E00E945C
:103CA0001F21892B19F40E94C1072BCC68E571E014
:103CB00084E594E00E941F21892B29F4F89414BE16
:103CC0000C94003F1ECC6FE471E084E594E00E9408
:103CD0001F21892B09F015CC8091680283FD11CC3E
:103CE00082E080937F0285E0809384020ACC6BE4BB
:103CF00071E084E594E00E942F21892B69F064E94A
:103D000074E080EE92E00E941F220E94040F87E37D
:103D100091E00E94D509F5CB63E371E084E594E07E
:103D20000E942F21892B09F4ECCB64E974E08FEE1B
:103D300092E00E941F220E94040F8FE191E0E9CFE0
:103D400088389341A105B10508F095C089E00E942B
:103D50007F0280916C0281FD1FCC40916B0246FF77
:103D60001BCC80918902823009F016CC80916702C9
:103D70005091660220916502309164029CE799831C
:103D8000FE01329687FF05C09DE29A838195FE0170
:103D9000339684363CF091E3908364E60E9473216D
:103DA000892F31968A303CF06AE00E947321805D51
:103DB0008083892F3196805D80838EE28183852F79
:103DC0006AE00E946721905D92838CE7838347FFBE
:103DD0002AC08FE684838CE6858384E7868382E726
:103DE000878385E6808780E2818784E382878F01ED
:103DF000045F1F4F80E3838723E2D8012D93CD0119
:103E00000E949405F8011186CE0101960E94B70721
:103E100080916C02826080936C0280916B028F7B38
:103E200080936B02B9CBDF012436E0F414962A307C
:103E300040F0822F6AE00E946721805D8C93292FD9
:103E40001196205D2C938EE211968C9311978D0123
:103E50000D5F1F4F832F6AE00E946721905D1296CD
:103E60009C93CACF1596822F64E60E946721805DDD
:103E70008483292FDCCF89E00E947F021092840284
:103E80001092850210928602109287021092880288
:103E900080916C028D7FBFCF8C32F1E09F07A1052E
:103EA000B10510F480E0AFCB803D37E09307A1056A
:103EB000B10508F4AACB287239F48C3F48E0940786
:103EC000A105B10508F49ECB80369940A105B10546
:103ED00050F580E00E94E104002341F080916B02E4
:103EE000846080936B020E94C10706C01330B9F052
:103EF000143079F01230B9F310928E0210928F02C2
:103F000010929002109291021092920210928902E5
:103F10007CCB6DE08FEB91E00E94BD0EEDCF6FE0AA
:103F20008FEA91E0F9CF80E00E94E10410928E02C6
:103F3000EDCF00E911E020E030E080179107A20703
:103F4000B30728F461E084E00E947F02F1CB60E0D7
:103F500084E00E947F021092A2021092A3021092AB
:103F6000A4021092A5021092A602E2CB075F1F4F97
:103F70008DE280872FA038A4319421943108E9CCB8
:103F800004EF11E020E030E0C0900801D09009017A
:103F9000E0900A01F0900B010C0D1D1D2E1D3F1D20
:103FA00080179107A207B30748F4411181CD81E042
:103FB0000E94050D81E0809375027ACD442329F09B
:103FC00080E00E94050D109275021092C0021092BE
:103FD000C1021092C2021092C3021092C40280ED7C
:103FE00097E0A0E0B0E08093080190930901A093CE
:103FF0000A01B0930B015CCD009189020E94580325
:10400000C0908A02D0908B02E0908C02F0908D02DA
:104010006C197D098E099F0961347F4181059105E5
:1040200078F015FD04C080916A02857549F083E03F
:10403000023011F00C94AE1580938E02109289021A
:1040400017FD05C080916902877021E009F020E02A
:1040500090916B0220FB94F990936B0292FB0027E6
:1040600000F9192F117080916A02B82FB17082FB8C
:10407000AA27A0F984FBFF27F0F986FBEE27E0F9D9
:104080003091680233FB772770F960913D025091BF
:104090003B024091390293FBFF24F0F8F0122DC04F
:1040A00095FBFF24F0F82F1128C09695917091137D
:1040B00024C081FB992790F99B131FC083FB99278C
:1040C00090F99A131AC085FB992790F9F91315C036
:1040D00087FB882780F9E81310C03295317073137D
:1040E0000CC080913E02861308C080913C02581398
:1040F00004C080913A02841721F180916B0200FB89
:1041000083F920FB85F910FB81F980936B02809184
:104110006A02B0FB81F9A0FB83F9F0FB85F9E0FBB3
:1041200087F980936A028091680270FB84F980931A
:10413000680260933E0250933C0240933A020E9410
:10414000AC0611E005E082E0F82E8EEF92E00E94CE
:10415000CB01892B09F489C88EEF92E00E94A90156
:1041600090913802E92FF0E0E25DFD4F8A3039F09E
:104170008D3029F0882319F0993008F471C8108225
:1041800066E071E08EE292E00E941F21892B11F01F
:104190000C946A180E94AC0610923802D6CF0E9486
:1041A00058030091C1021091C2022091C3023091C4
:1041B000C402DC01CB01801B910BA20BB30B40911D
:1041C000750200E010E09801DFCE8FE591E090935A
:1041D0009C0380939B0380912802909129028B5924
:1041E000934071F4E091AE03F091AF039081809120
:1041F000B0038095892380831092290210922802AF
:104200000895FC0188279927E89421912032E9F349
:10421000293010F02E30C8F32B3241F02D3239F412
:10422000689404C00E944921820F911D219120535E
:104230002A30C0F31EF4909581959F4F0895FB019D
:10424000DC018D91059080190110D9F3990B089527
:10425000FB01DC0105900D920020E1F70895FB01C0
:1042600055915523A9F0BF01DC014D91451741112E
:10427000E1F759F4CD010590002049F04D9140152A
:104280004111C9F3FB014111EFCF81E090E00197AB
:1042900008957AE0979F902D879F802D910D11248E
:1042A0000895F999FECF92BD81BDF89A992780B5FE
:1042B0000895262FF999FECF1FBA92BD81BD20BD6A
:1042C0000FB6F894FA9AF99A0FBE01960895991BC1
:1042D00079E004C0991F961708F0961B881F7A95FD
:1042E000C9F78095089587FB082E062687FD8195DE
:1042F00067FD61950E9467210EF4919507FC8195F9
:104300000895AA1BBB1B51E107C0AA1FBB1FA6171C
:10431000B70710F0A61BB70B881F991F5A95A9F76E
:1043200080959095BC01CD01089597FB072E16F45A
:10433000009407D077FD09D00E94812107FC05D0A9
:104340003EF4909581959F4F0895709561957F4FAC
:104350000895A1E21A2EAA1BBB1BFD010DC0AA1FC6
:10436000BB1FEE1FFF1FA217B307E407F50720F0DE
:10437000A21BB30BE40BF50B661F771F881F991F59
:104380001A9469F760957095809590959B01AC01A2
:10439000BD01CF010895052E97FB1EF400940E94E5
:1043A000E22157FD07D00E94A92107FC03D04EF45B
:1043B0000C94E22150954095309521953F4F4F4FF9
:1043C0005F4F089590958095709561957F4F8F4FC1
:1043D0009F4F0895EE0FFF1F0590F491E02D099473
:1043E000FB01DC0102C001900D9241505040D8F712
:1043F00008956817790768F4FB01DC01E40FF51FE5
:10440000A40FB51F02C002900E9241505040D8F741
:1044100008950C94F021FC018191861721F08823E6
:10442000D9F7992708953197CF010895FB01DC0151
:104430008D91019080190110D9F3990B0895FB011A
:10444000DC0101900D920020E1F70895FB015191EC
:104450005523A9F0BF01DC014D9145174111E1F74A
:1044600059F4CD010190002049F04D9140154111C2
:10447000C9F3FB014111EFCF81E090E0019708956E
:1044800011E0CEE1D1E004C0FE010E94EA212196B4
:0A449000CF31D107C9F7F894FFCF30
:10449A00FFFFFFFFFFFFFFFFD00700000000010042
:1044AA0002000000010002000300040005000905E3
:1044BA000412110E100F08130607830188019601D2
:1044CA009B01A201AC01BE016061660170717602B6
:1044DA00303136404146505156000000000D026D01
:1044EA00019A015F02CB01A901BD01000000007D14
:1044FA00036D01D7047C03D903EF0364030D0A009B
:10450A003E004F4B002B434D54493A002B434D4735
:10451A00523A00415426460041542B435343533DDB
:10452A002247534D2200415445300041542B434207
:10453A00430041542B434D47463D310041542B43E0
:10454A004E4D493D322C312C302C302C3000415408
:10455A002B43504D533D22534D222C22534D222C96
:06456A0022534D22000067
:00000001FF
