:100000000C9411010C9439010C9439010C94050FD6
:100010000C94050F0C94050F0C9439010C943901C4
:100020000C9439010C9439010C9439010C94390168
:100030000C9439010C9439010C9439010C94390158
:100040000C94BB0E0C9439010C94890E0C94630E25
:100050000C9439010C9439010C9439010C94390138
:100060000C9439010C9439010000000800020100D1
:1000700000030407000000000000000041542B436F
:100080004D4744413D2244454C20414C4C220041C7
:1000900054004252532D436C6F7365642023004219
:1000A00052532D416C61726D202300737461727420
:1000B0005F616300686F726E006C696768740067E7
:1000C00070730073746172740073746F7000626F88
:1000D000783300626F783200626F7831006368694C
:1000E0007564690061707269006777730072657387
:1000F0006574007570646174650041542B434D470D
:10010000443D0041542B434D47523D004E756D65B3
:10011000726F205B325D2053616C7661746F2100D9
:100120005B325D004E756D65726F205B315D2053F3
:10013000616C7661746F21005B315D005374617294
:100140007420414300526573657400557064617496
:1001500065004750530053746F700053746172749C
:1001600000475753004C6967687400486F726E000F
:10017000436869756469004170726900426F780074
:10018000536F7263696E656C6C6900536574204FC0
:10019000574E455220323031323736004252532DBD
:1001A000456D657267656E63792023004252532D59
:1001B00054696D656F7574202300424F58203100DB
:1001C000424F58203200424F582033002200415401
:1001D0002B434D47533D2200000000002300260022
:1001E000290000000000250028002B00000000006E
:1001F000240027002A000102040810204080010288
:10020000040810200102040810200404040404045B
:1002100004040202020202020303030303037D0F2C
:10022000962011241FBECFEFD8E0DEBFCDBF11E076
:10023000A0E0B1E0E0EEF3E402C005900D92AC3C2A
:10024000B107D9F724E0ACECB1E001C01D92A03AAF
:10025000B207E1F711E0C0E1D1E004C02197FE014F
:100260000E948D21CF30D107C9F70E9489100C94CC
:10027000E3210C940000AF92BF92CF92DF92EF92F5
:10028000FF920F931F93CF93DF936C017B018B0140
:10029000040F151FEB015E01AE18BF08C017D10790
:1002A00059F06991D601ED91FC910190F081E02D1A
:1002B000C6010995892B79F7C501DF91CF911F916F
:1002C0000F91FF90EF90DF90CF90BF90AF90089587
:1002D000FC01538D448D252F30E0842F90E0821B4C
:1002E000930B541710F0CF96089501970895FC01D1
:1002F000918D828D981761F0A28DAE0FBF2FB11D29
:100300005D968C91928D9F5F9F73928F90E0089580
:100310008FEF9FEF0895FC01918D828D981731F03A
:10032000828DE80FF11D858D90E008958FEF9FEF8E
:100330000895FC01918D228D892F90E0805C9F4F64
:10034000821B91098F739927089586EF92E00E948E
:10035000990121E0892B09F420E0822F089580E0A3
:1003600090E0892B29F00E94A50181110C940000D6
:100370000895FC01A48DA80FB92FB11DA35ABF4F3A
:100380002C91848D90E001968F739927848FA68994
:10039000B7892C93A089B1898C91837080648C93E8
:1003A000938D848D981306C00288F389E02D808197
:1003B0008F7D80830895EF92FF920F931F93CF93C9
:1003C000DF93EC0181E0888F9B8D8C8D98131AC090
:1003D000E889F989808185FF15C09FB7F894EE8977
:1003E000FF896083E889F9898081837080648083D4
:1003F0009FBF81E090E0DF91CF911F910F91FF901F
:10040000EF900895F62E0B8D10E00F5F1F4F0F73C6
:100410001127E02E8C8D8E110CC00FB607FCFACF81
:10042000E889F989808185FFF5CFCE010E94B90165
:10043000F1CFEB8DEC0FFD2FF11DE35AFF4FF08252
:100440009FB7F8940B8FEA89FB8980818062CFCFB8
:10045000682F86EF92E00C94DB01CF93DF93EC01E1
:10046000888D8823B9F0AA89BB89E889F9898C919C
:1004700085FD03C0808186FD0DC00FB607FCF7CF58
:100480008C9185FFF2CF808185FFEDCFCE010E9458
:10049000B901E9CFDF91CF91089590E0FC01E859CF
:1004A000FF4F2491FC01EA50FE4F3491FC01E65FBE
:1004B000FD4FE491EE23C9F0222339F0233001F1FE
:1004C000A8F4213019F1223029F1F0E0EE0FFF1FDE
:1004D000EE51FE4FA591B4918FB7F894EC91611154
:1004E00026C030953E233C938FBF08952730A9F056
:1004F0002830C9F0243049F7809180008F7D03C0F7
:10050000809180008F7780938000DFCF84B58F77D4
:1005100084BDDBCF84B58F7DFBCF8091B0008F771A
:100520008093B000D2CF8091B0008F7DF9CF3E2B69
:10053000DACF61E0809144040C944D02CF93DF93B5
:1005400090E0FC01EA50FE4F2491865F9D4FFC0134
:1005500084918823D1F090E0880F991FFC01E45129
:10056000FE4FA591B491FC01EE51FE4FC591D4917F
:1005700061110EC09FB7F8948C91E22FE0958E2305
:100580008C932881E223E8839FBFDF91CF91089568
:100590008FB7F894EC91E22BEC938FBFF6CF3FB777
:1005A000F8948091160290911702A0911802B091D0
:1005B000190226B5A89B05C02F3F19F00196A11D71
:1005C000B11D3FBFBA2FA92F982F8827BC01CD019D
:1005D000620F711D811D911D42E0660F771F881FFC
:1005E000991F4A95D1F708958F929F92AF92BF922B
:1005F000CF92DF92EF92FF924B015C010E94CF02FB
:100600006B017C010E94CF026C197D098E099F0944
:10061000683E734081059105A8F321E0821A910894
:10062000A108B10888EEC80E83E0D81EE11CF11CB9
:1006300081149104A104B10429F7FF90EF90DF9099
:10064000CF90BF90AF909F908F9008952FB7F89460
:100650006091120270911302809114029091150220
:100660002FBF089520911C0230911D0228173907D1
:1006700071F490911A0280911B02981741F0E09159
:100680001A02F0E0EF52FE4F808190E008958FEF64
:100690009FEF08950895EF92FF920F931F93CF93CA
:1006A000DF93DC015C96ED90FC905D97E114F10422
:1006B00079F481E090E013969C938E93129790E0EA
:1006C00080E0DF91CF911F910F91FF90EF900895FF
:1006D0005196ED91FC91529750968C915097982F8E
:1006E00090950FB75E962C915E97122F127021FD98
:1006F0006095F8942081112319F1282B2083E701BC
:100700002197F1F728E0462F50E0308160FF1AC0B2
:10071000382B3083E7012197F1F7BA01759567957A
:10072000215089F7112381F08081892380830FBFB5
:100730005C968D919C910197F1F781E090E0C1CF9B
:100740002923DCCF3923E5CF9081892BEFCF0F937D
:100750001F93CF93DF938C01D0E0C0E0F801EC0F42
:10076000FD1F6491662341F083E993E00E944B03EF
:10077000892B11F02196F2CFCE01DF91CF911F91FD
:100780000F91089520911C0230911D0228173907FE
:1007900061F480911B0220911A0290E0805C9F4FCF
:1007A000821B91098F739927089590E080E0089546
:1007B00020911C0230911D0228173907B9F490913D
:1007C0001A0280911B02981789F0E0911A02F0E05A
:1007D000EF52FE4F808120911A0230E02F5F3F4F91
:1007E0002F73332720931A0290E008958FEF9FEF25
:1007F00008954F925F926F927F928F929F92AF92E5
:10080000BF92CF92DF92EF92FF924C016B010E9458
:1008100026032B013C01B12CA12C83E993E00E941B
:10082000C203892B69F40E9426036419750986099D
:100830009709681579058A059B0510F4A895EDCFF1
:1008400083E993E00E94C203892B01F10E942603F1
:100850004B015C01F12CE12CA89583E993E00E9407
:10086000C203892B41F083E993E00E94D8030E94E0
:1008700026034B015C010E942603681979098A0945
:100880009B096C157D058E059F0530F3FF90EF9059
:10089000DF90CF90BF90AF909F908F907F906F90A0
:1008A0005F904F9008954F925F926F927F929F92C8
:1008B000AF92BF92CF92DF92EF92FF920F931F936E
:1008C000CF93DF938C016B01E42E922E009721F0E1
:1008D000672B11F0FC0110820E9426032B013C01C2
:1008E000D0E0C0E0F12C5601F1E0AF1AB108A895B4
:1008F00083E993E00E94C203892B71F083E993E0BE
:100900000E94D803F11015C0FF24F3948E11F12C2E
:100910000E9426032B013C010E94260364197509DD
:1009200086099709623371058105910500F3F12C61
:100930000AC0891119C00115110529F0CD2819F037
:10094000C00FD11F18828F2DDF91CF911F910F9172
:10095000FF90EF90DF90CF90BF90AF909F907F90EF
:100960006F905F904F9008950115110589F2CA1597
:10097000DB0574F6F801EC0FFD1F80832196C8CFCC
:1009800090E080E008958EBD00000DB407FEFDCF1D
:100990008EB50895CF93C82F682F86E00E944D0230
:1009A0006C2F87E0CF910C944D02CF92DF92EF92A3
:1009B000FF9230915C0237FD05C080915D02877027
:1009C00021E009F020E040915F0220FB44F94093D0
:1009D0005F0242FB992790F9892F90E0B0E0A0E0F8
:1009E000BB278695B795AA2799278827417050E09D
:1009F00070E060E0EDE1440F551F661F771FEA9538
:100A0000D1F7842B952BA62BB72B40912D02842B4D
:100A100040915E0240FBCC24C0F8D12CF12CE12C9B
:100A2000FCE1CC0CDD1CEE1CFF1CFA95D1F78C29E7
:100A30009D29AE29BF2942FBCC24C0F8D12CF12C32
:100A4000E12C5BE1CC0CDD1CEE1CFF1C5A95D1F7B0
:100A50008C299D29AE29BF2944FBCC24C0F8D12C78
:100A6000F12CE12C6AE1CC0CDD1CEE1CFF1C6A951C
:100A7000D1F78C299D29AE29BF2946FB442740F98F
:100A800050E070E060E0E9E1440F551F661F771FFA
:100A9000EA95D1F7842B952BA62BB72B33FB442754
:100AA00040F950E070E060E0742F66275527442736
:100AB000842B952BA62BB72B30913102A32B309191
:100AC0002F02932B30E050E040E06EE1220F331F05
:100AD000441F551F6A95D1F7822B932BA42BB52B5E
:100AE0008093610290936202A0936302B0936402C8
:100AF000FF90EF90DF90CF9008954F925F926F92AA
:100B00007F928F929F92AF92BF92CF92DF92EF929D
:100B1000FF920F931F93CF93DF934C017B016A01E8
:100B20000E9426032B013C01B12CA12C83E993E008
:100B30000E94C203892B69F40E9426036419750977
:100B400086099709681579058A059B0510F4A8950B
:100B5000EDCF83E993E00E94C203892BD1F1F60126
:100B600001900020E9F731978F010C191D090E94AF
:100B700026034B015C01D0E0C0E011272701712C56
:100B8000612CA89583E993E00E94C203892BB1F000
:100B900083E993E00E94D803F601EC0FFD1F9081DA
:100BA000981306C02196C017D10721F481E012C026
:100BB000D0E0C0E00E9426034B015C010E942603A6
:100BC000681979098A099B096415750586059705D1
:100BD000C0F280E0DF91CF911F910F91FF90EF90D5
:100BE000DF90CF90BF90AF909F908F907F906F904D
:100BF0005F904F900895FB0101900020E9F7319735
:100C0000AF01461B570BDC01ED91FC910280F38193
:100C1000E02D0994CF93DF930E94A703EC0164E6D3
:100C200071E083E993E00E94FB058C0F9D1FDF912B
:100C3000CF9108958F929F92AF92BF92EF92FF92C1
:100C40000F931F93CF93DF93CDB7DEB7A1970FB666
:100C5000F894DEBF0FBECDBF7C01FA01CB0119A213
:100C6000223008F42AE08E010F5D1F4F822E912C56
:100C7000B12CA12CBF01A50194010E944C21F901C6
:100C8000CA016A300CF5605DD8016E938D01232B8B
:100C9000242B252B79F790E080E0109721F0BD01FF
:100CA000C7010E94FB05A1960FB6F894DEBF0FBEE8
:100CB000CDBFDF91CF911F910F91FF90EF90BF902B
:100CC000AF909F908F900895695CDECFCF93DF93B4
:100CD0000E94D50483E20E94280240915B0250E00A
:100CE00070E060E02AE086EF92E00E941A068EE251
:100CF0000E94280240915A0250E070E060E02AE031
:100D000086EF92E00E941A0683E20E942802409138
:100D1000590250E070E060E02AE086EF92E00E9425
:100D20001A068EE20E9428024091580250E070E0BC
:100D300060E02AE086EF92E00E941A0683E20E94B9
:100D40002802CCE1D0E08091610290916202A091F2
:100D50006302B09164020C2E04C0B695A7959795D6
:100D600087950A94D2F78F708A3080F4805D0E9454
:100D700028022497CC3F8FEFD80729F764E671E06B
:100D800086EF92E0DF91CF910C94FB05895CEFCF69
:100D9000CF93DF93D0E0C0E0009731F0BC0183E94E
:100DA00093E00E94FB05EC0164E671E083E993E0C7
:100DB0000E94FB058C0F9D1FDF91CF9108950F932B
:100DC0001F93CF93DF9320914B04211107C0C0E004
:100DD0008C2FDF91CF911F910F9108958B01EC0122
:100DE0008EEC91E00E94A70368ED72E083E993E046
:100DF0000E94FB058CEC91E00E940A0647E651E058
:100E000064EF71E088EE93E00E947D058823F9F29B
:100E100062E370E088EE93E00E94F9032097D1F03E
:100E2000CE010E940A066AE183E993E00E944B0327
:100E300049E651E068E873E188E59BE10E947D05A1
:100E4000C82F882321F262E370E088EE93E00E94CD
:100E5000F903BECFC8010E94C806E5CF2091D80291
:100E6000222329F0BC0190E080E00C94DF06089575
:100E7000CF93DF93CDB7DEB72B970FB6F894DEBFD5
:100E80000FBECDBF0E94D50483E2898340916102E9
:100E9000509162026091630270916402FE01329689
:100EA0002CE130E0DB01CA01022E04C0B695A79503
:100EB000979587950A94D2F78F708A30B0F4805D49
:100EC0008193245031092C3F8FEF380759F71A8648
:100ED000CE0101960E942E072B960FB6F894DEBF26
:100EE0000FBECDBFDF91CF910895895CE9CF8F927E
:100EF0009F92AF92BF92EF92FF920F931F93CF9367
:100F0000DF93F82EE62E082F10E025E0829FE00107
:100F10001124CE58DD4F89809A80AB80BC8081142B
:100F20009104A104B10489F40E94260369837A83A1
:100F30008B839C83DF91CF911F910F91FF90EF9056
:100F4000BF90AF909F908F9008950E942603DC0180
:100F5000CB0188199909AA09BB0961E08C3231E0FB
:100F60009307A105B105F0F0803921E09207A105B2
:100F7000B10570F461E08E2DDF91CF911F910F913B
:100F8000FF90EF90BF90AF909F908F900C944D0288
:100F900060E08C3B9240A105B10530F48E2D0E949B
:100FA0004D0260E085E0E8CF8E2D0E944D0260E0AA
:100FB00085E00E944D02988180915F02923031F469
:100FC000282F217036E0F31203C021F08B7F03C07D
:100FD0002223E1F3846080935F0285E0809FF0012B
:100FE000819FF00D1124EE58FD4F10821182128264
:100FF00013821482923009F09DCFDF91CF911F911F
:101000000F91FF90EF90BF90AF909F908F900C94B6
:101010003807CF92DF92EF92FF920F931F93CF93F7
:10102000C82F0E9426036B017C010C2F10E025E0E5
:10103000C29FF0011124EE58FD4F81819281A3815E
:10104000B481892B8A2B8B2B59F4C182D282E38203
:10105000F4828091D0018330E0F48F5F8093D001DF
:1010600085E0809FF001819FF00D1124EE58FD4F27
:1010700081819281A381B481A7019601281B390B3C
:101080004A0B5B0BDA01C901883C9105A105B1054A
:1010900058F461E085E0CF911F910F91FF90EF90A0
:1010A000DF90CF900C944D02883532E09307A10574
:1010B000B10528F483E1C11182E161E0ECCF8C3B02
:1010C00042E09407A105B10528F483E1C11182E152
:1010D00060E0E1CF20915C02322F387023FD12C016
:1010E000CC23D1F0883E53E09507A105B10560F40B
:1010F00081E0CF911F910F91FF90EF90DF90CF9003
:101100000C94CA04CC2341F08C3444E09407A1052C
:10111000B10510F480E0EDCF287259F4C1117DC003
:10112000803243E09407A105B10580F461E088E0D6
:10113000B2CF203249F4C111C8C0883E43E09407C1
:10114000A105B10518F4D4CFC1116EC0843145E0BA
:101150009407A105B105F0F248EB5BE060E070E0B8
:101160006EC0332321F160E088E00E944D0260E010
:1011700085E00E944D0280915C028D7F80935C022D
:1011800080917C02853019F486E080937C02109275
:10119000D00185E0809FF001819FF00D1124EE5871
:1011A000FD4F1082118212821382148286C08091B8
:1011B000D0018330D0F485E0809FF001819FF00D55
:1011C0001124EE58FD4F118212821382148282E0A4
:1011D000C11101C081E095E0909FF001919FF00D59
:1011E0001124EE58FD4F808368C060E088E00E94C3
:1011F0004D0260E085E00E944D0280915F028460B4
:1012000080935F02C1110E9438071092D001809133
:101210005C028D7F80935C02BCCF803B54E09507DD
:10122000A105B10508F482CF843A56E09507A105DF
:10123000B10508F46FCF48E45DE060E070E084172A
:101240009507A607B70708F08CCF2832B1F560E004
:1012500088E00E944D0260E085E00E944D02CC23B0
:1012600089F082E080938102C0928202D092830250
:10127000E0928402F092850280917C02811102C08A
:101280000E9438071092D00180915C028D7F80937C
:101290005C0285E0809FF001819FF00D1124EE58E3
:1012A000FD4F1082118212821382148280917C027F
:1012B000853019F486E080937C02CF911F910F91C5
:1012C000FF90EF90DF90CF900895883755E0950715
:1012D000A105B10508F40CCFA7CF2091D802222395
:1012E00021F070E060E00C94DF0608958F929F92E9
:1012F000AF92BF92DF92EF92FF920F931F93CF9323
:10130000DF93D62E7A01082F10E025E0829FE001BE
:101310001124CE58DD4F89819A81AB81BC81892B04
:101320008A2B8B2B49F40E94260369837A838B8353
:101330009C8381E08093AE020E94260325E0209FDB
:10134000F001219FF00D1124EE58FD4F8180928015
:10135000A380B480DC01CB0188199909AA09BB09D3
:1013600061E0843F21E09207A105B10530F08032B1
:101370009340A105B10578F460E08D2DDF91CF9108
:101380001F910F91FF90EF90DF90BF90AF909F90D3
:101390008F900C944D028081823019F4C7010E9415
:1013A0006D0960E08D2D0E944D0285E0809FF00167
:1013B000819FF00D1124EE58FD4F10821182128290
:1013C00013821482DF91CF911F910F91FF90EF90C4
:1013D000DF90BF90AF909F908F9008950F931F93D1
:1013E000009145041091460420914704309148042F
:1013F00040E052E16AE770E080E004171507260735
:10140000370740F476956795579547958F5F8630F7
:10141000A1F787E0982F906A9695809581709CBD82
:101420008DBD60E0809144041F910F910C944D029A
:10143000CF93C82F0E94EE0983E00E94C3048C2F33
:101440000E94C30480E00E94C304C82F0E94990236
:101450008C2FCF910895FF920F931F93CF93DF931B
:10146000C82FF62E172F042F0E94EE0982E00E944B
:10147000C3048C2F0E94C304CF2DD12F0C0F1D2F1E
:10148000111DC017D10721F089910E94C304F9CF23
:10149000DF91CF911F910F91FF900C9499021F93B0
:1014A000CF93DF93182FD62FC42F0E94EE0985E02B
:1014B0000E94C304812F0E94C3048D2F0E94C30485
:1014C0008C2F0E94C304DF91CF911F910C9499023D
:1014D000CF92DF92EF92FF92CF93C82F482F60EE0A
:1014E0008FE00E944F0A0E9426036B017C012AE0D4
:1014F000C20ED11CE11CF11C0E9426036C157D0557
:101500008E059F0580F48EE00E94180A807EC81325
:10151000F3CF81E091E0892790E0CF91FF90EF90A9
:10152000DF90CF90089580E0F5CFCF93DF93D82F51
:10153000C62F0E94EE0982E00E94C3048D2F0E94F4
:10154000C3048C2F0E94C304DF91CF910C949902A5
:10155000FF920F931F93CF93DF93C82FF62E172F71
:10156000042F0E94EE0983E00E94C3048C2F0E9486
:10157000C304CF2DD12F0C0F1D2F111DC017D10764
:1015800029F080E00E94C3048993F8CFDF91CF91C6
:101590001F910F91FF900C949902BF92CF92DF920E
:1015A000EF92FF920F931F93CF93DF9300D000D061
:1015B0001F92CDB7DEB78C01000F111F000F111F56
:1015C000F801E15DFE4F45E0BE016F5F7F4F818115
:1015D0000E94A80A8A81C98098E0C99E60011124EE
:1015E000282F30E055E0359527955A95E1F7C20E42
:1015F000D31E0D2C000CEE08FF0883FF20C092E0E4
:10160000CC0CDD1CEE1CFF1C9A95D1F78370C80E24
:10161000D11CE11CF11CFE2CED2CDC2CCC248B818C
:10162000C80ED11CE11CF11CFE2CED2CDC2CCC24B2
:101630008C81C80ED11CE11CF11C6894F7F88D81D7
:101640008F70B82EE8E081E090E0EB1528F1F8010A
:10165000E15DFE4F80810E94180A83FF02C06894FA
:10166000F6F8C092C802D092C902E092CA02F09283
:10167000CB02B092CC02015D1E4F4B2D60ED72E0AB
:10168000F80182810E94A80A40E0F80163818CE29F
:101690000E944F0A90E080E00F900F900F900F9003
:1016A0000F90DF91CF911F910F91FF90EF90DF90FE
:1016B000CF90BF9008954F925F926F927F928F92DA
:1016C0009F92AF92BF92CF92DF92EF92FF920F93D1
:1016D0001F93CF93DF93CDB7DEB763970FB6F89420
:1016E000DEBF0FBECDBFFC012481293008F08DC0C4
:1016F0005C0186E0E4E0F1E0DE011E9601900D92CF
:101700008A95E1F73E01FEE06F0E711C8E010C5EC2
:101710001F4FF301C190D1903F017601EE0CFF1CE9
:10172000F701EC0DFD1DE95CFE4F8080882D0E94C5
:10173000180A83FD96C0F5019480F8E0F91508F4C5
:1017400064C0F5010081118122813381B901A801B2
:10175000442777FD4395552766277727D901C80188
:1017600088279927AA27B07444244A94542C642CBF
:101770007FE1772E411106C044244A9467E0562E3B
:10178000612C712C0421152126213721442309F4D1
:101790003FC00C831B83890122273327402F440F2E
:1017A000440F440F407E502F53705860452B4A839E
:1017B00055E0169507955A95E1F70983892B8A2BF1
:1017C0008B2BA1F1892D80648D83492D50E0B501CB
:1017D000685F7F4FCE0106960E94932145E0490D38
:1017E000F701EC0DFD1DE95CFE4FBE016F5F7F4F01
:1017F00081810E942B0A48E068E0882D0E944F0AF0
:10180000882D0E94180A807799F084E090E012C039
:10181000A80123E0569547952A95E1F7498302955B
:10182000000F007E0A831C821B82C8CF892DCCCF7B
:1018300090E080E063960FB6F894DEBF0FBECDBF98
:10184000DF91CF911F910F91FF90EF90DF90CF909C
:10185000BF90AF909F908F907F906F905F904F90D0
:1018600008956016710609F054CF82E090E0E2CF4F
:101870000F931F93CF93DF93CDB7DEB767970FB664
:10188000F894DEBF0FBECDBF8E01085F1F4F087FEB
:101890008BEE92E0A0E0B0E0F80180839183A28318
:1018A000B38388E08483108611861286138614869B
:1018B0001686178680E88587C8010E945B0BC801E1
:1018C0000E945B0BC8010E945B0B67960FB6F894F1
:1018D000DEBF0FBECDBFDF91CF911F910F91089555
:1018E000E8ECF2E046EB52E060E070E040835183C8
:1018F0006283738392E0948380871186CF010C9476
:101900005B0B46EC51E060E070E04093C8025093FE
:10191000C9026093CA027093CB0294E09093CC0208
:10192000813089F080E01092D1021092D002809331
:10193000D3028093D20288EC92E00E945B0B88EC89
:1019400092E00C945B0B82E5EECFE8ECF2E04AE328
:1019500052E060E070E0408351836283738394E0DF
:10196000948391E1908793EF918782878FE38387B8
:10197000CF010E945B0B88EC92E00E945B0B88EC2D
:1019800092E00C945B0B8F929F92AF92BF92CF929A
:10199000DF92EF92FF921F93CF93DF93CDB7DEB725
:1019A000A0970FB6F894DEBF0FBECDBF4B015C0110
:1019B0000E9426036B017C01198210E00E9426031D
:1019C0006C197D098E099F09681579058A059B05A3
:1019D00008F045C0A89583E993E00E94C203892BD3
:1019E00069F3A89583E993E00E94D803E12F1F31A2
:1019F00050F090E1FE017196DE01119601900D927A
:101A00009A95E1F7EFE011E01E0F21E030E02C0F96
:101A10003D1F2E0F311DF9018083E1E0F0E0EC0F56
:101A2000FD1FE10FF11D108269E671E0CE01019604
:101A30000E94C921892B79F281E0A0960FB6F89413
:101A4000DEBF0FBECDBFDF91CF911F91FF90EF9012
:101A5000DF90CF90BF90AF909F908F90089580E0DF
:101A6000ECCFBF92CF92DF92EF92FF920F931F9332
:101A7000CF93DF93CDB7DEB7A2970FB6F894DEBF52
:101A80000FBECDBF0E94EE0980EC0E94C3040E94ED
:101A900099026AE070E080E090E00E94F4028E011A
:101AA0000F5F1F4F8EE0F80111928A95E9F74EE023
:101AB000B80180E30E942B0A4EE0B80180E40E9446
:101AC0002B0A4EE0B80180E50E942B0A60E080E618
:101AD0000E94950A60E080E70E94950A63EA8BE223
:101AE0000E94950A44E067E680E60E944F0A41E0C2
:101AF00067E680E70E944F0A8CE0EAE0F1E0DE0151
:101B00001F9601900D928A95E1F76E01FFE0CF0ECE
:101B1000D11CF12CE12C98E0B92EF6010191119124
:101B20006F0180E80E94680A892B61F40230110578
:101B300009F47FC058F50115110509F480C0013082
:101B4000110579F180E80E94680A892B61F460E050
:101B50008AE20E94950A60EF89E20E94950A66E88F
:101B600088E20E94950A80E00E94680AA2960FB659
:101B7000F894DEBF0FBECDBFDF91CF911F910F91C3
:101B8000FF90EF90DF90CF90BF9008950430110543
:101B900009F453C008F44FC00530110599F688E1E7
:101BA00001C084E0F1E0EF16F10409F04AC01E8E96
:101BB0001D8EBC8E1B8E44E0BE01655E7F4F0E9471
:101BC0002B0A8FEFE81AF80A96E0E916F10409F0FB
:101BD000A4CF18A21F8E81E090E09AA389A38E0162
:101BE000015E1F4F6E01E3E2CE0ED11C88E0B82EDD
:101BF000F801E190F1908F0180E80E94680A892B3A
:101C000009F0A0CF1E8E1D8EBC8E1B8EE114F10438
:101C1000E9F0EA94EF2809F095CF84E244E0BE01B0
:101C2000655E7F4F0E942B0A0C151D0509F48ACFB3
:101C3000DFCF88E0B7CF80E1B5CF84E1B3CF80E0DC
:101C4000B1CF1B8E1C8E1E8E1D8EB5CF80E2E6CFCF
:101C5000FF920F931F93CF93DF93EC01F62E088131
:101C60001981C8010E940221F81621F06F2DC801C8
:101C70000E940A21CE01DF91CF911F910F91FF9019
:101C80000895FF920F931F93CF93DF9381E080938A
:101C9000AE0208ED12E0D0E0C0E0F801F1908F0153
:101CA000CE010E940221F81621F06F2DCE010E9474
:101CB0000A212196CE31D10581F7DF91CF911F9175
:101CC0000F91FF9008951F920F920FB60F9211245B
:101CD0002F933F934F935F936F937F938F939F9334
:101CE000AF93BF93EF93FF9386EF92E00E94B90109
:101CF000FF91EF91BF91AF919F918F917F916F91E4
:101D00005F914F913F912F910F900FBE0F901F90B9
:101D100018951F920F920FB60F9211242F938F9345
:101D20009F93EF93FF93E0910603F0910703808167
:101D3000E0910C03F0910D0382FD1BC09081809116
:101D40000F038F5F8F7320911003821741F0E09192
:101D50000F03F0E0EA50FD4F958F80930F03FF9142
:101D6000EF919F918F912F910F900FBE0F901F9029
:101D700018958081F4CF1F920F920FB60F92112405
:101D80002F933F938F939F93AF93BF9380911202B2
:101D900090911302A0911402B0911502309111029A
:101DA00023E0230F2D3758F50196A11DB11D209377
:101DB00011028093120290931302A0931402B09325
:101DC00015028091160290911702A0911802B0910D
:101DD00019020196A11DB11D80931602909317025E
:101DE000A0931802B0931902BF91AF919F918F9168
:101DF0003F912F910F900FBE0F901F90189526E8DE
:101E0000230F0296A11DB11DD2CF1F920F920FB6C4
:101E10000F9211242F933F934F935F936F937F9370
:101E20008F939F93AF93BF93EF93FF93E0911C0227
:101E3000F0911D02309749F0A685B7858585968D6E
:101E400091FF14C09C918923A1F4FF91EF91BF9160
:101E5000AF919F918F917F916F915F914F913F9142
:101E60002F910F900FBE0F901F9018959C91892372
:101E700061F7A389B4899C918589809589238C9386
:101E8000868997890197F1F7608D718DA685B78551
:101E9000558538E020E0CB010197F1F7822F90E0E3
:101EA00095958795282F4C91452309F0206831504E
:101EB00091F7868D81FD209580911B0290E001961F
:101EC0008F73992730911A02381799F0A0911B024D
:101ED000B0E0AF52BE4F2C9380931B02828D938D46
:101EE0000197F1F7A389B4898C919589892B8C93FB
:101EF000ACCF868D8160868FF1CFCF931092F9029F
:101F00001092F80288EE93E0A0E0B0E08093FA022D
:101F10009093FB02A093FC02B093FD0224E431E015
:101F20003093F7022093F60225EC30E03093030360
:101F30002093020324EC30E0309305032093040344
:101F400020EC30E0309307032093060321EC30E0CF
:101F5000309309032093080322EC30E030930B0305
:101F600020930A0326EC30E030930D0320930C03FA
:101F700010920F031092100310921103109212038B
:101F80001092960310929503809397039093980371
:101F9000A0939903B0939A0386E591E090939403FC
:101FA000809393031092AA031092A9031092AC039A
:101FB0001092AB031092AE031092AD031092B003D7
:101FC0001092AF036091B1036E7F6D7F6093B10398
:101FD0006695617081E0682783E00E944D0261E0B0
:101FE00083E00E949E02E9EFF1E0E491E093A30315
:101FF000EDE0F2E0E491F0E0EE0FFF1FEE51FE4F56
:10200000859194919093A5038093A40360E082E06E
:102010000E949E028091B10381FD04C061E082E0D4
:102020000E944D0282E080939F03E8EFF1E0E4918B
:10203000E093A003ECE0F2E0E491F0E0EE0FFF1F8C
:10204000E852FE4F859194919093A2038093A1034F
:1020500010924B0483EB93E090934A0480934904DD
:10206000CFB7F8948091B203811127C0E4E1F2E088
:102070008491E0E0F2E09491E82FF0E0EE0FFF1F92
:10208000E451FE4FA591B491EC91E92321F461E074
:102090008AE00E944D0261E08AE00E949E028CB5B7
:1020A00080618CBD8CB580648CBD61E08DE00E9448
:1020B0009E0261E08BE00E949E028091B2038F5FDE
:1020C0008093B203CFBF8AE08093440480E896E90E
:1020D000A8E9B0E08093450490934604A093470498
:1020E000B093480461E08AE00E949E0261E0809122
:1020F00044040E944D02E4EBF3E084E494E0108693
:102100001186128613863C968E179F07C1F7CF91D2
:102110000895CF93DF93CDB7DEB7AC970FB6F894A1
:10212000DEBF0FBECDBF789484B5826084BD84B518
:10213000816084BD85B5826085BD85B5816085BDC2
:1021400080916E00816080936E001092810080917A
:102150008100826080938100809181008160809302
:102160008100809180008160809380008091B10027
:1021700084608093B1008091B00081608093B00052
:1021800080917A00846080937A0080917A008260E6
:1021900080937A0080917A00816080937A008091A8
:1021A0007A00806880937A001092C100E091060363
:1021B000F091070382E08083E0910203F091030332
:1021C0001082E0910403F091050380E18083109276
:1021D0000E03E0910A03F0910B0386E08083E09107
:1021E0000803F0910903808180618083E0910803F6
:1021F000F0910903808188608083E0910803F09169
:102200000903808180688083E0910803F0910903CD
:1022100080818F7D80838BE0E6E1F1E0DE01119625
:1022200001900D928A95E1F78E010F5F1F4F9E017D
:10223000245F3F4F3EA32DA3D801FD908D0161E0A7
:102240008F2D0E949E0260E08F2D0E944D028DA076
:102250009EA00815190581F70E94310D38EDE32E77
:1022600032E0F32E10E000E0C8010E940221D70105
:102270008D937D010F5F1F4F0E311105A9F783E28A
:1022800090E00E9402218093310287E390E00E9457
:10229000022180932F02F12CE12C04E813E0412C61
:1022A000512C3201812C912C5401C8010E94022131
:1022B00090E0B0E0A0E00E2C04C0880F991FAA1F88
:1022C000BB1F0A94D2F7882A992AAA2ABB2AC801D6
:1022D00004960E94022190E0B0E0A0E00E2C04C021
:1022E000880F991FAA1FBB1F0A94D2F7482A592AA0
:1022F0006A2A7B2A0F5F1F4FB8E0EB0EF11C0838EB
:10230000E3E01E0791F68092690290926A02A09221
:102310006B02B0926C02409265025092660260922B
:1023200067027092680281E08093AE0288E199E2D0
:102330000FB6F894A895809360000FBE909360004C
:102340009E01215F3F4F38A72FA38091C2028111C8
:10235000FFC00E942603613177428105910508F490
:10236000F7C010924B041092AE031092AD0310927E
:10237000AC031092AB031092AA031092A90382E45B
:1023800090E09093B0038093AF0390919F039631B8
:1023900008F047C02FE030E03093AA032093A90350
:1023A00020E430E03093AC032093AB0327E230E02D
:1023B0003093AE032093AD032091680084E0983001
:1023C00048F031E09E3008F430E081E001C0880F31
:1023D0003A95EAF7822B809368002DE630E098303A
:1023E00050F02BE630E09E3030F02CE630E09631B5
:1023F00010F030E020E03093A7032093A603292FAC
:1024000030E0983008F094C081E001C0880F9A95C0
:10241000EAF78093A8038091AF039091B0030197EE
:10242000F1F78091AD039091AE03892B49F1E091D2
:102430001C02F0911D0243E0E339F40709F13097E3
:1024400039F0A389B4899C918589809589238C93DF
:102450008091B1038E7F8093B10310921B02109282
:102460001A0283E993E090931D0280931C02E0918D
:10247000A603F091A70380819091A803892B808304
:1024800064EF71E080E090E00E94F40283E993E061
:102490000E94C203892B31F064E170E088EC90E087
:1024A0000E94F90304E010E0DD24D39401501109E7
:1024B00009F44BC080914B04811147C0A8958FE867
:1024C00090E00E940A0668EE73E080E090E00E94CF
:1024D000C30C882359F38EE0E1E2F1E0DE011196AE
:1024E00001900D928A95E1F7CE0101967C01A895A5
:1024F000D7018D919D917D010E94C80660ED77E026
:1025000080E090E00E94C30C882381F28FA098A401
:102510008E149F0461F7D0924B048CE790E00E94E8
:102520000A0668E873E180E090E00E94C30CBECF29
:102530009E3040F42850310981E001C0880F2A956F
:10254000EAF767CF2E503109F7CF81E08093C202BE
:102550000E94EE0980EA0E94C30480E00E94C30446
:10256000182F0E94990290E080E010FD04C011FF36
:1025700075C181E090E00E94CD0A892B09F06EC1FF
:102580000E94260360931E0270931F028093200214
:102590009093210220915C022E7F20935C02809117
:1025A000C8029091C902A091CA02B091CB028033B7
:1025B00033E09307A105B10509F485C308F063C0B2
:1025C0008A3C52E09507A105B10509F4EEC208F076
:1025D0003DC08337F1E09F07A105B10509F402C4AE
:1025E0008A3332E09307A105B10509F479C3823A31
:1025F0009105A105B10509F07EC09091D0029830F7
:1026000009F466C208F057C2923009F45DC28091A5
:10261000D102883009F471C208F062C2823009F434
:1026200068C2911168C0811166C01092E4031092D3
:10263000F0031092FC0310920804109214041092FC
:10264000200410922C041092380455C08C3F42E0B4
:102650009407A105B10509F4E8C28E3253E095074D
:10266000A105B10509F4B8C2803F9240A105B105AA
:1026700009F041C08091D0028C708830E1F582E091
:102680008093770238C0873BF3E09F07A105B1052F
:1026900009F4F0C3D0F4833A33E09307A105B10500
:1026A00009F465C2863B43E09407A105B10509F42E
:1026B000CBC381359340A105B105E9F46091D30204
:1026C0006093310283E290E004C3893BE3E09E071C
:1026D000A105B10509F4D9C308F4C1C3893F23E0BA
:1026E0009207A105B10509F482C382319440A10586
:1026F000B10509F40AC28091E703813021F41092F8
:10270000E70380939F028091F303813021F41092BC
:10271000F3038093A4028091FF03813009F0C0C3CA
:102720001092FF0381E08093A90280910B04813015
:1027300021F410920B048093BD0280911704813024
:1027400021F4109217048093950280912304813024
:1027500099F51092230420EA822E22E0922EA12CD9
:10276000B12C8092C8029092C902A092CA02B09283
:10277000CB0288E08093CC0288E88093D0028093DB
:10278000D10280EF8093D2028DE48093D3028FEF49
:102790008093D4028093D5028093D6028093D7028F
:1027A00088EC92E00E945B0B88EC92E00E945B0B4D
:1027B00088EC92E00E945B0B8091B703833029F490
:1027C0001092B70381E080939A022091C3032130D5
:1027D00039F51092C30330915C0237FB882780F9EA
:1027E00090915D02492F4170842B91FB442740F961
:1027F000842B92FB442740F9842B91F032FD10C0CA
:1028000093FD0EC088EC90E0A0E0B0E08093000162
:1028100090930101A0930201B09303012093B302AE
:102820008091DB038130D1F41092DB03809172023E
:10283000811114C080918602811110C09091810293
:10284000911136C380915C0283FD33C391E081E036
:102850009093720291E08927809386020E9426035A
:1028600000911E0210911F0220912002309121023E
:10287000601B710B820B930B613E73498440910581
:1028800008F456C080915C0280FD52C00E94310D58
:102890000E94260360931E0270931F028093200201
:1028A0009093210280915C02816080935C0210927F
:1028B0002D024090690250906A0260906B02709005
:1028C0006C028090650290906602A0906702B090C2
:1028D000680204E813E0F12CE12C1A830983C30198
:1028E000B2010E2C04C095958795779567950A944B
:1028F000D2F7CE0101960E94280EC80104969A8351
:102900008983C501B4010E2C04C0959587957795F0
:1029100067950A94D2F7CE0101960E94280EB8E07E
:10292000EB0EF11C0F5F1F4F0838E3E01E07A9F6FE
:102930008091720281116DC080917702811169C00E
:1029400080915C0286FD65C090915E02792F717066
:1029500092FB662760F994FB552750F996FB4427B4
:1029600040F980915D0284FB332730F9232F27271C
:1029700070FB84F985FB332730F93627322B60FB57
:1029800085F986FB222720F92527322B50FB86F973
:1029900087FB222720F92427232B40FB87F98093EC
:1029A0005D022223B1F1957580915F02992309F4AC
:1029B00084C2846080935F026FE970E0CE0101966B
:1029C0000E94D9204091610250916202609163029D
:1029D00070916402FE013C962CE130E0DB01CA01FB
:1029E000022E04C0B695A795979587950A94D2F7BD
:1029F0008F708A3008F05FC2805D81932450310966
:102A00002C3F8FEF380751F71C8ACE0101960E94A8
:102A10002E070E942603E4EBF3E024E434E041E0D7
:102A2000C480D580E680F7804B015C018C189D083E
:102A3000AE08BF087501640159EBC5165BE0D50609
:102A4000E104F10408F01382A1815081A11163C255
:102A5000552329F0608771878287938741833C964D
:102A60002E173F07E9F60091810210915C020023C6
:102A700011F40C94D01F0E942603C0908202D090C3
:102A80008302E0908402F09085026C197D098E0922
:102A90009F0910915C02613A7B4B8D40910510F4C7
:102AA0000C94AC1F84E0023011F40C94CC1F809184
:102AB00086020C94CC1F903279F0903809F0A7CDA3
:102AC00081E080930804A3CD81E08093E4039FCD4F
:102AD00081E08093F0039BCD81E08093FC0397CD50
:102AE000803279F0803809F09CCD81E08093380401
:102AF00002CE81E080931404FECD81E08093200417
:102B0000FACD81E080932C04F6CDC090D002D09015
:102B1000D102E090D202F090D30240E8F41A609122
:102B2000D4027091D5028091D6029091D70290582C
:102B300024E230E040E050E00E946E2120936902E0
:102B400030936A0240936B0250936C02C701B60146
:102B500024E230E040E050E00E946E2120936502C4
:102B6000309366024093670250936802C4CD80910F
:102B7000D002803D49F48091D1028F3F09F0BBCD56
:102B800084E00E94A50CB7CD883C09F0B4CD8091BB
:102B9000D1028F3F09F0AFCD81E00E94A50C80915A
:102BA0005C02806480935C02A6CD8091D00255E0E7
:102BB000859FC0011124805991406AE070E00E9415
:102BC000382160935B029C0197FF03C031952195EA
:102BD000310920935A028FCD2091D30291E02F3EEC
:102BE00009F090E080915F0290FB87F980935F028B
:102BF0002C3319F0806480935F028AE0289F900153
:102C00001124C9016CE370E00E94382160935902DD
:102C1000C90166E070E00E943821CB016AE070E0F3
:102C20000E9438218093580266CD80915F02909176
:102C3000D00290FB80F980935F028091D102982F9F
:102C4000937051E0913009F050E090915E0250FB9A
:102C500090F990935E0241E0982F9C70943009F0B7
:102C600040E090915E0240FB92F990935E0231E069
:102C7000982F9073903109F030E090915E0230FB14
:102C800094F990935E02807C21E0803409F020E08A
:102C900080915E0220FB86F980935E029091600233
:102CA00090FD29CD80915D0250FB84F940FB85F9B0
:102CB00030FB86F920FB87F980935D02892F8160C4
:102CC0008093600218CD6091D30260932F0287E356
:102CD00090E09A838983CE0101960E94280E0BCD45
:102CE0008091D202843061F48091D3028F3309F055
:102CF00002CD81E08093C0032F7B20935C02FBCC4C
:102D0000813021F58091D3028F3309F0F4CC81E03A
:102D10008093B40380915C02806480935C02109283
:102D2000810280915D02877F80935D0280916102C4
:102D300090916202A0916302B0916402B7FFDBCC74
:102D400080915F028B7F80935F02D5CC803171F4DC
:102D50008091D3028F3309F0CECC8091D502833F8E
:102D600009F4C9CC81E08093CC03C5CC81112AC081
:102D70008091D3028F3309F0BECC8091D4028F3F73
:102D800009F0B9CC8091D502813F61F480915C0259
:102D900081FD05C091E09093D803826003CF10922B
:102DA000D803A9CC803F09F0A6CC1092C0031092A2
:102DB000B4031092CC0380915D028F788F7780935B
:102DC0005D0299CC803409F096CC8091D3028F3388
:102DD00009F091CC1092D80380915C028D7F809392
:102DE0005C02E9CF8091D70280FB25F986CF8091E4
:102DF000D302837091E0823009F090E080915C0210
:102E000090FB83F980935C0283FD19C0809181025D
:102E10008823A9F00E942603009182021091830268
:102E20002091840230918502601B710B820B930B01
:102E3000693E73408105910510F0109281028091E6
:102E4000D40280932D0257CC91E08091D1028C3F27
:102E500009F490E080915C0290FB87F9A3CE91E0A9
:102E60008091D1028C3F09F490E080915D0290FB4B
:102E700080F9A5CF91E08091D002811101C090E04E
:102E800080915D0290FB81F99ACF91E08091D00210
:102E9000811101C090E080915D0290FB82F98FCF9B
:102EA0008091CF03813009F040CC1092CF033ACC0F
:102EB00090E080E0CDCC895CA0CD8B7F80935F02D9
:102EC00062E970E0CE0101960E94D9204091610232
:102ED000509162026091630270916402FE013D961E
:102EE0002CE130E0DB01CA01022E04C0B695A795A3
:102EF000979587950A94D2F78F708A3050F4805D49
:102F00008193245031092C3F9FEF390759F71D8ACF
:102F10007CCD895CF5CF5111A2CD12821182C08483
:102F2000D184E284F3844B015C018C189D08AE08C7
:102F3000BF087501640158EEC51653E0D506E104DB
:102F4000F10408F08CCD53815F5F538364837583F4
:102F50008683978384CD6DEE70E082E292E00E94DA
:102F6000D020892B29F4F8940C94003F0C947D20F8
:102F700069EE70E082E292E00E94D020892B21F479
:102F800010939A020C947D2064EE70E082E292E04D
:102F90000E94D020892B21F4109390020C947D2064
:102FA0006DED70E082E292E00E94D020892B21F446
:102FB00010938B020C947D2068ED70E082E292E029
:102FC0000E94D020892B21F410939F020C947D2025
:102FD00063ED70E082E292E00E94D020892B21F420
:102FE0001093A4020C947D206EEC70E082E292E0DB
:102FF0000E94D020892B21F41093A9020C947D20EB
:1030000069EC70E082E292E00E94D020892B41F4CA
:1030100080915C0283FF04C0109386020C947D2093
:1030200063EC70E082E292E00E94D020892B21F4D0
:1030300080915C0283FF0CC06FEB70E082E292E053
:103040000E94D020892B41F41093BD020C947D2066
:10305000109372020C947D2069EB70E082E292E0A2
:103060000E94D020892B21F40E94380C0C947D20E2
:1030700064EB70E082E292E00E94D020892B91F410
:1030800088E5882E82E0982EA12CB12C8092000138
:1030900090920101A0920201B0920301F092B3025A
:1030A0000C947D206BEA70E082E292E00E94D020D6
:1030B000892B11F00C947D201093720200937C02F6
:1030C0000C947D209F5F90932C028083EEC70E941A
:1030D000260300915402109155022091560230911E
:1030E0005702601B710B820B930B683E7340810586
:1030F000910508F434C10E94260360935402709332
:103100005502809356029093570283E993E00E9400
:10311000C203892B09F423C1A89583E993E00E9497
:10312000D803082F109153021F3168F0812F80516E
:10313000990BAC0163E472E083E392E00E949C216E
:10314000105110935302E0915302BB24B394BE0E6E
:10315000B0925302F0E0ED5CFD4F0083CB2CD12CFC
:10316000F601ED5CFD4F10826CE671E083E392E0C6
:103170000E94C9217C01009741F26AE070E00E9440
:10318000AE218C01892B09F4C0CF6CE270E0C7013D
:103190000E94AE21009719F08017910718F0109245
:1031A0005302B3CF01960E94B2207C010253124019
:1031B0000B1508F4B9C010925302E0915302F0E0ED
:1031C000ED5CFD4F10821E141F040CF09ECF809109
:1031D0004B04882309F499CF83E091E00E94A70370
:1031E000CE2CD12CF12CE12C2AE0B701A60183E9E9
:1031F00093E00E941A0664E671E083E993E00E947E
:10320000FB0543E751E062E370E080E197E20E9452
:103210007D05882309F479CF22E242E270E060E084
:1032200090E080E00E945304882309F46ECF22E2EC
:1032300042E26FE070E08CE894E00E94530488233F
:1032400009F463CF22E242E270E060E090E080E0C7
:103250000E945304882309F458CF22E242E270E02E
:1032600060E090E080E00E945304882309F44DCF91
:103270002DE04AE060E470E08CE494E00E945304A6
:10328000882309F442CF62E370E088EE93E00E9465
:10329000F90380914B04882309F461C08AEF90E020
:1032A0000E94A7032AE0B701A60183E993E00E94E8
:1032B0001A0664E671E083E993E00E94FB0549E6A3
:1032C00051E062E370E088EA91E60E947D05882380
:1032D00009F445C062E370E088EE93E00E94F903D0
:1032E00068ED72E08CE894E00E94B921892B59F1D5
:1032F00067EE72E08CE894E00E94B921892B19F105
:103300006BE871E08CE494E00E94E020892B09F0E6
:1033100032C48091D802882311F16CE474E090E00B
:1033200080E00E94DF061BC0B8017727A601461B7C
:10333000570B6D5C7D4F83E392E00E949C21B01A95
:10334000B09253023ACF60E871E08CE494E00E94BE
:10335000D020892B09F070C382E080939F02A8954A
:1033600080917202882319F080E00E940908809100
:103370007702882319F081E00E94090880917C027D
:103380008630C1F580917D0290917E02A0917F02EE
:10339000B0918002892B8A2B8B2B51F40E9426033B
:1033A00060937D0270937E0280937F0290938002EF
:1033B0000E94260300917D0210917E0220917F02DF
:1033C00030918002DC01CB01801B910BA20BB30B6F
:1033D00061E08C32E1E09E07A105B10540F060E0BC
:1033E0008032F3E09F07A105B10508F0EDC389E045
:1033F0000E944D02109186021123A9F1809187024B
:1034000090918802A0918902B0918A02892B8A2B1F
:103410008B2B51F40E9426036093870270938802DD
:103420008093890290938A020E942603C0908702AB
:10343000D0908802E0908902F0908A02DC01CB01F2
:103440008C199D09AE09BF0920915C02022F0870FA
:1034500023FF7EC484369105A105B10508F078C428
:1034600081E00E94CA0480919002882321F063E1E8
:1034700086E00E94770780918B02882321F062E129
:1034800085E00E94770780919502882309F441C066
:103490008091960290919702A0919802B091990222
:1034A000892B8A2B8B2B69F40E942603609396024A
:1034B00070939702809398029093990281E0809391
:1034C000AE020E942603009196021091970220916D
:1034D000980230919902601B710B820B930B60363E
:1034E0007A4E8105910558F480915C0283FD11C0EC
:1034F00080915E02857569F481E080938B02109261
:1035000095021092960210929702109298021092D1
:10351000990210919A021123C9F1123019F480E036
:103520000E94810C80919B0290919C02A0919D022F
:10353000B0919E02892B8A2B8B2B51F40E9426037B
:1035400060939B0270939C0280939D0290939E02D5
:103550000E942603C0909B02D0909C02E0909D02A6
:10356000F0909E02DC01CB018C199D09AE09BF09C8
:10357000123009F08CC404E813E020E030E0843F0E
:10358000E1E09E07A105B10508F085C480919F0286
:10359000882331F04AEB51E061E189E00E9476092D
:1035A0008091A402882331F040EC51E06EE08AE083
:1035B0000E9476098091A902882331F046EC51E0FF
:1035C00060E18BE00E9476098091AE028823C9F108
:1035D0008091AF029091B002A091B102B091B2027D
:1035E000892B8A2B8B2B69F40E9426036093AF02F0
:1035F0007093B0028093B1029093B20281E00E9476
:10360000810C0E9426030091AF021091B00220911C
:10361000B1023091B202601B710B820B930B6536C5
:1036200071058105910568F080E00E94810C10927F
:10363000AE021092AF021092B0021092B10210923C
:10364000B2028091BD02882309F433C160916902FE
:1036500070916A0280916B0290916C0220EA36E8C8
:1036600041E050E00E946E2169012B013C0189017B
:103670008090650290906602A0906702B090680208
:10368000C501B40120EA36E841E050E00E946E2115
:1036900029A73AA74BA75CA729A43AA4C201D30142
:1036A000B7FF07C0B095A095909581959F4FAF4FFC
:1036B000BF4F3C01C501B40120EA36E841E050E0CB
:1036C0000E946E2197FF07C0909580957095619537
:1036D0007F4F8F4F9F4F5B0187E4898380E58A830B
:1036E00083E58B83FE01349617FF08C08DE28C833F
:1036F000002711270C191D09FE0135960436110506
:103700004CF0C80164E670E00E943821605D60837F
:103710008C0131960A3011054CF0C8016AE070E066
:103720000E943821605D6083082F3196005D008320
:103730008EE28183C30160E177E20E942421605D13
:103740006283C30168EE73E00E942421CB012AE06A
:1037500030E0B9010E942421805D8383C30164E6C7
:1037600070E00E942421CB01B9010E942421805DD8
:103770008483C301B9010E942421482FCB01B901E0
:103780000E942421805D8583405D46838CE287838F
:103790009F0137FC99C3285F3F4FF4E62F16310491
:1037A0005CF0C10164E670E00E943821605DD901DF
:1037B0006C931C012F5F3F4FBAE02B1631045CF075
:1037C000C1016AE070E00E943821605DF901608308
:1037D000282E2F5F3F4F80E3820DD9018C938EE21C
:1037E00011968C93C50160E177E20E942421605D0F
:1037F000F9016283C50168EE73E00E942421CB01C8
:10380000EAE0F0E0BF010E942421805DD901139617
:103810008C93C50164E670E00E942421CB01BF01B6
:103820000E942421805DD90114968C93C501BF01AB
:103830000E942421482FCB01BF010E942421805DDA
:10384000F9018583405D468380E2878383E2808738
:10385000C0906102D0906202E0906302F090640236
:1038600039968CE190E0B701A601082E04C0769548
:103870006795579547950A94D2F74F704A3008F0EC
:103880002DC3405D419304978C3F4FEF940759F748
:10389000D90151961C921092BD021092BE02109254
:1038A000BF021092C0021092C102CE0101960E9486
:1038B0002E071091B302112309F43FC08091B40286
:1038C0009091B502A091B602B091B702892B8A2BD4
:1038D0008B2B81F40E9426036093B4027093B5028F
:1038E0008093B6029093B702123009F009C481E0C8
:1038F0008093AE020E942603C090B402D090B5021D
:10390000E090B602F090B702DC01CB018C199D0962
:10391000AE09BF0940916D02123009F003C4843F23
:10392000E1E09E07A105B10508F0DAC2442329F0C1
:1039300080E00E94700C10926D028091B802882382
:1039400009F46AC00E9426036B017C018091B902D0
:103950009091BA02A091BB02B091BC02892B8A2B34
:103960008B2B81F4C092B902D092BA02E092BB02D2
:10397000F092BC0210926E0210926F0210927002CE
:10398000109271028091B9029091BA02A091BB028B
:10399000B091BC0246015701881A990AAA0ABB0ACB
:1039A00080916E0290916F02A0917002B0917102AD
:1039B0000097A105B10569F0A7019601281B390BF5
:1039C0004A0B5B0BDA01C901843F9140A105B105A7
:1039D00050F00E94380CC0926E02D0926F02E092BA
:1039E0007002F092710240E1841647E29406A1044D
:1039F000B10490F01092B8021092B9021092BA027B
:103A00001092BB021092BC0210926E0210926F02D2
:103A1000109270021092710280E090E0892B11F4F4
:103A20000C94A5110E94A501882311F40C94A011F7
:103A30000E9400000C94A0116CE771E08CE494E00B
:103A40000E94D020892B21F482E08093A90287CCA8
:103A500067E771E08CE494E00E94D020892B21F488
:103A600082E0809390027BCC60E771E08CE494E08C
:103A70000E94D020892B21F482E080938B026FCCAE
:103A80006BE671E08CE494E00E94D020892B21F455
:103A900082E08093B30263CC65E671E08CE494E04D
:103AA0000E94D020892B21F481E08093B80257CC6A
:103AB00061E671E08CE494E00E94D020892B21F42F
:103AC00082E080939A024BCC6BE571E08CE494E049
:103AD0000E94D020892B21F480915C0283FF14C0C6
:103AE00066E571E08CE494E00E94D020892B81F09F
:103AF00062E571E08CE494E00E94D020892B81F48F
:103B000081E08093BD022BCC82E08093770227CCAA
:103B100080915C0283FFECCF82E0809386021FCC11
:103B20006BE471E08CE494E00E94D020892B19F4BE
:103B30000E94380714CC65E471E08CE494E00E94A4
:103B4000D020892B21F4F8940C94003F08CC6CE32E
:103B500071E08CE494E00E94D020892B09F0FFCB27
:103B600080915C0283FDFBCB82E08093770285E04D
:103B700080937C02F4CB68E371E08CE494E00E94D3
:103B8000E020892B69F06CE874E088ED92E00E94F7
:103B9000C2210E94410E84E291E00E946D09DFCBB8
:103BA00060E271E08CE494E00E94E020892B09F44B
:103BB000D6CB6CE874E087EE92E00E94C2210E94AE
:103BC000410E8CE091E0E9CF88389341A105B10521
:103BD00008F0ADC089E00E944D028091600281FD35
:103BE00009CC20915F0226FF05CC809181028230B2
:103BF00009F000CC80915B0230915A024091590249
:103C0000509158029CE79983FE013296843640F029
:103C100064E60E941821805D8A83892FFE01339615
:103C20008A3038F06AE00E941821805D8083892FF5
:103C30003196805D80838EE28183832F6AE00E94CB
:103C40001821905D92838CE7838327FF45C08FE620
:103C500084838CE6858384E7868382E7878385E691
:103C6000808780E2818784E38287DF011C9680E37E
:103C70008387FD0183E281930091610210916202CA
:103C800020916302309164028CE190E0B901A801B7
:103C9000082E04C076956795579547950A94D2F7F4
:103CA0004F704A3008F041C0405D419304978C3F0B
:103CB0004FEF940759F719961C92CE0101960E9476
:103CC0002E078091600282608093600280915F0283
:103CD0008F7B80935F028ECB9F014436E0F42C5F94
:103CE0003F4F4A3050F0842F6AE00E941821805DD7
:103CF000D9018C93492F2F5F3F4F405DF9014083DD
:103D00008EE28183D9011396852F6AE00E941821E3
:103D1000905D9283AECF2B5F3F4F842F64E60E946D
:103D20001821805D8483492FDCCF495CBECF89E0B8
:103D30000E944D0210927C0210927D0210927E022F
:103D400010927F0210928002809160028D7FBCCF22
:103D50008C3251E09507A105B10510F480E081CBCC
:103D6000803DE7E09E07A105B10508F47CCB2872F1
:103D700039F48C3FF8E09F07A105B10508F470CB3A
:103D800080369940A105B10508F07BC080E00E9413
:103D9000CA04002341F080915F02846080935F0237
:103DA0000E94380707C0133009F440C0143079F07E
:103DB0001230B1F31092860210928702109288029C
:103DC0001092890210928A02109281024CCB6CEA06
:103DD00071E0CE0101960E94D9204091610250917C
:103DE00062026091630270916402FE013E962CE1D2
:103DF00030E0DB01CA01022E04C0B695A795979565
:103E000087950A94D2F78F708A3070F4805D819321
:103E1000245031092C3F8FEF380759F71E8ACE0105
:103E200001960E942E07C6CF895CF1CF6CE971E044
:103E3000CE0101960E94D920409161025091620208
:103E40006091630270916402FE0170962CE130E093
:103E5000DB01CA01022E04C0B695A79597958795F8
:103E60000A94D2F78F708A3050F4805D8193245089
:103E700031092C3F9FEF390759F7188ED0CF895C55
:103E8000F5CF80E00E94CA04109286029DCF00E91F
:103E900011E020E030E080179107A207B30728F473
:103EA00061E084E00E944D0271CB60E084E00E94FA
:103EB0004D0210929A0210929B0210929C02109254
:103EC0009D0210929E0262CB275F3F4F8DE280875A
:103ED00029A43AA43194219431085FCC495CD2CC16
:103EE00004EF11E020E030E0C0900001D09001012B
:103EF000E0900201F09003010C0D1D1D2E1D3F1DD1
:103F000080179107A207B30748F4411116CD81E04D
:103F10000E94700C81E080936D020FCD442329F044
:103F200080E00E94700C10926D021092B302109209
:103F3000B4021092B5021092B6021092B70280ED50
:103F400097E0A0E0B0E08093000190930101A0937E
:103F50000201B0930301F1CC009181020E9426037B
:103F6000C0908202D0908302E0908402F09085029B
:103F70006C197D098E099F0961347F418105910586
:103F800078F015FD04C080915E02857549F083E0EC
:103F9000023011F00C945715809386021092810222
:103FA00017FD05C080915D02877021E009F020E0D7
:103FB00090915F0220FB94F990935F0292FB00279F
:103FC00000F9192F117080915E02B82FB17082FB39
:103FD000AA27A0F984FBFF27F0F986FBEE27E0F97A
:103FE00030915C0233FB772770F960913102509178
:103FF0002F0240912D0293FBFF24F0F8F0122DC008
:1040000095FBFF24F0F82F1128C096959170191395
:1040100024C081FB992790F9B9131FC083FB99270E
:1040200090F99A131AC085FB992790F9F91315C0D6
:1040300087FB882780F98E1310C0329531703713B3
:104040000CC080913202861308C080913002851323
:1040500004C080912E02841721F180915F0200FB41
:1040600083F920FB85F910FB81F980935F02809131
:104070005E02B0FB81F9A0FB83F9F0FB85F9E0FB60
:1040800087F980935E0280915C0270FB84F98093D3
:104090005C02609332025093300240932E020E94E1
:1040A000660611E005E092E0F92E86EF92E00E94AC
:1040B0009901892B09F40BC886EF92E00E947701E1
:1040C00090912C02E92FF0E0EE5DFD4F8A3041F037
:1040D0008D3031F0882321F0993010F40C9462185F
:1040E000108263EF70E082E292E00E94D020892B80
:1040F00011F00C94AB170E94660610922C02D5CFDB
:104100000E9426030091B4021091B5022091B602DC
:104110003091B702DC01CB01801B910BA20BB30BDA
:1041200040916D0200E010E09801DECE86E591E05E
:10413000909394038093930380911C0290911D02AD
:104140008359934071F4E091A603F091A703908105
:104150008091A80380958923808310921D0210927C
:104160001C020895FC0188279927E89421912032A8
:10417000E9F3293010F02E30C8F32B3241F02D3204
:1041800039F4689404C00E94FA20820F911D219195
:1041900020532A30C0F31EF4909581959F4F0895C7
:1041A000FB01DC018D91059080190110D9F3990B69
:1041B0000895FB01DC0105900D920020E1F70895C0
:1041C000FB0155915523A9F0BF01DC014D91451725
:1041D0004111E1F759F4CD010590002049F04D91CE
:1041E00040154111C9F3FB014111EFCF81E090E08F
:1041F000019708957AE0979F902D879F802D910DCC
:1042000011240895F999FECF92BD81BDF89A99279E
:1042100080B50895262FF999FECF1FBA92BD81BDB2
:1042200020BD0FB6F894FA9AF99A0FBE0196089538
:10423000991B79E004C0991F961708F0961B881FF8
:104240007A95C9F780950895AA1BBB1B51E107C059
:10425000AA1FBB1FA617B70710F0A61BB70B881F16
:10426000991F5A95A9F780959095BC01CD010895A5
:1042700097FB072E16F4009407D077FD09D00E9413
:10428000242107FC05D03EF4909581959F4F089519
:10429000709561957F4F0895A1E21A2EAA1BBB1B52
:1042A000FD010DC0AA1FBB1FEE1FFF1FA217B30702
:1042B000E407F50720F0A21BB30BE40BF50B661F18
:1042C000771F881F991F1A9469F7609570958095DC
:1042D00090959B01AC01BD01CF010895052E97FB80
:1042E0001EF400940E94852157FD07D00E944C21A6
:1042F00007FC03D04EF40C948521509540953095E1
:1043000021953F4F4F4F5F4F089590958095709541
:1043100061957F4F8F4F9F4F0895EE0FFF1F0590C0
:10432000F491E02D0994FB01DC0102C001900D9293
:1043300041505040D8F708956817790768F4FB0199
:10434000DC01E40FF51FA40FB51F02C002900E920E
:1043500041505040D8F708950C949321FC0181916D
:10436000861721F08823D9F7992708953197CF012F
:104370000895FB01DC018D91019080190110D9F3A2
:10438000990B0895FB01DC0101900D920020E1F7EB
:104390000895FB0151915523A9F0BF01DC014D9116
:1043A00045174111E1F759F4CD010190002049F082
:1043B0004D9140154111C9F3FB014111EFCF81E04F
:1043C00090E00197089511E0C0E1D1E004C0FE0142
:1043D0000E948D212196C131D107C9F7F894FFCFF2
:1043E000D0070000000001000200000001000200F0
:1043F00003000400050009050412110E100813063D
:10440000077A017F018D0192019901A301B5016035
:104410006166017071760230313640414650515626
:1044200000000000DB013B0168012D0299017701CA
:104430008B01000000004B033B01C0044A03C20390
:10444000D80332030D0A003E004F4B002B434D545E
:10445000493A002B434D47523A0041542646004109
:10446000542B435343533D2247534D22004154455F
:10447000300041542B4342430041542B434D4746A7
:104480003D310041542B434E4D493D322C312C30AF
:104490002C302C300041542B43504D533D22534D72
:0C44A000222C22534D222C22534D2200CE
:00000001FF
