:100000000C941C010C9444010C9444010C94980F22
:100010000C94980F0C94980F0C9444010C94440188
:100020000C9444010C9444010C9444010C9444013C
:100030000C9444010C9444010C9444010C9444012C
:100040000C944E0F0C9444010C941C0F0C94F60E5F
:100050000C9444010C9444010C9444010C9444010C
:100060000C9444010C9444014E410000000008002F
:10007000020100000304070000000000000000412E
:10008000542B434D4744413D2244454C20414C4C68
:100090002200415400545952453A004252532D43D4
:1000A0006C6F7365642023004252532D416C617262
:1000B0006D20230073746172745F616300686F72F6
:1000C0006E006C69676874006770730073746172A6
:1000D000740073746F7000706F727400626F7833A5
:1000E00000626F783200626F78310063686975640E
:1000F0006900617072690067777300726573657477
:10010000007570646174650041542B434D47443D54
:100110000041542B434D47523D004E756D65726F43
:10012000205B325D2053616C7661746F21005B321D
:100130005D004E756D65726F205B315D2053616CA3
:100140007661746F21005B315D00537461727420BD
:1001500041430052657365740055706461746500B5
:100160004750530053746F700053746172740047AA
:100170005753004C6967687400486F726E0043689B
:1001800069756469004170726900426F7800536F4D
:100190007263696E656C6C6900536574204F574ECD
:1001A000455220323031323736004252532D456DA0
:1001B000657267656E63792023004252532D54693E
:1001C0006D656F7574202300424F58203100424FF7
:1001D00058203200424F58203300504F52544F4E57
:1001E0004500220041542B434D47533D220000005F
:1001F0000000230026002900000000002500280040
:100200002B0000000000240027002A00010204083F
:100210001020408001020408102001020408102070
:10022000040404040404040402020202020203039C
:10023000030303031010D42011241FBECFEFD8E016
:10024000DEBFCDBF11E0A0E0B1E0E8E7F4E402C01A
:1002500005900D92A63DB107D9F724E0A6EDB1E0D7
:1002600001C01D92A83AB207E1F711E0CBE1D1E05D
:1002700004C02197FE010E94D921CA31D107C9F7D4
:100280000E941C110C942F220C940000EF92FF92FC
:100290000F931F93CF93DF938C017B01D0E0C0E0DD
:1002A000F701EC0FFD1F6491662361F0D801ED9119
:1002B000FC910190F081E02DC8010995892B11F086
:1002C0002196EECFCE01DF91CF911F910F91FF903C
:1002D000EF900895AF92BF92CF92DF92EF92FF928C
:1002E0000F931F93CF93DF936C017B018B01040F5E
:1002F000151FEB015E01AE18BF08C017D10759F0FA
:100300006991D601ED91FC910190F081E02DC6013B
:100310000995892B79F7C501DF91CF911F910F9135
:10032000FF90EF90DF90CF90BF90AF900895FC01C9
:10033000538D448D252F30E0842F90E0821B930B4A
:10034000541710F0CF96089501970895FC01918DF0
:10035000828D981761F0A28DAE0FBF2FB11D5D96F3
:100360008C91928D9F5F9F73928F90E008958FEF95
:100370009FEF0895FC01918D828D981731F0828D49
:10038000E80FF11D858D90E008958FEF9FEF0895A0
:10039000FC01918D228D892F90E0805C9F4F821B04
:1003A00091098F73992708958EEF92E00E94C801FA
:1003B00021E0892B09F420E0822F089580E090E06D
:1003C000892B29F00E94D40181110C94000008951A
:1003D000FC01A48DA80FB92FB11DA35ABF4F2C91BA
:1003E000848D90E001968F739927848FA689B789B1
:1003F0002C93A089B1898C91837080648C93938DA8
:10040000848D981306C00288F389E02D80818F7D4A
:1004100080830895EF92FF920F931F93CF93DF9302
:10042000EC0181E0888F9B8D8C8D98131AC0E88930
:10043000F989808185FF15C09FB7F894EE89FF89FF
:100440006083E889F98980818370806480839FBF9D
:1004500081E090E0DF91CF911F910F91FF90EF909D
:100460000895F62E0B8D10E00F5F1F4F0F731127AD
:10047000E02E8C8D8E110CC00FB607FCFACFE889E8
:10048000F989808185FFF5CFCE010E94E801F1CF87
:10049000EB8DEC0FFD2FF11DE35AFF4FF0829FB75C
:1004A000F8940B8FEA89FB8980818062CFCF682F17
:1004B0008EEF92E00C940A02CF93DF93EC01888DCB
:1004C0008823B9F0AA89BB89E889F9898C9185FDCF
:1004D00003C0808186FD0DC00FB607FCF7CF8C915D
:1004E00085FFF2CF808185FFEDCFCE010E94E8012C
:1004F000E9CFDF91CF91089590E0FC01E559FF4FDE
:100500002491FC01E45FFD4F3491FC01E05EFD4F5E
:10051000E491EE23C9F0222339F0233001F1A8F44D
:10052000213019F1223029F1F0E0EE0FFF1FE850E1
:10053000FE4FA591B4918FB7F894EC91611126C04C
:1005400030953E233C938FBF08952730A9F0283083
:10055000C9F0243049F7809180008F7D03C08091DD
:1005600080008F7780938000DFCF84B58F7784BD44
:10057000DBCF84B58F7DFBCF8091B0008F778093E8
:10058000B000D2CF8091B0008F7DF9CF3E2BDACF73
:1005900061E080914C040C947C02CF93DF9390E057
:1005A000FC01E45FFD4F2491805E9D4FFC0184912E
:1005B0008823D1F090E0880F991FFC01EE5FFD4F7A
:1005C000A591B491FC01E850FE4FC591D491611101
:1005D0000EC09FB7F8948C91E22FE0958E238C93F8
:1005E0002881E223E8839FBFDF91CF9108958FB7E1
:1005F000F894EC91E22BEC938FBFF6CF3FB7F894D1
:100600008091220290912302A0912402B0912502B0
:1006100026B5A89B05C02F3F19F00196A11DB11D5D
:100620003FBFBA2FA92F982F8827BC01CD01620F99
:10063000711D811D911D42E0660F771F881F991F54
:100640004A95D1F708958F929F92AF92BF92CF9221
:10065000DF92EF92FF924B015C010E94FE026B0160
:100660007C010E94FE026C197D098E099F09683E7B
:10067000734081059105A8F321E0821A9108A10831
:10068000B10888EEC80E83E0D81EE11CF11C81146D
:100690009104A104B10429F7FF90EF90DF90CF906F
:1006A000BF90AF909F908F9008952FB7F89460916E
:1006B0001E0270911F0280912002909121022FBF93
:1006C000089520912802309129022817390771F4E2
:1006D0009091260280912702981741F0E09126021E
:1006E000F0E0E352FE4F808190E008958FEF9FEF9E
:1006F00008950895EF92FF920F931F93CF93DF9386
:10070000DC015C96ED90FC905D97E114F10479F4C6
:1007100081E090E013969C938E93129790E080E096
:10072000DF91CF911F910F91FF90EF900895519617
:10073000ED91FC91529750968C915097982F9095EF
:100740000FB75E962C915E97122F127021FD609567
:10075000F8942081112319F1282B2083E701219798
:10076000F1F728E0462F50E0308160FF1AC0382BA7
:100770003083E7012197F1F7BA017595679521500C
:1007800089F7112381F08081892380830FBF5C96D4
:100790008D919C910197F1F781E090E0C1CF2923E1
:1007A000DCCF3923E5CF9081892BEFCF2091280230
:1007B000309129022817390761F48091270220918E
:1007C000260290E0805C9F4F821B91098F739927CE
:1007D000089590E080E00895209128023091290248
:1007E00028173907B9F490912602809127029817AB
:1007F00089F0E0912602F0E0E352FE4F80812091E3
:10080000260230E02F5F3F4F2F73332720932602BD
:1008100090E008958FEF9FEF08954F925F926F924F
:100820007F928F929F92AF92BF92CF92DF92EF9280
:10083000FF924C016B010E9455032B013C01B12C2E
:10084000A12C8BE993E00E94D603892B69F40E94C6
:1008500055036419750986099709681579058A058C
:100860009B0510F4A895EDCF8BE993E00E94D60389
:10087000892B01F10E9455034B015C01F12CE12C05
:10088000A8958BE993E00E94D603892B41F08BE970
:1008900093E00E94EC030E9455034B015C010E940F
:1008A0005503681979098A099B096C157D058E0520
:1008B0009F0530F3FF90EF90DF90CF90BF90AF9007
:1008C0009F908F907F906F905F904F9008954F9280
:1008D0005F926F927F929F92AF92BF92CF92DF9280
:1008E000EF92FF920F931F93CF93DF938C016B01D5
:1008F000E42E922E009721F0672B11F0FC0110825C
:100900000E9455032B013C01D0E0C0E0F12C5601C0
:10091000F1E0AF1AB108A8958BE993E00E94D603E5
:10092000892B71F08BE993E00E94EC03F11015C064
:10093000FF24F3948E11F12C0E9455032B013C01EE
:100940000E94550364197509860997096233710578
:100950008105910500F3F12C0AC0891119C0011518
:10096000110529F0CD2819F0C00FD11F18828F2D45
:10097000DF91CF911F910F91FF90EF90DF90CF907B
:10098000BF90AF909F907F906F905F904F90089531
:100990000115110589F2CA15DB0574F6F801EC0F93
:1009A000FD1F80832196C8CF90E080E008958EBD22
:1009B00000000DB407FEFDCF8EB50895CF93C82F6C
:1009C000682F86E00E947C026C2F87E0CF910C9408
:1009D0007C02CF92DF92EF92FF923091680237FD56
:1009E00005C080916902877021E009F020E0409104
:1009F0006B0220FB44F940936B0242FB992790F96C
:100A0000892F90E0B0E0A0E0BB278695B795AA2794
:100A100099278827417050E070E060E0EDE1440FD5
:100A2000551F661F771FEA95D1F7842B952BA62BB0
:100A3000B72B40913902842B40916A0240FBCC24B1
:100A4000C0F8D12CF12CE12CFCE1CC0CDD1CEE1C0F
:100A5000FF1CFA95D1F78C299D29AE29BF2942FBAD
:100A6000CC24C0F8D12CF12CE12C5BE1CC0CDD1CAA
:100A7000EE1CFF1C5A95D1F78C299D29AE29BF2960
:100A800044FBCC24C0F8D12CF12CE12C6AE1CC0C35
:100A9000DD1CEE1CFF1C6A95D1F78C299D29AE291F
:100AA000BF2946FB442740F950E070E060E0E9E1EF
:100AB000440F551F661F771FEA95D1F7842B952B9E
:100AC000A62BB72B33FB442740F950E070E060E0E1
:100AD000742F662755274427842B952BA62BB72BDD
:100AE00030913D02A32B30913B02932B30E050E03C
:100AF00040E06EE1220F331F441F551F6A95D1F766
:100B0000822B932BA42BB52B8093D8019093D901E2
:100B1000A093DA01B093DB01FF90EF90DF90CF90CC
:100B20000895CF93DF93D82FC92F0E94E9044091F5
:100B3000D8015091D9016091DA017091DB01ED2F5C
:100B4000FC2F2CE130E0DB01CA01022E04C0B69577
:100B5000A795979587950A94D2F78F708A3058F4A5
:100B6000805D8193245031092C3F8FEF380759F76E
:100B7000DF91CF910895895CF4CF4F925F926F928D
:100B80007F928F929F92AF92BF92CF92DF92EF921D
:100B9000FF920F931F93CF93DF934C017B016A0168
:100BA0000E9455032B013C01B12CA12C8BE993E051
:100BB0000E94D603892B69F40E94550364197509B4
:100BC00086099709681579058A059B0510F4A8958B
:100BD000EDCF8BE993E00E94D603892BD1F1F6018A
:100BE00001900020E9F731978F010C191D090E942F
:100BF00055034B015C01D0E0C0E011272701712CA7
:100C0000612CA8958BE993E00E94D603892BB1F063
:100C10008BE993E00E94EC03F601EC0FFD1F90813D
:100C2000981306C02196C017D10721F481E012C0A5
:100C3000D0E0C0E00E9455034B015C010E945503C7
:100C4000681979098A099B09641575058605970550
:100C5000C0F280E0DF91CF911F910F91FF90EF9054
:100C6000DF90CF90BF90AF909F908F907F906F90CC
:100C70005F904F900895FB0101900020E9F73197B4
:100C8000AF01461B570BDC01ED91FC910280F38113
:100C9000E02D0994CF93DF93BC018BE993E00E9490
:100CA0004601EC016DE671E08BE993E00E943B06A2
:100CB0008C0F9D1FDF91CF9108958F929F92AF92DD
:100CC000BF92EF92FF920F931F93CF93DF93CDB715
:100CD000DEB7A1970FB6F894DEBF0FBECDBF7C0183
:100CE000FA01CB0119A2223008F42AE08E010F5D2F
:100CF0001F4F822E912CB12CA12CBF01A501940174
:100D00000E949821F901CA016A300CF5605DD80192
:100D10006E938D01232B242B252B79F790E080E017
:100D2000109721F0BD01C7010E943B06A1960FB6A6
:100D3000F894DEBF0FBECDBFDF91CF911F910F9111
:100D4000FF90EF90BF90AF909F908F900895695C57
:100D5000DECFCF92DF92EF92FF92CF93DF930E948C
:100D6000E90483E20E945702C09067020C2C000C39
:100D7000DD08EE08FF082AE0B701A601F7FE0BC068
:100D80008DE20E94570244275527BA014C195D098C
:100D90006E097F092AE08EEF92E00E945D068EE2E6
:100DA0000E9457024091660250E070E060E02AE045
:100DB0008EEF92E00E945D0683E20E94570240910E
:100DC000650250E070E060E02AE08EEF92E00E9461
:100DD0005D068EE20E9457024091640250E070E08E
:100DE00060E02AE08EEF92E00E945D0683E20E94BE
:100DF0005702CCE1D0E08091D8019091D901A09127
:100E0000DA01B091DB010C2E04C0B695A795979539
:100E100087950A94D2F78F708A30A0F4805D0E9483
:100E200057022497CC3F8FEFD80729F76DE671E082
:100E30008EEF92E0DF91CF91FF90EF90DF90CF9017
:100E40000C943B06895CEBCFCF93DF938E3F2FEF63
:100E5000920740F068E670E08EEF92E0DF91CF916C
:100E60000C9446016AE070E00E947021EC01AB0135
:100E700070E060E02AE08EEF92E00E945D068EE274
:100E80000E945702AE0170E060E02AE08EEF92E02F
:100E9000DF91CF910C945D06CF93DF93D0E0C0E05B
:100EA000009731F0BC018BE993E00E943B06EC0116
:100EB0006DE671E08BE993E00E943B068C0F9D1F6D
:100EC000DF91CF9108950F931F93CF93DF932091DC
:100ED0005304211107C0C0E08C2FDF91CF911F91E7
:100EE0000F9108958B01EC0164EE71E08BE993E0C2
:100EF0000E94460160EE72E08BE993E00E943B069F
:100F000082EE91E00E944A0640E751E064EF71E012
:100F100088EE93E00E94BD058823E9F262E370E069
:100F200088EE93E00E940D042097D1F0CE010E943C
:100F30004A066AE18BE993E00E947A0342E751E0B6
:100F400068E873E188E59BE10E94BD05C82F88230E
:100F500011F262E370E088EE93E00E940D04BCCFD2
:100F6000C8010E944C07E5CF2091E002222329F01E
:100F7000BC0190E080E00C9463070895CF93DF9369
:100F8000CDB7DEB72A970FB6F894DEBF0FBECDBF40
:100F900083E28983CE0102960E9491051A86CE01D2
:100FA00001960E94B4072A960FB6F894DEBF0FBED2
:100FB000CDBFDF91CF9108958F929F92AF92BF9254
:100FC000EF92FF920F931F93CF93DF93F82EE62EAD
:100FD000082F10E025E0829FE0011124C658DD4F64
:100FE00089809A80AB80BC8081149104A104B104F3
:100FF00089F40E94550369837A838B839C83DF91F4
:10100000CF911F910F91FF90EF90BF90AF909F9065
:101010008F9008950E945503DC01CB01881999092E
:10102000AA09BB0961E08C3221E09207A105B10554
:10103000F0F0803921E09207A105B10570F461E07C
:101040008E2DDF91CF911F910F91FF90EF90BF9068
:10105000AF909F908F900C947C0260E08C3B92400C
:10106000A105B10530F48E2D0E947C0260E085E080
:10107000E8CF8E2D0E947C0260E085E00E947C0219
:101080009881923039F480916B02817026E0F212DF
:101090001DC0F1F085E0809FF001819FF00D1124CB
:1010A000E658FD4F10821182128213821482923010
:1010B00009F0A5CFDF91CF911F910F91FF90EF9095
:1010C000BF90AF909F908F900C94BE07882311F330
:1010D00080916B02846080936B02DCCFCF92DF92B1
:1010E000EF92FF920F931F93CF93C82F0E94550347
:1010F0006B017C010C2F10E025E0C29FF001112450
:10110000E658FD4F81819281A381B481892B8A2B7E
:101110008B2B59F4C182D282E382F4828091DC016C
:101120008330E0F48F5F8093DC0185E0809FF001E5
:10113000819FF00D1124E658FD4F81819281A3819A
:10114000B481A7019601281B390B4A0B5B0BDA010E
:10115000C901883C9105A105B10558F461E085E01D
:10116000CF911F910F91FF90EF90DF90CF900C9453
:101170007C02883532E09307A105B10528F483E1AC
:10118000C11182E161E0ECCF8C3B42E09407A10504
:10119000B10528F483E1C11182E160E0E1CF209143
:1011A0006802322F387023FD12C0CC23D1F0883E64
:1011B00053E09507A105B10560F481E0CF911F913F
:1011C0000F91FF90EF90DF90CF900C94DE04CC2332
:1011D00041F08C3444E09407A105B10510F480E09F
:1011E000EDCF287259F4C1117DC0803243E09407DD
:1011F000A105B10580F461E088E0B2CF203249F466
:10120000C111C8C0883E43E09407A105B10518F498
:10121000D4CFC1116EC0843145E09407A105B1055A
:10122000F0F248EB5BE060E070E06EC0332321F148
:1012300060E088E00E947C0260E085E00E947C0221
:10124000809168028D7F809368028091840285304E
:1012500019F486E0809384021092DC0185E0809F7F
:10126000F001819FF00D1124E658FD4F108211828C
:1012700012821382148286C08091DC018330D0F404
:1012800085E0809FF001819FF00D1124E658FD4F0D
:10129000118212821382148282E0C11101C081E0A6
:1012A00095E0909FF001919FF00D1124E658FD4FBD
:1012B000808368C060E088E00E947C0260E085E096
:1012C0000E947C0280916B02846080936B02C1114A
:1012D0000E94BE071092DC01809168028D7F80938E
:1012E0006802BCCF803B54E09507A105B10508F426
:1012F00082CF843A56E09507A105B10508F46FCF77
:1013000048E45DE060E070E084179507A607B70742
:1013100008F08CCF2832B1F560E088E00E947C02B2
:1013200060E085E00E947C02CC2389F082E080931B
:101330008902C0928A02D0928B02E0928C02F092D3
:101340008D0280918402811102C00E94BE0710921A
:10135000DC01809168028D7F8093680285E0809F28
:10136000F001819FF00D1124E658FD4F108211828B
:1013700012821382148280918402853019F486E0EF
:1013800080938402CF911F910F91FF90EF90DF9097
:10139000CF900895883755E09507A105B10508F469
:1013A0000CCFA7CF2091E002222321F070E060E073
:1013B0000C94630708958F929F92AF92BF92DF9231
:1013C000EF92FF920F931F93CF93DF93D62E7A0164
:1013D000082F10E025E0829FE0011124C658DD4F60
:1013E00089819A81AB81BC81892B8A2B8B2B49F413
:1013F0000E94550369837A838B839C8381E0809369
:10140000BB020E94550325E0209FF001219FF00DB3
:101410001124E658FD4F81809280A380B480DC01C6
:10142000CB0188199909AA09BB0961E0843F21E031
:101430009207A105B10530F080329340A105B105B6
:1014400078F460E08D2DDF91CF911F910F91FF9087
:10145000EF90DF90BF90AF909F908F900C947C02A4
:101460008081823019F4C7010E94D20960E08D2D7D
:101470000E947C0285E0809FF001819FF00D112485
:10148000E658FD4F10821182128213821482DF917E
:10149000CF911F910F91FF90EF90DF90BF90AF9091
:1014A0009F908F9008950F931F9300914D0410917A
:1014B0004E0420914F043091500440E052E16AE71D
:1014C00070E080E0041715072607370740F476958B
:1014D0006795579547958F5F8630A1F787E0982FDE
:1014E000906A9695809581709CBD8DBD60E08091DD
:1014F0004C041F910F910C947C02CF93C82F0E9433
:10150000530A83E00E94D7048C2F0E94D70480E006
:101510000E94D704C82F0E94C8028C2FCF91089533
:10152000FF920F931F93CF93DF93C82FF62E172FA1
:10153000042F0E94530A82E00E94D7048C2F0E943D
:10154000D704CF2DD12F0C0F1D2F111DC017D10780
:1015500021F089910E94D704F9CFDF91CF911F919B
:101560000F91FF900C94C8021F93CF93DF93182F15
:10157000D62FC42F0E94530A85E00E94D704812FE2
:101580000E94D7048D2F0E94D7048C2F0E94D7046D
:10159000DF91CF911F910C94C802CF92DF92EF920E
:1015A000FF92CF93C82F482F60EE8FE00E94B40ABD
:1015B0000E9455036B017C012AE0C20ED11CE11C84
:1015C000F11C0E9455036C157D058E059F0580F466
:1015D0008EE00E947D0A807EC813F3CF81E091E007
:1015E000892790E0CF91FF90EF90DF90CF90089502
:1015F00080E0F5CFCF93DF93D82FC62F0E94530AF8
:1016000082E00E94D7048D2F0E94D7048C2F0E9465
:10161000D704DF91CF910C94C802FF920F931F93D0
:10162000CF93DF93C82FF62E172F042F0E94530A53
:1016300083E00E94D7048C2F0E94D704CF2DD12F96
:101640000C0F1D2F111DC017D10729F080E00E943B
:10165000D7048993F8CFDF91CF911F910F91FF901D
:101660000C94C802BF92CF92DF92EF92FF920F9339
:101670001F93CF93DF9300D000D01F92CDB7DEB77A
:101680008C01000F111F000F111FF801E85CFE4FC5
:1016900045E0BE016F5F7F4F81810E940D0B8A8103
:1016A000C98098E0C99E60011124282F30E055E0E0
:1016B000359527955A95E1F7C20ED31E0D2C000CD7
:1016C000EE08FF0883FF20C092E0CC0CDD1CEE1C6E
:1016D000FF1C9A95D1F78370C80ED11CE11CF11C38
:1016E000FE2CED2CDC2CCC248B81C80ED11CE11CF3
:1016F000F11CFE2CED2CDC2CCC248C81C80ED11CD2
:10170000E11CF11C6894F7F88D818F70B82EE8E029
:1017100081E090E0EB1528F1F801E85CFE4F808154
:101720000E947D0A83FF02C06894F6F8C092D0023E
:10173000D092D102E092D202F092D302B092D402BF
:10174000085C1E4F4B2D68ED72E0F80182810E940B
:101750000D0B40E0F80163818CE20E94B40A90E036
:1017600080E00F900F900F900F900F90DF91CF912E
:101770001F910F91FF90EF90DF90CF90BF90089551
:101780004F925F926F927F928F929F92AF92BF9291
:10179000CF92DF92EF92FF920F931F93CF93DF933D
:1017A000CDB7DEB763970FB6F894DEBF0FBECDBFDF
:1017B000FC012481293008F08DC05C0186E0ECE05A
:1017C000F1E0DE011E9601900D928A95E1F73E014F
:1017D000FEE06F0E711C8E010C5E1F4FF301C19075
:1017E000D1903F017601EE0CFF1CF701EC0DFD1DC1
:1017F000E05CFE4F8080882D0E947D0A83FD96C0AC
:10180000F5019480F8E0F91508F464C0F501008151
:10181000118122813381B901A801442777FD4395C5
:10182000552766277727D901C80188279927AA272E
:10183000B07444244A94542C642C7FE1772E4111D7
:1018400006C044244A9467E0562E612C712C042172
:10185000152126213721442309F43FC00C831B8323
:10186000890122273327402F440F440F440F407E25
:10187000502F53705860452B4A8355E016950795B5
:101880005A95E1F70983892B8A2B8B2BA1F1892D9E
:1018900080648D83492D50E0B501685F7F4FCE0194
:1018A00006960E94DF2145E0490DF701EC0DFD1D74
:1018B000E05CFE4FBE016F5F7F4F81810E94900A06
:1018C00048E068E0882D0E94B40A882D0E947D0AB5
:1018D000807799F084E090E012C0A80123E056954B
:1018E00047952A95E1F749830295000F007E0A8308
:1018F0001C821B82C8CF892DCCCF90E080E06396FC
:101900000FB6F894DEBF0FBECDBFDF91CF911F9110
:101910000F91FF90EF90DF90CF90BF90AF909F908E
:101920008F907F906F905F904F9008956016710632
:1019300009F054CF82E090E0E2CF0F931F93CF9352
:10194000DF93CDB7DEB767970FB6F894DEBF0FBE53
:10195000CDBF8E01085F1F4F087F8BEE92E0A0E0A5
:10196000B0E0F80180839183A283B38388E084830D
:10197000108611861286138614861686178680E8CE
:101980008587C8010E94C00BC8010E94C00BC80116
:101990000E94C00B67960FB6F894DEBF0FBECDBF96
:1019A000DF91CF911F910F910895E0EDF2E046EBAA
:1019B00052E060E070E0408351836283738392E081
:1019C000948380871186CF010C94C00B46EC51E0C4
:1019D00060E070E04093D0025093D1026093D20255
:1019E0007093D30294E09093D402813089F080E028
:1019F0001092D9021092D8028093DB028093DA020F
:101A000080ED92E00E94C00B80ED92E00C94C00B40
:101A100082E5EECFE0EDF2E04AE352E060E070E014
:101A2000408351836283738394E0948391E1908730
:101A300093EF918782878FE38387CF010E94C00B4A
:101A400080ED92E00E94C00B80ED92E00C94C00B00
:101A50008F929F92AF92BF92CF92DF92EF92FF92BE
:101A60001F93CF93DF93CDB7DEB7A0970FB6F8944F
:101A7000DEBF0FBECDBF4B015C010E9455036B0161
:101A80007C01198210E00E9455036C197D098E09B2
:101A90009F09681579058A059B0508F045C0A8953A
:101AA0008BE993E00E94D603892B69F3A8958BE913
:101AB00093E00E94EC03E12F1F3150F090E1FE0112
:101AC0007196DE01119601900D929A95E1F7EFE083
:101AD00011E01E0F21E030E02C0F3D1F2E0F311DB5
:101AE000F9018083E1E0F0E0EC0FFD1FE10FF11D53
:101AF000108262E771E0CE0101960E941522892BC7
:101B000079F281E0A0960FB6F894DEBF0FBECDBF8C
:101B1000DF91CF911F91FF90EF90DF90CF90BF901A
:101B2000AF909F908F90089580E0ECCFBF92CF92BE
:101B3000DF92EF92FF920F931F93CF93DF93CDB776
:101B4000DEB7A2970FB6F894DEBF0FBECDBF0E94DE
:101B5000530A80EC0E94D7040E94C8026AE070E039
:101B600080E090E00E9423038E010F5F1F4F8EE004
:101B7000F80111928A95E9F74EE0B80180E30E94DE
:101B8000900A4EE0B80180E40E94900A4EE0B8014D
:101B900080E50E94900A60E080E60E94FA0A60E018
:101BA00080E70E94FA0A63EA8BE20E94FA0A44E0A4
:101BB00067E680E60E94B40A41E067E680E70E949B
:101BC000B40A8CE0E2E1F1E0DE011F9601900D9293
:101BD0008A95E1F76E01FFE0CF0ED11CF12CE12CCC
:101BE00098E0B92EF601019111916F0180E80E94F1
:101BF000CD0A892B61F40230110509F47FC058F534
:101C00000115110509F480C00130110579F180E852
:101C10000E94CD0A892B61F460E08AE20E94FA0AF0
:101C200060EF89E20E94FA0A66E888E20E94FA0AF6
:101C300080E00E94CD0AA2960FB6F894DEBF0FBED8
:101C4000CDBFDF91CF911F910F91FF90EF90DF906B
:101C5000CF90BF9008950430110509F453C008F4E3
:101C60004FC00530110599F688E101C084E0F1E02C
:101C7000EF16F10409F04AC01E8E1D8EBC8E1B8E1D
:101C800044E0BE01655E7F4F0E94900A8FEFE81A24
:101C9000F80A96E0E916F10409F0A4CF18A21F8E05
:101CA00081E090E09AA389A38E01015E1F4F6E012F
:101CB000E3E2CE0ED11C88E0B82EF801E190F1905D
:101CC0008F0180E80E94CD0A892B09F0A0CF1E8EDB
:101CD0001D8EBC8E1B8EE114F104E9F0EA94EF280E
:101CE00009F095CF84E244E0BE01655E7F4F0E941B
:101CF000900A0C151D0509F48ACFDFCF88E0B7CF15
:101D000080E1B5CF84E1B3CF80E0B1CF1B8E1C8ED4
:101D10001E8E1D8EB5CF80E2E6CF0F931F93CF931B
:101D2000DF93CDB7DEB768970FB6F894DEBF0FBE6E
:101D3000CDBF062FBC01CE0101960E94172110E0F5
:101D400081E090E08C0F9D1F800F911F0E949105F4
:101D5000FE01E00FF11F1186CE0101960E94B4072B
:101D600068960FB6F894DEBF0FBECDBFDF91CF915E
:101D70001F910F910895FF920F931F93CF93DF93BD
:101D8000EC01F62E08811981C8010E944021F81645
:101D900021F06F2DC8010E944821CE01DF91CF9123
:101DA0001F910F91FF900895FF920F931F93CF9370
:101DB000DF9381E08093BB0200EE12E0D0E0C0E050
:101DC000F801F1908F01CE010E944021F81621F018
:101DD0006F2DCE010E9448212196CE31D10581F789
:101DE000DF91CF911F910F91FF9008951F920F9255
:101DF0000FB60F9211242F933F934F935F936F93DE
:101E00007F938F939F93AF93BF93EF93FF938EEF47
:101E100092E00E94E801FF91EF91BF91AF919F91F5
:101E20008F917F916F915F914F913F912F910F9083
:101E30000FBE0F901F9018951F920F920FB60F9222
:101E400011242F938F939F93EF93FF93E0910E03B1
:101E5000F0910F038081E0911403F091150382FD4E
:101E60001BC09081809117038F5F8F73209118039F
:101E7000821741F0E0911703F0E0E250FD4F958F9B
:101E800080931703FF91EF919F918F912F910F9066
:101E90000FBE0F901F9018958081F4CF1F920F9264
:101EA0000FB60F9211242F933F938F939F93AF936D
:101EB000BF9380911E0290911F02A0912002B091C9
:101EC000210230911D0223E0230F2D3758F5019692
:101ED000A11DB11D20931D0280931E0290931F022D
:101EE000A0932002B09321028091220290912302BC
:101EF000A0912402B09125020196A11DB11D8093ED
:101F0000220290932302A0932402B0932502BF9152
:101F1000AF919F918F913F912F910F900FBE0F9096
:101F20001F90189526E8230F0296A11DB11DD2CF50
:101F30001F920F920FB60F9211242F933F934F933E
:101F40005F936F937F938F939F93AF93BF93EF9321
:101F5000FF93E0912802F0912902309749F0A6857D
:101F6000B7858585968D91FF14C09C918923A1F436
:101F7000FF91EF91BF91AF919F918F917F916F9161
:101F80005F914F913F912F910F900FBE0F901F9037
:101F900018959C91892361F7A389B4899C918589BF
:101FA000809589238C93868997890197F1F7608DB5
:101FB000718DA685B785558538E020E0CB01019766
:101FC000F1F7822F90E095958795282F4C91452326
:101FD00009F02068315091F7868D81FD2095809120
:101FE000270290E001968F739927309126023817C7
:101FF00099F0A0912702B0E0A352BE4F2C9380939A
:102000002702828D938D0197F1F7A389B4898C9172
:102010009589892B8C93ACCF868D8160868FF1CF8B
:10202000CF93109201031092000388EE93E0A0E09A
:10203000B0E08093020390930303A0930403B09352
:1020400005032DE431E03093FF022093FE0225ECDE
:1020500030E030930B0320930A0324EC30E03093FC
:102060000D0320930C0320EC30E030930F032093FA
:102070000E0321EC30E0309311032093100322EC87
:1020800030E0309313032093120326EC30E03093BA
:102090001503209314031092170310921803109243
:1020A000190310921A0310929E0310929D038093BD
:1020B0009F039093A003A093A103B093A2038FE585
:1020C00091E090939C0380939B031092B203109233
:1020D000B1031092B4031092B3031092B60310929E
:1020E000B5031092B8031092B7036091B9036E7FE5
:1020F0006D7F6093B9036695617081E0682783E026
:102100000E947C0261E083E00E94CD02EFE0F2E0F9
:10211000E491E093AB03E3E2F2E0E491F0E0EE0F50
:10212000FF1FE850FE4F859194919093AD038093EB
:10213000AC0360E082E00E94CD028091B90381FD92
:1021400004C061E082E00E947C0282E08093A703E9
:10215000EEE0F2E0E491E093A803E2E2F2E0E49141
:10216000F0E0EE0FFF1FE251FE4F859194919093A6
:10217000AA038093A903109253048BEB93E09093EE
:10218000520480935104CFB7F8948091BA0381111F
:1021900027C0EAE2F2E08491E6E1F2E09491E82FD0
:1021A000F0E0EE0FFF1FEE5FFD4FA591B491EC91B3
:1021B000E92321F461E08AE00E947C0261E08AE088
:1021C0000E94CD028CB580618CBD8CB580648CBDC5
:1021D00061E08DE00E94CD0261E08BE00E94CD02C3
:1021E0008091BA038F5F8093BA03CFBF8AE0809358
:1021F0004C0480E896E9A8E9B0E080934D04909300
:102200004E04A0934F04B093500461E08AE00E9412
:10221000CD0261E080914C040E947C02ECEBF3E083
:102220008CE494E010861186128613863C968E17F5
:102230009F07C1F7CF910895CF93DF93CDB7DEB756
:10224000AA970FB6F894DEBF0FBECDBF789484B5C1
:10225000826084BD84B5816084BD85B5826085BDA2
:1022600085B5816085BD80916E00816080936E0030
:102270001092810080918100826080938100809122
:1022800081008160809381008091800081608093D3
:1022900080008091B10084608093B1008091B00093
:1022A00081608093B00080917A00846080937A008E
:1022B00080917A00826080937A0080917A008160B8
:1022C00080937A0080917A00806880937A001092DF
:1022D000C100E0910E03F0910F0382E08083E09152
:1022E0000A03F0910B031082E0910C03F0910D03AF
:1022F00080E1808310921603E0911203F0911303A2
:1023000086E08083E0911003F09111038081806169
:102310008083E0911003F0911103808188608083B5
:10232000E0911003F0911103808180688083E09137
:102330001003F091110380818F7D80838CE0EEE1AA
:10234000F1E0DE01119601900D928A95E1F78E0180
:102350000F5F1F4F6E012DE0C20ED11CD801FD9002
:102360008D0161E08F2D0E94CD0260E08F2D0E94D3
:102370007C02C016D10691F70E94960D20EEE22E47
:1023800022E0F22E10E000E0C8010E944021F70197
:1023900081937F010F5F1F4F0E311105A9F783E273
:1023A00090E00E94402180933D0287E390E00E94EC
:1023B000402180933B02B12CA12C04E813E0C12CF6
:1023C000D12C7601412C512C3201C8010E944021B0
:1023D00090E0B0E0A0E00A2C04C0880F991FAA1F6B
:1023E000BB1F0A94D2F7482A592A6A2A7B2AC801B5
:1023F00004960E94402190E0B0E0A0E00A2C04C0C6
:10240000880F991FAA1FBB1F0A94D2F7C82AD92A7E
:10241000EA2AFB2A0F5F1F4FF8E0AF0EB11C083805
:1024200023E0120791F6409271025092720260927C
:10243000730270927402C0926D02D0926E02E092AA
:102440006F02F092700281E08093BB0288E199E212
:102450000FB6F894A895809360000FBE909360002B
:10246000AE01415F5F4F5EA34DA38091CF0281110A
:10247000FFC00E945503613177428105910508F440
:10248000F7C0109253041092B6031092B503109245
:10249000B4031092B3031092B2031092B10382E41A
:1024A00090E09093B8038093B7039091A70396317F
:1024B00008F047C02FE030E03093B2032093B1031F
:1024C00020E430E03093B4032093B30327E230E0FC
:1024D0003093B6032093B5032091680084E09830D0
:1024E00048F031E09E3008F430E081E001C0880F10
:1024F0003A95EAF7822B809368002DE630E0983019
:1025000050F02BE630E09E3030F02CE630E0963193
:1025100010F030E020E03093AF032093AE03292F7A
:1025200030E0983008F094C081E001C0880F9A959F
:10253000EAF78093B0038091B7039091B8030197B5
:10254000F1F78091B5039091B603892B49F1E091A1
:102550002802F091290283E0EB39F80709F130975E
:1025600039F0A389B4899C918589809589238C93BE
:102570008091B9038E7F8093B90310922702109245
:1025800026028BE993E09093290280932802E09140
:10259000AE03F091AF0380819091B003892B8083CB
:1025A00064EF71E080E090E00E9423038BE993E008
:1025B0000E94D603892B31F064E170E088EC90E052
:1025C0000E940D0404E010E0DD24D39401501109B1
:1025D00009F44BC080915304811147C0A89582E94A
:1025E00090E00E944A0668EE73E080E090E00E946E
:1025F000280D882359F38EE0EAE2F1E0DE0111961E
:1026000001900D928A95E1F7DE0111967D01A89562
:10261000F701819191917F010E944C0760ED77E075
:1026200080E090E00E94280D882381F28DA09EA07A
:102630008E149F0461F7D09253048FE790E00E94BC
:102640004A0668E873E180E090E00E94280DBECF62
:102650009E3040F42850310981E001C0880F2A954E
:10266000EAF767CF2E503109F7CF81E08093CF0290
:102670000E94530A80EA0E94D70480E00E94D70497
:10268000182F0E94C80290E080E010FD04C011FFE6
:1026900035C181E090E00E94320B892B09F02EC1F8
:1026A0000E94550360932A0270932B0280932C02A0
:1026B00090932D02209168022E7F209368028091D2
:1026C000D0029091D102A091D202B091D302813573
:1026D00033E09307A105B10509F492C408F02CC2B8
:1026E0008A3C52E09507A105B10509F44FC3E0F516
:1026F0008337F1E09F07A105B10509F44FC48A3380
:1027000032E09307A105B10509F4CEC3823A9105E1
:10271000A105B105C1F59091D802983009F4F1C234
:1027200008F0E2C2923009F4E8C28091D902883000
:1027300009F4FCC208F0EDC2823009F4F3C2911131
:1027400022C0811120C01092EC031092F803109265
:1027500004041092100410921C0410922804109289
:102760003404109240040FC08C3F42E09407A1054E
:10277000B10509F44BC308F0C5C1803F9240A105E3
:10278000B10509F4F9C28091EF03813021F4109270
:10279000EF038093A7028091FB03813021F4109214
:1027A000FB038093AC0280910704813009F05BC485
:1027B0001092070481E08093B1028091130481306C
:1027C00021F4109213048093B60280911F0481308B
:1027D00021F410921F0480939D0280912B0481307C
:1027E00099F510922B0490EA892E92E0992EA12C53
:1027F000B12C8092D0029092D102A092D202B092DB
:10280000D30288E08093D40288E88093D802809332
:10281000D90280EF8093DA028DE48093DB028FEFA0
:102820008093DC028093DD028093DE028093DF02DE
:1028300080ED92E00E94C00B80ED92E00E94C00B00
:1028400080ED92E00E94C00B80914304813021F41E
:10285000109243048093CA028091BF03833029F40D
:102860001092BF0381E08093A2022091CB0321301C
:1028700039F51092CB033091680237FB882780F935
:1028800090916902492F4170842B91FB442740F9B4
:10289000842B92FB442740F9842B91F032FD10C029
:1028A00093FD0EC088EC90E0A0E0B0E080930801BA
:1028B00090930901A0930A01B0930B012093C002E9
:1028C0008091E3038130D1F41092E30380917A0286
:1028D000811114C080918E02811110C090918902E3
:1028E0009111C9C38091680283FDC6C391E081E064
:1028F00090937A0291E0892780938E020E9455037B
:1029000000912A0210912B0220912C0230912D026D
:10291000601B710B820B930B613E734984409105E0
:1029200008F456C08091680280FD52C00E94960D46
:102930000E94550360932A0270932B0280932C020D
:1029400090932D02809168028160809368021092BA
:102950003902409071025090720260907302709040
:10296000740280906D0290906E02A0906F02B09001
:10297000700204E813E0F12CE12C1A830983C301EF
:10298000B2010E2C04C095958795779567950A94AA
:10299000D2F7CE0101960E94BB0EC80104969A831D
:1029A0008983C501B4010E2C04C095958795779550
:1029B00067950A94D2F7CE0101960E94BB0EB8E04B
:1029C000EB0EF11C0F5F1F4F0838E3E01E07A9F65E
:1029D00080917A02811145C080917F02811141C0AE
:1029E0008091680286FD3DC090916A02792F7170D6
:1029F00092FB662760F994FB552750F996FB442714
:102A000040F98091690284FB332730F9232F27276F
:102A100070FB84F985FB332730F93627322B60FBB6
:102A200085F986FB222720F92527322B50FB86F9D2
:102A300087FB222720F92427232B40FB87F980934B
:102A40006902222371F0957580916B02992309F434
:102A500015C3846080936B026BE088EA90E00E946B
:102A60008D0E0E945503ECEBF3E021E0C480D5808D
:102A7000E680F7804B015C018C189D08AE08BF080A
:102A80007501640139EBC3163BE0D306E104F104A0
:102A900008F01382418130814111F7C2332329F0BC
:102AA000608771878287938721833C9644E0EC346A
:102AB000F407E1F60091890210916802002311F4F5
:102AC0000C940F200E945503C0908A02D0908B0274
:102AD000E0908C02F0908D026C197D098E099F099F
:102AE00010916802613A7B4B8D40910510F40C9473
:102AF000EB1F84E0023011F40C940B2080918E02C5
:102B00000C940B208E32F3E09F07A105B10509F468
:102B100054C180339340A105B10509F034CE6091D2
:102B2000DB0260933B0287E390E09A838983CE01C6
:102B300001960E94BB0E27CE873B33E09307A10589
:102B4000B10509F47AC208F085C0833A53E09507CD
:102B5000A105B10509F4F2C0863BE3E09E07A1059B
:102B6000B10509F454C28B369340A105B10509F0B3
:102B70000ACE6091D8027091D9024091DA02509148
:102B8000DB022091DC023091DD028091DE02909127
:102B9000DF02E0910601F09107016E177F0709F04F
:102BA000A1C0E0910401F09105014E175F0709F003
:102BB00099C0E0910201F0910301A1E02E173F07B7
:102BC00041F4E0910001F0910101E817F90709F4DF
:102BD000A0E07093070160930601509305014093B4
:102BE000040130930301209302019093010180932B
:102BF0000001AA2309F4C7CD65E970E08EEF92E0E9
:102C00000E94460180910601909107010E942407CD
:102C10008CE20E94570280910401909105010E946C
:102C200024078CE20E9457028091020190910301D7
:102C30000E9424078CE20E9457028091000190912B
:102C400001010E9424076DE671E08EEF92E00E9480
:102C50003B0699CD893B23E09207A105B10509F414
:102C6000F7C108F4DFC1893F43E09407A105B1052E
:102C700009F499C182319440A105B10509F083CDD1
:102C8000C090D802D090D902E090DA02F090DB0236
:102C900080E8F81A6091DC027091DD028091DE021A
:102CA0009091DF02905824E230E040E050E00E9432
:102CB000BA212093710230937202409373025093B1
:102CC0007402C701B60124E230E040E050E00E9407
:102CD000BA2120936D0230936E0240936F0250939D
:102CE000700251CDA1E075CF903279F0903809F0A3
:102CF0001CCD81E08093100418CD81E08093EC031B
:102D000014CD81E08093F80310CD81E0809304041A
:102D10000CCD803279F0803809F011CD81E08093BC
:102D2000400431CD81E080931C042DCD81E080935F
:102D3000280429CD81E08093340425CD8091D802E8
:102D4000803D49F48091D9028F3F09F01CCD84E089
:102D50000E940A0D18CD883C09F015CD8091D9024A
:102D60008F3F09F010CD81E00E940A0D809168022A
:102D700080648093680207CD8091D8028C7088307F
:102D800009F001CD82E080937F02FDCC8091D802D2
:102D9000A5E08A9FC0011124805991406AE070E04B
:102DA0000E948421609367029C0197FF03C03195C4
:102DB0002195310920936602E6CC2091DB0291E057
:102DC0002F3E09F090E080916B0290FB87F9809391
:102DD0006B022C3319F0806480936B02BAE02B9F56
:102DE00090011124C9016CE370E00E94842160937A
:102DF0006502C90166E070E00E948421CB016AE0AF
:102E000070E00E94842180936402BDCC80916B02AB
:102E10009091D80290FB80F980936B028091D90247
:102E2000982F937051E0913009F050E090916A0230
:102E300050FB90F990936A0241E0982F9C70943077
:102E400009F040E090916A0240FB92F990936A0287
:102E500031E0982F9073903109F030E090916A0240
:102E600030FB94F990936A02807C21E0803409F071
:102E700020E080916A0220FB86F980936A0290919B
:102E80006C0290FD80CC8091690250FB84F940FB7C
:102E900085F930FB86F920FB87F980936902892F39
:102EA000816080936C026FCC8091DA02843061F48F
:102EB0008091DB028F3309F066CC81E08093C803F8
:102EC0002F7B209368025FCC8130E1F48091DB029C
:102ED0008F3309F058CC81E08093BC038091680265
:102EE0008064809368021092890280916902877FD2
:102EF0008093690280916B0282FF45CC8B7F809327
:102F00006B0241CC803171F48091DB028F3309F088
:102F10003ACC8091DD02833F09F435CC81E0809387
:102F2000D40331CC81112AC08091DB028F3309F0A8
:102F30002ACC8091DC028F3F09F025CC8091DD0204
:102F4000813F61F48091680281FD05C091E090931A
:102F5000E00382600ECF1092E00315CC803F09F0B1
:102F600012CC1092C8031092BC031092D40380912B
:102F700069028F788F778093690205CC803409F0DD
:102F800002CC8091DB028F3309F0FDCB1092E0037D
:102F9000809168028D7F80936802E9CF8091DF0283
:102FA00080FB25F98ECF8091DB02837091E0823027
:102FB00009F090E08091680290FB83F980936802A9
:102FC00083FD19C0809189028823A9F00E945503CE
:102FD00000918A0210918B0220918C0230918D0217
:102FE000601B710B820B930B693E73408105910549
:102FF00010F0109289028091DC0280933902C3CBD9
:103000006091DB0260933D0283E290E08ECD91E01F
:103010008091D9028C3F09F490E08091680290FB86
:1030200087F9A7CE91E08091D9028C3F09F490E016
:103030008091690290FB80F99ECF91E08091D80247
:10304000811101C090E08091690290FB81F993CFDA
:1030500091E08091D802811101C090E080916902D5
:1030600090FB82F988CF8091D703813009F0A5CBFE
:103070001092D7039FCB90E080E03ACC8B7F809377
:103080006B026CE08BE990E0EACC31110ECD12823C
:103090001182C084D184E284F3844B015C018C18DA
:1030A0009D08AE08BF087501640138EEC31633E011
:1030B000D306E104F10408F0F8CC33813F5F338399
:1030C0006483758386839783F0CC6BEF70E08EE228
:1030D00092E00E940E21892B31F4F89414BE0C94D6
:1030E000003F0C94BB2067EF70E08EE292E00E94FC
:1030F0000E21892B21F41093A2020C94BB2062EFC5
:1031000070E08EE292E00E940E21892B21F4109350
:1031100098020C94BB206BEE70E08EE292E00E946D
:103120000E21892B21F4109393020C94BB2066EEA0
:1031300070E08EE292E00E940E21892B21F4109320
:10314000A7020C94BB2061EE70E08EE292E00E9438
:103150000E21892B21F41093AC020C94BB206CED52
:1031600070E08EE292E00E940E21892B21F41093F0
:10317000B1020C94BB2067ED70E08EE292E00E94F9
:103180000E21892B19F41093B602F5C762ED70E099
:103190008EE292E00E940E21892B39F48091680220
:1031A00083FF03C010938E02E6C76CEC70E08EE2E2
:1031B00092E00E940E21892B21F48091680283FF06
:1031C0000BC068EC70E08EE292E00E940E21892B29
:1031D00031F41093CA02CFC710937A02CCC762ECC5
:1031E00070E08EE292E00E940E21892B19F40E9479
:1031F0009D0CC1C76DEB70E08EE292E00E940E2143
:10320000892B79F488E592E0A0E0B0E08093080192
:1032100090930901A0930A01B0930B01F092C002B0
:10322000AAC764EB70E08EE292E00E940E21892B27
:1032300009F0A1C710937A02009384029CC79F5F94
:1032400090933802808370C70E94550300916002FA
:10325000109161022091620230916302601B710B38
:10326000820B930B683E73408105910508F438C1C9
:103270000E94550360936002709361028093620222
:10328000909363028BE993E00E94D603892B09F4A3
:1032900027C1A8958BE993E00E94EC03082F1091B9
:1032A0005F021F3168F0E12FE051FF0BAF016FE4C7
:1032B00072E08FE392E00E94E821105110935F02C8
:1032C000E0915F02BB24B394BE0EB0925F02F0E0C7
:1032D000E15CFD4F0083CB2CD12CF601E15CFD4F6E
:1032E000108265E771E08FE392E00E9415227C0175
:1032F000009741F26AE070E00E94FA218C01892B6C
:1033000009F4C0CF6CE270E0C7010E94FA21009777
:1033100019F08017910718F010925F02B3CF019651
:103320000E94F0207C010E5312400B1508F4BDC022
:1033300010925F02E0915F02F0E0E15CFD4F1082CD
:103340001E141F040CF09ECF80915304882309F4AF
:1033500099CF61E171E08BE993E00E944601CE2CA8
:10336000D12CF12CE12C2AE0B701A6018BE993E0E6
:103370000E945D066DE671E08BE993E00E943B06DA
:103380004CE751E062E370E080E197E20E94BD0506
:10339000882309F477CF22E242E270E060E090E017
:1033A00080E00E946704882309F46CCF22E242E2A5
:1033B0006FE070E084E994E00E946704882309F4D8
:1033C00061CF22E242E270E060E090E080E00E94A3
:1033D0006704882309F456CF22E242E270E060E0FD
:1033E00090E080E00E946704882309F44BCF2DE031
:1033F0004AE060E470E084E594E00E94670488237A
:1034000009F440CF62E370E088EE93E00E940D047F
:1034100080915304882309F463C068E071E08BE96C
:1034200093E00E9446012AE0B701A6018BE993E0F0
:103430000E945D066DE671E08BE993E00E943B0619
:1034400042E751E062E370E088EA91E60E94BD0540
:10345000882309F445C062E370E088EE93E00E949F
:103460000D0460EE72E084E994E00E940522892B4D
:1034700059F16FEE72E084E994E00E940522892BF5
:1034800019F169E971E084E594E00E941E21892B1D
:1034900009F01CC48091E002882311F164E574E016
:1034A00090E080E00E9463071BC0B8017727A60167
:1034B000461B570B615C7D4F8FE392E00E94E82131
:1034C000B01AB0925F0236CF6EE871E084E594E006
:1034D0000E940E21892B09F059C382E08093A70234
:1034E000A89580917A02882319F080E00E946E08E6
:1034F00080917F02882319F081E00E946E088091FC
:1035000084028630C1F58091850290918602A09157
:103510008702B0918802892B8A2B8B2B51F40E9451
:10352000550360938502709386028093870290937F
:1035300088020E9455030091850210918602209115
:10354000870230918802DC01CB01801B910BA20B1A
:10355000B30B61E08C32F1E09F07A105B10540F0AB
:1035600060E0803223E09207A105B10508F0D7C3DF
:1035700089E00E947C0210918E021123A9F18091B2
:103580008F0290919002A0919102B0919202892BAA
:103590008A2B8B2B51F40E94550360938F027093FA
:1035A000900280939102909392020E945503C090E2
:1035B0008F02D0909002E0909102F0909202DC0194
:1035C000CB018C199D09AE09BF0920916802022F19
:1035D000087023FF50C484369105A105B10508F099
:1035E0004AC481E00E94DE0480919802882321F081
:1035F00063E186E00E94DC0780919302882321F03A
:1036000062E185E00E94DC0780919D02882309F435
:1036100041C080919E0290919F02A091A002B09122
:10362000A102892B8A2B8B2B69F40E94550360938E
:103630009E0270939F028093A0029093A10281E06A
:103640008093BB020E94550300919E0210919F023D
:103650002091A0023091A102601B710B820B930B91
:1036600060367A4E8105910558F48091680283FD99
:1036700011C080916A02857569F481E0809393029C
:1036800010929D0210929E0210929F021092A00230
:103690001092A1021091A2021123C9F1123019F463
:1036A00080E00E94E60C8091A3029091A402A09178
:1036B000A502B091A602892B8A2B8B2B51F40E9474
:1036C00055036093A3027093A4028093A502909384
:1036D000A6020E945503C090A302D090A402E090DD
:1036E000A502F090A602DC01CB018C199D09AE0960
:1036F000BF09123009F00CC404E813E020E030E008
:10370000843FE1E09E07A105B10508F005C4809162
:10371000A702882331F048EC51E061E189E00E9482
:10372000DB098091AC02882331F04EEC51E06EE071
:103730008AE00E94DB098091B102882331F044EDD8
:1037400051E060E18BE00E94DB098091B6028823A2
:1037500031F04AED51E06FE08CE00E94DB0980918E
:10376000BB028823C9F18091BC029091BD02A09157
:10377000BE02B091BF02892B8A2B8B2B69F40E9469
:1037800055036093BC027093BD028093BE02909378
:10379000BF0281E00E94E60C0E9455030091BC022A
:1037A0001091BD022091BE023091BF02601B710BCF
:1037B000820B930B653671058105910568F080E0F9
:1037C0000E94E60C1092BB021092BC021092BD0245
:1037D0001092BE021092BF028091CA02882309F49F
:1037E00012C1609171027091720280917302909186
:1037F000740220EA36E841E050E00E94BA216901F3
:103800002B013C01890180906D0290906E02A09086
:103810006F02B0907002C501B40120EA36E841E0C1
:1038200050E00E94BA212FA338A749A75AA72FA07A
:1038300038A4C201D301B7FF07C0B095A0959095F9
:1038400081959F4FAF4FBF4F3C01C501B40120EAA6
:1038500036E841E050E00E94BA2197FF07C09095FA
:103860008095709561957F4F8F4F9F4F5B0187E4E7
:10387000898380E58A8383E58B83FE01349617FF75
:1038800008C08DE28C83002711270C191D09FE0149
:103890003596043611054CF0C80164E670E00E94CC
:1038A0008421605D60838C0131960A3011054CF0F3
:1038B000C8016AE070E00E948421605D6083082F87
:1038C0003196005D00838EE28183C30160E177E27F
:1038D0000E947021605D6283C30168EE73E00E9404
:1038E0007021CB012AE030E0B9010E947021805D97
:1038F0008383C30164E670E00E947021CB01B901AB
:103900000E947021805D8483C301B9010E947021EF
:10391000482FCB01B9010E947021805D8583405DF5
:1039200046838CE287838F0137FC0FC3085F1F4FEC
:10393000F4E62F1631045CF0C10164E670E00E94E9
:103940008421605DD8016C931C010F5F1F4FBAE0AA
:103950002B1631045CF0C1016AE070E00E94842102
:10396000605DF8016083282E0F5F1F4F80E3820D9A
:10397000D8018C938EE211968C93C50160E177E2B9
:103980000E947021605DF8016283C50168EE73E0FA
:103990000E947021CB012AE030E0B9010E94702121
:1039A000805D8383C50164E670E00E947021CB01D5
:1039B000B9010E947021805D8483C501B9010E9414
:1039C0007021482FCB01B9010E947021805D858351
:1039D000405D468380E2878383E28087C801099641
:1039E0000E949105D80151961C921092CA02109221
:1039F000CB021092CC021092CD021092CE02CE01D8
:103A000001960E94B4071091C002112309F43FC02F
:103A10008091C1029091C202A091C302B091C402F0
:103A2000892B8A2B8B2B81F40E9455036093C10252
:103A30007093C2028093C3029093C402123009F0C3
:103A40009DC381E08093BB020E945503C090C102D8
:103A5000D090C202E090C302F090C402DC01CB011E
:103A60008C199D09AE09BF0940917502123009F009
:103A700097C3843FE1E09E07A105B10508F06FC23E
:103A8000442329F080E00E94D50C109275028091A9
:103A9000C502882309F46AC00E9455036B017C01AA
:103AA0008091C6029091C702A091C802B091C9024C
:103AB000892B8A2B8B2B81F4C092C602D092C7022D
:103AC000E092C802F092C902109276021092770238
:103AD00010927802109279028091C6029091C702EA
:103AE000A091C802B091C90246015701881A990AEB
:103AF000AA0ABB0A8091760290917702A09178027F
:103B0000B09179020097A105B10569F0A70196016E
:103B1000281B390B4A0B5B0BDA01C901843F91402A
:103B2000A105B10550F00E949D0CC0927602D09282
:103B30007702E0927802F092790240E1841647E23F
:103B40009406A104B10490F01092C5021092C6022E
:103B50001092C7021092C8021092C9021092760207
:103B600010927702109278021092790280E090E031
:103B7000892B11F40C9435120E94D401882311F47E
:103B80000C9430120E9400000C9430126AE871E02C
:103B900084E594E00E940E21892B21F482E0809339
:103BA000B1029ECC65E871E084E594E00E940E21AC
:103BB000892B21F482E08093980292CC6EE771E029
:103BC00084E594E00E940E21892B21F482E0809309
:103BD000930286CC69E771E084E594E00E940E21AF
:103BE000892B21F482E08093C0027ACC63E771E0F4
:103BF00084E594E00E940E21892B21F481E08093DA
:103C0000C5026ECC6FE671E084E594E00E940E215F
:103C1000892B21F482E08093A20262CC69E671E0F4
:103C200084E594E00E940E21892B21F480916802A2
:103C300083FF14C064E671E084E594E00E940E21E5
:103C4000892B81F060E671E084E594E00E940E210A
:103C5000892B81F481E08093CA0242CC82E0809378
:103C60007F023ECC8091680283FFECCF82E080939C
:103C70008E0236CC69E571E084E594E00E940E2165
:103C8000892B19F40E94BE072BCC63E571E084E513
:103C900094E00E940E21892B29F4F89414BE0C9410
:103CA000003F1ECC6AE471E084E594E00E940E219E
:103CB000892B09F015CC8091680283FD11CC82E03C
:103CC00080937F0285E0809384020ACC66E471E0F1
:103CD00084E594E00E941E21892B69F064E974E078
:103CE00080EE92E00E940E220E94D40E82E391E0C8
:103CF0000E94D209F5CB6EE271E084E594E00E9467
:103D00001E21892B09F4ECCB64E974E08FEE92E07C
:103D10000E940E220E94D40E8AE191E0E9CF8838F9
:103D20009341A105B10508F095C089E00E947C028D
:103D300080916C0281FD1FCC40916B0246FF1BCC31
:103D400080918902823009F016CC809167025091EF
:103D5000660220916502309164029CE79983FE011E
:103D6000329687FF05C09DE29A838195FE013396C6
:103D700084363CF091E3908364E60E946221892FAF
:103D800031968A303CF06AE00E946221805D808337
:103D9000892F3196805D80838EE28183852F6AE052
:103DA0000E945621905D92838CE7838347FF2AC04F
:103DB0008FE684838CE6858384E7868382E7878326
:103DC00085E6808780E2818784E382878F01045FB4
:103DD0001F4F80E3838723E2D8012D93CD010E94FA
:103DE0009105F8011186CE0101960E94B4078091D9
:103DF0006C02826080936C0280916B028F7B809357
:103E00006B02B9CBDF012436E0F414962A3040F07F
:103E1000822F6AE00E945621805D8C93292F119693
:103E2000205D2C938EE211968C9311978D010D5F7E
:103E30001F4F832F6AE00E945621905D12969C933B
:103E4000CACF1596822F64E60E945621805D848336
:103E5000292FDCCF89E00E947C021092840210920C
:103E60008502109286021092870210928802809139
:103E70006C028D7FBFCF8C32F1E09F07A105B105A9
:103E800010F480E0AFCB803D37E09307A105B1058A
:103E900008F4AACB287239F48C3F48E09407A105B6
:103EA000B10508F49ECB80369940A105B10550F5C7
:103EB00080E00E94DE04002341F080916B02846068
:103EC00080936B020E94BE0706C01330B9F0143015
:103ED00079F01230B9F310928E0210928F02109284
:103EE00090021092910210929202109289027CCB61
:103EF0006DE08AEB91E00E948D0EEDCF6FE08AEAD3
:103F000091E0F9CF80E00E94DE0410928E02EDCFA6
:103F100000E911E020E030E080179107A207B30725
:103F200028F461E084E00E947C02F1CB60E084E050
:103F30000E947C021092A2021092A3021092A4028C
:103F40001092A5021092A602E2CB075F1F4F8DE2EE
:103F500080872FA038A4319421943108E9CC04EF54
:103F600011E020E030E0C0900801D0900901E0901D
:103F70000A01F0900B010C0D1D1D2E1D3F1D801719
:103F80009107A207B30748F4411181CD81E00E9457
:103F9000D50C81E0809375027ACD442329F080E02E
:103FA0000E94D50C109275021092C0021092C102AC
:103FB0001092C2021092C3021092C40280ED97E0E8
:103FC000A0E0B0E08093080190930901A0930A015A
:103FD000B0930B015CCD009189020E945503C09003
:103FE0008A02D0908B02E0908C02F0908D026C19C6
:103FF0007D098E099F0961347F418105910578F023
:1040000015FD04C080916A02857549F083E0023095
:1040100011F00C947E1580938E021092890217FD88
:1040200005C080916902877021E009F020E090913D
:104030006B0220FB94F990936B0292FB002700F92E
:10404000192F117080916A02B82FB17082FBAA27D4
:10405000A0F984FBFF27F0F986FBEE27E0F9309109
:10406000680233FB772770F960913D0250913B0263
:104070004091390293FBFF24F0F8F0122DC095FB1C
:10408000FF24F0F82F1128C096959170911324C049
:1040900081FB992790F9B9131FC083FB992790F9E9
:1040A0009A131AC085FB992790F9F91315C087FB5D
:1040B000882780F9E81310C03295317037130CC08F
:1040C00080913E02861308C080913C02851304C093
:1040D00080913A02481721F180916B0200FB83F92D
:1040E00020FB85F910FB81F980936B0280916A02B5
:1040F000B0FB81F9A0FB83F9F0FB85F9E0FB87F9C0
:1041000080936A028091680270FB84F98093680250
:1041100060933E0250933C0240933A020E94A906EB
:1041200011E005E082E0F82E8EEF92E00E94C801D7
:10413000892B09F489C88EEF92E00E94A601909124
:104140003802E92FF0E0E25DFD4F8A3039F08D3022
:1041500029F0882319F0993008F471C8108261E0C1
:1041600071E08EE292E00E940E21892B11F00C94F6
:1041700065180E94A90610923802D6CF0E945503F6
:104180000091C1021091C2022091C3023091C40279
:10419000DC01CB01801B910BA20BB30B409175028C
:1041A00000E010E09801DFCE8FE591E090939C0352
:1041B00080939B0380912802909129028B59934010
:1041C00071F4E091AE03F091AF0390818091B00360
:1041D00080958923808310922902109228020895E5
:1041E000FC0188279927E89421912032E9F32930AE
:1041F00010F02E30C8F32B3241F02D3239F4689490
:1042000004C00E943821820F911D219120532A3031
:10421000C0F31EF4909581959F4F0895FB01DC013A
:104220008D91059080190110D9F3990B0895FB0128
:10423000DC0105900D920020E1F70895FB015591F6
:104240005523A9F0BF01DC014D9145174111E1F75C
:1042500059F4CD010590002049F04D9140154111D0
:10426000C9F3FB014111EFCF81E090E00197089580
:104270007AE0979F902D879F802D910D11240895AE
:10428000F999FECF92BD81BDF89A992780B508951E
:10429000262FF999FECF1FBA92BD81BD20BD0FB662
:1042A000F894FA9AF99A0FBE01960895991B79E04D
:1042B00004C0991F961708F0961B881F7A95C9F7B6
:1042C0008095089587FB082E062687FD819567FD5A
:1042D00061950E9456210EF4919507FC81950895F1
:1042E000AA1BBB1B51E107C0AA1FBB1FA617B7071C
:1042F00010F0A61BB70B881F991F5A95A9F7809538
:104300009095BC01CD01089597FB072E16F40094FB
:1043100007D077FD09D00E94702107FC05D03EF43C
:10432000909581959F4F0895709561957F4F089561
:10433000A1E21A2EAA1BBB1BFD010DC0AA1FBB1FA9
:10434000EE1FFF1FA217B307E407F50720F0A21B1B
:10435000B30BE40BF50B661F771F881F991F1A9488
:1043600069F760957095809590959B01AC01BD01B2
:10437000CF010895052E97FB1EF400940E94D121D1
:1043800057FD07D00E94982107FC03D04EF40C94EF
:10439000D12150954095309521953F4F4F4F5F4F1C
:1043A000089590958095709561957F4F8F4F9F4FA1
:1043B0000895EE0FFF1F0590F491E02D0994FB0185
:1043C000DC0102C001900D9241505040D8F7089591
:1043D0006817790768F4FB01DC01E40FF51FA40FEF
:1043E000B51F02C002900E9241505040D8F7089578
:1043F0000C94DF21FC018191861721F08823D9F7E5
:10440000992708953197CF010895FB01DC018D9123
:10441000019080190110D9F3990B0895FB01DC017B
:1044200001900D920020E1F70895FB015191552371
:10443000A9F0BF01DC014D9145174111E1F759F495
:10444000CD010190002049F04D9140154111C9F373
:10445000FB014111EFCF81E090E00197089511E059
:10446000CBE1D1E004C0FE010E94D9212196CC31DC
:08447000D107C9F7F894FFCF52
:10447800FFFFFFFFFFFFFFFFD00700000000010064
:104488000200000001000200030004000500090505
:104498000412110E100F08130607830188019601F4
:1044A8009B01A201AC01BE016061660170717602D8
:1044B800303136404146505156000000000A026A29
:1044C8000197015C02C801A601BA01000000007A48
:1044D800036A01D4047903D603EC0361030D0A00CF
:1044E8003E004F4B002B434D54493A002B434D4758
:1044F800523A00415426460041542B435343533DFE
:104508002247534D2200415445300041542B434229
:10451800430041542B434D47463D310041542B4302
:104528004E4D493D322C312C302C302C300041542A
:104538002B43504D533D22534D222C22534D222CB8
:0645480022534D22000089
:00000001FF
