:100000000C9444010C946C010C946C010C94320E11
:100010000C94320E0C94320E0C946C010C946C0106
:100020000C946C010C946C010C946C010C946C019C
:100030000C946C010C946C010C946C010C946C018C
:100040000C94E80D0C946C010C94B60D0C94900D6E
:100050000C946C010C946C010C946C010C946C016C
:100060000C946C010C946C014E4100545952453A69
:100070000000000008000201000003040700000067
:10008000000000000041542B434D4744413D2244B1
:10009000454C20414C4C220041542B43504D533D84
:1000A00022534D222C22534D222C22534D2200410B
:1000B000542B434E4D493D322C312C302C302C30BA
:1000C0000041542B434D47463D31004154453000DB
:1000D00041542B435343533D2247534D2200415437
:1000E0002646004154004252532D416C61726D20EE
:1000F00023004252532D436C6F73656420230073B9
:10010000746172745F616300686F726E006C69671E
:100110006874006770730073746172740073746F35
:100120007000706F727400626F783300626F7832A3
:1001300000626F783100636869756469006170728C
:10014000690067777300726573657400747972650E
:10015000007570646174650041542B434D47443D04
:100160000041542B434D47523D004E756D65726FF3
:10017000205B325D2053616C7661746F21005B32CD
:100180005D004E756D65726F205B315D2053616C53
:100190007661746F21005B315D005374617274206D
:1001A0004143005265736574005570646174650065
:1001B0004C69676874004750530053746F70005364
:1001C000746172740047575300486F726E00436841
:1001D00069756469004170726900426F7800536FFD
:1001E0007263696E656C6C6900536574204F574E7D
:1001F000455220323031323736004252532D456D50
:10020000657267656E63792023004252532D5469ED
:100210006D656F7574202300424F58203100424FA6
:1002200058203200424F58203300504F52544F4E06
:100230004500220041542B434D47533D220000000E
:1002400000002300260029000000000025002800EF
:100250002B0000000000240027002A0001020408EF
:100260001020408001020408102001020408102020
:10027000040404040404040402020202020203034C
:1002800003030303390F302011241FBECFEFD8E042
:10029000DEBFCDBF11E0A0E0B1E0E0E3F3E402C0D7
:1002A00005900D92AA36B107D9F724E0AAE6B1E08D
:1002B00001C01D92A032B207E1F711E0C3E4D1E022
:1002C00004C02197FE010E943521C234D107C9F72D
:1002D0000E9438100C948B210C940000EF92FF9236
:1002E0000F931F93CF93DF938C017B01D0E0C0E08D
:1002F000F701EC0FFD1F6491662361F0D801ED91C9
:10030000FC910190F081E02DC8010995892B11F035
:100310002196EECFCE01DF91CF911F910F91FF90EB
:10032000EF900895AF92BF92CF92DF92EF92FF923B
:100330000F931F93CF93DF936C017B018B01040F0D
:10034000151FEB015E01AE18BF08C017D10759F0A9
:100350006991D601ED91FC910190F081E02DC601EB
:100360000995892B79F7C501DF91CF911F910F91E5
:10037000FF90EF90DF90CF90BF90AF900895FC0179
:10038000538D448D252F30E0842F90E0821B930BFA
:10039000541710F0CF96089501970895FC01918DA0
:1003A000828D981761F0A28DAE0FBF2FB11D5D96A3
:1003B0008C91928D9F5F9F73928F90E008958FEF45
:1003C0009FEF0895FC01918D828D981731F0828DF9
:1003D000E80FF11D858D90E008958FEF9FEF089550
:1003E000FC01918D228D892F90E0805C9F4F821BB4
:1003F00091098F739927089586E093E00E94F00198
:1004000021E0892B09F420E0822F089580E090E01C
:10041000892B29F00E94FC0181110C9400000895A1
:10042000FC01A48DA80FB92FB11DA35ABF4F2C9169
:10043000848D90E001968F739927848FA689B78960
:100440002C93A089B1898C91837080648C93938D57
:10045000848D981306C00288F389E02D80818F7DFA
:1004600080830895EF92FF920F931F93CF93DF93B2
:10047000EC0181E0888F9B8D8C8D98131AC0E889E0
:10048000F989808185FF15C09FB7F894EE89FF89AF
:100490006083E889F98980818370806480839FBF4D
:1004A00081E090E0DF91CF911F910F91FF90EF904D
:1004B0000895F62E0B8D10E00F5F1F4F0F7311275D
:1004C000E02E8C8D8E110CC00FB607FCFACFE88998
:1004D000F989808185FFF5CFCE010E941002F1CF0E
:1004E000EB8DEC0FFD2FF11DE35AFF4FF0829FB70C
:1004F000F8940B8FEA89FB8980818062CFCF682FC7
:1005000086E093E00C943202CF93DF93EC01888D68
:100510008823B9F0AA89BB89E889F9898C9185FD7E
:1005200003C0808186FD0DC00FB607FCF7CF8C910C
:1005300085FFF2CF808185FFEDCFCE010E941002B2
:10054000E9CFDF91CF91089590E0FC01EF58FF4F84
:100550002491FC01E45AFD4F3491FC01E059FD4F18
:10056000E491EE23C9F0222339F0233001F1A8F4FD
:10057000213019F1223029F1F0E0EE0FFF1FE85B86
:10058000FD4FA591B4918FB7F894EC91611126C0FD
:1005900030953E233C938FBF08952730A9F0283033
:1005A000C9F0243049F7809180008F7D03C080918D
:1005B00080008F7780938000DFCF84B58F7784BDF4
:1005C000DBCF84B58F7DFBCF8091B0008F77809398
:1005D000B000D2CF8091B0008F7DF9CF3E2BDACF23
:1005E00061E08091C4030C94A402CF93DF9390E068
:1005F000FC01E45AFD4F249180599D4FFC018491E8
:100600008823D1F090E0880F991FFC01EE5AFD4F2E
:10061000A591B491FC01E85BFD4FC591D4916111A6
:100620000EC09FB7F8948C91E22FE0958E238C93A7
:100630002881E223E8839FBFDF91CF9108958FB790
:10064000F894EC91E22BEC938FBFF6CF3FB7F89480
:100650008091B6019091B701A091B801B091B90114
:1006600026B5A89B05C02F3F19F00196A11DB11D0D
:100670003FBFBA2FA92F982F8827BC01CD01620F49
:10068000711D811D911D42E0660F771F881F991F04
:100690004A95D1F708958F929F92AF92BF92CF92D1
:1006A000DF92EF92FF924B015C010E9426036B01E7
:1006B0007C010E9426036C197D098E099F09683E02
:1006C000734081059105A8F321E0821A9108A108E1
:1006D000B10888EEC80E83E0D81EE11CF11C81141D
:1006E0009104A104B10429F7FF90EF90DF90CF901F
:1006F000BF90AF909F908F9008952FB7F89460911E
:10070000B2017091B3018091B4019091B5012FBFF6
:1007100008952091BC013091BD012817390771F46B
:100720009091BA018091BB01981741F0E091BA0114
:10073000F0E0EF58FE4F808190E008958FEF9FEF3B
:1007400008950895EF92FF920F931F93CF93DF9335
:10075000DC015C96ED90FC905D97E114F10479F476
:1007600081E090E013969C938E93129790E080E046
:10077000DF91CF911F910F91FF90EF9008955196C7
:10078000ED91FC91529750968C915097982F90959F
:100790000FB75E962C915E97122F127021FD609517
:1007A000F8942081112319F1282B2083E701219748
:1007B000F1F728E0462F50E0308160FF1AC0382B57
:1007C0003083E7012197F1F7BA01759567952150BC
:1007D00089F7112381F08081892380830FBF5C9684
:1007E0008D919C910197F1F781E090E0C1CF292391
:1007F000DCCF3923E5CF9081892BEFCF2091BC014D
:100800003091BD012817390761F48091BB01209117
:10081000BA0190E0805C9F4F821B91098F739927EA
:10082000089590E080E008952091BC013091BD01D1
:1008300028173907B9F49091BA018091BB01981734
:1008400089F0E091BA01F0E0EF58FE4F80812091ED
:10085000BA0130E02F5F3F4F2F7333272093BA0147
:1008600090E008958FEF9FEF08954F925F926F92FF
:100870007F928F929F92AF92BF92CF92DF92EF9230
:10088000FF924C016B010E947D032B013C01B12CB6
:10089000A12C83EA93E00E94FE03892B69F40E9455
:1008A0007D036419750986099709681579058A0514
:1008B0009B0510F4A895EDCF83EA93E00E94FE0318
:1008C000892B01F10E947D034B015C01F12CE12C8D
:1008D000A89583EA93E00E94FE03892B41F083EA06
:1008E00093E00E9414040E947D034B015C010E946E
:1008F0007D03681979098A099B096C157D058E05A8
:100900009F0530F3FF90EF90DF90CF90BF90AF90B6
:100910009F908F907F906F905F904F9008958F92EF
:100920009F92AF92BF92CF92DF92EF92FF92CF93BE
:100930004B015C010E947D036B017C01C0E00E94C1
:100940007D036C197D098E099F09681579058A0553
:100950009B05E0F4A89583EA93E00E94FE03892BAF
:1009600071F383EA93E00E941404EC2FF0E0ED5A57
:10097000FE4F9081891305C0CF5FC23061F781E0DF
:1009800006C0C1E08F3439F3C0E0E5CF80E0CF91FD
:10099000FF90EF90DF90CF90BF90AF909F908F909F
:1009A000089590E080E008958EBD00000DB407FE2C
:1009B000FDCF8EB50895CF93C82F682F86E00E9493
:1009C000A4026C2F87E0CF910C94A402CF92DF9207
:1009D000EF92FF920F931F9340917402842F807CBB
:1009E00020917502811104C051E0822F837009F0BB
:1009F00050E0609177026695617070E090E080E071
:100A0000992766959795882777276627009176021C
:100A100007FBCC24C0F8D12CF12CE12CEDE1CC0C5F
:100A2000DD1CEE1CFF1CEA95D1F76C297D298E296F
:100A30009F2930914502632B27FBCC24C0F8D12C91
:100A4000F12CE12CFCE1CC0CDD1CEE1CFF1CFA951A
:100A5000D1F76C297D298E299F2901FBCC24C0F870
:100A6000D12CF12CE12CABE1CC0CDD1CEE1CFF1CDD
:100A7000AA95D1F76C297D298E299F2903FBCC24C7
:100A8000C0F8D12CF12CE12CBAE1CC0CDD1CEE1C11
:100A9000FF1CBA95D1F76C297D298E299F2905FB6A
:100AA000002700F910E030E020E0E9E1000F111F1D
:100AB000221F331FEA95D1F7602B712B822B932BCA
:100AC00042FB002700F910E030E020E0302F222721
:100AD00011270027602B712B822B932B2091490229
:100AE000822B20914702722B052F10E030E020E08E
:100AF000AEE1000F111F221F331FAA95D1F7602B03
:100B0000712B822B932B1F910F91FF90EF90DF9011
:100B1000CF900895CF93DF93D82FC92F0E94E6047A
:100B2000AB01BC01ED2FFC2F2CE130E0DB01CA0151
:100B3000022E04C0B695A795979587950A94D2F78B
:100B40008F708A3058F4805D8193245031092C3F96
:100B50008FEF380759F7DF91CF910895895CF4CF73
:100B600095E0899FF0011124EB57FD4F108211820F
:100B700012821382148208954F925F926F927F9235
:100B80008F929F92AF92BF92CF92DF92EF92FF929D
:100B90000F931F93CF93DF934C017B016A010E9457
:100BA0007D032B013C01B12CA12C83EA93E00E9430
:100BB000FE03892B69F40E947D0364197509860977
:100BC0009709681579058A059B0510F4A895EDCF5E
:100BD00083EA93E00E94FE03892BD1F1F601019094
:100BE0000020E9F731978F010C191D090E947D0340
:100BF0004B015C01D0E0C0E011272701712C612C72
:100C0000A89583EA93E00E94FE03892BB1F083EA62
:100C100093E00E941404F601EC0FFD1F90819813DD
:100C200006C02196C017D10721F481E012C0D0E0A0
:100C3000C0E00E947D034B015C010E947D036819A6
:100C400079098A099B096415750586059705C0F21F
:100C500080E0DF91CF911F910F91FF90EF90DF9097
:100C6000CF90BF90AF909F908F907F906F905F904C
:100C70004F900895FB0101900020E9F73197AF01F3
:100C8000461B570BDC01ED91FC910280F381E02DB6
:100C90000994CF93DF93BC0183EA93E00E946E0135
:100CA000EC0166E571E083EA93E00E943A068C0F5E
:100CB0009D1FDF91CF9108958F929F92AF92BF9227
:100CC000EF92FF920F931F93CF93DF93CDB7DEB7D1
:100CD000A1970FB6F894DEBF0FBECDBF7C01FA011D
:100CE000CB0119A2223008F42AE08E010F5D1F4FBC
:100CF000822E912CB12CA12CBF01A50194010E9440
:100D0000F420F901CA016A300CF5605DD8016E93D8
:100D10008D01232B242B252B79F790E080E0109771
:100D200021F0BD01C7010E943A06A1960FB6F894C2
:100D3000DEBF0FBECDBFDF91CF911F910F91FF900E
:100D4000EF90BF90AF909F908F900895695CDECF39
:100D50008F929F92AF92BF92CF92DF92EF92FF92CB
:100D6000CF93DF930E94E6046B017C0183E20E9433
:100D70007F0280907302082C000C9908AA08BB0817
:100D80002AE0B501A401B7FE0BC08DE20E947F02EC
:100D900044275527BA01481959096A097B092AE0ED
:100DA00086E093E00E945C068EE20E947F02409102
:100DB000720250E070E060E02AE086E093E00E947A
:100DC0005C0683E20E947F024091710250E070E075
:100DD00060E02AE086E093E00E945C068EE20E94DA
:100DE0007F024091700250E070E060E02AE086E00F
:100DF00093E00E945C0683E20E947F02CCE1D0E097
:100E0000D701C6010C2E04C0B695A7959795879576
:100E10000A94D2F78F708A30C0F4805D0E947F02FE
:100E20002497CC3F8FEFD80759F766E571E086E04D
:100E300093E0DF91CF91FF90EF90DF90CF90BF9044
:100E4000AF909F908F900C943A06895CE7CFCF9338
:100E5000DF938E3F2FEF920740F068E670E086E068
:100E600093E0DF91CF910C946E016AE070E00E94F4
:100E7000CC20EC01AB0170E060E02AE086E093E07A
:100E80000E945C068EE20E947F02AE0170E060E08C
:100E90002AE086E093E0DF91CF910C945C060F93FB
:100EA0001F93CF93DF932091CB03211107C0C0E0A4
:100EB0008C2FDF91CF911F910F910895EB018C0141
:100EC00064E372E083EA93E00E946E0168EE72E0F0
:100ED00083EA93E00E943A0682E392E00E94490688
:100EE00049E551E064EF71E088EE93E00E94BC05B3
:100EF0008823E9F262E370E088EE93E00E94350413
:100F000001151105D1F0C8010E9449066AE183EA82
:100F100093E00E94A20343E551E068E873E188E5AD
:100F20009BE10E94BC05C82F882309F262E370E0B0
:100F300088EE93E00E943504BBCF209729F0BE01D4
:100F400083EA93E00E943A0666E571E083EA93E063
:100F50000E943A06DBCF2091E802222329F0BC014F
:100F600090E080E00C944F070895CF93DF93CDB7C6
:100F7000DEB72A970FB6F894DEBF0FBECDBF83E26F
:100F80008983CE0102960E948A051A86CE010196B7
:100F90000E94AB072A960FB6F894DEBF0FBECDBFF6
:100FA000DF91CF910895CF92DF92EF92FF920F934E
:100FB0001F93CF93DF93182F062F25E0829FE00128
:100FC0001124CB57DD4FC980DA80EB80FC80C1143F
:100FD000D104E104F10479F40E947D0369837A83EA
:100FE0008B839C83DF91CF911F910F91FF90EF90A6
:100FF000DF90CF9008950E947D03DC01CB018C1916
:101000009D09AE09BF0961E08C3221E09207A1057C
:10101000B105E0F0803921E09207A105B10560F447
:1010200061E0802FDF91CF911F910F91FF90EF90A2
:10103000DF90CF900C94A40260E08C3B9240A1051D
:10104000B10530F4802F0E94A40260E085E0EACF71
:10105000802F0E94A40260E085E00E94A402C88163
:10106000C23031F480917602163091F487FF12C0BD
:10107000812F0E94B005C23009F0B4CFDF91CF912B
:101080001F910F91FF90EF90DF90CF900C94B507D8
:1010900087FFEECF80917702826080937702E8CF5E
:1010A0008F929F92AF92BF92CF92DF92EF92FF9278
:1010B0000F931F93CF93C82F0E947D036B017C0178
:1010C0004C2F50E005E0C09FF0011124EB57FD4F7D
:1010D00081819281A381B481892B8A2B8B2B59F436
:1010E000C182D282E382F482809170018330E0F485
:1010F0008F5F8093700185E0849FF001859FF00DE4
:101100001124EB57FD4F81819281A381B481970116
:101110008601081B190B2A0B3B0BD901C801883C1F
:101120009105A105B10578F461E085E0CF911F91AB
:101130000F91FF90EF90DF90CF90BF90AF909F9076
:101140008F900C94A402883512E09107A105B10597
:1011500028F483E1C11182E161E0E8CF8C3B22E019
:101160009207A105B10528F483E1C11182E160E095
:10117000DDCF20917402322F347022FD16C0CC23B3
:10118000F1F0883E63E09607A105B10580F481E0A7
:10119000CF911F910F91FF90EF90DF90CF90BF9074
:1011A000AF909F908F900C94DB04CC2341F08C3453
:1011B00004E09007A105B10510F480E0E9CF2471A7
:1011C00059F4C11180C0803213E09107A105B10527
:1011D00080F461E088E0AACF203149F4C111C7C092
:1011E000883E03E09007A105B10518F4D0CFC111E6
:1011F00071C068EB862E6BE0962EA12CB12C843149
:1012000065E09607A105B10508F071C0D6CF33237C
:1012100021F160E088E00E94A40260E085E00E9485
:10122000A402809174028D7F8093740280918F025A
:10123000853019F486E080938F02109270018C2F14
:10124000CF911F910F91FF90EF90DF90CF90BF90C3
:10125000AF909F908F900C94B00580917001833077
:10126000D0F485E0849FF001859FF00D1124EB57A9
:10127000FD4F118212821382148282E0C11101C0DB
:1012800081E095E0949FF001959FF00D1124EB57BC
:10129000FD4F808360C060E088E00E94A40260E0AF
:1012A00085E00E94A4028091770282608093770299
:1012B000C1110E94B50710927001809174028D7F58
:1012C00080937402BCCF803B04E09007A105B10578
:1012D00008F47FCF78E4872E7DE0972EA12CB12CE7
:1012E000843A16E09107A105B10508F466CF881588
:1012F0009905AA05BB0508F08ACF243161F560E0A5
:1013000088E00E94A40260E085E00E94A402CC2351
:1013100089F082E080939402C0929502D092960266
:10132000E0929702F092980280918F02811102C0A0
:101330000E94B50710927001809174028D7F809396
:1013400074028C2F0E94B00580918F02853019F4B1
:1013500086E080938F02CF911F910F91FF90EF90C5
:10136000DF90CF90BF90AF909F908F900895883777
:1013700065E09607A105B10508F409CFABCF209130
:10138000E802222321F070E060E00C944F070895FA
:10139000CF92DF92EF92FF920F931F93CF93DF9341
:1013A000D82EC62EEA01E82EF12C25E0829F80017E
:1013B00011240B571D4FF80181819281A381B481C3
:1013C000892B8A2B8B2B51F40E947D03F8016183BA
:1013D00072838383948381E08093C6020E947D039D
:1013E00025E02E9DF0012F9DF00D1124EB57FD4FB0
:1013F0000181128123813481DC01CB01801B910B9F
:10140000A20BB30B61E0843F21E09207A105B10577
:1014100030F080329340A105B10560F460E08C2D7E
:10142000DF91CF911F910F91FF90EF90DF90CF90C0
:101430000C94A4028081823019F4CE010E94BF096D
:1014400060E08C2D0E94A4028D2DDF91CF911F9121
:101450000F91FF90EF90DF90CF900C94B0056BE66A
:1014600070E086E093E00E946E0180910601909109
:1014700007010E9427078CE20E947F0280910401ED
:10148000909105010E9427078CE20E947F028091C3
:101490000201909103010E9427078CE20E947F02C3
:1014A00080910001909101010E94270766E571E09B
:1014B00086E093E00C943A060F931F930091C503C6
:1014C0001091C6032091C7033091C80340E052E158
:1014D0006AE770E080E0041715072607370740F435
:1014E00076956795579547958F5F8630A1F787E08A
:1014F000982F906A9695809581709CBD8DBD60E017
:101500008091C4031F910F910C94A402CF93C82F14
:101510000E945C0A83E00E94D4048C2F0E94D404B1
:1015200080E00E94D404C82F0E94F0028C2FCF913B
:1015300008951F93CF93DF93182FD62FC42F0E94A7
:101540005C0A85E00E94D404812F0E94D4048D2F70
:101550000E94D4048C2F0E94D404DF91CF911F915C
:101560000C94F002CF92DF92EF92FF92CF93C82FAC
:10157000482F60EE8FE00E94990A0E947D036B0164
:101580007C012AE0C20ED11CE11CF11C0E947D03EB
:101590006C157D058E059F0580F48EE00E94860AFD
:1015A000807EC813F3CF81E091E0892790E0CF914E
:1015B000FF90EF90DF90CF90089580E0F5CFCF932C
:1015C000DF93D82FC62F0E945C0A82E00E94D404C9
:1015D0008D2F0E94D4048C2F0E94D404DF91CF91D0
:1015E0000C94F002FF920F931F93CF93DF93C82FB9
:1015F000F62E172F042F0E945C0A83E00E94D40469
:101600008C2F0E94D404CF2DD12F0C0F1D2F111D14
:10161000C017D10729F080E00E94D4048993F8CF45
:10162000DF91CF911F910F91FF900C94F002BF9228
:10163000CF92DF92EF92FF920F931F93CF93DF939E
:1016400000D000D01F92CDB7DEB78C01000F111F64
:10165000000F111FF801E25EFE4F45E0BE016F5F13
:101660007F4F81810E94F20A8A81C98098E0C99ED9
:1016700060011124282F30E055E0359527955A95C3
:10168000E1F7C20ED31E0D2C000CEE08FF0883FFFD
:1016900020C092E0CC0CDD1CEE1CFF1C9A95D1F70B
:1016A0008370C80ED11CE11CF11CFE2CED2CDC2C2F
:1016B000CC248B81C80ED11CE11CF11CFE2CED2C1E
:1016C000DC2CCC248C81C80ED11CE11CF11C68944C
:1016D000F7F88D818F70B82EE8E081E090E0EB158F
:1016E00028F1F801E25EFE4F80810E94860A83FFA6
:1016F00002C06894F6F8C092D802D092D902E09263
:10170000DA02F092DB02B092DC02025E1E4F4B2D39
:1017100060EE72E0F80182810E94F20A40E0F80176
:1017200063818CE20E94990A90E080E00F900F9014
:101730000F900F900F90DF91CF911F910F91FF901D
:10174000EF90DF90CF90BF9008950E945C0A80ECEC
:101750000E94D4040E94F0026AE070E080E090E011
:101760000E944B0364E080E60E94DF0A63EA8BE29A
:101770000E94DF0A80E80E94B20A892B61F460E0CF
:101780008AE20E94DF0A60EF89E20E94DF0A66E8CF
:1017900088E20E94DF0A80E00C94B20A4F925F92C6
:1017A0006F927F928F929F92AF92BF92CF92DF9271
:1017B000EF92FF920F931F93CF93DF93CDB7DEB7D6
:1017C00063970FB6F894DEBF0FBECDBFFC01248136
:1017D000293008F0B2C06C0186E0ECE0F1E0DE01F7
:1017E0001E9601900D928A95E1F73E01FEE06F0E84
:1017F000711C4E0184E1880E911CF301E190F1907F
:101800003F018701000F111FF801EE0DFF1DEA5D7A
:10181000FE4FA0808A2D0E94860A83FDAAC0F60191
:10182000B480F8E0FB1508F488C0F60140815181CE
:1018300062817381DB01CA018827B7FD83959927EF
:10184000AA27BB27282FDB01CA0188279927AA27A7
:10185000B07444244A94542C642CEFE17E2E211160
:1018600006C044244A9437E0532E612C712C442145
:10187000552166217721222309F443C04C835B83E1
:10188000AB0166277727242F220F220F220F207EFD
:10189000342F33703860232B2A83F5E05695479513
:1018A000FA95E1F74983892B8A2B8B2BC1F18B2D7C
:1018B00080648D834B2D50E0B601685F7F4FCE0171
:1018C00006960E943B21F5E0BF0E0E0D1F1DF8018C
:1018D000EA5DFE4F11810E945C0A82E00E94D404FE
:1018E000812F0E94D404CE0101967C018C01802FAF
:1018F0008E198B15B0F4F80181918F010E94D404E8
:10190000F6CF9A0153E0369527955A95E1F729834A
:101910004295440F407E4A831C821B82C4CF8B2D8C
:10192000C8CF0E94F00248E068E08A2D0E94990A20
:101930008A2D0E94860A807719F084E090E002C028
:1019400090E080E063960FB6F894DEBF0FBECDBF87
:10195000DF91CF911F910F91FF90EF90DF90CF908B
:10196000BF90AF909F908F907F906F905F904F90BF
:1019700008956814790409F040CF82E090E0E2CF46
:10198000CF93DF93CDB7DEB767970FB6F894DEBF7E
:101990000FBECDBFFE013896E87F9F012C5F3F4F01
:1019A0008AE0D9011D928A95E9F781EE95E0A0E0E1
:1019B000B0E080839183A283B38388E0848380E650
:1019C000808781E0818795E0928783878FEF858785
:1019D00086878787CF010E94CE0B67960FB6F89453
:1019E000DEBF0FBECDBFDF91CF910895E8EDF2E0ED
:1019F00046EB52E060E070E0408351836283738382
:101A000092E0948380871186CF010C94CE0B46EC34
:101A100051E060E070E04093D8025093D9026093A7
:101A2000DA027093DB0294E09093DC02813089F05B
:101A300080E01092E1021092E0028093E302809332
:101A4000E20288ED92E00E94CE0B88ED92E00C94C9
:101A5000CE0B82E5EECFE8EDF2E04AE352E060E043
:101A600070E0408351836283738394E0948391E1B7
:101A7000908793EF918782878FE38387CF010E94BE
:101A8000CE0B88ED92E00E94CE0B88ED92E00C9494
:101A9000CE0B0F931F93CF93DF93CDB7DEB768972D
:101AA0000FB6F894DEBF0FBECDBF062FBC01CE012E
:101AB00001960E94732010E081E090E08C0F9D1F42
:101AC000800F911F0E948A05FE01E00FF11F118611
:101AD000CE0101960E94AB0768960FB6F894DEBF60
:101AE0000FBECDBFDF91CF911F910F910895FF924F
:101AF0000F931F93CF93DF93EC01F62E088119818A
:101B0000C8010E949C20F81621F06F2DC8010E9488
:101B1000A420CE01DF91CF911F910F91FF900895E6
:101B20001F920F920FB60F9211242F933F934F9352
:101B30005F936F937F938F939F93AF93BF93EF9335
:101B4000FF9386E093E00E941002FF91EF91BF9116
:101B5000AF919F918F917F916F915F914F913F9145
:101B60002F910F900FBE0F901F9018951F920F92FC
:101B70000FB60F9211242F938F939F93EF93FF93A0
:101B8000E0911603F09117038081E0911C03F0911E
:101B90001D0382FD1BC0908180911F038F5F8F7397
:101BA00020912003821741F0E0911F03F0E0EA5FEB
:101BB000FC4F958F80931F03FF91EF919F918F9121
:101BC0002F910F900FBE0F901F9018958081F4CF2A
:101BD0001F920F920FB60F9211242F933F938F9362
:101BE0009F93AF93BF938091B2019091B301A09165
:101BF000B401B091B5013091B10123E0230F2D372D
:101C000058F50196A11DB11D2093B1018093B20139
:101C10009093B301A093B401B093B5018091B60144
:101C20009091B701A091B801B091B9010196A11DA1
:101C3000B11D8093B6019093B701A093B801B09302
:101C4000B901BF91AF919F918F913F912F910F90CB
:101C50000FBE0F901F90189526E8230F0296A11D26
:101C6000B11DD2CF1F920F920FB60F9211242F9356
:101C70003F934F935F936F937F938F939F93AF9314
:101C8000BF93EF93FF93E091BC01F091BD013097BA
:101C900049F0A685B7858585968D91FF14C09C91E6
:101CA0008923A1F4FF91EF91BF91AF919F918F9103
:101CB0007F916F915F914F913F912F910F900FBE48
:101CC0000F901F9018959C91892361F7A389B4897F
:101CD0009C918589809589238C9386899789019722
:101CE000F1F7608D718DA685B785558538E020E0C8
:101CF000CB010197F1F7822F90E095958795282FDA
:101D00004C91452309F02068315091F7868D81FD73
:101D100020958091BB0190E001968F7399273091B7
:101D2000BA01381799F0A091BB01B0E0AF58BE4F8F
:101D30002C938093BB01828D938D0197F1F7A3893A
:101D4000B4898C919589892B8C93ACCF868D8160D9
:101D5000868FF1CF4F925F926F927F929F92AF9258
:101D6000BF92CF92DF92EF92FF920F931F93CF9388
:101D7000DF938C016B01E42E922E009721F0672BEC
:101D800011F0FC0110820E947D032B013C01D0E088
:101D9000C0E0F12C5601F1E0AF1AB108A89583EA32
:101DA00093E00E94FE03892B71F083EA93E00E9486
:101DB0001404F11015C0FF24F3948E11F12C0E942D
:101DC0007D032B013C010E947D036419750986097E
:101DD0009709623371058105910500F3F12C0AC062
:101DE000891119C00115110529F0CD2819F0C00F6E
:101DF000D11F18828F2DDF91CF911F910F91FF90EE
:101E0000EF90DF90CF90BF90AF909F907F906F90BA
:101E10005F904F9008950115110589F2CA15DB05F1
:101E200074F6F801EC0FFD1F80832196C8CFFF9256
:101E30000F931F93CF93DF9381E08093C60208EE48
:101E400012E0D0E0C0E0F801F1908F01CE010E94D5
:101E50009C20F81621F06F2DCE010E94A42021961F
:101E6000CE31D10581F7DF91CF911F910F91FF9076
:101E70000895CF93109209031092080388EE93E01F
:101E8000A0E0B0E080930A0390930B03A0930C03AF
:101E9000B0930D0323E331E030930703209306034F
:101EA00025EC30E0309313032093120324EC30E050
:101EB000309315032093140320EC30E03093170384
:101EC0002093160321EC30E030931903209318037C
:101ED00022EC30E030931B0320931A0326EC30E011
:101EE00030931D0320931C0310921F0310922003B4
:101EF00010922103109222031092A6031092A503C0
:101F00008093A7039093A803A093A903B093AA0377
:101F100085E491E09093A4038093A3031092BA0305
:101F20001092B9031092BC031092BB031092BE032F
:101F30001092BD031092C0031092BF036091C103C1
:101F40006E7F6D7F6093C1036695617081E0682745
:101F500083E00E94A40261E083E00E94F502EFE5C5
:101F6000F2E0E491E093B303E3E7F2E0E491F0E020
:101F7000EE0FFF1FE85BFD4F859194919093B503A1
:101F80008093B40360E082E00E94F5028091C10377
:101F900081FD04C061E082E00E94A40282E080939F
:101FA000AF03EEE5F2E0E491E093B003E2E7F2E0A4
:101FB000E491F0E0EE0FFF1FE25CFD4F85919491FC
:101FC0009093B2038093B1031092CB0383EC93E020
:101FD0009093CA038093C903CFB7F8948091C2034A
:101FE000811127C0EAE7F2E08491E6E6F2E09491FD
:101FF000E82FF0E0EE0FFF1FEE5AFD4FA591B491D0
:10200000EC91E92321F461E08AE00E94A40261E0FE
:102010008AE00E94F5028CB580618CBD8CB580642D
:102020008CBD61E08DE00E94F50261E08BE00E94D2
:10203000F5028091C2038F5F8093C203CFBF8AE015
:102040008093C40380E896E9A8E9B0E08093C503D3
:102050009093C603A093C703B093C80361E08AE0DE
:102060000E94F50261E08091C403CF910C94A40218
:10207000CF93DF93CDB7DEB7AA970FB6F894DEBF44
:102080000FBECDBF789484B5826084BD84B5816075
:1020900084BD85B5826085BD85B5816085BD809133
:1020A0006E00816080936E001092810080918100AB
:1020B00082608093810080918100816080938100A3
:1020C000809180008160809380008091B100846065
:1020D0008093B1008091B00081608093B0008091C6
:1020E0007A00846080937A0080917A008260809385
:1020F0007A0080917A00816080937A0080917A00E2
:10210000806880937A001092C100E0911603F091EC
:10211000170382E08083E0911203F0911303108291
:10212000E0911403F091150380E1808310921E0367
:10213000E0911A03F0911B0386E08083E09118037D
:10214000F0911903808180618083E0911803F09100
:102150001903808188608083E0911803F09119034E
:10216000808180688083E0911803F0911903808159
:102170008F7D80838CE0E2E1F1E0DE011196019039
:102180000D928A95E1F78E010F5F1F4F9E01235F2D
:102190003F4F3EA32DA3D801FD908D0161E08F2D0F
:1021A0000E94F50260E08F2D0E94A4028DA09EA0E7
:1021B0000815190581F70E94A50B68EEE62E62E06E
:1021C000F62E10E000E0C8010E949C20D7018D93FC
:1021D0007D010F5F1F4F0E311105A9F71092F60216
:1021E000109205038091E8028F3F11F41092E802EB
:1021F0008091F7028F3F11F41092F70283E290E092
:102200000E949C208093490287E390E00E949C20DA
:1022100080934702F12CE12C04E813E0412C512C6F
:102220003201812C912C5401C8010E949C2090E025
:10223000B0E0A0E00E2C04C0880F991FAA1FBB1F9E
:102240000A94D2F7882A992AAA2ABB2AC801049696
:102250000E949C2090E0B0E0A0E00E2C04C0880F0B
:10226000991FAA1FBB1F0A94D2F7482A592A6A2A23
:102270007B2A0F5F1F4FB8E0EB0EF11C0838E3E03C
:102280001E0791F680927C0290927D02A0927E02BF
:10229000B0927F02409278025092790260927A0264
:1022A00070927B0281E08093C60288E199E20FB6CA
:1022B000F894A895809360000FBE90936000809181
:1022C000D502811114C10E947D03613177428105DD
:1022D000910508F40CC11092CB031092BE0310922A
:1022E000BD031092BC031092BB031092BA0310926C
:1022F000B90382E490E09093C0038093BF03909170
:10230000AF03963108F047C02FE030E03093BA03B6
:102310002093B90320E430E03093BC032093BB0347
:1023200027E230E03093BE032093BD032091680084
:1023300084E0983048F031E09E3008F430E081E0ED
:1023400001C0880F3A95EAF7822B809368002DE64A
:1023500030E0983050F02BE630E09E3030F02CE644
:1023600030E0963110F030E020E03093B703209356
:10237000B603292F30E0983008F0A9C081E001C0F1
:10238000880F9A95EAF78093B8038091BF039091E4
:10239000C0030197F1F78091BD039091BE03892B93
:1023A00049F1E091BC01F091BD0123E0E33AF2076D
:1023B00009F1309739F0A389B4899C91858980957A
:1023C00089238C938091C1038E7F8093C1031092E7
:1023D000BB011092BA0183EA93E09093BD01809310
:1023E000BC01E091B603F091B70380819091B803EE
:1023F000892B808364EF71E080E090E00E944B03C2
:1024000083EA93E00E94FE03892B31F064E170E0DF
:1024100088EC90E00E94350404E010E058E9E52ED5
:1024200050E0F52EBB24B3940150110909F45CC0AF
:102430008091CB03811158C0A89583EE90E00E9453
:10244000490668EE73E080E090E00E948F048823E4
:1024500059F34EED50E05A83498380ED90E09C8320
:102460008B83ABECB0E0BE83AD83E1ECF0E0F887AA
:10247000EF834FEA842E40E0942E9A868986FC866C
:10248000EB869E012F5F3F4F6901A895D6018D9184
:102490009D916D010E94490660ED77E080E090E03B
:1024A0000E948F04882309F4BFCF8DA09EA08C14B6
:1024B0009D0459F7B092CB0385E890E00E9449064D
:1024C00068E873E180E090E00E948F04ADCF9E3019
:1024D00040F42850310981E001C0880F2A95EAF7BD
:1024E00052CF2E503109F7CF81E08093D5020E9460
:1024F0005C0A80EA0E94D40480E00E94D404182F71
:102500000E94F00290E080E010FD04C011FF97C02F
:1025100081E090E00E94170B892B09F090C00E9487
:102520007D036093BE017093BF018093C0019093BF
:10253000C101209174022E7F209374028091D802F1
:102540009091D902A091DA02B091DB02813533E09B
:102550009307A105B10509F493C508F0FDC28A3CB3
:1025600052E09507A105B10509F419C408F058C057
:102570008337F1E09F07A105B10509F443C58A330C
:1025800022E09207A105B10509F4A6C4823A91059B
:10259000A105B10509F053C08091DC02823008F436
:1025A0004EC09091E002983009F49EC308F08BC3AE
:1025B000923009F493C38091E102883009F4B1C3E9
:1025C00008F09EC3823009F4A6C3911138C081116E
:1025D00036C08091EA018E7F8093EA018091F401F8
:1025E0008E7F8093F4018091FE018E7F8093FE01A7
:1025F000809108028E7F80930802809112028E7F64
:102600008093120280911C028E7F80931C02809125
:1026100026028E7F80932602809130028E7F78C3BF
:102620008C3F32E09307A105B10509F402C408F01C
:102630006FC2803F9240A105B10509F4A1C30E9479
:102640007D030091BE011091BF012091C001309126
:10265000C101601B710B820B930B613E7349844077
:10266000910508F456C08091740280FD52C00E940A
:10267000A50B0E947D036093BE017093BF01809300
:10268000C0019093C10180917402816080937402B3
:102690001092450240907C0250907D0260907E0234
:1026A00070907F028090780290907902A0907A02D8
:1026B000B0907B0204E813E0F12CE12C1A8309832B
:1026C000C301B2010E2C04C0969587957795679546
:1026D0000A94D2F7CE0101960E94770DC8010496A4
:1026E0009A838983C501B4010E2C04C09695879501
:1026F000779567950A94D2F7CE0101960E94770DDF
:1027000028E0E20EF11C0F5F1F4F083833E013077B
:10271000A9F680918502811154C080918A028111AD
:1027200050C08091990281114CC080919E0281110C
:1027300048C08091A302811144C08091740285FD3C
:1027400040C08091750287FB772770F9209176024F
:1027500021FB662760F923FB552750F925FB442709
:1027600040F983FB332730F9932F972770FB83F9C8
:1027700084FB332730F93627392B60FB84F985FB3E
:10278000992790F99527392B50FB85F986FB9927D6
:1027900090F99427932B40FB86F980937502992337
:1027A00081F09091770287FDBCC42A7209F0B9C408
:1027B000892F8D7F809377026CE082EF90E00E94FA
:1027C000490D0E947D03E2ECF1E050E040E02AE098
:1027D000C280D380E480F5804B015C018C189D0899
:1027E000AE08BF087501640139EBC3163BE0D306A0
:1027F000E104F10408F01182249FD001259FB00D5F
:102800001124AE53BE4F3C91132F117031FD91C472
:10281000112339F066837783808791873C913260FA
:102820003C934F5F5F4F3A964C30510589F680914B
:10283000EB01813021F41092EB018093B202809180
:10284000F501813021F41092F5018093B702809157
:10285000FF01813009F08DC41092FF0181E0809367
:10286000BC0280910902813021F410920902809308
:10287000C10280911302813021F4109213028093DF
:10288000A80280911D02813089F510921D0280EA14
:1028900092E0A0E0B0E08093D8029093D902A09398
:1028A000DA02B093DB0288E08093DC0288E8809350
:1028B000E0028093E10280EF8093E2028DE4809356
:1028C000E3028FEF8093E4028093E5028093E602B7
:1028D0008093E70288ED92E00E94CE0B88ED92E0B3
:1028E0000E94CE0B88ED92E00E94CE0B80913102C7
:1028F000813021F4109231028093D0028091C30183
:10290000833029F41092C30181E08093AD0280915D
:10291000CD018130E1F41092CD019091750280914A
:102920007402807C19F4892F837089F092FD0FC0A6
:1029300088EC90E0A0E0B0E080930801909309015A
:10294000A0930A01B0930B0181E08093CB02109118
:1029500094028091E101813009F016C41092E101E6
:1029600090918502911110C49091990291110CC41B
:10297000111107C49091740292FD03C480938502E3
:1029800010919402112331F10E947D03C0909502B1
:10299000D0909602E0909702F09098026C197D0911
:1029A0008E099F0961347F418105910598F08091DE
:1029B000740284FD08C08091750287FD04C0809177
:1029C00076028A7239F0123019F483E0809399020A
:1029D000109294029091770291FB112710F9809147
:1029E000760287FBBB27B0F92091750227FB2227CF
:1029F00020F981FBAA27A0F983FBFF27F0F985FBCB
:102A0000EE27E0F93091740232FB772770F960917C
:102A10004902509147024091450292FB002700F97C
:102A2000011327C091709B1324C0982F91709213AB
:102A300020C082FB992790F99A131BC084FB992729
:102A400090F99F1316C086FB882780F9E81311C000
:102A500033FB332730F973130CC080914A0286137D
:102A600008C080914802581304C080914602841720
:102A700011F18091770210FB82F9B0FB80F980930D
:102A800077028091760220FB80F9A0FB82F9F0FBAF
:102A900084F9E0FB86F9809376028091740270FBE2
:102AA00083F98093740260934A02509348024093E2
:102AB00046020E94A80611E005E032E0F32E86E00F
:102AC00093E00E94F001892B09F440C486E093E072
:102AD0000E94CE0190914402E92FF0E0E65CFD4FA8
:102AE0008A3039F08D3029F0882319F0993008F4B4
:102AF00028C4108261E571E08AE392E00E946A20B6
:102B0000892B09F060C30E94A80610924402D7CF17
:102B10008E32E3E09E07A105B10509F45CC1803364
:102B20009340A105B10509F08ACD8091DC02843083
:102B300008F485CD6091E30280914702681709F49B
:102B40007ECD6093470287E390E09A838983CE012C
:102B500001960E94770D73CD873B23E09207A10574
:102B6000B10509F4BEC208F05FC0833A43E09407A0
:102B7000A105B10509F4E1C0863B53E09507A10525
:102B8000B10509F48EC28B369340A105B10509F059
:102B900056CD8091DC02883008F451CD6091E0027E
:102BA0007091E1024091E2025091E3022091E4022F
:102BB0003091E5028091E6029091E702E0910601F2
:102BC000F09107016E177F0709F07BC0E0910401C7
:102BD000F09105014E175F0709F073C0E091020103
:102BE000F0910301A1E02E173F0741F4E0910001AD
:102BF000F0910101E817F90709F4A0E070930701CB
:102C00006093060150930501409304013093030142
:102C1000209302019093010180930001AA2309F4FB
:102C20000ECD0E942F0A0BCD893BF3E09F07A10533
:102C3000B10509F466C208F444C2893F33E0930742
:102C4000A105B10509F4EAC182319440A105B1059D
:102C500009F0F5CC8091DC02883008F4F0CCC0900B
:102C6000E002D090E102E090E202F090E30250E84E
:102C7000F51A6091E4027091E5028091E60290916C
:102C8000E702905824E230E040E050E00E94162134
:102C900020937C0230937D0240937E0250937F020A
:102CA000C701B60124E230E040E050E00E94162166
:102CB000209378023093790240937A0250937B02FA
:102CC000BECCA1E09BCF9032A9F0903809F073CC34
:102CD000809108028160809308026DCC8091EA01A6
:102CE00081608093EA0167CC8091F40181608093D8
:102CF000F40161CC8091FE0181608093FE015BCC88
:102D00008032A9F0803809F060CC80913002816077
:102D10008093300294CC80911202816080931202E1
:102D20008ECC80911C02816080931C0288CC8091A3
:102D3000260281608093260282CC8091DC02823060
:102D400008F47DCC8091E002803D49F48091E1025D
:102D50008F3F09F074CC84E00E942B0D70CC883C2E
:102D600009F06DCC8091E1028F3F09F068CC81E0E1
:102D70000E942B0D809174028062809374025FCC5C
:102D80008091DC02882309F45ACC8091E0028C7097
:102D9000883009F054CC82E080938A0250CC809134
:102DA000DC02882309F44BCC8091E002A5E08A9FE5
:102DB000C0011124805991406AE070E00E94E02037
:102DC000609373029C0197FF03C0319521953109EF
:102DD0002093720234CC8091DC02843008F42FCC32
:102DE0002091E30291E02F3E09F090E0809177027C
:102DF00090FB84F9809377022C3319F088608093DC
:102E00007702BAE02B9F90011124C9016CE370E0B6
:102E10000E94E02060937102C90166E070E00E94A8
:102E2000E020CB016AE070E00E94E0208093700215
:102E300006CC8091DC02823008F401CC80917602CD
:102E40009091E00290FB87F9809376028091E102F5
:102E5000982F937051E0913009F050E090917502F5
:102E600050FB97F99093750241E0982F9C70943035
:102E700009F040E09091760240FB91F99093760240
:102E800031E0982F9073903109F030E09091760204
:102E900030FB93F990937602807C21E0803409F036
:102EA00020E08091760220FB85F980937602909154
:102EB000770295FDC4CB8091750250FB83F940FBEE
:102EC00084F930FB85F920FB86F980937502892F00
:102ED000806280937702B3CB9091DC02943008F447
:102EE000AECB8091E202843071F48091E3028F33A3
:102EF00009F0A5CB8091CC0181608093CC018091B9
:102F000074028F7D3ACF8130E1F48091E3028F33F8
:102F100009F095CB8091C20181608093C2018091BC
:102F20007402806280937402109294028091750200
:102F30008B7F809375028091770281FF80CB8D7F9C
:102F4000C8CF963008F44BC0803181F48091E30201
:102F50008F3309F074CB8091E502833F09F46FCB86
:102F60008091D60181608093D60169CB811137C0F1
:102F70008091E3028F3309F062CB8091E4028F3FAE
:102F800009F05DCB8091E502813F81F4909174025C
:102F90008091E00191FD06C081608093E001892F5E
:102FA0008260EBCE8E7F8093E00149CB803F09F0B9
:102FB00046CB8091CC018E7F8093CC018091C20161
:102FC0008E7F8093C2018091D6018E7F8093D6013F
:102FD00080917502877C8F7B8093750230CB803423
:102FE00009F02DCB8091E3028F3309F028CB80913B
:102FF000E0018E7F8093E001809174028D7F809349
:103000007402E6CF8091DC02883008F418CB8091FE
:10301000E70280FB24F92093740211CB8091DC023B
:10302000853008F40CCB8091E302837091E082300C
:1030300009F090E08091740290FB82F98093740211
:1030400082FD19C0809194028823A9F00E947D031B
:10305000009195021091960220919702309198026A
:10306000601B710B820B930B693E734081059105C8
:1030700010F0109294028091E40280934502DFCA1E
:103080008091DC02843008F4DACA6091E302809116
:103090004902681709F4D3CA6093490283E290E0B9
:1030A00054CD8091DC02823008F4C9CA91E080914D
:1030B000E1028C3F09F490E08091740290FB86F964
:1030C0005CCE8091DC02823008F4B9CA91E0809134
:1030D000E1028C3F09F490E08091740290FB87F943
:1030E0004CCE8091DC02882309F4A9CA91E080913A
:1030F000E002811101C090E08091750290FB80F99F
:103100006BCF8091DC02882309F499CA91E0809109
:10311000E002811101C090E08091750290FB81F97D
:103120005BCF892F8260809377026BE086EE90E020
:1031300046CB111176CB3D7F3C93C680D780E0848F
:10314000F1844B015C018C189D08AE08BF08750125
:10315000640138EEC31633E0D306E104F10408F04D
:1031600060CB31813F5F3183628373838483958336
:1031700058CB8091D701813009F073CB1092D701E1
:103180006DCB81E080939902112309F4F9CB0E9461
:103190007D03C0909502D0909602E0909702F09047
:1031A00098026C197D098E099F09613A7B4B8D400D
:1031B000910508F4E5CB123019F484E0809399026C
:1031C00010929402DDCB6CE471E08AE392E00E94FD
:1031D0006A20892B19F40E942F0A97CC66E471E0CB
:1031E0008AE392E00E946A20892B29F4F89414BEA5
:1031F0000C94003F8ACC62E471E08AE392E00E9482
:103200006A20892B19F41093AD027FCC6DE371E035
:103210008AE392E00E946A20892B19F41093A3029A
:1032200074CC66E371E08AE392E00E946A20892B05
:1032300019F410939E0269CC61E371E08AE392E095
:103240000E946A20892B19F41093B2025ECC6CE2C2
:1032500071E08AE392E00E946A20892B19F41093AE
:10326000B70253CC67E271E08AE392E00E946A20E1
:10327000892B19F41093BC0248CC62E271E08AE316
:1032800092E00E946A20892B19F41093C1023DCC70
:103290006DE171E08AE392E00E946A20892B39F4A3
:1032A0008091740282FF03C0109399022ECC67E1D3
:1032B00071E08AE392E00E946A20892B21F48091D8
:1032C000740282FF0BC063E171E08AE392E00E9426
:1032D0006A20892B31F41093D00217CC1093850209
:1032E00014CC6DE071E08AE392E00E946A20892BA1
:1032F00019F40E94C00C09CC68E071E08AE392E006
:103300000E946A20892B79F488E592E0A0E0B0E081
:103310008093080190930901A0930A01B0930B01D7
:10332000F092CB02F2CB6FEF70E08AE392E00E9462
:103330006A20892B09F0E9CB1093850200938F0254
:10334000E4CB9F5F909344028083B9CB8091850248
:1033500081117AC180918A02811176C1809199028E
:10336000811172C180919E0281116EC18091A30270
:1033700081116AC18091AD02811166C18091B20252
:10338000811162C18091B70281115EC18091BC023E
:1033900081115AC18091C102811156C18091C6022A
:1033A000811152C18091CB0281114EC10E947D03D7
:1033B00000916C0210916D0220916E0230916F02AB
:1033C000601B710B820B930B683E73408105910566
:1033D00008F43AC10E947D0360936C0270936D0201
:1033E00080936E0290936F0283EA93E00E94FE0343
:1033F000892B09F429C1A89583EA93E00E9414045B
:10340000182F00916B020F3168F0E02FE051FF0B95
:10341000AF016BE572E08BE492E00E944421005121
:1034200000936B02E0916B02BB24B394BE0EB0928A
:103430006B02F0E0E55BFD4F1083CB2CD12CF60145
:10344000E55BFD4F10826BE571E08BE492E00E943A
:1034500071218C01009741F26AE070E00E945621D0
:103460007C01892B09F4C0CF6CE270E0C8010E9496
:103470005621009719F08E159F0518F010926B02D7
:10348000B3CF01960E944C208C0197012A54324000
:1034900079012B1508F4BDC010926B02E0916B020C
:1034A000F0E0E55BFD4F1082101611060CF09CCF8A
:1034B0008091CB03882309F497CF61E671E083EA1A
:1034C00093E00E946E01C02ED12CF12CE12C2AE059
:1034D000B701A60183EA93E00E945C0666E571E00D
:1034E00083EA93E00E943A0642E651E062E370E02C
:1034F00080E197E20E94BC05882309F475CF22E29F
:1035000042E270E060E090E080E00E94AA0E882332
:1035100009F46ACF22E242E26FE070E08CE094E0CE
:103520000E94AA0E882309F45FCF22E242E270E0F3
:1035300060E090E080E00E94AA0E882309F454CF56
:1035400022E242E270E060E090E080E00E94AA0E99
:10355000882309F449CF2DE04AE060E470E08CEC68
:1035600093E00E94AA0E882309F43ECF62E370E044
:1035700088EE93E00E9435048091CB03882309F400
:1035800063C068E571E083EA93E00E946E012AE07F
:10359000B701A60183EA93E00E945C0666E571E04C
:1035A00083EA93E00E943A0643E551E062E370E06B
:1035B00088EA91E60E94BC05882309F445C062E3CD
:1035C00070E088EE93E00E94350468EE72E08CE0D3
:1035D00094E00E946121892B59F167EF72E08CE041
:1035E00094E00E946121892B19F169EE71E08CEC65
:1035F00093E00E947A20892B09F0DFC38091E802D2
:10360000882311F16CEC73E090E080E00E944F079A
:103610001BC0B9017727A601461B570B655B7D4F81
:103620008BE492E00E944421BE18B0926B0236CF28
:103630006EED71E08CEC93E00E946A20892B09F01A
:103640001DC382E08093B202A895809185028823F1
:1036500019F080E00E94500880918A02882319F0B6
:1036600081E00E94500880918F028630C1F58091E0
:10367000900290919102A0919202B0919302892BB5
:103680008A2B8B2B51F40E947D03609390027093E0
:10369000910280939202909393020E947D03009185
:1036A0009002109191022091920230919302DC01DC
:1036B000CB01801B910BA20BB30B61E08C3231E08C
:1036C0009307A105B10540F060E0803243E0940724
:1036D000A105B10508F09AC389E00E94A4021091E7
:1036E00099021123A9F180919A0290919B02A091D5
:1036F0009C02B0919D02892B8A2B8B2B51F40E9446
:103700007D0360939A0270939B0280939C02909336
:103710009D020E947D03C0909A02D0909B02E0908F
:103720009C02F0909D02DC01CB018C199D09AE0931
:10373000BF0920917402022F047022FF07C484364F
:103740009105A105B10508F001C481E00E94DB04E8
:103750008091A302882321F063E186E00E94D307D1
:1037600080919E02882321F062E185E00E94D307C8
:103770008091A802882309F43EC08091A90290910B
:10378000AA02A091AB02B091AC02892B8A2B8B2BA1
:1037900069F40E947D036093A9027093AA0280934A
:1037A000AB029093AC0281E08093C6020E947D033D
:1037B0000091A9021091AA022091AB023091AC02B3
:1037C000601B710B820B930B60367A4E810591055D
:1037D00078F48091740282FD0EC08091750287FD9D
:1037E0000AC0809176028A7231F481E080939E0251
:1037F00087E00E94B0051091AD021123C9F112308B
:1038000019F480E00E94070D8091AE029091AF0202
:10381000A091B002B091B102892B8A2B8B2B51F46D
:103820000E947D036093AE027093AF028093B0025A
:103830009093B1020E947D03C090AE02D090AF027F
:10384000E090B002F090B102DC01CB018C199D092F
:10385000AE09BF09123009F0BDC304E813E020E04F
:1038600030E0843FE1E09E07A105B10508F0B6C352
:103870008091B202882331F048E152E061E189E0B1
:103880000E94C8098091B702882331F04EE152E0CE
:103890006EE08AE00E94C8098091BC02882331F062
:1038A00044E252E060E18BE00E94C8098091C102CD
:1038B000882331F04AE252E06FE08CE00E94C809B0
:1038C0008091C602882391F18091C7029091C8022D
:1038D000A091C902B091CA02892B8A2B8B2B69F463
:1038E0000E947D036093C7027093C8028093C9024F
:1038F0009093CA0281E00E94070D0E947D0300910F
:10390000C7021091C8022091C9023091CA02601BFF
:10391000710B820B930B653671058105910530F0B3
:1039200080E00E94070D8DE00E94B0058091D002DA
:10393000882309F412C160917C0270917D0280910C
:103940007E0290917F0220EA422E26E8522E6624C3
:103950006394712CA30192010E9416212FA338A712
:1039600049A75AA76B018C01EFA0F8A480907802B8
:1039700090907902A0907A02B0907B02C501B401C8
:10398000A30192010E94162129011901C601D80143
:10399000B7FF07C0B095A095909581959F4FAF4F09
:1039A000BF4F8C01C501B40120EA36E841E050E088
:1039B0000E94162197FF07C090958095709561959C
:1039C0007F4F8F4F9F4F5B0187E4898380E58A8318
:1039D00083E58B83FE013496F7FE09C08DE28C836C
:1039E000EFA0F8A4F194E194F108FE01359624E6E5
:1039F000E216F1044CF0C70164E670E00E94E0209A
:103A0000605D60837C0131963AE0E316F1044CF08E
:103A1000C7016AE070E00E94E020605D6083E82EEC
:103A2000319680E38E0D80838EE28183C80160E150
:103A300077E20E94CC20605D6283C80168EE73E08B
:103A40000E94CC20CB012AE030E0B9010E94CC20BA
:103A5000805D8383C80164E670E00E94CC20CB01C6
:103A6000B9010E94CC20805D8483C801B9010E9405
:103A7000CC20482FCB01B9010E94CC20805D8583EA
:103A8000405D46838CE287838F0137FCB9C2085FB3
:103A90001F4F44E6241631045CF0C10164E670E077
:103AA0000E94E020605DD8016C931C010F5F1F4FE6
:103AB000BAE02B1631045CF0C1016AE070E00E94AC
:103AC000E020605DF8016083282E0F5F1F4F80E3C8
:103AD000820DD8018C938EE211968C93C50160E122
:103AE00077E20E94CC20605DF8016283C50168EE38
:103AF00073E00E94CC20CB012AE030E0B9010E94A3
:103B0000CC20805D8383C50164E670E00E94CC20F8
:103B1000CB01B9010E94CC20805D8483C501B9012D
:103B20000E94CC20482FCB01B9010E94CC20805D9F
:103B30008583405D468380E2878383E28087C80176
:103B400009960E948A05D80151961C928FE00E9426
:103B5000B005CE0101960E94AB071091CB02112354
:103B600009F47CC00E947D036B017C018091CC0232
:103B70009091CD02A091CE02B091CF020097A10505
:103B8000B105C1F4C092CC02D092CD02E092CE0237
:103B9000F092CF0210928002109281021092820263
:103BA0001092830240E050E0BA011230F1F481E05B
:103BB0008093C6028091CC029091CD02A091CE025A
:103BC000B091CF02B701A601481B590B6A0B7B0BC2
:103BD000123009F01EC2443FB1E05B076105710578
:103BE000E8F184EF91E0A0E0B0E0009108011091CD
:103BF000090120910A0130910B01800F911FA21F32
:103C0000B31F481759076A077B0708F006C280915F
:103C100084028823A9F08091800290918102A09172
:103C20008202B091830246015701881A990AAA0AB2
:103C3000BB0AD501C401843F9140A105B10570F0D4
:103C400081E00E94F60C81E080938402C0928002A1
:103C5000D0928102E0928202F092830280E090E0B2
:103C6000892B11F40C945F110E94FC01882311F43C
:103C70000C945F110E9400000C945F116AED71E0DA
:103C80008CEC93E00E946A20892B21F482E08093DF
:103C9000BC02DACC65ED71E08CEC93E00E946A2006
:103CA000892B21F482E08093A302CECC6EEC71E0EC
:103CB0008CEC93E00E946A20892B21F482E08093AF
:103CC0009E02C2CC69EC71E08CEC93E00E946A2009
:103CD000892B21F482E08093CB02B6CC65EC71E0B5
:103CE0008CEC93E00E946A20892B21F482E080937F
:103CF000AD02AACC6FEB71E08CEC93E00E946A20DD
:103D0000892B21F48091740282FF14C06AEB71E068
:103D10008CEC93E00E946A20892B81F066EB71E0C5
:103D20008CEC93E00E946A20892B81F481E08093DF
:103D3000D0028ACC82E080938A0286CC8091740281
:103D400082FFECCF82E0809399027ECC60EB71E041
:103D50008CEC93E00E946A20892B19F40E94C00C1D
:103D600073CC69EA71E08CEC93E00E946A20892BA5
:103D700019F40E94B50768CC63EA71E08CEC93E01B
:103D80000E946A20892B29F4F89414BE0C94003FF9
:103D90005BCC6AE971E08CEC93E00E946A20892B8D
:103DA00009F052CC8091740282FD4ECC82E0809367
:103DB0008A0285E080938F0247CC66E971E08CEC43
:103DC00093E00E947A20892B69F06CE074E088EE21
:103DD00092E00E946A210E94170F82E891E00E94FF
:103DE000BF0932CC6EE771E08CEC93E00E947A2040
:103DF000892B09F429CC6CE074E087EF92E00E94F3
:103E00006A210E94170F8AE691E0E9CF8838934132
:103E1000A105B10508F090C089E00E94A40240917C
:103E20007702842F8874883009F059CC80919402ED
:103E3000823009F054CC809173025091720220912B
:103E40007102309170029CE79983FE01329687FFE0
:103E500005C09DE29A838195FE01339684363CF03D
:103E600091E3908364E60E94BE20892F31968A30C8
:103E70003CF06AE00E94BE20805D8083892F3196ED
:103E8000805D80838EE28183852F6AE00E94B2206C
:103E9000905D92838CE7838344FF26C08FE6848302
:103EA0008CE6858384E7868382E7878385E680873F
:103EB00080E2818784E382878F01045F1F4F80E364
:103EC000838723E2D8012D93CD010E948A05F80152
:103ED0001186CE0101960E94AB0780917702806423
:103EE000877F80937702FBCBDF012436E0F41496C2
:103EF0002A3040F0822F6AE00E94B220805D8C93CD
:103F0000292F1196205D2C938EE211968C93119798
:103F10008D010D5F1F4F832F6AE00E94B220905DDC
:103F200012969C93CECF1596822F64E60E94B22003
:103F3000805D8483292FDCCF89E00E94A40282E087
:103F40000E94B005809177028F7BCACF8C32F1E05E
:103F50009F07A105B10510F480E0F8CB803D37E064
:103F60009307A105B10508F4F3CB247139F48C3F14
:103F700048E09407A105B10508F4E7CB80369940E5
:103F8000A105B10518F580E00E94DB04002341F093
:103F9000809177028260809377020E94B50706C005
:103FA000133081F0143041F01230B9F384E00E94F4
:103FB000B00510929402CCCB6DE08AE092E00E94B2
:103FC000490DF4CF6FE08AEF91E0F9CF80E00E94D5
:103FD000DB04ECCF00E911E020E030E0801791072E
:103FE000A207B30728F461E084E00E94A40240CC59
:103FF00060E084E00E94A40288E00E94B00538CC12
:10400000075F1F4F8DE28087222433242418350850
:1040100040CD80E090E0DC01E8CD80E00E94F60C2D
:1040200080E00E94F60C80E00E94F60C1092840260
:1040300010928002109281021092820210928302EA
:1040400080ED97E0A0E0B0E0809308019093090133
:10405000A0930A01B0930B018EE00E94B005FECD43
:1040600085E491E09093A4038093A3038091BC0125
:104070009091BD01835A934071F4E091B603F091A1
:10408000B70390818091B803809589238083109233
:10409000BD011092BC010895FC0188279927E8947E
:1040A00021912032E9F3293010F02E30C8F32B3261
:1040B00041F02D3239F4689404C00E949420820F9C
:1040C000911D219120532A30C0F31EF490958195C3
:1040D0009F4F0895FB01DC018D910590801901101F
:1040E000D9F3990B0895FB01DC0105900D92002096
:1040F000E1F70895FB0155915523A9F0BF01DC01BB
:104100004D9145174111E1F759F4CD01059000207B
:1041100049F04D9140154111C9F3FB014111EFCF19
:1041200081E090E0019708957AE0979F902D879F16
:10413000802D910D11240895F999FECF92BD81BD76
:10414000F89A992780B50895262FF999FECF1FBABE
:1041500092BD81BD20BD0FB6F894FA9AF99A0FBEB0
:1041600001960895991B79E004C0991F961708F0ED
:10417000961B881F7A95C9F78095089587FB082EAE
:10418000062687FD819567FD61950E94B2200EF499
:10419000919507FC81950895AA1BBB1B51E107C0AF
:1041A000AA1FBB1FA617B70710F0A61BB70B881FC7
:1041B000991F5A95A9F780959095BC01CD01089556
:1041C00097FB072E16F4009407D077FD09D00E94C4
:1041D000CC2007FC05D03EF4909581959F4F089523
:1041E000709561957F4F0895A1E21A2EAA1BBB1B03
:1041F000FD010DC0AA1FBB1FEE1FFF1FA217B307B3
:10420000E407F50720F0A21BB30BE40BF50B661FC8
:10421000771F881F991F1A9469F76095709580958C
:1042200090959B01AC01BD01CF010895052E97FB30
:104230001EF400940E942D2157FD07D00E94F42007
:1042400007FC03D04EF40C942D21509540953095E9
:1042500021953F4F4F4F5F4F0895909580957095F2
:1042600061957F4F8F4F9F4F0895EE0FFF1F059071
:10427000F491E02D0994FB01DC0102C001900D9244
:1042800041505040D8F708956817790768F4FB014A
:10429000DC01E40FF51FA40FB51F02C002900E92BF
:1042A00041505040D8F708950C943B21FC01819176
:1042B000861721F08823D9F7992708953197CF01E0
:1042C0000895FB01DC018D91019080190110D9F353
:1042D000990B0895FB01DC0101900D920020E1F79C
:1042E0000895FB0151915523A9F0BF01DC014D91C7
:1042F00045174111E1F759F4CD010190002049F033
:104300004D9140154111C9F3FB014111EFCF81E0FF
:1043100090E00197089511E0C3E4D1E004C0FE01EC
:104320000E9435212196C434D107C9F7F894FFCFF4
:10433000FFFFFFFFFFFFFFFFD007000000000100AD
:10434000020009050412110E100F08130607606120
:104350006601707176023031364041465051560048
:1043600000000032029201BF018402F001CE01E29E
:104370000100000000A2039201D104A103FE031476
:104380000489034F4B000D0A003E002B434D544956
:0A4390003A002B434D47523A00005B
:00000001FF
