:100000000C94F1000C9419010C9419010C94310F0B
:100010000C94310F0C94310F0C9419010C941901AC
:100020000C9419010C9419010C9419010C941901E8
:100030000C9419010C9419010C9419010C941901D8
:100040000C94E70E0C9419010C94B50E0C948F0EC1
:100050000C9419010C9419010C9419010C941901B8
:100060000C9419010C9419014E4100545952453A0F
:100070000072657365740000000008000201000052
:10008000030407000000000000000041542B434D12
:1000900047523D0041542B434D47443D002200410F
:1000A000542B434D47533D22004154004E756D651E
:1000B000726F205B325D2053616C7661746F21003A
:1000C0005B325D004E756D65726F205B315D205354
:1000D000616C7661746F21005B315D005365742043
:1000E0004F574E455220323031323736004252534C
:1000F0002D436C6F7365642023004252532D416C75
:1001000061726D2023004252532D456D6572676503
:100110006E63792023004252532D54696D656F75CB
:1001200074202300424F58203100424F58203200A3
:10013000424F58203300504F52544F4E45004154C7
:100140002B434D4744413D2244454C20414C4C22D9
:100150000041542B43504D533D22534D222C2253EA
:100160004D222C22534D220041542B434E4D493DEC
:10017000322C312C302C302C300041542B434D4745
:10018000463D310041542B435343533D2247534D89
:1001900022004154453000000000002300260029C1
:1001A0000000000000250028002B000000000024B3
:1001B0000027002A000102040810204080010204E8
:1001C000081020010204081020040404040404049C
:1001D0000402020202020203030303030300A90F45
:1001E0009F1F11241FBECFEFD8E0DEBFCDBF11E0AF
:1001F000A0E0B1E0EEE9F1E402C005900D92A6386E
:10020000B107D9F724E0A6E8B1E001C01D92A833F8
:10021000B207E1F710E0C0EFD0E004C02197FE0183
:100220000E945F20CF3ED107C9F70E94D9100C94DD
:10023000C2200C940000809115048F3F19F08F5F4D
:100240008093150480911504833028F08091130465
:100250008E7F809313040895EF92FF920F931F9364
:10026000CF93DF938C017B01D0E0C0E0F701EC0F6E
:10027000FD1F6491662361F0D801ED91FC9101901E
:10028000F081E02DC8010995892B11F02196EECF60
:10029000CE01DF91CF911F910F91FF90EF900895C4
:1002A000AF92BF92CF92DF92EF92FF920F931F9384
:1002B000CF93DF936C017B018B01040F151FEB01C2
:1002C0005E01AE18BF08C017D10759F06991D60179
:1002D000ED91FC910190F081E02DC6010995892BEB
:1002E00079F7C501DF91CF911F910F91FF90EF90AA
:1002F000DF90CF90BF90AF900895FC01538D448D57
:10030000252F30E0842F90E0821B930B541710F0C0
:10031000CF96089501970895FC01918D828D9817CD
:1003200061F0A28DAE0FBF2FB11D5D968C91928DA5
:100330009F5F9F73928F90E008958FEF9FEF0895D6
:10034000FC01918D828D981731F0828DE80FF11D9F
:10035000858D90E008958FEF9FEF0895FC01918DBA
:10036000228D892F90E0805C9F4F821B91098F73B3
:100370009927089586E892E00E94AE0121E0892B3A
:1003800009F420E0822F089580E090E0892B29F085
:100390000E94BA0181110C9400000895FC01A48D03
:1003A000A80FB92FB11DA35ABF4F2C91848D90E097
:1003B00001968F739927848FA689B7892C93A0897A
:1003C000B1898C91837080648C93938D848D981304
:1003D00006C00288F389E02D80818F7D8083089597
:1003E000EF92FF920F931F93CF93DF93EC0181E085
:1003F000888F9B8D8C8D98131AC0E889F98980812C
:1004000085FF15C09FB7F894EE89FF896083E8895E
:10041000F98980818370806480839FBF81E090E050
:10042000DF91CF911F910F91FF90EF900895F62EDD
:100430000B8D10E00F5F1F4F0F731127E02E8C8D77
:100440008E110CC00FB607FCFACFE889F9898081BC
:1004500085FFF5CFCE010E94CE01F1CFEB8DEC0FE1
:10046000FD2FF11DE35AFF4FF0829FB7F8940B8FD9
:10047000EA89FB8980818062CFCF682F86E892E08D
:100480000C94F001CF93DF93EC01888D8823B9F0B1
:10049000AA89BB89E889F9898C9185FD03C080818F
:1004A00086FD0DC00FB607FCF7CF8C9185FFF2CF0C
:1004B000808185FFEDCFCE010E94CE01E9CFDF9193
:1004C000CF91089590E0FC01E958FF4F2491FC0181
:1004D000EB54FE4F3491FC01E753FE4FE491EE23C1
:1004E000C9F0222339F0233001F1A8F4213019F1A9
:1004F000223029F1F0E0EE0FFF1FEF55FE4FA591DE
:10050000B4918FB7F894EC91611126C030953E23D9
:100510003C938FBF08952730A9F02830C9F02430CC
:1005200049F7809180008F7D03C0809180008F7794
:1005300080938000DFCF84B58F7784BDDBCF84B517
:100540008F7DFBCF8091B0008F778093B000D2CFAA
:100550008091B0008F7DF9CF3E2BDACF61E08091A2
:10056000D4030C946202CF93DF9390E0FC01EB5430
:10057000FE4F249187539E4FFC0184918823D1F034
:1005800090E0880F991FFC01E555FE4FA591B491AD
:10059000FC01EF55FE4FC591D49161110EC09FB77C
:1005A000F8948C91E22FE0958E238C932881E2239E
:1005B000E8839FBFDF91CF9108958FB7F894EC91B6
:1005C000E22BEC938FBFF6CF3FB7F8948091D10127
:1005D0009091D201A091D301B091D40126B5A89BEE
:1005E00005C02F3F19F00196A11DB11D3FBFBA2FC5
:1005F000A92F982F8827BC01CD01620F711D811D85
:10060000911D42E0660F771F881F991F4A95D1F709
:1006100008952FB7F8946091CD017091CE0180912B
:10062000CF019091D0012FBF08950F931F93CF93C7
:10063000DF938B01CBEDD3E08FAB0E9409037DAF3D
:100640006CAF1FAF0EAFDF91CF911F910F91089547
:10065000E3E1F4E080818E7F808368E873E184E0E9
:100660000C941503813061F48091130482608093AF
:1006700013041092150470E060E085E00C941503FB
:10068000109216040E941B01F6CF809119049091DC
:100690001A04892B81F00E940903209117043091DC
:1006A0001804621B730B81E02091190430911A0425
:1006B0006217730708F480E008952091D701309104
:1006C000D8012817390771F49091D5018091D6018E
:1006D000981741F0E091D501F0E0E457FE4F80819A
:1006E00090E008958FEF9FEF08950895EF92FF92A5
:1006F0000F931F93CF93DF93DC015C96ED90FC90FA
:100700005D97E114F10479F481E090E013969C93F5
:100710008E93129790E080E0DF91CF911F910F911F
:10072000FF90EF9008955196ED91FC91529750965D
:100730008C915097982F90950FB75E962C915E975D
:10074000122F127021FD6095F8942081112319F168
:10075000282B2083E7012197F1F728E0462F50E06E
:10076000308160FF1AC0382B3083E7012197F1F701
:10077000BA0175956795215089F7112381F0808121
:10078000892380830FBF5C968D919C910197F1F72F
:1007900081E090E0C1CF2923DCCF3923E5CF9081E0
:1007A000892BEFCF2091D7013091D8012817390735
:1007B00061F48091D6012091D50190E0805C9F4F3B
:1007C000821B91098F739927089590E080E0089526
:1007D0002091D7013091D80128173907B9F49091A9
:1007E000D5018091D601981789F0E091D501F0E00C
:1007F000E457FE4F80812091D50130E02F5F3F4FBD
:100800002F7333272093D50190E008958FEF9FEF4A
:10081000089590E080E008958EBD00000DB407FEBD
:10082000FDCF8EB508954F925F926F927F928F9217
:100830009F92AF92BF92CF92DF92EF92FF920F936F
:100840001F93CF93DF93EC016A017B0177FF0AC00E
:100850008DE28883CC24DD247601C41AD50AE60A09
:10086000F70A2196C701B60120E836E948E950E0C9
:100870000E943D202436310548F0C90164E670E04D
:100880000E941520605D68839C0121962A30310505
:1008900048F0C9016AE070E00E941520605D68833D
:1008A0009C012196205D28838E010E5F1F4F8EE2F2
:1008B0008983C701B60120E836E948E950E00E9483
:1008C0003D204B015C01299680E4C82E82E4D82E9D
:1008D0008FE0E82EF12C9AE0492E512C612C712CDE
:1008E000C501B401A70196010E943D20CA01B901CA
:1008F000A30192010E943D20605DF8016083C70161
:10090000B601A30192010E943D2069017A010F5FA7
:100910001F4F0C171D0721F7C801DF91CF911F91C1
:100920000F91FF90EF90DF90CF90BF90AF909F908E
:100930008F907F906F905F904F900895CF93C82FC6
:10094000682F86E00E9462026C2F87E0CF910C94A2
:1009500062029C0180916802882391F090911304B7
:1009600092FD0EC048E652E050932E0440932D04B1
:100970003093300420932F0490629460909313047A
:1009800008958F929F92AF92BF92DF92EF92FF9263
:100990000F931F93CF93DF93D62E7A01082F10E089
:1009A00025E0829FE0011124CF5FDD4F89819A818C
:1009B000AB81BC81892B8A2B8B2B49F40E940903C4
:1009C00069837A838B839C8381E0809342020E94B7
:1009D000090325E0209FF001219FF00D1124EF5F16
:1009E000FD4F81809280A380B480DC01CB01881907
:1009F0009909AA09BB0961E0843F21E09207A1059A
:100A0000B10530F080329340A105B10578F460E083
:100A10008D2DDF91CF911F910F91FF90EF90DF907F
:100A2000BF90AF909F908F900C9462028081823033
:100A300019F4C7010E94A90460E08D2D0E94620292
:100A400085E0809FF001819FF00D1124EF5FFD4F45
:100A500010821182128213821482DF91CF911F9132
:100A60000F91FF90EF90DF90BF90AF909F908F908D
:100A700008958091EF0187FD0EC09091F00197706D
:100A800081E009F480E09091F2019F7E80FF906107
:100A90009093F201089581E0F6CF0F931F93CF93C7
:100AA000DF93D82FC92F0E9439054091F20142FBF4
:100AB000882780F990E0B0E0A0E0BB278695B79545
:100AC000AA279927882744FB002700F910E030E087
:100AD00020E05EE1000F111F221F331F5A95D1F74E
:100AE000802B912BA22BB32B2091E401822B417000
:100AF00050E070E060E0EDE1440F551F661F771F86
:100B0000EA95D1F7842B952BA62BB72B4091F101B9
:100B1000042F017010E030E020E0FCE1000F111F15
:100B2000221F331FFA95D1F7802B912BA22BB32BC9
:100B300042FB002700F910E030E020E05BE1000F0D
:100B4000111F221F331F5A95D1F7802B912BA22BF7
:100B5000B32B44FB002700F910E030E020E06AE10D
:100B6000000F111F221F331F6A95D1F7802B912B85
:100B7000A22BB32B46FB442740F950E070E060E025
:100B8000E9E1440F551F661F771FEA95D1F7842BC3
:100B9000952BA62BB72B4091EF0143FB442740F93F
:100BA00050E070E060E0742F662755274427842BBF
:100BB000952BA62BB72B2091E801A22B2091E601C3
:100BC000922B8093880190938901A0938A01B0931E
:100BD0008B01ED2FFC2F2CE130E0AC01BD01022E8A
:100BE00004C076956795579547950A94D2F74F704C
:100BF0004A3068F4405D4193245031092C3F4FEF57
:100C0000340759F7DF91CF911F910F910895495CF7
:100C1000F2CF95E0899FF0011124EF5FFD4F108224
:100C200011821282138214820895CF93C82F60E03C
:100C300086E00E94620260E087E00E94620260E05B
:100C400088E00E94620260E085E00E9462028C2FD0
:100C5000CF910C940906CF93C82F862F60E00E9495
:100C600062028C2FCF910C940906209168022223F6
:100C700059F1009749F120911304267029F520912C
:100C80001204283009F123E08B3D920749F0BC01A2
:100C900047E250E08BED93E00E94B32010920204F3
:100CA0008BED93E09093300480932F0488E692E0DC
:100CB00090932E0480932D04809113048F7D846083
:100CC0008093130481E0089580E0089520916802E4
:100CD00021110C9435060895CF93DF93CDB7DEB77D
:100CE0002A970FB6F894DEBF0FBECDBF83E289838B
:100CF000CE0102960E944D051A86CE0101960E94F1
:100D000066062A960FB6F894DEBF0FBECDBFDF9100
:100D1000CF910895CF92DF92EF92FF920F931F939E
:100D2000CF93DF93182F062F25E0829FE001112437
:100D3000CF5FDD4FC980DA80EB80FC80C114D10425
:100D4000E104F10479F40E94090369837A838B83B7
:100D50009C83DF91CF911F910F91FF90EF90DF90D7
:100D6000CF9008950E940903DC01CB018C199D09E5
:100D7000AE09BF0961E08C3221E09207A105B105FF
:100D8000E0F0803921E09207A105B10560F461E04F
:100D9000802FDF91CF911F910F91FF90EF90DF9007
:100DA000CF900C94620260E08C3B9240A105B105AB
:100DB00030F4802F0E94620260E085E0EACF802F4D
:100DC0000E94620260E085E00E946202C881C23037
:100DD00039F48091F2018170163091F4882391F0FA
:100DE000812F0E940906C23009F0B3CFDF91CF9165
:100DF0001F910F91FF90EF90DF90CF900C946C06B5
:100E0000882371F38091F20184608093F201E8CF2E
:100E1000CF92DF92EF92FF920F931F93CF93C82F41
:100E20000E9409036B017C010C2F10E025E0C29F9A
:100E3000F0011124EF5FFD4F81819281A381B48184
:100E4000892B8A2B8B2B59F4C182D282E382F482C4
:100E50008091EA018330E0F48F5F8093EA0185E0BE
:100E6000809FF001819FF00D1124EF5FFD4F818184
:100E70009281A381B481A7019601281B390B4A0BEB
:100E80005B0BDA01C901883C9105A105B10558F455
:100E900061E085E0CF911F910F91FF90EF90DF907F
:100EA000CF900C946202883532E09307A105B1051A
:100EB00028F483E1C11182E161E0ECCF8C3B42E098
:100EC0009407A105B10528F483E1C11182E160E036
:100ED000E1CF2091EF01322F387023FD12C0CC23D7
:100EE000D1F0883E53E09507A105B10560F481E09B
:100EF000CF911F910F91FF90EF90DF90CF900C94C6
:100F00009E04CC2341F08C3444E09407A105B10544
:100F100010F480E0EDCF287259F4C1117DC0803209
:100F200043E09407A105B10580F461E088E0B2CF09
:100F3000203249F4C111C8C0883E43E09407A1059E
:100F4000B10518F4D4CFC1116EC0843145E09407C7
:100F5000A105B105F0F248EB5BE060E070E06EC027
:100F6000332321F160E088E00E94620260E085E0C6
:100F70000E9462028091EF018D7F8093EF0180914A
:100F80000B02853019F486E080930B021092EA017F
:100F900085E0809FF001819FF00D1124EF5FFD4FF0
:100FA0001082118212821382148286C08091EA011B
:100FB0008330D0F485E0809FF001819FF00D1124F3
:100FC000EF5FFD4F118212821382148282E0C11101
:100FD00001C081E095E0909FF001919FF00D1124F8
:100FE000EF5FFD4F808368C060E088E00E9462028E
:100FF00060E085E00E9462028091F201846080934B
:10100000F201C1110E946C061092EA018091EF0179
:101010008D7F8093EF01BCCF803B54E09507A10505
:10102000B10508F482CF843A56E09507A105B105D1
:1010300008F46FCF48E45DE060E070E08417950746
:10104000A607B70708F08CCF2832B1F560E088E03A
:101050000E94620260E085E00E946202CC2389F077
:1010600082E080931002C0921102D0921202E092AC
:101070001302F092140280910B02811102C00E94AF
:101080006C061092EA018091EF018D7F8093EF0151
:1010900085E0809FF001819FF00D1124EF5FFD4FEF
:1010A0001082118212821382148280910B02853089
:1010B00019F486E080930B02CF911F910F91FF905E
:1010C000EF90DF90CF900895883755E09507A10500
:1010D000B10508F40CCFA7CF0F931F930091D50350
:1010E0001091D6032091D7033091D80340E052E10C
:1010F0006AE770E080E0041715072607370740F419
:1011000076956795579547958F5F8630A1F787E06D
:10111000982F906A9695809581709CBD8DBD60E0FA
:101120008091D4031F910F910C946202CF93C82F2A
:101130000E946C0883E00E940C048C2F0E940C0417
:1011400080E00E940C04C82F0E94AE028C2FCF9129
:1011500008951F93CF93DF93182FD62FC42F0E948B
:101160006C0885E00E940C04812F0E940C048D2FD6
:101170000E940C048C2F0E940C04DF91CF911F91D0
:101180000C94AE02CF92DF92EF92FF92CF93C82FD2
:10119000482F60EE8FE00E94A9080E9409036B01AE
:1011A0007C012AE0C20ED11CE11CF11C0E94090343
:1011B0006C157D058E059F0580F48EE00E949608D3
:1011C000807EC813F3CF81E091E0892790E0CF9132
:1011D000FF90EF90DF90CF90089580E0F5CFCF9310
:1011E000DF93D82FC62F0E946C0882E00E940C0467
:1011F0008D2F0E940C048C2F0E940C04DF91CF9144
:101200000C94AE02FF920F931F93CF93DF93C82FDE
:10121000F62E172F042F0E946C0883E00E940C0406
:101220008C2F0E940C04CF2DD12F0C0F1D2F111DC0
:10123000C017D10729F080E00E940C048993F8CFF1
:10124000DF91CF911F910F91FF900C94AE02BF924E
:10125000CF92DF92EF92FF920F931F93CF93DF9382
:1012600000D000D01F92CDB7DEB78C01000F111F48
:10127000000F111FF801E25EFE4F45E0BE016F5FF7
:101280007F4F81810E9402098A81C98098E0C99EAE
:1012900060011124282F30E055E0359527955A95A7
:1012A000E1F7C20ED31E0D2C000CEE08FF0883FFE1
:1012B00020C092E0CC0CDD1CEE1CFF1C9A95D1F7EF
:1012C0008370C80ED11CE11CF11CFE2CED2CDC2C13
:1012D000CC248B81C80ED11CE11CF11CFE2CED2C02
:1012E000DC2CCC248C81C80ED11CE11CF11C689430
:1012F000F7F88D818F70B82EE8E081E090E0EB1573
:1013000028F1F801E25EFE4F80810E94960883FF7B
:1013100002C06894F6F8C0925802D0925902E09246
:101320005A02F0925B02B0925C02025E1E4F4B2D9D
:1013300060E672E0F80182810E94020940E0F80153
:1013400063818CE20E94A90890E080E00F900F90EA
:101350000F900F900F90DF91CF911F910F91FF9001
:10136000EF90DF90CF90BF9008958F929F92AF92B1
:10137000BF92CF92DF92EF92FF920E946C0880ECB6
:101380000E940C040E94AE020E94E4024B015C0128
:101390008AE0C82ED12CE12CF12C0E94E4026819BD
:1013A00079098A099B09683E734081059105A8F374
:1013B00021E0C21AD108E108F10888EE880E83E026
:1013C000981EA11CB11CC114D104E104F10429F739
:1013D00064E080E60E94EF0863EA8BE20E94EF0877
:1013E00080E80E94C208892B61F460E08AE20E94D2
:1013F000EF0860EF89E20E94EF0866E888E20E9449
:10140000EF0880E0FF90EF90DF90CF90BF90AF901B
:101410009F908F900C94C2084F925F926F927F9230
:101420008F929F92AF92BF92CF92DF92EF92FF92F4
:101430000F931F93CF93DF93CDB7DEB763970FB6AC
:10144000F894DEBF0FBECDBFFC012481293008F027
:10145000B2C06C0186E0ECE0F1E0DE011E96019086
:101460000D928A95E1F73E01FEE06F0E711C4E0170
:1014700084E1880E911CF301E190F1903F01870116
:10148000000F111FF801EE0DFF1DEA5DFE4FA08059
:101490008A2D0E94960883FDAAC0F601B480F8E068
:1014A000FB1508F488C0F601408151816281738187
:1014B000DB01CA018827B7FD83959927AA27BB2797
:1014C000282FDB01CA0188279927AA27B074442452
:1014D0004A94542C642CEFE17E2E211106C0442442
:1014E0004A9437E0532E612C712C442155216621FA
:1014F0007721222309F443C04C835B83AB01662729
:101500007727242F220F220F220F207E342F3370B3
:101510003860232B2A83F5E056954795FA95E1F735
:101520004983892B8A2B8B2BC1F18B2D80648D8372
:101530004B2D50E0B601685F7F4FCE0106960E94AA
:101540008C20F5E0BF0E0E0D1F1DF801EA5DFE4F69
:1015500011810E946C0882E00E940C04812F0E947D
:101560000C04CE0101967C018C01802F8E198B1505
:10157000B0F4F80181918F010E940C04F6CF9A011A
:1015800053E0369527955A95E1F729834295440F04
:10159000407E4A831C821B82C4CF8B2DC8CF0E9401
:1015A000AE0248E068E08A2D0E94A9088A2D0E94B8
:1015B0009608807719F084E090E002C090E080E027
:1015C00063960FB6F894DEBF0FBECDBFDF91CF910B
:1015D0001F910F91FF90EF90DF90CF90BF90AF9051
:1015E0009F908F907F906F905F904F9008956814B8
:1015F000790409F040CF82E090E0E2CFE8E5F2E044
:1016000046EB52E060E070E0408351836283738375
:1016100092E0948380871186CF010C940C0A46ECEB
:1016200051E060E070E0409358025093590260939B
:101630005A0270935B0294E090935C02813089F0CF
:1016400080E01092610210926002809363028093A6
:10165000620288E592E00E940C0A88E592E00C9410
:101660000C0A82E5EECFE8E5F2E04AE352E060E002
:1016700070E0408351836283738394E0948391E1AB
:10168000908793EF918782878FE38387CF010E94B2
:101690000C0A88E592E00E940C0A88E592E00C941E
:1016A0000C0A0C94E51FFB0101900020E9F731972B
:1016B000AF01461B570BDC01ED91FC910280F381D9
:1016C000E02D0994CF93DF93BC0183E293E00E9465
:1016D0002C01EC0163E571E083E293E00E94530B7F
:1016E0008C0F9D1FDF91CF9108958091140482305B
:1016F000F1F028F4882349F08130B1F00895843066
:10170000E1F0C0F08530E1F0089582E991E00E94B7
:10171000620B8091140460ED77E0853011F468EA83
:1017200071E683E00C94150384E891E0F0CF8AE73A
:1017300091E0EDCF88E691E0EACF81E591E0E7CF57
:101740008EE391E0E4CF8F929F92AF92BF92EF929F
:10175000FF920F931F93CF93DF93CDB7DEB7A1977F
:101760000FB6F894DEBF0FBECDBF7C01FA01CB01EE
:1017700019A2223008F42AE08E010F5D1F4F822E3D
:10178000912CB12CA12CBF01A50194010E943D20F8
:10179000F901CA016A300CF5605DD8016E938D01C4
:1017A000232B242B252B79F790E080E0109721F054
:1017B000BD01C7010E94530BA1960FB6F894DEBF7E
:1017C0000FBECDBFDF91CF911F910F91FF90EF9092
:1017D000BF90AF909F908F900895695CDECFCF93BC
:1017E000DF938E3F2FEF920740F068E670E086E8C7
:1017F00092E0DF91CF910C942C016AE070E00E949E
:101800001520EC01AB0170E060E02AE086E892E090
:101810000E94A30B8EE20E943D02AE0170E060E0E8
:101820002AE086E892E0DF91CF910C94A30B6BE65F
:1018300070E086E892E00E942C0180910601909170
:1018400007010E94EF0B8CE20E943D02809104018F
:10185000909105010E94EF0B8CE20E943D02809165
:101860000201909103010E94EF0B8CE20E943D0265
:1018700080910001909101010E94EF0B63E571E0FE
:1018800086E892E00C94530BCF92DF92EF92FF9296
:10189000CF93DF93CDB7DEB729970FB6F894DEBFAD
:1018A0000FBECDBF83E20E943D02C090EE010C2C22
:1018B000000CDD08EE08FF082AE0B701A601F7FEDC
:1018C0000BC08DE20E943D0244275527BA014C19F6
:1018D0005D096E097F092AE086E892E00E94A30B69
:1018E0008EE20E943D024091ED0150E070E060E028
:1018F0002AE086E892E00E94A30B83E20E943D0268
:101900004091EC0150E070E060E02AE086E892E06F
:101910000E94A30B8EE20E943D024091EB0150E039
:1019200070E060E02AE086E892E00E94A30B83E288
:101930000E943D02CE0101960E944D051986BE010E
:101940006F5F7F4F86E892E00E94530B63E571E082
:1019500086E892E00E94530B29960FB6F894DEBFFA
:101960000FBECDBFDF91CF91FF90EF90DF90CF9072
:1019700008950F931F93CF93DF93CDB7DEB768978A
:101980000FB6F894DEBF0FBECDBF062FBC01CE014F
:1019900001960E94C41F10E081E090E08C0F9D1F13
:1019A000800F911F0E944D05FE01E00FF11F11866F
:1019B000CE0101960E94660668960FB6F894DEBFC7
:1019C0000FBECDBFDF91CF911F910F910895DF9290
:1019D000EF92FF920F931F93CF93DF93CDB7DEB7B4
:1019E00067970FB6F894DEBF0FBECDBF7C01D62E31
:1019F0008E01085F1F4F087F61E770E00E94BB1FE8
:101A0000892B31F4F89414BE0C94003F81E07DC022
:101A1000D701EC91EE2309F4D9C011968C9111975E
:101A2000882309F4D3C012969C919111CFC0B1E0E4
:101A300021E0DB1201C022E0E154E53108F0C6C02C
:101A40000E2E000CFF0BE95DF24F0C945F203C0D55
:101A5000E60D420DE60DE60DE60D800DBD0DE60D21
:101A6000E60DE60D990DE60DE60DE60DE60DE60D2B
:101A7000700D480DDF0DD50D813309F0A7C02093FF
:101A80001F02C4CF813309F0A1C020931A02BECF38
:101A9000813361F48091EF0183FD98C085E0D89E89
:101AA000F0011124EF5FFD4F2083B0CF823371F43A
:101AB0008091EF0183FD8AC085E08D9DF0011124A6
:101AC000EF5FFD4F208380930B02A0CF833309F09B
:101AD0007DC08091EF0183FF79C02093150296CFDE
:101AE0009FEC980F943008F071C0082E000C990BF1
:101AF000889735E0389FF001399FF00D1124D2CF3F
:101B0000813389F481E080934C0267960FB6F89494
:101B1000DEBF0FBECDBFDF91CF911F910F91FF9020
:101B2000EF90DF900895823309F050C0209329028E
:101B30006DCF813309F04AC0F80134968AE0DF01A5
:101B40001D928A95E9F781EE95E0A0E0B0E0F801FA
:101B500080839183A283B38388E0848380E6808737
:101B600081E0818795E0928783878FEF85878687DD
:101B70008787C8010E940C0A49CF813339F580ED6F
:101B800097E0A0E0B0E0D11004C088E592E0A0E0CA
:101B9000B0E08093080190930901A0930A01B093EB
:101BA0000B0182E08093470231CF813379F4D11069
:101BB00003C00E94440C2ACF0E946C0627CF8133B9
:101BC00029F4D11003C00E94170C20CF80E09DCFD4
:101BD000FF920F931F93CF93DF93EC01F62E0881B2
:101BE0001981C8010E94E51FF81621F06F2DC80168
:101BF0000E94ED1FCE01DF91CF911F910F91FF90B9
:101C000008954F925F926F927F928F929F92AF92C0
:101C1000BF92DF92EF92FF920F931F93CF93DF93C8
:101C200000D0CDB7DEB74090F8015090F901609038
:101C3000FA017090FB018090F4019090F501A09062
:101C4000F601B090F70104E813E0F12CE12C1A83BF
:101C50000983C301B2010E2C04C096958795779530
:101C600067950A94D2F7CE0101960E94E80DC8014B
:101C700004969A838983C501B4010E2C04C09695FD
:101C80008795779567950A94D2F7CE0101960E94C1
:101C9000E80D88E0E80EF11C0F5F1F4F083883E065
:101CA0001807A9F68CE893E09A83898367EACE0146
:101CB00001960E94E80D0F900F90DF91CF911F9138
:101CC0000F91FF90EF90DF90BF90AF909F908F901B
:101CD0007F906F905F904F900895FF920F931F93A6
:101CE000CF93DF9381E08093420208E612E0D0E0D8
:101CF000C0E0F801F1908F01CE010E94E51FF816B7
:101D000021F06F2DCE010E94ED1F2196CE31D1051D
:101D100081F7DF91CF911F910F91FF9008951F924E
:101D20000F920FB60F9211242F933F934F935F930F
:101D30006F937F938F939F93AF93BF93EF93FF9393
:101D400086E892E00E94CE01FF91EF91BF91AF91A2
:101D50009F918F917F916F915F914F913F912F91C3
:101D60000F900FBE0F901F9018951F920F920FB6F5
:101D70000F9211242F938F939F93EF93FF93E091F2
:101D80009602F09197028081E0919C02F0919D0271
:101D900082FD1BC0908180919F028F5F8F73209185
:101DA000A002821741F0E0919F02F0E0EA57FD4F58
:101DB000958F80939F02FF91EF919F918F912F912B
:101DC0000F900FBE0F901F9018958081F4CF1F9237
:101DD0000F920FB60F9211242F933F938F939F93DF
:101DE000AF93BF938091CD019091CE01A091CF018F
:101DF000B091D0013091CC0123E0230F2D3758F55D
:101E00000196A11DB11D2093CC018093CD0190932B
:101E1000CE01A093CF01B093D0018091D1019091D8
:101E2000D201A091D301B091D4010196A11DB11DA1
:101E30008093D1019093D201A093D301B093D401A8
:101E4000BF91AF919F918F913F912F910F900FBEB6
:101E50000F901F90189526E8230F0296A11DB11D23
:101E6000D2CF1F920F920FB60F9211242F933F9350
:101E70004F935F936F937F938F939F93AF93BF9392
:101E8000EF93FF93E091D701F091D801309749F09B
:101E9000A685B7858585968D91FF14C09C91892371
:101EA000A1F4FF91EF91BF91AF919F918F917F919D
:101EB0006F915F914F913F912F910F900FBE0F90B7
:101EC0001F9018959C91892361F7A389B4899C91EF
:101ED0008589809589238C93868997890197F1F765
:101EE000608D718DA685B785558538E020E0CB01E2
:101EF0000197F1F7822F90E095958795282F4C91C7
:101F0000452309F02068315091F7868D81FD209599
:101F10008091D60190E001968F7399273091D50179
:101F2000381799F0A091D601B0E0A457BE4F2C937A
:101F30008093D601828D938D0197F1F7A389B4899F
:101F40008C919589892B8C93ACCF868D8160868FFF
:101F5000F1CFCF93109289021092880288EE93E01D
:101F6000A0E0B0E080938A0290938B02A0938C0251
:101F7000B0938D0223E331E03093870220938602F1
:101F800025EC30E0309393022093920224EC30E071
:101F9000309395022093940220EC30E03093970226
:101FA0002093960221EC30E030939902209398021E
:101FB00022EC30E030939B0220939A0226EC30E032
:101FC00030939D0220939C0210929F021092A002D7
:101FD0001092A1021092A2021092260310922503E1
:101FE0008093270390932803A0932903B0932A0397
:101FF00085E491E0909324038093230310923A03A5
:102000001092390310923C0310923B0310923E034E
:1020100010923D031092400310923F0360914103E0
:102020006E7F6D7F609341036695617081E06827E4
:1020300083E00E94620261E083E00E94B302E8EB69
:10204000F1E0E491E0933303ECECF1E0E491F0E0B3
:10205000EE0FFF1FEF55FE4F85919491909335033E
:102060008093340360E082E00E94B30280914103D8
:1020700081FD04C061E082E00E94620282E0809300
:102080002F03E7EBF1E0E491E0933003EBECF1E0B8
:10209000E491F0E0EE0FFF1FE956FE4F8591949119
:1020A00090933203809331031092120410922B0408
:1020B00010922C0410922E0410922D0410923004D1
:1020C00010922F04109233041092DB031092030439
:1020D0001092130410921404109215041092160416
:1020E00010921704109218041092190410921A04F6
:1020F00010921B0483E493E09093DA038093D90356
:10210000CFB7F89480914203811127C0E3EDF1E04D
:102110008491EFEBF1E09491E82FF0E0EE0FFF1FD8
:10212000E555FE4FA591B491EC91E92321F461E0CE
:102130008AE00E94620261E08AE00E94B3028CB5EC
:1021400080618CBD8CB580648CBD61E08DE00E94A7
:10215000B30261E08BE00E94B302809142038F5F83
:1021600080934203CFBF8AE08093D40380E896E94E
:10217000A8E9B0E08093D5039093D603A093D7034A
:10218000B093D80361E08AE00E94B30261E08091DD
:10219000D4030E946202E4E4F3E084ED93E010864D
:1021A0001186128613863C968E179F07C1F7CF9132
:1021B0000895CF93DF93CDB7DEB7AC970FB6F89401
:1021C000DEBF0FBECDBF789484B5826084BD84B578
:1021D000816084BD85B5826085BD85B5816085BD22
:1021E00080916E00816080936E00109281008091DA
:1021F0008100826080938100809181008160809362
:102200008100809180008160809380008091B10086
:1022100084608093B1008091B00081608093B000B1
:1022200080917A00846080937A0080917A00826045
:1022300080937A0080917A00816080937A00809107
:102240007A00806880937A001092C100E091960233
:10225000F091970282E08083E0919202F0919302E4
:102260001082E0919402F091950280E180831092B7
:102270009E02E0919A02F0919B0286E08083E091B9
:102280009802F0919902808180618083E0919802A8
:10229000F0919902808188608083E0919802F091AA
:1022A0009902808180688083E0919802F091990280
:1022B00080818F7D80838CE0E2E1F1E0DE01119688
:1022C00001900D928A95E1F78E010F5F1F4F6E010D
:1022D0002DE0C20ED11CD801FD908D0161E08F2D43
:1022E0000E94B30260E08F2D0E946202C016D106E8
:1022F00091F70E94B50968E6E62E62E0F62E10E03E
:1023000000E0C8010E94E51FF70181937F010F5F84
:102310001F4F0E311105A9F783E290E00E94510B87
:102320008093E80187E390E00E94510B8093E601DF
:10233000B12CA12C04E813E0C12CD12C7601412C46
:10234000512C3201C8010E94510B90E0B0E0A0E096
:102350000A2C04C0880F991FAA1FBB1F0A94D2F72A
:10236000482A592A6A2A7B2AC80104960E94510BDE
:1023700090E0B0E0A0E00A2C04C0880F991FAA1FCB
:10238000BB1F0A94D2F7C82AD92AEA2AFB2A0F5F70
:102390001F4FF8E0AF0EB11C083823E0120791F68A
:1023A0008CE893E00E94510B873A09F000C14092FB
:1023B000F8015092F9016092FA017092FB01C0920B
:1023C000F401D092F501E092F601F092F70181E07C
:1023D0008093420288E199E20FB6F894A895809321
:1023E00060000FBE9093600053E2252E53E0352E1F
:1023F0001AE0809151028111A6C00E940903613147
:1024000077428105910508F49EC010923E03109218
:102410003D0310923C0310923B0310923A0310923A
:10242000390382E490E09093400380933F039091BE
:102430002F03963108F047C02FE030E030933A0385
:102440002093390320E430E030933C0320933B0396
:1024500027E230E030933E0320933D032091680053
:1024600084E0983048F031E09E3008F430E081E0BC
:1024700001C0880F3A95EAF7822B809368002DE619
:1024800030E0983050F02BE630E09E3030F02CE613
:1024900030E0963110F030E020E0309337032093A5
:1024A0003603292F30E0983008F09EC081E001C04B
:1024B000880F9A95EAF78093380380913F039091B3
:1024C00040030197F1F780913D0390913E03892BE2
:1024D00039F1E091D701F091D80143E0E332F407FC
:1024E000F9F0309739F0A389B4899C91858980955A
:1024F00089238C93809141038E7F809341031092B6
:10250000D6011092D5013092D8012092D701E091E6
:102510003603F0913703808190913803892B8083B3
:10252000809113048E7F80931304109214041092F0
:102530002B0410921B0464EF71E081E00E941503EC
:1025400081E08093510283E293E00E94D203892BC1
:1025500009F4A3C1A89583E293E00E94E8030091E7
:102560001204063009F056C08E3309F053C0609152
:102570002F04709130048091130485FF42C083E2E0
:1025800093E00E942C016AE183E293E00E947603CB
:10259000809113048B7F8093130410922B0410926C
:1025A0001B0460E67AEE87E00E941503CCCFA4E21C
:1025B000B0E0A30192010E9465206093F80170933E
:1025C000F9018093FA019093FB01A70196010E9403
:1025D00065206093F4017093F5018093F601909368
:1025E000F7010E94010EF3CE9E3040F428503109CD
:1025F00081E001C0880F2A95EAF75DCF2E5031099E
:10260000F7CF6115710509F4BECF83E293E00E9414
:10261000530BB9CF8D3009F496CFD0901304D6FE6A
:102620002FC090912C048A30A1F4E0912B04F0E0AB
:10263000E552FC4F10A621E0943008F420E0809190
:10264000130420FB83F98F7B8093130410922B04D7
:102650007ACF823221F49F5F90932C0474CF933011
:1026600009F071CFE0912B04EE3008F06CCF91E0CF
:102670009E0F90932B04F0E0E552FC4F80A763CFB0
:10268000E0912B040830D9F49D2D98719830B9F45D
:102690008A3049F4F0E0E552FC4F10826894D4F897
:1026A000D0921304D3CFE73208F04DCF91E09E0FC4
:1026B00090932B04F0E0E552FC4F808344CF8A30A6
:1026C00009F0C0C0EE2309F43ECFF0E0E55EFB4F19
:1026D000108246E050E066E571E08BE194E00E94F4
:1026E000A520892B81F5EBE1F4E08191882331F17C
:1026F0008C32D9F780E0919120ED290F2A3030F407
:10270000819F900D1124892F8053F5CF8823B1F03C
:10271000E0913304A1E3B4E090E0E91729F02D91B2
:10272000821761F09F5FF9CFE23040F491E09E0F95
:1027300090933304F0E0EF5CFB4F808310922B0406
:1027400010921B0400CF6DE571E08BE194E00E94D4
:1027500095207C0160E671E08BE194E00E94952079
:10276000892B11F40C94491F4BE050E066E671E0B0
:102770008BE194E00E94A520892B11F40C94491F51
:102780004BE050E062E771E08BE194E00E94A5200D
:10279000892B11F40C94491F083061F00330B9F112
:1027A000A8F4023059F6EF2849F6109214040E945A
:1027B000750BC4CFEF2811F68D2D8871883111F07B
:1027C0000C944D1F81E00E943203B8CF0730B1F165
:1027D000093009F0B3CFEF2809F0B0CF10921604FA
:1027E0002AC0083048F4063050F40250023008F095
:1027F000A5CF0E942803A2CF093009F09FCF0E94E5
:102800001B0170E060E085E00E94150397CFEF2880
:1028100009F094CF809114048F5F80931404853065
:1028200030F2853011F4D7FEC2CF80911304806856
:1028300081608093130410921504E3CFEF2809F010
:102840007DCFF9CFEF3008F079CF91E09E0F9093D4
:102850002B04F0E0E55EFB4F8083E92FF0E0E55EBE
:10286000FB4F1082083009F06ECED3FC6CCE963050
:1028700009F069CE46E050E06EE771E08BE194E04C
:102880000E947F20892B09F05ECE80911304806422
:102890008093130410922C04D9CEE0911204E150DD
:1028A000E93060F5F0E0E95AFB4E0C945F206014CB
:1028B00079147914AC14D314BF14BF14CA14BF1400
:1028C0000E9445038823D1F083E293E00E94D20363
:1028D000892B29F083E293E00E94E803F5CF89EA8F
:1028E00090E00E94620B60ED77E082E00E941503A9
:1028F00005C00E94450381110E94280380911304A2
:1029000081FFD5C0809113048D7F8093130468E606
:1029100072E083E094E00E949520892B09F4C2C004
:1029200067E772E083E094E00E949520892B09F428
:10293000B9C06CED70E08BED93E00E94CB1F892B4A
:1029400009F033C180916802882309F4B0C08BED8F
:1029500093E00E943506ABC00E944503882371F2C4
:10296000809113048E7F80931304109214041092AC
:102970002B0410921B0464EF71E081E0B7CF0E943A
:102980004503882309F4BACF0E941B0170E060E080
:1029900085E0ACCF0E944503882309F4AFCF83E0E4
:1029A0000E943203ABCF8091130480FFA5CF82FF3A
:1029B0001DC06FE970E083E293E00E942C016091FA
:1029C0002D0470912E046115710521F083E293E0CE
:1029D0000E94530B8DE990E00E94620B10922B0431
:1029E00010921B0468E873E186E080CF0091160422
:1029F00082700023D9F0811119C064E970E083E28C
:102A000093E00E942C01402F50E070E060E02AE04B
:102A100083E293E00E94A30B63E571E083E293E01D
:102A20000E94530B60E177E289E060CF909133041C
:102A3000992309F463CF811165CF8091310480938C
:102A40001604923020F0809132048093310491502A
:102A500090933304109203041092DB0380911304CB
:102A6000877E8F7B8093130410922C0410922B048A
:102A70006BE870E083E293E00E942C014091160421
:102A800050E070E060E02AE083E293E00E94A30B54
:102A900063E571E083E293E00E94530B60E177E22B
:102AA00088E024CF61E08BED93E00E94E70C0E9468
:102AB0006C0880EA0E940C0480E00E940C04082F3D
:102AC0000E94AE0290E080E000FD04C001FF59C109
:102AD00081E090E00E942709892B09F052C10E94F1
:102AE00009036093D9017093DA018093DB0190931D
:102AF000DC012091EF012E7F2093EF01809158029D
:102B000090915902A0915A02B0915B02813553E035
:102B10009507A105B10509F4E8C408F0AFC28A3CE5
:102B2000F2E09F07A105B10509F498C308F066C05B
:102B3000833741E09407A105B10509F4A4C48A33A1
:102B400052E09507A105B10509F41AC4823A91052E
:102B5000A105B10509F061C090916002983009F4B7
:102B600038C308F029C3923009F42FC38091610261
:102B7000883009F443C308F034C3823009F43AC3FF
:102B800091114BC0811149C01092740310928003BF
:102B900010928C03109298031092A4031092B00329
:102BA0001092BC031092C80338C068ED70E08BED42
:102BB00093E00E94CB1F892B69F063E074E088E604
:102BC00092E00E949E200E946D0E84EC90E00E9494
:102BD000A9046DCF60EC70E08BED93E00E94CB1FF9
:102BE000892B09F464CF63E074E087E792E00E94E8
:102BF0009E200E946D0E8CEA90E0E9CF8C3FE2E0CF
:102C00009E07A105B10509F46DC308F01DC2803F00
:102C10009240A105B10509F417C380917703813073
:102C200021F41092770380932E02809183038130E8
:102C300021F4109283038093330280918F038130BB
:102C400009F086C410928F0381E08093380280914E
:102C50009B03813021F410929B0380933D0280916D
:102C6000A703813021F41092A7038093240280915E
:102C7000B303813089F51092B30380EA92E0A0E0BB
:102C8000B0E08093580290935902A0935A02B093F7
:102C90005B0288E080935C0288E880936002809306
:102CA000610280EF809362028DE4809363028FEF74
:102CB000809364028093650280936602809367022A
:102CC00088E592E00E940C0A88E592E00E940C0AD6
:102CD00088E592E00E940C0A8091CB03813021F4B8
:102CE0001092CB0380934C0280914703833029F4E8
:102CF0001092470381E080932902209153032130F1
:102D000041F5109253033091EF0137FB882780F98A
:102D10009091F001492F4170842B91FB442740F999
:102D2000842B92FB442740F9842B99F093FD11C02A
:102D300032FD0FC048EC842E912CA12CB12C809236
:102D4000080190920901A0920A01B0920B01209310
:102D5000470280916B038130A1F410926B03909134
:102D6000010291110EC09091150291110AC090912B
:102D700010029111F5C39091EF0193FDF1C380937F
:102D800001020E940903C090D901D090DA01E090BD
:102D9000DB01F090DC016C197D098E099F09613E11
:102DA000734984409105C8F08091EF0180FD15C002
:102DB0000E94B5090E9409036093D9017093DA015A
:102DC0008093DB019093DC018091EF01816080931F
:102DD000EF011092E4010E94010E80910102811125
:102DE00045C080910602811141C08091EF0186FDAE
:102DF0003DC09091F101492F41708091F00184FB19
:102E0000332730F9232F242740FB84F992FB4427F2
:102E100040F985FB332730F93427322B40FB85F905
:102E200094FB442740F986FB222720F92427322BE4
:102E300040FB86F996FB442740F987FB222720F9BF
:102E40002427232B40FB87F98093F001222371F084
:102E500095758091F201992309F486C3846080936B
:102E6000F2016BE08AEF90E00E94B90C0E94090326
:102E7000E4E4F3E021E0C480D580E680F7804B01F4
:102E80005C018C189D08AE08BF087501640139EB20
:102E9000C3163BE0D306E104F10408F0138241813C
:102EA0003081411168C3332329F06087718782879D
:102EB000938721833C9643E0E43DF407E1F60091DB
:102EC00010020023F9F00E940903C0901102D09073
:102ED0001202E0901302F09014026C197D098E0921
:102EE0009F09613A7B4B8D40910508F4DEC70230A3
:102EF00039F480911502811103C084E0809315029A
:102F0000109210020E9439059091F20192FB7727EE
:102F100070F96091E8015091E6014091E40193FB62
:102F2000332730F92091EF018091F101371341C02F
:102F300095FB332730F994FBEE27E0F93E1339C0B7
:102F400091FB332730F99170391333C0982F91706A
:102F500081FB332730F993132CC082FB992790F91A
:102F600083FB332730F9931324C085FB992790F90D
:102F700084FB332730F993131CC087FB992790F902
:102F800086FB332730F9931314C024FB992790F95B
:102F900023FB332730F993130CC09091E90196136A
:102FA00008C09091E701951304C09091E501941732
:102FB00039F13091F20170FB33F9932F34FB95F91D
:102FC000392F90FB31F93093F201382F80FB31F922
:102FD000932F32FB93F9892F94FB85F9982F86FB69
:102FE00097F99093F101822F23FB84F98093EF01ED
:102FF0006093E9015093E7014093E5010E94440C7E
:1030000006E086E892E00E94AE01892B09F4E1C255
:1030100086E892E00E948C01E091E3018A3021F081
:103020008D3011F08111C7C2E23011F0E53049F462
:10303000F0E0E352FE4F108260E08DED91E00E94DF
:10304000E70C1092E301DDCF8E3233E09307A10548
:10305000B10509F41AC180339340A105B10509F007
:10306000DCCD609163026093E60187E390E09A8390
:103070008983CE0101960E94E80DCFCD873B53E0B6
:103080009507A105B10509F44DC208F05AC0833A6D
:10309000F3E09F07A105B10509F4B8C0863B23E022
:1030A0009207A105B10509F427C28B369340A1050B
:1030B000B10509F0B2CD609160027091610240915A
:1030C0006202509163022091640230916502809106
:1030D000660290916702E0910601F09107016E1778
:1030E0007F0709F067C0E0910401F09105014E17D8
:1030F0005F0709F05FC0E0910201F0910301A1E0D8
:103100002E173F0741F4E0910001F0910101E8170B
:10311000F90709F4A0E0709307016093060150934A
:103120000501409304013093030120930201909321
:10313000010180930001AA2309F46FCD0E94170CAE
:103140006CCD893B43E09407A105B10509F4F5C1B5
:1031500008F4DDC1893FE3E09E07A105B10509F44C
:1031600097C182319440A105B10509F056CD8091F7
:10317000600290916102A0916202B091630240915D
:103180006402509165026091660270916702705806
:103190004093F8015093F9016093FA017093FB0199
:1031A000B0588093F4019093F501A093F601B09389
:1031B000F70133CDA1E0AFCF903279F0903809F02C
:1031C000D5CC81E080939803D1CC81E080937403C7
:1031D000CDCC81E080938003C9CC81E080938C03C7
:1031E000C5CC803279F0803809F0CACC81E0809378
:1031F000C80313CD81E08093A4030FCD81E08093B9
:10320000B0030BCD81E08093BC0307CD80916002B9
:10321000803D49F4809161028F3F09F0FECC84E04B
:103220000E94330BFACC883C09F0F7CC8091610204
:103230008F3F09F0F2CC81E00E94330B8091EF01C7
:1032400080648093EF01E9CC809160028C708830BB
:1032500009F0E3CC82E080930602DFCC809160022B
:1032600025E0829FC0011124805991406AE070E0FE
:103270000E9429206093EE019C0197FF03C03195C5
:10328000219531092093ED01C8CC2091630291E092
:103290002F3E09F090E08091F20190FB87F9809336
:1032A000F20191E02C3309F490E08091F20190FB5F
:1032B00086F98093F201219F90011124C9016CE3EA
:1032C00070E00E9429206093EC01C90166E070E083
:1032D0000E942920CB016AE070E00E94292080939F
:1032E000EB019BCC8091F2019091600290FB80F900
:1032F0008093F20180916102982F937051E0913098
:1033000009F050E09091F10150FB90F99093F10198
:1033100041E0982F9C70943009F040E09091F101C9
:1033200040FB92F99093F10131E0982F9073903126
:1033300009F030E09091F10130FB94F99093F101A4
:10334000807C21E0803409F020E08091F10120FBB5
:1033500086F98093F1019091F30190FD5ECC80910C
:10336000F00150FB84F940FB85F930FB86F920FB26
:1033700087F98093F001892F81608093F3014DCC10
:1033800080916202843061F4809163028F3309F08E
:1033900044CC81E0809350032F7B2093EF013DCC00
:1033A0008130E1F4809163028F3309F036CC81E003
:1033B000809344038091EF0180648093EF01109229
:1033C00010028091F001877F8093F0018091F201DB
:1033D00082FF23CC8B7F8093F2011FCC803171F46C
:1033E000809163028F3309F018CC80916502833F8E
:1033F00009F413CC81E080935C030FCC811133C0BE
:10340000809163028F3309F008CC809164028F3F72
:1034100009F003CC80916502813FA9F48091EF010E
:1034200091E0282F227081FD90E0909368038695AB
:103430008170211101C081E09091EF0180FB91F931
:103440009093EF01EACB803F09F0E7CB1092500355
:103450001092440310925C038091F0018F788F7773
:103460008093F001DACB803409F0D7CB80916302EE
:103470008F3309F0D2CB109268038091EF018D7FDA
:103480008093EF01E9CF8091670280FB25F985CF1A
:1034900080916302837091E0823009F090E0809126
:1034A000EF0190FB83F98093EF0183FD19C08091B8
:1034B00010028823A9F00E940903C0901102D09045
:1034C0001202E0901302F09014026C197D098E092B
:1034D0009F09693E73408105910510F0109210021A
:1034E000809164028093E40198CB609163026093C1
:1034F000E80183E290E0BBCD91E0809161028C3FD6
:1035000009F490E08091EF0190FB87F99ACE91E069
:10351000809161028C3F09F490E08091F00190FB72
:1035200080F99ECF91E080916002811101C090E00E
:103530008091F00190FB81F993CF91E0809160023E
:10354000811101C090E08091F00190FB82F988CF59
:1035500080915F03813009F07ACB10925F0374CBC6
:1035600081E0809315020DCC8B7F8093F2016CE09B
:103570008DEE90E079CC31119DCC12821182C08405
:10358000D184E284F3844B015C018C189D08AE0861
:10359000BF087501640138EEC31633E0D306E104B9
:1035A000F10408F087CC33813F5F338364837583F4
:1035B000868397837FCCE53048F491E09E0F90930B
:1035C000E301F0E0E352FE4F80831BCD0093E30163
:1035D00018CDA8959091150280910102992309F4C4
:1035E000DEC281115DC401E080910602811101C03B
:1035F00000E080910602882319F081E00E94150600
:1036000080911A02882321F062E185E00E942B0656
:1036100080911F02882321F063E186E00E942B063F
:1036200060E085E00E946202002339F01092EA0116
:103630008091EF018D7F8093EF01809101028823BB
:1036400019F080E00E94080780910602882319F093
:1036500081E00E94080780910B028630C1F58091BD
:103660000C0290910D02A0910E02B0910F02892BD5
:103670008A2B8B2B51F40E94090360930C027093E8
:103680000D0280930E0290930F020E940903C090D6
:103690000C02D0900D02E0900E02F0900F02DC01BF
:1036A000CB018C199D09AE09BF0961E08C32E1E0C4
:1036B0009E07A105B10540F060E08032F3E09F076E
:1036C000A105B10508F0CBC289E00E946202009119
:1036D00015020023B1F18091160290911702A0917A
:1036E0001802B0911902892B8A2B8B2B51F40E945E
:1036F0000903609316027093170280931802909347
:1037000019020E940903C0901602D0901702E0909F
:103710001802F0901902DC01CB018C199D09AE0949
:10372000BF092091EF01F22FF870FF2E23FF3EC357
:1037300084369105A105B10508F038C381E00E94E7
:103740009E0480911F02882321F063E186E00E949D
:103750008A0680911A02882321F062E185E00E94A6
:103760008A06809124028823D1F1809125029091CC
:103770002602A0912702B0912802892B8A2B8B2B3D
:1037800069F40E94090360932502709326028093D6
:1037900027029093280281E0809342020E9409034D
:1037A000C0902502D0902602E0902702F0902802D7
:1037B0006C197D098E099F0960367A4E8105910545
:1037C00058F48091EF0183FD0AC08091F101857565
:1037D00031F481E080931A0287E00E94090600918B
:1037E00029020023D1F180912A0290912B02A0910D
:1037F0002C02B0912D02892B8A2B8B2B81F40E94F5
:10380000090360932A0270932B0280932C029093F9
:103810002D02023009F074C380E00E940F0B0E9459
:103820000903C0902A02D0902B02E0902C02F09065
:103830002D026C197D098E099F09023009F06EC3B3
:1038400034E8C32E33E0D32EE12CF12C643F21E089
:1038500072078105910508F067C380912E028823C5
:1038600031F044E251E061E189E00E94C1048091BD
:103870003302882331F04AE251E06EE08AE00E9490
:10388000C10480913802882331F040E351E060E1C7
:103890008BE00E94C10480913D02882331F046E311
:1038A00051E06FE08CE00E94C104809142028823C5
:1038B00091F18091430290914402A0914502B09110
:1038C0004602892B8A2B8B2B69F40E940903609393
:1038D000430270934402809345029093460281E034
:1038E0000E940F0B0E940903C0904302D090440233
:1038F000E0904502F09046026C197D098E099F09FF
:10390000653671058105910530F080E00E940F0B4E
:103910008DE00E94090680914C02882309F4AEC014
:103920008090F8019090F901A090FA01B090FB010D
:10393000C501B401B7FE07C066277727CB01681918
:1039400079098A099B0929E030E040E050E00E94B3
:103950003D2029013A019B01AC01A9E1B0E00E94A0
:1039600065206C5F7F4F8F4F9F4F29E030E040E034
:1039700050E00E943D2069017A01A9E1B0E0A30175
:1039800092010E946520C60ED71EE81EF91EB7FEE2
:1039900008C0F094E094D094C094C11CD11CE11CE8
:1039A000F11C8090F4019090F501A090F601B09088
:1039B000F701C501B401B7FE07C066277727CB0121
:1039C000681979098A099B0929E030E040E050E054
:1039D0000E943D2029A73AA74BA75CA79B01AC01F9
:1039E000A9E1B0E00E9465206C5F7F4F8F4F9F4F31
:1039F00029E030E040E050E00E943D2029013A01FA
:103A0000A9E1B0E029A53AA54BA55CA50E946520D7
:103A1000460E571E681E791EB7FE08C0709460944B
:103A200050944094411C511C611C711C87E4898393
:103A300080E58A8383E58B83B701A601CE010496D6
:103A40000E9413042CE2DC012C93B301A201019625
:103A50000E9413047C0180E2F701808383E281836A
:103A6000C70102960E944D05D7011A961C928FE05D
:103A70000E940906CE0101960E9466060091470247
:103A8000002309F47CC00E9409036B017C01809132
:103A9000480290914902A0914A02B0914B020097CE
:103AA000A105B105C1F4C0924802D0924902E0924A
:103AB0004A02F0924B021092FC011092FD0110920A
:103AC000FE011092FF0140E050E0BA010230F1F433
:103AD00081E0809342028091480290914902A09136
:103AE0004A02B0914B02B701A601481B590B6A0B61
:103AF0007B0B023009F0A6C1443FB1E05B076105D2
:103B00007105E8F184EF91E0A0E0B0E08090080159
:103B100090900901A0900A01B0900B01880D991DA9
:103B2000AA1DBB1D481759076A077B0708F08EC1FD
:103B3000809100028823A9F08091FC019091FD0101
:103B4000A091FE01B091FF0146015701881A990A20
:103B5000AA0ABB0AD501C401843F9140A105B10561
:103B600070F081E00E94FE0A81E080930002C09222
:103B7000FC01D092FD01E092FE01F092FF0180E095
:103B800090E0892B11F40C94F9110E94BA0188235A
:103B900011F40C94F4110E9400000C94F411882389
:103BA000F9F0809106028823D9F080910202909169
:103BB0000302A0910402B0910502892B8A2B8B2B62
:103BC00029F18091070290910802A0910902B09119
:103BD0000A02892B8A2B8B2BC9F481E00E940906EB
:103BE00080911A0290910602992391F0882321F086
:103BF00062E185E00E942B0680911F02882309F470
:103C00001CCD63E186E00E942B0617CD80E0E6CF55
:103C1000909101029111EACF882309F415CD80918A
:103C20001F02882309F410CD80911B0290911C0281
:103C3000A0911D02B0911E02892B8A2B8B2B61F063
:103C40008091200290912102A0912202B091230242
:103C5000892B8A2B8B2BA9F262E185E0D4CF88389F
:103C60009341A105B10508F097C089E00E94620266
:103C70008091F30181FD2BCD4091F20146FF27CDCC
:103C800080911002823009F022CD8091EE01509196
:103C9000ED012091EC013091EB019CE79983FE014D
:103CA000329687FF05C09DE29A838195FE01339687
:103CB00084363CF091E3908364E60E940720892FCC
:103CC00031968A303CF0612F0E940720805D80830E
:103CD000892F3196805D80838EE28183852F612FCD
:103CE0000E94FB1F905D92838CE7838347FF2BC06C
:103CF0008FE684838CE6858384E7868382E78783E7
:103D000085E6808780E2818784E382877F013CE0CB
:103D1000E30EF11C80E3838723E2D7012D93CD01CD
:103D20000E944D05F7011186CE0101960E9466069C
:103D30008091F30182608093F3018091F2018F7B87
:103D40008093F201C4CCDF012436E8F414962A30C3
:103D500040F0822F612F0E94FB1F805D8C93292FE2
:103D60001196205D2C938EE211968C9311977D0114
:103D700043E0E40EF11C832F612F0E94FB1F905D36
:103D800012969C93C9CF1596822F64E60E94FB1F62
:103D9000805D8483292FDBCF89E00E94620282E06C
:103DA0000E9409068091F3018D7FC5CF8C3231E0EE
:103DB0009307A105B10510F480E0C1CC803D47E038
:103DC0009407A105B10508F4BCCC287239F48C3FE6
:103DD00058E09507A105B10508F4B0CC80369940AC
:103DE000A105B10518F580E00E949E04FF2041F076
:103DF0008091F20184608093F2010E946C0606C0FB
:103E0000033081F0043041F00230B9F384E00E94C5
:103E100009061092100295CC6DE086E191E00E94B7
:103E2000B90CF4CF6FE086E091E0F9CF80E00E941A
:103E30009E04ECCF60E084E00E94620288E00E9471
:103E400009060BCD80E090E0DC0160CE80E00E94AE
:103E5000FE0A80E00E94FE0A80E00E94FE0A1092A4
:103E600000021092FC011092FD011092FE011092CE
:103E7000FF0180ED97E0A0E0B0E08093080190930F
:103E80000901A0930A01B0930B018EE00E9409067C
:103E900076CE083011F00C94F11382E00C94E31309
:103EA00080E00E94150601E0A4CB009110020E9460
:103EB0000903C0901102D0901202E0901302F0901A
:103EC00014026C197D098E099F0961347F418105B7
:103ED000910508F417C88091EF0185FD05C0809118
:103EE000F101857509F40EC8023011F00C948017A9
:103EF0008091150281110C94801783E00C947E1739
:103F00000E940903C0902A02D0902B02E0902C025C
:103F1000F0902D026C197D098E099F0920E9C22EAF
:103F2000DD24D394E12CF12C6C157D058E059F05C5
:103F300008F080CF61E084E00E9462028ECC85E4CC
:103F400091E090932403809323038091D701909173
:103F5000D8018352934071F4E0913603F091370316
:103F60009081809138038095892380831092D801B5
:103F70001092D7010895FB01DC018D910590801905
:103F80000110D9F3990B0895FB01DC0105900D9206
:103F90000020E1F70895FB0155915523A9F0BF01D9
:103FA000DC014D9145174111E1F759F4CD01059020
:103FB000002049F04D9140154111C9F3FB01411119
:103FC000EFCF81E090E001970895F999FECF92BD7F
:103FD00081BDF89A992780B50895262FF999FECFCB
:103FE0001FBA92BD81BD20BD0FB6F894FA9AF99A16
:103FF0000FBE01960895991B79E004C0991F96178A
:1040000008F0961B881F7A95C9F78095089587FB5D
:10401000082E062687FD819567FD61950E94FB1F8E
:104020000EF4919507FC81950895AA1BBB1B51E1E5
:1040300007C0AA1FBB1FA617B70710F0A61BB70B18
:10404000881F991F5A95A9F780959095BC01CD01BD
:10405000089597FB072E16F4009407D077FD09D03A
:104060000E94152007FC05D03EF4909581959F4F46
:104070000895709561957F4F0895A1E21A2EAA1BAD
:10408000BB1BFD010DC0AA1FBB1FEE1FFF1FA21708
:10409000B307E407F50720F0A21BB30BE40BF50B05
:1040A000661F771F881F991F1A9469F7609570958E
:1040B000809590959B01AC01BD01CF010895EE0F55
:1040C000FF1F0590F491E02D09940E947020A59F98
:1040D000900DB49F900DA49F800D911D1124089503
:1040E000A29FB001B39FC001A39F700D811D112439
:1040F000911DB29F700D811D1124911D0895FB012A
:10410000DC0104C08D910190801921F44150504090
:10411000C8F7881B990B0895FB01DC0102C00190D0
:104120000D9241505040D8F70895FB01DC018D916C
:10413000019080190110D9F3990B0895FB01DC015E
:1041400001900D920020E1F70895FB01DC01415040
:10415000504030F08D910190801919F40020B9F78A
:10416000881B990B0895FB01DC014150504048F039
:1041700001900D920020C9F701C01D92415050409E
:10418000E0F7089510E0C0EFD0E004C0FE010E9407
:0E4190005F202196C13FD107C9F7F894FFCFF9
:10419E00FFFFFFFFFFFFFFFFD00700000000010041
:1041AE00020009050412110E100F081306076061B4
:1041BE0066017071760230313640414650515600DC
:1041CE00000000F00150017D014202AE018C01A001
:1041DE0001000000007603500109047503D203E8C4
:1041EE00035D030D0A002B434D54493A004F4B001B
:1041FE004552524F52002B434D53204552524F526F
:10420E003A002B434D45204552524F523A002B4314
:06421E004D47523A00007A
:00000001FF
